{
	"contracts/sig.sol": {
		"SelectorVisualizer": {
			"abi": [
				{
					"anonymous": false,
					"inputs": [
						{
							"indexed": false,
							"internalType": "bytes",
							"name": "data",
							"type": "bytes"
						},
						{
							"indexed": false,
							"internalType": "bytes4",
							"name": "selector",
							"type": "bytes4"
						},
						{
							"indexed": false,
							"internalType": "bytes4",
							"name": "sig",
							"type": "bytes4"
						}
					],
					"name": "Info",
					"type": "event"
				},
				{
					"inputs": [
						{
							"internalType": "uint256",
							"name": "x",
							"type": "uint256"
						},
						{
							"internalType": "string",
							"name": "name",
							"type": "string"
						}
					],
					"name": "foo",
					"outputs": [],
					"stateMutability": "nonpayable",
					"type": "function"
				},
				{
					"inputs": [],
					"name": "getAllData",
					"outputs": [
						{
							"internalType": "bytes",
							"name": "",
							"type": "bytes"
						}
					],
					"stateMutability": "pure",
					"type": "function"
				},
				{
					"inputs": [],
					"name": "getSelector",
					"outputs": [
						{
							"internalType": "bytes4",
							"name": "",
							"type": "bytes4"
						}
					],
					"stateMutability": "pure",
					"type": "function"
				}
			],
			"devdoc": {
				"kind": "dev",
				"methods": {},
				"version": 1
			},
			"evm": {
				"assembly": "    /* \"contracts/sig.sol\":60:570  contract SelectorVisualizer {... */\n  mstore(0x40, 0x80)\n  callvalue\n  dup1\n  iszero\n  tag_1\n  jumpi\n  revert(0x00, 0x00)\ntag_1:\n  pop\n  dataSize(sub_0)\n  dup1\n  dataOffset(sub_0)\n  0x00\n  codecopy\n  0x00\n  return\nstop\n\nsub_0: assembly {\n        /* \"contracts/sig.sol\":60:570  contract SelectorVisualizer {... */\n      mstore(0x40, 0x80)\n      callvalue\n      dup1\n      iszero\n      tag_1\n      jumpi\n      revert(0x00, 0x00)\n    tag_1:\n      pop\n      jumpi(tag_2, lt(calldatasize, 0x04))\n      shr(0xe0, calldataload(0x00))\n      dup1\n      0x034899bc\n      eq\n      tag_3\n      jumpi\n      dup1\n      0x2d10fa28\n      eq\n      tag_4\n      jumpi\n      dup1\n      0xc5d1c995\n      eq\n      tag_5\n      jumpi\n    tag_2:\n      revert(0x00, 0x00)\n        /* \"contracts/sig.sol\":277:395  function getSelector() public pure returns (bytes4) {... */\n    tag_3:\n      tag_6\n      tag_7\n      jump\t// in\n    tag_6:\n      mload(0x40)\n      tag_8\n      swap2\n      swap1\n      tag_9\n      jump\t// in\n    tag_8:\n      mload(0x40)\n      dup1\n      swap2\n      sub\n      swap1\n      return\n        /* \"contracts/sig.sol\":403:563  function getAllData() public pure returns(bytes memory) {... */\n    tag_4:\n      tag_10\n      tag_11\n      jump\t// in\n    tag_10:\n      mload(0x40)\n      tag_12\n      swap2\n      swap1\n      tag_13\n      jump\t// in\n    tag_12:\n      mload(0x40)\n      dup1\n      swap2\n      sub\n      swap1\n      return\n        /* \"contracts/sig.sol\":155:269  function foo(uint x, string memory name) public {... */\n    tag_5:\n      tag_14\n      0x04\n      dup1\n      calldatasize\n      sub\n      dup2\n      add\n      swap1\n      tag_15\n      swap2\n      swap1\n      tag_16\n      jump\t// in\n    tag_15:\n      tag_17\n      jump\t// in\n    tag_14:\n      stop\n        /* \"contracts/sig.sol\":277:395  function getSelector() public pure returns (bytes4) {... */\n    tag_7:\n        /* \"contracts/sig.sol\":321:327  bytes4 */\n      0x00\n        /* \"contracts/sig.sol\":354:386  keccak256(\"foo(uint256,string)\") */\n      0xc5d1c995751f0f78da960202778778c011553d6792ee98a31cc6a109429ae772\n        /* \"contracts/sig.sol\":340:387  return bytes4(keccak256(\"foo(uint256,string)\")) */\n      swap1\n      pop\n        /* \"contracts/sig.sol\":277:395  function getSelector() public pure returns (bytes4) {... */\n      swap1\n      jump\t// out\n        /* \"contracts/sig.sol\":403:563  function getAllData() public pure returns(bytes memory) {... */\n    tag_11:\n        /* \"contracts/sig.sol\":445:457  bytes memory */\n      0x60\n        /* \"contracts/sig.sol\":507:539  keccak256(\"foo(uint256,string)\") */\n      0xc5d1c995751f0f78da960202778778c011553d6792ee98a31cc6a109429ae772\n        /* \"contracts/sig.sol\":542:545  123 */\n      0x7b\n        /* \"contracts/sig.sol\":477:555  abi.encodeWithSelector(bytes4(keccak256(\"foo(uint256,string)\")), 123, \"hello\") */\n      add(0x24, mload(0x40))\n      tag_20\n      swap2\n      swap1\n      tag_21\n      jump\t// in\n    tag_20:\n      mload(0x40)\n      0x20\n      dup2\n      dup4\n      sub\n      sub\n      dup2\n      mstore\n      swap1\n      0x40\n      mstore\n      swap1\n      not(0xffffffffffffffffffffffffffffffffffffffffffffffffffffffff)\n      and\n      0x20\n      dup3\n      add\n      dup1\n      mload\n      0xffffffffffffffffffffffffffffffffffffffffffffffffffffffff\n      dup4\n      dup2\n      dup4\n      and\n      or\n      dup4\n      mstore\n      pop\n      pop\n      pop\n      pop\n        /* \"contracts/sig.sol\":470:555  return abi.encodeWithSelector(bytes4(keccak256(\"foo(uint256,string)\")), 123, \"hello\") */\n      swap1\n      pop\n        /* \"contracts/sig.sol\":403:563  function getAllData() public pure returns(bytes memory) {... */\n      swap1\n      jump\t// out\n        /* \"contracts/sig.sol\":155:269  function foo(uint x, string memory name) public {... */\n    tag_17:\n        /* \"contracts/sig.sol\":219:261  Info(msg.data, this.foo.selector, msg.sig) */\n      0xb474992b95511807159c8cd6db0b53da752f14d5a95adb3f50ba20e689ba5933\n        /* \"contracts/sig.sol\":224:232  msg.data */\n      0x00\n      calldatasize\n        /* \"contracts/sig.sol\":234:251  this.foo.selector */\n      shl(0xe0, 0xc5d1c995)\n        /* \"contracts/sig.sol\":253:260  msg.sig */\n      and(0xffffffff00000000000000000000000000000000000000000000000000000000, calldataload(0x00))\n        /* \"contracts/sig.sol\":219:261  Info(msg.data, this.foo.selector, msg.sig) */\n      mload(0x40)\n      tag_23\n      swap5\n      swap4\n      swap3\n      swap2\n      swap1\n      tag_24\n      jump\t// in\n    tag_23:\n      mload(0x40)\n      dup1\n      swap2\n      sub\n      swap1\n      log1\n        /* \"contracts/sig.sol\":155:269  function foo(uint x, string memory name) public {... */\n      pop\n      pop\n      jump\t// out\n        /* \"#utility.yul\":7:156   */\n    tag_25:\n        /* \"#utility.yul\":43:50   */\n      0x00\n        /* \"#utility.yul\":83:149   */\n      0xffffffff00000000000000000000000000000000000000000000000000000000\n        /* \"#utility.yul\":76:81   */\n      dup3\n        /* \"#utility.yul\":72:150   */\n      and\n        /* \"#utility.yul\":61:150   */\n      swap1\n      pop\n        /* \"#utility.yul\":7:156   */\n      swap2\n      swap1\n      pop\n      jump\t// out\n        /* \"#utility.yul\":162:277   */\n    tag_26:\n        /* \"#utility.yul\":247:270   */\n      tag_59\n        /* \"#utility.yul\":264:269   */\n      dup2\n        /* \"#utility.yul\":247:270   */\n      tag_25\n      jump\t// in\n    tag_59:\n        /* \"#utility.yul\":242:245   */\n      dup3\n        /* \"#utility.yul\":235:271   */\n      mstore\n        /* \"#utility.yul\":162:277   */\n      pop\n      pop\n      jump\t// out\n        /* \"#utility.yul\":283:501   */\n    tag_9:\n        /* \"#utility.yul\":374:378   */\n      0x00\n        /* \"#utility.yul\":412:414   */\n      0x20\n        /* \"#utility.yul\":401:410   */\n      dup3\n        /* \"#utility.yul\":397:415   */\n      add\n        /* \"#utility.yul\":389:415   */\n      swap1\n      pop\n        /* \"#utility.yul\":425:494   */\n      tag_61\n        /* \"#utility.yul\":491:492   */\n      0x00\n        /* \"#utility.yul\":480:489   */\n      dup4\n        /* \"#utility.yul\":476:493   */\n      add\n        /* \"#utility.yul\":467:473   */\n      dup5\n        /* \"#utility.yul\":425:494   */\n      tag_26\n      jump\t// in\n    tag_61:\n        /* \"#utility.yul\":283:501   */\n      swap3\n      swap2\n      pop\n      pop\n      jump\t// out\n        /* \"#utility.yul\":507:605   */\n    tag_27:\n        /* \"#utility.yul\":558:564   */\n      0x00\n        /* \"#utility.yul\":592:597   */\n      dup2\n        /* \"#utility.yul\":586:598   */\n      mload\n        /* \"#utility.yul\":576:598   */\n      swap1\n      pop\n        /* \"#utility.yul\":507:605   */\n      swap2\n      swap1\n      pop\n      jump\t// out\n        /* \"#utility.yul\":611:779   */\n    tag_28:\n        /* \"#utility.yul\":694:705   */\n      0x00\n        /* \"#utility.yul\":728:734   */\n      dup3\n        /* \"#utility.yul\":723:726   */\n      dup3\n        /* \"#utility.yul\":716:735   */\n      mstore\n        /* \"#utility.yul\":768:772   */\n      0x20\n        /* \"#utility.yul\":763:766   */\n      dup3\n        /* \"#utility.yul\":759:773   */\n      add\n        /* \"#utility.yul\":744:773   */\n      swap1\n      pop\n        /* \"#utility.yul\":611:779   */\n      swap3\n      swap2\n      pop\n      pop\n      jump\t// out\n        /* \"#utility.yul\":785:924   */\n    tag_29:\n        /* \"#utility.yul\":874:880   */\n      dup3\n        /* \"#utility.yul\":869:872   */\n      dup2\n        /* \"#utility.yul\":864:867   */\n      dup4\n        /* \"#utility.yul\":858:881   */\n      mcopy\n        /* \"#utility.yul\":915:916   */\n      0x00\n        /* \"#utility.yul\":906:912   */\n      dup4\n        /* \"#utility.yul\":901:904   */\n      dup4\n        /* \"#utility.yul\":897:913   */\n      add\n        /* \"#utility.yul\":890:917   */\n      mstore\n        /* \"#utility.yul\":785:924   */\n      pop\n      pop\n      pop\n      jump\t// out\n        /* \"#utility.yul\":930:1032   */\n    tag_30:\n        /* \"#utility.yul\":971:977   */\n      0x00\n        /* \"#utility.yul\":1022:1024   */\n      0x1f\n        /* \"#utility.yul\":1018:1025   */\n      not\n        /* \"#utility.yul\":1013:1015   */\n      0x1f\n        /* \"#utility.yul\":1006:1011   */\n      dup4\n        /* \"#utility.yul\":1002:1016   */\n      add\n        /* \"#utility.yul\":998:1026   */\n      and\n        /* \"#utility.yul\":988:1026   */\n      swap1\n      pop\n        /* \"#utility.yul\":930:1032   */\n      swap2\n      swap1\n      pop\n      jump\t// out\n        /* \"#utility.yul\":1038:1411   */\n    tag_31:\n        /* \"#utility.yul\":1124:1127   */\n      0x00\n        /* \"#utility.yul\":1152:1190   */\n      tag_67\n        /* \"#utility.yul\":1184:1189   */\n      dup3\n        /* \"#utility.yul\":1152:1190   */\n      tag_27\n      jump\t// in\n    tag_67:\n        /* \"#utility.yul\":1206:1276   */\n      tag_68\n        /* \"#utility.yul\":1269:1275   */\n      dup2\n        /* \"#utility.yul\":1264:1267   */\n      dup6\n        /* \"#utility.yul\":1206:1276   */\n      tag_28\n      jump\t// in\n    tag_68:\n        /* \"#utility.yul\":1199:1276   */\n      swap4\n      pop\n        /* \"#utility.yul\":1285:1350   */\n      tag_69\n        /* \"#utility.yul\":1343:1349   */\n      dup2\n        /* \"#utility.yul\":1338:1341   */\n      dup6\n        /* \"#utility.yul\":1331:1335   */\n      0x20\n        /* \"#utility.yul\":1324:1329   */\n      dup7\n        /* \"#utility.yul\":1320:1336   */\n      add\n        /* \"#utility.yul\":1285:1350   */\n      tag_29\n      jump\t// in\n    tag_69:\n        /* \"#utility.yul\":1375:1404   */\n      tag_70\n        /* \"#utility.yul\":1397:1403   */\n      dup2\n        /* \"#utility.yul\":1375:1404   */\n      tag_30\n      jump\t// in\n    tag_70:\n        /* \"#utility.yul\":1370:1373   */\n      dup5\n        /* \"#utility.yul\":1366:1405   */\n      add\n        /* \"#utility.yul\":1359:1405   */\n      swap2\n      pop\n        /* \"#utility.yul\":1128:1411   */\n      pop\n        /* \"#utility.yul\":1038:1411   */\n      swap3\n      swap2\n      pop\n      pop\n      jump\t// out\n        /* \"#utility.yul\":1417:1726   */\n    tag_13:\n        /* \"#utility.yul\":1528:1532   */\n      0x00\n        /* \"#utility.yul\":1566:1568   */\n      0x20\n        /* \"#utility.yul\":1555:1564   */\n      dup3\n        /* \"#utility.yul\":1551:1569   */\n      add\n        /* \"#utility.yul\":1543:1569   */\n      swap1\n      pop\n        /* \"#utility.yul\":1615:1624   */\n      dup2\n        /* \"#utility.yul\":1609:1613   */\n      dup2\n        /* \"#utility.yul\":1605:1625   */\n      sub\n        /* \"#utility.yul\":1601:1602   */\n      0x00\n        /* \"#utility.yul\":1590:1599   */\n      dup4\n        /* \"#utility.yul\":1586:1603   */\n      add\n        /* \"#utility.yul\":1579:1626   */\n      mstore\n        /* \"#utility.yul\":1643:1719   */\n      tag_72\n        /* \"#utility.yul\":1714:1718   */\n      dup2\n        /* \"#utility.yul\":1705:1711   */\n      dup5\n        /* \"#utility.yul\":1643:1719   */\n      tag_31\n      jump\t// in\n    tag_72:\n        /* \"#utility.yul\":1635:1719   */\n      swap1\n      pop\n        /* \"#utility.yul\":1417:1726   */\n      swap3\n      swap2\n      pop\n      pop\n      jump\t// out\n        /* \"#utility.yul\":1732:1807   */\n    tag_32:\n        /* \"#utility.yul\":1765:1771   */\n      0x00\n        /* \"#utility.yul\":1798:1800   */\n      0x40\n        /* \"#utility.yul\":1792:1801   */\n      mload\n        /* \"#utility.yul\":1782:1801   */\n      swap1\n      pop\n        /* \"#utility.yul\":1732:1807   */\n      swap1\n      jump\t// out\n        /* \"#utility.yul\":1813:1930   */\n    tag_33:\n        /* \"#utility.yul\":1922:1923   */\n      0x00\n        /* \"#utility.yul\":1919:1920   */\n      0x00\n        /* \"#utility.yul\":1912:1924   */\n      revert\n        /* \"#utility.yul\":1936:2053   */\n    tag_34:\n        /* \"#utility.yul\":2045:2046   */\n      0x00\n        /* \"#utility.yul\":2042:2043   */\n      0x00\n        /* \"#utility.yul\":2035:2047   */\n      revert\n        /* \"#utility.yul\":2059:2136   */\n    tag_35:\n        /* \"#utility.yul\":2096:2103   */\n      0x00\n        /* \"#utility.yul\":2125:2130   */\n      dup2\n        /* \"#utility.yul\":2114:2130   */\n      swap1\n      pop\n        /* \"#utility.yul\":2059:2136   */\n      swap2\n      swap1\n      pop\n      jump\t// out\n        /* \"#utility.yul\":2142:2264   */\n    tag_36:\n        /* \"#utility.yul\":2215:2239   */\n      tag_78\n        /* \"#utility.yul\":2233:2238   */\n      dup2\n        /* \"#utility.yul\":2215:2239   */\n      tag_35\n      jump\t// in\n    tag_78:\n        /* \"#utility.yul\":2208:2213   */\n      dup2\n        /* \"#utility.yul\":2205:2240   */\n      eq\n        /* \"#utility.yul\":2195:2258   */\n      tag_79\n      jumpi\n        /* \"#utility.yul\":2254:2255   */\n      0x00\n        /* \"#utility.yul\":2251:2252   */\n      0x00\n        /* \"#utility.yul\":2244:2256   */\n      revert\n        /* \"#utility.yul\":2195:2258   */\n    tag_79:\n        /* \"#utility.yul\":2142:2264   */\n      pop\n      jump\t// out\n        /* \"#utility.yul\":2270:2409   */\n    tag_37:\n        /* \"#utility.yul\":2316:2321   */\n      0x00\n        /* \"#utility.yul\":2354:2360   */\n      dup2\n        /* \"#utility.yul\":2341:2361   */\n      calldataload\n        /* \"#utility.yul\":2332:2361   */\n      swap1\n      pop\n        /* \"#utility.yul\":2370:2403   */\n      tag_81\n        /* \"#utility.yul\":2397:2402   */\n      dup2\n        /* \"#utility.yul\":2370:2403   */\n      tag_36\n      jump\t// in\n    tag_81:\n        /* \"#utility.yul\":2270:2409   */\n      swap3\n      swap2\n      pop\n      pop\n      jump\t// out\n        /* \"#utility.yul\":2415:2532   */\n    tag_38:\n        /* \"#utility.yul\":2524:2525   */\n      0x00\n        /* \"#utility.yul\":2521:2522   */\n      0x00\n        /* \"#utility.yul\":2514:2526   */\n      revert\n        /* \"#utility.yul\":2538:2655   */\n    tag_39:\n        /* \"#utility.yul\":2647:2648   */\n      0x00\n        /* \"#utility.yul\":2644:2645   */\n      0x00\n        /* \"#utility.yul\":2637:2649   */\n      revert\n        /* \"#utility.yul\":2661:2841   */\n    tag_40:\n        /* \"#utility.yul\":2709:2786   */\n      0x4e487b7100000000000000000000000000000000000000000000000000000000\n        /* \"#utility.yul\":2706:2707   */\n      0x00\n        /* \"#utility.yul\":2699:2787   */\n      mstore\n        /* \"#utility.yul\":2806:2810   */\n      0x41\n        /* \"#utility.yul\":2803:2804   */\n      0x04\n        /* \"#utility.yul\":2796:2811   */\n      mstore\n        /* \"#utility.yul\":2830:2834   */\n      0x24\n        /* \"#utility.yul\":2827:2828   */\n      0x00\n        /* \"#utility.yul\":2820:2835   */\n      revert\n        /* \"#utility.yul\":2847:3128   */\n    tag_41:\n        /* \"#utility.yul\":2930:2957   */\n      tag_86\n        /* \"#utility.yul\":2952:2956   */\n      dup3\n        /* \"#utility.yul\":2930:2957   */\n      tag_30\n      jump\t// in\n    tag_86:\n        /* \"#utility.yul\":2922:2928   */\n      dup2\n        /* \"#utility.yul\":2918:2958   */\n      add\n        /* \"#utility.yul\":3060:3066   */\n      dup2\n        /* \"#utility.yul\":3048:3058   */\n      dup2\n        /* \"#utility.yul\":3045:3067   */\n      lt\n        /* \"#utility.yul\":3024:3042   */\n      0xffffffffffffffff\n        /* \"#utility.yul\":3012:3022   */\n      dup3\n        /* \"#utility.yul\":3009:3043   */\n      gt\n        /* \"#utility.yul\":3006:3068   */\n      or\n        /* \"#utility.yul\":3003:3091   */\n      iszero\n      tag_87\n      jumpi\n        /* \"#utility.yul\":3071:3089   */\n      tag_88\n      tag_40\n      jump\t// in\n    tag_88:\n        /* \"#utility.yul\":3003:3091   */\n    tag_87:\n        /* \"#utility.yul\":3111:3121   */\n      dup1\n        /* \"#utility.yul\":3107:3109   */\n      0x40\n        /* \"#utility.yul\":3100:3122   */\n      mstore\n        /* \"#utility.yul\":2890:3128   */\n      pop\n        /* \"#utility.yul\":2847:3128   */\n      pop\n      pop\n      jump\t// out\n        /* \"#utility.yul\":3134:3263   */\n    tag_42:\n        /* \"#utility.yul\":3168:3174   */\n      0x00\n        /* \"#utility.yul\":3195:3215   */\n      tag_90\n      tag_32\n      jump\t// in\n    tag_90:\n        /* \"#utility.yul\":3185:3215   */\n      swap1\n      pop\n        /* \"#utility.yul\":3224:3257   */\n      tag_91\n        /* \"#utility.yul\":3252:3256   */\n      dup3\n        /* \"#utility.yul\":3244:3250   */\n      dup3\n        /* \"#utility.yul\":3224:3257   */\n      tag_41\n      jump\t// in\n    tag_91:\n        /* \"#utility.yul\":3134:3263   */\n      swap2\n      swap1\n      pop\n      jump\t// out\n        /* \"#utility.yul\":3269:3577   */\n    tag_43:\n        /* \"#utility.yul\":3331:3335   */\n      0x00\n        /* \"#utility.yul\":3421:3439   */\n      0xffffffffffffffff\n        /* \"#utility.yul\":3413:3419   */\n      dup3\n        /* \"#utility.yul\":3410:3440   */\n      gt\n        /* \"#utility.yul\":3407:3463   */\n      iszero\n      tag_93\n      jumpi\n        /* \"#utility.yul\":3443:3461   */\n      tag_94\n      tag_40\n      jump\t// in\n    tag_94:\n        /* \"#utility.yul\":3407:3463   */\n    tag_93:\n        /* \"#utility.yul\":3481:3510   */\n      tag_95\n        /* \"#utility.yul\":3503:3509   */\n      dup3\n        /* \"#utility.yul\":3481:3510   */\n      tag_30\n      jump\t// in\n    tag_95:\n        /* \"#utility.yul\":3473:3510   */\n      swap1\n      pop\n        /* \"#utility.yul\":3565:3569   */\n      0x20\n        /* \"#utility.yul\":3559:3563   */\n      dup2\n        /* \"#utility.yul\":3555:3570   */\n      add\n        /* \"#utility.yul\":3547:3570   */\n      swap1\n      pop\n        /* \"#utility.yul\":3269:3577   */\n      swap2\n      swap1\n      pop\n      jump\t// out\n        /* \"#utility.yul\":3583:3731   */\n    tag_44:\n        /* \"#utility.yul\":3681:3687   */\n      dup3\n        /* \"#utility.yul\":3676:3679   */\n      dup2\n        /* \"#utility.yul\":3671:3674   */\n      dup4\n        /* \"#utility.yul\":3658:3688   */\n      calldatacopy\n        /* \"#utility.yul\":3722:3723   */\n      0x00\n        /* \"#utility.yul\":3713:3719   */\n      dup4\n        /* \"#utility.yul\":3708:3711   */\n      dup4\n        /* \"#utility.yul\":3704:3720   */\n      add\n        /* \"#utility.yul\":3697:3724   */\n      mstore\n        /* \"#utility.yul\":3583:3731   */\n      pop\n      pop\n      pop\n      jump\t// out\n        /* \"#utility.yul\":3737:4162   */\n    tag_45:\n        /* \"#utility.yul\":3815:3820   */\n      0x00\n        /* \"#utility.yul\":3840:3906   */\n      tag_98\n        /* \"#utility.yul\":3856:3905   */\n      tag_99\n        /* \"#utility.yul\":3898:3904   */\n      dup5\n        /* \"#utility.yul\":3856:3905   */\n      tag_43\n      jump\t// in\n    tag_99:\n        /* \"#utility.yul\":3840:3906   */\n      tag_42\n      jump\t// in\n    tag_98:\n        /* \"#utility.yul\":3831:3906   */\n      swap1\n      pop\n        /* \"#utility.yul\":3929:3935   */\n      dup3\n        /* \"#utility.yul\":3922:3927   */\n      dup2\n        /* \"#utility.yul\":3915:3936   */\n      mstore\n        /* \"#utility.yul\":3967:3971   */\n      0x20\n        /* \"#utility.yul\":3960:3965   */\n      dup2\n        /* \"#utility.yul\":3956:3972   */\n      add\n        /* \"#utility.yul\":4005:4008   */\n      dup5\n        /* \"#utility.yul\":3996:4002   */\n      dup5\n        /* \"#utility.yul\":3991:3994   */\n      dup5\n        /* \"#utility.yul\":3987:4003   */\n      add\n        /* \"#utility.yul\":3984:4009   */\n      gt\n        /* \"#utility.yul\":3981:4093   */\n      iszero\n      tag_100\n      jumpi\n        /* \"#utility.yul\":4012:4091   */\n      tag_101\n      tag_39\n      jump\t// in\n    tag_101:\n        /* \"#utility.yul\":3981:4093   */\n    tag_100:\n        /* \"#utility.yul\":4102:4156   */\n      tag_102\n        /* \"#utility.yul\":4149:4155   */\n      dup5\n        /* \"#utility.yul\":4144:4147   */\n      dup3\n        /* \"#utility.yul\":4139:4142   */\n      dup6\n        /* \"#utility.yul\":4102:4156   */\n      tag_44\n      jump\t// in\n    tag_102:\n        /* \"#utility.yul\":3821:4162   */\n      pop\n        /* \"#utility.yul\":3737:4162   */\n      swap4\n      swap3\n      pop\n      pop\n      pop\n      jump\t// out\n        /* \"#utility.yul\":4182:4522   */\n    tag_46:\n        /* \"#utility.yul\":4238:4243   */\n      0x00\n        /* \"#utility.yul\":4287:4290   */\n      dup3\n        /* \"#utility.yul\":4280:4284   */\n      0x1f\n        /* \"#utility.yul\":4272:4278   */\n      dup4\n        /* \"#utility.yul\":4268:4285   */\n      add\n        /* \"#utility.yul\":4264:4291   */\n      slt\n        /* \"#utility.yul\":4254:4376   */\n      tag_104\n      jumpi\n        /* \"#utility.yul\":4295:4374   */\n      tag_105\n      tag_38\n      jump\t// in\n    tag_105:\n        /* \"#utility.yul\":4254:4376   */\n    tag_104:\n        /* \"#utility.yul\":4412:4418   */\n      dup2\n        /* \"#utility.yul\":4399:4419   */\n      calldataload\n        /* \"#utility.yul\":4437:4516   */\n      tag_106\n        /* \"#utility.yul\":4512:4515   */\n      dup5\n        /* \"#utility.yul\":4504:4510   */\n      dup3\n        /* \"#utility.yul\":4497:4501   */\n      0x20\n        /* \"#utility.yul\":4489:4495   */\n      dup7\n        /* \"#utility.yul\":4485:4502   */\n      add\n        /* \"#utility.yul\":4437:4516   */\n      tag_45\n      jump\t// in\n    tag_106:\n        /* \"#utility.yul\":4428:4516   */\n      swap2\n      pop\n        /* \"#utility.yul\":4244:4522   */\n      pop\n        /* \"#utility.yul\":4182:4522   */\n      swap3\n      swap2\n      pop\n      pop\n      jump\t// out\n        /* \"#utility.yul\":4528:5182   */\n    tag_16:\n        /* \"#utility.yul\":4606:4612   */\n      0x00\n        /* \"#utility.yul\":4614:4620   */\n      0x00\n        /* \"#utility.yul\":4663:4665   */\n      0x40\n        /* \"#utility.yul\":4651:4660   */\n      dup4\n        /* \"#utility.yul\":4642:4649   */\n      dup6\n        /* \"#utility.yul\":4638:4661   */\n      sub\n        /* \"#utility.yul\":4634:4666   */\n      slt\n        /* \"#utility.yul\":4631:4750   */\n      iszero\n      tag_108\n      jumpi\n        /* \"#utility.yul\":4669:4748   */\n      tag_109\n      tag_33\n      jump\t// in\n    tag_109:\n        /* \"#utility.yul\":4631:4750   */\n    tag_108:\n        /* \"#utility.yul\":4789:4790   */\n      0x00\n        /* \"#utility.yul\":4814:4867   */\n      tag_110\n        /* \"#utility.yul\":4859:4866   */\n      dup6\n        /* \"#utility.yul\":4850:4856   */\n      dup3\n        /* \"#utility.yul\":4839:4848   */\n      dup7\n        /* \"#utility.yul\":4835:4857   */\n      add\n        /* \"#utility.yul\":4814:4867   */\n      tag_37\n      jump\t// in\n    tag_110:\n        /* \"#utility.yul\":4804:4867   */\n      swap3\n      pop\n        /* \"#utility.yul\":4760:4877   */\n      pop\n        /* \"#utility.yul\":4944:4946   */\n      0x20\n        /* \"#utility.yul\":4933:4942   */\n      dup4\n        /* \"#utility.yul\":4929:4947   */\n      add\n        /* \"#utility.yul\":4916:4948   */\n      calldataload\n        /* \"#utility.yul\":4975:4993   */\n      0xffffffffffffffff\n        /* \"#utility.yul\":4967:4973   */\n      dup2\n        /* \"#utility.yul\":4964:4994   */\n      gt\n        /* \"#utility.yul\":4961:5078   */\n      iszero\n      tag_111\n      jumpi\n        /* \"#utility.yul\":4997:5076   */\n      tag_112\n      tag_34\n      jump\t// in\n    tag_112:\n        /* \"#utility.yul\":4961:5078   */\n    tag_111:\n        /* \"#utility.yul\":5102:5165   */\n      tag_113\n        /* \"#utility.yul\":5157:5164   */\n      dup6\n        /* \"#utility.yul\":5148:5154   */\n      dup3\n        /* \"#utility.yul\":5137:5146   */\n      dup7\n        /* \"#utility.yul\":5133:5155   */\n      add\n        /* \"#utility.yul\":5102:5165   */\n      tag_46\n      jump\t// in\n    tag_113:\n        /* \"#utility.yul\":5092:5165   */\n      swap2\n      pop\n        /* \"#utility.yul\":4887:5175   */\n      pop\n        /* \"#utility.yul\":4528:5182   */\n      swap3\n      pop\n      swap3\n      swap1\n      pop\n      jump\t// out\n        /* \"#utility.yul\":5188:5275   */\n    tag_47:\n        /* \"#utility.yul\":5235:5242   */\n      0x00\n        /* \"#utility.yul\":5264:5269   */\n      dup2\n        /* \"#utility.yul\":5253:5269   */\n      swap1\n      pop\n        /* \"#utility.yul\":5188:5275   */\n      swap2\n      swap1\n      pop\n      jump\t// out\n        /* \"#utility.yul\":5281:5367   */\n    tag_48:\n        /* \"#utility.yul\":5316:5323   */\n      0x00\n        /* \"#utility.yul\":5356:5360   */\n      0xff\n        /* \"#utility.yul\":5349:5354   */\n      dup3\n        /* \"#utility.yul\":5345:5361   */\n      and\n        /* \"#utility.yul\":5334:5361   */\n      swap1\n      pop\n        /* \"#utility.yul\":5281:5367   */\n      swap2\n      swap1\n      pop\n      jump\t// out\n        /* \"#utility.yul\":5373:5433   */\n    tag_49:\n        /* \"#utility.yul\":5401:5404   */\n      0x00\n        /* \"#utility.yul\":5422:5427   */\n      dup2\n        /* \"#utility.yul\":5415:5427   */\n      swap1\n      pop\n        /* \"#utility.yul\":5373:5433   */\n      swap2\n      swap1\n      pop\n      jump\t// out\n        /* \"#utility.yul\":5439:5597   */\n    tag_50:\n        /* \"#utility.yul\":5497:5506   */\n      0x00\n        /* \"#utility.yul\":5530:5591   */\n      tag_118\n        /* \"#utility.yul\":5546:5590   */\n      tag_119\n        /* \"#utility.yul\":5555:5589   */\n      tag_120\n        /* \"#utility.yul\":5583:5588   */\n      dup5\n        /* \"#utility.yul\":5555:5589   */\n      tag_47\n      jump\t// in\n    tag_120:\n        /* \"#utility.yul\":5546:5590   */\n      tag_49\n      jump\t// in\n    tag_119:\n        /* \"#utility.yul\":5530:5591   */\n      tag_48\n      jump\t// in\n    tag_118:\n        /* \"#utility.yul\":5517:5591   */\n      swap1\n      pop\n        /* \"#utility.yul\":5439:5597   */\n      swap2\n      swap1\n      pop\n      jump\t// out\n        /* \"#utility.yul\":5603:5750   */\n    tag_51:\n        /* \"#utility.yul\":5698:5743   */\n      tag_122\n        /* \"#utility.yul\":5737:5742   */\n      dup2\n        /* \"#utility.yul\":5698:5743   */\n      tag_50\n      jump\t// in\n    tag_122:\n        /* \"#utility.yul\":5693:5696   */\n      dup3\n        /* \"#utility.yul\":5686:5744   */\n      mstore\n        /* \"#utility.yul\":5603:5750   */\n      pop\n      pop\n      jump\t// out\n        /* \"#utility.yul\":5756:5925   */\n    tag_52:\n        /* \"#utility.yul\":5840:5851   */\n      0x00\n        /* \"#utility.yul\":5874:5880   */\n      dup3\n        /* \"#utility.yul\":5869:5872   */\n      dup3\n        /* \"#utility.yul\":5862:5881   */\n      mstore\n        /* \"#utility.yul\":5914:5918   */\n      0x20\n        /* \"#utility.yul\":5909:5912   */\n      dup3\n        /* \"#utility.yul\":5905:5919   */\n      add\n        /* \"#utility.yul\":5890:5919   */\n      swap1\n      pop\n        /* \"#utility.yul\":5756:5925   */\n      swap3\n      swap2\n      pop\n      pop\n      jump\t// out\n        /* \"#utility.yul\":5931:6086   */\n    tag_53:\n        /* \"#utility.yul\":6071:6078   */\n      0x68656c6c6f000000000000000000000000000000000000000000000000000000\n        /* \"#utility.yul\":6067:6068   */\n      0x00\n        /* \"#utility.yul\":6059:6065   */\n      dup3\n        /* \"#utility.yul\":6055:6069   */\n      add\n        /* \"#utility.yul\":6048:6079   */\n      mstore\n        /* \"#utility.yul\":5931:6086   */\n      pop\n      jump\t// out\n        /* \"#utility.yul\":6092:6457   */\n    tag_54:\n        /* \"#utility.yul\":6234:6237   */\n      0x00\n        /* \"#utility.yul\":6255:6321   */\n      tag_126\n        /* \"#utility.yul\":6319:6320   */\n      0x05\n        /* \"#utility.yul\":6314:6317   */\n      dup4\n        /* \"#utility.yul\":6255:6321   */\n      tag_52\n      jump\t// in\n    tag_126:\n        /* \"#utility.yul\":6248:6321   */\n      swap2\n      pop\n        /* \"#utility.yul\":6330:6423   */\n      tag_127\n        /* \"#utility.yul\":6419:6422   */\n      dup3\n        /* \"#utility.yul\":6330:6423   */\n      tag_53\n      jump\t// in\n    tag_127:\n        /* \"#utility.yul\":6448:6450   */\n      0x20\n        /* \"#utility.yul\":6443:6446   */\n      dup3\n        /* \"#utility.yul\":6439:6451   */\n      add\n        /* \"#utility.yul\":6432:6451   */\n      swap1\n      pop\n        /* \"#utility.yul\":6092:6457   */\n      swap2\n      swap1\n      pop\n      jump\t// out\n        /* \"#utility.yul\":6463:7008   */\n    tag_21:\n        /* \"#utility.yul\":6665:6669   */\n      0x00\n        /* \"#utility.yul\":6703:6705   */\n      0x40\n        /* \"#utility.yul\":6692:6701   */\n      dup3\n        /* \"#utility.yul\":6688:6706   */\n      add\n        /* \"#utility.yul\":6680:6706   */\n      swap1\n      pop\n        /* \"#utility.yul\":6716:6795   */\n      tag_129\n        /* \"#utility.yul\":6792:6793   */\n      0x00\n        /* \"#utility.yul\":6781:6790   */\n      dup4\n        /* \"#utility.yul\":6777:6794   */\n      add\n        /* \"#utility.yul\":6768:6774   */\n      dup5\n        /* \"#utility.yul\":6716:6795   */\n      tag_51\n      jump\t// in\n    tag_129:\n        /* \"#utility.yul\":6842:6851   */\n      dup2\n        /* \"#utility.yul\":6836:6840   */\n      dup2\n        /* \"#utility.yul\":6832:6852   */\n      sub\n        /* \"#utility.yul\":6827:6829   */\n      0x20\n        /* \"#utility.yul\":6816:6825   */\n      dup4\n        /* \"#utility.yul\":6812:6830   */\n      add\n        /* \"#utility.yul\":6805:6853   */\n      mstore\n        /* \"#utility.yul\":6870:7001   */\n      tag_130\n        /* \"#utility.yul\":6996:7000   */\n      dup2\n        /* \"#utility.yul\":6870:7001   */\n      tag_54\n      jump\t// in\n    tag_130:\n        /* \"#utility.yul\":6862:7001   */\n      swap1\n      pop\n        /* \"#utility.yul\":6463:7008   */\n      swap3\n      swap2\n      pop\n      pop\n      jump\t// out\n        /* \"#utility.yul\":7036:7350   */\n    tag_55:\n        /* \"#utility.yul\":7132:7135   */\n      0x00\n        /* \"#utility.yul\":7153:7223   */\n      tag_132\n        /* \"#utility.yul\":7216:7222   */\n      dup4\n        /* \"#utility.yul\":7211:7214   */\n      dup6\n        /* \"#utility.yul\":7153:7223   */\n      tag_28\n      jump\t// in\n    tag_132:\n        /* \"#utility.yul\":7146:7223   */\n      swap4\n      pop\n        /* \"#utility.yul\":7233:7289   */\n      tag_133\n        /* \"#utility.yul\":7282:7288   */\n      dup4\n        /* \"#utility.yul\":7277:7280   */\n      dup6\n        /* \"#utility.yul\":7270:7275   */\n      dup5\n        /* \"#utility.yul\":7233:7289   */\n      tag_44\n      jump\t// in\n    tag_133:\n        /* \"#utility.yul\":7314:7343   */\n      tag_134\n        /* \"#utility.yul\":7336:7342   */\n      dup4\n        /* \"#utility.yul\":7314:7343   */\n      tag_30\n      jump\t// in\n    tag_134:\n        /* \"#utility.yul\":7309:7312   */\n      dup5\n        /* \"#utility.yul\":7305:7344   */\n      add\n        /* \"#utility.yul\":7298:7344   */\n      swap1\n      pop\n        /* \"#utility.yul\":7036:7350   */\n      swap4\n      swap3\n      pop\n      pop\n      pop\n      jump\t// out\n        /* \"#utility.yul\":7356:7897   */\n    tag_24:\n        /* \"#utility.yul\":7529:7533   */\n      0x00\n        /* \"#utility.yul\":7567:7569   */\n      0x60\n        /* \"#utility.yul\":7556:7565   */\n      dup3\n        /* \"#utility.yul\":7552:7570   */\n      add\n        /* \"#utility.yul\":7544:7570   */\n      swap1\n      pop\n        /* \"#utility.yul\":7616:7625   */\n      dup2\n        /* \"#utility.yul\":7610:7614   */\n      dup2\n        /* \"#utility.yul\":7606:7626   */\n      sub\n        /* \"#utility.yul\":7602:7603   */\n      0x00\n        /* \"#utility.yul\":7591:7600   */\n      dup4\n        /* \"#utility.yul\":7587:7604   */\n      add\n        /* \"#utility.yul\":7580:7627   */\n      mstore\n        /* \"#utility.yul\":7644:7730   */\n      tag_136\n        /* \"#utility.yul\":7725:7729   */\n      dup2\n        /* \"#utility.yul\":7716:7722   */\n      dup7\n        /* \"#utility.yul\":7708:7714   */\n      dup9\n        /* \"#utility.yul\":7644:7730   */\n      tag_55\n      jump\t// in\n    tag_136:\n        /* \"#utility.yul\":7636:7730   */\n      swap1\n      pop\n        /* \"#utility.yul\":7740:7810   */\n      tag_137\n        /* \"#utility.yul\":7806:7808   */\n      0x20\n        /* \"#utility.yul\":7795:7804   */\n      dup4\n        /* \"#utility.yul\":7791:7809   */\n      add\n        /* \"#utility.yul\":7782:7788   */\n      dup6\n        /* \"#utility.yul\":7740:7810   */\n      tag_26\n      jump\t// in\n    tag_137:\n        /* \"#utility.yul\":7820:7890   */\n      tag_138\n        /* \"#utility.yul\":7886:7888   */\n      0x40\n        /* \"#utility.yul\":7875:7884   */\n      dup4\n        /* \"#utility.yul\":7871:7889   */\n      add\n        /* \"#utility.yul\":7862:7868   */\n      dup5\n        /* \"#utility.yul\":7820:7890   */\n      tag_26\n      jump\t// in\n    tag_138:\n        /* \"#utility.yul\":7356:7897   */\n      swap6\n      swap5\n      pop\n      pop\n      pop\n      pop\n      pop\n      jump\t// out\n\n    auxdata: 0xa26469706673582212202ab2f1f6f81d54e573485c65e9618605a48c219c92dae598677727d61ce0861264736f6c634300081e0033\n}\n",
				"bytecode": {
					"linkReferences": {},
					"object": "6080604052348015600e575f5ffd5b506105e58061001c5f395ff3fe608060405234801561000f575f5ffd5b506004361061003f575f3560e01c8063034899bc146100435780632d10fa2814610061578063c5d1c9951461007f575b5f5ffd5b61004b61009b565b60405161005891906101fe565b60405180910390f35b6100696100c2565b6040516100769190610287565b60405180910390f35b61009960048036038101906100949190610417565b610159565b005b5f7fc5d1c995751f0f78da960202778778c011553d6792ee98a31cc6a109429ae772905090565b60607fc5d1c995751f0f78da960202778778c011553d6792ee98a31cc6a109429ae772607b6040516024016100f79190610519565b604051602081830303815290604052907bffffffffffffffffffffffffffffffffffffffffffffffffffffffff19166020820180517bffffffffffffffffffffffffffffffffffffffffffffffffffffffff8381831617835250505050905090565b7fb474992b95511807159c8cd6db0b53da752f14d5a95adb3f50ba20e689ba59335f3663c5d1c99560e01b5f357fffffffff00000000000000000000000000000000000000000000000000000000166040516101b89493929190610571565b60405180910390a15050565b5f7fffffffff0000000000000000000000000000000000000000000000000000000082169050919050565b6101f8816101c4565b82525050565b5f6020820190506102115f8301846101ef565b92915050565b5f81519050919050565b5f82825260208201905092915050565b8281835e5f83830152505050565b5f601f19601f8301169050919050565b5f61025982610217565b6102638185610221565b9350610273818560208601610231565b61027c8161023f565b840191505092915050565b5f6020820190508181035f83015261029f818461024f565b905092915050565b5f604051905090565b5f5ffd5b5f5ffd5b5f819050919050565b6102ca816102b8565b81146102d4575f5ffd5b50565b5f813590506102e5816102c1565b92915050565b5f5ffd5b5f5ffd5b7f4e487b71000000000000000000000000000000000000000000000000000000005f52604160045260245ffd5b6103298261023f565b810181811067ffffffffffffffff82111715610348576103476102f3565b5b80604052505050565b5f61035a6102a7565b90506103668282610320565b919050565b5f67ffffffffffffffff821115610385576103846102f3565b5b61038e8261023f565b9050602081019050919050565b828183375f83830152505050565b5f6103bb6103b68461036b565b610351565b9050828152602081018484840111156103d7576103d66102ef565b5b6103e284828561039b565b509392505050565b5f82601f8301126103fe576103fd6102eb565b5b813561040e8482602086016103a9565b91505092915050565b5f5f6040838503121561042d5761042c6102b0565b5b5f61043a858286016102d7565b925050602083013567ffffffffffffffff81111561045b5761045a6102b4565b5b610467858286016103ea565b9150509250929050565b5f819050919050565b5f60ff82169050919050565b5f819050919050565b5f6104a96104a461049f84610471565b610486565b61047a565b9050919050565b6104b98161048f565b82525050565b5f82825260208201905092915050565b7f68656c6c6f0000000000000000000000000000000000000000000000000000005f82015250565b5f6105036005836104bf565b915061050e826104cf565b602082019050919050565b5f60408201905061052c5f8301846104b0565b818103602083015261053d816104f7565b905092915050565b5f6105508385610221565b935061055d83858461039b565b6105668361023f565b840190509392505050565b5f6060820190508181035f83015261058a818688610545565b905061059960208301856101ef565b6105a660408301846101ef565b9594505050505056fea26469706673582212202ab2f1f6f81d54e573485c65e9618605a48c219c92dae598677727d61ce0861264736f6c634300081e0033",
					"opcodes": "PUSH1 0x80 PUSH1 0x40 MSTORE CALLVALUE DUP1 ISZERO PUSH1 0xE JUMPI PUSH0 PUSH0 REVERT JUMPDEST POP PUSH2 0x5E5 DUP1 PUSH2 0x1C PUSH0 CODECOPY PUSH0 RETURN INVALID PUSH1 0x80 PUSH1 0x40 MSTORE CALLVALUE DUP1 ISZERO PUSH2 0xF JUMPI PUSH0 PUSH0 REVERT JUMPDEST POP PUSH1 0x4 CALLDATASIZE LT PUSH2 0x3F JUMPI PUSH0 CALLDATALOAD PUSH1 0xE0 SHR DUP1 PUSH4 0x34899BC EQ PUSH2 0x43 JUMPI DUP1 PUSH4 0x2D10FA28 EQ PUSH2 0x61 JUMPI DUP1 PUSH4 0xC5D1C995 EQ PUSH2 0x7F JUMPI JUMPDEST PUSH0 PUSH0 REVERT JUMPDEST PUSH2 0x4B PUSH2 0x9B JUMP JUMPDEST PUSH1 0x40 MLOAD PUSH2 0x58 SWAP2 SWAP1 PUSH2 0x1FE JUMP JUMPDEST PUSH1 0x40 MLOAD DUP1 SWAP2 SUB SWAP1 RETURN JUMPDEST PUSH2 0x69 PUSH2 0xC2 JUMP JUMPDEST PUSH1 0x40 MLOAD PUSH2 0x76 SWAP2 SWAP1 PUSH2 0x287 JUMP JUMPDEST PUSH1 0x40 MLOAD DUP1 SWAP2 SUB SWAP1 RETURN JUMPDEST PUSH2 0x99 PUSH1 0x4 DUP1 CALLDATASIZE SUB DUP2 ADD SWAP1 PUSH2 0x94 SWAP2 SWAP1 PUSH2 0x417 JUMP JUMPDEST PUSH2 0x159 JUMP JUMPDEST STOP JUMPDEST PUSH0 PUSH32 0xC5D1C995751F0F78DA960202778778C011553D6792EE98A31CC6A109429AE772 SWAP1 POP SWAP1 JUMP JUMPDEST PUSH1 0x60 PUSH32 0xC5D1C995751F0F78DA960202778778C011553D6792EE98A31CC6A109429AE772 PUSH1 0x7B PUSH1 0x40 MLOAD PUSH1 0x24 ADD PUSH2 0xF7 SWAP2 SWAP1 PUSH2 0x519 JUMP JUMPDEST PUSH1 0x40 MLOAD PUSH1 0x20 DUP2 DUP4 SUB SUB DUP2 MSTORE SWAP1 PUSH1 0x40 MSTORE SWAP1 PUSH28 0xFFFFFFFFFFFFFFFFFFFFFFFFFFFFFFFFFFFFFFFFFFFFFFFFFFFFFFFF NOT AND PUSH1 0x20 DUP3 ADD DUP1 MLOAD PUSH28 0xFFFFFFFFFFFFFFFFFFFFFFFFFFFFFFFFFFFFFFFFFFFFFFFFFFFFFFFF DUP4 DUP2 DUP4 AND OR DUP4 MSTORE POP POP POP POP SWAP1 POP SWAP1 JUMP JUMPDEST PUSH32 0xB474992B95511807159C8CD6DB0B53DA752F14D5A95ADB3F50BA20E689BA5933 PUSH0 CALLDATASIZE PUSH4 0xC5D1C995 PUSH1 0xE0 SHL PUSH0 CALLDATALOAD PUSH32 0xFFFFFFFF00000000000000000000000000000000000000000000000000000000 AND PUSH1 0x40 MLOAD PUSH2 0x1B8 SWAP5 SWAP4 SWAP3 SWAP2 SWAP1 PUSH2 0x571 JUMP JUMPDEST PUSH1 0x40 MLOAD DUP1 SWAP2 SUB SWAP1 LOG1 POP POP JUMP JUMPDEST PUSH0 PUSH32 0xFFFFFFFF00000000000000000000000000000000000000000000000000000000 DUP3 AND SWAP1 POP SWAP2 SWAP1 POP JUMP JUMPDEST PUSH2 0x1F8 DUP2 PUSH2 0x1C4 JUMP JUMPDEST DUP3 MSTORE POP POP JUMP JUMPDEST PUSH0 PUSH1 0x20 DUP3 ADD SWAP1 POP PUSH2 0x211 PUSH0 DUP4 ADD DUP5 PUSH2 0x1EF JUMP JUMPDEST SWAP3 SWAP2 POP POP JUMP JUMPDEST PUSH0 DUP2 MLOAD SWAP1 POP SWAP2 SWAP1 POP JUMP JUMPDEST PUSH0 DUP3 DUP3 MSTORE PUSH1 0x20 DUP3 ADD SWAP1 POP SWAP3 SWAP2 POP POP JUMP JUMPDEST DUP3 DUP2 DUP4 MCOPY PUSH0 DUP4 DUP4 ADD MSTORE POP POP POP JUMP JUMPDEST PUSH0 PUSH1 0x1F NOT PUSH1 0x1F DUP4 ADD AND SWAP1 POP SWAP2 SWAP1 POP JUMP JUMPDEST PUSH0 PUSH2 0x259 DUP3 PUSH2 0x217 JUMP JUMPDEST PUSH2 0x263 DUP2 DUP6 PUSH2 0x221 JUMP JUMPDEST SWAP4 POP PUSH2 0x273 DUP2 DUP6 PUSH1 0x20 DUP7 ADD PUSH2 0x231 JUMP JUMPDEST PUSH2 0x27C DUP2 PUSH2 0x23F JUMP JUMPDEST DUP5 ADD SWAP2 POP POP SWAP3 SWAP2 POP POP JUMP JUMPDEST PUSH0 PUSH1 0x20 DUP3 ADD SWAP1 POP DUP2 DUP2 SUB PUSH0 DUP4 ADD MSTORE PUSH2 0x29F DUP2 DUP5 PUSH2 0x24F JUMP JUMPDEST SWAP1 POP SWAP3 SWAP2 POP POP JUMP JUMPDEST PUSH0 PUSH1 0x40 MLOAD SWAP1 POP SWAP1 JUMP JUMPDEST PUSH0 PUSH0 REVERT JUMPDEST PUSH0 PUSH0 REVERT JUMPDEST PUSH0 DUP2 SWAP1 POP SWAP2 SWAP1 POP JUMP JUMPDEST PUSH2 0x2CA DUP2 PUSH2 0x2B8 JUMP JUMPDEST DUP2 EQ PUSH2 0x2D4 JUMPI PUSH0 PUSH0 REVERT JUMPDEST POP JUMP JUMPDEST PUSH0 DUP2 CALLDATALOAD SWAP1 POP PUSH2 0x2E5 DUP2 PUSH2 0x2C1 JUMP JUMPDEST SWAP3 SWAP2 POP POP JUMP JUMPDEST PUSH0 PUSH0 REVERT JUMPDEST PUSH0 PUSH0 REVERT JUMPDEST PUSH32 0x4E487B7100000000000000000000000000000000000000000000000000000000 PUSH0 MSTORE PUSH1 0x41 PUSH1 0x4 MSTORE PUSH1 0x24 PUSH0 REVERT JUMPDEST PUSH2 0x329 DUP3 PUSH2 0x23F JUMP JUMPDEST DUP2 ADD DUP2 DUP2 LT PUSH8 0xFFFFFFFFFFFFFFFF DUP3 GT OR ISZERO PUSH2 0x348 JUMPI PUSH2 0x347 PUSH2 0x2F3 JUMP JUMPDEST JUMPDEST DUP1 PUSH1 0x40 MSTORE POP POP POP JUMP JUMPDEST PUSH0 PUSH2 0x35A PUSH2 0x2A7 JUMP JUMPDEST SWAP1 POP PUSH2 0x366 DUP3 DUP3 PUSH2 0x320 JUMP JUMPDEST SWAP2 SWAP1 POP JUMP JUMPDEST PUSH0 PUSH8 0xFFFFFFFFFFFFFFFF DUP3 GT ISZERO PUSH2 0x385 JUMPI PUSH2 0x384 PUSH2 0x2F3 JUMP JUMPDEST JUMPDEST PUSH2 0x38E DUP3 PUSH2 0x23F JUMP JUMPDEST SWAP1 POP PUSH1 0x20 DUP2 ADD SWAP1 POP SWAP2 SWAP1 POP JUMP JUMPDEST DUP3 DUP2 DUP4 CALLDATACOPY PUSH0 DUP4 DUP4 ADD MSTORE POP POP POP JUMP JUMPDEST PUSH0 PUSH2 0x3BB PUSH2 0x3B6 DUP5 PUSH2 0x36B JUMP JUMPDEST PUSH2 0x351 JUMP JUMPDEST SWAP1 POP DUP3 DUP2 MSTORE PUSH1 0x20 DUP2 ADD DUP5 DUP5 DUP5 ADD GT ISZERO PUSH2 0x3D7 JUMPI PUSH2 0x3D6 PUSH2 0x2EF JUMP JUMPDEST JUMPDEST PUSH2 0x3E2 DUP5 DUP3 DUP6 PUSH2 0x39B JUMP JUMPDEST POP SWAP4 SWAP3 POP POP POP JUMP JUMPDEST PUSH0 DUP3 PUSH1 0x1F DUP4 ADD SLT PUSH2 0x3FE JUMPI PUSH2 0x3FD PUSH2 0x2EB JUMP JUMPDEST JUMPDEST DUP2 CALLDATALOAD PUSH2 0x40E DUP5 DUP3 PUSH1 0x20 DUP7 ADD PUSH2 0x3A9 JUMP JUMPDEST SWAP2 POP POP SWAP3 SWAP2 POP POP JUMP JUMPDEST PUSH0 PUSH0 PUSH1 0x40 DUP4 DUP6 SUB SLT ISZERO PUSH2 0x42D JUMPI PUSH2 0x42C PUSH2 0x2B0 JUMP JUMPDEST JUMPDEST PUSH0 PUSH2 0x43A DUP6 DUP3 DUP7 ADD PUSH2 0x2D7 JUMP JUMPDEST SWAP3 POP POP PUSH1 0x20 DUP4 ADD CALLDATALOAD PUSH8 0xFFFFFFFFFFFFFFFF DUP2 GT ISZERO PUSH2 0x45B JUMPI PUSH2 0x45A PUSH2 0x2B4 JUMP JUMPDEST JUMPDEST PUSH2 0x467 DUP6 DUP3 DUP7 ADD PUSH2 0x3EA JUMP JUMPDEST SWAP2 POP POP SWAP3 POP SWAP3 SWAP1 POP JUMP JUMPDEST PUSH0 DUP2 SWAP1 POP SWAP2 SWAP1 POP JUMP JUMPDEST PUSH0 PUSH1 0xFF DUP3 AND SWAP1 POP SWAP2 SWAP1 POP JUMP JUMPDEST PUSH0 DUP2 SWAP1 POP SWAP2 SWAP1 POP JUMP JUMPDEST PUSH0 PUSH2 0x4A9 PUSH2 0x4A4 PUSH2 0x49F DUP5 PUSH2 0x471 JUMP JUMPDEST PUSH2 0x486 JUMP JUMPDEST PUSH2 0x47A JUMP JUMPDEST SWAP1 POP SWAP2 SWAP1 POP JUMP JUMPDEST PUSH2 0x4B9 DUP2 PUSH2 0x48F JUMP JUMPDEST DUP3 MSTORE POP POP JUMP JUMPDEST PUSH0 DUP3 DUP3 MSTORE PUSH1 0x20 DUP3 ADD SWAP1 POP SWAP3 SWAP2 POP POP JUMP JUMPDEST PUSH32 0x68656C6C6F000000000000000000000000000000000000000000000000000000 PUSH0 DUP3 ADD MSTORE POP JUMP JUMPDEST PUSH0 PUSH2 0x503 PUSH1 0x5 DUP4 PUSH2 0x4BF JUMP JUMPDEST SWAP2 POP PUSH2 0x50E DUP3 PUSH2 0x4CF JUMP JUMPDEST PUSH1 0x20 DUP3 ADD SWAP1 POP SWAP2 SWAP1 POP JUMP JUMPDEST PUSH0 PUSH1 0x40 DUP3 ADD SWAP1 POP PUSH2 0x52C PUSH0 DUP4 ADD DUP5 PUSH2 0x4B0 JUMP JUMPDEST DUP2 DUP2 SUB PUSH1 0x20 DUP4 ADD MSTORE PUSH2 0x53D DUP2 PUSH2 0x4F7 JUMP JUMPDEST SWAP1 POP SWAP3 SWAP2 POP POP JUMP JUMPDEST PUSH0 PUSH2 0x550 DUP4 DUP6 PUSH2 0x221 JUMP JUMPDEST SWAP4 POP PUSH2 0x55D DUP4 DUP6 DUP5 PUSH2 0x39B JUMP JUMPDEST PUSH2 0x566 DUP4 PUSH2 0x23F JUMP JUMPDEST DUP5 ADD SWAP1 POP SWAP4 SWAP3 POP POP POP JUMP JUMPDEST PUSH0 PUSH1 0x60 DUP3 ADD SWAP1 POP DUP2 DUP2 SUB PUSH0 DUP4 ADD MSTORE PUSH2 0x58A DUP2 DUP7 DUP9 PUSH2 0x545 JUMP JUMPDEST SWAP1 POP PUSH2 0x599 PUSH1 0x20 DUP4 ADD DUP6 PUSH2 0x1EF JUMP JUMPDEST PUSH2 0x5A6 PUSH1 0x40 DUP4 ADD DUP5 PUSH2 0x1EF JUMP JUMPDEST SWAP6 SWAP5 POP POP POP POP POP JUMP INVALID LOG2 PUSH5 0x6970667358 0x22 SLT KECCAK256 0x2A 0xB2 CALL 0xF6 EXTCALL SAR SLOAD JUMPF 0x7348 TLOAD PUSH6 0xE9618605A48C 0x21 SWAP13 SWAP3 0xDA JUMPF 0x9867 PUSH24 0x27D61CE0861264736F6C634300081E003300000000000000 "
				},
				"gasEstimates": {
					"creation": {
						"codeDepositCost": "301800",
						"executionCost": "341",
						"totalCost": "302141"
					},
					"external": {
						"foo(uint256,string)": "infinite",
						"getAllData()": "infinite",
						"getSelector()": "316"
					}
				},
				"methodIdentifiers": {
					"foo(uint256,string)": "c5d1c995",
					"getAllData()": "2d10fa28",
					"getSelector()": "034899bc"
				}
			},
			"storageLayout": {
				"storage": [],
				"types": null
			},
			"userdoc": {
				"kind": "user",
				"methods": {},
				"version": 1
			}
		}
	}
}