{
	"contracts/homework/test_2.sol": {
		"Test_2": {
			"abi": [
				{
					"inputs": [
						{
							"internalType": "uint256[]",
							"name": "arr",
							"type": "uint256[]"
						},
						{
							"internalType": "uint256",
							"name": "target",
							"type": "uint256"
						}
					],
					"name": "binarySearch",
					"outputs": [
						{
							"internalType": "uint256",
							"name": "",
							"type": "uint256"
						}
					],
					"stateMutability": "pure",
					"type": "function"
				},
				{
					"inputs": [
						{
							"internalType": "uint256[]",
							"name": "arr",
							"type": "uint256[]"
						},
						{
							"internalType": "uint256",
							"name": "target",
							"type": "uint256"
						}
					],
					"name": "binarySearch2",
					"outputs": [
						{
							"internalType": "int256",
							"name": "",
							"type": "int256"
						}
					],
					"stateMutability": "pure",
					"type": "function"
				},
				{
					"inputs": [
						{
							"internalType": "uint256",
							"name": "num",
							"type": "uint256"
						}
					],
					"name": "intToRoman",
					"outputs": [
						{
							"internalType": "string",
							"name": "",
							"type": "string"
						}
					],
					"stateMutability": "pure",
					"type": "function"
				},
				{
					"inputs": [
						{
							"internalType": "uint256[]",
							"name": "arr1",
							"type": "uint256[]"
						},
						{
							"internalType": "uint256[]",
							"name": "arr2",
							"type": "uint256[]"
						}
					],
					"name": "mergeArrays",
					"outputs": [
						{
							"internalType": "uint256[]",
							"name": "",
							"type": "uint256[]"
						}
					],
					"stateMutability": "pure",
					"type": "function"
				},
				{
					"inputs": [
						{
							"internalType": "string",
							"name": "str",
							"type": "string"
						}
					],
					"name": "romanToInt",
					"outputs": [
						{
							"internalType": "uint256",
							"name": "",
							"type": "uint256"
						}
					],
					"stateMutability": "pure",
					"type": "function"
				},
				{
					"inputs": [
						{
							"internalType": "string",
							"name": "line",
							"type": "string"
						}
					],
					"name": "stringReverse",
					"outputs": [
						{
							"internalType": "string",
							"name": "",
							"type": "string"
						}
					],
					"stateMutability": "pure",
					"type": "function"
				}
			],
			"devdoc": {
				"kind": "dev",
				"methods": {},
				"version": 1
			},
			"evm": {
				"assembly": "    /* \"contracts/homework/test_2.sol\":60:4512  contract Test_2 {... */\n  mstore(0x40, 0x80)\n  callvalue\n  dup1\n  iszero\n  tag_1\n  jumpi\n  revert(0x00, 0x00)\ntag_1:\n  pop\n  dataSize(sub_0)\n  dup1\n  dataOffset(sub_0)\n  0x00\n  codecopy\n  0x00\n  return\nstop\n\nsub_0: assembly {\n        /* \"contracts/homework/test_2.sol\":60:4512  contract Test_2 {... */\n      mstore(0x40, 0x80)\n      callvalue\n      dup1\n      iszero\n      tag_1\n      jumpi\n      revert(0x00, 0x00)\n    tag_1:\n      pop\n      jumpi(tag_2, lt(calldatasize, 0x04))\n      shr(0xe0, calldataload(0x00))\n      dup1\n      0x0cbc513a\n      eq\n      tag_3\n      jumpi\n      dup1\n      0xaaee9e95\n      eq\n      tag_4\n      jumpi\n      dup1\n      0xb12601da\n      eq\n      tag_5\n      jumpi\n      dup1\n      0xcb159dfe\n      eq\n      tag_6\n      jumpi\n      dup1\n      0xde948709\n      eq\n      tag_7\n      jumpi\n      dup1\n      0xf3582c69\n      eq\n      tag_8\n      jumpi\n    tag_2:\n      revert(0x00, 0x00)\n        /* \"contracts/homework/test_2.sol\":600:1204  function intToRoman(uint num) public pure returns(string memory) {... */\n    tag_3:\n      tag_9\n      0x04\n      dup1\n      calldatasize\n      sub\n      dup2\n      add\n      swap1\n      tag_10\n      swap2\n      swap1\n      tag_11\n      jump\t// in\n    tag_10:\n      tag_12\n      jump\t// in\n    tag_9:\n      mload(0x40)\n      tag_13\n      swap2\n      swap1\n      tag_14\n      jump\t// in\n    tag_13:\n      mload(0x40)\n      dup1\n      swap2\n      sub\n      swap1\n      return\n        /* \"contracts/homework/test_2.sol\":3950:4507  function binarySearch2(uint[] calldata arr, uint target) public pure returns(int) {... */\n    tag_4:\n      tag_15\n      0x04\n      dup1\n      calldatasize\n      sub\n      dup2\n      add\n      swap1\n      tag_16\n      swap2\n      swap1\n      tag_17\n      jump\t// in\n    tag_16:\n      tag_18\n      jump\t// in\n    tag_15:\n      mload(0x40)\n      tag_19\n      swap2\n      swap1\n      tag_20\n      jump\t// in\n    tag_19:\n      mload(0x40)\n      dup1\n      swap2\n      sub\n      swap1\n      return\n        /* \"contracts/homework/test_2.sol\":3198:3936  function binarySearch(uint[] calldata arr, uint target) public pure returns(uint) {... */\n    tag_5:\n      tag_21\n      0x04\n      dup1\n      calldatasize\n      sub\n      dup2\n      add\n      swap1\n      tag_22\n      swap2\n      swap1\n      tag_17\n      jump\t// in\n    tag_22:\n      tag_23\n      jump\t// in\n    tag_21:\n      mload(0x40)\n      tag_24\n      swap2\n      swap1\n      tag_25\n      jump\t// in\n    tag_24:\n      mload(0x40)\n      dup1\n      swap2\n      sub\n      swap1\n      return\n        /* \"contracts/homework/test_2.sol\":1214:1935  function romanToInt(string memory str) public pure returns (uint) {... */\n    tag_6:\n      tag_26\n      0x04\n      dup1\n      calldatasize\n      sub\n      dup2\n      add\n      swap1\n      tag_27\n      swap2\n      swap1\n      tag_28\n      jump\t// in\n    tag_27:\n      tag_29\n      jump\t// in\n    tag_26:\n      mload(0x40)\n      tag_30\n      swap2\n      swap1\n      tag_25\n      jump\t// in\n    tag_30:\n      mload(0x40)\n      dup1\n      swap2\n      sub\n      swap1\n      return\n        /* \"contracts/homework/test_2.sol\":2341:3054  function mergeArrays(uint[] calldata arr1, uint[] calldata arr2) public pure returns(uint[] memory) {... */\n    tag_7:\n      tag_31\n      0x04\n      dup1\n      calldatasize\n      sub\n      dup2\n      add\n      swap1\n      tag_32\n      swap2\n      swap1\n      tag_33\n      jump\t// in\n    tag_32:\n      tag_34\n      jump\t// in\n    tag_31:\n      mload(0x40)\n      tag_35\n      swap2\n      swap1\n      tag_36\n      jump\t// in\n    tag_35:\n      mload(0x40)\n      dup1\n      swap2\n      sub\n      swap1\n      return\n        /* \"contracts/homework/test_2.sol\":163:563  function stringReverse(string calldata line) public pure returns (string memory) {... */\n    tag_8:\n      tag_37\n      0x04\n      dup1\n      calldatasize\n      sub\n      dup2\n      add\n      swap1\n      tag_38\n      swap2\n      swap1\n      tag_39\n      jump\t// in\n    tag_38:\n      tag_40\n      jump\t// in\n    tag_37:\n      mload(0x40)\n      tag_41\n      swap2\n      swap1\n      tag_14\n      jump\t// in\n    tag_41:\n      mload(0x40)\n      dup1\n      swap2\n      sub\n      swap1\n      return\n        /* \"contracts/homework/test_2.sol\":600:1204  function intToRoman(uint num) public pure returns(string memory) {... */\n    tag_12:\n        /* \"contracts/homework/test_2.sol\":650:663  string memory */\n      0x60\n        /* \"contracts/homework/test_2.sol\":676:698  uint[13] memory values */\n      0x00\n        /* \"contracts/homework/test_2.sol\":676:764  uint[13] memory values = [uint256(1000), 900, 500, 400, 100, 90, 50, 40, 10, 9, 5, 4, 1] */\n      mload(0x40)\n      dup1\n      0x01a0\n      add\n      0x40\n      mstore\n      dup1\n        /* \"contracts/homework/test_2.sol\":710:714  1000 */\n      0x03e8\n        /* \"contracts/homework/test_2.sol\":676:764  uint[13] memory values = [uint256(1000), 900, 500, 400, 100, 90, 50, 40, 10, 9, 5, 4, 1] */\n      dup2\n      mstore\n      0x20\n      add\n        /* \"contracts/homework/test_2.sol\":717:720  900 */\n      0x0384\n        /* \"contracts/homework/test_2.sol\":676:764  uint[13] memory values = [uint256(1000), 900, 500, 400, 100, 90, 50, 40, 10, 9, 5, 4, 1] */\n      dup2\n      mstore\n      0x20\n      add\n        /* \"contracts/homework/test_2.sol\":722:725  500 */\n      0x01f4\n        /* \"contracts/homework/test_2.sol\":676:764  uint[13] memory values = [uint256(1000), 900, 500, 400, 100, 90, 50, 40, 10, 9, 5, 4, 1] */\n      dup2\n      mstore\n      0x20\n      add\n        /* \"contracts/homework/test_2.sol\":727:730  400 */\n      0x0190\n        /* \"contracts/homework/test_2.sol\":676:764  uint[13] memory values = [uint256(1000), 900, 500, 400, 100, 90, 50, 40, 10, 9, 5, 4, 1] */\n      dup2\n      mstore\n      0x20\n      add\n        /* \"contracts/homework/test_2.sol\":732:735  100 */\n      0x64\n        /* \"contracts/homework/test_2.sol\":676:764  uint[13] memory values = [uint256(1000), 900, 500, 400, 100, 90, 50, 40, 10, 9, 5, 4, 1] */\n      dup2\n      mstore\n      0x20\n      add\n        /* \"contracts/homework/test_2.sol\":737:739  90 */\n      0x5a\n        /* \"contracts/homework/test_2.sol\":676:764  uint[13] memory values = [uint256(1000), 900, 500, 400, 100, 90, 50, 40, 10, 9, 5, 4, 1] */\n      dup2\n      mstore\n      0x20\n      add\n        /* \"contracts/homework/test_2.sol\":741:743  50 */\n      0x32\n        /* \"contracts/homework/test_2.sol\":676:764  uint[13] memory values = [uint256(1000), 900, 500, 400, 100, 90, 50, 40, 10, 9, 5, 4, 1] */\n      dup2\n      mstore\n      0x20\n      add\n        /* \"contracts/homework/test_2.sol\":745:747  40 */\n      0x28\n        /* \"contracts/homework/test_2.sol\":676:764  uint[13] memory values = [uint256(1000), 900, 500, 400, 100, 90, 50, 40, 10, 9, 5, 4, 1] */\n      dup2\n      mstore\n      0x20\n      add\n        /* \"contracts/homework/test_2.sol\":749:751  10 */\n      0x0a\n        /* \"contracts/homework/test_2.sol\":676:764  uint[13] memory values = [uint256(1000), 900, 500, 400, 100, 90, 50, 40, 10, 9, 5, 4, 1] */\n      dup2\n      mstore\n      0x20\n      add\n        /* \"contracts/homework/test_2.sol\":753:754  9 */\n      0x09\n        /* \"contracts/homework/test_2.sol\":676:764  uint[13] memory values = [uint256(1000), 900, 500, 400, 100, 90, 50, 40, 10, 9, 5, 4, 1] */\n      dup2\n      mstore\n      0x20\n      add\n        /* \"contracts/homework/test_2.sol\":756:757  5 */\n      0x05\n        /* \"contracts/homework/test_2.sol\":676:764  uint[13] memory values = [uint256(1000), 900, 500, 400, 100, 90, 50, 40, 10, 9, 5, 4, 1] */\n      dup2\n      mstore\n      0x20\n      add\n        /* \"contracts/homework/test_2.sol\":759:760  4 */\n      0x04\n        /* \"contracts/homework/test_2.sol\":676:764  uint[13] memory values = [uint256(1000), 900, 500, 400, 100, 90, 50, 40, 10, 9, 5, 4, 1] */\n      dup2\n      mstore\n      0x20\n      add\n        /* \"contracts/homework/test_2.sol\":762:763  1 */\n      0x01\n        /* \"contracts/homework/test_2.sol\":676:764  uint[13] memory values = [uint256(1000), 900, 500, 400, 100, 90, 50, 40, 10, 9, 5, 4, 1] */\n      dup2\n      mstore\n      pop\n      swap1\n      pop\n        /* \"contracts/homework/test_2.sol\":775:800  string[13] memory letters */\n      0x00\n        /* \"contracts/homework/test_2.sol\":775:863  string[13] memory letters = [\"M\", \"CM\",\"D\",\"CD\",\"C\",\"XC\",\"L\",\"XL\",\"X\",\"IX\",\"V\",\"IV\",\"I\"] */\n      mload(0x40)\n      dup1\n      0x01a0\n      add\n      0x40\n      mstore\n      dup1\n      mload(0x40)\n      dup1\n      0x40\n      add\n      0x40\n      mstore\n      dup1\n      0x01\n      dup2\n      mstore\n      0x20\n      add\n      0x4d00000000000000000000000000000000000000000000000000000000000000\n      dup2\n      mstore\n      pop\n      dup2\n      mstore\n      0x20\n      add\n      mload(0x40)\n      dup1\n      0x40\n      add\n      0x40\n      mstore\n      dup1\n      0x02\n      dup2\n      mstore\n      0x20\n      add\n      0x434d000000000000000000000000000000000000000000000000000000000000\n      dup2\n      mstore\n      pop\n      dup2\n      mstore\n      0x20\n      add\n      mload(0x40)\n      dup1\n      0x40\n      add\n      0x40\n      mstore\n      dup1\n      0x01\n      dup2\n      mstore\n      0x20\n      add\n      0x4400000000000000000000000000000000000000000000000000000000000000\n      dup2\n      mstore\n      pop\n      dup2\n      mstore\n      0x20\n      add\n      mload(0x40)\n      dup1\n      0x40\n      add\n      0x40\n      mstore\n      dup1\n      0x02\n      dup2\n      mstore\n      0x20\n      add\n      0x4344000000000000000000000000000000000000000000000000000000000000\n      dup2\n      mstore\n      pop\n      dup2\n      mstore\n      0x20\n      add\n      mload(0x40)\n      dup1\n      0x40\n      add\n      0x40\n      mstore\n      dup1\n      0x01\n      dup2\n      mstore\n      0x20\n      add\n      0x4300000000000000000000000000000000000000000000000000000000000000\n      dup2\n      mstore\n      pop\n      dup2\n      mstore\n      0x20\n      add\n      mload(0x40)\n      dup1\n      0x40\n      add\n      0x40\n      mstore\n      dup1\n      0x02\n      dup2\n      mstore\n      0x20\n      add\n      0x5843000000000000000000000000000000000000000000000000000000000000\n      dup2\n      mstore\n      pop\n      dup2\n      mstore\n      0x20\n      add\n      mload(0x40)\n      dup1\n      0x40\n      add\n      0x40\n      mstore\n      dup1\n      0x01\n      dup2\n      mstore\n      0x20\n      add\n      0x4c00000000000000000000000000000000000000000000000000000000000000\n      dup2\n      mstore\n      pop\n      dup2\n      mstore\n      0x20\n      add\n      mload(0x40)\n      dup1\n      0x40\n      add\n      0x40\n      mstore\n      dup1\n      0x02\n      dup2\n      mstore\n      0x20\n      add\n      0x584c000000000000000000000000000000000000000000000000000000000000\n      dup2\n      mstore\n      pop\n      dup2\n      mstore\n      0x20\n      add\n      mload(0x40)\n      dup1\n      0x40\n      add\n      0x40\n      mstore\n      dup1\n      0x01\n      dup2\n      mstore\n      0x20\n      add\n      0x5800000000000000000000000000000000000000000000000000000000000000\n      dup2\n      mstore\n      pop\n      dup2\n      mstore\n      0x20\n      add\n      mload(0x40)\n      dup1\n      0x40\n      add\n      0x40\n      mstore\n      dup1\n      0x02\n      dup2\n      mstore\n      0x20\n      add\n      0x4958000000000000000000000000000000000000000000000000000000000000\n      dup2\n      mstore\n      pop\n      dup2\n      mstore\n      0x20\n      add\n      mload(0x40)\n      dup1\n      0x40\n      add\n      0x40\n      mstore\n      dup1\n      0x01\n      dup2\n      mstore\n      0x20\n      add\n      0x5600000000000000000000000000000000000000000000000000000000000000\n      dup2\n      mstore\n      pop\n      dup2\n      mstore\n      0x20\n      add\n      mload(0x40)\n      dup1\n      0x40\n      add\n      0x40\n      mstore\n      dup1\n      0x02\n      dup2\n      mstore\n      0x20\n      add\n      0x4956000000000000000000000000000000000000000000000000000000000000\n      dup2\n      mstore\n      pop\n      dup2\n      mstore\n      0x20\n      add\n      mload(0x40)\n      dup1\n      0x40\n      add\n      0x40\n      mstore\n      dup1\n      0x01\n      dup2\n      mstore\n      0x20\n      add\n      0x4900000000000000000000000000000000000000000000000000000000000000\n      dup2\n      mstore\n      pop\n      dup2\n      mstore\n      pop\n      swap1\n      pop\n        /* \"contracts/homework/test_2.sol\":884:901  string memory str */\n      0x60\n        /* \"contracts/homework/test_2.sol\":914:920  uint i */\n      0x00\n        /* \"contracts/homework/test_2.sol\":923:924  0 */\n      0x00\n        /* \"contracts/homework/test_2.sol\":914:924  uint i = 0 */\n      swap1\n      pop\n        /* \"contracts/homework/test_2.sol\":935:1176  while(num != 0) {... */\n    tag_43:\n        /* \"contracts/homework/test_2.sol\":948:949  0 */\n      0x00\n        /* \"contracts/homework/test_2.sol\":941:944  num */\n      dup7\n        /* \"contracts/homework/test_2.sol\":941:949  num != 0 */\n      eq\n        /* \"contracts/homework/test_2.sol\":935:1176  while(num != 0) {... */\n      tag_44\n      jumpi\n        /* \"contracts/homework/test_2.sol\":966:972  uint v */\n      0x00\n        /* \"contracts/homework/test_2.sol\":975:981  values */\n      dup5\n        /* \"contracts/homework/test_2.sol\":982:983  i */\n      dup3\n        /* \"contracts/homework/test_2.sol\":975:984  values[i] */\n      0x0d\n      dup2\n      lt\n      tag_45\n      jumpi\n      tag_46\n      tag_47\n      jump\t// in\n    tag_46:\n    tag_45:\n      0x20\n      mul\n      add\n      mload\n        /* \"contracts/homework/test_2.sol\":966:984  uint v = values[i] */\n      swap1\n      pop\n        /* \"contracts/homework/test_2.sol\":1009:1010  v */\n      dup1\n        /* \"contracts/homework/test_2.sol\":1002:1005  num */\n      dup8\n        /* \"contracts/homework/test_2.sol\":1002:1010  num >= v */\n      lt\n        /* \"contracts/homework/test_2.sol\":999:1165  if(num >= v) {... */\n      tag_48\n      jumpi\n        /* \"contracts/homework/test_2.sol\":1038:1039  v */\n      dup1\n        /* \"contracts/homework/test_2.sol\":1031:1039  num -= v */\n      dup8\n      tag_49\n      swap2\n      swap1\n      tag_50\n      jump\t// in\n    tag_49:\n      swap7\n      pop\n        /* \"contracts/homework/test_2.sol\":1088:1091  str */\n      dup3\n        /* \"contracts/homework/test_2.sol\":1093:1100  letters */\n      dup5\n        /* \"contracts/homework/test_2.sol\":1101:1102  i */\n      dup4\n        /* \"contracts/homework/test_2.sol\":1093:1103  letters[i] */\n      0x0d\n      dup2\n      lt\n      tag_51\n      jumpi\n      tag_52\n      tag_47\n      jump\t// in\n    tag_52:\n    tag_51:\n      0x20\n      mul\n      add\n      mload\n        /* \"contracts/homework/test_2.sol\":1071:1104  abi.encodePacked(str, letters[i]) */\n      add(0x20, mload(0x40))\n      tag_53\n      swap3\n      swap2\n      swap1\n      tag_54\n      jump\t// in\n    tag_53:\n      mload(0x40)\n      0x20\n      dup2\n      dup4\n      sub\n      sub\n      dup2\n      mstore\n      swap1\n      0x40\n      mstore\n        /* \"contracts/homework/test_2.sol\":1058:1105  str = string(abi.encodePacked(str, letters[i])) */\n      swap3\n      pop\n        /* \"contracts/homework/test_2.sol\":999:1165  if(num >= v) {... */\n      jump(tag_55)\n    tag_48:\n        /* \"contracts/homework/test_2.sol\":1146:1149  i++ */\n      dup2\n      dup1\n      tag_56\n      swap1\n      tag_57\n      jump\t// in\n    tag_56:\n      swap3\n      pop\n      pop\n        /* \"contracts/homework/test_2.sol\":999:1165  if(num >= v) {... */\n    tag_55:\n        /* \"contracts/homework/test_2.sol\":951:1176  {... */\n      pop\n        /* \"contracts/homework/test_2.sol\":935:1176  while(num != 0) {... */\n      jump(tag_43)\n    tag_44:\n        /* \"contracts/homework/test_2.sol\":1193:1196  str */\n      dup2\n        /* \"contracts/homework/test_2.sol\":1186:1196  return str */\n      swap5\n      pop\n      pop\n      pop\n      pop\n      pop\n        /* \"contracts/homework/test_2.sol\":600:1204  function intToRoman(uint num) public pure returns(string memory) {... */\n      swap2\n      swap1\n      pop\n      jump\t// out\n        /* \"contracts/homework/test_2.sol\":3950:4507  function binarySearch2(uint[] calldata arr, uint target) public pure returns(int) {... */\n    tag_18:\n        /* \"contracts/homework/test_2.sol\":4027:4030  int */\n      0x00\n        /* \"contracts/homework/test_2.sol\":4043:4051  uint len */\n      0x00\n        /* \"contracts/homework/test_2.sol\":4054:4057  arr */\n      dup5\n      dup5\n        /* \"contracts/homework/test_2.sol\":4054:4064  arr.length */\n      swap1\n      pop\n        /* \"contracts/homework/test_2.sol\":4043:4064  uint len = arr.length */\n      swap1\n      pop\n        /* \"contracts/homework/test_2.sol\":4075:4084  uint left */\n      0x00\n        /* \"contracts/homework/test_2.sol\":4087:4088  0 */\n      0x00\n        /* \"contracts/homework/test_2.sol\":4075:4088  uint left = 0 */\n      swap1\n      pop\n        /* \"contracts/homework/test_2.sol\":4099:4109  uint right */\n      0x00\n        /* \"contracts/homework/test_2.sol\":4118:4119  1 */\n      0x01\n        /* \"contracts/homework/test_2.sol\":4112:4115  len */\n      dup4\n        /* \"contracts/homework/test_2.sol\":4112:4119  len - 1 */\n      tag_59\n      swap2\n      swap1\n      tag_50\n      jump\t// in\n    tag_59:\n        /* \"contracts/homework/test_2.sol\":4099:4119  uint right = len - 1 */\n      swap1\n      pop\n        /* \"contracts/homework/test_2.sol\":4132:4143  uint middle */\n      0x00\n        /* \"contracts/homework/test_2.sol\":4146:4147  0 */\n      0x00\n        /* \"contracts/homework/test_2.sol\":4132:4147  uint middle = 0 */\n      swap1\n      pop\n        /* \"contracts/homework/test_2.sol\":4160:4469  while(left <= right){... */\n    tag_60:\n        /* \"contracts/homework/test_2.sol\":4174:4179  right */\n      dup2\n        /* \"contracts/homework/test_2.sol\":4166:4170  left */\n      dup4\n        /* \"contracts/homework/test_2.sol\":4166:4179  left <= right */\n      gt\n        /* \"contracts/homework/test_2.sol\":4160:4469  while(left <= right){... */\n      tag_61\n      jumpi\n        /* \"contracts/homework/test_2.sol\":4221:4222  2 */\n      0x02\n        /* \"contracts/homework/test_2.sol\":4212:4217  right */\n      dup3\n        /* \"contracts/homework/test_2.sol\":4205:4209  left */\n      dup5\n        /* \"contracts/homework/test_2.sol\":4205:4217  left + right */\n      tag_62\n      swap2\n      swap1\n      tag_63\n      jump\t// in\n    tag_62:\n        /* \"contracts/homework/test_2.sol\":4204:4222  (left + right) / 2 */\n      tag_64\n      swap2\n      swap1\n      tag_65\n      jump\t// in\n    tag_64:\n        /* \"contracts/homework/test_2.sol\":4195:4222  middle = (left + right) / 2 */\n      swap1\n      pop\n        /* \"contracts/homework/test_2.sol\":4250:4253  arr */\n      dup8\n      dup8\n        /* \"contracts/homework/test_2.sol\":4254:4260  middle */\n      dup3\n        /* \"contracts/homework/test_2.sol\":4250:4261  arr[middle] */\n      dup2\n      dup2\n      lt\n      tag_66\n      jumpi\n      tag_67\n      tag_47\n      jump\t// in\n    tag_67:\n    tag_66:\n      swap1\n      pop\n      0x20\n      mul\n      add\n      calldataload\n        /* \"contracts/homework/test_2.sol\":4241:4247  target */\n      dup7\n        /* \"contracts/homework/test_2.sol\":4241:4261  target > arr[middle] */\n      gt\n        /* \"contracts/homework/test_2.sol\":4237:4458  if (target > arr[middle]) {... */\n      iszero\n      tag_68\n      jumpi\n        /* \"contracts/homework/test_2.sol\":4298:4299  1 */\n      0x01\n        /* \"contracts/homework/test_2.sol\":4289:4295  middle */\n      dup2\n        /* \"contracts/homework/test_2.sol\":4289:4299  middle + 1 */\n      tag_69\n      swap2\n      swap1\n      tag_63\n      jump\t// in\n    tag_69:\n        /* \"contracts/homework/test_2.sol\":4282:4299  left = middle + 1 */\n      swap3\n      pop\n        /* \"contracts/homework/test_2.sol\":4237:4458  if (target > arr[middle]) {... */\n      jump(tag_70)\n    tag_68:\n        /* \"contracts/homework/test_2.sol\":4334:4337  arr */\n      dup8\n      dup8\n        /* \"contracts/homework/test_2.sol\":4338:4344  middle */\n      dup3\n        /* \"contracts/homework/test_2.sol\":4334:4345  arr[middle] */\n      dup2\n      dup2\n      lt\n      tag_71\n      jumpi\n      tag_72\n      tag_47\n      jump\t// in\n    tag_72:\n    tag_71:\n      swap1\n      pop\n      0x20\n      mul\n      add\n      calldataload\n        /* \"contracts/homework/test_2.sol\":4325:4331  target */\n      dup7\n        /* \"contracts/homework/test_2.sol\":4325:4345  target < arr[middle] */\n      lt\n        /* \"contracts/homework/test_2.sol\":4321:4458  if (target < arr[middle]){... */\n      iszero\n      tag_73\n      jumpi\n        /* \"contracts/homework/test_2.sol\":4382:4383  1 */\n      0x01\n        /* \"contracts/homework/test_2.sol\":4373:4379  middle */\n      dup2\n        /* \"contracts/homework/test_2.sol\":4373:4383  middle - 1 */\n      tag_74\n      swap2\n      swap1\n      tag_50\n      jump\t// in\n    tag_74:\n        /* \"contracts/homework/test_2.sol\":4365:4383  right = middle - 1 */\n      swap2\n      pop\n        /* \"contracts/homework/test_2.sol\":4321:4458  if (target < arr[middle]){... */\n      jump(tag_75)\n    tag_73:\n        /* \"contracts/homework/test_2.sol\":4435:4441  middle */\n      dup1\n        /* \"contracts/homework/test_2.sol\":4424:4442  return int(middle) */\n      swap5\n      pop\n      pop\n      pop\n      pop\n      pop\n      jump(tag_58)\n        /* \"contracts/homework/test_2.sol\":4321:4458  if (target < arr[middle]){... */\n    tag_75:\n        /* \"contracts/homework/test_2.sol\":4237:4458  if (target > arr[middle]) {... */\n    tag_70:\n        /* \"contracts/homework/test_2.sol\":4160:4469  while(left <= right){... */\n      jump(tag_60)\n    tag_61:\n        /* \"contracts/homework/test_2.sol\":4492:4498  middle */\n      dup1\n        /* \"contracts/homework/test_2.sol\":4481:4499  return int(middle) */\n      swap5\n      pop\n      pop\n      pop\n      pop\n      pop\n        /* \"contracts/homework/test_2.sol\":3950:4507  function binarySearch2(uint[] calldata arr, uint target) public pure returns(int) {... */\n    tag_58:\n      swap4\n      swap3\n      pop\n      pop\n      pop\n      jump\t// out\n        /* \"contracts/homework/test_2.sol\":3198:3936  function binarySearch(uint[] calldata arr, uint target) public pure returns(uint) {... */\n    tag_23:\n        /* \"contracts/homework/test_2.sol\":3274:3278  uint */\n      0x00\n        /* \"contracts/homework/test_2.sol\":3291:3299  uint len */\n      0x00\n        /* \"contracts/homework/test_2.sol\":3302:3305  arr */\n      dup5\n      dup5\n        /* \"contracts/homework/test_2.sol\":3302:3312  arr.length */\n      swap1\n      pop\n        /* \"contracts/homework/test_2.sol\":3291:3312  uint len = arr.length */\n      swap1\n      pop\n        /* \"contracts/homework/test_2.sol\":3323:3332  uint left */\n      0x00\n        /* \"contracts/homework/test_2.sol\":3335:3336  0 */\n      0x00\n        /* \"contracts/homework/test_2.sol\":3323:3336  uint left = 0 */\n      swap1\n      pop\n        /* \"contracts/homework/test_2.sol\":3347:3357  uint right */\n      0x00\n        /* \"contracts/homework/test_2.sol\":3366:3367  1 */\n      0x01\n        /* \"contracts/homework/test_2.sol\":3360:3363  len */\n      dup4\n        /* \"contracts/homework/test_2.sol\":3360:3367  len - 1 */\n      tag_77\n      swap2\n      swap1\n      tag_50\n      jump\t// in\n    tag_77:\n        /* \"contracts/homework/test_2.sol\":3347:3367  uint right = len - 1 */\n      swap1\n      pop\n        /* \"contracts/homework/test_2.sol\":3380:3391  uint middle */\n      0x00\n        /* \"contracts/homework/test_2.sol\":3394:3398  9999 */\n      0x270f\n        /* \"contracts/homework/test_2.sol\":3380:3398  uint middle = 9999 */\n      swap1\n      pop\n        /* \"contracts/homework/test_2.sol\":3411:3710  while(left + 1 < right){... */\n    tag_78:\n        /* \"contracts/homework/test_2.sol\":3428:3433  right */\n      dup2\n        /* \"contracts/homework/test_2.sol\":3424:3425  1 */\n      0x01\n        /* \"contracts/homework/test_2.sol\":3417:3421  left */\n      dup5\n        /* \"contracts/homework/test_2.sol\":3417:3425  left + 1 */\n      tag_80\n      swap2\n      swap1\n      tag_63\n      jump\t// in\n    tag_80:\n        /* \"contracts/homework/test_2.sol\":3417:3433  left + 1 < right */\n      lt\n        /* \"contracts/homework/test_2.sol\":3411:3710  while(left + 1 < right){... */\n      iszero\n      tag_79\n      jumpi\n        /* \"contracts/homework/test_2.sol\":3475:3476  2 */\n      0x02\n        /* \"contracts/homework/test_2.sol\":3466:3471  right */\n      dup3\n        /* \"contracts/homework/test_2.sol\":3459:3463  left */\n      dup5\n        /* \"contracts/homework/test_2.sol\":3459:3471  left + right */\n      tag_81\n      swap2\n      swap1\n      tag_63\n      jump\t// in\n    tag_81:\n        /* \"contracts/homework/test_2.sol\":3458:3476  (left + right) / 2 */\n      tag_82\n      swap2\n      swap1\n      tag_65\n      jump\t// in\n    tag_82:\n        /* \"contracts/homework/test_2.sol\":3449:3476  middle = (left + right) / 2 */\n      swap1\n      pop\n        /* \"contracts/homework/test_2.sol\":3504:3507  arr */\n      dup8\n      dup8\n        /* \"contracts/homework/test_2.sol\":3508:3514  middle */\n      dup3\n        /* \"contracts/homework/test_2.sol\":3504:3515  arr[middle] */\n      dup2\n      dup2\n      lt\n      tag_83\n      jumpi\n      tag_84\n      tag_47\n      jump\t// in\n    tag_84:\n    tag_83:\n      swap1\n      pop\n      0x20\n      mul\n      add\n      calldataload\n        /* \"contracts/homework/test_2.sol\":3495:3501  target */\n      dup7\n        /* \"contracts/homework/test_2.sol\":3495:3515  target > arr[middle] */\n      gt\n        /* \"contracts/homework/test_2.sol\":3491:3699  if (target > arr[middle]) {... */\n      iszero\n      tag_85\n      jumpi\n        /* \"contracts/homework/test_2.sol\":3543:3549  middle */\n      dup1\n        /* \"contracts/homework/test_2.sol\":3536:3549  left = middle */\n      swap3\n      pop\n        /* \"contracts/homework/test_2.sol\":3491:3699  if (target > arr[middle]) {... */\n      jump(tag_86)\n    tag_85:\n        /* \"contracts/homework/test_2.sol\":3584:3587  arr */\n      dup8\n      dup8\n        /* \"contracts/homework/test_2.sol\":3588:3594  middle */\n      dup3\n        /* \"contracts/homework/test_2.sol\":3584:3595  arr[middle] */\n      dup2\n      dup2\n      lt\n      tag_87\n      jumpi\n      tag_88\n      tag_47\n      jump\t// in\n    tag_88:\n    tag_87:\n      swap1\n      pop\n      0x20\n      mul\n      add\n      calldataload\n        /* \"contracts/homework/test_2.sol\":3575:3581  target */\n      dup7\n        /* \"contracts/homework/test_2.sol\":3575:3595  target < arr[middle] */\n      lt\n        /* \"contracts/homework/test_2.sol\":3571:3699  if (target < arr[middle]){... */\n      iszero\n      tag_89\n      jumpi\n        /* \"contracts/homework/test_2.sol\":3623:3629  middle */\n      dup1\n        /* \"contracts/homework/test_2.sol\":3615:3629  right = middle */\n      swap2\n      pop\n        /* \"contracts/homework/test_2.sol\":3571:3699  if (target < arr[middle]){... */\n      jump(tag_90)\n    tag_89:\n        /* \"contracts/homework/test_2.sol\":3677:3683  middle */\n      dup1\n        /* \"contracts/homework/test_2.sol\":3670:3683  return middle */\n      swap5\n      pop\n      pop\n      pop\n      pop\n      pop\n      jump(tag_76)\n        /* \"contracts/homework/test_2.sol\":3571:3699  if (target < arr[middle]){... */\n    tag_90:\n        /* \"contracts/homework/test_2.sol\":3491:3699  if (target > arr[middle]) {... */\n    tag_86:\n        /* \"contracts/homework/test_2.sol\":3411:3710  while(left + 1 < right){... */\n      jump(tag_78)\n    tag_79:\n        /* \"contracts/homework/test_2.sol\":3738:3744  target */\n      dup6\n        /* \"contracts/homework/test_2.sol\":3725:3728  arr */\n      dup9\n      dup9\n        /* \"contracts/homework/test_2.sol\":3729:3733  left */\n      dup6\n        /* \"contracts/homework/test_2.sol\":3725:3734  arr[left] */\n      dup2\n      dup2\n      lt\n      tag_91\n      jumpi\n      tag_92\n      tag_47\n      jump\t// in\n    tag_92:\n    tag_91:\n      swap1\n      pop\n      0x20\n      mul\n      add\n      calldataload\n        /* \"contracts/homework/test_2.sol\":3725:3744  arr[left] == target */\n      sub\n        /* \"contracts/homework/test_2.sol\":3722:3903  if(arr[left] == target){... */\n      tag_93\n      jumpi\n        /* \"contracts/homework/test_2.sol\":3769:3773  left */\n      dup3\n        /* \"contracts/homework/test_2.sol\":3760:3773  middle = left */\n      swap1\n      pop\n        /* \"contracts/homework/test_2.sol\":3722:3903  if(arr[left] == target){... */\n      jump(tag_94)\n    tag_93:\n        /* \"contracts/homework/test_2.sol\":3808:3814  target */\n      dup6\n        /* \"contracts/homework/test_2.sol\":3794:3797  arr */\n      dup9\n      dup9\n        /* \"contracts/homework/test_2.sol\":3798:3803  right */\n      dup5\n        /* \"contracts/homework/test_2.sol\":3794:3804  arr[right] */\n      dup2\n      dup2\n      lt\n      tag_95\n      jumpi\n      tag_96\n      tag_47\n      jump\t// in\n    tag_96:\n    tag_95:\n      swap1\n      pop\n      0x20\n      mul\n      add\n      calldataload\n        /* \"contracts/homework/test_2.sol\":3794:3814  arr[right] == target */\n      sub\n        /* \"contracts/homework/test_2.sol\":3791:3903  if(arr[right] == target) {... */\n      tag_97\n      jumpi\n        /* \"contracts/homework/test_2.sol\":3840:3845  right */\n      dup2\n        /* \"contracts/homework/test_2.sol\":3831:3845  middle = right */\n      swap1\n      pop\n        /* \"contracts/homework/test_2.sol\":3791:3903  if(arr[right] == target) {... */\n      jump(tag_98)\n    tag_97:\n        /* \"contracts/homework/test_2.sol\":3887:3891  9999 */\n      0x270f\n        /* \"contracts/homework/test_2.sol\":3878:3891  middle = 9999 */\n      swap1\n      pop\n        /* \"contracts/homework/test_2.sol\":3791:3903  if(arr[right] == target) {... */\n    tag_98:\n        /* \"contracts/homework/test_2.sol\":3722:3903  if(arr[left] == target){... */\n    tag_94:\n        /* \"contracts/homework/test_2.sol\":3922:3928  middle */\n      dup1\n        /* \"contracts/homework/test_2.sol\":3915:3928  return middle */\n      swap5\n      pop\n      pop\n      pop\n      pop\n      pop\n        /* \"contracts/homework/test_2.sol\":3198:3936  function binarySearch(uint[] calldata arr, uint target) public pure returns(uint) {... */\n    tag_76:\n      swap4\n      swap3\n      pop\n      pop\n      pop\n      jump\t// out\n        /* \"contracts/homework/test_2.sol\":1214:1935  function romanToInt(string memory str) public pure returns (uint) {... */\n    tag_29:\n        /* \"contracts/homework/test_2.sol\":1274:1278  uint */\n      0x00\n        /* \"contracts/homework/test_2.sol\":1291:1305  bytes memory b */\n      0x00\n        /* \"contracts/homework/test_2.sol\":1314:1317  str */\n      dup3\n        /* \"contracts/homework/test_2.sol\":1291:1318  bytes memory b = bytes(str) */\n      swap1\n      pop\n        /* \"contracts/homework/test_2.sol\":1329:1337  uint sum */\n      0x00\n        /* \"contracts/homework/test_2.sol\":1340:1341  0 */\n      0x00\n        /* \"contracts/homework/test_2.sol\":1329:1341  uint sum = 0 */\n      swap1\n      pop\n        /* \"contracts/homework/test_2.sol\":1352:1360  uint len */\n      0x00\n        /* \"contracts/homework/test_2.sol\":1363:1364  b */\n      dup3\n        /* \"contracts/homework/test_2.sol\":1363:1371  b.length */\n      mload\n        /* \"contracts/homework/test_2.sol\":1352:1371  uint len = b.length */\n      swap1\n      pop\n        /* \"contracts/homework/test_2.sol\":1396:1402  uint i */\n      0x00\n        /* \"contracts/homework/test_2.sol\":1405:1406  0 */\n      0x00\n        /* \"contracts/homework/test_2.sol\":1396:1406  uint i = 0 */\n      swap1\n      pop\n        /* \"contracts/homework/test_2.sol\":1392:1897  for(uint i = 0; i<len; i++) {... */\n    tag_100:\n        /* \"contracts/homework/test_2.sol\":1410:1413  len */\n      dup2\n        /* \"contracts/homework/test_2.sol\":1408:1409  i */\n      dup2\n        /* \"contracts/homework/test_2.sol\":1408:1413  i<len */\n      lt\n        /* \"contracts/homework/test_2.sol\":1392:1897  for(uint i = 0; i<len; i++) {... */\n      iszero\n      tag_101\n      jumpi\n        /* \"contracts/homework/test_2.sol\":1435:1442  uint n1 */\n      0x00\n        /* \"contracts/homework/test_2.sol\":1445:1458  valueOf(b[i]) */\n      tag_103\n        /* \"contracts/homework/test_2.sol\":1453:1454  b */\n      dup6\n        /* \"contracts/homework/test_2.sol\":1455:1456  i */\n      dup4\n        /* \"contracts/homework/test_2.sol\":1453:1457  b[i] */\n      dup2\n      mload\n      dup2\n      lt\n      tag_104\n      jumpi\n      tag_105\n      tag_47\n      jump\t// in\n    tag_105:\n    tag_104:\n      0x20\n      add\n      add\n      mload\n      0xf8\n      shr\n      0xf8\n      shl\n        /* \"contracts/homework/test_2.sol\":1445:1452  valueOf */\n      tag_106\n        /* \"contracts/homework/test_2.sol\":1445:1458  valueOf(b[i]) */\n      jump\t// in\n    tag_103:\n        /* \"contracts/homework/test_2.sol\":1435:1458  uint n1 = valueOf(b[i]) */\n      swap1\n      pop\n        /* \"contracts/homework/test_2.sol\":1487:1488  1 */\n      0x01\n        /* \"contracts/homework/test_2.sol\":1481:1484  len */\n      dup4\n        /* \"contracts/homework/test_2.sol\":1481:1488  len - 1 */\n      tag_107\n      swap2\n      swap1\n      tag_50\n      jump\t// in\n    tag_107:\n        /* \"contracts/homework/test_2.sol\":1476:1477  i */\n      dup3\n        /* \"contracts/homework/test_2.sol\":1476:1488  i == len - 1 */\n      sub\n        /* \"contracts/homework/test_2.sol\":1473:1558  if(i == len - 1) {... */\n      tag_108\n      jumpi\n        /* \"contracts/homework/test_2.sol\":1516:1518  n1 */\n      dup1\n        /* \"contracts/homework/test_2.sol\":1509:1518  sum += n1 */\n      dup5\n      tag_109\n      swap2\n      swap1\n      tag_63\n      jump\t// in\n    tag_109:\n      swap4\n      pop\n        /* \"contracts/homework/test_2.sol\":1537:1542  break */\n      pop\n      jump(tag_101)\n        /* \"contracts/homework/test_2.sol\":1473:1558  if(i == len - 1) {... */\n    tag_108:\n        /* \"contracts/homework/test_2.sol\":1574:1583  uint next */\n      0x00\n        /* \"contracts/homework/test_2.sol\":1586:1603  valueOf(b[i + 1]) */\n      tag_110\n        /* \"contracts/homework/test_2.sol\":1594:1595  b */\n      dup7\n        /* \"contracts/homework/test_2.sol\":1600:1601  1 */\n      0x01\n        /* \"contracts/homework/test_2.sol\":1596:1597  i */\n      dup6\n        /* \"contracts/homework/test_2.sol\":1596:1601  i + 1 */\n      tag_111\n      swap2\n      swap1\n      tag_63\n      jump\t// in\n    tag_111:\n        /* \"contracts/homework/test_2.sol\":1594:1602  b[i + 1] */\n      dup2\n      mload\n      dup2\n      lt\n      tag_112\n      jumpi\n      tag_113\n      tag_47\n      jump\t// in\n    tag_113:\n    tag_112:\n      0x20\n      add\n      add\n      mload\n      0xf8\n      shr\n      0xf8\n      shl\n        /* \"contracts/homework/test_2.sol\":1586:1593  valueOf */\n      tag_106\n        /* \"contracts/homework/test_2.sol\":1586:1603  valueOf(b[i + 1]) */\n      jump\t// in\n    tag_110:\n        /* \"contracts/homework/test_2.sol\":1574:1603  uint next = valueOf(b[i + 1]) */\n      swap1\n      pop\n        /* \"contracts/homework/test_2.sol\":1640:1644  next */\n      dup1\n        /* \"contracts/homework/test_2.sol\":1635:1637  n1 */\n      dup3\n        /* \"contracts/homework/test_2.sol\":1635:1644  n1 < next */\n      lt\n        /* \"contracts/homework/test_2.sol\":1632:1886  if(n1 < next) {... */\n      iszero\n      tag_114\n      jumpi\n        /* \"contracts/homework/test_2.sol\":1674:1676  n1 */\n      dup2\n        /* \"contracts/homework/test_2.sol\":1668:1671  sum */\n      dup6\n        /* \"contracts/homework/test_2.sol\":1668:1676  sum < n1 */\n      lt\n        /* \"contracts/homework/test_2.sol\":1665:1821  if(sum < n1) {... */\n      iszero\n      tag_115\n      jumpi\n        /* \"contracts/homework/test_2.sol\":1715:1717  n1 */\n      dup2\n        /* \"contracts/homework/test_2.sol\":1708:1712  next */\n      dup2\n        /* \"contracts/homework/test_2.sol\":1708:1717  next - n1 */\n      tag_116\n      swap2\n      swap1\n      tag_50\n      jump\t// in\n    tag_116:\n        /* \"contracts/homework/test_2.sol\":1701:1717  sum += next - n1 */\n      dup6\n      tag_117\n      swap2\n      swap1\n      tag_63\n      jump\t// in\n    tag_117:\n      swap5\n      pop\n        /* \"contracts/homework/test_2.sol\":1740:1743  i++ */\n      dup3\n      dup1\n      tag_118\n      swap1\n      tag_57\n      jump\t// in\n    tag_118:\n      swap4\n      pop\n      pop\n        /* \"contracts/homework/test_2.sol\":1665:1821  if(sum < n1) {... */\n      jump(tag_119)\n    tag_115:\n        /* \"contracts/homework/test_2.sol\":1799:1801  n1 */\n      dup2\n        /* \"contracts/homework/test_2.sol\":1792:1801  sum -= n1 */\n      dup6\n      tag_120\n      swap2\n      swap1\n      tag_50\n      jump\t// in\n    tag_120:\n      swap5\n      pop\n        /* \"contracts/homework/test_2.sol\":1665:1821  if(sum < n1) {... */\n    tag_119:\n        /* \"contracts/homework/test_2.sol\":1632:1886  if(n1 < next) {... */\n      jump(tag_121)\n    tag_114:\n        /* \"contracts/homework/test_2.sol\":1868:1870  n1 */\n      dup2\n        /* \"contracts/homework/test_2.sol\":1861:1870  sum += n1 */\n      dup6\n      tag_122\n      swap2\n      swap1\n      tag_63\n      jump\t// in\n    tag_122:\n      swap5\n      pop\n        /* \"contracts/homework/test_2.sol\":1632:1886  if(n1 < next) {... */\n    tag_121:\n        /* \"contracts/homework/test_2.sol\":1420:1897  {... */\n      pop\n      pop\n        /* \"contracts/homework/test_2.sol\":1415:1418  i++ */\n      dup1\n      dup1\n      tag_123\n      swap1\n      tag_57\n      jump\t// in\n    tag_123:\n      swap2\n      pop\n      pop\n        /* \"contracts/homework/test_2.sol\":1392:1897  for(uint i = 0; i<len; i++) {... */\n      jump(tag_100)\n    tag_101:\n      pop\n        /* \"contracts/homework/test_2.sol\":1924:1927  sum */\n      dup2\n        /* \"contracts/homework/test_2.sol\":1917:1927  return sum */\n      swap4\n      pop\n      pop\n      pop\n      pop\n        /* \"contracts/homework/test_2.sol\":1214:1935  function romanToInt(string memory str) public pure returns (uint) {... */\n      swap2\n      swap1\n      pop\n      jump\t// out\n        /* \"contracts/homework/test_2.sol\":2341:3054  function mergeArrays(uint[] calldata arr1, uint[] calldata arr2) public pure returns(uint[] memory) {... */\n    tag_34:\n        /* \"contracts/homework/test_2.sol\":2426:2439  uint[] memory */\n      0x60\n        /* \"contracts/homework/test_2.sol\":2452:2461  uint len1 */\n      0x00\n        /* \"contracts/homework/test_2.sol\":2464:2468  arr1 */\n      dup6\n      dup6\n        /* \"contracts/homework/test_2.sol\":2464:2475  arr1.length */\n      swap1\n      pop\n        /* \"contracts/homework/test_2.sol\":2452:2475  uint len1 = arr1.length */\n      swap1\n      pop\n        /* \"contracts/homework/test_2.sol\":2486:2495  uint len2 */\n      0x00\n        /* \"contracts/homework/test_2.sol\":2498:2502  arr2 */\n      dup5\n      dup5\n        /* \"contracts/homework/test_2.sol\":2498:2509  arr2.length */\n      swap1\n      pop\n        /* \"contracts/homework/test_2.sol\":2486:2509  uint len2 = arr2.length */\n      swap1\n      pop\n        /* \"contracts/homework/test_2.sol\":2520:2538  uint[] memory full */\n      0x00\n        /* \"contracts/homework/test_2.sol\":2559:2563  len2 */\n      dup2\n        /* \"contracts/homework/test_2.sol\":2552:2556  len1 */\n      dup4\n        /* \"contracts/homework/test_2.sol\":2552:2563  len1 + len2 */\n      tag_125\n      swap2\n      swap1\n      tag_63\n      jump\t// in\n    tag_125:\n        /* \"contracts/homework/test_2.sol\":2541:2564  new uint[](len1 + len2) */\n      0xffffffffffffffff\n      dup2\n      gt\n      iszero\n      tag_126\n      jumpi\n      tag_127\n      tag_128\n      jump\t// in\n    tag_127:\n    tag_126:\n      mload(0x40)\n      swap1\n      dup1\n      dup3\n      mstore\n      dup1\n      0x20\n      mul\n      0x20\n      add\n      dup3\n      add\n      0x40\n      mstore\n      dup1\n      iszero\n      tag_129\n      jumpi\n      dup2\n      0x20\n      add\n      0x20\n      dup3\n      mul\n      dup1\n      calldatasize\n      dup4\n      calldatacopy\n      dup1\n      dup3\n      add\n      swap2\n      pop\n      pop\n      swap1\n      pop\n    tag_129:\n      pop\n        /* \"contracts/homework/test_2.sol\":2520:2564  uint[] memory full = new uint[](len1 + len2) */\n      swap1\n      pop\n        /* \"contracts/homework/test_2.sol\":2585:2591  uint i */\n      0x00\n        /* \"contracts/homework/test_2.sol\":2594:2595  0 */\n      0x00\n        /* \"contracts/homework/test_2.sol\":2585:2595  uint i = 0 */\n      swap1\n      pop\n        /* \"contracts/homework/test_2.sol\":2606:2612  uint j */\n      0x00\n        /* \"contracts/homework/test_2.sol\":2615:2616  0 */\n      0x00\n        /* \"contracts/homework/test_2.sol\":2606:2616  uint j = 0 */\n      swap1\n      pop\n        /* \"contracts/homework/test_2.sol\":2627:2639  uint f_index */\n      0x00\n        /* \"contracts/homework/test_2.sol\":2642:2643  0 */\n      0x00\n        /* \"contracts/homework/test_2.sol\":2627:2643  uint f_index = 0 */\n      swap1\n      pop\n        /* \"contracts/homework/test_2.sol\":2654:2861  while (i < len1 && j < len2) {... */\n    tag_130:\n        /* \"contracts/homework/test_2.sol\":2665:2669  len1 */\n      dup6\n        /* \"contracts/homework/test_2.sol\":2661:2662  i */\n      dup4\n        /* \"contracts/homework/test_2.sol\":2661:2669  i < len1 */\n      lt\n        /* \"contracts/homework/test_2.sol\":2661:2681  i < len1 && j < len2 */\n      dup1\n      iszero\n      tag_132\n      jumpi\n      pop\n        /* \"contracts/homework/test_2.sol\":2677:2681  len2 */\n      dup5\n        /* \"contracts/homework/test_2.sol\":2673:2674  j */\n      dup3\n        /* \"contracts/homework/test_2.sol\":2673:2681  j < len2 */\n      lt\n        /* \"contracts/homework/test_2.sol\":2661:2681  i < len1 && j < len2 */\n    tag_132:\n        /* \"contracts/homework/test_2.sol\":2654:2861  while (i < len1 && j < len2) {... */\n      iszero\n      tag_131\n      jumpi\n        /* \"contracts/homework/test_2.sol\":2711:2715  arr2 */\n      dup9\n      dup9\n        /* \"contracts/homework/test_2.sol\":2716:2717  j */\n      dup4\n        /* \"contracts/homework/test_2.sol\":2711:2718  arr2[j] */\n      dup2\n      dup2\n      lt\n      tag_133\n      jumpi\n      tag_134\n      tag_47\n      jump\t// in\n    tag_134:\n    tag_133:\n      swap1\n      pop\n      0x20\n      mul\n      add\n      calldataload\n        /* \"contracts/homework/test_2.sol\":2701:2705  arr1 */\n      dup12\n      dup12\n        /* \"contracts/homework/test_2.sol\":2706:2707  i */\n      dup6\n        /* \"contracts/homework/test_2.sol\":2701:2708  arr1[i] */\n      dup2\n      dup2\n      lt\n      tag_135\n      jumpi\n      tag_136\n      tag_47\n      jump\t// in\n    tag_136:\n    tag_135:\n      swap1\n      pop\n      0x20\n      mul\n      add\n      calldataload\n        /* \"contracts/homework/test_2.sol\":2701:2718  arr1[i] < arr2[j] */\n      lt\n        /* \"contracts/homework/test_2.sol\":2698:2850  if(arr1[i] < arr2[j]) {... */\n      iszero\n      tag_137\n      jumpi\n        /* \"contracts/homework/test_2.sol\":2757:2761  arr1 */\n      dup11\n      dup11\n        /* \"contracts/homework/test_2.sol\":2762:2765  i++ */\n      dup5\n      dup1\n      tag_138\n      swap1\n      tag_57\n      jump\t// in\n    tag_138:\n      swap6\n      pop\n        /* \"contracts/homework/test_2.sol\":2757:2766  arr1[i++] */\n      dup2\n      dup2\n      lt\n      tag_139\n      jumpi\n      tag_140\n      tag_47\n      jump\t// in\n    tag_140:\n    tag_139:\n      swap1\n      pop\n      0x20\n      mul\n      add\n      calldataload\n        /* \"contracts/homework/test_2.sol\":2739:2743  full */\n      dup5\n        /* \"contracts/homework/test_2.sol\":2744:2753  f_index++ */\n      dup3\n      dup1\n      tag_141\n      swap1\n      tag_57\n      jump\t// in\n    tag_141:\n      swap4\n      pop\n        /* \"contracts/homework/test_2.sol\":2739:2754  full[f_index++] */\n      dup2\n      mload\n      dup2\n      lt\n      tag_142\n      jumpi\n      tag_143\n      tag_47\n      jump\t// in\n    tag_143:\n    tag_142:\n      0x20\n      mul\n      0x20\n      add\n      add\n        /* \"contracts/homework/test_2.sol\":2739:2766  full[f_index++] = arr1[i++] */\n      dup2\n      dup2\n      mstore\n      pop\n      pop\n        /* \"contracts/homework/test_2.sol\":2698:2850  if(arr1[i] < arr2[j]) {... */\n      jump(tag_144)\n    tag_137:\n        /* \"contracts/homework/test_2.sol\":2825:2829  arr2 */\n      dup9\n      dup9\n        /* \"contracts/homework/test_2.sol\":2830:2833  j++ */\n      dup4\n      dup1\n      tag_145\n      swap1\n      tag_57\n      jump\t// in\n    tag_145:\n      swap5\n      pop\n        /* \"contracts/homework/test_2.sol\":2825:2834  arr2[j++] */\n      dup2\n      dup2\n      lt\n      tag_146\n      jumpi\n      tag_147\n      tag_47\n      jump\t// in\n    tag_147:\n    tag_146:\n      swap1\n      pop\n      0x20\n      mul\n      add\n      calldataload\n        /* \"contracts/homework/test_2.sol\":2807:2811  full */\n      dup5\n        /* \"contracts/homework/test_2.sol\":2812:2821  f_index++ */\n      dup3\n      dup1\n      tag_148\n      swap1\n      tag_57\n      jump\t// in\n    tag_148:\n      swap4\n      pop\n        /* \"contracts/homework/test_2.sol\":2807:2822  full[f_index++] */\n      dup2\n      mload\n      dup2\n      lt\n      tag_149\n      jumpi\n      tag_150\n      tag_47\n      jump\t// in\n    tag_150:\n    tag_149:\n      0x20\n      mul\n      0x20\n      add\n      add\n        /* \"contracts/homework/test_2.sol\":2807:2834  full[f_index++] = arr2[j++] */\n      dup2\n      dup2\n      mstore\n      pop\n      pop\n        /* \"contracts/homework/test_2.sol\":2698:2850  if(arr1[i] < arr2[j]) {... */\n    tag_144:\n        /* \"contracts/homework/test_2.sol\":2654:2861  while (i < len1 && j < len2) {... */\n      jump(tag_130)\n    tag_131:\n        /* \"contracts/homework/test_2.sol\":2873:2943  while(i < len1) {... */\n    tag_151:\n        /* \"contracts/homework/test_2.sol\":2883:2887  len1 */\n      dup6\n        /* \"contracts/homework/test_2.sol\":2879:2880  i */\n      dup4\n        /* \"contracts/homework/test_2.sol\":2879:2887  i < len1 */\n      lt\n        /* \"contracts/homework/test_2.sol\":2873:2943  while(i < len1) {... */\n      iszero\n      tag_152\n      jumpi\n        /* \"contracts/homework/test_2.sol\":2922:2926  arr1 */\n      dup11\n      dup11\n        /* \"contracts/homework/test_2.sol\":2927:2930  i++ */\n      dup5\n      dup1\n      tag_153\n      swap1\n      tag_57\n      jump\t// in\n    tag_153:\n      swap6\n      pop\n        /* \"contracts/homework/test_2.sol\":2922:2931  arr1[i++] */\n      dup2\n      dup2\n      lt\n      tag_154\n      jumpi\n      tag_155\n      tag_47\n      jump\t// in\n    tag_155:\n    tag_154:\n      swap1\n      pop\n      0x20\n      mul\n      add\n      calldataload\n        /* \"contracts/homework/test_2.sol\":2904:2908  full */\n      dup5\n        /* \"contracts/homework/test_2.sol\":2909:2918  f_index++ */\n      dup3\n      dup1\n      tag_156\n      swap1\n      tag_57\n      jump\t// in\n    tag_156:\n      swap4\n      pop\n        /* \"contracts/homework/test_2.sol\":2904:2919  full[f_index++] */\n      dup2\n      mload\n      dup2\n      lt\n      tag_157\n      jumpi\n      tag_158\n      tag_47\n      jump\t// in\n    tag_158:\n    tag_157:\n      0x20\n      mul\n      0x20\n      add\n      add\n        /* \"contracts/homework/test_2.sol\":2904:2931  full[f_index++] = arr1[i++] */\n      dup2\n      dup2\n      mstore\n      pop\n      pop\n        /* \"contracts/homework/test_2.sol\":2873:2943  while(i < len1) {... */\n      jump(tag_151)\n    tag_152:\n        /* \"contracts/homework/test_2.sol\":2953:3023  while(j < len2) {... */\n    tag_159:\n        /* \"contracts/homework/test_2.sol\":2963:2967  len2 */\n      dup5\n        /* \"contracts/homework/test_2.sol\":2959:2960  j */\n      dup3\n        /* \"contracts/homework/test_2.sol\":2959:2967  j < len2 */\n      lt\n        /* \"contracts/homework/test_2.sol\":2953:3023  while(j < len2) {... */\n      iszero\n      tag_160\n      jumpi\n        /* \"contracts/homework/test_2.sol\":3002:3006  arr2 */\n      dup9\n      dup9\n        /* \"contracts/homework/test_2.sol\":3007:3010  j++ */\n      dup4\n      dup1\n      tag_161\n      swap1\n      tag_57\n      jump\t// in\n    tag_161:\n      swap5\n      pop\n        /* \"contracts/homework/test_2.sol\":3002:3011  arr2[j++] */\n      dup2\n      dup2\n      lt\n      tag_162\n      jumpi\n      tag_163\n      tag_47\n      jump\t// in\n    tag_163:\n    tag_162:\n      swap1\n      pop\n      0x20\n      mul\n      add\n      calldataload\n        /* \"contracts/homework/test_2.sol\":2984:2988  full */\n      dup5\n        /* \"contracts/homework/test_2.sol\":2989:2998  f_index++ */\n      dup3\n      dup1\n      tag_164\n      swap1\n      tag_57\n      jump\t// in\n    tag_164:\n      swap4\n      pop\n        /* \"contracts/homework/test_2.sol\":2984:2999  full[f_index++] */\n      dup2\n      mload\n      dup2\n      lt\n      tag_165\n      jumpi\n      tag_166\n      tag_47\n      jump\t// in\n    tag_166:\n    tag_165:\n      0x20\n      mul\n      0x20\n      add\n      add\n        /* \"contracts/homework/test_2.sol\":2984:3011  full[f_index++] = arr2[j++] */\n      dup2\n      dup2\n      mstore\n      pop\n      pop\n        /* \"contracts/homework/test_2.sol\":2953:3023  while(j < len2) {... */\n      jump(tag_159)\n    tag_160:\n        /* \"contracts/homework/test_2.sol\":3042:3046  full */\n      dup4\n        /* \"contracts/homework/test_2.sol\":3035:3046  return full */\n      swap7\n      pop\n      pop\n      pop\n      pop\n      pop\n      pop\n      pop\n        /* \"contracts/homework/test_2.sol\":2341:3054  function mergeArrays(uint[] calldata arr1, uint[] calldata arr2) public pure returns(uint[] memory) {... */\n      swap5\n      swap4\n      pop\n      pop\n      pop\n      pop\n      jump\t// out\n        /* \"contracts/homework/test_2.sol\":163:563  function stringReverse(string calldata line) public pure returns (string memory) {... */\n    tag_40:\n        /* \"contracts/homework/test_2.sol\":229:242  string memory */\n      0x60\n        /* \"contracts/homework/test_2.sol\":255:277  bytes memory lineBytes */\n      0x00\n        /* \"contracts/homework/test_2.sol\":286:290  line */\n      dup4\n      dup4\n        /* \"contracts/homework/test_2.sol\":255:291  bytes memory lineBytes = bytes(line) */\n      dup1\n      dup1\n      0x1f\n      add\n      0x20\n      dup1\n      swap2\n      div\n      mul\n      0x20\n      add\n      mload(0x40)\n      swap1\n      dup2\n      add\n      0x40\n      mstore\n      dup1\n      swap4\n      swap3\n      swap2\n      swap1\n      dup2\n      dup2\n      mstore\n      0x20\n      add\n      dup4\n      dup4\n      dup1\n      dup3\n      dup5\n      calldatacopy\n      0x00\n      dup2\n      dup5\n      add\n      mstore\n      not(0x1f)\n      0x1f\n      dup3\n      add\n      and\n      swap1\n      pop\n      dup1\n      dup4\n      add\n      swap3\n      pop\n      pop\n      pop\n      pop\n      pop\n      pop\n      pop\n      swap1\n      pop\n        /* \"contracts/homework/test_2.sol\":302:310  uint len */\n      0x00\n        /* \"contracts/homework/test_2.sol\":313:322  lineBytes */\n      dup2\n        /* \"contracts/homework/test_2.sol\":313:329  lineBytes.length */\n      mload\n        /* \"contracts/homework/test_2.sol\":302:329  uint len = lineBytes.length */\n      swap1\n      pop\n        /* \"contracts/homework/test_2.sol\":353:354  0 */\n      0x00\n        /* \"contracts/homework/test_2.sol\":346:349  len */\n      dup2\n        /* \"contracts/homework/test_2.sol\":346:354  len == 0 */\n      sub\n        /* \"contracts/homework/test_2.sol\":342:367  if (len == 0)   return \"\" */\n      tag_168\n      jumpi\n        /* \"contracts/homework/test_2.sol\":358:367  return \"\" */\n      mload(0x40)\n      dup1\n      0x20\n      add\n      0x40\n      mstore\n      dup1\n      0x00\n      dup2\n      mstore\n      pop\n      swap3\n      pop\n      pop\n      pop\n      jump(tag_167)\n        /* \"contracts/homework/test_2.sol\":342:367  if (len == 0)   return \"\" */\n    tag_168:\n        /* \"contracts/homework/test_2.sol\":380:400  bytes memory reverse */\n      0x00\n        /* \"contracts/homework/test_2.sol\":413:416  len */\n      dup2\n        /* \"contracts/homework/test_2.sol\":403:417  new bytes(len) */\n      0xffffffffffffffff\n      dup2\n      gt\n      iszero\n      tag_169\n      jumpi\n      tag_170\n      tag_128\n      jump\t// in\n    tag_170:\n    tag_169:\n      mload(0x40)\n      swap1\n      dup1\n      dup3\n      mstore\n      dup1\n      0x1f\n      add\n      not(0x1f)\n      and\n      0x20\n      add\n      dup3\n      add\n      0x40\n      mstore\n      dup1\n      iszero\n      tag_171\n      jumpi\n      dup2\n      0x20\n      add\n      0x01\n      dup3\n      mul\n      dup1\n      calldatasize\n      dup4\n      calldatacopy\n      dup1\n      dup3\n      add\n      swap2\n      pop\n      pop\n      swap1\n      pop\n    tag_171:\n      pop\n        /* \"contracts/homework/test_2.sol\":380:417  bytes memory reverse = new bytes(len) */\n      swap1\n      pop\n        /* \"contracts/homework/test_2.sol\":434:440  uint i */\n      0x00\n        /* \"contracts/homework/test_2.sol\":443:444  0 */\n      0x00\n        /* \"contracts/homework/test_2.sol\":434:444  uint i = 0 */\n      swap1\n      pop\n        /* \"contracts/homework/test_2.sol\":430:521  for(uint i = 0; i < len; i++) {... */\n    tag_172:\n        /* \"contracts/homework/test_2.sol\":450:453  len */\n      dup3\n        /* \"contracts/homework/test_2.sol\":446:447  i */\n      dup2\n        /* \"contracts/homework/test_2.sol\":446:453  i < len */\n      lt\n        /* \"contracts/homework/test_2.sol\":430:521  for(uint i = 0; i < len; i++) {... */\n      iszero\n      tag_173\n      jumpi\n        /* \"contracts/homework/test_2.sol\":488:497  lineBytes */\n      dup4\n        /* \"contracts/homework/test_2.sol\":507:508  i */\n      dup2\n        /* \"contracts/homework/test_2.sol\":503:504  1 */\n      0x01\n        /* \"contracts/homework/test_2.sol\":498:501  len */\n      dup6\n        /* \"contracts/homework/test_2.sol\":498:504  len -1 */\n      tag_175\n      swap2\n      swap1\n      tag_50\n      jump\t// in\n    tag_175:\n        /* \"contracts/homework/test_2.sol\":498:508  len -1 - i */\n      tag_176\n      swap2\n      swap1\n      tag_50\n      jump\t// in\n    tag_176:\n        /* \"contracts/homework/test_2.sol\":488:509  lineBytes[len -1 - i] */\n      dup2\n      mload\n      dup2\n      lt\n      tag_177\n      jumpi\n      tag_178\n      tag_47\n      jump\t// in\n    tag_178:\n    tag_177:\n      0x20\n      add\n      add\n      mload\n      0xf8\n      shr\n      0xf8\n      shl\n        /* \"contracts/homework/test_2.sol\":475:482  reverse */\n      dup3\n        /* \"contracts/homework/test_2.sol\":483:484  i */\n      dup3\n        /* \"contracts/homework/test_2.sol\":475:485  reverse[i] */\n      dup2\n      mload\n      dup2\n      lt\n      tag_179\n      jumpi\n      tag_180\n      tag_47\n      jump\t// in\n    tag_180:\n    tag_179:\n      0x20\n      add\n      add\n        /* \"contracts/homework/test_2.sol\":475:509  reverse[i] = lineBytes[len -1 - i] */\n      swap1\n      not(0xffffffffffffffffffffffffffffffffffffffffffffffffffffffffffffff)\n      and\n      swap1\n      dup2\n      0x00\n      byte\n      swap1\n      mstore8\n      pop\n        /* \"contracts/homework/test_2.sol\":455:458  i++ */\n      dup1\n      dup1\n      0x01\n      add\n      swap2\n      pop\n      pop\n        /* \"contracts/homework/test_2.sol\":430:521  for(uint i = 0; i < len; i++) {... */\n      jump(tag_172)\n    tag_173:\n      pop\n        /* \"contracts/homework/test_2.sol\":547:554  reverse */\n      dup1\n        /* \"contracts/homework/test_2.sol\":533:555  return string(reverse) */\n      swap4\n      pop\n      pop\n      pop\n      pop\n        /* \"contracts/homework/test_2.sol\":163:563  function stringReverse(string calldata line) public pure returns (string memory) {... */\n    tag_167:\n      swap3\n      swap2\n      pop\n      pop\n      jump\t// out\n        /* \"contracts/homework/test_2.sol\":1945:2268  function valueOf(bytes1 c) internal pure returns (uint) {... */\n    tag_106:\n        /* \"contracts/homework/test_2.sol\":1995:1999  uint */\n      0x00\n        /* \"contracts/homework/test_2.sol\":2016:2024  c == \"I\" */\n      0x4900000000000000000000000000000000000000000000000000000000000000\n        /* \"contracts/homework/test_2.sol\":2016:2017  c */\n      dup3\n        /* \"contracts/homework/test_2.sol\":2016:2024  c == \"I\" */\n      not(0xffffffffffffffffffffffffffffffffffffffffffffffffffffffffffffff)\n      and\n      sub\n        /* \"contracts/homework/test_2.sol\":2012:2034  if (c == \"I\") return 1 */\n      tag_182\n      jumpi\n        /* \"contracts/homework/test_2.sol\":2033:2034  1 */\n      0x01\n        /* \"contracts/homework/test_2.sol\":2026:2034  return 1 */\n      swap1\n      pop\n      jump(tag_181)\n        /* \"contracts/homework/test_2.sol\":2012:2034  if (c == \"I\") return 1 */\n    tag_182:\n        /* \"contracts/homework/test_2.sol\":2049:2057  c == \"V\" */\n      0x5600000000000000000000000000000000000000000000000000000000000000\n        /* \"contracts/homework/test_2.sol\":2049:2050  c */\n      dup3\n        /* \"contracts/homework/test_2.sol\":2049:2057  c == \"V\" */\n      not(0xffffffffffffffffffffffffffffffffffffffffffffffffffffffffffffff)\n      and\n      sub\n        /* \"contracts/homework/test_2.sol\":2045:2067  if (c == \"V\") return 5 */\n      tag_183\n      jumpi\n        /* \"contracts/homework/test_2.sol\":2066:2067  5 */\n      0x05\n        /* \"contracts/homework/test_2.sol\":2059:2067  return 5 */\n      swap1\n      pop\n      jump(tag_181)\n        /* \"contracts/homework/test_2.sol\":2045:2067  if (c == \"V\") return 5 */\n    tag_183:\n        /* \"contracts/homework/test_2.sol\":2082:2090  c == \"X\" */\n      0x5800000000000000000000000000000000000000000000000000000000000000\n        /* \"contracts/homework/test_2.sol\":2082:2083  c */\n      dup3\n        /* \"contracts/homework/test_2.sol\":2082:2090  c == \"X\" */\n      not(0xffffffffffffffffffffffffffffffffffffffffffffffffffffffffffffff)\n      and\n      sub\n        /* \"contracts/homework/test_2.sol\":2078:2101  if (c == \"X\") return 10 */\n      tag_184\n      jumpi\n        /* \"contracts/homework/test_2.sol\":2099:2101  10 */\n      0x0a\n        /* \"contracts/homework/test_2.sol\":2092:2101  return 10 */\n      swap1\n      pop\n      jump(tag_181)\n        /* \"contracts/homework/test_2.sol\":2078:2101  if (c == \"X\") return 10 */\n    tag_184:\n        /* \"contracts/homework/test_2.sol\":2116:2124  c == \"L\" */\n      0x4c00000000000000000000000000000000000000000000000000000000000000\n        /* \"contracts/homework/test_2.sol\":2116:2117  c */\n      dup3\n        /* \"contracts/homework/test_2.sol\":2116:2124  c == \"L\" */\n      not(0xffffffffffffffffffffffffffffffffffffffffffffffffffffffffffffff)\n      and\n      sub\n        /* \"contracts/homework/test_2.sol\":2112:2135  if (c == \"L\") return 50 */\n      tag_185\n      jumpi\n        /* \"contracts/homework/test_2.sol\":2133:2135  50 */\n      0x32\n        /* \"contracts/homework/test_2.sol\":2126:2135  return 50 */\n      swap1\n      pop\n      jump(tag_181)\n        /* \"contracts/homework/test_2.sol\":2112:2135  if (c == \"L\") return 50 */\n    tag_185:\n        /* \"contracts/homework/test_2.sol\":2150:2158  c == \"C\" */\n      0x4300000000000000000000000000000000000000000000000000000000000000\n        /* \"contracts/homework/test_2.sol\":2150:2151  c */\n      dup3\n        /* \"contracts/homework/test_2.sol\":2150:2158  c == \"C\" */\n      not(0xffffffffffffffffffffffffffffffffffffffffffffffffffffffffffffff)\n      and\n      sub\n        /* \"contracts/homework/test_2.sol\":2146:2170  if (c == \"C\") return 100 */\n      tag_186\n      jumpi\n        /* \"contracts/homework/test_2.sol\":2167:2170  100 */\n      0x64\n        /* \"contracts/homework/test_2.sol\":2160:2170  return 100 */\n      swap1\n      pop\n      jump(tag_181)\n        /* \"contracts/homework/test_2.sol\":2146:2170  if (c == \"C\") return 100 */\n    tag_186:\n        /* \"contracts/homework/test_2.sol\":2185:2193  c == \"D\" */\n      0x4400000000000000000000000000000000000000000000000000000000000000\n        /* \"contracts/homework/test_2.sol\":2185:2186  c */\n      dup3\n        /* \"contracts/homework/test_2.sol\":2185:2193  c == \"D\" */\n      not(0xffffffffffffffffffffffffffffffffffffffffffffffffffffffffffffff)\n      and\n      sub\n        /* \"contracts/homework/test_2.sol\":2181:2205  if (c == \"D\") return 500 */\n      tag_187\n      jumpi\n        /* \"contracts/homework/test_2.sol\":2202:2205  500 */\n      0x01f4\n        /* \"contracts/homework/test_2.sol\":2195:2205  return 500 */\n      swap1\n      pop\n      jump(tag_181)\n        /* \"contracts/homework/test_2.sol\":2181:2205  if (c == \"D\") return 500 */\n    tag_187:\n        /* \"contracts/homework/test_2.sol\":2220:2228  c == \"M\" */\n      0x4d00000000000000000000000000000000000000000000000000000000000000\n        /* \"contracts/homework/test_2.sol\":2220:2221  c */\n      dup3\n        /* \"contracts/homework/test_2.sol\":2220:2228  c == \"M\" */\n      not(0xffffffffffffffffffffffffffffffffffffffffffffffffffffffffffffff)\n      and\n      sub\n        /* \"contracts/homework/test_2.sol\":2216:2241  if (c == \"M\") return 1000 */\n      tag_188\n      jumpi\n        /* \"contracts/homework/test_2.sol\":2237:2241  1000 */\n      0x03e8\n        /* \"contracts/homework/test_2.sol\":2230:2241  return 1000 */\n      swap1\n      pop\n      jump(tag_181)\n        /* \"contracts/homework/test_2.sol\":2216:2241  if (c == \"M\") return 1000 */\n    tag_188:\n        /* \"contracts/homework/test_2.sol\":2259:2260  0 */\n      0x00\n        /* \"contracts/homework/test_2.sol\":2252:2260  return 0 */\n      swap1\n      pop\n        /* \"contracts/homework/test_2.sol\":1945:2268  function valueOf(bytes1 c) internal pure returns (uint) {... */\n    tag_181:\n      swap2\n      swap1\n      pop\n      jump\t// out\n        /* \"#utility.yul\":7:82   */\n    tag_189:\n        /* \"#utility.yul\":40:46   */\n      0x00\n        /* \"#utility.yul\":73:75   */\n      0x40\n        /* \"#utility.yul\":67:76   */\n      mload\n        /* \"#utility.yul\":57:76   */\n      swap1\n      pop\n        /* \"#utility.yul\":7:82   */\n      swap1\n      jump\t// out\n        /* \"#utility.yul\":88:205   */\n    tag_190:\n        /* \"#utility.yul\":197:198   */\n      0x00\n        /* \"#utility.yul\":194:195   */\n      0x00\n        /* \"#utility.yul\":187:199   */\n      revert\n        /* \"#utility.yul\":211:328   */\n    tag_191:\n        /* \"#utility.yul\":320:321   */\n      0x00\n        /* \"#utility.yul\":317:318   */\n      0x00\n        /* \"#utility.yul\":310:322   */\n      revert\n        /* \"#utility.yul\":334:411   */\n    tag_192:\n        /* \"#utility.yul\":371:378   */\n      0x00\n        /* \"#utility.yul\":400:405   */\n      dup2\n        /* \"#utility.yul\":389:405   */\n      swap1\n      pop\n        /* \"#utility.yul\":334:411   */\n      swap2\n      swap1\n      pop\n      jump\t// out\n        /* \"#utility.yul\":417:539   */\n    tag_193:\n        /* \"#utility.yul\":490:514   */\n      tag_232\n        /* \"#utility.yul\":508:513   */\n      dup2\n        /* \"#utility.yul\":490:514   */\n      tag_192\n      jump\t// in\n    tag_232:\n        /* \"#utility.yul\":483:488   */\n      dup2\n        /* \"#utility.yul\":480:515   */\n      eq\n        /* \"#utility.yul\":470:533   */\n      tag_233\n      jumpi\n        /* \"#utility.yul\":529:530   */\n      0x00\n        /* \"#utility.yul\":526:527   */\n      0x00\n        /* \"#utility.yul\":519:531   */\n      revert\n        /* \"#utility.yul\":470:533   */\n    tag_233:\n        /* \"#utility.yul\":417:539   */\n      pop\n      jump\t// out\n        /* \"#utility.yul\":545:684   */\n    tag_194:\n        /* \"#utility.yul\":591:596   */\n      0x00\n        /* \"#utility.yul\":629:635   */\n      dup2\n        /* \"#utility.yul\":616:636   */\n      calldataload\n        /* \"#utility.yul\":607:636   */\n      swap1\n      pop\n        /* \"#utility.yul\":645:678   */\n      tag_235\n        /* \"#utility.yul\":672:677   */\n      dup2\n        /* \"#utility.yul\":645:678   */\n      tag_193\n      jump\t// in\n    tag_235:\n        /* \"#utility.yul\":545:684   */\n      swap3\n      swap2\n      pop\n      pop\n      jump\t// out\n        /* \"#utility.yul\":690:1019   */\n    tag_11:\n        /* \"#utility.yul\":749:755   */\n      0x00\n        /* \"#utility.yul\":798:800   */\n      0x20\n        /* \"#utility.yul\":786:795   */\n      dup3\n        /* \"#utility.yul\":777:784   */\n      dup5\n        /* \"#utility.yul\":773:796   */\n      sub\n        /* \"#utility.yul\":769:801   */\n      slt\n        /* \"#utility.yul\":766:885   */\n      iszero\n      tag_237\n      jumpi\n        /* \"#utility.yul\":804:883   */\n      tag_238\n      tag_190\n      jump\t// in\n    tag_238:\n        /* \"#utility.yul\":766:885   */\n    tag_237:\n        /* \"#utility.yul\":924:925   */\n      0x00\n        /* \"#utility.yul\":949:1002   */\n      tag_239\n        /* \"#utility.yul\":994:1001   */\n      dup5\n        /* \"#utility.yul\":985:991   */\n      dup3\n        /* \"#utility.yul\":974:983   */\n      dup6\n        /* \"#utility.yul\":970:992   */\n      add\n        /* \"#utility.yul\":949:1002   */\n      tag_194\n      jump\t// in\n    tag_239:\n        /* \"#utility.yul\":939:1002   */\n      swap2\n      pop\n        /* \"#utility.yul\":895:1012   */\n      pop\n        /* \"#utility.yul\":690:1019   */\n      swap3\n      swap2\n      pop\n      pop\n      jump\t// out\n        /* \"#utility.yul\":1025:1124   */\n    tag_195:\n        /* \"#utility.yul\":1077:1083   */\n      0x00\n        /* \"#utility.yul\":1111:1116   */\n      dup2\n        /* \"#utility.yul\":1105:1117   */\n      mload\n        /* \"#utility.yul\":1095:1117   */\n      swap1\n      pop\n        /* \"#utility.yul\":1025:1124   */\n      swap2\n      swap1\n      pop\n      jump\t// out\n        /* \"#utility.yul\":1130:1299   */\n    tag_196:\n        /* \"#utility.yul\":1214:1225   */\n      0x00\n        /* \"#utility.yul\":1248:1254   */\n      dup3\n        /* \"#utility.yul\":1243:1246   */\n      dup3\n        /* \"#utility.yul\":1236:1255   */\n      mstore\n        /* \"#utility.yul\":1288:1292   */\n      0x20\n        /* \"#utility.yul\":1283:1286   */\n      dup3\n        /* \"#utility.yul\":1279:1293   */\n      add\n        /* \"#utility.yul\":1264:1293   */\n      swap1\n      pop\n        /* \"#utility.yul\":1130:1299   */\n      swap3\n      swap2\n      pop\n      pop\n      jump\t// out\n        /* \"#utility.yul\":1305:1444   */\n    tag_197:\n        /* \"#utility.yul\":1394:1400   */\n      dup3\n        /* \"#utility.yul\":1389:1392   */\n      dup2\n        /* \"#utility.yul\":1384:1387   */\n      dup4\n        /* \"#utility.yul\":1378:1401   */\n      mcopy\n        /* \"#utility.yul\":1435:1436   */\n      0x00\n        /* \"#utility.yul\":1426:1432   */\n      dup4\n        /* \"#utility.yul\":1421:1424   */\n      dup4\n        /* \"#utility.yul\":1417:1433   */\n      add\n        /* \"#utility.yul\":1410:1437   */\n      mstore\n        /* \"#utility.yul\":1305:1444   */\n      pop\n      pop\n      pop\n      jump\t// out\n        /* \"#utility.yul\":1450:1552   */\n    tag_198:\n        /* \"#utility.yul\":1491:1497   */\n      0x00\n        /* \"#utility.yul\":1542:1544   */\n      0x1f\n        /* \"#utility.yul\":1538:1545   */\n      not\n        /* \"#utility.yul\":1533:1535   */\n      0x1f\n        /* \"#utility.yul\":1526:1531   */\n      dup4\n        /* \"#utility.yul\":1522:1536   */\n      add\n        /* \"#utility.yul\":1518:1546   */\n      and\n        /* \"#utility.yul\":1508:1546   */\n      swap1\n      pop\n        /* \"#utility.yul\":1450:1552   */\n      swap2\n      swap1\n      pop\n      jump\t// out\n        /* \"#utility.yul\":1558:1935   */\n    tag_199:\n        /* \"#utility.yul\":1646:1649   */\n      0x00\n        /* \"#utility.yul\":1674:1713   */\n      tag_245\n        /* \"#utility.yul\":1707:1712   */\n      dup3\n        /* \"#utility.yul\":1674:1713   */\n      tag_195\n      jump\t// in\n    tag_245:\n        /* \"#utility.yul\":1729:1800   */\n      tag_246\n        /* \"#utility.yul\":1793:1799   */\n      dup2\n        /* \"#utility.yul\":1788:1791   */\n      dup6\n        /* \"#utility.yul\":1729:1800   */\n      tag_196\n      jump\t// in\n    tag_246:\n        /* \"#utility.yul\":1722:1800   */\n      swap4\n      pop\n        /* \"#utility.yul\":1809:1874   */\n      tag_247\n        /* \"#utility.yul\":1867:1873   */\n      dup2\n        /* \"#utility.yul\":1862:1865   */\n      dup6\n        /* \"#utility.yul\":1855:1859   */\n      0x20\n        /* \"#utility.yul\":1848:1853   */\n      dup7\n        /* \"#utility.yul\":1844:1860   */\n      add\n        /* \"#utility.yul\":1809:1874   */\n      tag_197\n      jump\t// in\n    tag_247:\n        /* \"#utility.yul\":1899:1928   */\n      tag_248\n        /* \"#utility.yul\":1921:1927   */\n      dup2\n        /* \"#utility.yul\":1899:1928   */\n      tag_198\n      jump\t// in\n    tag_248:\n        /* \"#utility.yul\":1894:1897   */\n      dup5\n        /* \"#utility.yul\":1890:1929   */\n      add\n        /* \"#utility.yul\":1883:1929   */\n      swap2\n      pop\n        /* \"#utility.yul\":1650:1935   */\n      pop\n        /* \"#utility.yul\":1558:1935   */\n      swap3\n      swap2\n      pop\n      pop\n      jump\t// out\n        /* \"#utility.yul\":1941:2254   */\n    tag_14:\n        /* \"#utility.yul\":2054:2058   */\n      0x00\n        /* \"#utility.yul\":2092:2094   */\n      0x20\n        /* \"#utility.yul\":2081:2090   */\n      dup3\n        /* \"#utility.yul\":2077:2095   */\n      add\n        /* \"#utility.yul\":2069:2095   */\n      swap1\n      pop\n        /* \"#utility.yul\":2141:2150   */\n      dup2\n        /* \"#utility.yul\":2135:2139   */\n      dup2\n        /* \"#utility.yul\":2131:2151   */\n      sub\n        /* \"#utility.yul\":2127:2128   */\n      0x00\n        /* \"#utility.yul\":2116:2125   */\n      dup4\n        /* \"#utility.yul\":2112:2129   */\n      add\n        /* \"#utility.yul\":2105:2152   */\n      mstore\n        /* \"#utility.yul\":2169:2247   */\n      tag_250\n        /* \"#utility.yul\":2242:2246   */\n      dup2\n        /* \"#utility.yul\":2233:2239   */\n      dup5\n        /* \"#utility.yul\":2169:2247   */\n      tag_199\n      jump\t// in\n    tag_250:\n        /* \"#utility.yul\":2161:2247   */\n      swap1\n      pop\n        /* \"#utility.yul\":1941:2254   */\n      swap3\n      swap2\n      pop\n      pop\n      jump\t// out\n        /* \"#utility.yul\":2260:2377   */\n    tag_200:\n        /* \"#utility.yul\":2369:2370   */\n      0x00\n        /* \"#utility.yul\":2366:2367   */\n      0x00\n        /* \"#utility.yul\":2359:2371   */\n      revert\n        /* \"#utility.yul\":2383:2500   */\n    tag_201:\n        /* \"#utility.yul\":2492:2493   */\n      0x00\n        /* \"#utility.yul\":2489:2490   */\n      0x00\n        /* \"#utility.yul\":2482:2494   */\n      revert\n        /* \"#utility.yul\":2506:2623   */\n    tag_202:\n        /* \"#utility.yul\":2615:2616   */\n      0x00\n        /* \"#utility.yul\":2612:2613   */\n      0x00\n        /* \"#utility.yul\":2605:2617   */\n      revert\n        /* \"#utility.yul\":2646:3214   */\n    tag_203:\n        /* \"#utility.yul\":2719:2727   */\n      0x00\n        /* \"#utility.yul\":2729:2735   */\n      0x00\n        /* \"#utility.yul\":2779:2782   */\n      dup4\n        /* \"#utility.yul\":2772:2776   */\n      0x1f\n        /* \"#utility.yul\":2764:2770   */\n      dup5\n        /* \"#utility.yul\":2760:2777   */\n      add\n        /* \"#utility.yul\":2756:2783   */\n      slt\n        /* \"#utility.yul\":2746:2868   */\n      tag_255\n      jumpi\n        /* \"#utility.yul\":2787:2866   */\n      tag_256\n      tag_200\n      jump\t// in\n    tag_256:\n        /* \"#utility.yul\":2746:2868   */\n    tag_255:\n        /* \"#utility.yul\":2900:2906   */\n      dup3\n        /* \"#utility.yul\":2887:2907   */\n      calldataload\n        /* \"#utility.yul\":2877:2907   */\n      swap1\n      pop\n        /* \"#utility.yul\":2930:2948   */\n      0xffffffffffffffff\n        /* \"#utility.yul\":2922:2928   */\n      dup2\n        /* \"#utility.yul\":2919:2949   */\n      gt\n        /* \"#utility.yul\":2916:3033   */\n      iszero\n      tag_257\n      jumpi\n        /* \"#utility.yul\":2952:3031   */\n      tag_258\n      tag_201\n      jump\t// in\n    tag_258:\n        /* \"#utility.yul\":2916:3033   */\n    tag_257:\n        /* \"#utility.yul\":3066:3070   */\n      0x20\n        /* \"#utility.yul\":3058:3064   */\n      dup4\n        /* \"#utility.yul\":3054:3071   */\n      add\n        /* \"#utility.yul\":3042:3071   */\n      swap2\n      pop\n        /* \"#utility.yul\":3120:3123   */\n      dup4\n        /* \"#utility.yul\":3112:3116   */\n      0x20\n        /* \"#utility.yul\":3104:3110   */\n      dup3\n        /* \"#utility.yul\":3100:3117   */\n      mul\n        /* \"#utility.yul\":3090:3098   */\n      dup4\n        /* \"#utility.yul\":3086:3118   */\n      add\n        /* \"#utility.yul\":3083:3124   */\n      gt\n        /* \"#utility.yul\":3080:3208   */\n      iszero\n      tag_259\n      jumpi\n        /* \"#utility.yul\":3127:3206   */\n      tag_260\n      tag_202\n      jump\t// in\n    tag_260:\n        /* \"#utility.yul\":3080:3208   */\n    tag_259:\n        /* \"#utility.yul\":2646:3214   */\n      swap3\n      pop\n      swap3\n      swap1\n      pop\n      jump\t// out\n        /* \"#utility.yul\":3220:3924   */\n    tag_17:\n        /* \"#utility.yul\":3315:3321   */\n      0x00\n        /* \"#utility.yul\":3323:3329   */\n      0x00\n        /* \"#utility.yul\":3331:3337   */\n      0x00\n        /* \"#utility.yul\":3380:3382   */\n      0x40\n        /* \"#utility.yul\":3368:3377   */\n      dup5\n        /* \"#utility.yul\":3359:3366   */\n      dup7\n        /* \"#utility.yul\":3355:3378   */\n      sub\n        /* \"#utility.yul\":3351:3383   */\n      slt\n        /* \"#utility.yul\":3348:3467   */\n      iszero\n      tag_262\n      jumpi\n        /* \"#utility.yul\":3386:3465   */\n      tag_263\n      tag_190\n      jump\t// in\n    tag_263:\n        /* \"#utility.yul\":3348:3467   */\n    tag_262:\n        /* \"#utility.yul\":3534:3535   */\n      0x00\n        /* \"#utility.yul\":3523:3532   */\n      dup5\n        /* \"#utility.yul\":3519:3536   */\n      add\n        /* \"#utility.yul\":3506:3537   */\n      calldataload\n        /* \"#utility.yul\":3564:3582   */\n      0xffffffffffffffff\n        /* \"#utility.yul\":3556:3562   */\n      dup2\n        /* \"#utility.yul\":3553:3583   */\n      gt\n        /* \"#utility.yul\":3550:3667   */\n      iszero\n      tag_264\n      jumpi\n        /* \"#utility.yul\":3586:3665   */\n      tag_265\n      tag_191\n      jump\t// in\n    tag_265:\n        /* \"#utility.yul\":3550:3667   */\n    tag_264:\n        /* \"#utility.yul\":3699:3779   */\n      tag_266\n        /* \"#utility.yul\":3771:3778   */\n      dup7\n        /* \"#utility.yul\":3762:3768   */\n      dup3\n        /* \"#utility.yul\":3751:3760   */\n      dup8\n        /* \"#utility.yul\":3747:3769   */\n      add\n        /* \"#utility.yul\":3699:3779   */\n      tag_203\n      jump\t// in\n    tag_266:\n        /* \"#utility.yul\":3681:3779   */\n      swap4\n      pop\n      swap4\n      pop\n        /* \"#utility.yul\":3477:3789   */\n      pop\n        /* \"#utility.yul\":3828:3830   */\n      0x20\n        /* \"#utility.yul\":3854:3907   */\n      tag_267\n        /* \"#utility.yul\":3899:3906   */\n      dup7\n        /* \"#utility.yul\":3890:3896   */\n      dup3\n        /* \"#utility.yul\":3879:3888   */\n      dup8\n        /* \"#utility.yul\":3875:3897   */\n      add\n        /* \"#utility.yul\":3854:3907   */\n      tag_194\n      jump\t// in\n    tag_267:\n        /* \"#utility.yul\":3844:3907   */\n      swap2\n      pop\n        /* \"#utility.yul\":3799:3917   */\n      pop\n        /* \"#utility.yul\":3220:3924   */\n      swap3\n      pop\n      swap3\n      pop\n      swap3\n      jump\t// out\n        /* \"#utility.yul\":3930:4006   */\n    tag_204:\n        /* \"#utility.yul\":3966:3973   */\n      0x00\n        /* \"#utility.yul\":3995:4000   */\n      dup2\n        /* \"#utility.yul\":3984:4000   */\n      swap1\n      pop\n        /* \"#utility.yul\":3930:4006   */\n      swap2\n      swap1\n      pop\n      jump\t// out\n        /* \"#utility.yul\":4012:4127   */\n    tag_205:\n        /* \"#utility.yul\":4097:4120   */\n      tag_270\n        /* \"#utility.yul\":4114:4119   */\n      dup2\n        /* \"#utility.yul\":4097:4120   */\n      tag_204\n      jump\t// in\n    tag_270:\n        /* \"#utility.yul\":4092:4095   */\n      dup3\n        /* \"#utility.yul\":4085:4121   */\n      mstore\n        /* \"#utility.yul\":4012:4127   */\n      pop\n      pop\n      jump\t// out\n        /* \"#utility.yul\":4133:4351   */\n    tag_20:\n        /* \"#utility.yul\":4224:4228   */\n      0x00\n        /* \"#utility.yul\":4262:4264   */\n      0x20\n        /* \"#utility.yul\":4251:4260   */\n      dup3\n        /* \"#utility.yul\":4247:4265   */\n      add\n        /* \"#utility.yul\":4239:4265   */\n      swap1\n      pop\n        /* \"#utility.yul\":4275:4344   */\n      tag_272\n        /* \"#utility.yul\":4341:4342   */\n      0x00\n        /* \"#utility.yul\":4330:4339   */\n      dup4\n        /* \"#utility.yul\":4326:4343   */\n      add\n        /* \"#utility.yul\":4317:4323   */\n      dup5\n        /* \"#utility.yul\":4275:4344   */\n      tag_205\n      jump\t// in\n    tag_272:\n        /* \"#utility.yul\":4133:4351   */\n      swap3\n      swap2\n      pop\n      pop\n      jump\t// out\n        /* \"#utility.yul\":4357:4475   */\n    tag_206:\n        /* \"#utility.yul\":4444:4468   */\n      tag_274\n        /* \"#utility.yul\":4462:4467   */\n      dup2\n        /* \"#utility.yul\":4444:4468   */\n      tag_192\n      jump\t// in\n    tag_274:\n        /* \"#utility.yul\":4439:4442   */\n      dup3\n        /* \"#utility.yul\":4432:4469   */\n      mstore\n        /* \"#utility.yul\":4357:4475   */\n      pop\n      pop\n      jump\t// out\n        /* \"#utility.yul\":4481:4703   */\n    tag_25:\n        /* \"#utility.yul\":4574:4578   */\n      0x00\n        /* \"#utility.yul\":4612:4614   */\n      0x20\n        /* \"#utility.yul\":4601:4610   */\n      dup3\n        /* \"#utility.yul\":4597:4615   */\n      add\n        /* \"#utility.yul\":4589:4615   */\n      swap1\n      pop\n        /* \"#utility.yul\":4625:4696   */\n      tag_276\n        /* \"#utility.yul\":4693:4694   */\n      0x00\n        /* \"#utility.yul\":4682:4691   */\n      dup4\n        /* \"#utility.yul\":4678:4695   */\n      add\n        /* \"#utility.yul\":4669:4675   */\n      dup5\n        /* \"#utility.yul\":4625:4696   */\n      tag_206\n      jump\t// in\n    tag_276:\n        /* \"#utility.yul\":4481:4703   */\n      swap3\n      swap2\n      pop\n      pop\n      jump\t// out\n        /* \"#utility.yul\":4709:4826   */\n    tag_207:\n        /* \"#utility.yul\":4818:4819   */\n      0x00\n        /* \"#utility.yul\":4815:4816   */\n      0x00\n        /* \"#utility.yul\":4808:4820   */\n      revert\n        /* \"#utility.yul\":4832:5012   */\n    tag_128:\n        /* \"#utility.yul\":4880:4957   */\n      0x4e487b7100000000000000000000000000000000000000000000000000000000\n        /* \"#utility.yul\":4877:4878   */\n      0x00\n        /* \"#utility.yul\":4870:4958   */\n      mstore\n        /* \"#utility.yul\":4977:4981   */\n      0x41\n        /* \"#utility.yul\":4974:4975   */\n      0x04\n        /* \"#utility.yul\":4967:4982   */\n      mstore\n        /* \"#utility.yul\":5001:5005   */\n      0x24\n        /* \"#utility.yul\":4998:4999   */\n      0x00\n        /* \"#utility.yul\":4991:5006   */\n      revert\n        /* \"#utility.yul\":5018:5299   */\n    tag_208:\n        /* \"#utility.yul\":5101:5128   */\n      tag_280\n        /* \"#utility.yul\":5123:5127   */\n      dup3\n        /* \"#utility.yul\":5101:5128   */\n      tag_198\n      jump\t// in\n    tag_280:\n        /* \"#utility.yul\":5093:5099   */\n      dup2\n        /* \"#utility.yul\":5089:5129   */\n      add\n        /* \"#utility.yul\":5231:5237   */\n      dup2\n        /* \"#utility.yul\":5219:5229   */\n      dup2\n        /* \"#utility.yul\":5216:5238   */\n      lt\n        /* \"#utility.yul\":5195:5213   */\n      0xffffffffffffffff\n        /* \"#utility.yul\":5183:5193   */\n      dup3\n        /* \"#utility.yul\":5180:5214   */\n      gt\n        /* \"#utility.yul\":5177:5239   */\n      or\n        /* \"#utility.yul\":5174:5262   */\n      iszero\n      tag_281\n      jumpi\n        /* \"#utility.yul\":5242:5260   */\n      tag_282\n      tag_128\n      jump\t// in\n    tag_282:\n        /* \"#utility.yul\":5174:5262   */\n    tag_281:\n        /* \"#utility.yul\":5282:5292   */\n      dup1\n        /* \"#utility.yul\":5278:5280   */\n      0x40\n        /* \"#utility.yul\":5271:5293   */\n      mstore\n        /* \"#utility.yul\":5061:5299   */\n      pop\n        /* \"#utility.yul\":5018:5299   */\n      pop\n      pop\n      jump\t// out\n        /* \"#utility.yul\":5305:5434   */\n    tag_209:\n        /* \"#utility.yul\":5339:5345   */\n      0x00\n        /* \"#utility.yul\":5366:5386   */\n      tag_284\n      tag_189\n      jump\t// in\n    tag_284:\n        /* \"#utility.yul\":5356:5386   */\n      swap1\n      pop\n        /* \"#utility.yul\":5395:5428   */\n      tag_285\n        /* \"#utility.yul\":5423:5427   */\n      dup3\n        /* \"#utility.yul\":5415:5421   */\n      dup3\n        /* \"#utility.yul\":5395:5428   */\n      tag_208\n      jump\t// in\n    tag_285:\n        /* \"#utility.yul\":5305:5434   */\n      swap2\n      swap1\n      pop\n      jump\t// out\n        /* \"#utility.yul\":5440:5748   */\n    tag_210:\n        /* \"#utility.yul\":5502:5506   */\n      0x00\n        /* \"#utility.yul\":5592:5610   */\n      0xffffffffffffffff\n        /* \"#utility.yul\":5584:5590   */\n      dup3\n        /* \"#utility.yul\":5581:5611   */\n      gt\n        /* \"#utility.yul\":5578:5634   */\n      iszero\n      tag_287\n      jumpi\n        /* \"#utility.yul\":5614:5632   */\n      tag_288\n      tag_128\n      jump\t// in\n    tag_288:\n        /* \"#utility.yul\":5578:5634   */\n    tag_287:\n        /* \"#utility.yul\":5652:5681   */\n      tag_289\n        /* \"#utility.yul\":5674:5680   */\n      dup3\n        /* \"#utility.yul\":5652:5681   */\n      tag_198\n      jump\t// in\n    tag_289:\n        /* \"#utility.yul\":5644:5681   */\n      swap1\n      pop\n        /* \"#utility.yul\":5736:5740   */\n      0x20\n        /* \"#utility.yul\":5730:5734   */\n      dup2\n        /* \"#utility.yul\":5726:5741   */\n      add\n        /* \"#utility.yul\":5718:5741   */\n      swap1\n      pop\n        /* \"#utility.yul\":5440:5748   */\n      swap2\n      swap1\n      pop\n      jump\t// out\n        /* \"#utility.yul\":5754:5902   */\n    tag_211:\n        /* \"#utility.yul\":5852:5858   */\n      dup3\n        /* \"#utility.yul\":5847:5850   */\n      dup2\n        /* \"#utility.yul\":5842:5845   */\n      dup4\n        /* \"#utility.yul\":5829:5859   */\n      calldatacopy\n        /* \"#utility.yul\":5893:5894   */\n      0x00\n        /* \"#utility.yul\":5884:5890   */\n      dup4\n        /* \"#utility.yul\":5879:5882   */\n      dup4\n        /* \"#utility.yul\":5875:5891   */\n      add\n        /* \"#utility.yul\":5868:5895   */\n      mstore\n        /* \"#utility.yul\":5754:5902   */\n      pop\n      pop\n      pop\n      jump\t// out\n        /* \"#utility.yul\":5908:6333   */\n    tag_212:\n        /* \"#utility.yul\":5986:5991   */\n      0x00\n        /* \"#utility.yul\":6011:6077   */\n      tag_292\n        /* \"#utility.yul\":6027:6076   */\n      tag_293\n        /* \"#utility.yul\":6069:6075   */\n      dup5\n        /* \"#utility.yul\":6027:6076   */\n      tag_210\n      jump\t// in\n    tag_293:\n        /* \"#utility.yul\":6011:6077   */\n      tag_209\n      jump\t// in\n    tag_292:\n        /* \"#utility.yul\":6002:6077   */\n      swap1\n      pop\n        /* \"#utility.yul\":6100:6106   */\n      dup3\n        /* \"#utility.yul\":6093:6098   */\n      dup2\n        /* \"#utility.yul\":6086:6107   */\n      mstore\n        /* \"#utility.yul\":6138:6142   */\n      0x20\n        /* \"#utility.yul\":6131:6136   */\n      dup2\n        /* \"#utility.yul\":6127:6143   */\n      add\n        /* \"#utility.yul\":6176:6179   */\n      dup5\n        /* \"#utility.yul\":6167:6173   */\n      dup5\n        /* \"#utility.yul\":6162:6165   */\n      dup5\n        /* \"#utility.yul\":6158:6174   */\n      add\n        /* \"#utility.yul\":6155:6180   */\n      gt\n        /* \"#utility.yul\":6152:6264   */\n      iszero\n      tag_294\n      jumpi\n        /* \"#utility.yul\":6183:6262   */\n      tag_295\n      tag_207\n      jump\t// in\n    tag_295:\n        /* \"#utility.yul\":6152:6264   */\n    tag_294:\n        /* \"#utility.yul\":6273:6327   */\n      tag_296\n        /* \"#utility.yul\":6320:6326   */\n      dup5\n        /* \"#utility.yul\":6315:6318   */\n      dup3\n        /* \"#utility.yul\":6310:6313   */\n      dup6\n        /* \"#utility.yul\":6273:6327   */\n      tag_211\n      jump\t// in\n    tag_296:\n        /* \"#utility.yul\":5992:6333   */\n      pop\n        /* \"#utility.yul\":5908:6333   */\n      swap4\n      swap3\n      pop\n      pop\n      pop\n      jump\t// out\n        /* \"#utility.yul\":6353:6693   */\n    tag_213:\n        /* \"#utility.yul\":6409:6414   */\n      0x00\n        /* \"#utility.yul\":6458:6461   */\n      dup3\n        /* \"#utility.yul\":6451:6455   */\n      0x1f\n        /* \"#utility.yul\":6443:6449   */\n      dup4\n        /* \"#utility.yul\":6439:6456   */\n      add\n        /* \"#utility.yul\":6435:6462   */\n      slt\n        /* \"#utility.yul\":6425:6547   */\n      tag_298\n      jumpi\n        /* \"#utility.yul\":6466:6545   */\n      tag_299\n      tag_200\n      jump\t// in\n    tag_299:\n        /* \"#utility.yul\":6425:6547   */\n    tag_298:\n        /* \"#utility.yul\":6583:6589   */\n      dup2\n        /* \"#utility.yul\":6570:6590   */\n      calldataload\n        /* \"#utility.yul\":6608:6687   */\n      tag_300\n        /* \"#utility.yul\":6683:6686   */\n      dup5\n        /* \"#utility.yul\":6675:6681   */\n      dup3\n        /* \"#utility.yul\":6668:6672   */\n      0x20\n        /* \"#utility.yul\":6660:6666   */\n      dup7\n        /* \"#utility.yul\":6656:6673   */\n      add\n        /* \"#utility.yul\":6608:6687   */\n      tag_212\n      jump\t// in\n    tag_300:\n        /* \"#utility.yul\":6599:6687   */\n      swap2\n      pop\n        /* \"#utility.yul\":6415:6693   */\n      pop\n        /* \"#utility.yul\":6353:6693   */\n      swap3\n      swap2\n      pop\n      pop\n      jump\t// out\n        /* \"#utility.yul\":6699:7208   */\n    tag_28:\n        /* \"#utility.yul\":6768:6774   */\n      0x00\n        /* \"#utility.yul\":6817:6819   */\n      0x20\n        /* \"#utility.yul\":6805:6814   */\n      dup3\n        /* \"#utility.yul\":6796:6803   */\n      dup5\n        /* \"#utility.yul\":6792:6815   */\n      sub\n        /* \"#utility.yul\":6788:6820   */\n      slt\n        /* \"#utility.yul\":6785:6904   */\n      iszero\n      tag_302\n      jumpi\n        /* \"#utility.yul\":6823:6902   */\n      tag_303\n      tag_190\n      jump\t// in\n    tag_303:\n        /* \"#utility.yul\":6785:6904   */\n    tag_302:\n        /* \"#utility.yul\":6971:6972   */\n      0x00\n        /* \"#utility.yul\":6960:6969   */\n      dup3\n        /* \"#utility.yul\":6956:6973   */\n      add\n        /* \"#utility.yul\":6943:6974   */\n      calldataload\n        /* \"#utility.yul\":7001:7019   */\n      0xffffffffffffffff\n        /* \"#utility.yul\":6993:6999   */\n      dup2\n        /* \"#utility.yul\":6990:7020   */\n      gt\n        /* \"#utility.yul\":6987:7104   */\n      iszero\n      tag_304\n      jumpi\n        /* \"#utility.yul\":7023:7102   */\n      tag_305\n      tag_191\n      jump\t// in\n    tag_305:\n        /* \"#utility.yul\":6987:7104   */\n    tag_304:\n        /* \"#utility.yul\":7128:7191   */\n      tag_306\n        /* \"#utility.yul\":7183:7190   */\n      dup5\n        /* \"#utility.yul\":7174:7180   */\n      dup3\n        /* \"#utility.yul\":7163:7172   */\n      dup6\n        /* \"#utility.yul\":7159:7181   */\n      add\n        /* \"#utility.yul\":7128:7191   */\n      tag_213\n      jump\t// in\n    tag_306:\n        /* \"#utility.yul\":7118:7191   */\n      swap2\n      pop\n        /* \"#utility.yul\":6914:7201   */\n      pop\n        /* \"#utility.yul\":6699:7208   */\n      swap3\n      swap2\n      pop\n      pop\n      jump\t// out\n        /* \"#utility.yul\":7214:8148   */\n    tag_33:\n        /* \"#utility.yul\":7336:7342   */\n      0x00\n        /* \"#utility.yul\":7344:7350   */\n      0x00\n        /* \"#utility.yul\":7352:7358   */\n      0x00\n        /* \"#utility.yul\":7360:7366   */\n      0x00\n        /* \"#utility.yul\":7409:7411   */\n      0x40\n        /* \"#utility.yul\":7397:7406   */\n      dup6\n        /* \"#utility.yul\":7388:7395   */\n      dup8\n        /* \"#utility.yul\":7384:7407   */\n      sub\n        /* \"#utility.yul\":7380:7412   */\n      slt\n        /* \"#utility.yul\":7377:7496   */\n      iszero\n      tag_308\n      jumpi\n        /* \"#utility.yul\":7415:7494   */\n      tag_309\n      tag_190\n      jump\t// in\n    tag_309:\n        /* \"#utility.yul\":7377:7496   */\n    tag_308:\n        /* \"#utility.yul\":7563:7564   */\n      0x00\n        /* \"#utility.yul\":7552:7561   */\n      dup6\n        /* \"#utility.yul\":7548:7565   */\n      add\n        /* \"#utility.yul\":7535:7566   */\n      calldataload\n        /* \"#utility.yul\":7593:7611   */\n      0xffffffffffffffff\n        /* \"#utility.yul\":7585:7591   */\n      dup2\n        /* \"#utility.yul\":7582:7612   */\n      gt\n        /* \"#utility.yul\":7579:7696   */\n      iszero\n      tag_310\n      jumpi\n        /* \"#utility.yul\":7615:7694   */\n      tag_311\n      tag_191\n      jump\t// in\n    tag_311:\n        /* \"#utility.yul\":7579:7696   */\n    tag_310:\n        /* \"#utility.yul\":7728:7808   */\n      tag_312\n        /* \"#utility.yul\":7800:7807   */\n      dup8\n        /* \"#utility.yul\":7791:7797   */\n      dup3\n        /* \"#utility.yul\":7780:7789   */\n      dup9\n        /* \"#utility.yul\":7776:7798   */\n      add\n        /* \"#utility.yul\":7728:7808   */\n      tag_203\n      jump\t// in\n    tag_312:\n        /* \"#utility.yul\":7710:7808   */\n      swap5\n      pop\n      swap5\n      pop\n        /* \"#utility.yul\":7506:7818   */\n      pop\n        /* \"#utility.yul\":7885:7887   */\n      0x20\n        /* \"#utility.yul\":7874:7883   */\n      dup6\n        /* \"#utility.yul\":7870:7888   */\n      add\n        /* \"#utility.yul\":7857:7889   */\n      calldataload\n        /* \"#utility.yul\":7916:7934   */\n      0xffffffffffffffff\n        /* \"#utility.yul\":7908:7914   */\n      dup2\n        /* \"#utility.yul\":7905:7935   */\n      gt\n        /* \"#utility.yul\":7902:8019   */\n      iszero\n      tag_313\n      jumpi\n        /* \"#utility.yul\":7938:8017   */\n      tag_314\n      tag_191\n      jump\t// in\n    tag_314:\n        /* \"#utility.yul\":7902:8019   */\n    tag_313:\n        /* \"#utility.yul\":8051:8131   */\n      tag_315\n        /* \"#utility.yul\":8123:8130   */\n      dup8\n        /* \"#utility.yul\":8114:8120   */\n      dup3\n        /* \"#utility.yul\":8103:8112   */\n      dup9\n        /* \"#utility.yul\":8099:8121   */\n      add\n        /* \"#utility.yul\":8051:8131   */\n      tag_203\n      jump\t// in\n    tag_315:\n        /* \"#utility.yul\":8033:8131   */\n      swap3\n      pop\n      swap3\n      pop\n        /* \"#utility.yul\":7828:8141   */\n      pop\n        /* \"#utility.yul\":7214:8148   */\n      swap3\n      swap6\n      swap2\n      swap5\n      pop\n      swap3\n      pop\n      jump\t// out\n        /* \"#utility.yul\":8154:8268   */\n    tag_214:\n        /* \"#utility.yul\":8221:8227   */\n      0x00\n        /* \"#utility.yul\":8255:8260   */\n      dup2\n        /* \"#utility.yul\":8249:8261   */\n      mload\n        /* \"#utility.yul\":8239:8261   */\n      swap1\n      pop\n        /* \"#utility.yul\":8154:8268   */\n      swap2\n      swap1\n      pop\n      jump\t// out\n        /* \"#utility.yul\":8274:8458   */\n    tag_215:\n        /* \"#utility.yul\":8373:8384   */\n      0x00\n        /* \"#utility.yul\":8407:8413   */\n      dup3\n        /* \"#utility.yul\":8402:8405   */\n      dup3\n        /* \"#utility.yul\":8395:8414   */\n      mstore\n        /* \"#utility.yul\":8447:8451   */\n      0x20\n        /* \"#utility.yul\":8442:8445   */\n      dup3\n        /* \"#utility.yul\":8438:8452   */\n      add\n        /* \"#utility.yul\":8423:8452   */\n      swap1\n      pop\n        /* \"#utility.yul\":8274:8458   */\n      swap3\n      swap2\n      pop\n      pop\n      jump\t// out\n        /* \"#utility.yul\":8464:8596   */\n    tag_216:\n        /* \"#utility.yul\":8531:8535   */\n      0x00\n        /* \"#utility.yul\":8554:8557   */\n      dup2\n        /* \"#utility.yul\":8546:8557   */\n      swap1\n      pop\n        /* \"#utility.yul\":8584:8588   */\n      0x20\n        /* \"#utility.yul\":8579:8582   */\n      dup3\n        /* \"#utility.yul\":8575:8589   */\n      add\n        /* \"#utility.yul\":8567:8589   */\n      swap1\n      pop\n        /* \"#utility.yul\":8464:8596   */\n      swap2\n      swap1\n      pop\n      jump\t// out\n        /* \"#utility.yul\":8602:8710   */\n    tag_217:\n        /* \"#utility.yul\":8679:8703   */\n      tag_320\n        /* \"#utility.yul\":8697:8702   */\n      dup2\n        /* \"#utility.yul\":8679:8703   */\n      tag_192\n      jump\t// in\n    tag_320:\n        /* \"#utility.yul\":8674:8677   */\n      dup3\n        /* \"#utility.yul\":8667:8704   */\n      mstore\n        /* \"#utility.yul\":8602:8710   */\n      pop\n      pop\n      jump\t// out\n        /* \"#utility.yul\":8716:8895   */\n    tag_218:\n        /* \"#utility.yul\":8785:8795   */\n      0x00\n        /* \"#utility.yul\":8806:8852   */\n      tag_322\n        /* \"#utility.yul\":8848:8851   */\n      dup4\n        /* \"#utility.yul\":8840:8846   */\n      dup4\n        /* \"#utility.yul\":8806:8852   */\n      tag_217\n      jump\t// in\n    tag_322:\n        /* \"#utility.yul\":8884:8888   */\n      0x20\n        /* \"#utility.yul\":8879:8882   */\n      dup4\n        /* \"#utility.yul\":8875:8889   */\n      add\n        /* \"#utility.yul\":8861:8889   */\n      swap1\n      pop\n        /* \"#utility.yul\":8716:8895   */\n      swap3\n      swap2\n      pop\n      pop\n      jump\t// out\n        /* \"#utility.yul\":8901:9014   */\n    tag_219:\n        /* \"#utility.yul\":8971:8975   */\n      0x00\n        /* \"#utility.yul\":9003:9007   */\n      0x20\n        /* \"#utility.yul\":8998:9001   */\n      dup3\n        /* \"#utility.yul\":8994:9008   */\n      add\n        /* \"#utility.yul\":8986:9008   */\n      swap1\n      pop\n        /* \"#utility.yul\":8901:9014   */\n      swap2\n      swap1\n      pop\n      jump\t// out\n        /* \"#utility.yul\":9050:9782   */\n    tag_220:\n        /* \"#utility.yul\":9169:9172   */\n      0x00\n        /* \"#utility.yul\":9198:9252   */\n      tag_325\n        /* \"#utility.yul\":9246:9251   */\n      dup3\n        /* \"#utility.yul\":9198:9252   */\n      tag_214\n      jump\t// in\n    tag_325:\n        /* \"#utility.yul\":9268:9354   */\n      tag_326\n        /* \"#utility.yul\":9347:9353   */\n      dup2\n        /* \"#utility.yul\":9342:9345   */\n      dup6\n        /* \"#utility.yul\":9268:9354   */\n      tag_215\n      jump\t// in\n    tag_326:\n        /* \"#utility.yul\":9261:9354   */\n      swap4\n      pop\n        /* \"#utility.yul\":9378:9434   */\n      tag_327\n        /* \"#utility.yul\":9428:9433   */\n      dup4\n        /* \"#utility.yul\":9378:9434   */\n      tag_216\n      jump\t// in\n    tag_327:\n        /* \"#utility.yul\":9457:9464   */\n      dup1\n        /* \"#utility.yul\":9488:9489   */\n      0x00\n        /* \"#utility.yul\":9473:9757   */\n    tag_328:\n        /* \"#utility.yul\":9498:9504   */\n      dup4\n        /* \"#utility.yul\":9495:9496   */\n      dup2\n        /* \"#utility.yul\":9492:9505   */\n      lt\n        /* \"#utility.yul\":9473:9757   */\n      iszero\n      tag_330\n      jumpi\n        /* \"#utility.yul\":9574:9580   */\n      dup2\n        /* \"#utility.yul\":9568:9581   */\n      mload\n        /* \"#utility.yul\":9601:9664   */\n      tag_331\n        /* \"#utility.yul\":9660:9663   */\n      dup9\n        /* \"#utility.yul\":9645:9658   */\n      dup3\n        /* \"#utility.yul\":9601:9664   */\n      tag_218\n      jump\t// in\n    tag_331:\n        /* \"#utility.yul\":9594:9664   */\n      swap8\n      pop\n        /* \"#utility.yul\":9687:9747   */\n      tag_332\n        /* \"#utility.yul\":9740:9746   */\n      dup4\n        /* \"#utility.yul\":9687:9747   */\n      tag_219\n      jump\t// in\n    tag_332:\n        /* \"#utility.yul\":9677:9747   */\n      swap3\n      pop\n        /* \"#utility.yul\":9533:9757   */\n      pop\n        /* \"#utility.yul\":9520:9521   */\n      0x01\n        /* \"#utility.yul\":9517:9518   */\n      dup2\n        /* \"#utility.yul\":9513:9522   */\n      add\n        /* \"#utility.yul\":9508:9522   */\n      swap1\n      pop\n        /* \"#utility.yul\":9473:9757   */\n      jump(tag_328)\n    tag_330:\n        /* \"#utility.yul\":9477:9491   */\n      pop\n        /* \"#utility.yul\":9773:9776   */\n      dup6\n        /* \"#utility.yul\":9766:9776   */\n      swap4\n      pop\n        /* \"#utility.yul\":9174:9782   */\n      pop\n      pop\n      pop\n        /* \"#utility.yul\":9050:9782   */\n      swap3\n      swap2\n      pop\n      pop\n      jump\t// out\n        /* \"#utility.yul\":9788:10161   */\n    tag_36:\n        /* \"#utility.yul\":9931:9935   */\n      0x00\n        /* \"#utility.yul\":9969:9971   */\n      0x20\n        /* \"#utility.yul\":9958:9967   */\n      dup3\n        /* \"#utility.yul\":9954:9972   */\n      add\n        /* \"#utility.yul\":9946:9972   */\n      swap1\n      pop\n        /* \"#utility.yul\":10018:10027   */\n      dup2\n        /* \"#utility.yul\":10012:10016   */\n      dup2\n        /* \"#utility.yul\":10008:10028   */\n      sub\n        /* \"#utility.yul\":10004:10005   */\n      0x00\n        /* \"#utility.yul\":9993:10002   */\n      dup4\n        /* \"#utility.yul\":9989:10006   */\n      add\n        /* \"#utility.yul\":9982:10029   */\n      mstore\n        /* \"#utility.yul\":10046:10154   */\n      tag_334\n        /* \"#utility.yul\":10149:10153   */\n      dup2\n        /* \"#utility.yul\":10140:10146   */\n      dup5\n        /* \"#utility.yul\":10046:10154   */\n      tag_220\n      jump\t// in\n    tag_334:\n        /* \"#utility.yul\":10038:10154   */\n      swap1\n      pop\n        /* \"#utility.yul\":9788:10161   */\n      swap3\n      swap2\n      pop\n      pop\n      jump\t// out\n        /* \"#utility.yul\":10181:10734   */\n    tag_221:\n        /* \"#utility.yul\":10239:10247   */\n      0x00\n        /* \"#utility.yul\":10249:10255   */\n      0x00\n        /* \"#utility.yul\":10299:10302   */\n      dup4\n        /* \"#utility.yul\":10292:10296   */\n      0x1f\n        /* \"#utility.yul\":10284:10290   */\n      dup5\n        /* \"#utility.yul\":10280:10297   */\n      add\n        /* \"#utility.yul\":10276:10303   */\n      slt\n        /* \"#utility.yul\":10266:10388   */\n      tag_336\n      jumpi\n        /* \"#utility.yul\":10307:10386   */\n      tag_337\n      tag_200\n      jump\t// in\n    tag_337:\n        /* \"#utility.yul\":10266:10388   */\n    tag_336:\n        /* \"#utility.yul\":10420:10426   */\n      dup3\n        /* \"#utility.yul\":10407:10427   */\n      calldataload\n        /* \"#utility.yul\":10397:10427   */\n      swap1\n      pop\n        /* \"#utility.yul\":10450:10468   */\n      0xffffffffffffffff\n        /* \"#utility.yul\":10442:10448   */\n      dup2\n        /* \"#utility.yul\":10439:10469   */\n      gt\n        /* \"#utility.yul\":10436:10553   */\n      iszero\n      tag_338\n      jumpi\n        /* \"#utility.yul\":10472:10551   */\n      tag_339\n      tag_201\n      jump\t// in\n    tag_339:\n        /* \"#utility.yul\":10436:10553   */\n    tag_338:\n        /* \"#utility.yul\":10586:10590   */\n      0x20\n        /* \"#utility.yul\":10578:10584   */\n      dup4\n        /* \"#utility.yul\":10574:10591   */\n      add\n        /* \"#utility.yul\":10562:10591   */\n      swap2\n      pop\n        /* \"#utility.yul\":10640:10643   */\n      dup4\n        /* \"#utility.yul\":10632:10636   */\n      0x01\n        /* \"#utility.yul\":10624:10630   */\n      dup3\n        /* \"#utility.yul\":10620:10637   */\n      mul\n        /* \"#utility.yul\":10610:10618   */\n      dup4\n        /* \"#utility.yul\":10606:10638   */\n      add\n        /* \"#utility.yul\":10603:10644   */\n      gt\n        /* \"#utility.yul\":10600:10728   */\n      iszero\n      tag_340\n      jumpi\n        /* \"#utility.yul\":10647:10726   */\n      tag_341\n      tag_202\n      jump\t// in\n    tag_341:\n        /* \"#utility.yul\":10600:10728   */\n    tag_340:\n        /* \"#utility.yul\":10181:10734   */\n      swap3\n      pop\n      swap3\n      swap1\n      pop\n      jump\t// out\n        /* \"#utility.yul\":10740:11269   */\n    tag_39:\n        /* \"#utility.yul\":10811:10817   */\n      0x00\n        /* \"#utility.yul\":10819:10825   */\n      0x00\n        /* \"#utility.yul\":10868:10870   */\n      0x20\n        /* \"#utility.yul\":10856:10865   */\n      dup4\n        /* \"#utility.yul\":10847:10854   */\n      dup6\n        /* \"#utility.yul\":10843:10866   */\n      sub\n        /* \"#utility.yul\":10839:10871   */\n      slt\n        /* \"#utility.yul\":10836:10955   */\n      iszero\n      tag_343\n      jumpi\n        /* \"#utility.yul\":10874:10953   */\n      tag_344\n      tag_190\n      jump\t// in\n    tag_344:\n        /* \"#utility.yul\":10836:10955   */\n    tag_343:\n        /* \"#utility.yul\":11022:11023   */\n      0x00\n        /* \"#utility.yul\":11011:11020   */\n      dup4\n        /* \"#utility.yul\":11007:11024   */\n      add\n        /* \"#utility.yul\":10994:11025   */\n      calldataload\n        /* \"#utility.yul\":11052:11070   */\n      0xffffffffffffffff\n        /* \"#utility.yul\":11044:11050   */\n      dup2\n        /* \"#utility.yul\":11041:11071   */\n      gt\n        /* \"#utility.yul\":11038:11155   */\n      iszero\n      tag_345\n      jumpi\n        /* \"#utility.yul\":11074:11153   */\n      tag_346\n      tag_191\n      jump\t// in\n    tag_346:\n        /* \"#utility.yul\":11038:11155   */\n    tag_345:\n        /* \"#utility.yul\":11187:11252   */\n      tag_347\n        /* \"#utility.yul\":11244:11251   */\n      dup6\n        /* \"#utility.yul\":11235:11241   */\n      dup3\n        /* \"#utility.yul\":11224:11233   */\n      dup7\n        /* \"#utility.yul\":11220:11242   */\n      add\n        /* \"#utility.yul\":11187:11252   */\n      tag_221\n      jump\t// in\n    tag_347:\n        /* \"#utility.yul\":11169:11252   */\n      swap3\n      pop\n      swap3\n      pop\n        /* \"#utility.yul\":10965:11262   */\n      pop\n        /* \"#utility.yul\":10740:11269   */\n      swap3\n      pop\n      swap3\n      swap1\n      pop\n      jump\t// out\n        /* \"#utility.yul\":11275:11455   */\n    tag_47:\n        /* \"#utility.yul\":11323:11400   */\n      0x4e487b7100000000000000000000000000000000000000000000000000000000\n        /* \"#utility.yul\":11320:11321   */\n      0x00\n        /* \"#utility.yul\":11313:11401   */\n      mstore\n        /* \"#utility.yul\":11420:11424   */\n      0x32\n        /* \"#utility.yul\":11417:11418   */\n      0x04\n        /* \"#utility.yul\":11410:11425   */\n      mstore\n        /* \"#utility.yul\":11444:11448   */\n      0x24\n        /* \"#utility.yul\":11441:11442   */\n      0x00\n        /* \"#utility.yul\":11434:11449   */\n      revert\n        /* \"#utility.yul\":11461:11641   */\n    tag_222:\n        /* \"#utility.yul\":11509:11586   */\n      0x4e487b7100000000000000000000000000000000000000000000000000000000\n        /* \"#utility.yul\":11506:11507   */\n      0x00\n        /* \"#utility.yul\":11499:11587   */\n      mstore\n        /* \"#utility.yul\":11606:11610   */\n      0x11\n        /* \"#utility.yul\":11603:11604   */\n      0x04\n        /* \"#utility.yul\":11596:11611   */\n      mstore\n        /* \"#utility.yul\":11630:11634   */\n      0x24\n        /* \"#utility.yul\":11627:11628   */\n      0x00\n        /* \"#utility.yul\":11620:11635   */\n      revert\n        /* \"#utility.yul\":11647:11841   */\n    tag_50:\n        /* \"#utility.yul\":11687:11691   */\n      0x00\n        /* \"#utility.yul\":11707:11727   */\n      tag_351\n        /* \"#utility.yul\":11725:11726   */\n      dup3\n        /* \"#utility.yul\":11707:11727   */\n      tag_192\n      jump\t// in\n    tag_351:\n        /* \"#utility.yul\":11702:11727   */\n      swap2\n      pop\n        /* \"#utility.yul\":11741:11761   */\n      tag_352\n        /* \"#utility.yul\":11759:11760   */\n      dup4\n        /* \"#utility.yul\":11741:11761   */\n      tag_192\n      jump\t// in\n    tag_352:\n        /* \"#utility.yul\":11736:11761   */\n      swap3\n      pop\n        /* \"#utility.yul\":11785:11786   */\n      dup3\n        /* \"#utility.yul\":11782:11783   */\n      dup3\n        /* \"#utility.yul\":11778:11787   */\n      sub\n        /* \"#utility.yul\":11770:11787   */\n      swap1\n      pop\n        /* \"#utility.yul\":11809:11810   */\n      dup2\n        /* \"#utility.yul\":11803:11807   */\n      dup2\n        /* \"#utility.yul\":11800:11811   */\n      gt\n        /* \"#utility.yul\":11797:11834   */\n      iszero\n      tag_353\n      jumpi\n        /* \"#utility.yul\":11814:11832   */\n      tag_354\n      tag_222\n      jump\t// in\n    tag_354:\n        /* \"#utility.yul\":11797:11834   */\n    tag_353:\n        /* \"#utility.yul\":11647:11841   */\n      swap3\n      swap2\n      pop\n      pop\n      jump\t// out\n        /* \"#utility.yul\":11847:11995   */\n    tag_223:\n        /* \"#utility.yul\":11949:11960   */\n      0x00\n        /* \"#utility.yul\":11986:11989   */\n      dup2\n        /* \"#utility.yul\":11971:11989   */\n      swap1\n      pop\n        /* \"#utility.yul\":11847:11995   */\n      swap3\n      swap2\n      pop\n      pop\n      jump\t// out\n        /* \"#utility.yul\":12001:12391   */\n    tag_224:\n        /* \"#utility.yul\":12107:12110   */\n      0x00\n        /* \"#utility.yul\":12135:12174   */\n      tag_357\n        /* \"#utility.yul\":12168:12173   */\n      dup3\n        /* \"#utility.yul\":12135:12174   */\n      tag_195\n      jump\t// in\n    tag_357:\n        /* \"#utility.yul\":12190:12279   */\n      tag_358\n        /* \"#utility.yul\":12272:12278   */\n      dup2\n        /* \"#utility.yul\":12267:12270   */\n      dup6\n        /* \"#utility.yul\":12190:12279   */\n      tag_223\n      jump\t// in\n    tag_358:\n        /* \"#utility.yul\":12183:12279   */\n      swap4\n      pop\n        /* \"#utility.yul\":12288:12353   */\n      tag_359\n        /* \"#utility.yul\":12346:12352   */\n      dup2\n        /* \"#utility.yul\":12341:12344   */\n      dup6\n        /* \"#utility.yul\":12334:12338   */\n      0x20\n        /* \"#utility.yul\":12327:12332   */\n      dup7\n        /* \"#utility.yul\":12323:12339   */\n      add\n        /* \"#utility.yul\":12288:12353   */\n      tag_197\n      jump\t// in\n    tag_359:\n        /* \"#utility.yul\":12378:12384   */\n      dup1\n        /* \"#utility.yul\":12373:12376   */\n      dup5\n        /* \"#utility.yul\":12369:12385   */\n      add\n        /* \"#utility.yul\":12362:12385   */\n      swap2\n      pop\n        /* \"#utility.yul\":12111:12391   */\n      pop\n        /* \"#utility.yul\":12001:12391   */\n      swap3\n      swap2\n      pop\n      pop\n      jump\t// out\n        /* \"#utility.yul\":12397:12832   */\n    tag_54:\n        /* \"#utility.yul\":12577:12580   */\n      0x00\n        /* \"#utility.yul\":12599:12694   */\n      tag_361\n        /* \"#utility.yul\":12690:12693   */\n      dup3\n        /* \"#utility.yul\":12681:12687   */\n      dup6\n        /* \"#utility.yul\":12599:12694   */\n      tag_224\n      jump\t// in\n    tag_361:\n        /* \"#utility.yul\":12592:12694   */\n      swap2\n      pop\n        /* \"#utility.yul\":12711:12806   */\n      tag_362\n        /* \"#utility.yul\":12802:12805   */\n      dup3\n        /* \"#utility.yul\":12793:12799   */\n      dup5\n        /* \"#utility.yul\":12711:12806   */\n      tag_224\n      jump\t// in\n    tag_362:\n        /* \"#utility.yul\":12704:12806   */\n      swap2\n      pop\n        /* \"#utility.yul\":12823:12826   */\n      dup2\n        /* \"#utility.yul\":12816:12826   */\n      swap1\n      pop\n        /* \"#utility.yul\":12397:12832   */\n      swap4\n      swap3\n      pop\n      pop\n      pop\n      jump\t// out\n        /* \"#utility.yul\":12838:13071   */\n    tag_57:\n        /* \"#utility.yul\":12877:12880   */\n      0x00\n        /* \"#utility.yul\":12900:12924   */\n      tag_364\n        /* \"#utility.yul\":12918:12923   */\n      dup3\n        /* \"#utility.yul\":12900:12924   */\n      tag_192\n      jump\t// in\n    tag_364:\n        /* \"#utility.yul\":12891:12924   */\n      swap2\n      pop\n        /* \"#utility.yul\":12946:13012   */\n      0xffffffffffffffffffffffffffffffffffffffffffffffffffffffffffffffff\n        /* \"#utility.yul\":12939:12944   */\n      dup3\n        /* \"#utility.yul\":12936:13013   */\n      sub\n        /* \"#utility.yul\":12933:13036   */\n      tag_365\n      jumpi\n        /* \"#utility.yul\":13016:13034   */\n      tag_366\n      tag_222\n      jump\t// in\n    tag_366:\n        /* \"#utility.yul\":12933:13036   */\n    tag_365:\n        /* \"#utility.yul\":13063:13064   */\n      0x01\n        /* \"#utility.yul\":13056:13061   */\n      dup3\n        /* \"#utility.yul\":13052:13065   */\n      add\n        /* \"#utility.yul\":13045:13065   */\n      swap1\n      pop\n        /* \"#utility.yul\":12838:13071   */\n      swap2\n      swap1\n      pop\n      jump\t// out\n        /* \"#utility.yul\":13077:13268   */\n    tag_63:\n        /* \"#utility.yul\":13117:13120   */\n      0x00\n        /* \"#utility.yul\":13136:13156   */\n      tag_368\n        /* \"#utility.yul\":13154:13155   */\n      dup3\n        /* \"#utility.yul\":13136:13156   */\n      tag_192\n      jump\t// in\n    tag_368:\n        /* \"#utility.yul\":13131:13156   */\n      swap2\n      pop\n        /* \"#utility.yul\":13170:13190   */\n      tag_369\n        /* \"#utility.yul\":13188:13189   */\n      dup4\n        /* \"#utility.yul\":13170:13190   */\n      tag_192\n      jump\t// in\n    tag_369:\n        /* \"#utility.yul\":13165:13190   */\n      swap3\n      pop\n        /* \"#utility.yul\":13213:13214   */\n      dup3\n        /* \"#utility.yul\":13210:13211   */\n      dup3\n        /* \"#utility.yul\":13206:13215   */\n      add\n        /* \"#utility.yul\":13199:13215   */\n      swap1\n      pop\n        /* \"#utility.yul\":13234:13237   */\n      dup1\n        /* \"#utility.yul\":13231:13232   */\n      dup3\n        /* \"#utility.yul\":13228:13238   */\n      gt\n        /* \"#utility.yul\":13225:13261   */\n      iszero\n      tag_370\n      jumpi\n        /* \"#utility.yul\":13241:13259   */\n      tag_371\n      tag_222\n      jump\t// in\n    tag_371:\n        /* \"#utility.yul\":13225:13261   */\n    tag_370:\n        /* \"#utility.yul\":13077:13268   */\n      swap3\n      swap2\n      pop\n      pop\n      jump\t// out\n        /* \"#utility.yul\":13274:13454   */\n    tag_225:\n        /* \"#utility.yul\":13322:13399   */\n      0x4e487b7100000000000000000000000000000000000000000000000000000000\n        /* \"#utility.yul\":13319:13320   */\n      0x00\n        /* \"#utility.yul\":13312:13400   */\n      mstore\n        /* \"#utility.yul\":13419:13423   */\n      0x12\n        /* \"#utility.yul\":13416:13417   */\n      0x04\n        /* \"#utility.yul\":13409:13424   */\n      mstore\n        /* \"#utility.yul\":13443:13447   */\n      0x24\n        /* \"#utility.yul\":13440:13441   */\n      0x00\n        /* \"#utility.yul\":13433:13448   */\n      revert\n        /* \"#utility.yul\":13460:13645   */\n    tag_65:\n        /* \"#utility.yul\":13500:13501   */\n      0x00\n        /* \"#utility.yul\":13517:13537   */\n      tag_374\n        /* \"#utility.yul\":13535:13536   */\n      dup3\n        /* \"#utility.yul\":13517:13537   */\n      tag_192\n      jump\t// in\n    tag_374:\n        /* \"#utility.yul\":13512:13537   */\n      swap2\n      pop\n        /* \"#utility.yul\":13551:13571   */\n      tag_375\n        /* \"#utility.yul\":13569:13570   */\n      dup4\n        /* \"#utility.yul\":13551:13571   */\n      tag_192\n      jump\t// in\n    tag_375:\n        /* \"#utility.yul\":13546:13571   */\n      swap3\n      pop\n        /* \"#utility.yul\":13590:13591   */\n      dup3\n        /* \"#utility.yul\":13580:13615   */\n      tag_376\n      jumpi\n        /* \"#utility.yul\":13595:13613   */\n      tag_377\n      tag_225\n      jump\t// in\n    tag_377:\n        /* \"#utility.yul\":13580:13615   */\n    tag_376:\n        /* \"#utility.yul\":13637:13638   */\n      dup3\n        /* \"#utility.yul\":13634:13635   */\n      dup3\n        /* \"#utility.yul\":13630:13639   */\n      div\n        /* \"#utility.yul\":13625:13639   */\n      swap1\n      pop\n        /* \"#utility.yul\":13460:13645   */\n      swap3\n      swap2\n      pop\n      pop\n      jump\t// out\n\n    auxdata: 0xa264697066735822122052587c4b338a34b23612b514abe5a0a385ce6b416d39b9147d2cb542fab8ec0364736f6c634300081e0033\n}\n",
				"bytecode": {
					"linkReferences": {},
					"object": "6080604052348015600e575f5ffd5b506115f88061001c5f395ff3fe608060405234801561000f575f5ffd5b5060043610610060575f3560e01c80630cbc513a14610064578063aaee9e9514610094578063b12601da146100c4578063cb159dfe146100f4578063de94870914610124578063f3582c6914610154575b5f5ffd5b61007e60048036038101906100799190610ecb565b610184565b60405161008b9190610f66565b60405180910390f35b6100ae60048036038101906100a99190610fe7565b61059d565b6040516100bb919061105c565b60405180910390f35b6100de60048036038101906100d99190610fe7565b61066a565b6040516100eb9190611084565b60405180910390f35b61010e600480360381019061010991906111c5565b610785565b60405161011b9190611084565b60405180910390f35b61013e6004803603810190610139919061120c565b6108a5565b60405161014b9190611341565b60405180910390f35b61016e600480360381019061016991906113b6565b610ae2565b60405161017b9190610f66565b60405180910390f35b60605f604051806101a001604052806103e8815260200161038481526020016101f48152602001610190815260200160648152602001605a81526020016032815260200160288152602001600a8152602001600981526020016005815260200160048152602001600181525090505f604051806101a001604052806040518060400160405280600181526020017f4d0000000000000000000000000000000000000000000000000000000000000081525081526020016040518060400160405280600281526020017f434d00000000000000000000000000000000000000000000000000000000000081525081526020016040518060400160405280600181526020017f440000000000000000000000000000000000000000000000000000000000000081525081526020016040518060400160405280600281526020017f434400000000000000000000000000000000000000000000000000000000000081525081526020016040518060400160405280600181526020017f430000000000000000000000000000000000000000000000000000000000000081525081526020016040518060400160405280600281526020017f584300000000000000000000000000000000000000000000000000000000000081525081526020016040518060400160405280600181526020017f4c0000000000000000000000000000000000000000000000000000000000000081525081526020016040518060400160405280600281526020017f584c00000000000000000000000000000000000000000000000000000000000081525081526020016040518060400160405280600181526020017f580000000000000000000000000000000000000000000000000000000000000081525081526020016040518060400160405280600281526020017f495800000000000000000000000000000000000000000000000000000000000081525081526020016040518060400160405280600181526020017f560000000000000000000000000000000000000000000000000000000000000081525081526020016040518060400160405280600281526020017f495600000000000000000000000000000000000000000000000000000000000081525081526020016040518060400160405280600181526020017f4900000000000000000000000000000000000000000000000000000000000000815250815250905060605f5f90505b5f8614610591575f8482600d81106105205761051f611401565b5b6020020151905080871061057c57808761053a919061145b565b9650828483600d81106105505761054f611401565b5b60200201516040516020016105669291906114c8565b604051602081830303815290604052925061058b565b8180610587906114eb565b9250505b50610505565b81945050505050919050565b5f5f8484905090505f5f90505f6001836105b7919061145b565b90505f5f90505b81831161065b57600282846105d39190611532565b6105dd9190611592565b90508787828181106105f2576105f1611401565b5b905060200201358611156106145760018161060d9190611532565b9250610656565b87878281811061062757610626611401565b5b9050602002013586101561064957600181610642919061145b565b9150610655565b80945050505050610663565b5b6105be565b809450505050505b9392505050565b5f5f8484905090505f5f90505f600183610684919061145b565b90505f61270f90505b8160018461069b9190611532565b101561071f57600282846106af9190611532565b6106b99190611592565b90508787828181106106ce576106cd611401565b5b905060200201358611156106e45780925061071a565b8787828181106106f7576106f6611401565b5b9050602002013586101561070d57809150610719565b8094505050505061077e565b5b61068d565b8588888581811061073357610732611401565b5b905060200201350361074757829050610776565b8588888481811061075b5761075a611401565b5b905060200201350361076f57819050610775565b61270f90505b5b809450505050505b9392505050565b5f5f8290505f5f90505f825190505f5f90505b81811015610899575f6107c78583815181106107b7576107b6611401565b5b602001015160f81c60f81b610c3d565b90506001836107d6919061145b565b82036107f05780846107e89190611532565b935050610899565b5f610823866001856108029190611532565b8151811061081357610812611401565b5b602001015160f81c60f81b610c3d565b9050808210156108755781851015610861578181610841919061145b565b8561084c9190611532565b94508280610859906114eb565b935050610870565b818561086d919061145b565b94505b610884565b81856108819190611532565b94505b50508080610891906114eb565b915050610798565b50819350505050919050565b60605f8585905090505f8484905090505f81836108c29190611532565b67ffffffffffffffff8111156108db576108da6110a1565b5b6040519080825280602002602001820160405280156109095781602001602082028036833780820191505090505b5090505f5f90505f5f90505f5f90505b858310801561092757508482105b15610a135788888381811061093f5761093e611401565b5b905060200201358b8b8581811061095957610958611401565b5b9050602002013510156109bc578a8a8480610973906114eb565b955081811061098557610984611401565b5b90506020020135848280610998906114eb565b9350815181106109ab576109aa611401565b5b602002602001018181525050610a0e565b888883806109c9906114eb565b94508181106109db576109da611401565b5b905060200201358482806109ee906114eb565b935081518110610a0157610a00611401565b5b6020026020010181815250505b610919565b5b85831015610a72578a8a8480610a29906114eb565b9550818110610a3b57610a3a611401565b5b90506020020135848280610a4e906114eb565b935081518110610a6157610a60611401565b5b602002602001018181525050610a14565b5b84821015610ad15788888380610a88906114eb565b9450818110610a9a57610a99611401565b5b90506020020135848280610aad906114eb565b935081518110610ac057610abf611401565b5b602002602001018181525050610a73565b839650505050505050949350505050565b60605f83838080601f0160208091040260200160405190810160405280939291908181526020018383808284375f81840152601f19601f8201169050808301925050505050505090505f815190505f8103610b4f5760405180602001604052805f81525092505050610c37565b5f8167ffffffffffffffff811115610b6a57610b696110a1565b5b6040519080825280601f01601f191660200182016040528015610b9c5781602001600182028036833780820191505090505b5090505f5f90505b82811015610c2f578381600185610bbb919061145b565b610bc5919061145b565b81518110610bd657610bd5611401565b5b602001015160f81c60f81b828281518110610bf457610bf3611401565b5b60200101907effffffffffffffffffffffffffffffffffffffffffffffffffffffffffffff191690815f1a9053508080600101915050610ba4565b508093505050505b92915050565b5f7f4900000000000000000000000000000000000000000000000000000000000000827effffffffffffffffffffffffffffffffffffffffffffffffffffffffffffff191603610c905760019050610e82565b7f5600000000000000000000000000000000000000000000000000000000000000827effffffffffffffffffffffffffffffffffffffffffffffffffffffffffffff191603610ce25760059050610e82565b7f5800000000000000000000000000000000000000000000000000000000000000827effffffffffffffffffffffffffffffffffffffffffffffffffffffffffffff191603610d3457600a9050610e82565b7f4c00000000000000000000000000000000000000000000000000000000000000827effffffffffffffffffffffffffffffffffffffffffffffffffffffffffffff191603610d865760329050610e82565b7f4300000000000000000000000000000000000000000000000000000000000000827effffffffffffffffffffffffffffffffffffffffffffffffffffffffffffff191603610dd85760649050610e82565b7f4400000000000000000000000000000000000000000000000000000000000000827effffffffffffffffffffffffffffffffffffffffffffffffffffffffffffff191603610e2b576101f49050610e82565b7f4d00000000000000000000000000000000000000000000000000000000000000827effffffffffffffffffffffffffffffffffffffffffffffffffffffffffffff191603610e7e576103e89050610e82565b5f90505b919050565b5f604051905090565b5f5ffd5b5f5ffd5b5f819050919050565b610eaa81610e98565b8114610eb4575f5ffd5b50565b5f81359050610ec581610ea1565b92915050565b5f60208284031215610ee057610edf610e90565b5b5f610eed84828501610eb7565b91505092915050565b5f81519050919050565b5f82825260208201905092915050565b8281835e5f83830152505050565b5f601f19601f8301169050919050565b5f610f3882610ef6565b610f428185610f00565b9350610f52818560208601610f10565b610f5b81610f1e565b840191505092915050565b5f6020820190508181035f830152610f7e8184610f2e565b905092915050565b5f5ffd5b5f5ffd5b5f5ffd5b5f5f83601f840112610fa757610fa6610f86565b5b8235905067ffffffffffffffff811115610fc457610fc3610f8a565b5b602083019150836020820283011115610fe057610fdf610f8e565b5b9250929050565b5f5f5f60408486031215610ffe57610ffd610e90565b5b5f84013567ffffffffffffffff81111561101b5761101a610e94565b5b61102786828701610f92565b9350935050602061103a86828701610eb7565b9150509250925092565b5f819050919050565b61105681611044565b82525050565b5f60208201905061106f5f83018461104d565b92915050565b61107e81610e98565b82525050565b5f6020820190506110975f830184611075565b92915050565b5f5ffd5b7f4e487b71000000000000000000000000000000000000000000000000000000005f52604160045260245ffd5b6110d782610f1e565b810181811067ffffffffffffffff821117156110f6576110f56110a1565b5b80604052505050565b5f611108610e87565b905061111482826110ce565b919050565b5f67ffffffffffffffff821115611133576111326110a1565b5b61113c82610f1e565b9050602081019050919050565b828183375f83830152505050565b5f61116961116484611119565b6110ff565b9050828152602081018484840111156111855761118461109d565b5b611190848285611149565b509392505050565b5f82601f8301126111ac576111ab610f86565b5b81356111bc848260208601611157565b91505092915050565b5f602082840312156111da576111d9610e90565b5b5f82013567ffffffffffffffff8111156111f7576111f6610e94565b5b61120384828501611198565b91505092915050565b5f5f5f5f6040858703121561122457611223610e90565b5b5f85013567ffffffffffffffff81111561124157611240610e94565b5b61124d87828801610f92565b9450945050602085013567ffffffffffffffff8111156112705761126f610e94565b5b61127c87828801610f92565b925092505092959194509250565b5f81519050919050565b5f82825260208201905092915050565b5f819050602082019050919050565b6112bc81610e98565b82525050565b5f6112cd83836112b3565b60208301905092915050565b5f602082019050919050565b5f6112ef8261128a565b6112f98185611294565b9350611304836112a4565b805f5b8381101561133457815161131b88826112c2565b9750611326836112d9565b925050600181019050611307565b5085935050505092915050565b5f6020820190508181035f83015261135981846112e5565b905092915050565b5f5f83601f84011261137657611375610f86565b5b8235905067ffffffffffffffff81111561139357611392610f8a565b5b6020830191508360018202830111156113af576113ae610f8e565b5b9250929050565b5f5f602083850312156113cc576113cb610e90565b5b5f83013567ffffffffffffffff8111156113e9576113e8610e94565b5b6113f585828601611361565b92509250509250929050565b7f4e487b71000000000000000000000000000000000000000000000000000000005f52603260045260245ffd5b7f4e487b71000000000000000000000000000000000000000000000000000000005f52601160045260245ffd5b5f61146582610e98565b915061147083610e98565b92508282039050818111156114885761148761142e565b5b92915050565b5f81905092915050565b5f6114a282610ef6565b6114ac818561148e565b93506114bc818560208601610f10565b80840191505092915050565b5f6114d38285611498565b91506114df8284611498565b91508190509392505050565b5f6114f582610e98565b91507fffffffffffffffffffffffffffffffffffffffffffffffffffffffffffffffff82036115275761152661142e565b5b600182019050919050565b5f61153c82610e98565b915061154783610e98565b925082820190508082111561155f5761155e61142e565b5b92915050565b7f4e487b71000000000000000000000000000000000000000000000000000000005f52601260045260245ffd5b5f61159c82610e98565b91506115a783610e98565b9250826115b7576115b6611565565b5b82820490509291505056fea264697066735822122052587c4b338a34b23612b514abe5a0a385ce6b416d39b9147d2cb542fab8ec0364736f6c634300081e0033",
					"opcodes": "PUSH1 0x80 PUSH1 0x40 MSTORE CALLVALUE DUP1 ISZERO PUSH1 0xE JUMPI PUSH0 PUSH0 REVERT JUMPDEST POP PUSH2 0x15F8 DUP1 PUSH2 0x1C PUSH0 CODECOPY PUSH0 RETURN INVALID PUSH1 0x80 PUSH1 0x40 MSTORE CALLVALUE DUP1 ISZERO PUSH2 0xF JUMPI PUSH0 PUSH0 REVERT JUMPDEST POP PUSH1 0x4 CALLDATASIZE LT PUSH2 0x60 JUMPI PUSH0 CALLDATALOAD PUSH1 0xE0 SHR DUP1 PUSH4 0xCBC513A EQ PUSH2 0x64 JUMPI DUP1 PUSH4 0xAAEE9E95 EQ PUSH2 0x94 JUMPI DUP1 PUSH4 0xB12601DA EQ PUSH2 0xC4 JUMPI DUP1 PUSH4 0xCB159DFE EQ PUSH2 0xF4 JUMPI DUP1 PUSH4 0xDE948709 EQ PUSH2 0x124 JUMPI DUP1 PUSH4 0xF3582C69 EQ PUSH2 0x154 JUMPI JUMPDEST PUSH0 PUSH0 REVERT JUMPDEST PUSH2 0x7E PUSH1 0x4 DUP1 CALLDATASIZE SUB DUP2 ADD SWAP1 PUSH2 0x79 SWAP2 SWAP1 PUSH2 0xECB JUMP JUMPDEST PUSH2 0x184 JUMP JUMPDEST PUSH1 0x40 MLOAD PUSH2 0x8B SWAP2 SWAP1 PUSH2 0xF66 JUMP JUMPDEST PUSH1 0x40 MLOAD DUP1 SWAP2 SUB SWAP1 RETURN JUMPDEST PUSH2 0xAE PUSH1 0x4 DUP1 CALLDATASIZE SUB DUP2 ADD SWAP1 PUSH2 0xA9 SWAP2 SWAP1 PUSH2 0xFE7 JUMP JUMPDEST PUSH2 0x59D JUMP JUMPDEST PUSH1 0x40 MLOAD PUSH2 0xBB SWAP2 SWAP1 PUSH2 0x105C JUMP JUMPDEST PUSH1 0x40 MLOAD DUP1 SWAP2 SUB SWAP1 RETURN JUMPDEST PUSH2 0xDE PUSH1 0x4 DUP1 CALLDATASIZE SUB DUP2 ADD SWAP1 PUSH2 0xD9 SWAP2 SWAP1 PUSH2 0xFE7 JUMP JUMPDEST PUSH2 0x66A JUMP JUMPDEST PUSH1 0x40 MLOAD PUSH2 0xEB SWAP2 SWAP1 PUSH2 0x1084 JUMP JUMPDEST PUSH1 0x40 MLOAD DUP1 SWAP2 SUB SWAP1 RETURN JUMPDEST PUSH2 0x10E PUSH1 0x4 DUP1 CALLDATASIZE SUB DUP2 ADD SWAP1 PUSH2 0x109 SWAP2 SWAP1 PUSH2 0x11C5 JUMP JUMPDEST PUSH2 0x785 JUMP JUMPDEST PUSH1 0x40 MLOAD PUSH2 0x11B SWAP2 SWAP1 PUSH2 0x1084 JUMP JUMPDEST PUSH1 0x40 MLOAD DUP1 SWAP2 SUB SWAP1 RETURN JUMPDEST PUSH2 0x13E PUSH1 0x4 DUP1 CALLDATASIZE SUB DUP2 ADD SWAP1 PUSH2 0x139 SWAP2 SWAP1 PUSH2 0x120C JUMP JUMPDEST PUSH2 0x8A5 JUMP JUMPDEST PUSH1 0x40 MLOAD PUSH2 0x14B SWAP2 SWAP1 PUSH2 0x1341 JUMP JUMPDEST PUSH1 0x40 MLOAD DUP1 SWAP2 SUB SWAP1 RETURN JUMPDEST PUSH2 0x16E PUSH1 0x4 DUP1 CALLDATASIZE SUB DUP2 ADD SWAP1 PUSH2 0x169 SWAP2 SWAP1 PUSH2 0x13B6 JUMP JUMPDEST PUSH2 0xAE2 JUMP JUMPDEST PUSH1 0x40 MLOAD PUSH2 0x17B SWAP2 SWAP1 PUSH2 0xF66 JUMP JUMPDEST PUSH1 0x40 MLOAD DUP1 SWAP2 SUB SWAP1 RETURN JUMPDEST PUSH1 0x60 PUSH0 PUSH1 0x40 MLOAD DUP1 PUSH2 0x1A0 ADD PUSH1 0x40 MSTORE DUP1 PUSH2 0x3E8 DUP2 MSTORE PUSH1 0x20 ADD PUSH2 0x384 DUP2 MSTORE PUSH1 0x20 ADD PUSH2 0x1F4 DUP2 MSTORE PUSH1 0x20 ADD PUSH2 0x190 DUP2 MSTORE PUSH1 0x20 ADD PUSH1 0x64 DUP2 MSTORE PUSH1 0x20 ADD PUSH1 0x5A DUP2 MSTORE PUSH1 0x20 ADD PUSH1 0x32 DUP2 MSTORE PUSH1 0x20 ADD PUSH1 0x28 DUP2 MSTORE PUSH1 0x20 ADD PUSH1 0xA DUP2 MSTORE PUSH1 0x20 ADD PUSH1 0x9 DUP2 MSTORE PUSH1 0x20 ADD PUSH1 0x5 DUP2 MSTORE PUSH1 0x20 ADD PUSH1 0x4 DUP2 MSTORE PUSH1 0x20 ADD PUSH1 0x1 DUP2 MSTORE POP SWAP1 POP PUSH0 PUSH1 0x40 MLOAD DUP1 PUSH2 0x1A0 ADD PUSH1 0x40 MSTORE DUP1 PUSH1 0x40 MLOAD DUP1 PUSH1 0x40 ADD PUSH1 0x40 MSTORE DUP1 PUSH1 0x1 DUP2 MSTORE PUSH1 0x20 ADD PUSH32 0x4D00000000000000000000000000000000000000000000000000000000000000 DUP2 MSTORE POP DUP2 MSTORE PUSH1 0x20 ADD PUSH1 0x40 MLOAD DUP1 PUSH1 0x40 ADD PUSH1 0x40 MSTORE DUP1 PUSH1 0x2 DUP2 MSTORE PUSH1 0x20 ADD PUSH32 0x434D000000000000000000000000000000000000000000000000000000000000 DUP2 MSTORE POP DUP2 MSTORE PUSH1 0x20 ADD PUSH1 0x40 MLOAD DUP1 PUSH1 0x40 ADD PUSH1 0x40 MSTORE DUP1 PUSH1 0x1 DUP2 MSTORE PUSH1 0x20 ADD PUSH32 0x4400000000000000000000000000000000000000000000000000000000000000 DUP2 MSTORE POP DUP2 MSTORE PUSH1 0x20 ADD PUSH1 0x40 MLOAD DUP1 PUSH1 0x40 ADD PUSH1 0x40 MSTORE DUP1 PUSH1 0x2 DUP2 MSTORE PUSH1 0x20 ADD PUSH32 0x4344000000000000000000000000000000000000000000000000000000000000 DUP2 MSTORE POP DUP2 MSTORE PUSH1 0x20 ADD PUSH1 0x40 MLOAD DUP1 PUSH1 0x40 ADD PUSH1 0x40 MSTORE DUP1 PUSH1 0x1 DUP2 MSTORE PUSH1 0x20 ADD PUSH32 0x4300000000000000000000000000000000000000000000000000000000000000 DUP2 MSTORE POP DUP2 MSTORE PUSH1 0x20 ADD PUSH1 0x40 MLOAD DUP1 PUSH1 0x40 ADD PUSH1 0x40 MSTORE DUP1 PUSH1 0x2 DUP2 MSTORE PUSH1 0x20 ADD PUSH32 0x5843000000000000000000000000000000000000000000000000000000000000 DUP2 MSTORE POP DUP2 MSTORE PUSH1 0x20 ADD PUSH1 0x40 MLOAD DUP1 PUSH1 0x40 ADD PUSH1 0x40 MSTORE DUP1 PUSH1 0x1 DUP2 MSTORE PUSH1 0x20 ADD PUSH32 0x4C00000000000000000000000000000000000000000000000000000000000000 DUP2 MSTORE POP DUP2 MSTORE PUSH1 0x20 ADD PUSH1 0x40 MLOAD DUP1 PUSH1 0x40 ADD PUSH1 0x40 MSTORE DUP1 PUSH1 0x2 DUP2 MSTORE PUSH1 0x20 ADD PUSH32 0x584C000000000000000000000000000000000000000000000000000000000000 DUP2 MSTORE POP DUP2 MSTORE PUSH1 0x20 ADD PUSH1 0x40 MLOAD DUP1 PUSH1 0x40 ADD PUSH1 0x40 MSTORE DUP1 PUSH1 0x1 DUP2 MSTORE PUSH1 0x20 ADD PUSH32 0x5800000000000000000000000000000000000000000000000000000000000000 DUP2 MSTORE POP DUP2 MSTORE PUSH1 0x20 ADD PUSH1 0x40 MLOAD DUP1 PUSH1 0x40 ADD PUSH1 0x40 MSTORE DUP1 PUSH1 0x2 DUP2 MSTORE PUSH1 0x20 ADD PUSH32 0x4958000000000000000000000000000000000000000000000000000000000000 DUP2 MSTORE POP DUP2 MSTORE PUSH1 0x20 ADD PUSH1 0x40 MLOAD DUP1 PUSH1 0x40 ADD PUSH1 0x40 MSTORE DUP1 PUSH1 0x1 DUP2 MSTORE PUSH1 0x20 ADD PUSH32 0x5600000000000000000000000000000000000000000000000000000000000000 DUP2 MSTORE POP DUP2 MSTORE PUSH1 0x20 ADD PUSH1 0x40 MLOAD DUP1 PUSH1 0x40 ADD PUSH1 0x40 MSTORE DUP1 PUSH1 0x2 DUP2 MSTORE PUSH1 0x20 ADD PUSH32 0x4956000000000000000000000000000000000000000000000000000000000000 DUP2 MSTORE POP DUP2 MSTORE PUSH1 0x20 ADD PUSH1 0x40 MLOAD DUP1 PUSH1 0x40 ADD PUSH1 0x40 MSTORE DUP1 PUSH1 0x1 DUP2 MSTORE PUSH1 0x20 ADD PUSH32 0x4900000000000000000000000000000000000000000000000000000000000000 DUP2 MSTORE POP DUP2 MSTORE POP SWAP1 POP PUSH1 0x60 PUSH0 PUSH0 SWAP1 POP JUMPDEST PUSH0 DUP7 EQ PUSH2 0x591 JUMPI PUSH0 DUP5 DUP3 PUSH1 0xD DUP2 LT PUSH2 0x520 JUMPI PUSH2 0x51F PUSH2 0x1401 JUMP JUMPDEST JUMPDEST PUSH1 0x20 MUL ADD MLOAD SWAP1 POP DUP1 DUP8 LT PUSH2 0x57C JUMPI DUP1 DUP8 PUSH2 0x53A SWAP2 SWAP1 PUSH2 0x145B JUMP JUMPDEST SWAP7 POP DUP3 DUP5 DUP4 PUSH1 0xD DUP2 LT PUSH2 0x550 JUMPI PUSH2 0x54F PUSH2 0x1401 JUMP JUMPDEST JUMPDEST PUSH1 0x20 MUL ADD MLOAD PUSH1 0x40 MLOAD PUSH1 0x20 ADD PUSH2 0x566 SWAP3 SWAP2 SWAP1 PUSH2 0x14C8 JUMP JUMPDEST PUSH1 0x40 MLOAD PUSH1 0x20 DUP2 DUP4 SUB SUB DUP2 MSTORE SWAP1 PUSH1 0x40 MSTORE SWAP3 POP PUSH2 0x58B JUMP JUMPDEST DUP2 DUP1 PUSH2 0x587 SWAP1 PUSH2 0x14EB JUMP JUMPDEST SWAP3 POP POP JUMPDEST POP PUSH2 0x505 JUMP JUMPDEST DUP2 SWAP5 POP POP POP POP POP SWAP2 SWAP1 POP JUMP JUMPDEST PUSH0 PUSH0 DUP5 DUP5 SWAP1 POP SWAP1 POP PUSH0 PUSH0 SWAP1 POP PUSH0 PUSH1 0x1 DUP4 PUSH2 0x5B7 SWAP2 SWAP1 PUSH2 0x145B JUMP JUMPDEST SWAP1 POP PUSH0 PUSH0 SWAP1 POP JUMPDEST DUP2 DUP4 GT PUSH2 0x65B JUMPI PUSH1 0x2 DUP3 DUP5 PUSH2 0x5D3 SWAP2 SWAP1 PUSH2 0x1532 JUMP JUMPDEST PUSH2 0x5DD SWAP2 SWAP1 PUSH2 0x1592 JUMP JUMPDEST SWAP1 POP DUP8 DUP8 DUP3 DUP2 DUP2 LT PUSH2 0x5F2 JUMPI PUSH2 0x5F1 PUSH2 0x1401 JUMP JUMPDEST JUMPDEST SWAP1 POP PUSH1 0x20 MUL ADD CALLDATALOAD DUP7 GT ISZERO PUSH2 0x614 JUMPI PUSH1 0x1 DUP2 PUSH2 0x60D SWAP2 SWAP1 PUSH2 0x1532 JUMP JUMPDEST SWAP3 POP PUSH2 0x656 JUMP JUMPDEST DUP8 DUP8 DUP3 DUP2 DUP2 LT PUSH2 0x627 JUMPI PUSH2 0x626 PUSH2 0x1401 JUMP JUMPDEST JUMPDEST SWAP1 POP PUSH1 0x20 MUL ADD CALLDATALOAD DUP7 LT ISZERO PUSH2 0x649 JUMPI PUSH1 0x1 DUP2 PUSH2 0x642 SWAP2 SWAP1 PUSH2 0x145B JUMP JUMPDEST SWAP2 POP PUSH2 0x655 JUMP JUMPDEST DUP1 SWAP5 POP POP POP POP POP PUSH2 0x663 JUMP JUMPDEST JUMPDEST PUSH2 0x5BE JUMP JUMPDEST DUP1 SWAP5 POP POP POP POP POP JUMPDEST SWAP4 SWAP3 POP POP POP JUMP JUMPDEST PUSH0 PUSH0 DUP5 DUP5 SWAP1 POP SWAP1 POP PUSH0 PUSH0 SWAP1 POP PUSH0 PUSH1 0x1 DUP4 PUSH2 0x684 SWAP2 SWAP1 PUSH2 0x145B JUMP JUMPDEST SWAP1 POP PUSH0 PUSH2 0x270F SWAP1 POP JUMPDEST DUP2 PUSH1 0x1 DUP5 PUSH2 0x69B SWAP2 SWAP1 PUSH2 0x1532 JUMP JUMPDEST LT ISZERO PUSH2 0x71F JUMPI PUSH1 0x2 DUP3 DUP5 PUSH2 0x6AF SWAP2 SWAP1 PUSH2 0x1532 JUMP JUMPDEST PUSH2 0x6B9 SWAP2 SWAP1 PUSH2 0x1592 JUMP JUMPDEST SWAP1 POP DUP8 DUP8 DUP3 DUP2 DUP2 LT PUSH2 0x6CE JUMPI PUSH2 0x6CD PUSH2 0x1401 JUMP JUMPDEST JUMPDEST SWAP1 POP PUSH1 0x20 MUL ADD CALLDATALOAD DUP7 GT ISZERO PUSH2 0x6E4 JUMPI DUP1 SWAP3 POP PUSH2 0x71A JUMP JUMPDEST DUP8 DUP8 DUP3 DUP2 DUP2 LT PUSH2 0x6F7 JUMPI PUSH2 0x6F6 PUSH2 0x1401 JUMP JUMPDEST JUMPDEST SWAP1 POP PUSH1 0x20 MUL ADD CALLDATALOAD DUP7 LT ISZERO PUSH2 0x70D JUMPI DUP1 SWAP2 POP PUSH2 0x719 JUMP JUMPDEST DUP1 SWAP5 POP POP POP POP POP PUSH2 0x77E JUMP JUMPDEST JUMPDEST PUSH2 0x68D JUMP JUMPDEST DUP6 DUP9 DUP9 DUP6 DUP2 DUP2 LT PUSH2 0x733 JUMPI PUSH2 0x732 PUSH2 0x1401 JUMP JUMPDEST JUMPDEST SWAP1 POP PUSH1 0x20 MUL ADD CALLDATALOAD SUB PUSH2 0x747 JUMPI DUP3 SWAP1 POP PUSH2 0x776 JUMP JUMPDEST DUP6 DUP9 DUP9 DUP5 DUP2 DUP2 LT PUSH2 0x75B JUMPI PUSH2 0x75A PUSH2 0x1401 JUMP JUMPDEST JUMPDEST SWAP1 POP PUSH1 0x20 MUL ADD CALLDATALOAD SUB PUSH2 0x76F JUMPI DUP2 SWAP1 POP PUSH2 0x775 JUMP JUMPDEST PUSH2 0x270F SWAP1 POP JUMPDEST JUMPDEST DUP1 SWAP5 POP POP POP POP POP JUMPDEST SWAP4 SWAP3 POP POP POP JUMP JUMPDEST PUSH0 PUSH0 DUP3 SWAP1 POP PUSH0 PUSH0 SWAP1 POP PUSH0 DUP3 MLOAD SWAP1 POP PUSH0 PUSH0 SWAP1 POP JUMPDEST DUP2 DUP2 LT ISZERO PUSH2 0x899 JUMPI PUSH0 PUSH2 0x7C7 DUP6 DUP4 DUP2 MLOAD DUP2 LT PUSH2 0x7B7 JUMPI PUSH2 0x7B6 PUSH2 0x1401 JUMP JUMPDEST JUMPDEST PUSH1 0x20 ADD ADD MLOAD PUSH1 0xF8 SHR PUSH1 0xF8 SHL PUSH2 0xC3D JUMP JUMPDEST SWAP1 POP PUSH1 0x1 DUP4 PUSH2 0x7D6 SWAP2 SWAP1 PUSH2 0x145B JUMP JUMPDEST DUP3 SUB PUSH2 0x7F0 JUMPI DUP1 DUP5 PUSH2 0x7E8 SWAP2 SWAP1 PUSH2 0x1532 JUMP JUMPDEST SWAP4 POP POP PUSH2 0x899 JUMP JUMPDEST PUSH0 PUSH2 0x823 DUP7 PUSH1 0x1 DUP6 PUSH2 0x802 SWAP2 SWAP1 PUSH2 0x1532 JUMP JUMPDEST DUP2 MLOAD DUP2 LT PUSH2 0x813 JUMPI PUSH2 0x812 PUSH2 0x1401 JUMP JUMPDEST JUMPDEST PUSH1 0x20 ADD ADD MLOAD PUSH1 0xF8 SHR PUSH1 0xF8 SHL PUSH2 0xC3D JUMP JUMPDEST SWAP1 POP DUP1 DUP3 LT ISZERO PUSH2 0x875 JUMPI DUP2 DUP6 LT ISZERO PUSH2 0x861 JUMPI DUP2 DUP2 PUSH2 0x841 SWAP2 SWAP1 PUSH2 0x145B JUMP JUMPDEST DUP6 PUSH2 0x84C SWAP2 SWAP1 PUSH2 0x1532 JUMP JUMPDEST SWAP5 POP DUP3 DUP1 PUSH2 0x859 SWAP1 PUSH2 0x14EB JUMP JUMPDEST SWAP4 POP POP PUSH2 0x870 JUMP JUMPDEST DUP2 DUP6 PUSH2 0x86D SWAP2 SWAP1 PUSH2 0x145B JUMP JUMPDEST SWAP5 POP JUMPDEST PUSH2 0x884 JUMP JUMPDEST DUP2 DUP6 PUSH2 0x881 SWAP2 SWAP1 PUSH2 0x1532 JUMP JUMPDEST SWAP5 POP JUMPDEST POP POP DUP1 DUP1 PUSH2 0x891 SWAP1 PUSH2 0x14EB JUMP JUMPDEST SWAP2 POP POP PUSH2 0x798 JUMP JUMPDEST POP DUP2 SWAP4 POP POP POP POP SWAP2 SWAP1 POP JUMP JUMPDEST PUSH1 0x60 PUSH0 DUP6 DUP6 SWAP1 POP SWAP1 POP PUSH0 DUP5 DUP5 SWAP1 POP SWAP1 POP PUSH0 DUP2 DUP4 PUSH2 0x8C2 SWAP2 SWAP1 PUSH2 0x1532 JUMP JUMPDEST PUSH8 0xFFFFFFFFFFFFFFFF DUP2 GT ISZERO PUSH2 0x8DB JUMPI PUSH2 0x8DA PUSH2 0x10A1 JUMP JUMPDEST JUMPDEST PUSH1 0x40 MLOAD SWAP1 DUP1 DUP3 MSTORE DUP1 PUSH1 0x20 MUL PUSH1 0x20 ADD DUP3 ADD PUSH1 0x40 MSTORE DUP1 ISZERO PUSH2 0x909 JUMPI DUP2 PUSH1 0x20 ADD PUSH1 0x20 DUP3 MUL DUP1 CALLDATASIZE DUP4 CALLDATACOPY DUP1 DUP3 ADD SWAP2 POP POP SWAP1 POP JUMPDEST POP SWAP1 POP PUSH0 PUSH0 SWAP1 POP PUSH0 PUSH0 SWAP1 POP PUSH0 PUSH0 SWAP1 POP JUMPDEST DUP6 DUP4 LT DUP1 ISZERO PUSH2 0x927 JUMPI POP DUP5 DUP3 LT JUMPDEST ISZERO PUSH2 0xA13 JUMPI DUP9 DUP9 DUP4 DUP2 DUP2 LT PUSH2 0x93F JUMPI PUSH2 0x93E PUSH2 0x1401 JUMP JUMPDEST JUMPDEST SWAP1 POP PUSH1 0x20 MUL ADD CALLDATALOAD DUP12 DUP12 DUP6 DUP2 DUP2 LT PUSH2 0x959 JUMPI PUSH2 0x958 PUSH2 0x1401 JUMP JUMPDEST JUMPDEST SWAP1 POP PUSH1 0x20 MUL ADD CALLDATALOAD LT ISZERO PUSH2 0x9BC JUMPI DUP11 DUP11 DUP5 DUP1 PUSH2 0x973 SWAP1 PUSH2 0x14EB JUMP JUMPDEST SWAP6 POP DUP2 DUP2 LT PUSH2 0x985 JUMPI PUSH2 0x984 PUSH2 0x1401 JUMP JUMPDEST JUMPDEST SWAP1 POP PUSH1 0x20 MUL ADD CALLDATALOAD DUP5 DUP3 DUP1 PUSH2 0x998 SWAP1 PUSH2 0x14EB JUMP JUMPDEST SWAP4 POP DUP2 MLOAD DUP2 LT PUSH2 0x9AB JUMPI PUSH2 0x9AA PUSH2 0x1401 JUMP JUMPDEST JUMPDEST PUSH1 0x20 MUL PUSH1 0x20 ADD ADD DUP2 DUP2 MSTORE POP POP PUSH2 0xA0E JUMP JUMPDEST DUP9 DUP9 DUP4 DUP1 PUSH2 0x9C9 SWAP1 PUSH2 0x14EB JUMP JUMPDEST SWAP5 POP DUP2 DUP2 LT PUSH2 0x9DB JUMPI PUSH2 0x9DA PUSH2 0x1401 JUMP JUMPDEST JUMPDEST SWAP1 POP PUSH1 0x20 MUL ADD CALLDATALOAD DUP5 DUP3 DUP1 PUSH2 0x9EE SWAP1 PUSH2 0x14EB JUMP JUMPDEST SWAP4 POP DUP2 MLOAD DUP2 LT PUSH2 0xA01 JUMPI PUSH2 0xA00 PUSH2 0x1401 JUMP JUMPDEST JUMPDEST PUSH1 0x20 MUL PUSH1 0x20 ADD ADD DUP2 DUP2 MSTORE POP POP JUMPDEST PUSH2 0x919 JUMP JUMPDEST JUMPDEST DUP6 DUP4 LT ISZERO PUSH2 0xA72 JUMPI DUP11 DUP11 DUP5 DUP1 PUSH2 0xA29 SWAP1 PUSH2 0x14EB JUMP JUMPDEST SWAP6 POP DUP2 DUP2 LT PUSH2 0xA3B JUMPI PUSH2 0xA3A PUSH2 0x1401 JUMP JUMPDEST JUMPDEST SWAP1 POP PUSH1 0x20 MUL ADD CALLDATALOAD DUP5 DUP3 DUP1 PUSH2 0xA4E SWAP1 PUSH2 0x14EB JUMP JUMPDEST SWAP4 POP DUP2 MLOAD DUP2 LT PUSH2 0xA61 JUMPI PUSH2 0xA60 PUSH2 0x1401 JUMP JUMPDEST JUMPDEST PUSH1 0x20 MUL PUSH1 0x20 ADD ADD DUP2 DUP2 MSTORE POP POP PUSH2 0xA14 JUMP JUMPDEST JUMPDEST DUP5 DUP3 LT ISZERO PUSH2 0xAD1 JUMPI DUP9 DUP9 DUP4 DUP1 PUSH2 0xA88 SWAP1 PUSH2 0x14EB JUMP JUMPDEST SWAP5 POP DUP2 DUP2 LT PUSH2 0xA9A JUMPI PUSH2 0xA99 PUSH2 0x1401 JUMP JUMPDEST JUMPDEST SWAP1 POP PUSH1 0x20 MUL ADD CALLDATALOAD DUP5 DUP3 DUP1 PUSH2 0xAAD SWAP1 PUSH2 0x14EB JUMP JUMPDEST SWAP4 POP DUP2 MLOAD DUP2 LT PUSH2 0xAC0 JUMPI PUSH2 0xABF PUSH2 0x1401 JUMP JUMPDEST JUMPDEST PUSH1 0x20 MUL PUSH1 0x20 ADD ADD DUP2 DUP2 MSTORE POP POP PUSH2 0xA73 JUMP JUMPDEST DUP4 SWAP7 POP POP POP POP POP POP POP SWAP5 SWAP4 POP POP POP POP JUMP JUMPDEST PUSH1 0x60 PUSH0 DUP4 DUP4 DUP1 DUP1 PUSH1 0x1F ADD PUSH1 0x20 DUP1 SWAP2 DIV MUL PUSH1 0x20 ADD PUSH1 0x40 MLOAD SWAP1 DUP2 ADD PUSH1 0x40 MSTORE DUP1 SWAP4 SWAP3 SWAP2 SWAP1 DUP2 DUP2 MSTORE PUSH1 0x20 ADD DUP4 DUP4 DUP1 DUP3 DUP5 CALLDATACOPY PUSH0 DUP2 DUP5 ADD MSTORE PUSH1 0x1F NOT PUSH1 0x1F DUP3 ADD AND SWAP1 POP DUP1 DUP4 ADD SWAP3 POP POP POP POP POP POP POP SWAP1 POP PUSH0 DUP2 MLOAD SWAP1 POP PUSH0 DUP2 SUB PUSH2 0xB4F JUMPI PUSH1 0x40 MLOAD DUP1 PUSH1 0x20 ADD PUSH1 0x40 MSTORE DUP1 PUSH0 DUP2 MSTORE POP SWAP3 POP POP POP PUSH2 0xC37 JUMP JUMPDEST PUSH0 DUP2 PUSH8 0xFFFFFFFFFFFFFFFF DUP2 GT ISZERO PUSH2 0xB6A JUMPI PUSH2 0xB69 PUSH2 0x10A1 JUMP JUMPDEST JUMPDEST PUSH1 0x40 MLOAD SWAP1 DUP1 DUP3 MSTORE DUP1 PUSH1 0x1F ADD PUSH1 0x1F NOT AND PUSH1 0x20 ADD DUP3 ADD PUSH1 0x40 MSTORE DUP1 ISZERO PUSH2 0xB9C JUMPI DUP2 PUSH1 0x20 ADD PUSH1 0x1 DUP3 MUL DUP1 CALLDATASIZE DUP4 CALLDATACOPY DUP1 DUP3 ADD SWAP2 POP POP SWAP1 POP JUMPDEST POP SWAP1 POP PUSH0 PUSH0 SWAP1 POP JUMPDEST DUP3 DUP2 LT ISZERO PUSH2 0xC2F JUMPI DUP4 DUP2 PUSH1 0x1 DUP6 PUSH2 0xBBB SWAP2 SWAP1 PUSH2 0x145B JUMP JUMPDEST PUSH2 0xBC5 SWAP2 SWAP1 PUSH2 0x145B JUMP JUMPDEST DUP2 MLOAD DUP2 LT PUSH2 0xBD6 JUMPI PUSH2 0xBD5 PUSH2 0x1401 JUMP JUMPDEST JUMPDEST PUSH1 0x20 ADD ADD MLOAD PUSH1 0xF8 SHR PUSH1 0xF8 SHL DUP3 DUP3 DUP2 MLOAD DUP2 LT PUSH2 0xBF4 JUMPI PUSH2 0xBF3 PUSH2 0x1401 JUMP JUMPDEST JUMPDEST PUSH1 0x20 ADD ADD SWAP1 PUSH31 0xFFFFFFFFFFFFFFFFFFFFFFFFFFFFFFFFFFFFFFFFFFFFFFFFFFFFFFFFFFFFFF NOT AND SWAP1 DUP2 PUSH0 BYTE SWAP1 MSTORE8 POP DUP1 DUP1 PUSH1 0x1 ADD SWAP2 POP POP PUSH2 0xBA4 JUMP JUMPDEST POP DUP1 SWAP4 POP POP POP POP JUMPDEST SWAP3 SWAP2 POP POP JUMP JUMPDEST PUSH0 PUSH32 0x4900000000000000000000000000000000000000000000000000000000000000 DUP3 PUSH31 0xFFFFFFFFFFFFFFFFFFFFFFFFFFFFFFFFFFFFFFFFFFFFFFFFFFFFFFFFFFFFFF NOT AND SUB PUSH2 0xC90 JUMPI PUSH1 0x1 SWAP1 POP PUSH2 0xE82 JUMP JUMPDEST PUSH32 0x5600000000000000000000000000000000000000000000000000000000000000 DUP3 PUSH31 0xFFFFFFFFFFFFFFFFFFFFFFFFFFFFFFFFFFFFFFFFFFFFFFFFFFFFFFFFFFFFFF NOT AND SUB PUSH2 0xCE2 JUMPI PUSH1 0x5 SWAP1 POP PUSH2 0xE82 JUMP JUMPDEST PUSH32 0x5800000000000000000000000000000000000000000000000000000000000000 DUP3 PUSH31 0xFFFFFFFFFFFFFFFFFFFFFFFFFFFFFFFFFFFFFFFFFFFFFFFFFFFFFFFFFFFFFF NOT AND SUB PUSH2 0xD34 JUMPI PUSH1 0xA SWAP1 POP PUSH2 0xE82 JUMP JUMPDEST PUSH32 0x4C00000000000000000000000000000000000000000000000000000000000000 DUP3 PUSH31 0xFFFFFFFFFFFFFFFFFFFFFFFFFFFFFFFFFFFFFFFFFFFFFFFFFFFFFFFFFFFFFF NOT AND SUB PUSH2 0xD86 JUMPI PUSH1 0x32 SWAP1 POP PUSH2 0xE82 JUMP JUMPDEST PUSH32 0x4300000000000000000000000000000000000000000000000000000000000000 DUP3 PUSH31 0xFFFFFFFFFFFFFFFFFFFFFFFFFFFFFFFFFFFFFFFFFFFFFFFFFFFFFFFFFFFFFF NOT AND SUB PUSH2 0xDD8 JUMPI PUSH1 0x64 SWAP1 POP PUSH2 0xE82 JUMP JUMPDEST PUSH32 0x4400000000000000000000000000000000000000000000000000000000000000 DUP3 PUSH31 0xFFFFFFFFFFFFFFFFFFFFFFFFFFFFFFFFFFFFFFFFFFFFFFFFFFFFFFFFFFFFFF NOT AND SUB PUSH2 0xE2B JUMPI PUSH2 0x1F4 SWAP1 POP PUSH2 0xE82 JUMP JUMPDEST PUSH32 0x4D00000000000000000000000000000000000000000000000000000000000000 DUP3 PUSH31 0xFFFFFFFFFFFFFFFFFFFFFFFFFFFFFFFFFFFFFFFFFFFFFFFFFFFFFFFFFFFFFF NOT AND SUB PUSH2 0xE7E JUMPI PUSH2 0x3E8 SWAP1 POP PUSH2 0xE82 JUMP JUMPDEST PUSH0 SWAP1 POP JUMPDEST SWAP2 SWAP1 POP JUMP JUMPDEST PUSH0 PUSH1 0x40 MLOAD SWAP1 POP SWAP1 JUMP JUMPDEST PUSH0 PUSH0 REVERT JUMPDEST PUSH0 PUSH0 REVERT JUMPDEST PUSH0 DUP2 SWAP1 POP SWAP2 SWAP1 POP JUMP JUMPDEST PUSH2 0xEAA DUP2 PUSH2 0xE98 JUMP JUMPDEST DUP2 EQ PUSH2 0xEB4 JUMPI PUSH0 PUSH0 REVERT JUMPDEST POP JUMP JUMPDEST PUSH0 DUP2 CALLDATALOAD SWAP1 POP PUSH2 0xEC5 DUP2 PUSH2 0xEA1 JUMP JUMPDEST SWAP3 SWAP2 POP POP JUMP JUMPDEST PUSH0 PUSH1 0x20 DUP3 DUP5 SUB SLT ISZERO PUSH2 0xEE0 JUMPI PUSH2 0xEDF PUSH2 0xE90 JUMP JUMPDEST JUMPDEST PUSH0 PUSH2 0xEED DUP5 DUP3 DUP6 ADD PUSH2 0xEB7 JUMP JUMPDEST SWAP2 POP POP SWAP3 SWAP2 POP POP JUMP JUMPDEST PUSH0 DUP2 MLOAD SWAP1 POP SWAP2 SWAP1 POP JUMP JUMPDEST PUSH0 DUP3 DUP3 MSTORE PUSH1 0x20 DUP3 ADD SWAP1 POP SWAP3 SWAP2 POP POP JUMP JUMPDEST DUP3 DUP2 DUP4 MCOPY PUSH0 DUP4 DUP4 ADD MSTORE POP POP POP JUMP JUMPDEST PUSH0 PUSH1 0x1F NOT PUSH1 0x1F DUP4 ADD AND SWAP1 POP SWAP2 SWAP1 POP JUMP JUMPDEST PUSH0 PUSH2 0xF38 DUP3 PUSH2 0xEF6 JUMP JUMPDEST PUSH2 0xF42 DUP2 DUP6 PUSH2 0xF00 JUMP JUMPDEST SWAP4 POP PUSH2 0xF52 DUP2 DUP6 PUSH1 0x20 DUP7 ADD PUSH2 0xF10 JUMP JUMPDEST PUSH2 0xF5B DUP2 PUSH2 0xF1E JUMP JUMPDEST DUP5 ADD SWAP2 POP POP SWAP3 SWAP2 POP POP JUMP JUMPDEST PUSH0 PUSH1 0x20 DUP3 ADD SWAP1 POP DUP2 DUP2 SUB PUSH0 DUP4 ADD MSTORE PUSH2 0xF7E DUP2 DUP5 PUSH2 0xF2E JUMP JUMPDEST SWAP1 POP SWAP3 SWAP2 POP POP JUMP JUMPDEST PUSH0 PUSH0 REVERT JUMPDEST PUSH0 PUSH0 REVERT JUMPDEST PUSH0 PUSH0 REVERT JUMPDEST PUSH0 PUSH0 DUP4 PUSH1 0x1F DUP5 ADD SLT PUSH2 0xFA7 JUMPI PUSH2 0xFA6 PUSH2 0xF86 JUMP JUMPDEST JUMPDEST DUP3 CALLDATALOAD SWAP1 POP PUSH8 0xFFFFFFFFFFFFFFFF DUP2 GT ISZERO PUSH2 0xFC4 JUMPI PUSH2 0xFC3 PUSH2 0xF8A JUMP JUMPDEST JUMPDEST PUSH1 0x20 DUP4 ADD SWAP2 POP DUP4 PUSH1 0x20 DUP3 MUL DUP4 ADD GT ISZERO PUSH2 0xFE0 JUMPI PUSH2 0xFDF PUSH2 0xF8E JUMP JUMPDEST JUMPDEST SWAP3 POP SWAP3 SWAP1 POP JUMP JUMPDEST PUSH0 PUSH0 PUSH0 PUSH1 0x40 DUP5 DUP7 SUB SLT ISZERO PUSH2 0xFFE JUMPI PUSH2 0xFFD PUSH2 0xE90 JUMP JUMPDEST JUMPDEST PUSH0 DUP5 ADD CALLDATALOAD PUSH8 0xFFFFFFFFFFFFFFFF DUP2 GT ISZERO PUSH2 0x101B JUMPI PUSH2 0x101A PUSH2 0xE94 JUMP JUMPDEST JUMPDEST PUSH2 0x1027 DUP7 DUP3 DUP8 ADD PUSH2 0xF92 JUMP JUMPDEST SWAP4 POP SWAP4 POP POP PUSH1 0x20 PUSH2 0x103A DUP7 DUP3 DUP8 ADD PUSH2 0xEB7 JUMP JUMPDEST SWAP2 POP POP SWAP3 POP SWAP3 POP SWAP3 JUMP JUMPDEST PUSH0 DUP2 SWAP1 POP SWAP2 SWAP1 POP JUMP JUMPDEST PUSH2 0x1056 DUP2 PUSH2 0x1044 JUMP JUMPDEST DUP3 MSTORE POP POP JUMP JUMPDEST PUSH0 PUSH1 0x20 DUP3 ADD SWAP1 POP PUSH2 0x106F PUSH0 DUP4 ADD DUP5 PUSH2 0x104D JUMP JUMPDEST SWAP3 SWAP2 POP POP JUMP JUMPDEST PUSH2 0x107E DUP2 PUSH2 0xE98 JUMP JUMPDEST DUP3 MSTORE POP POP JUMP JUMPDEST PUSH0 PUSH1 0x20 DUP3 ADD SWAP1 POP PUSH2 0x1097 PUSH0 DUP4 ADD DUP5 PUSH2 0x1075 JUMP JUMPDEST SWAP3 SWAP2 POP POP JUMP JUMPDEST PUSH0 PUSH0 REVERT JUMPDEST PUSH32 0x4E487B7100000000000000000000000000000000000000000000000000000000 PUSH0 MSTORE PUSH1 0x41 PUSH1 0x4 MSTORE PUSH1 0x24 PUSH0 REVERT JUMPDEST PUSH2 0x10D7 DUP3 PUSH2 0xF1E JUMP JUMPDEST DUP2 ADD DUP2 DUP2 LT PUSH8 0xFFFFFFFFFFFFFFFF DUP3 GT OR ISZERO PUSH2 0x10F6 JUMPI PUSH2 0x10F5 PUSH2 0x10A1 JUMP JUMPDEST JUMPDEST DUP1 PUSH1 0x40 MSTORE POP POP POP JUMP JUMPDEST PUSH0 PUSH2 0x1108 PUSH2 0xE87 JUMP JUMPDEST SWAP1 POP PUSH2 0x1114 DUP3 DUP3 PUSH2 0x10CE JUMP JUMPDEST SWAP2 SWAP1 POP JUMP JUMPDEST PUSH0 PUSH8 0xFFFFFFFFFFFFFFFF DUP3 GT ISZERO PUSH2 0x1133 JUMPI PUSH2 0x1132 PUSH2 0x10A1 JUMP JUMPDEST JUMPDEST PUSH2 0x113C DUP3 PUSH2 0xF1E JUMP JUMPDEST SWAP1 POP PUSH1 0x20 DUP2 ADD SWAP1 POP SWAP2 SWAP1 POP JUMP JUMPDEST DUP3 DUP2 DUP4 CALLDATACOPY PUSH0 DUP4 DUP4 ADD MSTORE POP POP POP JUMP JUMPDEST PUSH0 PUSH2 0x1169 PUSH2 0x1164 DUP5 PUSH2 0x1119 JUMP JUMPDEST PUSH2 0x10FF JUMP JUMPDEST SWAP1 POP DUP3 DUP2 MSTORE PUSH1 0x20 DUP2 ADD DUP5 DUP5 DUP5 ADD GT ISZERO PUSH2 0x1185 JUMPI PUSH2 0x1184 PUSH2 0x109D JUMP JUMPDEST JUMPDEST PUSH2 0x1190 DUP5 DUP3 DUP6 PUSH2 0x1149 JUMP JUMPDEST POP SWAP4 SWAP3 POP POP POP JUMP JUMPDEST PUSH0 DUP3 PUSH1 0x1F DUP4 ADD SLT PUSH2 0x11AC JUMPI PUSH2 0x11AB PUSH2 0xF86 JUMP JUMPDEST JUMPDEST DUP2 CALLDATALOAD PUSH2 0x11BC DUP5 DUP3 PUSH1 0x20 DUP7 ADD PUSH2 0x1157 JUMP JUMPDEST SWAP2 POP POP SWAP3 SWAP2 POP POP JUMP JUMPDEST PUSH0 PUSH1 0x20 DUP3 DUP5 SUB SLT ISZERO PUSH2 0x11DA JUMPI PUSH2 0x11D9 PUSH2 0xE90 JUMP JUMPDEST JUMPDEST PUSH0 DUP3 ADD CALLDATALOAD PUSH8 0xFFFFFFFFFFFFFFFF DUP2 GT ISZERO PUSH2 0x11F7 JUMPI PUSH2 0x11F6 PUSH2 0xE94 JUMP JUMPDEST JUMPDEST PUSH2 0x1203 DUP5 DUP3 DUP6 ADD PUSH2 0x1198 JUMP JUMPDEST SWAP2 POP POP SWAP3 SWAP2 POP POP JUMP JUMPDEST PUSH0 PUSH0 PUSH0 PUSH0 PUSH1 0x40 DUP6 DUP8 SUB SLT ISZERO PUSH2 0x1224 JUMPI PUSH2 0x1223 PUSH2 0xE90 JUMP JUMPDEST JUMPDEST PUSH0 DUP6 ADD CALLDATALOAD PUSH8 0xFFFFFFFFFFFFFFFF DUP2 GT ISZERO PUSH2 0x1241 JUMPI PUSH2 0x1240 PUSH2 0xE94 JUMP JUMPDEST JUMPDEST PUSH2 0x124D DUP8 DUP3 DUP9 ADD PUSH2 0xF92 JUMP JUMPDEST SWAP5 POP SWAP5 POP POP PUSH1 0x20 DUP6 ADD CALLDATALOAD PUSH8 0xFFFFFFFFFFFFFFFF DUP2 GT ISZERO PUSH2 0x1270 JUMPI PUSH2 0x126F PUSH2 0xE94 JUMP JUMPDEST JUMPDEST PUSH2 0x127C DUP8 DUP3 DUP9 ADD PUSH2 0xF92 JUMP JUMPDEST SWAP3 POP SWAP3 POP POP SWAP3 SWAP6 SWAP2 SWAP5 POP SWAP3 POP JUMP JUMPDEST PUSH0 DUP2 MLOAD SWAP1 POP SWAP2 SWAP1 POP JUMP JUMPDEST PUSH0 DUP3 DUP3 MSTORE PUSH1 0x20 DUP3 ADD SWAP1 POP SWAP3 SWAP2 POP POP JUMP JUMPDEST PUSH0 DUP2 SWAP1 POP PUSH1 0x20 DUP3 ADD SWAP1 POP SWAP2 SWAP1 POP JUMP JUMPDEST PUSH2 0x12BC DUP2 PUSH2 0xE98 JUMP JUMPDEST DUP3 MSTORE POP POP JUMP JUMPDEST PUSH0 PUSH2 0x12CD DUP4 DUP4 PUSH2 0x12B3 JUMP JUMPDEST PUSH1 0x20 DUP4 ADD SWAP1 POP SWAP3 SWAP2 POP POP JUMP JUMPDEST PUSH0 PUSH1 0x20 DUP3 ADD SWAP1 POP SWAP2 SWAP1 POP JUMP JUMPDEST PUSH0 PUSH2 0x12EF DUP3 PUSH2 0x128A JUMP JUMPDEST PUSH2 0x12F9 DUP2 DUP6 PUSH2 0x1294 JUMP JUMPDEST SWAP4 POP PUSH2 0x1304 DUP4 PUSH2 0x12A4 JUMP JUMPDEST DUP1 PUSH0 JUMPDEST DUP4 DUP2 LT ISZERO PUSH2 0x1334 JUMPI DUP2 MLOAD PUSH2 0x131B DUP9 DUP3 PUSH2 0x12C2 JUMP JUMPDEST SWAP8 POP PUSH2 0x1326 DUP4 PUSH2 0x12D9 JUMP JUMPDEST SWAP3 POP POP PUSH1 0x1 DUP2 ADD SWAP1 POP PUSH2 0x1307 JUMP JUMPDEST POP DUP6 SWAP4 POP POP POP POP SWAP3 SWAP2 POP POP JUMP JUMPDEST PUSH0 PUSH1 0x20 DUP3 ADD SWAP1 POP DUP2 DUP2 SUB PUSH0 DUP4 ADD MSTORE PUSH2 0x1359 DUP2 DUP5 PUSH2 0x12E5 JUMP JUMPDEST SWAP1 POP SWAP3 SWAP2 POP POP JUMP JUMPDEST PUSH0 PUSH0 DUP4 PUSH1 0x1F DUP5 ADD SLT PUSH2 0x1376 JUMPI PUSH2 0x1375 PUSH2 0xF86 JUMP JUMPDEST JUMPDEST DUP3 CALLDATALOAD SWAP1 POP PUSH8 0xFFFFFFFFFFFFFFFF DUP2 GT ISZERO PUSH2 0x1393 JUMPI PUSH2 0x1392 PUSH2 0xF8A JUMP JUMPDEST JUMPDEST PUSH1 0x20 DUP4 ADD SWAP2 POP DUP4 PUSH1 0x1 DUP3 MUL DUP4 ADD GT ISZERO PUSH2 0x13AF JUMPI PUSH2 0x13AE PUSH2 0xF8E JUMP JUMPDEST JUMPDEST SWAP3 POP SWAP3 SWAP1 POP JUMP JUMPDEST PUSH0 PUSH0 PUSH1 0x20 DUP4 DUP6 SUB SLT ISZERO PUSH2 0x13CC JUMPI PUSH2 0x13CB PUSH2 0xE90 JUMP JUMPDEST JUMPDEST PUSH0 DUP4 ADD CALLDATALOAD PUSH8 0xFFFFFFFFFFFFFFFF DUP2 GT ISZERO PUSH2 0x13E9 JUMPI PUSH2 0x13E8 PUSH2 0xE94 JUMP JUMPDEST JUMPDEST PUSH2 0x13F5 DUP6 DUP3 DUP7 ADD PUSH2 0x1361 JUMP JUMPDEST SWAP3 POP SWAP3 POP POP SWAP3 POP SWAP3 SWAP1 POP JUMP JUMPDEST PUSH32 0x4E487B7100000000000000000000000000000000000000000000000000000000 PUSH0 MSTORE PUSH1 0x32 PUSH1 0x4 MSTORE PUSH1 0x24 PUSH0 REVERT JUMPDEST PUSH32 0x4E487B7100000000000000000000000000000000000000000000000000000000 PUSH0 MSTORE PUSH1 0x11 PUSH1 0x4 MSTORE PUSH1 0x24 PUSH0 REVERT JUMPDEST PUSH0 PUSH2 0x1465 DUP3 PUSH2 0xE98 JUMP JUMPDEST SWAP2 POP PUSH2 0x1470 DUP4 PUSH2 0xE98 JUMP JUMPDEST SWAP3 POP DUP3 DUP3 SUB SWAP1 POP DUP2 DUP2 GT ISZERO PUSH2 0x1488 JUMPI PUSH2 0x1487 PUSH2 0x142E JUMP JUMPDEST JUMPDEST SWAP3 SWAP2 POP POP JUMP JUMPDEST PUSH0 DUP2 SWAP1 POP SWAP3 SWAP2 POP POP JUMP JUMPDEST PUSH0 PUSH2 0x14A2 DUP3 PUSH2 0xEF6 JUMP JUMPDEST PUSH2 0x14AC DUP2 DUP6 PUSH2 0x148E JUMP JUMPDEST SWAP4 POP PUSH2 0x14BC DUP2 DUP6 PUSH1 0x20 DUP7 ADD PUSH2 0xF10 JUMP JUMPDEST DUP1 DUP5 ADD SWAP2 POP POP SWAP3 SWAP2 POP POP JUMP JUMPDEST PUSH0 PUSH2 0x14D3 DUP3 DUP6 PUSH2 0x1498 JUMP JUMPDEST SWAP2 POP PUSH2 0x14DF DUP3 DUP5 PUSH2 0x1498 JUMP JUMPDEST SWAP2 POP DUP2 SWAP1 POP SWAP4 SWAP3 POP POP POP JUMP JUMPDEST PUSH0 PUSH2 0x14F5 DUP3 PUSH2 0xE98 JUMP JUMPDEST SWAP2 POP PUSH32 0xFFFFFFFFFFFFFFFFFFFFFFFFFFFFFFFFFFFFFFFFFFFFFFFFFFFFFFFFFFFFFFFF DUP3 SUB PUSH2 0x1527 JUMPI PUSH2 0x1526 PUSH2 0x142E JUMP JUMPDEST JUMPDEST PUSH1 0x1 DUP3 ADD SWAP1 POP SWAP2 SWAP1 POP JUMP JUMPDEST PUSH0 PUSH2 0x153C DUP3 PUSH2 0xE98 JUMP JUMPDEST SWAP2 POP PUSH2 0x1547 DUP4 PUSH2 0xE98 JUMP JUMPDEST SWAP3 POP DUP3 DUP3 ADD SWAP1 POP DUP1 DUP3 GT ISZERO PUSH2 0x155F JUMPI PUSH2 0x155E PUSH2 0x142E JUMP JUMPDEST JUMPDEST SWAP3 SWAP2 POP POP JUMP JUMPDEST PUSH32 0x4E487B7100000000000000000000000000000000000000000000000000000000 PUSH0 MSTORE PUSH1 0x12 PUSH1 0x4 MSTORE PUSH1 0x24 PUSH0 REVERT JUMPDEST PUSH0 PUSH2 0x159C DUP3 PUSH2 0xE98 JUMP JUMPDEST SWAP2 POP PUSH2 0x15A7 DUP4 PUSH2 0xE98 JUMP JUMPDEST SWAP3 POP DUP3 PUSH2 0x15B7 JUMPI PUSH2 0x15B6 PUSH2 0x1565 JUMP JUMPDEST JUMPDEST DUP3 DUP3 DIV SWAP1 POP SWAP3 SWAP2 POP POP JUMP INVALID LOG2 PUSH5 0x6970667358 0x22 SLT KECCAK256 MSTORE PC PUSH29 0x4B338A34B23612B514ABE5A0A385CE6B416D39B9147D2CB542FAB8EC03 PUSH5 0x736F6C6343 STOP ADDMOD 0x1E STOP CALLER "
				},
				"gasEstimates": {
					"creation": {
						"codeDepositCost": "1124800",
						"executionCost": "1165",
						"totalCost": "1125965"
					},
					"external": {
						"binarySearch(uint256[],uint256)": "infinite",
						"binarySearch2(uint256[],uint256)": "infinite",
						"intToRoman(uint256)": "infinite",
						"mergeArrays(uint256[],uint256[])": "infinite",
						"romanToInt(string)": "infinite",
						"stringReverse(string)": "infinite"
					},
					"internal": {
						"valueOf(bytes1)": "262"
					}
				},
				"methodIdentifiers": {
					"binarySearch(uint256[],uint256)": "b12601da",
					"binarySearch2(uint256[],uint256)": "aaee9e95",
					"intToRoman(uint256)": "0cbc513a",
					"mergeArrays(uint256[],uint256[])": "de948709",
					"romanToInt(string)": "cb159dfe",
					"stringReverse(string)": "f3582c69"
				}
			},
			"storageLayout": {
				"storage": [],
				"types": null
			},
			"userdoc": {
				"kind": "user",
				"methods": {},
				"version": 1
			}
		}
	}
}