{
	"contracts/task2/job3.sol": {
		"BeggingContract": {
			"abi": [
				{
					"inputs": [],
					"stateMutability": "nonpayable",
					"type": "constructor"
				},
				{
					"anonymous": false,
					"inputs": [
						{
							"indexed": true,
							"internalType": "address",
							"name": "sender",
							"type": "address"
						},
						{
							"indexed": false,
							"internalType": "uint256",
							"name": "amount",
							"type": "uint256"
						}
					],
					"name": "Donation",
					"type": "event"
				},
				{
					"anonymous": false,
					"inputs": [
						{
							"indexed": false,
							"internalType": "uint256",
							"name": "amount",
							"type": "uint256"
						}
					],
					"name": "Withdraw",
					"type": "event"
				},
				{
					"stateMutability": "payable",
					"type": "fallback"
				},
				{
					"inputs": [],
					"name": "donate",
					"outputs": [],
					"stateMutability": "payable",
					"type": "function"
				},
				{
					"inputs": [
						{
							"internalType": "address",
							"name": "user",
							"type": "address"
						}
					],
					"name": "getDonation",
					"outputs": [
						{
							"internalType": "uint256",
							"name": "",
							"type": "uint256"
						}
					],
					"stateMutability": "view",
					"type": "function"
				},
				{
					"inputs": [],
					"name": "owner",
					"outputs": [
						{
							"internalType": "address",
							"name": "",
							"type": "address"
						}
					],
					"stateMutability": "view",
					"type": "function"
				},
				{
					"inputs": [],
					"name": "rankings",
					"outputs": [
						{
							"components": [
								{
									"internalType": "address",
									"name": "sender",
									"type": "address"
								},
								{
									"internalType": "uint256",
									"name": "value",
									"type": "uint256"
								}
							],
							"internalType": "struct BeggingContract.Donor",
							"name": "",
							"type": "tuple"
						}
					],
					"stateMutability": "view",
					"type": "function"
				},
				{
					"inputs": [],
					"name": "withdraw",
					"outputs": [],
					"stateMutability": "nonpayable",
					"type": "function"
				},
				{
					"stateMutability": "payable",
					"type": "receive"
				}
			],
			"devdoc": {
				"kind": "dev",
				"methods": {},
				"version": 1
			},
			"evm": {
				"assembly": "    /* \"contracts/task2/job3.sol\":60:1471  contract BeggingContract {... */\n  mstore(0x40, 0x80)\n    /* \"contracts/task2/job3.sol\":261:312  constructor() {... */\n  callvalue\n  dup1\n  iszero\n  tag_1\n  jumpi\n  revert(0x00, 0x00)\ntag_1:\n  pop\n    /* \"contracts/task2/job3.sol\":294:304  msg.sender */\n  caller\n    /* \"contracts/task2/job3.sol\":286:291  owner */\n  0x01\n  0x00\n    /* \"contracts/task2/job3.sol\":286:304  owner = msg.sender */\n  0x0100\n  exp\n  dup2\n  sload\n  dup2\n  0xffffffffffffffffffffffffffffffffffffffff\n  mul\n  not\n  and\n  swap1\n  dup4\n  0xffffffffffffffffffffffffffffffffffffffff\n  and\n  mul\n  or\n  swap1\n  sstore\n  pop\n    /* \"contracts/task2/job3.sol\":60:1471  contract BeggingContract {... */\n  dataSize(sub_0)\n  dup1\n  dataOffset(sub_0)\n  0x00\n  codecopy\n  0x00\n  return\nstop\n\nsub_0: assembly {\n        /* \"contracts/task2/job3.sol\":60:1471  contract BeggingContract {... */\n      mstore(0x40, 0x80)\n      jumpi(tag_1, lt(calldatasize, 0x04))\n      shr(0xe0, calldataload(0x00))\n      dup1\n      0x3ccfd60b\n      eq\n      tag_3\n      jumpi\n      dup1\n      0x410a1d32\n      eq\n      tag_4\n      jumpi\n      dup1\n      0x5569c4ff\n      eq\n      tag_5\n      jumpi\n      dup1\n      0x8da5cb5b\n      eq\n      tag_6\n      jumpi\n      dup1\n      0xed88c68e\n      eq\n      tag_7\n      jumpi\n      jump(tag_2)\n    tag_1:\n      jumpi(tag_2, calldatasize)\n        /* \"contracts/task2/job3.sol\":1016:1017  0 */\n      0x00\n        /* \"contracts/task2/job3.sol\":1003:1012  msg.value */\n      callvalue\n        /* \"contracts/task2/job3.sol\":1003:1017  msg.value >= 0 */\n      lt\n      iszero\n        /* \"contracts/task2/job3.sol\":995:1036  require(msg.value >= 0, \"Not enough eth\") */\n      tag_10\n      jumpi\n      mload(0x40)\n      0x08c379a000000000000000000000000000000000000000000000000000000000\n      dup2\n      mstore\n      0x04\n      add\n      tag_11\n      swap1\n      tag_12\n      jump\t// in\n    tag_11:\n      mload(0x40)\n      dup1\n      swap2\n      sub\n      swap1\n      revert\n    tag_10:\n        /* \"contracts/task2/job3.sol\":1072:1081  msg.value */\n      callvalue\n        /* \"contracts/task2/job3.sol\":1047:1056  donations */\n      0x00\n        /* \"contracts/task2/job3.sol\":1047:1068  donations[msg.sender] */\n      0x00\n        /* \"contracts/task2/job3.sol\":1057:1067  msg.sender */\n      caller\n        /* \"contracts/task2/job3.sol\":1047:1068  donations[msg.sender] */\n      0xffffffffffffffffffffffffffffffffffffffff\n      and\n      0xffffffffffffffffffffffffffffffffffffffff\n      and\n      dup2\n      mstore\n      0x20\n      add\n      swap1\n      dup2\n      mstore\n      0x20\n      add\n      0x00\n      keccak256\n      0x00\n        /* \"contracts/task2/job3.sol\":1047:1081  donations[msg.sender] += msg.value */\n      dup3\n      dup3\n      sload\n      tag_13\n      swap2\n      swap1\n      tag_14\n      jump\t// in\n    tag_13:\n      swap3\n      pop\n      pop\n      dup2\n      swap1\n      sstore\n      pop\n        /* \"contracts/task2/job3.sol\":1106:1116  msg.sender */\n      caller\n        /* \"contracts/task2/job3.sol\":1097:1128  Donation(msg.sender, msg.value) */\n      0xffffffffffffffffffffffffffffffffffffffff\n      and\n      0x5d8bc849764969eb1bcc6d0a2f55999d0167c1ccec240a4f39cf664ca9c4148e\n        /* \"contracts/task2/job3.sol\":1118:1127  msg.value */\n      callvalue\n        /* \"contracts/task2/job3.sol\":1097:1128  Donation(msg.sender, msg.value) */\n      mload(0x40)\n      tag_15\n      swap2\n      swap1\n      tag_16\n      jump\t// in\n    tag_15:\n      mload(0x40)\n      dup1\n      swap2\n      sub\n      swap1\n      log2\n        /* \"contracts/task2/job3.sol\":60:1471  contract BeggingContract {... */\n      stop\n    tag_2:\n        /* \"contracts/task2/job3.sol\":1204:1205  0 */\n      0x00\n        /* \"contracts/task2/job3.sol\":1191:1200  msg.value */\n      callvalue\n        /* \"contracts/task2/job3.sol\":1191:1205  msg.value >= 0 */\n      lt\n      iszero\n        /* \"contracts/task2/job3.sol\":1183:1224  require(msg.value >= 0, \"Not enough eth\") */\n      tag_19\n      jumpi\n      mload(0x40)\n      0x08c379a000000000000000000000000000000000000000000000000000000000\n      dup2\n      mstore\n      0x04\n      add\n      tag_20\n      swap1\n      tag_12\n      jump\t// in\n    tag_20:\n      mload(0x40)\n      dup1\n      swap2\n      sub\n      swap1\n      revert\n    tag_19:\n        /* \"contracts/task2/job3.sol\":1260:1269  msg.value */\n      callvalue\n        /* \"contracts/task2/job3.sol\":1235:1244  donations */\n      0x00\n        /* \"contracts/task2/job3.sol\":1235:1256  donations[msg.sender] */\n      0x00\n        /* \"contracts/task2/job3.sol\":1245:1255  msg.sender */\n      caller\n        /* \"contracts/task2/job3.sol\":1235:1256  donations[msg.sender] */\n      0xffffffffffffffffffffffffffffffffffffffff\n      and\n      0xffffffffffffffffffffffffffffffffffffffff\n      and\n      dup2\n      mstore\n      0x20\n      add\n      swap1\n      dup2\n      mstore\n      0x20\n      add\n      0x00\n      keccak256\n      0x00\n        /* \"contracts/task2/job3.sol\":1235:1269  donations[msg.sender] += msg.value */\n      dup3\n      dup3\n      sload\n      tag_21\n      swap2\n      swap1\n      tag_14\n      jump\t// in\n    tag_21:\n      swap3\n      pop\n      pop\n      dup2\n      swap1\n      sstore\n      pop\n        /* \"contracts/task2/job3.sol\":1294:1304  msg.sender */\n      caller\n        /* \"contracts/task2/job3.sol\":1285:1316  Donation(msg.sender, msg.value) */\n      0xffffffffffffffffffffffffffffffffffffffff\n      and\n      0x5d8bc849764969eb1bcc6d0a2f55999d0167c1ccec240a4f39cf664ca9c4148e\n        /* \"contracts/task2/job3.sol\":1306:1315  msg.value */\n      callvalue\n        /* \"contracts/task2/job3.sol\":1285:1316  Donation(msg.sender, msg.value) */\n      mload(0x40)\n      tag_22\n      swap2\n      swap1\n      tag_16\n      jump\t// in\n    tag_22:\n      mload(0x40)\n      dup1\n      swap2\n      sub\n      swap1\n      log2\n        /* \"contracts/task2/job3.sol\":60:1471  contract BeggingContract {... */\n      stop\n        /* \"contracts/task2/job3.sol\":787:949  function withdraw() public onlyOwner {... */\n    tag_3:\n      callvalue\n      dup1\n      iszero\n      tag_23\n      jumpi\n      revert(0x00, 0x00)\n    tag_23:\n      pop\n      tag_24\n      tag_25\n      jump\t// in\n    tag_24:\n      stop\n        /* \"contracts/task2/job3.sol\":515:678  function getDonation(address user) public view returns(uint) {... */\n    tag_4:\n      callvalue\n      dup1\n      iszero\n      tag_26\n      jumpi\n      revert(0x00, 0x00)\n    tag_26:\n      pop\n      tag_27\n      0x04\n      dup1\n      calldatasize\n      sub\n      dup2\n      add\n      swap1\n      tag_28\n      swap2\n      swap1\n      tag_29\n      jump\t// in\n    tag_28:\n      tag_30\n      jump\t// in\n    tag_27:\n      mload(0x40)\n      tag_31\n      swap2\n      swap1\n      tag_16\n      jump\t// in\n    tag_31:\n      mload(0x40)\n      dup1\n      swap2\n      sub\n      swap1\n      return\n        /* \"contracts/task2/job3.sol\":1404:1466  function rankings() public view returns(Donor memory) {... */\n    tag_5:\n      callvalue\n      dup1\n      iszero\n      tag_32\n      jumpi\n      revert(0x00, 0x00)\n    tag_32:\n      pop\n      tag_33\n      tag_34\n      jump\t// in\n    tag_33:\n      mload(0x40)\n      tag_35\n      swap2\n      swap1\n      tag_36\n      jump\t// in\n    tag_35:\n      mload(0x40)\n      dup1\n      swap2\n      sub\n      swap1\n      return\n        /* \"contracts/task2/job3.sol\":232:252  address public owner */\n    tag_6:\n      callvalue\n      dup1\n      iszero\n      tag_37\n      jumpi\n      revert(0x00, 0x00)\n    tag_37:\n      pop\n      tag_38\n      tag_39\n      jump\t// in\n    tag_38:\n      mload(0x40)\n      tag_40\n      swap2\n      swap1\n      tag_41\n      jump\t// in\n    tag_40:\n      mload(0x40)\n      dup1\n      swap2\n      sub\n      swap1\n      return\n        /* \"contracts/task2/job3.sol\":320:507  function donate() external payable {... */\n    tag_7:\n      tag_42\n      tag_43\n      jump\t// in\n    tag_42:\n      stop\n        /* \"contracts/task2/job3.sol\":787:949  function withdraw() public onlyOwner {... */\n    tag_25:\n        /* \"contracts/task2/job3.sol\":738:743  owner */\n      0x01\n      0x00\n      swap1\n      sload\n      swap1\n      0x0100\n      exp\n      swap1\n      div\n      0xffffffffffffffffffffffffffffffffffffffff\n      and\n        /* \"contracts/task2/job3.sol\":724:743  msg.sender == owner */\n      0xffffffffffffffffffffffffffffffffffffffff\n      and\n        /* \"contracts/task2/job3.sol\":724:734  msg.sender */\n      caller\n        /* \"contracts/task2/job3.sol\":724:743  msg.sender == owner */\n      0xffffffffffffffffffffffffffffffffffffffff\n      and\n      eq\n        /* \"contracts/task2/job3.sol\":716:761  require(msg.sender == owner, \"must be owner\") */\n      tag_45\n      jumpi\n      mload(0x40)\n      0x08c379a000000000000000000000000000000000000000000000000000000000\n      dup2\n      mstore\n      0x04\n      add\n      tag_46\n      swap1\n      tag_47\n      jump\t// in\n    tag_46:\n      mload(0x40)\n      dup1\n      swap2\n      sub\n      swap1\n      revert\n    tag_45:\n        /* \"contracts/task2/job3.sol\":835:845  uint value */\n      0x00\n        /* \"contracts/task2/job3.sol\":848:869  address(this).balance */\n      selfbalance\n        /* \"contracts/task2/job3.sol\":835:869  uint value = address(this).balance */\n      swap1\n      pop\n        /* \"contracts/task2/job3.sol\":888:893  owner */\n      0x01\n      0x00\n      swap1\n      sload\n      swap1\n      0x0100\n      exp\n      swap1\n      div\n      0xffffffffffffffffffffffffffffffffffffffff\n      and\n        /* \"contracts/task2/job3.sol\":880:903  payable(owner).transfer */\n      0xffffffffffffffffffffffffffffffffffffffff\n      and\n        /* \"contracts/task2/job3.sol\":880:910  payable(owner).transfer(value) */\n      0x08fc\n        /* \"contracts/task2/job3.sol\":904:909  value */\n      dup3\n        /* \"contracts/task2/job3.sol\":880:910  payable(owner).transfer(value) */\n      swap1\n      dup2\n      iszero\n      mul\n      swap1\n      mload(0x40)\n      0x00\n      mload(0x40)\n      dup1\n      dup4\n      sub\n      dup2\n      dup6\n      dup9\n      dup9\n      call\n      swap4\n      pop\n      pop\n      pop\n      pop\n      iszero\n      dup1\n      iszero\n      tag_50\n      jumpi\n      returndatacopy(0x00, 0x00, returndatasize)\n      revert(0x00, returndatasize)\n    tag_50:\n      pop\n        /* \"contracts/task2/job3.sol\":926:941  Withdraw(value) */\n      0x5b6b431d4476a211bb7d41c20d1aab9ae2321deee0d20be3d9fc9b1093fa6e3d\n        /* \"contracts/task2/job3.sol\":935:940  value */\n      dup2\n        /* \"contracts/task2/job3.sol\":926:941  Withdraw(value) */\n      mload(0x40)\n      tag_51\n      swap2\n      swap1\n      tag_16\n      jump\t// in\n    tag_51:\n      mload(0x40)\n      dup1\n      swap2\n      sub\n      swap1\n      log1\n        /* \"contracts/task2/job3.sol\":824:949  {... */\n      pop\n        /* \"contracts/task2/job3.sol\":787:949  function withdraw() public onlyOwner {... */\n      jump\t// out\n        /* \"contracts/task2/job3.sol\":515:678  function getDonation(address user) public view returns(uint) {... */\n    tag_30:\n        /* \"contracts/task2/job3.sol\":570:574  uint */\n      0x00\n        /* \"contracts/task2/job3.sol\":611:612  0 */\n      0x00\n        /* \"contracts/task2/job3.sol\":595:613  user != address(0) */\n      0xffffffffffffffffffffffffffffffffffffffff\n      and\n        /* \"contracts/task2/job3.sol\":595:599  user */\n      dup3\n        /* \"contracts/task2/job3.sol\":595:613  user != address(0) */\n      0xffffffffffffffffffffffffffffffffffffffff\n      and\n      sub\n        /* \"contracts/task2/job3.sol\":587:637  require(user != address(0), \"address cannot be 0\") */\n      tag_53\n      jumpi\n      mload(0x40)\n      0x08c379a000000000000000000000000000000000000000000000000000000000\n      dup2\n      mstore\n      0x04\n      add\n      tag_54\n      swap1\n      tag_55\n      jump\t// in\n    tag_54:\n      mload(0x40)\n      dup1\n      swap2\n      sub\n      swap1\n      revert\n    tag_53:\n        /* \"contracts/task2/job3.sol\":655:664  donations */\n      0x00\n        /* \"contracts/task2/job3.sol\":655:670  donations[user] */\n      0x00\n        /* \"contracts/task2/job3.sol\":665:669  user */\n      dup4\n        /* \"contracts/task2/job3.sol\":655:670  donations[user] */\n      0xffffffffffffffffffffffffffffffffffffffff\n      and\n      0xffffffffffffffffffffffffffffffffffffffff\n      and\n      dup2\n      mstore\n      0x20\n      add\n      swap1\n      dup2\n      mstore\n      0x20\n      add\n      0x00\n      keccak256\n      sload\n        /* \"contracts/task2/job3.sol\":648:670  return donations[user] */\n      swap1\n      pop\n        /* \"contracts/task2/job3.sol\":515:678  function getDonation(address user) public view returns(uint) {... */\n      swap2\n      swap1\n      pop\n      jump\t// out\n        /* \"contracts/task2/job3.sol\":1404:1466  function rankings() public view returns(Donor memory) {... */\n    tag_34:\n        /* \"contracts/task2/job3.sol\":1444:1456  Donor memory */\n      tag_56\n      tag_57\n      jump\t// in\n    tag_56:\n        /* \"contracts/task2/job3.sol\":1404:1466  function rankings() public view returns(Donor memory) {... */\n      swap1\n      jump\t// out\n        /* \"contracts/task2/job3.sol\":232:252  address public owner */\n    tag_39:\n      0x01\n      0x00\n      swap1\n      sload\n      swap1\n      0x0100\n      exp\n      swap1\n      div\n      0xffffffffffffffffffffffffffffffffffffffff\n      and\n      dup2\n      jump\t// out\n        /* \"contracts/task2/job3.sol\":320:507  function donate() external payable {... */\n    tag_43:\n        /* \"contracts/task2/job3.sol\":387:388  0 */\n      0x00\n        /* \"contracts/task2/job3.sol\":374:383  msg.value */\n      callvalue\n        /* \"contracts/task2/job3.sol\":374:388  msg.value >= 0 */\n      lt\n      iszero\n        /* \"contracts/task2/job3.sol\":366:407  require(msg.value >= 0, \"not enough eth\") */\n      tag_60\n      jumpi\n      mload(0x40)\n      0x08c379a000000000000000000000000000000000000000000000000000000000\n      dup2\n      mstore\n      0x04\n      add\n      tag_61\n      swap1\n      tag_62\n      jump\t// in\n    tag_61:\n      mload(0x40)\n      dup1\n      swap2\n      sub\n      swap1\n      revert\n    tag_60:\n        /* \"contracts/task2/job3.sol\":443:452  msg.value */\n      callvalue\n        /* \"contracts/task2/job3.sol\":418:427  donations */\n      0x00\n        /* \"contracts/task2/job3.sol\":418:439  donations[msg.sender] */\n      0x00\n        /* \"contracts/task2/job3.sol\":428:438  msg.sender */\n      caller\n        /* \"contracts/task2/job3.sol\":418:439  donations[msg.sender] */\n      0xffffffffffffffffffffffffffffffffffffffff\n      and\n      0xffffffffffffffffffffffffffffffffffffffff\n      and\n      dup2\n      mstore\n      0x20\n      add\n      swap1\n      dup2\n      mstore\n      0x20\n      add\n      0x00\n      keccak256\n      0x00\n        /* \"contracts/task2/job3.sol\":418:452  donations[msg.sender] += msg.value */\n      dup3\n      dup3\n      sload\n      tag_63\n      swap2\n      swap1\n      tag_14\n      jump\t// in\n    tag_63:\n      swap3\n      pop\n      pop\n      dup2\n      swap1\n      sstore\n      pop\n        /* \"contracts/task2/job3.sol\":477:487  msg.sender */\n      caller\n        /* \"contracts/task2/job3.sol\":468:499  Donation(msg.sender, msg.value) */\n      0xffffffffffffffffffffffffffffffffffffffff\n      and\n      0x5d8bc849764969eb1bcc6d0a2f55999d0167c1ccec240a4f39cf664ca9c4148e\n        /* \"contracts/task2/job3.sol\":489:498  msg.value */\n      callvalue\n        /* \"contracts/task2/job3.sol\":468:499  Donation(msg.sender, msg.value) */\n      mload(0x40)\n      tag_64\n      swap2\n      swap1\n      tag_16\n      jump\t// in\n    tag_64:\n      mload(0x40)\n      dup1\n      swap2\n      sub\n      swap1\n      log2\n        /* \"contracts/task2/job3.sol\":320:507  function donate() external payable {... */\n      jump\t// out\n    tag_57:\n      mload(0x40)\n      dup1\n      0x40\n      add\n      0x40\n      mstore\n      dup1\n      and(0xffffffffffffffffffffffffffffffffffffffff, 0x00)\n      dup2\n      mstore\n      0x20\n      add\n      0x00\n      dup2\n      mstore\n      pop\n      swap1\n      jump\t// out\n        /* \"#utility.yul\":7:176   */\n    tag_65:\n        /* \"#utility.yul\":91:102   */\n      0x00\n        /* \"#utility.yul\":125:131   */\n      dup3\n        /* \"#utility.yul\":120:123   */\n      dup3\n        /* \"#utility.yul\":113:132   */\n      mstore\n        /* \"#utility.yul\":165:169   */\n      0x20\n        /* \"#utility.yul\":160:163   */\n      dup3\n        /* \"#utility.yul\":156:170   */\n      add\n        /* \"#utility.yul\":141:170   */\n      swap1\n      pop\n        /* \"#utility.yul\":7:176   */\n      swap3\n      swap2\n      pop\n      pop\n      jump\t// out\n        /* \"#utility.yul\":182:346   */\n    tag_66:\n        /* \"#utility.yul\":322:338   */\n      0x4e6f7420656e6f75676820657468000000000000000000000000000000000000\n        /* \"#utility.yul\":318:319   */\n      0x00\n        /* \"#utility.yul\":310:316   */\n      dup3\n        /* \"#utility.yul\":306:320   */\n      add\n        /* \"#utility.yul\":299:339   */\n      mstore\n        /* \"#utility.yul\":182:346   */\n      pop\n      jump\t// out\n        /* \"#utility.yul\":352:718   */\n    tag_67:\n        /* \"#utility.yul\":494:497   */\n      0x00\n        /* \"#utility.yul\":515:582   */\n      tag_92\n        /* \"#utility.yul\":579:581   */\n      0x0e\n        /* \"#utility.yul\":574:577   */\n      dup4\n        /* \"#utility.yul\":515:582   */\n      tag_65\n      jump\t// in\n    tag_92:\n        /* \"#utility.yul\":508:582   */\n      swap2\n      pop\n        /* \"#utility.yul\":591:684   */\n      tag_93\n        /* \"#utility.yul\":680:683   */\n      dup3\n        /* \"#utility.yul\":591:684   */\n      tag_66\n      jump\t// in\n    tag_93:\n        /* \"#utility.yul\":709:711   */\n      0x20\n        /* \"#utility.yul\":704:707   */\n      dup3\n        /* \"#utility.yul\":700:712   */\n      add\n        /* \"#utility.yul\":693:712   */\n      swap1\n      pop\n        /* \"#utility.yul\":352:718   */\n      swap2\n      swap1\n      pop\n      jump\t// out\n        /* \"#utility.yul\":724:1143   */\n    tag_12:\n        /* \"#utility.yul\":890:894   */\n      0x00\n        /* \"#utility.yul\":928:930   */\n      0x20\n        /* \"#utility.yul\":917:926   */\n      dup3\n        /* \"#utility.yul\":913:931   */\n      add\n        /* \"#utility.yul\":905:931   */\n      swap1\n      pop\n        /* \"#utility.yul\":977:986   */\n      dup2\n        /* \"#utility.yul\":971:975   */\n      dup2\n        /* \"#utility.yul\":967:987   */\n      sub\n        /* \"#utility.yul\":963:964   */\n      0x00\n        /* \"#utility.yul\":952:961   */\n      dup4\n        /* \"#utility.yul\":948:965   */\n      add\n        /* \"#utility.yul\":941:988   */\n      mstore\n        /* \"#utility.yul\":1005:1136   */\n      tag_95\n        /* \"#utility.yul\":1131:1135   */\n      dup2\n        /* \"#utility.yul\":1005:1136   */\n      tag_67\n      jump\t// in\n    tag_95:\n        /* \"#utility.yul\":997:1136   */\n      swap1\n      pop\n        /* \"#utility.yul\":724:1143   */\n      swap2\n      swap1\n      pop\n      jump\t// out\n        /* \"#utility.yul\":1149:1226   */\n    tag_68:\n        /* \"#utility.yul\":1186:1193   */\n      0x00\n        /* \"#utility.yul\":1215:1220   */\n      dup2\n        /* \"#utility.yul\":1204:1220   */\n      swap1\n      pop\n        /* \"#utility.yul\":1149:1226   */\n      swap2\n      swap1\n      pop\n      jump\t// out\n        /* \"#utility.yul\":1232:1412   */\n    tag_69:\n        /* \"#utility.yul\":1280:1357   */\n      0x4e487b7100000000000000000000000000000000000000000000000000000000\n        /* \"#utility.yul\":1277:1278   */\n      0x00\n        /* \"#utility.yul\":1270:1358   */\n      mstore\n        /* \"#utility.yul\":1377:1381   */\n      0x11\n        /* \"#utility.yul\":1374:1375   */\n      0x04\n        /* \"#utility.yul\":1367:1382   */\n      mstore\n        /* \"#utility.yul\":1401:1405   */\n      0x24\n        /* \"#utility.yul\":1398:1399   */\n      0x00\n        /* \"#utility.yul\":1391:1406   */\n      revert\n        /* \"#utility.yul\":1418:1609   */\n    tag_14:\n        /* \"#utility.yul\":1458:1461   */\n      0x00\n        /* \"#utility.yul\":1477:1497   */\n      tag_99\n        /* \"#utility.yul\":1495:1496   */\n      dup3\n        /* \"#utility.yul\":1477:1497   */\n      tag_68\n      jump\t// in\n    tag_99:\n        /* \"#utility.yul\":1472:1497   */\n      swap2\n      pop\n        /* \"#utility.yul\":1511:1531   */\n      tag_100\n        /* \"#utility.yul\":1529:1530   */\n      dup4\n        /* \"#utility.yul\":1511:1531   */\n      tag_68\n      jump\t// in\n    tag_100:\n        /* \"#utility.yul\":1506:1531   */\n      swap3\n      pop\n        /* \"#utility.yul\":1554:1555   */\n      dup3\n        /* \"#utility.yul\":1551:1552   */\n      dup3\n        /* \"#utility.yul\":1547:1556   */\n      add\n        /* \"#utility.yul\":1540:1556   */\n      swap1\n      pop\n        /* \"#utility.yul\":1575:1578   */\n      dup1\n        /* \"#utility.yul\":1572:1573   */\n      dup3\n        /* \"#utility.yul\":1569:1579   */\n      gt\n        /* \"#utility.yul\":1566:1602   */\n      iszero\n      tag_101\n      jumpi\n        /* \"#utility.yul\":1582:1600   */\n      tag_102\n      tag_69\n      jump\t// in\n    tag_102:\n        /* \"#utility.yul\":1566:1602   */\n    tag_101:\n        /* \"#utility.yul\":1418:1609   */\n      swap3\n      swap2\n      pop\n      pop\n      jump\t// out\n        /* \"#utility.yul\":1615:1733   */\n    tag_70:\n        /* \"#utility.yul\":1702:1726   */\n      tag_104\n        /* \"#utility.yul\":1720:1725   */\n      dup2\n        /* \"#utility.yul\":1702:1726   */\n      tag_68\n      jump\t// in\n    tag_104:\n        /* \"#utility.yul\":1697:1700   */\n      dup3\n        /* \"#utility.yul\":1690:1727   */\n      mstore\n        /* \"#utility.yul\":1615:1733   */\n      pop\n      pop\n      jump\t// out\n        /* \"#utility.yul\":1739:1961   */\n    tag_16:\n        /* \"#utility.yul\":1832:1836   */\n      0x00\n        /* \"#utility.yul\":1870:1872   */\n      0x20\n        /* \"#utility.yul\":1859:1868   */\n      dup3\n        /* \"#utility.yul\":1855:1873   */\n      add\n        /* \"#utility.yul\":1847:1873   */\n      swap1\n      pop\n        /* \"#utility.yul\":1883:1954   */\n      tag_106\n        /* \"#utility.yul\":1951:1952   */\n      0x00\n        /* \"#utility.yul\":1940:1949   */\n      dup4\n        /* \"#utility.yul\":1936:1953   */\n      add\n        /* \"#utility.yul\":1927:1933   */\n      dup5\n        /* \"#utility.yul\":1883:1954   */\n      tag_70\n      jump\t// in\n    tag_106:\n        /* \"#utility.yul\":1739:1961   */\n      swap3\n      swap2\n      pop\n      pop\n      jump\t// out\n        /* \"#utility.yul\":2048:2165   */\n    tag_72:\n        /* \"#utility.yul\":2157:2158   */\n      0x00\n        /* \"#utility.yul\":2154:2155   */\n      0x00\n        /* \"#utility.yul\":2147:2159   */\n      revert\n        /* \"#utility.yul\":2294:2420   */\n    tag_74:\n        /* \"#utility.yul\":2331:2338   */\n      0x00\n        /* \"#utility.yul\":2371:2413   */\n      0xffffffffffffffffffffffffffffffffffffffff\n        /* \"#utility.yul\":2364:2369   */\n      dup3\n        /* \"#utility.yul\":2360:2414   */\n      and\n        /* \"#utility.yul\":2349:2414   */\n      swap1\n      pop\n        /* \"#utility.yul\":2294:2420   */\n      swap2\n      swap1\n      pop\n      jump\t// out\n        /* \"#utility.yul\":2426:2522   */\n    tag_75:\n        /* \"#utility.yul\":2463:2470   */\n      0x00\n        /* \"#utility.yul\":2492:2516   */\n      tag_112\n        /* \"#utility.yul\":2510:2515   */\n      dup3\n        /* \"#utility.yul\":2492:2516   */\n      tag_74\n      jump\t// in\n    tag_112:\n        /* \"#utility.yul\":2481:2516   */\n      swap1\n      pop\n        /* \"#utility.yul\":2426:2522   */\n      swap2\n      swap1\n      pop\n      jump\t// out\n        /* \"#utility.yul\":2528:2650   */\n    tag_76:\n        /* \"#utility.yul\":2601:2625   */\n      tag_114\n        /* \"#utility.yul\":2619:2624   */\n      dup2\n        /* \"#utility.yul\":2601:2625   */\n      tag_75\n      jump\t// in\n    tag_114:\n        /* \"#utility.yul\":2594:2599   */\n      dup2\n        /* \"#utility.yul\":2591:2626   */\n      eq\n        /* \"#utility.yul\":2581:2644   */\n      tag_115\n      jumpi\n        /* \"#utility.yul\":2640:2641   */\n      0x00\n        /* \"#utility.yul\":2637:2638   */\n      0x00\n        /* \"#utility.yul\":2630:2642   */\n      revert\n        /* \"#utility.yul\":2581:2644   */\n    tag_115:\n        /* \"#utility.yul\":2528:2650   */\n      pop\n      jump\t// out\n        /* \"#utility.yul\":2656:2795   */\n    tag_77:\n        /* \"#utility.yul\":2702:2707   */\n      0x00\n        /* \"#utility.yul\":2740:2746   */\n      dup2\n        /* \"#utility.yul\":2727:2747   */\n      calldataload\n        /* \"#utility.yul\":2718:2747   */\n      swap1\n      pop\n        /* \"#utility.yul\":2756:2789   */\n      tag_117\n        /* \"#utility.yul\":2783:2788   */\n      dup2\n        /* \"#utility.yul\":2756:2789   */\n      tag_76\n      jump\t// in\n    tag_117:\n        /* \"#utility.yul\":2656:2795   */\n      swap3\n      swap2\n      pop\n      pop\n      jump\t// out\n        /* \"#utility.yul\":2801:3130   */\n    tag_29:\n        /* \"#utility.yul\":2860:2866   */\n      0x00\n        /* \"#utility.yul\":2909:2911   */\n      0x20\n        /* \"#utility.yul\":2897:2906   */\n      dup3\n        /* \"#utility.yul\":2888:2895   */\n      dup5\n        /* \"#utility.yul\":2884:2907   */\n      sub\n        /* \"#utility.yul\":2880:2912   */\n      slt\n        /* \"#utility.yul\":2877:2996   */\n      iszero\n      tag_119\n      jumpi\n        /* \"#utility.yul\":2915:2994   */\n      tag_120\n      tag_72\n      jump\t// in\n    tag_120:\n        /* \"#utility.yul\":2877:2996   */\n    tag_119:\n        /* \"#utility.yul\":3035:3036   */\n      0x00\n        /* \"#utility.yul\":3060:3113   */\n      tag_121\n        /* \"#utility.yul\":3105:3112   */\n      dup5\n        /* \"#utility.yul\":3096:3102   */\n      dup3\n        /* \"#utility.yul\":3085:3094   */\n      dup6\n        /* \"#utility.yul\":3081:3103   */\n      add\n        /* \"#utility.yul\":3060:3113   */\n      tag_77\n      jump\t// in\n    tag_121:\n        /* \"#utility.yul\":3050:3113   */\n      swap2\n      pop\n        /* \"#utility.yul\":3006:3123   */\n      pop\n        /* \"#utility.yul\":2801:3130   */\n      swap3\n      swap2\n      pop\n      pop\n      jump\t// out\n        /* \"#utility.yul\":3136:3244   */\n    tag_78:\n        /* \"#utility.yul\":3213:3237   */\n      tag_123\n        /* \"#utility.yul\":3231:3236   */\n      dup2\n        /* \"#utility.yul\":3213:3237   */\n      tag_75\n      jump\t// in\n    tag_123:\n        /* \"#utility.yul\":3208:3211   */\n      dup3\n        /* \"#utility.yul\":3201:3238   */\n      mstore\n        /* \"#utility.yul\":3136:3244   */\n      pop\n      pop\n      jump\t// out\n        /* \"#utility.yul\":3250:3358   */\n    tag_79:\n        /* \"#utility.yul\":3327:3351   */\n      tag_125\n        /* \"#utility.yul\":3345:3350   */\n      dup2\n        /* \"#utility.yul\":3327:3351   */\n      tag_68\n      jump\t// in\n    tag_125:\n        /* \"#utility.yul\":3322:3325   */\n      dup3\n        /* \"#utility.yul\":3315:3352   */\n      mstore\n        /* \"#utility.yul\":3250:3358   */\n      pop\n      pop\n      jump\t// out\n        /* \"#utility.yul\":3432:3936   */\n    tag_80:\n        /* \"#utility.yul\":3573:3577   */\n      0x40\n        /* \"#utility.yul\":3568:3571   */\n      dup3\n        /* \"#utility.yul\":3564:3578   */\n      add\n        /* \"#utility.yul\":3662:3666   */\n      0x00\n        /* \"#utility.yul\":3655:3660   */\n      dup3\n        /* \"#utility.yul\":3651:3667   */\n      add\n        /* \"#utility.yul\":3645:3668   */\n      mload\n        /* \"#utility.yul\":3681:3744   */\n      tag_127\n        /* \"#utility.yul\":3738:3742   */\n      0x00\n        /* \"#utility.yul\":3733:3736   */\n      dup6\n        /* \"#utility.yul\":3729:3743   */\n      add\n        /* \"#utility.yul\":3715:3727   */\n      dup3\n        /* \"#utility.yul\":3681:3744   */\n      tag_78\n      jump\t// in\n    tag_127:\n        /* \"#utility.yul\":3588:3754   */\n      pop\n        /* \"#utility.yul\":3837:3841   */\n      0x20\n        /* \"#utility.yul\":3830:3835   */\n      dup3\n        /* \"#utility.yul\":3826:3842   */\n      add\n        /* \"#utility.yul\":3820:3843   */\n      mload\n        /* \"#utility.yul\":3856:3919   */\n      tag_128\n        /* \"#utility.yul\":3913:3917   */\n      0x20\n        /* \"#utility.yul\":3908:3911   */\n      dup6\n        /* \"#utility.yul\":3904:3918   */\n      add\n        /* \"#utility.yul\":3890:3902   */\n      dup3\n        /* \"#utility.yul\":3856:3919   */\n      tag_79\n      jump\t// in\n    tag_128:\n        /* \"#utility.yul\":3764:3929   */\n      pop\n        /* \"#utility.yul\":3542:3936   */\n      pop\n        /* \"#utility.yul\":3432:3936   */\n      pop\n      pop\n      jump\t// out\n        /* \"#utility.yul\":3942:4252   */\n    tag_36:\n        /* \"#utility.yul\":4079:4083   */\n      0x00\n        /* \"#utility.yul\":4117:4119   */\n      0x40\n        /* \"#utility.yul\":4106:4115   */\n      dup3\n        /* \"#utility.yul\":4102:4120   */\n      add\n        /* \"#utility.yul\":4094:4120   */\n      swap1\n      pop\n        /* \"#utility.yul\":4130:4245   */\n      tag_130\n        /* \"#utility.yul\":4242:4243   */\n      0x00\n        /* \"#utility.yul\":4231:4240   */\n      dup4\n        /* \"#utility.yul\":4227:4244   */\n      add\n        /* \"#utility.yul\":4218:4224   */\n      dup5\n        /* \"#utility.yul\":4130:4245   */\n      tag_80\n      jump\t// in\n    tag_130:\n        /* \"#utility.yul\":3942:4252   */\n      swap3\n      swap2\n      pop\n      pop\n      jump\t// out\n        /* \"#utility.yul\":4258:4376   */\n    tag_81:\n        /* \"#utility.yul\":4345:4369   */\n      tag_132\n        /* \"#utility.yul\":4363:4368   */\n      dup2\n        /* \"#utility.yul\":4345:4369   */\n      tag_75\n      jump\t// in\n    tag_132:\n        /* \"#utility.yul\":4340:4343   */\n      dup3\n        /* \"#utility.yul\":4333:4370   */\n      mstore\n        /* \"#utility.yul\":4258:4376   */\n      pop\n      pop\n      jump\t// out\n        /* \"#utility.yul\":4382:4604   */\n    tag_41:\n        /* \"#utility.yul\":4475:4479   */\n      0x00\n        /* \"#utility.yul\":4513:4515   */\n      0x20\n        /* \"#utility.yul\":4502:4511   */\n      dup3\n        /* \"#utility.yul\":4498:4516   */\n      add\n        /* \"#utility.yul\":4490:4516   */\n      swap1\n      pop\n        /* \"#utility.yul\":4526:4597   */\n      tag_134\n        /* \"#utility.yul\":4594:4595   */\n      0x00\n        /* \"#utility.yul\":4583:4592   */\n      dup4\n        /* \"#utility.yul\":4579:4596   */\n      add\n        /* \"#utility.yul\":4570:4576   */\n      dup5\n        /* \"#utility.yul\":4526:4597   */\n      tag_81\n      jump\t// in\n    tag_134:\n        /* \"#utility.yul\":4382:4604   */\n      swap3\n      swap2\n      pop\n      pop\n      jump\t// out\n        /* \"#utility.yul\":4610:4773   */\n    tag_82:\n        /* \"#utility.yul\":4750:4765   */\n      0x6d757374206265206f776e657200000000000000000000000000000000000000\n        /* \"#utility.yul\":4746:4747   */\n      0x00\n        /* \"#utility.yul\":4738:4744   */\n      dup3\n        /* \"#utility.yul\":4734:4748   */\n      add\n        /* \"#utility.yul\":4727:4766   */\n      mstore\n        /* \"#utility.yul\":4610:4773   */\n      pop\n      jump\t// out\n        /* \"#utility.yul\":4779:5145   */\n    tag_83:\n        /* \"#utility.yul\":4921:4924   */\n      0x00\n        /* \"#utility.yul\":4942:5009   */\n      tag_137\n        /* \"#utility.yul\":5006:5008   */\n      0x0d\n        /* \"#utility.yul\":5001:5004   */\n      dup4\n        /* \"#utility.yul\":4942:5009   */\n      tag_65\n      jump\t// in\n    tag_137:\n        /* \"#utility.yul\":4935:5009   */\n      swap2\n      pop\n        /* \"#utility.yul\":5018:5111   */\n      tag_138\n        /* \"#utility.yul\":5107:5110   */\n      dup3\n        /* \"#utility.yul\":5018:5111   */\n      tag_82\n      jump\t// in\n    tag_138:\n        /* \"#utility.yul\":5136:5138   */\n      0x20\n        /* \"#utility.yul\":5131:5134   */\n      dup3\n        /* \"#utility.yul\":5127:5139   */\n      add\n        /* \"#utility.yul\":5120:5139   */\n      swap1\n      pop\n        /* \"#utility.yul\":4779:5145   */\n      swap2\n      swap1\n      pop\n      jump\t// out\n        /* \"#utility.yul\":5151:5570   */\n    tag_47:\n        /* \"#utility.yul\":5317:5321   */\n      0x00\n        /* \"#utility.yul\":5355:5357   */\n      0x20\n        /* \"#utility.yul\":5344:5353   */\n      dup3\n        /* \"#utility.yul\":5340:5358   */\n      add\n        /* \"#utility.yul\":5332:5358   */\n      swap1\n      pop\n        /* \"#utility.yul\":5404:5413   */\n      dup2\n        /* \"#utility.yul\":5398:5402   */\n      dup2\n        /* \"#utility.yul\":5394:5414   */\n      sub\n        /* \"#utility.yul\":5390:5391   */\n      0x00\n        /* \"#utility.yul\":5379:5388   */\n      dup4\n        /* \"#utility.yul\":5375:5392   */\n      add\n        /* \"#utility.yul\":5368:5415   */\n      mstore\n        /* \"#utility.yul\":5432:5563   */\n      tag_140\n        /* \"#utility.yul\":5558:5562   */\n      dup2\n        /* \"#utility.yul\":5432:5563   */\n      tag_83\n      jump\t// in\n    tag_140:\n        /* \"#utility.yul\":5424:5563   */\n      swap1\n      pop\n        /* \"#utility.yul\":5151:5570   */\n      swap2\n      swap1\n      pop\n      jump\t// out\n        /* \"#utility.yul\":5576:5745   */\n    tag_84:\n        /* \"#utility.yul\":5716:5737   */\n      0x616464726573732063616e6e6f74206265203000000000000000000000000000\n        /* \"#utility.yul\":5712:5713   */\n      0x00\n        /* \"#utility.yul\":5704:5710   */\n      dup3\n        /* \"#utility.yul\":5700:5714   */\n      add\n        /* \"#utility.yul\":5693:5738   */\n      mstore\n        /* \"#utility.yul\":5576:5745   */\n      pop\n      jump\t// out\n        /* \"#utility.yul\":5751:6117   */\n    tag_85:\n        /* \"#utility.yul\":5893:5896   */\n      0x00\n        /* \"#utility.yul\":5914:5981   */\n      tag_143\n        /* \"#utility.yul\":5978:5980   */\n      0x13\n        /* \"#utility.yul\":5973:5976   */\n      dup4\n        /* \"#utility.yul\":5914:5981   */\n      tag_65\n      jump\t// in\n    tag_143:\n        /* \"#utility.yul\":5907:5981   */\n      swap2\n      pop\n        /* \"#utility.yul\":5990:6083   */\n      tag_144\n        /* \"#utility.yul\":6079:6082   */\n      dup3\n        /* \"#utility.yul\":5990:6083   */\n      tag_84\n      jump\t// in\n    tag_144:\n        /* \"#utility.yul\":6108:6110   */\n      0x20\n        /* \"#utility.yul\":6103:6106   */\n      dup3\n        /* \"#utility.yul\":6099:6111   */\n      add\n        /* \"#utility.yul\":6092:6111   */\n      swap1\n      pop\n        /* \"#utility.yul\":5751:6117   */\n      swap2\n      swap1\n      pop\n      jump\t// out\n        /* \"#utility.yul\":6123:6542   */\n    tag_55:\n        /* \"#utility.yul\":6289:6293   */\n      0x00\n        /* \"#utility.yul\":6327:6329   */\n      0x20\n        /* \"#utility.yul\":6316:6325   */\n      dup3\n        /* \"#utility.yul\":6312:6330   */\n      add\n        /* \"#utility.yul\":6304:6330   */\n      swap1\n      pop\n        /* \"#utility.yul\":6376:6385   */\n      dup2\n        /* \"#utility.yul\":6370:6374   */\n      dup2\n        /* \"#utility.yul\":6366:6386   */\n      sub\n        /* \"#utility.yul\":6362:6363   */\n      0x00\n        /* \"#utility.yul\":6351:6360   */\n      dup4\n        /* \"#utility.yul\":6347:6364   */\n      add\n        /* \"#utility.yul\":6340:6387   */\n      mstore\n        /* \"#utility.yul\":6404:6535   */\n      tag_146\n        /* \"#utility.yul\":6530:6534   */\n      dup2\n        /* \"#utility.yul\":6404:6535   */\n      tag_85\n      jump\t// in\n    tag_146:\n        /* \"#utility.yul\":6396:6535   */\n      swap1\n      pop\n        /* \"#utility.yul\":6123:6542   */\n      swap2\n      swap1\n      pop\n      jump\t// out\n        /* \"#utility.yul\":6548:6712   */\n    tag_86:\n        /* \"#utility.yul\":6688:6704   */\n      0x6e6f7420656e6f75676820657468000000000000000000000000000000000000\n        /* \"#utility.yul\":6684:6685   */\n      0x00\n        /* \"#utility.yul\":6676:6682   */\n      dup3\n        /* \"#utility.yul\":6672:6686   */\n      add\n        /* \"#utility.yul\":6665:6705   */\n      mstore\n        /* \"#utility.yul\":6548:6712   */\n      pop\n      jump\t// out\n        /* \"#utility.yul\":6718:7084   */\n    tag_87:\n        /* \"#utility.yul\":6860:6863   */\n      0x00\n        /* \"#utility.yul\":6881:6948   */\n      tag_149\n        /* \"#utility.yul\":6945:6947   */\n      0x0e\n        /* \"#utility.yul\":6940:6943   */\n      dup4\n        /* \"#utility.yul\":6881:6948   */\n      tag_65\n      jump\t// in\n    tag_149:\n        /* \"#utility.yul\":6874:6948   */\n      swap2\n      pop\n        /* \"#utility.yul\":6957:7050   */\n      tag_150\n        /* \"#utility.yul\":7046:7049   */\n      dup3\n        /* \"#utility.yul\":6957:7050   */\n      tag_86\n      jump\t// in\n    tag_150:\n        /* \"#utility.yul\":7075:7077   */\n      0x20\n        /* \"#utility.yul\":7070:7073   */\n      dup3\n        /* \"#utility.yul\":7066:7078   */\n      add\n        /* \"#utility.yul\":7059:7078   */\n      swap1\n      pop\n        /* \"#utility.yul\":6718:7084   */\n      swap2\n      swap1\n      pop\n      jump\t// out\n        /* \"#utility.yul\":7090:7509   */\n    tag_62:\n        /* \"#utility.yul\":7256:7260   */\n      0x00\n        /* \"#utility.yul\":7294:7296   */\n      0x20\n        /* \"#utility.yul\":7283:7292   */\n      dup3\n        /* \"#utility.yul\":7279:7297   */\n      add\n        /* \"#utility.yul\":7271:7297   */\n      swap1\n      pop\n        /* \"#utility.yul\":7343:7352   */\n      dup2\n        /* \"#utility.yul\":7337:7341   */\n      dup2\n        /* \"#utility.yul\":7333:7353   */\n      sub\n        /* \"#utility.yul\":7329:7330   */\n      0x00\n        /* \"#utility.yul\":7318:7327   */\n      dup4\n        /* \"#utility.yul\":7314:7331   */\n      add\n        /* \"#utility.yul\":7307:7354   */\n      mstore\n        /* \"#utility.yul\":7371:7502   */\n      tag_152\n        /* \"#utility.yul\":7497:7501   */\n      dup2\n        /* \"#utility.yul\":7371:7502   */\n      tag_87\n      jump\t// in\n    tag_152:\n        /* \"#utility.yul\":7363:7502   */\n      swap1\n      pop\n        /* \"#utility.yul\":7090:7509   */\n      swap2\n      swap1\n      pop\n      jump\t// out\n\n    auxdata: 0xa2646970667358221220d1541c997448e730433a5c77f64b906734f04db191f1f78d48a796446ba2ac3464736f6c634300081e0033\n}\n",
				"bytecode": {
					"linkReferences": {},
					"object": "6080604052348015600e575f5ffd5b503360015f6101000a81548173ffffffffffffffffffffffffffffffffffffffff021916908373ffffffffffffffffffffffffffffffffffffffff1602179055506109808061005c5f395ff3fe60806040526004361061004d575f3560e01c80633ccfd60b1461021c578063410a1d32146102325780635569c4ff1461026e5780638da5cb5b14610298578063ed88c68e146102c257610137565b36610137575f341015610095576040517f08c379a000000000000000000000000000000000000000000000000000000000815260040161008c9061064e565b60405180910390fd5b345f5f3373ffffffffffffffffffffffffffffffffffffffff1673ffffffffffffffffffffffffffffffffffffffff1681526020019081526020015f205f8282546100e091906106a2565b925050819055503373ffffffffffffffffffffffffffffffffffffffff167f5d8bc849764969eb1bcc6d0a2f55999d0167c1ccec240a4f39cf664ca9c4148e3460405161012d91906106e4565b60405180910390a2005b5f34101561017a576040517f08c379a00000000000000000000000000000000000000000000000000000000081526004016101719061064e565b60405180910390fd5b345f5f3373ffffffffffffffffffffffffffffffffffffffff1673ffffffffffffffffffffffffffffffffffffffff1681526020019081526020015f205f8282546101c591906106a2565b925050819055503373ffffffffffffffffffffffffffffffffffffffff167f5d8bc849764969eb1bcc6d0a2f55999d0167c1ccec240a4f39cf664ca9c4148e3460405161021291906106e4565b60405180910390a2005b348015610227575f5ffd5b506102306102cc565b005b34801561023d575f5ffd5b506102586004803603810190610253919061075b565b6103fe565b60405161026591906106e4565b60405180910390f35b348015610279575f5ffd5b506102826104b1565b60405161028f91906107d1565b60405180910390f35b3480156102a3575f5ffd5b506102ac6104bc565b6040516102b991906107f9565b60405180910390f35b6102ca6104e1565b005b60015f9054906101000a900473ffffffffffffffffffffffffffffffffffffffff1673ffffffffffffffffffffffffffffffffffffffff163373ffffffffffffffffffffffffffffffffffffffff161461035b576040517f08c379a00000000000000000000000000000000000000000000000000000000081526004016103529061085c565b60405180910390fd5b5f47905060015f9054906101000a900473ffffffffffffffffffffffffffffffffffffffff1673ffffffffffffffffffffffffffffffffffffffff166108fc8290811502906040515f60405180830381858888f193505050501580156103c3573d5f5f3e3d5ffd5b507f5b6b431d4476a211bb7d41c20d1aab9ae2321deee0d20be3d9fc9b1093fa6e3d816040516103f391906106e4565b60405180910390a150565b5f5f73ffffffffffffffffffffffffffffffffffffffff168273ffffffffffffffffffffffffffffffffffffffff160361046d576040517f08c379a0000000000000000000000000000000000000000000000000000000008152600401610464906108c4565b60405180910390fd5b5f5f8373ffffffffffffffffffffffffffffffffffffffff1673ffffffffffffffffffffffffffffffffffffffff1681526020019081526020015f20549050919050565b6104b96105c6565b90565b60015f9054906101000a900473ffffffffffffffffffffffffffffffffffffffff1681565b5f341015610524576040517f08c379a000000000000000000000000000000000000000000000000000000000815260040161051b9061092c565b60405180910390fd5b345f5f3373ffffffffffffffffffffffffffffffffffffffff1673ffffffffffffffffffffffffffffffffffffffff1681526020019081526020015f205f82825461056f91906106a2565b925050819055503373ffffffffffffffffffffffffffffffffffffffff167f5d8bc849764969eb1bcc6d0a2f55999d0167c1ccec240a4f39cf664ca9c4148e346040516105bc91906106e4565b60405180910390a2565b60405180604001604052805f73ffffffffffffffffffffffffffffffffffffffff1681526020015f81525090565b5f82825260208201905092915050565b7f4e6f7420656e6f756768206574680000000000000000000000000000000000005f82015250565b5f610638600e836105f4565b915061064382610604565b602082019050919050565b5f6020820190508181035f8301526106658161062c565b9050919050565b5f819050919050565b7f4e487b71000000000000000000000000000000000000000000000000000000005f52601160045260245ffd5b5f6106ac8261066c565b91506106b78361066c565b92508282019050808211156106cf576106ce610675565b5b92915050565b6106de8161066c565b82525050565b5f6020820190506106f75f8301846106d5565b92915050565b5f5ffd5b5f73ffffffffffffffffffffffffffffffffffffffff82169050919050565b5f61072a82610701565b9050919050565b61073a81610720565b8114610744575f5ffd5b50565b5f8135905061075581610731565b92915050565b5f602082840312156107705761076f6106fd565b5b5f61077d84828501610747565b91505092915050565b61078f81610720565b82525050565b61079e8161066c565b82525050565b604082015f8201516107b85f850182610786565b5060208201516107cb6020850182610795565b50505050565b5f6040820190506107e45f8301846107a4565b92915050565b6107f381610720565b82525050565b5f60208201905061080c5f8301846107ea565b92915050565b7f6d757374206265206f776e6572000000000000000000000000000000000000005f82015250565b5f610846600d836105f4565b915061085182610812565b602082019050919050565b5f6020820190508181035f8301526108738161083a565b9050919050565b7f616464726573732063616e6e6f742062652030000000000000000000000000005f82015250565b5f6108ae6013836105f4565b91506108b98261087a565b602082019050919050565b5f6020820190508181035f8301526108db816108a2565b9050919050565b7f6e6f7420656e6f756768206574680000000000000000000000000000000000005f82015250565b5f610916600e836105f4565b9150610921826108e2565b602082019050919050565b5f6020820190508181035f8301526109438161090a565b905091905056fea2646970667358221220d1541c997448e730433a5c77f64b906734f04db191f1f78d48a796446ba2ac3464736f6c634300081e0033",
					"opcodes": "PUSH1 0x80 PUSH1 0x40 MSTORE CALLVALUE DUP1 ISZERO PUSH1 0xE JUMPI PUSH0 PUSH0 REVERT JUMPDEST POP CALLER PUSH1 0x1 PUSH0 PUSH2 0x100 EXP DUP2 SLOAD DUP2 PUSH20 0xFFFFFFFFFFFFFFFFFFFFFFFFFFFFFFFFFFFFFFFF MUL NOT AND SWAP1 DUP4 PUSH20 0xFFFFFFFFFFFFFFFFFFFFFFFFFFFFFFFFFFFFFFFF AND MUL OR SWAP1 SSTORE POP PUSH2 0x980 DUP1 PUSH2 0x5C PUSH0 CODECOPY PUSH0 RETURN INVALID PUSH1 0x80 PUSH1 0x40 MSTORE PUSH1 0x4 CALLDATASIZE LT PUSH2 0x4D JUMPI PUSH0 CALLDATALOAD PUSH1 0xE0 SHR DUP1 PUSH4 0x3CCFD60B EQ PUSH2 0x21C JUMPI DUP1 PUSH4 0x410A1D32 EQ PUSH2 0x232 JUMPI DUP1 PUSH4 0x5569C4FF EQ PUSH2 0x26E JUMPI DUP1 PUSH4 0x8DA5CB5B EQ PUSH2 0x298 JUMPI DUP1 PUSH4 0xED88C68E EQ PUSH2 0x2C2 JUMPI PUSH2 0x137 JUMP JUMPDEST CALLDATASIZE PUSH2 0x137 JUMPI PUSH0 CALLVALUE LT ISZERO PUSH2 0x95 JUMPI PUSH1 0x40 MLOAD PUSH32 0x8C379A000000000000000000000000000000000000000000000000000000000 DUP2 MSTORE PUSH1 0x4 ADD PUSH2 0x8C SWAP1 PUSH2 0x64E JUMP JUMPDEST PUSH1 0x40 MLOAD DUP1 SWAP2 SUB SWAP1 REVERT JUMPDEST CALLVALUE PUSH0 PUSH0 CALLER PUSH20 0xFFFFFFFFFFFFFFFFFFFFFFFFFFFFFFFFFFFFFFFF AND PUSH20 0xFFFFFFFFFFFFFFFFFFFFFFFFFFFFFFFFFFFFFFFF AND DUP2 MSTORE PUSH1 0x20 ADD SWAP1 DUP2 MSTORE PUSH1 0x20 ADD PUSH0 KECCAK256 PUSH0 DUP3 DUP3 SLOAD PUSH2 0xE0 SWAP2 SWAP1 PUSH2 0x6A2 JUMP JUMPDEST SWAP3 POP POP DUP2 SWAP1 SSTORE POP CALLER PUSH20 0xFFFFFFFFFFFFFFFFFFFFFFFFFFFFFFFFFFFFFFFF AND PUSH32 0x5D8BC849764969EB1BCC6D0A2F55999D0167C1CCEC240A4F39CF664CA9C4148E CALLVALUE PUSH1 0x40 MLOAD PUSH2 0x12D SWAP2 SWAP1 PUSH2 0x6E4 JUMP JUMPDEST PUSH1 0x40 MLOAD DUP1 SWAP2 SUB SWAP1 LOG2 STOP JUMPDEST PUSH0 CALLVALUE LT ISZERO PUSH2 0x17A JUMPI PUSH1 0x40 MLOAD PUSH32 0x8C379A000000000000000000000000000000000000000000000000000000000 DUP2 MSTORE PUSH1 0x4 ADD PUSH2 0x171 SWAP1 PUSH2 0x64E JUMP JUMPDEST PUSH1 0x40 MLOAD DUP1 SWAP2 SUB SWAP1 REVERT JUMPDEST CALLVALUE PUSH0 PUSH0 CALLER PUSH20 0xFFFFFFFFFFFFFFFFFFFFFFFFFFFFFFFFFFFFFFFF AND PUSH20 0xFFFFFFFFFFFFFFFFFFFFFFFFFFFFFFFFFFFFFFFF AND DUP2 MSTORE PUSH1 0x20 ADD SWAP1 DUP2 MSTORE PUSH1 0x20 ADD PUSH0 KECCAK256 PUSH0 DUP3 DUP3 SLOAD PUSH2 0x1C5 SWAP2 SWAP1 PUSH2 0x6A2 JUMP JUMPDEST SWAP3 POP POP DUP2 SWAP1 SSTORE POP CALLER PUSH20 0xFFFFFFFFFFFFFFFFFFFFFFFFFFFFFFFFFFFFFFFF AND PUSH32 0x5D8BC849764969EB1BCC6D0A2F55999D0167C1CCEC240A4F39CF664CA9C4148E CALLVALUE PUSH1 0x40 MLOAD PUSH2 0x212 SWAP2 SWAP1 PUSH2 0x6E4 JUMP JUMPDEST PUSH1 0x40 MLOAD DUP1 SWAP2 SUB SWAP1 LOG2 STOP JUMPDEST CALLVALUE DUP1 ISZERO PUSH2 0x227 JUMPI PUSH0 PUSH0 REVERT JUMPDEST POP PUSH2 0x230 PUSH2 0x2CC JUMP JUMPDEST STOP JUMPDEST CALLVALUE DUP1 ISZERO PUSH2 0x23D JUMPI PUSH0 PUSH0 REVERT JUMPDEST POP PUSH2 0x258 PUSH1 0x4 DUP1 CALLDATASIZE SUB DUP2 ADD SWAP1 PUSH2 0x253 SWAP2 SWAP1 PUSH2 0x75B JUMP JUMPDEST PUSH2 0x3FE JUMP JUMPDEST PUSH1 0x40 MLOAD PUSH2 0x265 SWAP2 SWAP1 PUSH2 0x6E4 JUMP JUMPDEST PUSH1 0x40 MLOAD DUP1 SWAP2 SUB SWAP1 RETURN JUMPDEST CALLVALUE DUP1 ISZERO PUSH2 0x279 JUMPI PUSH0 PUSH0 REVERT JUMPDEST POP PUSH2 0x282 PUSH2 0x4B1 JUMP JUMPDEST PUSH1 0x40 MLOAD PUSH2 0x28F SWAP2 SWAP1 PUSH2 0x7D1 JUMP JUMPDEST PUSH1 0x40 MLOAD DUP1 SWAP2 SUB SWAP1 RETURN JUMPDEST CALLVALUE DUP1 ISZERO PUSH2 0x2A3 JUMPI PUSH0 PUSH0 REVERT JUMPDEST POP PUSH2 0x2AC PUSH2 0x4BC JUMP JUMPDEST PUSH1 0x40 MLOAD PUSH2 0x2B9 SWAP2 SWAP1 PUSH2 0x7F9 JUMP JUMPDEST PUSH1 0x40 MLOAD DUP1 SWAP2 SUB SWAP1 RETURN JUMPDEST PUSH2 0x2CA PUSH2 0x4E1 JUMP JUMPDEST STOP JUMPDEST PUSH1 0x1 PUSH0 SWAP1 SLOAD SWAP1 PUSH2 0x100 EXP SWAP1 DIV PUSH20 0xFFFFFFFFFFFFFFFFFFFFFFFFFFFFFFFFFFFFFFFF AND PUSH20 0xFFFFFFFFFFFFFFFFFFFFFFFFFFFFFFFFFFFFFFFF AND CALLER PUSH20 0xFFFFFFFFFFFFFFFFFFFFFFFFFFFFFFFFFFFFFFFF AND EQ PUSH2 0x35B JUMPI PUSH1 0x40 MLOAD PUSH32 0x8C379A000000000000000000000000000000000000000000000000000000000 DUP2 MSTORE PUSH1 0x4 ADD PUSH2 0x352 SWAP1 PUSH2 0x85C JUMP JUMPDEST PUSH1 0x40 MLOAD DUP1 SWAP2 SUB SWAP1 REVERT JUMPDEST PUSH0 SELFBALANCE SWAP1 POP PUSH1 0x1 PUSH0 SWAP1 SLOAD SWAP1 PUSH2 0x100 EXP SWAP1 DIV PUSH20 0xFFFFFFFFFFFFFFFFFFFFFFFFFFFFFFFFFFFFFFFF AND PUSH20 0xFFFFFFFFFFFFFFFFFFFFFFFFFFFFFFFFFFFFFFFF AND PUSH2 0x8FC DUP3 SWAP1 DUP2 ISZERO MUL SWAP1 PUSH1 0x40 MLOAD PUSH0 PUSH1 0x40 MLOAD DUP1 DUP4 SUB DUP2 DUP6 DUP9 DUP9 CALL SWAP4 POP POP POP POP ISZERO DUP1 ISZERO PUSH2 0x3C3 JUMPI RETURNDATASIZE PUSH0 PUSH0 RETURNDATACOPY RETURNDATASIZE PUSH0 REVERT JUMPDEST POP PUSH32 0x5B6B431D4476A211BB7D41C20D1AAB9AE2321DEEE0D20BE3D9FC9B1093FA6E3D DUP2 PUSH1 0x40 MLOAD PUSH2 0x3F3 SWAP2 SWAP1 PUSH2 0x6E4 JUMP JUMPDEST PUSH1 0x40 MLOAD DUP1 SWAP2 SUB SWAP1 LOG1 POP JUMP JUMPDEST PUSH0 PUSH0 PUSH20 0xFFFFFFFFFFFFFFFFFFFFFFFFFFFFFFFFFFFFFFFF AND DUP3 PUSH20 0xFFFFFFFFFFFFFFFFFFFFFFFFFFFFFFFFFFFFFFFF AND SUB PUSH2 0x46D JUMPI PUSH1 0x40 MLOAD PUSH32 0x8C379A000000000000000000000000000000000000000000000000000000000 DUP2 MSTORE PUSH1 0x4 ADD PUSH2 0x464 SWAP1 PUSH2 0x8C4 JUMP JUMPDEST PUSH1 0x40 MLOAD DUP1 SWAP2 SUB SWAP1 REVERT JUMPDEST PUSH0 PUSH0 DUP4 PUSH20 0xFFFFFFFFFFFFFFFFFFFFFFFFFFFFFFFFFFFFFFFF AND PUSH20 0xFFFFFFFFFFFFFFFFFFFFFFFFFFFFFFFFFFFFFFFF AND DUP2 MSTORE PUSH1 0x20 ADD SWAP1 DUP2 MSTORE PUSH1 0x20 ADD PUSH0 KECCAK256 SLOAD SWAP1 POP SWAP2 SWAP1 POP JUMP JUMPDEST PUSH2 0x4B9 PUSH2 0x5C6 JUMP JUMPDEST SWAP1 JUMP JUMPDEST PUSH1 0x1 PUSH0 SWAP1 SLOAD SWAP1 PUSH2 0x100 EXP SWAP1 DIV PUSH20 0xFFFFFFFFFFFFFFFFFFFFFFFFFFFFFFFFFFFFFFFF AND DUP2 JUMP JUMPDEST PUSH0 CALLVALUE LT ISZERO PUSH2 0x524 JUMPI PUSH1 0x40 MLOAD PUSH32 0x8C379A000000000000000000000000000000000000000000000000000000000 DUP2 MSTORE PUSH1 0x4 ADD PUSH2 0x51B SWAP1 PUSH2 0x92C JUMP JUMPDEST PUSH1 0x40 MLOAD DUP1 SWAP2 SUB SWAP1 REVERT JUMPDEST CALLVALUE PUSH0 PUSH0 CALLER PUSH20 0xFFFFFFFFFFFFFFFFFFFFFFFFFFFFFFFFFFFFFFFF AND PUSH20 0xFFFFFFFFFFFFFFFFFFFFFFFFFFFFFFFFFFFFFFFF AND DUP2 MSTORE PUSH1 0x20 ADD SWAP1 DUP2 MSTORE PUSH1 0x20 ADD PUSH0 KECCAK256 PUSH0 DUP3 DUP3 SLOAD PUSH2 0x56F SWAP2 SWAP1 PUSH2 0x6A2 JUMP JUMPDEST SWAP3 POP POP DUP2 SWAP1 SSTORE POP CALLER PUSH20 0xFFFFFFFFFFFFFFFFFFFFFFFFFFFFFFFFFFFFFFFF AND PUSH32 0x5D8BC849764969EB1BCC6D0A2F55999D0167C1CCEC240A4F39CF664CA9C4148E CALLVALUE PUSH1 0x40 MLOAD PUSH2 0x5BC SWAP2 SWAP1 PUSH2 0x6E4 JUMP JUMPDEST PUSH1 0x40 MLOAD DUP1 SWAP2 SUB SWAP1 LOG2 JUMP JUMPDEST PUSH1 0x40 MLOAD DUP1 PUSH1 0x40 ADD PUSH1 0x40 MSTORE DUP1 PUSH0 PUSH20 0xFFFFFFFFFFFFFFFFFFFFFFFFFFFFFFFFFFFFFFFF AND DUP2 MSTORE PUSH1 0x20 ADD PUSH0 DUP2 MSTORE POP SWAP1 JUMP JUMPDEST PUSH0 DUP3 DUP3 MSTORE PUSH1 0x20 DUP3 ADD SWAP1 POP SWAP3 SWAP2 POP POP JUMP JUMPDEST PUSH32 0x4E6F7420656E6F75676820657468000000000000000000000000000000000000 PUSH0 DUP3 ADD MSTORE POP JUMP JUMPDEST PUSH0 PUSH2 0x638 PUSH1 0xE DUP4 PUSH2 0x5F4 JUMP JUMPDEST SWAP2 POP PUSH2 0x643 DUP3 PUSH2 0x604 JUMP JUMPDEST PUSH1 0x20 DUP3 ADD SWAP1 POP SWAP2 SWAP1 POP JUMP JUMPDEST PUSH0 PUSH1 0x20 DUP3 ADD SWAP1 POP DUP2 DUP2 SUB PUSH0 DUP4 ADD MSTORE PUSH2 0x665 DUP2 PUSH2 0x62C JUMP JUMPDEST SWAP1 POP SWAP2 SWAP1 POP JUMP JUMPDEST PUSH0 DUP2 SWAP1 POP SWAP2 SWAP1 POP JUMP JUMPDEST PUSH32 0x4E487B7100000000000000000000000000000000000000000000000000000000 PUSH0 MSTORE PUSH1 0x11 PUSH1 0x4 MSTORE PUSH1 0x24 PUSH0 REVERT JUMPDEST PUSH0 PUSH2 0x6AC DUP3 PUSH2 0x66C JUMP JUMPDEST SWAP2 POP PUSH2 0x6B7 DUP4 PUSH2 0x66C JUMP JUMPDEST SWAP3 POP DUP3 DUP3 ADD SWAP1 POP DUP1 DUP3 GT ISZERO PUSH2 0x6CF JUMPI PUSH2 0x6CE PUSH2 0x675 JUMP JUMPDEST JUMPDEST SWAP3 SWAP2 POP POP JUMP JUMPDEST PUSH2 0x6DE DUP2 PUSH2 0x66C JUMP JUMPDEST DUP3 MSTORE POP POP JUMP JUMPDEST PUSH0 PUSH1 0x20 DUP3 ADD SWAP1 POP PUSH2 0x6F7 PUSH0 DUP4 ADD DUP5 PUSH2 0x6D5 JUMP JUMPDEST SWAP3 SWAP2 POP POP JUMP JUMPDEST PUSH0 PUSH0 REVERT JUMPDEST PUSH0 PUSH20 0xFFFFFFFFFFFFFFFFFFFFFFFFFFFFFFFFFFFFFFFF DUP3 AND SWAP1 POP SWAP2 SWAP1 POP JUMP JUMPDEST PUSH0 PUSH2 0x72A DUP3 PUSH2 0x701 JUMP JUMPDEST SWAP1 POP SWAP2 SWAP1 POP JUMP JUMPDEST PUSH2 0x73A DUP2 PUSH2 0x720 JUMP JUMPDEST DUP2 EQ PUSH2 0x744 JUMPI PUSH0 PUSH0 REVERT JUMPDEST POP JUMP JUMPDEST PUSH0 DUP2 CALLDATALOAD SWAP1 POP PUSH2 0x755 DUP2 PUSH2 0x731 JUMP JUMPDEST SWAP3 SWAP2 POP POP JUMP JUMPDEST PUSH0 PUSH1 0x20 DUP3 DUP5 SUB SLT ISZERO PUSH2 0x770 JUMPI PUSH2 0x76F PUSH2 0x6FD JUMP JUMPDEST JUMPDEST PUSH0 PUSH2 0x77D DUP5 DUP3 DUP6 ADD PUSH2 0x747 JUMP JUMPDEST SWAP2 POP POP SWAP3 SWAP2 POP POP JUMP JUMPDEST PUSH2 0x78F DUP2 PUSH2 0x720 JUMP JUMPDEST DUP3 MSTORE POP POP JUMP JUMPDEST PUSH2 0x79E DUP2 PUSH2 0x66C JUMP JUMPDEST DUP3 MSTORE POP POP JUMP JUMPDEST PUSH1 0x40 DUP3 ADD PUSH0 DUP3 ADD MLOAD PUSH2 0x7B8 PUSH0 DUP6 ADD DUP3 PUSH2 0x786 JUMP JUMPDEST POP PUSH1 0x20 DUP3 ADD MLOAD PUSH2 0x7CB PUSH1 0x20 DUP6 ADD DUP3 PUSH2 0x795 JUMP JUMPDEST POP POP POP POP JUMP JUMPDEST PUSH0 PUSH1 0x40 DUP3 ADD SWAP1 POP PUSH2 0x7E4 PUSH0 DUP4 ADD DUP5 PUSH2 0x7A4 JUMP JUMPDEST SWAP3 SWAP2 POP POP JUMP JUMPDEST PUSH2 0x7F3 DUP2 PUSH2 0x720 JUMP JUMPDEST DUP3 MSTORE POP POP JUMP JUMPDEST PUSH0 PUSH1 0x20 DUP3 ADD SWAP1 POP PUSH2 0x80C PUSH0 DUP4 ADD DUP5 PUSH2 0x7EA JUMP JUMPDEST SWAP3 SWAP2 POP POP JUMP JUMPDEST PUSH32 0x6D757374206265206F776E657200000000000000000000000000000000000000 PUSH0 DUP3 ADD MSTORE POP JUMP JUMPDEST PUSH0 PUSH2 0x846 PUSH1 0xD DUP4 PUSH2 0x5F4 JUMP JUMPDEST SWAP2 POP PUSH2 0x851 DUP3 PUSH2 0x812 JUMP JUMPDEST PUSH1 0x20 DUP3 ADD SWAP1 POP SWAP2 SWAP1 POP JUMP JUMPDEST PUSH0 PUSH1 0x20 DUP3 ADD SWAP1 POP DUP2 DUP2 SUB PUSH0 DUP4 ADD MSTORE PUSH2 0x873 DUP2 PUSH2 0x83A JUMP JUMPDEST SWAP1 POP SWAP2 SWAP1 POP JUMP JUMPDEST PUSH32 0x616464726573732063616E6E6F74206265203000000000000000000000000000 PUSH0 DUP3 ADD MSTORE POP JUMP JUMPDEST PUSH0 PUSH2 0x8AE PUSH1 0x13 DUP4 PUSH2 0x5F4 JUMP JUMPDEST SWAP2 POP PUSH2 0x8B9 DUP3 PUSH2 0x87A JUMP JUMPDEST PUSH1 0x20 DUP3 ADD SWAP1 POP SWAP2 SWAP1 POP JUMP JUMPDEST PUSH0 PUSH1 0x20 DUP3 ADD SWAP1 POP DUP2 DUP2 SUB PUSH0 DUP4 ADD MSTORE PUSH2 0x8DB DUP2 PUSH2 0x8A2 JUMP JUMPDEST SWAP1 POP SWAP2 SWAP1 POP JUMP JUMPDEST PUSH32 0x6E6F7420656E6F75676820657468000000000000000000000000000000000000 PUSH0 DUP3 ADD MSTORE POP JUMP JUMPDEST PUSH0 PUSH2 0x916 PUSH1 0xE DUP4 PUSH2 0x5F4 JUMP JUMPDEST SWAP2 POP PUSH2 0x921 DUP3 PUSH2 0x8E2 JUMP JUMPDEST PUSH1 0x20 DUP3 ADD SWAP1 POP SWAP2 SWAP1 POP JUMP JUMPDEST PUSH0 PUSH1 0x20 DUP3 ADD SWAP1 POP DUP2 DUP2 SUB PUSH0 DUP4 ADD MSTORE PUSH2 0x943 DUP2 PUSH2 0x90A JUMP JUMPDEST SWAP1 POP SWAP2 SWAP1 POP JUMP INVALID LOG2 PUSH5 0x6970667358 0x22 SLT KECCAK256 DATALOADN 0x541C SWAP10 PUSH21 0x48E730433A5C77F64B906734F04DB191F1F78D48A7 SWAP7 PREVRANDAO PUSH12 0xA2AC3464736F6C634300081E STOP CALLER "
				},
				"gasEstimates": {
					"creation": {
						"codeDepositCost": "486400",
						"executionCost": "24781",
						"totalCost": "511181"
					},
					"external": {
						"": "infinite",
						"donate()": "infinite",
						"getDonation(address)": "2862",
						"owner()": "2552",
						"rankings()": "650",
						"withdraw()": "infinite"
					}
				},
				"methodIdentifiers": {
					"donate()": "ed88c68e",
					"getDonation(address)": "410a1d32",
					"owner()": "8da5cb5b",
					"rankings()": "5569c4ff",
					"withdraw()": "3ccfd60b"
				}
			},
			"storageLayout": {
				"storage": [
					{
						"astId": 15,
						"contract": "contracts/task2/job3.sol:BeggingContract",
						"label": "donations",
						"offset": 0,
						"slot": "0",
						"type": "t_mapping(t_address,t_uint256)"
					},
					{
						"astId": 17,
						"contract": "contracts/task2/job3.sol:BeggingContract",
						"label": "owner",
						"offset": 0,
						"slot": "1",
						"type": "t_address"
					}
				],
				"types": {
					"t_address": {
						"encoding": "inplace",
						"label": "address",
						"numberOfBytes": "20"
					},
					"t_mapping(t_address,t_uint256)": {
						"encoding": "mapping",
						"key": "t_address",
						"label": "mapping(address => uint256)",
						"numberOfBytes": "32",
						"value": "t_uint256"
					},
					"t_uint256": {
						"encoding": "inplace",
						"label": "uint256",
						"numberOfBytes": "32"
					}
				}
			},
			"userdoc": {
				"kind": "user",
				"methods": {},
				"version": 1
			}
		}
	}
}