{
	"contracts/homework/test_2.sol": {
		"Test_2": {
			"abi": [
				{
					"inputs": [
						{
							"internalType": "uint256",
							"name": "num",
							"type": "uint256"
						}
					],
					"name": "intToRoman",
					"outputs": [
						{
							"internalType": "string",
							"name": "",
							"type": "string"
						}
					],
					"stateMutability": "pure",
					"type": "function"
				},
				{
					"inputs": [
						{
							"internalType": "uint256[]",
							"name": "arr1",
							"type": "uint256[]"
						},
						{
							"internalType": "uint256[]",
							"name": "arr2",
							"type": "uint256[]"
						}
					],
					"name": "mergeArrays",
					"outputs": [
						{
							"internalType": "uint256[]",
							"name": "",
							"type": "uint256[]"
						}
					],
					"stateMutability": "pure",
					"type": "function"
				},
				{
					"inputs": [
						{
							"internalType": "string",
							"name": "str",
							"type": "string"
						}
					],
					"name": "romanToInt",
					"outputs": [
						{
							"internalType": "uint256",
							"name": "",
							"type": "uint256"
						}
					],
					"stateMutability": "pure",
					"type": "function"
				},
				{
					"inputs": [
						{
							"internalType": "string",
							"name": "line",
							"type": "string"
						}
					],
					"name": "stringReverse",
					"outputs": [
						{
							"internalType": "string",
							"name": "",
							"type": "string"
						}
					],
					"stateMutability": "pure",
					"type": "function"
				}
			],
			"devdoc": {
				"kind": "dev",
				"methods": {},
				"version": 1
			},
			"evm": {
				"assembly": "    /* \"contracts/homework/test_2.sol\":60:3057  contract Test_2 {... */\n  mstore(0x40, 0x80)\n  callvalue\n  dup1\n  iszero\n  tag_1\n  jumpi\n  revert(0x00, 0x00)\ntag_1:\n  pop\n  dataSize(sub_0)\n  dup1\n  dataOffset(sub_0)\n  0x00\n  codecopy\n  0x00\n  return\nstop\n\nsub_0: assembly {\n        /* \"contracts/homework/test_2.sol\":60:3057  contract Test_2 {... */\n      mstore(0x40, 0x80)\n      callvalue\n      dup1\n      iszero\n      tag_1\n      jumpi\n      revert(0x00, 0x00)\n    tag_1:\n      pop\n      jumpi(tag_2, lt(calldatasize, 0x04))\n      shr(0xe0, calldataload(0x00))\n      dup1\n      0x0cbc513a\n      eq\n      tag_3\n      jumpi\n      dup1\n      0xcb159dfe\n      eq\n      tag_4\n      jumpi\n      dup1\n      0xde948709\n      eq\n      tag_5\n      jumpi\n      dup1\n      0xf3582c69\n      eq\n      tag_6\n      jumpi\n    tag_2:\n      revert(0x00, 0x00)\n        /* \"contracts/homework/test_2.sol\":600:1204  function intToRoman(uint num) public pure returns(string memory) {... */\n    tag_3:\n      tag_7\n      0x04\n      dup1\n      calldatasize\n      sub\n      dup2\n      add\n      swap1\n      tag_8\n      swap2\n      swap1\n      tag_9\n      jump\t// in\n    tag_8:\n      tag_10\n      jump\t// in\n    tag_7:\n      mload(0x40)\n      tag_11\n      swap2\n      swap1\n      tag_12\n      jump\t// in\n    tag_11:\n      mload(0x40)\n      dup1\n      swap2\n      sub\n      swap1\n      return\n        /* \"contracts/homework/test_2.sol\":1214:1935  function romanToInt(string memory str) public pure returns (uint) {... */\n    tag_4:\n      tag_13\n      0x04\n      dup1\n      calldatasize\n      sub\n      dup2\n      add\n      swap1\n      tag_14\n      swap2\n      swap1\n      tag_15\n      jump\t// in\n    tag_14:\n      tag_16\n      jump\t// in\n    tag_13:\n      mload(0x40)\n      tag_17\n      swap2\n      swap1\n      tag_18\n      jump\t// in\n    tag_17:\n      mload(0x40)\n      dup1\n      swap2\n      sub\n      swap1\n      return\n        /* \"contracts/homework/test_2.sol\":2341:3054  function mergeArrays(uint[] calldata arr1, uint[] calldata arr2) public pure returns(uint[] memory) {... */\n    tag_5:\n      tag_19\n      0x04\n      dup1\n      calldatasize\n      sub\n      dup2\n      add\n      swap1\n      tag_20\n      swap2\n      swap1\n      tag_21\n      jump\t// in\n    tag_20:\n      tag_22\n      jump\t// in\n    tag_19:\n      mload(0x40)\n      tag_23\n      swap2\n      swap1\n      tag_24\n      jump\t// in\n    tag_23:\n      mload(0x40)\n      dup1\n      swap2\n      sub\n      swap1\n      return\n        /* \"contracts/homework/test_2.sol\":163:563  function stringReverse(string calldata line) public pure returns (string memory) {... */\n    tag_6:\n      tag_25\n      0x04\n      dup1\n      calldatasize\n      sub\n      dup2\n      add\n      swap1\n      tag_26\n      swap2\n      swap1\n      tag_27\n      jump\t// in\n    tag_26:\n      tag_28\n      jump\t// in\n    tag_25:\n      mload(0x40)\n      tag_29\n      swap2\n      swap1\n      tag_12\n      jump\t// in\n    tag_29:\n      mload(0x40)\n      dup1\n      swap2\n      sub\n      swap1\n      return\n        /* \"contracts/homework/test_2.sol\":600:1204  function intToRoman(uint num) public pure returns(string memory) {... */\n    tag_10:\n        /* \"contracts/homework/test_2.sol\":650:663  string memory */\n      0x60\n        /* \"contracts/homework/test_2.sol\":676:698  uint[13] memory values */\n      0x00\n        /* \"contracts/homework/test_2.sol\":676:764  uint[13] memory values = [uint256(1000), 900, 500, 400, 100, 90, 50, 40, 10, 9, 5, 4, 1] */\n      mload(0x40)\n      dup1\n      0x01a0\n      add\n      0x40\n      mstore\n      dup1\n        /* \"contracts/homework/test_2.sol\":710:714  1000 */\n      0x03e8\n        /* \"contracts/homework/test_2.sol\":676:764  uint[13] memory values = [uint256(1000), 900, 500, 400, 100, 90, 50, 40, 10, 9, 5, 4, 1] */\n      dup2\n      mstore\n      0x20\n      add\n        /* \"contracts/homework/test_2.sol\":717:720  900 */\n      0x0384\n        /* \"contracts/homework/test_2.sol\":676:764  uint[13] memory values = [uint256(1000), 900, 500, 400, 100, 90, 50, 40, 10, 9, 5, 4, 1] */\n      dup2\n      mstore\n      0x20\n      add\n        /* \"contracts/homework/test_2.sol\":722:725  500 */\n      0x01f4\n        /* \"contracts/homework/test_2.sol\":676:764  uint[13] memory values = [uint256(1000), 900, 500, 400, 100, 90, 50, 40, 10, 9, 5, 4, 1] */\n      dup2\n      mstore\n      0x20\n      add\n        /* \"contracts/homework/test_2.sol\":727:730  400 */\n      0x0190\n        /* \"contracts/homework/test_2.sol\":676:764  uint[13] memory values = [uint256(1000), 900, 500, 400, 100, 90, 50, 40, 10, 9, 5, 4, 1] */\n      dup2\n      mstore\n      0x20\n      add\n        /* \"contracts/homework/test_2.sol\":732:735  100 */\n      0x64\n        /* \"contracts/homework/test_2.sol\":676:764  uint[13] memory values = [uint256(1000), 900, 500, 400, 100, 90, 50, 40, 10, 9, 5, 4, 1] */\n      dup2\n      mstore\n      0x20\n      add\n        /* \"contracts/homework/test_2.sol\":737:739  90 */\n      0x5a\n        /* \"contracts/homework/test_2.sol\":676:764  uint[13] memory values = [uint256(1000), 900, 500, 400, 100, 90, 50, 40, 10, 9, 5, 4, 1] */\n      dup2\n      mstore\n      0x20\n      add\n        /* \"contracts/homework/test_2.sol\":741:743  50 */\n      0x32\n        /* \"contracts/homework/test_2.sol\":676:764  uint[13] memory values = [uint256(1000), 900, 500, 400, 100, 90, 50, 40, 10, 9, 5, 4, 1] */\n      dup2\n      mstore\n      0x20\n      add\n        /* \"contracts/homework/test_2.sol\":745:747  40 */\n      0x28\n        /* \"contracts/homework/test_2.sol\":676:764  uint[13] memory values = [uint256(1000), 900, 500, 400, 100, 90, 50, 40, 10, 9, 5, 4, 1] */\n      dup2\n      mstore\n      0x20\n      add\n        /* \"contracts/homework/test_2.sol\":749:751  10 */\n      0x0a\n        /* \"contracts/homework/test_2.sol\":676:764  uint[13] memory values = [uint256(1000), 900, 500, 400, 100, 90, 50, 40, 10, 9, 5, 4, 1] */\n      dup2\n      mstore\n      0x20\n      add\n        /* \"contracts/homework/test_2.sol\":753:754  9 */\n      0x09\n        /* \"contracts/homework/test_2.sol\":676:764  uint[13] memory values = [uint256(1000), 900, 500, 400, 100, 90, 50, 40, 10, 9, 5, 4, 1] */\n      dup2\n      mstore\n      0x20\n      add\n        /* \"contracts/homework/test_2.sol\":756:757  5 */\n      0x05\n        /* \"contracts/homework/test_2.sol\":676:764  uint[13] memory values = [uint256(1000), 900, 500, 400, 100, 90, 50, 40, 10, 9, 5, 4, 1] */\n      dup2\n      mstore\n      0x20\n      add\n        /* \"contracts/homework/test_2.sol\":759:760  4 */\n      0x04\n        /* \"contracts/homework/test_2.sol\":676:764  uint[13] memory values = [uint256(1000), 900, 500, 400, 100, 90, 50, 40, 10, 9, 5, 4, 1] */\n      dup2\n      mstore\n      0x20\n      add\n        /* \"contracts/homework/test_2.sol\":762:763  1 */\n      0x01\n        /* \"contracts/homework/test_2.sol\":676:764  uint[13] memory values = [uint256(1000), 900, 500, 400, 100, 90, 50, 40, 10, 9, 5, 4, 1] */\n      dup2\n      mstore\n      pop\n      swap1\n      pop\n        /* \"contracts/homework/test_2.sol\":775:800  string[13] memory letters */\n      0x00\n        /* \"contracts/homework/test_2.sol\":775:863  string[13] memory letters = [\"M\", \"CM\",\"D\",\"CD\",\"C\",\"XC\",\"L\",\"XL\",\"X\",\"IX\",\"V\",\"IV\",\"I\"] */\n      mload(0x40)\n      dup1\n      0x01a0\n      add\n      0x40\n      mstore\n      dup1\n      mload(0x40)\n      dup1\n      0x40\n      add\n      0x40\n      mstore\n      dup1\n      0x01\n      dup2\n      mstore\n      0x20\n      add\n      0x4d00000000000000000000000000000000000000000000000000000000000000\n      dup2\n      mstore\n      pop\n      dup2\n      mstore\n      0x20\n      add\n      mload(0x40)\n      dup1\n      0x40\n      add\n      0x40\n      mstore\n      dup1\n      0x02\n      dup2\n      mstore\n      0x20\n      add\n      0x434d000000000000000000000000000000000000000000000000000000000000\n      dup2\n      mstore\n      pop\n      dup2\n      mstore\n      0x20\n      add\n      mload(0x40)\n      dup1\n      0x40\n      add\n      0x40\n      mstore\n      dup1\n      0x01\n      dup2\n      mstore\n      0x20\n      add\n      0x4400000000000000000000000000000000000000000000000000000000000000\n      dup2\n      mstore\n      pop\n      dup2\n      mstore\n      0x20\n      add\n      mload(0x40)\n      dup1\n      0x40\n      add\n      0x40\n      mstore\n      dup1\n      0x02\n      dup2\n      mstore\n      0x20\n      add\n      0x4344000000000000000000000000000000000000000000000000000000000000\n      dup2\n      mstore\n      pop\n      dup2\n      mstore\n      0x20\n      add\n      mload(0x40)\n      dup1\n      0x40\n      add\n      0x40\n      mstore\n      dup1\n      0x01\n      dup2\n      mstore\n      0x20\n      add\n      0x4300000000000000000000000000000000000000000000000000000000000000\n      dup2\n      mstore\n      pop\n      dup2\n      mstore\n      0x20\n      add\n      mload(0x40)\n      dup1\n      0x40\n      add\n      0x40\n      mstore\n      dup1\n      0x02\n      dup2\n      mstore\n      0x20\n      add\n      0x5843000000000000000000000000000000000000000000000000000000000000\n      dup2\n      mstore\n      pop\n      dup2\n      mstore\n      0x20\n      add\n      mload(0x40)\n      dup1\n      0x40\n      add\n      0x40\n      mstore\n      dup1\n      0x01\n      dup2\n      mstore\n      0x20\n      add\n      0x4c00000000000000000000000000000000000000000000000000000000000000\n      dup2\n      mstore\n      pop\n      dup2\n      mstore\n      0x20\n      add\n      mload(0x40)\n      dup1\n      0x40\n      add\n      0x40\n      mstore\n      dup1\n      0x02\n      dup2\n      mstore\n      0x20\n      add\n      0x584c000000000000000000000000000000000000000000000000000000000000\n      dup2\n      mstore\n      pop\n      dup2\n      mstore\n      0x20\n      add\n      mload(0x40)\n      dup1\n      0x40\n      add\n      0x40\n      mstore\n      dup1\n      0x01\n      dup2\n      mstore\n      0x20\n      add\n      0x5800000000000000000000000000000000000000000000000000000000000000\n      dup2\n      mstore\n      pop\n      dup2\n      mstore\n      0x20\n      add\n      mload(0x40)\n      dup1\n      0x40\n      add\n      0x40\n      mstore\n      dup1\n      0x02\n      dup2\n      mstore\n      0x20\n      add\n      0x4958000000000000000000000000000000000000000000000000000000000000\n      dup2\n      mstore\n      pop\n      dup2\n      mstore\n      0x20\n      add\n      mload(0x40)\n      dup1\n      0x40\n      add\n      0x40\n      mstore\n      dup1\n      0x01\n      dup2\n      mstore\n      0x20\n      add\n      0x5600000000000000000000000000000000000000000000000000000000000000\n      dup2\n      mstore\n      pop\n      dup2\n      mstore\n      0x20\n      add\n      mload(0x40)\n      dup1\n      0x40\n      add\n      0x40\n      mstore\n      dup1\n      0x02\n      dup2\n      mstore\n      0x20\n      add\n      0x4956000000000000000000000000000000000000000000000000000000000000\n      dup2\n      mstore\n      pop\n      dup2\n      mstore\n      0x20\n      add\n      mload(0x40)\n      dup1\n      0x40\n      add\n      0x40\n      mstore\n      dup1\n      0x01\n      dup2\n      mstore\n      0x20\n      add\n      0x4900000000000000000000000000000000000000000000000000000000000000\n      dup2\n      mstore\n      pop\n      dup2\n      mstore\n      pop\n      swap1\n      pop\n        /* \"contracts/homework/test_2.sol\":884:901  string memory str */\n      0x60\n        /* \"contracts/homework/test_2.sol\":914:920  uint i */\n      0x00\n        /* \"contracts/homework/test_2.sol\":923:924  0 */\n      0x00\n        /* \"contracts/homework/test_2.sol\":914:924  uint i = 0 */\n      swap1\n      pop\n        /* \"contracts/homework/test_2.sol\":935:1176  while(num != 0) {... */\n    tag_31:\n        /* \"contracts/homework/test_2.sol\":948:949  0 */\n      0x00\n        /* \"contracts/homework/test_2.sol\":941:944  num */\n      dup7\n        /* \"contracts/homework/test_2.sol\":941:949  num != 0 */\n      eq\n        /* \"contracts/homework/test_2.sol\":935:1176  while(num != 0) {... */\n      tag_32\n      jumpi\n        /* \"contracts/homework/test_2.sol\":966:972  uint v */\n      0x00\n        /* \"contracts/homework/test_2.sol\":975:981  values */\n      dup5\n        /* \"contracts/homework/test_2.sol\":982:983  i */\n      dup3\n        /* \"contracts/homework/test_2.sol\":975:984  values[i] */\n      0x0d\n      dup2\n      lt\n      tag_33\n      jumpi\n      tag_34\n      tag_35\n      jump\t// in\n    tag_34:\n    tag_33:\n      0x20\n      mul\n      add\n      mload\n        /* \"contracts/homework/test_2.sol\":966:984  uint v = values[i] */\n      swap1\n      pop\n        /* \"contracts/homework/test_2.sol\":1009:1010  v */\n      dup1\n        /* \"contracts/homework/test_2.sol\":1002:1005  num */\n      dup8\n        /* \"contracts/homework/test_2.sol\":1002:1010  num >= v */\n      lt\n        /* \"contracts/homework/test_2.sol\":999:1165  if(num >= v) {... */\n      tag_36\n      jumpi\n        /* \"contracts/homework/test_2.sol\":1038:1039  v */\n      dup1\n        /* \"contracts/homework/test_2.sol\":1031:1039  num -= v */\n      dup8\n      tag_37\n      swap2\n      swap1\n      tag_38\n      jump\t// in\n    tag_37:\n      swap7\n      pop\n        /* \"contracts/homework/test_2.sol\":1088:1091  str */\n      dup3\n        /* \"contracts/homework/test_2.sol\":1093:1100  letters */\n      dup5\n        /* \"contracts/homework/test_2.sol\":1101:1102  i */\n      dup4\n        /* \"contracts/homework/test_2.sol\":1093:1103  letters[i] */\n      0x0d\n      dup2\n      lt\n      tag_39\n      jumpi\n      tag_40\n      tag_35\n      jump\t// in\n    tag_40:\n    tag_39:\n      0x20\n      mul\n      add\n      mload\n        /* \"contracts/homework/test_2.sol\":1071:1104  abi.encodePacked(str, letters[i]) */\n      add(0x20, mload(0x40))\n      tag_41\n      swap3\n      swap2\n      swap1\n      tag_42\n      jump\t// in\n    tag_41:\n      mload(0x40)\n      0x20\n      dup2\n      dup4\n      sub\n      sub\n      dup2\n      mstore\n      swap1\n      0x40\n      mstore\n        /* \"contracts/homework/test_2.sol\":1058:1105  str = string(abi.encodePacked(str, letters[i])) */\n      swap3\n      pop\n        /* \"contracts/homework/test_2.sol\":999:1165  if(num >= v) {... */\n      jump(tag_43)\n    tag_36:\n        /* \"contracts/homework/test_2.sol\":1146:1149  i++ */\n      dup2\n      dup1\n      tag_44\n      swap1\n      tag_45\n      jump\t// in\n    tag_44:\n      swap3\n      pop\n      pop\n        /* \"contracts/homework/test_2.sol\":999:1165  if(num >= v) {... */\n    tag_43:\n        /* \"contracts/homework/test_2.sol\":951:1176  {... */\n      pop\n        /* \"contracts/homework/test_2.sol\":935:1176  while(num != 0) {... */\n      jump(tag_31)\n    tag_32:\n        /* \"contracts/homework/test_2.sol\":1193:1196  str */\n      dup2\n        /* \"contracts/homework/test_2.sol\":1186:1196  return str */\n      swap5\n      pop\n      pop\n      pop\n      pop\n      pop\n        /* \"contracts/homework/test_2.sol\":600:1204  function intToRoman(uint num) public pure returns(string memory) {... */\n      swap2\n      swap1\n      pop\n      jump\t// out\n        /* \"contracts/homework/test_2.sol\":1214:1935  function romanToInt(string memory str) public pure returns (uint) {... */\n    tag_16:\n        /* \"contracts/homework/test_2.sol\":1274:1278  uint */\n      0x00\n        /* \"contracts/homework/test_2.sol\":1291:1305  bytes memory b */\n      0x00\n        /* \"contracts/homework/test_2.sol\":1314:1317  str */\n      dup3\n        /* \"contracts/homework/test_2.sol\":1291:1318  bytes memory b = bytes(str) */\n      swap1\n      pop\n        /* \"contracts/homework/test_2.sol\":1329:1337  uint sum */\n      0x00\n        /* \"contracts/homework/test_2.sol\":1340:1341  0 */\n      0x00\n        /* \"contracts/homework/test_2.sol\":1329:1341  uint sum = 0 */\n      swap1\n      pop\n        /* \"contracts/homework/test_2.sol\":1352:1360  uint len */\n      0x00\n        /* \"contracts/homework/test_2.sol\":1363:1364  b */\n      dup3\n        /* \"contracts/homework/test_2.sol\":1363:1371  b.length */\n      mload\n        /* \"contracts/homework/test_2.sol\":1352:1371  uint len = b.length */\n      swap1\n      pop\n        /* \"contracts/homework/test_2.sol\":1396:1402  uint i */\n      0x00\n        /* \"contracts/homework/test_2.sol\":1405:1406  0 */\n      0x00\n        /* \"contracts/homework/test_2.sol\":1396:1406  uint i = 0 */\n      swap1\n      pop\n        /* \"contracts/homework/test_2.sol\":1392:1897  for(uint i = 0; i<len; i++) {... */\n    tag_47:\n        /* \"contracts/homework/test_2.sol\":1410:1413  len */\n      dup2\n        /* \"contracts/homework/test_2.sol\":1408:1409  i */\n      dup2\n        /* \"contracts/homework/test_2.sol\":1408:1413  i<len */\n      lt\n        /* \"contracts/homework/test_2.sol\":1392:1897  for(uint i = 0; i<len; i++) {... */\n      iszero\n      tag_48\n      jumpi\n        /* \"contracts/homework/test_2.sol\":1435:1442  uint n1 */\n      0x00\n        /* \"contracts/homework/test_2.sol\":1445:1458  valueOf(b[i]) */\n      tag_50\n        /* \"contracts/homework/test_2.sol\":1453:1454  b */\n      dup6\n        /* \"contracts/homework/test_2.sol\":1455:1456  i */\n      dup4\n        /* \"contracts/homework/test_2.sol\":1453:1457  b[i] */\n      dup2\n      mload\n      dup2\n      lt\n      tag_51\n      jumpi\n      tag_52\n      tag_35\n      jump\t// in\n    tag_52:\n    tag_51:\n      0x20\n      add\n      add\n      mload\n      0xf8\n      shr\n      0xf8\n      shl\n        /* \"contracts/homework/test_2.sol\":1445:1452  valueOf */\n      tag_53\n        /* \"contracts/homework/test_2.sol\":1445:1458  valueOf(b[i]) */\n      jump\t// in\n    tag_50:\n        /* \"contracts/homework/test_2.sol\":1435:1458  uint n1 = valueOf(b[i]) */\n      swap1\n      pop\n        /* \"contracts/homework/test_2.sol\":1487:1488  1 */\n      0x01\n        /* \"contracts/homework/test_2.sol\":1481:1484  len */\n      dup4\n        /* \"contracts/homework/test_2.sol\":1481:1488  len - 1 */\n      tag_54\n      swap2\n      swap1\n      tag_38\n      jump\t// in\n    tag_54:\n        /* \"contracts/homework/test_2.sol\":1476:1477  i */\n      dup3\n        /* \"contracts/homework/test_2.sol\":1476:1488  i == len - 1 */\n      sub\n        /* \"contracts/homework/test_2.sol\":1473:1558  if(i == len - 1) {... */\n      tag_55\n      jumpi\n        /* \"contracts/homework/test_2.sol\":1516:1518  n1 */\n      dup1\n        /* \"contracts/homework/test_2.sol\":1509:1518  sum += n1 */\n      dup5\n      tag_56\n      swap2\n      swap1\n      tag_57\n      jump\t// in\n    tag_56:\n      swap4\n      pop\n        /* \"contracts/homework/test_2.sol\":1537:1542  break */\n      pop\n      jump(tag_48)\n        /* \"contracts/homework/test_2.sol\":1473:1558  if(i == len - 1) {... */\n    tag_55:\n        /* \"contracts/homework/test_2.sol\":1574:1583  uint next */\n      0x00\n        /* \"contracts/homework/test_2.sol\":1586:1603  valueOf(b[i + 1]) */\n      tag_58\n        /* \"contracts/homework/test_2.sol\":1594:1595  b */\n      dup7\n        /* \"contracts/homework/test_2.sol\":1600:1601  1 */\n      0x01\n        /* \"contracts/homework/test_2.sol\":1596:1597  i */\n      dup6\n        /* \"contracts/homework/test_2.sol\":1596:1601  i + 1 */\n      tag_59\n      swap2\n      swap1\n      tag_57\n      jump\t// in\n    tag_59:\n        /* \"contracts/homework/test_2.sol\":1594:1602  b[i + 1] */\n      dup2\n      mload\n      dup2\n      lt\n      tag_60\n      jumpi\n      tag_61\n      tag_35\n      jump\t// in\n    tag_61:\n    tag_60:\n      0x20\n      add\n      add\n      mload\n      0xf8\n      shr\n      0xf8\n      shl\n        /* \"contracts/homework/test_2.sol\":1586:1593  valueOf */\n      tag_53\n        /* \"contracts/homework/test_2.sol\":1586:1603  valueOf(b[i + 1]) */\n      jump\t// in\n    tag_58:\n        /* \"contracts/homework/test_2.sol\":1574:1603  uint next = valueOf(b[i + 1]) */\n      swap1\n      pop\n        /* \"contracts/homework/test_2.sol\":1640:1644  next */\n      dup1\n        /* \"contracts/homework/test_2.sol\":1635:1637  n1 */\n      dup3\n        /* \"contracts/homework/test_2.sol\":1635:1644  n1 < next */\n      lt\n        /* \"contracts/homework/test_2.sol\":1632:1886  if(n1 < next) {... */\n      iszero\n      tag_62\n      jumpi\n        /* \"contracts/homework/test_2.sol\":1674:1676  n1 */\n      dup2\n        /* \"contracts/homework/test_2.sol\":1668:1671  sum */\n      dup6\n        /* \"contracts/homework/test_2.sol\":1668:1676  sum < n1 */\n      lt\n        /* \"contracts/homework/test_2.sol\":1665:1821  if(sum < n1) {... */\n      iszero\n      tag_63\n      jumpi\n        /* \"contracts/homework/test_2.sol\":1715:1717  n1 */\n      dup2\n        /* \"contracts/homework/test_2.sol\":1708:1712  next */\n      dup2\n        /* \"contracts/homework/test_2.sol\":1708:1717  next - n1 */\n      tag_64\n      swap2\n      swap1\n      tag_38\n      jump\t// in\n    tag_64:\n        /* \"contracts/homework/test_2.sol\":1701:1717  sum += next - n1 */\n      dup6\n      tag_65\n      swap2\n      swap1\n      tag_57\n      jump\t// in\n    tag_65:\n      swap5\n      pop\n        /* \"contracts/homework/test_2.sol\":1740:1743  i++ */\n      dup3\n      dup1\n      tag_66\n      swap1\n      tag_45\n      jump\t// in\n    tag_66:\n      swap4\n      pop\n      pop\n        /* \"contracts/homework/test_2.sol\":1665:1821  if(sum < n1) {... */\n      jump(tag_67)\n    tag_63:\n        /* \"contracts/homework/test_2.sol\":1799:1801  n1 */\n      dup2\n        /* \"contracts/homework/test_2.sol\":1792:1801  sum -= n1 */\n      dup6\n      tag_68\n      swap2\n      swap1\n      tag_38\n      jump\t// in\n    tag_68:\n      swap5\n      pop\n        /* \"contracts/homework/test_2.sol\":1665:1821  if(sum < n1) {... */\n    tag_67:\n        /* \"contracts/homework/test_2.sol\":1632:1886  if(n1 < next) {... */\n      jump(tag_69)\n    tag_62:\n        /* \"contracts/homework/test_2.sol\":1868:1870  n1 */\n      dup2\n        /* \"contracts/homework/test_2.sol\":1861:1870  sum += n1 */\n      dup6\n      tag_70\n      swap2\n      swap1\n      tag_57\n      jump\t// in\n    tag_70:\n      swap5\n      pop\n        /* \"contracts/homework/test_2.sol\":1632:1886  if(n1 < next) {... */\n    tag_69:\n        /* \"contracts/homework/test_2.sol\":1420:1897  {... */\n      pop\n      pop\n        /* \"contracts/homework/test_2.sol\":1415:1418  i++ */\n      dup1\n      dup1\n      tag_71\n      swap1\n      tag_45\n      jump\t// in\n    tag_71:\n      swap2\n      pop\n      pop\n        /* \"contracts/homework/test_2.sol\":1392:1897  for(uint i = 0; i<len; i++) {... */\n      jump(tag_47)\n    tag_48:\n      pop\n        /* \"contracts/homework/test_2.sol\":1924:1927  sum */\n      dup2\n        /* \"contracts/homework/test_2.sol\":1917:1927  return sum */\n      swap4\n      pop\n      pop\n      pop\n      pop\n        /* \"contracts/homework/test_2.sol\":1214:1935  function romanToInt(string memory str) public pure returns (uint) {... */\n      swap2\n      swap1\n      pop\n      jump\t// out\n        /* \"contracts/homework/test_2.sol\":2341:3054  function mergeArrays(uint[] calldata arr1, uint[] calldata arr2) public pure returns(uint[] memory) {... */\n    tag_22:\n        /* \"contracts/homework/test_2.sol\":2426:2439  uint[] memory */\n      0x60\n        /* \"contracts/homework/test_2.sol\":2452:2461  uint len1 */\n      0x00\n        /* \"contracts/homework/test_2.sol\":2464:2468  arr1 */\n      dup6\n      dup6\n        /* \"contracts/homework/test_2.sol\":2464:2475  arr1.length */\n      swap1\n      pop\n        /* \"contracts/homework/test_2.sol\":2452:2475  uint len1 = arr1.length */\n      swap1\n      pop\n        /* \"contracts/homework/test_2.sol\":2486:2495  uint len2 */\n      0x00\n        /* \"contracts/homework/test_2.sol\":2498:2502  arr2 */\n      dup5\n      dup5\n        /* \"contracts/homework/test_2.sol\":2498:2509  arr2.length */\n      swap1\n      pop\n        /* \"contracts/homework/test_2.sol\":2486:2509  uint len2 = arr2.length */\n      swap1\n      pop\n        /* \"contracts/homework/test_2.sol\":2520:2538  uint[] memory full */\n      0x00\n        /* \"contracts/homework/test_2.sol\":2559:2563  len2 */\n      dup2\n        /* \"contracts/homework/test_2.sol\":2552:2556  len1 */\n      dup4\n        /* \"contracts/homework/test_2.sol\":2552:2563  len1 + len2 */\n      tag_73\n      swap2\n      swap1\n      tag_57\n      jump\t// in\n    tag_73:\n        /* \"contracts/homework/test_2.sol\":2541:2564  new uint[](len1 + len2) */\n      0xffffffffffffffff\n      dup2\n      gt\n      iszero\n      tag_74\n      jumpi\n      tag_75\n      tag_76\n      jump\t// in\n    tag_75:\n    tag_74:\n      mload(0x40)\n      swap1\n      dup1\n      dup3\n      mstore\n      dup1\n      0x20\n      mul\n      0x20\n      add\n      dup3\n      add\n      0x40\n      mstore\n      dup1\n      iszero\n      tag_77\n      jumpi\n      dup2\n      0x20\n      add\n      0x20\n      dup3\n      mul\n      dup1\n      calldatasize\n      dup4\n      calldatacopy\n      dup1\n      dup3\n      add\n      swap2\n      pop\n      pop\n      swap1\n      pop\n    tag_77:\n      pop\n        /* \"contracts/homework/test_2.sol\":2520:2564  uint[] memory full = new uint[](len1 + len2) */\n      swap1\n      pop\n        /* \"contracts/homework/test_2.sol\":2585:2591  uint i */\n      0x00\n        /* \"contracts/homework/test_2.sol\":2594:2595  0 */\n      0x00\n        /* \"contracts/homework/test_2.sol\":2585:2595  uint i = 0 */\n      swap1\n      pop\n        /* \"contracts/homework/test_2.sol\":2606:2612  uint j */\n      0x00\n        /* \"contracts/homework/test_2.sol\":2615:2616  0 */\n      0x00\n        /* \"contracts/homework/test_2.sol\":2606:2616  uint j = 0 */\n      swap1\n      pop\n        /* \"contracts/homework/test_2.sol\":2627:2639  uint f_index */\n      0x00\n        /* \"contracts/homework/test_2.sol\":2642:2643  0 */\n      0x00\n        /* \"contracts/homework/test_2.sol\":2627:2643  uint f_index = 0 */\n      swap1\n      pop\n        /* \"contracts/homework/test_2.sol\":2654:2861  while (i < len1 && j < len2) {... */\n    tag_78:\n        /* \"contracts/homework/test_2.sol\":2665:2669  len1 */\n      dup6\n        /* \"contracts/homework/test_2.sol\":2661:2662  i */\n      dup4\n        /* \"contracts/homework/test_2.sol\":2661:2669  i < len1 */\n      lt\n        /* \"contracts/homework/test_2.sol\":2661:2681  i < len1 && j < len2 */\n      dup1\n      iszero\n      tag_80\n      jumpi\n      pop\n        /* \"contracts/homework/test_2.sol\":2677:2681  len2 */\n      dup5\n        /* \"contracts/homework/test_2.sol\":2673:2674  j */\n      dup3\n        /* \"contracts/homework/test_2.sol\":2673:2681  j < len2 */\n      lt\n        /* \"contracts/homework/test_2.sol\":2661:2681  i < len1 && j < len2 */\n    tag_80:\n        /* \"contracts/homework/test_2.sol\":2654:2861  while (i < len1 && j < len2) {... */\n      iszero\n      tag_79\n      jumpi\n        /* \"contracts/homework/test_2.sol\":2711:2715  arr2 */\n      dup9\n      dup9\n        /* \"contracts/homework/test_2.sol\":2716:2717  j */\n      dup4\n        /* \"contracts/homework/test_2.sol\":2711:2718  arr2[j] */\n      dup2\n      dup2\n      lt\n      tag_81\n      jumpi\n      tag_82\n      tag_35\n      jump\t// in\n    tag_82:\n    tag_81:\n      swap1\n      pop\n      0x20\n      mul\n      add\n      calldataload\n        /* \"contracts/homework/test_2.sol\":2701:2705  arr1 */\n      dup12\n      dup12\n        /* \"contracts/homework/test_2.sol\":2706:2707  i */\n      dup6\n        /* \"contracts/homework/test_2.sol\":2701:2708  arr1[i] */\n      dup2\n      dup2\n      lt\n      tag_83\n      jumpi\n      tag_84\n      tag_35\n      jump\t// in\n    tag_84:\n    tag_83:\n      swap1\n      pop\n      0x20\n      mul\n      add\n      calldataload\n        /* \"contracts/homework/test_2.sol\":2701:2718  arr1[i] < arr2[j] */\n      lt\n        /* \"contracts/homework/test_2.sol\":2698:2850  if(arr1[i] < arr2[j]) {... */\n      iszero\n      tag_85\n      jumpi\n        /* \"contracts/homework/test_2.sol\":2757:2761  arr1 */\n      dup11\n      dup11\n        /* \"contracts/homework/test_2.sol\":2762:2765  i++ */\n      dup5\n      dup1\n      tag_86\n      swap1\n      tag_45\n      jump\t// in\n    tag_86:\n      swap6\n      pop\n        /* \"contracts/homework/test_2.sol\":2757:2766  arr1[i++] */\n      dup2\n      dup2\n      lt\n      tag_87\n      jumpi\n      tag_88\n      tag_35\n      jump\t// in\n    tag_88:\n    tag_87:\n      swap1\n      pop\n      0x20\n      mul\n      add\n      calldataload\n        /* \"contracts/homework/test_2.sol\":2739:2743  full */\n      dup5\n        /* \"contracts/homework/test_2.sol\":2744:2753  f_index++ */\n      dup3\n      dup1\n      tag_89\n      swap1\n      tag_45\n      jump\t// in\n    tag_89:\n      swap4\n      pop\n        /* \"contracts/homework/test_2.sol\":2739:2754  full[f_index++] */\n      dup2\n      mload\n      dup2\n      lt\n      tag_90\n      jumpi\n      tag_91\n      tag_35\n      jump\t// in\n    tag_91:\n    tag_90:\n      0x20\n      mul\n      0x20\n      add\n      add\n        /* \"contracts/homework/test_2.sol\":2739:2766  full[f_index++] = arr1[i++] */\n      dup2\n      dup2\n      mstore\n      pop\n      pop\n        /* \"contracts/homework/test_2.sol\":2698:2850  if(arr1[i] < arr2[j]) {... */\n      jump(tag_92)\n    tag_85:\n        /* \"contracts/homework/test_2.sol\":2825:2829  arr2 */\n      dup9\n      dup9\n        /* \"contracts/homework/test_2.sol\":2830:2833  j++ */\n      dup4\n      dup1\n      tag_93\n      swap1\n      tag_45\n      jump\t// in\n    tag_93:\n      swap5\n      pop\n        /* \"contracts/homework/test_2.sol\":2825:2834  arr2[j++] */\n      dup2\n      dup2\n      lt\n      tag_94\n      jumpi\n      tag_95\n      tag_35\n      jump\t// in\n    tag_95:\n    tag_94:\n      swap1\n      pop\n      0x20\n      mul\n      add\n      calldataload\n        /* \"contracts/homework/test_2.sol\":2807:2811  full */\n      dup5\n        /* \"contracts/homework/test_2.sol\":2812:2821  f_index++ */\n      dup3\n      dup1\n      tag_96\n      swap1\n      tag_45\n      jump\t// in\n    tag_96:\n      swap4\n      pop\n        /* \"contracts/homework/test_2.sol\":2807:2822  full[f_index++] */\n      dup2\n      mload\n      dup2\n      lt\n      tag_97\n      jumpi\n      tag_98\n      tag_35\n      jump\t// in\n    tag_98:\n    tag_97:\n      0x20\n      mul\n      0x20\n      add\n      add\n        /* \"contracts/homework/test_2.sol\":2807:2834  full[f_index++] = arr2[j++] */\n      dup2\n      dup2\n      mstore\n      pop\n      pop\n        /* \"contracts/homework/test_2.sol\":2698:2850  if(arr1[i] < arr2[j]) {... */\n    tag_92:\n        /* \"contracts/homework/test_2.sol\":2654:2861  while (i < len1 && j < len2) {... */\n      jump(tag_78)\n    tag_79:\n        /* \"contracts/homework/test_2.sol\":2873:2943  while(i < len1) {... */\n    tag_99:\n        /* \"contracts/homework/test_2.sol\":2883:2887  len1 */\n      dup6\n        /* \"contracts/homework/test_2.sol\":2879:2880  i */\n      dup4\n        /* \"contracts/homework/test_2.sol\":2879:2887  i < len1 */\n      lt\n        /* \"contracts/homework/test_2.sol\":2873:2943  while(i < len1) {... */\n      iszero\n      tag_100\n      jumpi\n        /* \"contracts/homework/test_2.sol\":2922:2926  arr1 */\n      dup11\n      dup11\n        /* \"contracts/homework/test_2.sol\":2927:2930  i++ */\n      dup5\n      dup1\n      tag_101\n      swap1\n      tag_45\n      jump\t// in\n    tag_101:\n      swap6\n      pop\n        /* \"contracts/homework/test_2.sol\":2922:2931  arr1[i++] */\n      dup2\n      dup2\n      lt\n      tag_102\n      jumpi\n      tag_103\n      tag_35\n      jump\t// in\n    tag_103:\n    tag_102:\n      swap1\n      pop\n      0x20\n      mul\n      add\n      calldataload\n        /* \"contracts/homework/test_2.sol\":2904:2908  full */\n      dup5\n        /* \"contracts/homework/test_2.sol\":2909:2918  f_index++ */\n      dup3\n      dup1\n      tag_104\n      swap1\n      tag_45\n      jump\t// in\n    tag_104:\n      swap4\n      pop\n        /* \"contracts/homework/test_2.sol\":2904:2919  full[f_index++] */\n      dup2\n      mload\n      dup2\n      lt\n      tag_105\n      jumpi\n      tag_106\n      tag_35\n      jump\t// in\n    tag_106:\n    tag_105:\n      0x20\n      mul\n      0x20\n      add\n      add\n        /* \"contracts/homework/test_2.sol\":2904:2931  full[f_index++] = arr1[i++] */\n      dup2\n      dup2\n      mstore\n      pop\n      pop\n        /* \"contracts/homework/test_2.sol\":2873:2943  while(i < len1) {... */\n      jump(tag_99)\n    tag_100:\n        /* \"contracts/homework/test_2.sol\":2953:3023  while(j < len2) {... */\n    tag_107:\n        /* \"contracts/homework/test_2.sol\":2963:2967  len2 */\n      dup5\n        /* \"contracts/homework/test_2.sol\":2959:2960  j */\n      dup3\n        /* \"contracts/homework/test_2.sol\":2959:2967  j < len2 */\n      lt\n        /* \"contracts/homework/test_2.sol\":2953:3023  while(j < len2) {... */\n      iszero\n      tag_108\n      jumpi\n        /* \"contracts/homework/test_2.sol\":3002:3006  arr2 */\n      dup9\n      dup9\n        /* \"contracts/homework/test_2.sol\":3007:3010  j++ */\n      dup4\n      dup1\n      tag_109\n      swap1\n      tag_45\n      jump\t// in\n    tag_109:\n      swap5\n      pop\n        /* \"contracts/homework/test_2.sol\":3002:3011  arr2[j++] */\n      dup2\n      dup2\n      lt\n      tag_110\n      jumpi\n      tag_111\n      tag_35\n      jump\t// in\n    tag_111:\n    tag_110:\n      swap1\n      pop\n      0x20\n      mul\n      add\n      calldataload\n        /* \"contracts/homework/test_2.sol\":2984:2988  full */\n      dup5\n        /* \"contracts/homework/test_2.sol\":2989:2998  f_index++ */\n      dup3\n      dup1\n      tag_112\n      swap1\n      tag_45\n      jump\t// in\n    tag_112:\n      swap4\n      pop\n        /* \"contracts/homework/test_2.sol\":2984:2999  full[f_index++] */\n      dup2\n      mload\n      dup2\n      lt\n      tag_113\n      jumpi\n      tag_114\n      tag_35\n      jump\t// in\n    tag_114:\n    tag_113:\n      0x20\n      mul\n      0x20\n      add\n      add\n        /* \"contracts/homework/test_2.sol\":2984:3011  full[f_index++] = arr2[j++] */\n      dup2\n      dup2\n      mstore\n      pop\n      pop\n        /* \"contracts/homework/test_2.sol\":2953:3023  while(j < len2) {... */\n      jump(tag_107)\n    tag_108:\n        /* \"contracts/homework/test_2.sol\":3042:3046  full */\n      dup4\n        /* \"contracts/homework/test_2.sol\":3035:3046  return full */\n      swap7\n      pop\n      pop\n      pop\n      pop\n      pop\n      pop\n      pop\n        /* \"contracts/homework/test_2.sol\":2341:3054  function mergeArrays(uint[] calldata arr1, uint[] calldata arr2) public pure returns(uint[] memory) {... */\n      swap5\n      swap4\n      pop\n      pop\n      pop\n      pop\n      jump\t// out\n        /* \"contracts/homework/test_2.sol\":163:563  function stringReverse(string calldata line) public pure returns (string memory) {... */\n    tag_28:\n        /* \"contracts/homework/test_2.sol\":229:242  string memory */\n      0x60\n        /* \"contracts/homework/test_2.sol\":255:277  bytes memory lineBytes */\n      0x00\n        /* \"contracts/homework/test_2.sol\":286:290  line */\n      dup4\n      dup4\n        /* \"contracts/homework/test_2.sol\":255:291  bytes memory lineBytes = bytes(line) */\n      dup1\n      dup1\n      0x1f\n      add\n      0x20\n      dup1\n      swap2\n      div\n      mul\n      0x20\n      add\n      mload(0x40)\n      swap1\n      dup2\n      add\n      0x40\n      mstore\n      dup1\n      swap4\n      swap3\n      swap2\n      swap1\n      dup2\n      dup2\n      mstore\n      0x20\n      add\n      dup4\n      dup4\n      dup1\n      dup3\n      dup5\n      calldatacopy\n      0x00\n      dup2\n      dup5\n      add\n      mstore\n      not(0x1f)\n      0x1f\n      dup3\n      add\n      and\n      swap1\n      pop\n      dup1\n      dup4\n      add\n      swap3\n      pop\n      pop\n      pop\n      pop\n      pop\n      pop\n      pop\n      swap1\n      pop\n        /* \"contracts/homework/test_2.sol\":302:310  uint len */\n      0x00\n        /* \"contracts/homework/test_2.sol\":313:322  lineBytes */\n      dup2\n        /* \"contracts/homework/test_2.sol\":313:329  lineBytes.length */\n      mload\n        /* \"contracts/homework/test_2.sol\":302:329  uint len = lineBytes.length */\n      swap1\n      pop\n        /* \"contracts/homework/test_2.sol\":353:354  0 */\n      0x00\n        /* \"contracts/homework/test_2.sol\":346:349  len */\n      dup2\n        /* \"contracts/homework/test_2.sol\":346:354  len == 0 */\n      sub\n        /* \"contracts/homework/test_2.sol\":342:367  if (len == 0)   return \"\" */\n      tag_116\n      jumpi\n        /* \"contracts/homework/test_2.sol\":358:367  return \"\" */\n      mload(0x40)\n      dup1\n      0x20\n      add\n      0x40\n      mstore\n      dup1\n      0x00\n      dup2\n      mstore\n      pop\n      swap3\n      pop\n      pop\n      pop\n      jump(tag_115)\n        /* \"contracts/homework/test_2.sol\":342:367  if (len == 0)   return \"\" */\n    tag_116:\n        /* \"contracts/homework/test_2.sol\":380:400  bytes memory reverse */\n      0x00\n        /* \"contracts/homework/test_2.sol\":413:416  len */\n      dup2\n        /* \"contracts/homework/test_2.sol\":403:417  new bytes(len) */\n      0xffffffffffffffff\n      dup2\n      gt\n      iszero\n      tag_117\n      jumpi\n      tag_118\n      tag_76\n      jump\t// in\n    tag_118:\n    tag_117:\n      mload(0x40)\n      swap1\n      dup1\n      dup3\n      mstore\n      dup1\n      0x1f\n      add\n      not(0x1f)\n      and\n      0x20\n      add\n      dup3\n      add\n      0x40\n      mstore\n      dup1\n      iszero\n      tag_119\n      jumpi\n      dup2\n      0x20\n      add\n      0x01\n      dup3\n      mul\n      dup1\n      calldatasize\n      dup4\n      calldatacopy\n      dup1\n      dup3\n      add\n      swap2\n      pop\n      pop\n      swap1\n      pop\n    tag_119:\n      pop\n        /* \"contracts/homework/test_2.sol\":380:417  bytes memory reverse = new bytes(len) */\n      swap1\n      pop\n        /* \"contracts/homework/test_2.sol\":434:440  uint i */\n      0x00\n        /* \"contracts/homework/test_2.sol\":443:444  0 */\n      0x00\n        /* \"contracts/homework/test_2.sol\":434:444  uint i = 0 */\n      swap1\n      pop\n        /* \"contracts/homework/test_2.sol\":430:521  for(uint i = 0; i < len; i++) {... */\n    tag_120:\n        /* \"contracts/homework/test_2.sol\":450:453  len */\n      dup3\n        /* \"contracts/homework/test_2.sol\":446:447  i */\n      dup2\n        /* \"contracts/homework/test_2.sol\":446:453  i < len */\n      lt\n        /* \"contracts/homework/test_2.sol\":430:521  for(uint i = 0; i < len; i++) {... */\n      iszero\n      tag_121\n      jumpi\n        /* \"contracts/homework/test_2.sol\":488:497  lineBytes */\n      dup4\n        /* \"contracts/homework/test_2.sol\":507:508  i */\n      dup2\n        /* \"contracts/homework/test_2.sol\":503:504  1 */\n      0x01\n        /* \"contracts/homework/test_2.sol\":498:501  len */\n      dup6\n        /* \"contracts/homework/test_2.sol\":498:504  len -1 */\n      tag_123\n      swap2\n      swap1\n      tag_38\n      jump\t// in\n    tag_123:\n        /* \"contracts/homework/test_2.sol\":498:508  len -1 - i */\n      tag_124\n      swap2\n      swap1\n      tag_38\n      jump\t// in\n    tag_124:\n        /* \"contracts/homework/test_2.sol\":488:509  lineBytes[len -1 - i] */\n      dup2\n      mload\n      dup2\n      lt\n      tag_125\n      jumpi\n      tag_126\n      tag_35\n      jump\t// in\n    tag_126:\n    tag_125:\n      0x20\n      add\n      add\n      mload\n      0xf8\n      shr\n      0xf8\n      shl\n        /* \"contracts/homework/test_2.sol\":475:482  reverse */\n      dup3\n        /* \"contracts/homework/test_2.sol\":483:484  i */\n      dup3\n        /* \"contracts/homework/test_2.sol\":475:485  reverse[i] */\n      dup2\n      mload\n      dup2\n      lt\n      tag_127\n      jumpi\n      tag_128\n      tag_35\n      jump\t// in\n    tag_128:\n    tag_127:\n      0x20\n      add\n      add\n        /* \"contracts/homework/test_2.sol\":475:509  reverse[i] = lineBytes[len -1 - i] */\n      swap1\n      not(0xffffffffffffffffffffffffffffffffffffffffffffffffffffffffffffff)\n      and\n      swap1\n      dup2\n      0x00\n      byte\n      swap1\n      mstore8\n      pop\n        /* \"contracts/homework/test_2.sol\":455:458  i++ */\n      dup1\n      dup1\n      0x01\n      add\n      swap2\n      pop\n      pop\n        /* \"contracts/homework/test_2.sol\":430:521  for(uint i = 0; i < len; i++) {... */\n      jump(tag_120)\n    tag_121:\n      pop\n        /* \"contracts/homework/test_2.sol\":547:554  reverse */\n      dup1\n        /* \"contracts/homework/test_2.sol\":533:555  return string(reverse) */\n      swap4\n      pop\n      pop\n      pop\n      pop\n        /* \"contracts/homework/test_2.sol\":163:563  function stringReverse(string calldata line) public pure returns (string memory) {... */\n    tag_115:\n      swap3\n      swap2\n      pop\n      pop\n      jump\t// out\n        /* \"contracts/homework/test_2.sol\":1945:2268  function valueOf(bytes1 c) internal pure returns (uint) {... */\n    tag_53:\n        /* \"contracts/homework/test_2.sol\":1995:1999  uint */\n      0x00\n        /* \"contracts/homework/test_2.sol\":2016:2024  c == \"I\" */\n      0x4900000000000000000000000000000000000000000000000000000000000000\n        /* \"contracts/homework/test_2.sol\":2016:2017  c */\n      dup3\n        /* \"contracts/homework/test_2.sol\":2016:2024  c == \"I\" */\n      not(0xffffffffffffffffffffffffffffffffffffffffffffffffffffffffffffff)\n      and\n      sub\n        /* \"contracts/homework/test_2.sol\":2012:2034  if (c == \"I\") return 1 */\n      tag_130\n      jumpi\n        /* \"contracts/homework/test_2.sol\":2033:2034  1 */\n      0x01\n        /* \"contracts/homework/test_2.sol\":2026:2034  return 1 */\n      swap1\n      pop\n      jump(tag_129)\n        /* \"contracts/homework/test_2.sol\":2012:2034  if (c == \"I\") return 1 */\n    tag_130:\n        /* \"contracts/homework/test_2.sol\":2049:2057  c == \"V\" */\n      0x5600000000000000000000000000000000000000000000000000000000000000\n        /* \"contracts/homework/test_2.sol\":2049:2050  c */\n      dup3\n        /* \"contracts/homework/test_2.sol\":2049:2057  c == \"V\" */\n      not(0xffffffffffffffffffffffffffffffffffffffffffffffffffffffffffffff)\n      and\n      sub\n        /* \"contracts/homework/test_2.sol\":2045:2067  if (c == \"V\") return 5 */\n      tag_131\n      jumpi\n        /* \"contracts/homework/test_2.sol\":2066:2067  5 */\n      0x05\n        /* \"contracts/homework/test_2.sol\":2059:2067  return 5 */\n      swap1\n      pop\n      jump(tag_129)\n        /* \"contracts/homework/test_2.sol\":2045:2067  if (c == \"V\") return 5 */\n    tag_131:\n        /* \"contracts/homework/test_2.sol\":2082:2090  c == \"X\" */\n      0x5800000000000000000000000000000000000000000000000000000000000000\n        /* \"contracts/homework/test_2.sol\":2082:2083  c */\n      dup3\n        /* \"contracts/homework/test_2.sol\":2082:2090  c == \"X\" */\n      not(0xffffffffffffffffffffffffffffffffffffffffffffffffffffffffffffff)\n      and\n      sub\n        /* \"contracts/homework/test_2.sol\":2078:2101  if (c == \"X\") return 10 */\n      tag_132\n      jumpi\n        /* \"contracts/homework/test_2.sol\":2099:2101  10 */\n      0x0a\n        /* \"contracts/homework/test_2.sol\":2092:2101  return 10 */\n      swap1\n      pop\n      jump(tag_129)\n        /* \"contracts/homework/test_2.sol\":2078:2101  if (c == \"X\") return 10 */\n    tag_132:\n        /* \"contracts/homework/test_2.sol\":2116:2124  c == \"L\" */\n      0x4c00000000000000000000000000000000000000000000000000000000000000\n        /* \"contracts/homework/test_2.sol\":2116:2117  c */\n      dup3\n        /* \"contracts/homework/test_2.sol\":2116:2124  c == \"L\" */\n      not(0xffffffffffffffffffffffffffffffffffffffffffffffffffffffffffffff)\n      and\n      sub\n        /* \"contracts/homework/test_2.sol\":2112:2135  if (c == \"L\") return 50 */\n      tag_133\n      jumpi\n        /* \"contracts/homework/test_2.sol\":2133:2135  50 */\n      0x32\n        /* \"contracts/homework/test_2.sol\":2126:2135  return 50 */\n      swap1\n      pop\n      jump(tag_129)\n        /* \"contracts/homework/test_2.sol\":2112:2135  if (c == \"L\") return 50 */\n    tag_133:\n        /* \"contracts/homework/test_2.sol\":2150:2158  c == \"C\" */\n      0x4300000000000000000000000000000000000000000000000000000000000000\n        /* \"contracts/homework/test_2.sol\":2150:2151  c */\n      dup3\n        /* \"contracts/homework/test_2.sol\":2150:2158  c == \"C\" */\n      not(0xffffffffffffffffffffffffffffffffffffffffffffffffffffffffffffff)\n      and\n      sub\n        /* \"contracts/homework/test_2.sol\":2146:2170  if (c == \"C\") return 100 */\n      tag_134\n      jumpi\n        /* \"contracts/homework/test_2.sol\":2167:2170  100 */\n      0x64\n        /* \"contracts/homework/test_2.sol\":2160:2170  return 100 */\n      swap1\n      pop\n      jump(tag_129)\n        /* \"contracts/homework/test_2.sol\":2146:2170  if (c == \"C\") return 100 */\n    tag_134:\n        /* \"contracts/homework/test_2.sol\":2185:2193  c == \"D\" */\n      0x4400000000000000000000000000000000000000000000000000000000000000\n        /* \"contracts/homework/test_2.sol\":2185:2186  c */\n      dup3\n        /* \"contracts/homework/test_2.sol\":2185:2193  c == \"D\" */\n      not(0xffffffffffffffffffffffffffffffffffffffffffffffffffffffffffffff)\n      and\n      sub\n        /* \"contracts/homework/test_2.sol\":2181:2205  if (c == \"D\") return 500 */\n      tag_135\n      jumpi\n        /* \"contracts/homework/test_2.sol\":2202:2205  500 */\n      0x01f4\n        /* \"contracts/homework/test_2.sol\":2195:2205  return 500 */\n      swap1\n      pop\n      jump(tag_129)\n        /* \"contracts/homework/test_2.sol\":2181:2205  if (c == \"D\") return 500 */\n    tag_135:\n        /* \"contracts/homework/test_2.sol\":2220:2228  c == \"M\" */\n      0x4d00000000000000000000000000000000000000000000000000000000000000\n        /* \"contracts/homework/test_2.sol\":2220:2221  c */\n      dup3\n        /* \"contracts/homework/test_2.sol\":2220:2228  c == \"M\" */\n      not(0xffffffffffffffffffffffffffffffffffffffffffffffffffffffffffffff)\n      and\n      sub\n        /* \"contracts/homework/test_2.sol\":2216:2241  if (c == \"M\") return 1000 */\n      tag_136\n      jumpi\n        /* \"contracts/homework/test_2.sol\":2237:2241  1000 */\n      0x03e8\n        /* \"contracts/homework/test_2.sol\":2230:2241  return 1000 */\n      swap1\n      pop\n      jump(tag_129)\n        /* \"contracts/homework/test_2.sol\":2216:2241  if (c == \"M\") return 1000 */\n    tag_136:\n        /* \"contracts/homework/test_2.sol\":2259:2260  0 */\n      0x00\n        /* \"contracts/homework/test_2.sol\":2252:2260  return 0 */\n      swap1\n      pop\n        /* \"contracts/homework/test_2.sol\":1945:2268  function valueOf(bytes1 c) internal pure returns (uint) {... */\n    tag_129:\n      swap2\n      swap1\n      pop\n      jump\t// out\n        /* \"#utility.yul\":7:82   */\n    tag_137:\n        /* \"#utility.yul\":40:46   */\n      0x00\n        /* \"#utility.yul\":73:75   */\n      0x40\n        /* \"#utility.yul\":67:76   */\n      mload\n        /* \"#utility.yul\":57:76   */\n      swap1\n      pop\n        /* \"#utility.yul\":7:82   */\n      swap1\n      jump\t// out\n        /* \"#utility.yul\":88:205   */\n    tag_138:\n        /* \"#utility.yul\":197:198   */\n      0x00\n        /* \"#utility.yul\":194:195   */\n      0x00\n        /* \"#utility.yul\":187:199   */\n      revert\n        /* \"#utility.yul\":211:328   */\n    tag_139:\n        /* \"#utility.yul\":320:321   */\n      0x00\n        /* \"#utility.yul\":317:318   */\n      0x00\n        /* \"#utility.yul\":310:322   */\n      revert\n        /* \"#utility.yul\":334:411   */\n    tag_140:\n        /* \"#utility.yul\":371:378   */\n      0x00\n        /* \"#utility.yul\":400:405   */\n      dup2\n        /* \"#utility.yul\":389:405   */\n      swap1\n      pop\n        /* \"#utility.yul\":334:411   */\n      swap2\n      swap1\n      pop\n      jump\t// out\n        /* \"#utility.yul\":417:539   */\n    tag_141:\n        /* \"#utility.yul\":490:514   */\n      tag_177\n        /* \"#utility.yul\":508:513   */\n      dup2\n        /* \"#utility.yul\":490:514   */\n      tag_140\n      jump\t// in\n    tag_177:\n        /* \"#utility.yul\":483:488   */\n      dup2\n        /* \"#utility.yul\":480:515   */\n      eq\n        /* \"#utility.yul\":470:533   */\n      tag_178\n      jumpi\n        /* \"#utility.yul\":529:530   */\n      0x00\n        /* \"#utility.yul\":526:527   */\n      0x00\n        /* \"#utility.yul\":519:531   */\n      revert\n        /* \"#utility.yul\":470:533   */\n    tag_178:\n        /* \"#utility.yul\":417:539   */\n      pop\n      jump\t// out\n        /* \"#utility.yul\":545:684   */\n    tag_142:\n        /* \"#utility.yul\":591:596   */\n      0x00\n        /* \"#utility.yul\":629:635   */\n      dup2\n        /* \"#utility.yul\":616:636   */\n      calldataload\n        /* \"#utility.yul\":607:636   */\n      swap1\n      pop\n        /* \"#utility.yul\":645:678   */\n      tag_180\n        /* \"#utility.yul\":672:677   */\n      dup2\n        /* \"#utility.yul\":645:678   */\n      tag_141\n      jump\t// in\n    tag_180:\n        /* \"#utility.yul\":545:684   */\n      swap3\n      swap2\n      pop\n      pop\n      jump\t// out\n        /* \"#utility.yul\":690:1019   */\n    tag_9:\n        /* \"#utility.yul\":749:755   */\n      0x00\n        /* \"#utility.yul\":798:800   */\n      0x20\n        /* \"#utility.yul\":786:795   */\n      dup3\n        /* \"#utility.yul\":777:784   */\n      dup5\n        /* \"#utility.yul\":773:796   */\n      sub\n        /* \"#utility.yul\":769:801   */\n      slt\n        /* \"#utility.yul\":766:885   */\n      iszero\n      tag_182\n      jumpi\n        /* \"#utility.yul\":804:883   */\n      tag_183\n      tag_138\n      jump\t// in\n    tag_183:\n        /* \"#utility.yul\":766:885   */\n    tag_182:\n        /* \"#utility.yul\":924:925   */\n      0x00\n        /* \"#utility.yul\":949:1002   */\n      tag_184\n        /* \"#utility.yul\":994:1001   */\n      dup5\n        /* \"#utility.yul\":985:991   */\n      dup3\n        /* \"#utility.yul\":974:983   */\n      dup6\n        /* \"#utility.yul\":970:992   */\n      add\n        /* \"#utility.yul\":949:1002   */\n      tag_142\n      jump\t// in\n    tag_184:\n        /* \"#utility.yul\":939:1002   */\n      swap2\n      pop\n        /* \"#utility.yul\":895:1012   */\n      pop\n        /* \"#utility.yul\":690:1019   */\n      swap3\n      swap2\n      pop\n      pop\n      jump\t// out\n        /* \"#utility.yul\":1025:1124   */\n    tag_143:\n        /* \"#utility.yul\":1077:1083   */\n      0x00\n        /* \"#utility.yul\":1111:1116   */\n      dup2\n        /* \"#utility.yul\":1105:1117   */\n      mload\n        /* \"#utility.yul\":1095:1117   */\n      swap1\n      pop\n        /* \"#utility.yul\":1025:1124   */\n      swap2\n      swap1\n      pop\n      jump\t// out\n        /* \"#utility.yul\":1130:1299   */\n    tag_144:\n        /* \"#utility.yul\":1214:1225   */\n      0x00\n        /* \"#utility.yul\":1248:1254   */\n      dup3\n        /* \"#utility.yul\":1243:1246   */\n      dup3\n        /* \"#utility.yul\":1236:1255   */\n      mstore\n        /* \"#utility.yul\":1288:1292   */\n      0x20\n        /* \"#utility.yul\":1283:1286   */\n      dup3\n        /* \"#utility.yul\":1279:1293   */\n      add\n        /* \"#utility.yul\":1264:1293   */\n      swap1\n      pop\n        /* \"#utility.yul\":1130:1299   */\n      swap3\n      swap2\n      pop\n      pop\n      jump\t// out\n        /* \"#utility.yul\":1305:1444   */\n    tag_145:\n        /* \"#utility.yul\":1394:1400   */\n      dup3\n        /* \"#utility.yul\":1389:1392   */\n      dup2\n        /* \"#utility.yul\":1384:1387   */\n      dup4\n        /* \"#utility.yul\":1378:1401   */\n      mcopy\n        /* \"#utility.yul\":1435:1436   */\n      0x00\n        /* \"#utility.yul\":1426:1432   */\n      dup4\n        /* \"#utility.yul\":1421:1424   */\n      dup4\n        /* \"#utility.yul\":1417:1433   */\n      add\n        /* \"#utility.yul\":1410:1437   */\n      mstore\n        /* \"#utility.yul\":1305:1444   */\n      pop\n      pop\n      pop\n      jump\t// out\n        /* \"#utility.yul\":1450:1552   */\n    tag_146:\n        /* \"#utility.yul\":1491:1497   */\n      0x00\n        /* \"#utility.yul\":1542:1544   */\n      0x1f\n        /* \"#utility.yul\":1538:1545   */\n      not\n        /* \"#utility.yul\":1533:1535   */\n      0x1f\n        /* \"#utility.yul\":1526:1531   */\n      dup4\n        /* \"#utility.yul\":1522:1536   */\n      add\n        /* \"#utility.yul\":1518:1546   */\n      and\n        /* \"#utility.yul\":1508:1546   */\n      swap1\n      pop\n        /* \"#utility.yul\":1450:1552   */\n      swap2\n      swap1\n      pop\n      jump\t// out\n        /* \"#utility.yul\":1558:1935   */\n    tag_147:\n        /* \"#utility.yul\":1646:1649   */\n      0x00\n        /* \"#utility.yul\":1674:1713   */\n      tag_190\n        /* \"#utility.yul\":1707:1712   */\n      dup3\n        /* \"#utility.yul\":1674:1713   */\n      tag_143\n      jump\t// in\n    tag_190:\n        /* \"#utility.yul\":1729:1800   */\n      tag_191\n        /* \"#utility.yul\":1793:1799   */\n      dup2\n        /* \"#utility.yul\":1788:1791   */\n      dup6\n        /* \"#utility.yul\":1729:1800   */\n      tag_144\n      jump\t// in\n    tag_191:\n        /* \"#utility.yul\":1722:1800   */\n      swap4\n      pop\n        /* \"#utility.yul\":1809:1874   */\n      tag_192\n        /* \"#utility.yul\":1867:1873   */\n      dup2\n        /* \"#utility.yul\":1862:1865   */\n      dup6\n        /* \"#utility.yul\":1855:1859   */\n      0x20\n        /* \"#utility.yul\":1848:1853   */\n      dup7\n        /* \"#utility.yul\":1844:1860   */\n      add\n        /* \"#utility.yul\":1809:1874   */\n      tag_145\n      jump\t// in\n    tag_192:\n        /* \"#utility.yul\":1899:1928   */\n      tag_193\n        /* \"#utility.yul\":1921:1927   */\n      dup2\n        /* \"#utility.yul\":1899:1928   */\n      tag_146\n      jump\t// in\n    tag_193:\n        /* \"#utility.yul\":1894:1897   */\n      dup5\n        /* \"#utility.yul\":1890:1929   */\n      add\n        /* \"#utility.yul\":1883:1929   */\n      swap2\n      pop\n        /* \"#utility.yul\":1650:1935   */\n      pop\n        /* \"#utility.yul\":1558:1935   */\n      swap3\n      swap2\n      pop\n      pop\n      jump\t// out\n        /* \"#utility.yul\":1941:2254   */\n    tag_12:\n        /* \"#utility.yul\":2054:2058   */\n      0x00\n        /* \"#utility.yul\":2092:2094   */\n      0x20\n        /* \"#utility.yul\":2081:2090   */\n      dup3\n        /* \"#utility.yul\":2077:2095   */\n      add\n        /* \"#utility.yul\":2069:2095   */\n      swap1\n      pop\n        /* \"#utility.yul\":2141:2150   */\n      dup2\n        /* \"#utility.yul\":2135:2139   */\n      dup2\n        /* \"#utility.yul\":2131:2151   */\n      sub\n        /* \"#utility.yul\":2127:2128   */\n      0x00\n        /* \"#utility.yul\":2116:2125   */\n      dup4\n        /* \"#utility.yul\":2112:2129   */\n      add\n        /* \"#utility.yul\":2105:2152   */\n      mstore\n        /* \"#utility.yul\":2169:2247   */\n      tag_195\n        /* \"#utility.yul\":2242:2246   */\n      dup2\n        /* \"#utility.yul\":2233:2239   */\n      dup5\n        /* \"#utility.yul\":2169:2247   */\n      tag_147\n      jump\t// in\n    tag_195:\n        /* \"#utility.yul\":2161:2247   */\n      swap1\n      pop\n        /* \"#utility.yul\":1941:2254   */\n      swap3\n      swap2\n      pop\n      pop\n      jump\t// out\n        /* \"#utility.yul\":2260:2377   */\n    tag_148:\n        /* \"#utility.yul\":2369:2370   */\n      0x00\n        /* \"#utility.yul\":2366:2367   */\n      0x00\n        /* \"#utility.yul\":2359:2371   */\n      revert\n        /* \"#utility.yul\":2383:2500   */\n    tag_149:\n        /* \"#utility.yul\":2492:2493   */\n      0x00\n        /* \"#utility.yul\":2489:2490   */\n      0x00\n        /* \"#utility.yul\":2482:2494   */\n      revert\n        /* \"#utility.yul\":2506:2686   */\n    tag_76:\n        /* \"#utility.yul\":2554:2631   */\n      0x4e487b7100000000000000000000000000000000000000000000000000000000\n        /* \"#utility.yul\":2551:2552   */\n      0x00\n        /* \"#utility.yul\":2544:2632   */\n      mstore\n        /* \"#utility.yul\":2651:2655   */\n      0x41\n        /* \"#utility.yul\":2648:2649   */\n      0x04\n        /* \"#utility.yul\":2641:2656   */\n      mstore\n        /* \"#utility.yul\":2675:2679   */\n      0x24\n        /* \"#utility.yul\":2672:2673   */\n      0x00\n        /* \"#utility.yul\":2665:2680   */\n      revert\n        /* \"#utility.yul\":2692:2973   */\n    tag_150:\n        /* \"#utility.yul\":2775:2802   */\n      tag_200\n        /* \"#utility.yul\":2797:2801   */\n      dup3\n        /* \"#utility.yul\":2775:2802   */\n      tag_146\n      jump\t// in\n    tag_200:\n        /* \"#utility.yul\":2767:2773   */\n      dup2\n        /* \"#utility.yul\":2763:2803   */\n      add\n        /* \"#utility.yul\":2905:2911   */\n      dup2\n        /* \"#utility.yul\":2893:2903   */\n      dup2\n        /* \"#utility.yul\":2890:2912   */\n      lt\n        /* \"#utility.yul\":2869:2887   */\n      0xffffffffffffffff\n        /* \"#utility.yul\":2857:2867   */\n      dup3\n        /* \"#utility.yul\":2854:2888   */\n      gt\n        /* \"#utility.yul\":2851:2913   */\n      or\n        /* \"#utility.yul\":2848:2936   */\n      iszero\n      tag_201\n      jumpi\n        /* \"#utility.yul\":2916:2934   */\n      tag_202\n      tag_76\n      jump\t// in\n    tag_202:\n        /* \"#utility.yul\":2848:2936   */\n    tag_201:\n        /* \"#utility.yul\":2956:2966   */\n      dup1\n        /* \"#utility.yul\":2952:2954   */\n      0x40\n        /* \"#utility.yul\":2945:2967   */\n      mstore\n        /* \"#utility.yul\":2735:2973   */\n      pop\n        /* \"#utility.yul\":2692:2973   */\n      pop\n      pop\n      jump\t// out\n        /* \"#utility.yul\":2979:3108   */\n    tag_151:\n        /* \"#utility.yul\":3013:3019   */\n      0x00\n        /* \"#utility.yul\":3040:3060   */\n      tag_204\n      tag_137\n      jump\t// in\n    tag_204:\n        /* \"#utility.yul\":3030:3060   */\n      swap1\n      pop\n        /* \"#utility.yul\":3069:3102   */\n      tag_205\n        /* \"#utility.yul\":3097:3101   */\n      dup3\n        /* \"#utility.yul\":3089:3095   */\n      dup3\n        /* \"#utility.yul\":3069:3102   */\n      tag_150\n      jump\t// in\n    tag_205:\n        /* \"#utility.yul\":2979:3108   */\n      swap2\n      swap1\n      pop\n      jump\t// out\n        /* \"#utility.yul\":3114:3422   */\n    tag_152:\n        /* \"#utility.yul\":3176:3180   */\n      0x00\n        /* \"#utility.yul\":3266:3284   */\n      0xffffffffffffffff\n        /* \"#utility.yul\":3258:3264   */\n      dup3\n        /* \"#utility.yul\":3255:3285   */\n      gt\n        /* \"#utility.yul\":3252:3308   */\n      iszero\n      tag_207\n      jumpi\n        /* \"#utility.yul\":3288:3306   */\n      tag_208\n      tag_76\n      jump\t// in\n    tag_208:\n        /* \"#utility.yul\":3252:3308   */\n    tag_207:\n        /* \"#utility.yul\":3326:3355   */\n      tag_209\n        /* \"#utility.yul\":3348:3354   */\n      dup3\n        /* \"#utility.yul\":3326:3355   */\n      tag_146\n      jump\t// in\n    tag_209:\n        /* \"#utility.yul\":3318:3355   */\n      swap1\n      pop\n        /* \"#utility.yul\":3410:3414   */\n      0x20\n        /* \"#utility.yul\":3404:3408   */\n      dup2\n        /* \"#utility.yul\":3400:3415   */\n      add\n        /* \"#utility.yul\":3392:3415   */\n      swap1\n      pop\n        /* \"#utility.yul\":3114:3422   */\n      swap2\n      swap1\n      pop\n      jump\t// out\n        /* \"#utility.yul\":3428:3576   */\n    tag_153:\n        /* \"#utility.yul\":3526:3532   */\n      dup3\n        /* \"#utility.yul\":3521:3524   */\n      dup2\n        /* \"#utility.yul\":3516:3519   */\n      dup4\n        /* \"#utility.yul\":3503:3533   */\n      calldatacopy\n        /* \"#utility.yul\":3567:3568   */\n      0x00\n        /* \"#utility.yul\":3558:3564   */\n      dup4\n        /* \"#utility.yul\":3553:3556   */\n      dup4\n        /* \"#utility.yul\":3549:3565   */\n      add\n        /* \"#utility.yul\":3542:3569   */\n      mstore\n        /* \"#utility.yul\":3428:3576   */\n      pop\n      pop\n      pop\n      jump\t// out\n        /* \"#utility.yul\":3582:4007   */\n    tag_154:\n        /* \"#utility.yul\":3660:3665   */\n      0x00\n        /* \"#utility.yul\":3685:3751   */\n      tag_212\n        /* \"#utility.yul\":3701:3750   */\n      tag_213\n        /* \"#utility.yul\":3743:3749   */\n      dup5\n        /* \"#utility.yul\":3701:3750   */\n      tag_152\n      jump\t// in\n    tag_213:\n        /* \"#utility.yul\":3685:3751   */\n      tag_151\n      jump\t// in\n    tag_212:\n        /* \"#utility.yul\":3676:3751   */\n      swap1\n      pop\n        /* \"#utility.yul\":3774:3780   */\n      dup3\n        /* \"#utility.yul\":3767:3772   */\n      dup2\n        /* \"#utility.yul\":3760:3781   */\n      mstore\n        /* \"#utility.yul\":3812:3816   */\n      0x20\n        /* \"#utility.yul\":3805:3810   */\n      dup2\n        /* \"#utility.yul\":3801:3817   */\n      add\n        /* \"#utility.yul\":3850:3853   */\n      dup5\n        /* \"#utility.yul\":3841:3847   */\n      dup5\n        /* \"#utility.yul\":3836:3839   */\n      dup5\n        /* \"#utility.yul\":3832:3848   */\n      add\n        /* \"#utility.yul\":3829:3854   */\n      gt\n        /* \"#utility.yul\":3826:3938   */\n      iszero\n      tag_214\n      jumpi\n        /* \"#utility.yul\":3857:3936   */\n      tag_215\n      tag_149\n      jump\t// in\n    tag_215:\n        /* \"#utility.yul\":3826:3938   */\n    tag_214:\n        /* \"#utility.yul\":3947:4001   */\n      tag_216\n        /* \"#utility.yul\":3994:4000   */\n      dup5\n        /* \"#utility.yul\":3989:3992   */\n      dup3\n        /* \"#utility.yul\":3984:3987   */\n      dup6\n        /* \"#utility.yul\":3947:4001   */\n      tag_153\n      jump\t// in\n    tag_216:\n        /* \"#utility.yul\":3666:4007   */\n      pop\n        /* \"#utility.yul\":3582:4007   */\n      swap4\n      swap3\n      pop\n      pop\n      pop\n      jump\t// out\n        /* \"#utility.yul\":4027:4367   */\n    tag_155:\n        /* \"#utility.yul\":4083:4088   */\n      0x00\n        /* \"#utility.yul\":4132:4135   */\n      dup3\n        /* \"#utility.yul\":4125:4129   */\n      0x1f\n        /* \"#utility.yul\":4117:4123   */\n      dup4\n        /* \"#utility.yul\":4113:4130   */\n      add\n        /* \"#utility.yul\":4109:4136   */\n      slt\n        /* \"#utility.yul\":4099:4221   */\n      tag_218\n      jumpi\n        /* \"#utility.yul\":4140:4219   */\n      tag_219\n      tag_148\n      jump\t// in\n    tag_219:\n        /* \"#utility.yul\":4099:4221   */\n    tag_218:\n        /* \"#utility.yul\":4257:4263   */\n      dup2\n        /* \"#utility.yul\":4244:4264   */\n      calldataload\n        /* \"#utility.yul\":4282:4361   */\n      tag_220\n        /* \"#utility.yul\":4357:4360   */\n      dup5\n        /* \"#utility.yul\":4349:4355   */\n      dup3\n        /* \"#utility.yul\":4342:4346   */\n      0x20\n        /* \"#utility.yul\":4334:4340   */\n      dup7\n        /* \"#utility.yul\":4330:4347   */\n      add\n        /* \"#utility.yul\":4282:4361   */\n      tag_154\n      jump\t// in\n    tag_220:\n        /* \"#utility.yul\":4273:4361   */\n      swap2\n      pop\n        /* \"#utility.yul\":4089:4367   */\n      pop\n        /* \"#utility.yul\":4027:4367   */\n      swap3\n      swap2\n      pop\n      pop\n      jump\t// out\n        /* \"#utility.yul\":4373:4882   */\n    tag_15:\n        /* \"#utility.yul\":4442:4448   */\n      0x00\n        /* \"#utility.yul\":4491:4493   */\n      0x20\n        /* \"#utility.yul\":4479:4488   */\n      dup3\n        /* \"#utility.yul\":4470:4477   */\n      dup5\n        /* \"#utility.yul\":4466:4489   */\n      sub\n        /* \"#utility.yul\":4462:4494   */\n      slt\n        /* \"#utility.yul\":4459:4578   */\n      iszero\n      tag_222\n      jumpi\n        /* \"#utility.yul\":4497:4576   */\n      tag_223\n      tag_138\n      jump\t// in\n    tag_223:\n        /* \"#utility.yul\":4459:4578   */\n    tag_222:\n        /* \"#utility.yul\":4645:4646   */\n      0x00\n        /* \"#utility.yul\":4634:4643   */\n      dup3\n        /* \"#utility.yul\":4630:4647   */\n      add\n        /* \"#utility.yul\":4617:4648   */\n      calldataload\n        /* \"#utility.yul\":4675:4693   */\n      0xffffffffffffffff\n        /* \"#utility.yul\":4667:4673   */\n      dup2\n        /* \"#utility.yul\":4664:4694   */\n      gt\n        /* \"#utility.yul\":4661:4778   */\n      iszero\n      tag_224\n      jumpi\n        /* \"#utility.yul\":4697:4776   */\n      tag_225\n      tag_139\n      jump\t// in\n    tag_225:\n        /* \"#utility.yul\":4661:4778   */\n    tag_224:\n        /* \"#utility.yul\":4802:4865   */\n      tag_226\n        /* \"#utility.yul\":4857:4864   */\n      dup5\n        /* \"#utility.yul\":4848:4854   */\n      dup3\n        /* \"#utility.yul\":4837:4846   */\n      dup6\n        /* \"#utility.yul\":4833:4855   */\n      add\n        /* \"#utility.yul\":4802:4865   */\n      tag_155\n      jump\t// in\n    tag_226:\n        /* \"#utility.yul\":4792:4865   */\n      swap2\n      pop\n        /* \"#utility.yul\":4588:4875   */\n      pop\n        /* \"#utility.yul\":4373:4882   */\n      swap3\n      swap2\n      pop\n      pop\n      jump\t// out\n        /* \"#utility.yul\":4888:5006   */\n    tag_156:\n        /* \"#utility.yul\":4975:4999   */\n      tag_228\n        /* \"#utility.yul\":4993:4998   */\n      dup2\n        /* \"#utility.yul\":4975:4999   */\n      tag_140\n      jump\t// in\n    tag_228:\n        /* \"#utility.yul\":4970:4973   */\n      dup3\n        /* \"#utility.yul\":4963:5000   */\n      mstore\n        /* \"#utility.yul\":4888:5006   */\n      pop\n      pop\n      jump\t// out\n        /* \"#utility.yul\":5012:5234   */\n    tag_18:\n        /* \"#utility.yul\":5105:5109   */\n      0x00\n        /* \"#utility.yul\":5143:5145   */\n      0x20\n        /* \"#utility.yul\":5132:5141   */\n      dup3\n        /* \"#utility.yul\":5128:5146   */\n      add\n        /* \"#utility.yul\":5120:5146   */\n      swap1\n      pop\n        /* \"#utility.yul\":5156:5227   */\n      tag_230\n        /* \"#utility.yul\":5224:5225   */\n      0x00\n        /* \"#utility.yul\":5213:5222   */\n      dup4\n        /* \"#utility.yul\":5209:5226   */\n      add\n        /* \"#utility.yul\":5200:5206   */\n      dup5\n        /* \"#utility.yul\":5156:5227   */\n      tag_156\n      jump\t// in\n    tag_230:\n        /* \"#utility.yul\":5012:5234   */\n      swap3\n      swap2\n      pop\n      pop\n      jump\t// out\n        /* \"#utility.yul\":5240:5357   */\n    tag_157:\n        /* \"#utility.yul\":5349:5350   */\n      0x00\n        /* \"#utility.yul\":5346:5347   */\n      0x00\n        /* \"#utility.yul\":5339:5351   */\n      revert\n        /* \"#utility.yul\":5363:5480   */\n    tag_158:\n        /* \"#utility.yul\":5472:5473   */\n      0x00\n        /* \"#utility.yul\":5469:5470   */\n      0x00\n        /* \"#utility.yul\":5462:5474   */\n      revert\n        /* \"#utility.yul\":5503:6071   */\n    tag_159:\n        /* \"#utility.yul\":5576:5584   */\n      0x00\n        /* \"#utility.yul\":5586:5592   */\n      0x00\n        /* \"#utility.yul\":5636:5639   */\n      dup4\n        /* \"#utility.yul\":5629:5633   */\n      0x1f\n        /* \"#utility.yul\":5621:5627   */\n      dup5\n        /* \"#utility.yul\":5617:5634   */\n      add\n        /* \"#utility.yul\":5613:5640   */\n      slt\n        /* \"#utility.yul\":5603:5725   */\n      tag_234\n      jumpi\n        /* \"#utility.yul\":5644:5723   */\n      tag_235\n      tag_148\n      jump\t// in\n    tag_235:\n        /* \"#utility.yul\":5603:5725   */\n    tag_234:\n        /* \"#utility.yul\":5757:5763   */\n      dup3\n        /* \"#utility.yul\":5744:5764   */\n      calldataload\n        /* \"#utility.yul\":5734:5764   */\n      swap1\n      pop\n        /* \"#utility.yul\":5787:5805   */\n      0xffffffffffffffff\n        /* \"#utility.yul\":5779:5785   */\n      dup2\n        /* \"#utility.yul\":5776:5806   */\n      gt\n        /* \"#utility.yul\":5773:5890   */\n      iszero\n      tag_236\n      jumpi\n        /* \"#utility.yul\":5809:5888   */\n      tag_237\n      tag_157\n      jump\t// in\n    tag_237:\n        /* \"#utility.yul\":5773:5890   */\n    tag_236:\n        /* \"#utility.yul\":5923:5927   */\n      0x20\n        /* \"#utility.yul\":5915:5921   */\n      dup4\n        /* \"#utility.yul\":5911:5928   */\n      add\n        /* \"#utility.yul\":5899:5928   */\n      swap2\n      pop\n        /* \"#utility.yul\":5977:5980   */\n      dup4\n        /* \"#utility.yul\":5969:5973   */\n      0x20\n        /* \"#utility.yul\":5961:5967   */\n      dup3\n        /* \"#utility.yul\":5957:5974   */\n      mul\n        /* \"#utility.yul\":5947:5955   */\n      dup4\n        /* \"#utility.yul\":5943:5975   */\n      add\n        /* \"#utility.yul\":5940:5981   */\n      gt\n        /* \"#utility.yul\":5937:6065   */\n      iszero\n      tag_238\n      jumpi\n        /* \"#utility.yul\":5984:6063   */\n      tag_239\n      tag_158\n      jump\t// in\n    tag_239:\n        /* \"#utility.yul\":5937:6065   */\n    tag_238:\n        /* \"#utility.yul\":5503:6071   */\n      swap3\n      pop\n      swap3\n      swap1\n      pop\n      jump\t// out\n        /* \"#utility.yul\":6077:7011   */\n    tag_21:\n        /* \"#utility.yul\":6199:6205   */\n      0x00\n        /* \"#utility.yul\":6207:6213   */\n      0x00\n        /* \"#utility.yul\":6215:6221   */\n      0x00\n        /* \"#utility.yul\":6223:6229   */\n      0x00\n        /* \"#utility.yul\":6272:6274   */\n      0x40\n        /* \"#utility.yul\":6260:6269   */\n      dup6\n        /* \"#utility.yul\":6251:6258   */\n      dup8\n        /* \"#utility.yul\":6247:6270   */\n      sub\n        /* \"#utility.yul\":6243:6275   */\n      slt\n        /* \"#utility.yul\":6240:6359   */\n      iszero\n      tag_241\n      jumpi\n        /* \"#utility.yul\":6278:6357   */\n      tag_242\n      tag_138\n      jump\t// in\n    tag_242:\n        /* \"#utility.yul\":6240:6359   */\n    tag_241:\n        /* \"#utility.yul\":6426:6427   */\n      0x00\n        /* \"#utility.yul\":6415:6424   */\n      dup6\n        /* \"#utility.yul\":6411:6428   */\n      add\n        /* \"#utility.yul\":6398:6429   */\n      calldataload\n        /* \"#utility.yul\":6456:6474   */\n      0xffffffffffffffff\n        /* \"#utility.yul\":6448:6454   */\n      dup2\n        /* \"#utility.yul\":6445:6475   */\n      gt\n        /* \"#utility.yul\":6442:6559   */\n      iszero\n      tag_243\n      jumpi\n        /* \"#utility.yul\":6478:6557   */\n      tag_244\n      tag_139\n      jump\t// in\n    tag_244:\n        /* \"#utility.yul\":6442:6559   */\n    tag_243:\n        /* \"#utility.yul\":6591:6671   */\n      tag_245\n        /* \"#utility.yul\":6663:6670   */\n      dup8\n        /* \"#utility.yul\":6654:6660   */\n      dup3\n        /* \"#utility.yul\":6643:6652   */\n      dup9\n        /* \"#utility.yul\":6639:6661   */\n      add\n        /* \"#utility.yul\":6591:6671   */\n      tag_159\n      jump\t// in\n    tag_245:\n        /* \"#utility.yul\":6573:6671   */\n      swap5\n      pop\n      swap5\n      pop\n        /* \"#utility.yul\":6369:6681   */\n      pop\n        /* \"#utility.yul\":6748:6750   */\n      0x20\n        /* \"#utility.yul\":6737:6746   */\n      dup6\n        /* \"#utility.yul\":6733:6751   */\n      add\n        /* \"#utility.yul\":6720:6752   */\n      calldataload\n        /* \"#utility.yul\":6779:6797   */\n      0xffffffffffffffff\n        /* \"#utility.yul\":6771:6777   */\n      dup2\n        /* \"#utility.yul\":6768:6798   */\n      gt\n        /* \"#utility.yul\":6765:6882   */\n      iszero\n      tag_246\n      jumpi\n        /* \"#utility.yul\":6801:6880   */\n      tag_247\n      tag_139\n      jump\t// in\n    tag_247:\n        /* \"#utility.yul\":6765:6882   */\n    tag_246:\n        /* \"#utility.yul\":6914:6994   */\n      tag_248\n        /* \"#utility.yul\":6986:6993   */\n      dup8\n        /* \"#utility.yul\":6977:6983   */\n      dup3\n        /* \"#utility.yul\":6966:6975   */\n      dup9\n        /* \"#utility.yul\":6962:6984   */\n      add\n        /* \"#utility.yul\":6914:6994   */\n      tag_159\n      jump\t// in\n    tag_248:\n        /* \"#utility.yul\":6896:6994   */\n      swap3\n      pop\n      swap3\n      pop\n        /* \"#utility.yul\":6691:7004   */\n      pop\n        /* \"#utility.yul\":6077:7011   */\n      swap3\n      swap6\n      swap2\n      swap5\n      pop\n      swap3\n      pop\n      jump\t// out\n        /* \"#utility.yul\":7017:7131   */\n    tag_160:\n        /* \"#utility.yul\":7084:7090   */\n      0x00\n        /* \"#utility.yul\":7118:7123   */\n      dup2\n        /* \"#utility.yul\":7112:7124   */\n      mload\n        /* \"#utility.yul\":7102:7124   */\n      swap1\n      pop\n        /* \"#utility.yul\":7017:7131   */\n      swap2\n      swap1\n      pop\n      jump\t// out\n        /* \"#utility.yul\":7137:7321   */\n    tag_161:\n        /* \"#utility.yul\":7236:7247   */\n      0x00\n        /* \"#utility.yul\":7270:7276   */\n      dup3\n        /* \"#utility.yul\":7265:7268   */\n      dup3\n        /* \"#utility.yul\":7258:7277   */\n      mstore\n        /* \"#utility.yul\":7310:7314   */\n      0x20\n        /* \"#utility.yul\":7305:7308   */\n      dup3\n        /* \"#utility.yul\":7301:7315   */\n      add\n        /* \"#utility.yul\":7286:7315   */\n      swap1\n      pop\n        /* \"#utility.yul\":7137:7321   */\n      swap3\n      swap2\n      pop\n      pop\n      jump\t// out\n        /* \"#utility.yul\":7327:7459   */\n    tag_162:\n        /* \"#utility.yul\":7394:7398   */\n      0x00\n        /* \"#utility.yul\":7417:7420   */\n      dup2\n        /* \"#utility.yul\":7409:7420   */\n      swap1\n      pop\n        /* \"#utility.yul\":7447:7451   */\n      0x20\n        /* \"#utility.yul\":7442:7445   */\n      dup3\n        /* \"#utility.yul\":7438:7452   */\n      add\n        /* \"#utility.yul\":7430:7452   */\n      swap1\n      pop\n        /* \"#utility.yul\":7327:7459   */\n      swap2\n      swap1\n      pop\n      jump\t// out\n        /* \"#utility.yul\":7465:7573   */\n    tag_163:\n        /* \"#utility.yul\":7542:7566   */\n      tag_253\n        /* \"#utility.yul\":7560:7565   */\n      dup2\n        /* \"#utility.yul\":7542:7566   */\n      tag_140\n      jump\t// in\n    tag_253:\n        /* \"#utility.yul\":7537:7540   */\n      dup3\n        /* \"#utility.yul\":7530:7567   */\n      mstore\n        /* \"#utility.yul\":7465:7573   */\n      pop\n      pop\n      jump\t// out\n        /* \"#utility.yul\":7579:7758   */\n    tag_164:\n        /* \"#utility.yul\":7648:7658   */\n      0x00\n        /* \"#utility.yul\":7669:7715   */\n      tag_255\n        /* \"#utility.yul\":7711:7714   */\n      dup4\n        /* \"#utility.yul\":7703:7709   */\n      dup4\n        /* \"#utility.yul\":7669:7715   */\n      tag_163\n      jump\t// in\n    tag_255:\n        /* \"#utility.yul\":7747:7751   */\n      0x20\n        /* \"#utility.yul\":7742:7745   */\n      dup4\n        /* \"#utility.yul\":7738:7752   */\n      add\n        /* \"#utility.yul\":7724:7752   */\n      swap1\n      pop\n        /* \"#utility.yul\":7579:7758   */\n      swap3\n      swap2\n      pop\n      pop\n      jump\t// out\n        /* \"#utility.yul\":7764:7877   */\n    tag_165:\n        /* \"#utility.yul\":7834:7838   */\n      0x00\n        /* \"#utility.yul\":7866:7870   */\n      0x20\n        /* \"#utility.yul\":7861:7864   */\n      dup3\n        /* \"#utility.yul\":7857:7871   */\n      add\n        /* \"#utility.yul\":7849:7871   */\n      swap1\n      pop\n        /* \"#utility.yul\":7764:7877   */\n      swap2\n      swap1\n      pop\n      jump\t// out\n        /* \"#utility.yul\":7913:8645   */\n    tag_166:\n        /* \"#utility.yul\":8032:8035   */\n      0x00\n        /* \"#utility.yul\":8061:8115   */\n      tag_258\n        /* \"#utility.yul\":8109:8114   */\n      dup3\n        /* \"#utility.yul\":8061:8115   */\n      tag_160\n      jump\t// in\n    tag_258:\n        /* \"#utility.yul\":8131:8217   */\n      tag_259\n        /* \"#utility.yul\":8210:8216   */\n      dup2\n        /* \"#utility.yul\":8205:8208   */\n      dup6\n        /* \"#utility.yul\":8131:8217   */\n      tag_161\n      jump\t// in\n    tag_259:\n        /* \"#utility.yul\":8124:8217   */\n      swap4\n      pop\n        /* \"#utility.yul\":8241:8297   */\n      tag_260\n        /* \"#utility.yul\":8291:8296   */\n      dup4\n        /* \"#utility.yul\":8241:8297   */\n      tag_162\n      jump\t// in\n    tag_260:\n        /* \"#utility.yul\":8320:8327   */\n      dup1\n        /* \"#utility.yul\":8351:8352   */\n      0x00\n        /* \"#utility.yul\":8336:8620   */\n    tag_261:\n        /* \"#utility.yul\":8361:8367   */\n      dup4\n        /* \"#utility.yul\":8358:8359   */\n      dup2\n        /* \"#utility.yul\":8355:8368   */\n      lt\n        /* \"#utility.yul\":8336:8620   */\n      iszero\n      tag_263\n      jumpi\n        /* \"#utility.yul\":8437:8443   */\n      dup2\n        /* \"#utility.yul\":8431:8444   */\n      mload\n        /* \"#utility.yul\":8464:8527   */\n      tag_264\n        /* \"#utility.yul\":8523:8526   */\n      dup9\n        /* \"#utility.yul\":8508:8521   */\n      dup3\n        /* \"#utility.yul\":8464:8527   */\n      tag_164\n      jump\t// in\n    tag_264:\n        /* \"#utility.yul\":8457:8527   */\n      swap8\n      pop\n        /* \"#utility.yul\":8550:8610   */\n      tag_265\n        /* \"#utility.yul\":8603:8609   */\n      dup4\n        /* \"#utility.yul\":8550:8610   */\n      tag_165\n      jump\t// in\n    tag_265:\n        /* \"#utility.yul\":8540:8610   */\n      swap3\n      pop\n        /* \"#utility.yul\":8396:8620   */\n      pop\n        /* \"#utility.yul\":8383:8384   */\n      0x01\n        /* \"#utility.yul\":8380:8381   */\n      dup2\n        /* \"#utility.yul\":8376:8385   */\n      add\n        /* \"#utility.yul\":8371:8385   */\n      swap1\n      pop\n        /* \"#utility.yul\":8336:8620   */\n      jump(tag_261)\n    tag_263:\n        /* \"#utility.yul\":8340:8354   */\n      pop\n        /* \"#utility.yul\":8636:8639   */\n      dup6\n        /* \"#utility.yul\":8629:8639   */\n      swap4\n      pop\n        /* \"#utility.yul\":8037:8645   */\n      pop\n      pop\n      pop\n        /* \"#utility.yul\":7913:8645   */\n      swap3\n      swap2\n      pop\n      pop\n      jump\t// out\n        /* \"#utility.yul\":8651:9024   */\n    tag_24:\n        /* \"#utility.yul\":8794:8798   */\n      0x00\n        /* \"#utility.yul\":8832:8834   */\n      0x20\n        /* \"#utility.yul\":8821:8830   */\n      dup3\n        /* \"#utility.yul\":8817:8835   */\n      add\n        /* \"#utility.yul\":8809:8835   */\n      swap1\n      pop\n        /* \"#utility.yul\":8881:8890   */\n      dup2\n        /* \"#utility.yul\":8875:8879   */\n      dup2\n        /* \"#utility.yul\":8871:8891   */\n      sub\n        /* \"#utility.yul\":8867:8868   */\n      0x00\n        /* \"#utility.yul\":8856:8865   */\n      dup4\n        /* \"#utility.yul\":8852:8869   */\n      add\n        /* \"#utility.yul\":8845:8892   */\n      mstore\n        /* \"#utility.yul\":8909:9017   */\n      tag_267\n        /* \"#utility.yul\":9012:9016   */\n      dup2\n        /* \"#utility.yul\":9003:9009   */\n      dup5\n        /* \"#utility.yul\":8909:9017   */\n      tag_166\n      jump\t// in\n    tag_267:\n        /* \"#utility.yul\":8901:9017   */\n      swap1\n      pop\n        /* \"#utility.yul\":8651:9024   */\n      swap3\n      swap2\n      pop\n      pop\n      jump\t// out\n        /* \"#utility.yul\":9044:9597   */\n    tag_167:\n        /* \"#utility.yul\":9102:9110   */\n      0x00\n        /* \"#utility.yul\":9112:9118   */\n      0x00\n        /* \"#utility.yul\":9162:9165   */\n      dup4\n        /* \"#utility.yul\":9155:9159   */\n      0x1f\n        /* \"#utility.yul\":9147:9153   */\n      dup5\n        /* \"#utility.yul\":9143:9160   */\n      add\n        /* \"#utility.yul\":9139:9166   */\n      slt\n        /* \"#utility.yul\":9129:9251   */\n      tag_269\n      jumpi\n        /* \"#utility.yul\":9170:9249   */\n      tag_270\n      tag_148\n      jump\t// in\n    tag_270:\n        /* \"#utility.yul\":9129:9251   */\n    tag_269:\n        /* \"#utility.yul\":9283:9289   */\n      dup3\n        /* \"#utility.yul\":9270:9290   */\n      calldataload\n        /* \"#utility.yul\":9260:9290   */\n      swap1\n      pop\n        /* \"#utility.yul\":9313:9331   */\n      0xffffffffffffffff\n        /* \"#utility.yul\":9305:9311   */\n      dup2\n        /* \"#utility.yul\":9302:9332   */\n      gt\n        /* \"#utility.yul\":9299:9416   */\n      iszero\n      tag_271\n      jumpi\n        /* \"#utility.yul\":9335:9414   */\n      tag_272\n      tag_157\n      jump\t// in\n    tag_272:\n        /* \"#utility.yul\":9299:9416   */\n    tag_271:\n        /* \"#utility.yul\":9449:9453   */\n      0x20\n        /* \"#utility.yul\":9441:9447   */\n      dup4\n        /* \"#utility.yul\":9437:9454   */\n      add\n        /* \"#utility.yul\":9425:9454   */\n      swap2\n      pop\n        /* \"#utility.yul\":9503:9506   */\n      dup4\n        /* \"#utility.yul\":9495:9499   */\n      0x01\n        /* \"#utility.yul\":9487:9493   */\n      dup3\n        /* \"#utility.yul\":9483:9500   */\n      mul\n        /* \"#utility.yul\":9473:9481   */\n      dup4\n        /* \"#utility.yul\":9469:9501   */\n      add\n        /* \"#utility.yul\":9466:9507   */\n      gt\n        /* \"#utility.yul\":9463:9591   */\n      iszero\n      tag_273\n      jumpi\n        /* \"#utility.yul\":9510:9589   */\n      tag_274\n      tag_158\n      jump\t// in\n    tag_274:\n        /* \"#utility.yul\":9463:9591   */\n    tag_273:\n        /* \"#utility.yul\":9044:9597   */\n      swap3\n      pop\n      swap3\n      swap1\n      pop\n      jump\t// out\n        /* \"#utility.yul\":9603:10132   */\n    tag_27:\n        /* \"#utility.yul\":9674:9680   */\n      0x00\n        /* \"#utility.yul\":9682:9688   */\n      0x00\n        /* \"#utility.yul\":9731:9733   */\n      0x20\n        /* \"#utility.yul\":9719:9728   */\n      dup4\n        /* \"#utility.yul\":9710:9717   */\n      dup6\n        /* \"#utility.yul\":9706:9729   */\n      sub\n        /* \"#utility.yul\":9702:9734   */\n      slt\n        /* \"#utility.yul\":9699:9818   */\n      iszero\n      tag_276\n      jumpi\n        /* \"#utility.yul\":9737:9816   */\n      tag_277\n      tag_138\n      jump\t// in\n    tag_277:\n        /* \"#utility.yul\":9699:9818   */\n    tag_276:\n        /* \"#utility.yul\":9885:9886   */\n      0x00\n        /* \"#utility.yul\":9874:9883   */\n      dup4\n        /* \"#utility.yul\":9870:9887   */\n      add\n        /* \"#utility.yul\":9857:9888   */\n      calldataload\n        /* \"#utility.yul\":9915:9933   */\n      0xffffffffffffffff\n        /* \"#utility.yul\":9907:9913   */\n      dup2\n        /* \"#utility.yul\":9904:9934   */\n      gt\n        /* \"#utility.yul\":9901:10018   */\n      iszero\n      tag_278\n      jumpi\n        /* \"#utility.yul\":9937:10016   */\n      tag_279\n      tag_139\n      jump\t// in\n    tag_279:\n        /* \"#utility.yul\":9901:10018   */\n    tag_278:\n        /* \"#utility.yul\":10050:10115   */\n      tag_280\n        /* \"#utility.yul\":10107:10114   */\n      dup6\n        /* \"#utility.yul\":10098:10104   */\n      dup3\n        /* \"#utility.yul\":10087:10096   */\n      dup7\n        /* \"#utility.yul\":10083:10105   */\n      add\n        /* \"#utility.yul\":10050:10115   */\n      tag_167\n      jump\t// in\n    tag_280:\n        /* \"#utility.yul\":10032:10115   */\n      swap3\n      pop\n      swap3\n      pop\n        /* \"#utility.yul\":9828:10125   */\n      pop\n        /* \"#utility.yul\":9603:10132   */\n      swap3\n      pop\n      swap3\n      swap1\n      pop\n      jump\t// out\n        /* \"#utility.yul\":10138:10318   */\n    tag_35:\n        /* \"#utility.yul\":10186:10263   */\n      0x4e487b7100000000000000000000000000000000000000000000000000000000\n        /* \"#utility.yul\":10183:10184   */\n      0x00\n        /* \"#utility.yul\":10176:10264   */\n      mstore\n        /* \"#utility.yul\":10283:10287   */\n      0x32\n        /* \"#utility.yul\":10280:10281   */\n      0x04\n        /* \"#utility.yul\":10273:10288   */\n      mstore\n        /* \"#utility.yul\":10307:10311   */\n      0x24\n        /* \"#utility.yul\":10304:10305   */\n      0x00\n        /* \"#utility.yul\":10297:10312   */\n      revert\n        /* \"#utility.yul\":10324:10504   */\n    tag_168:\n        /* \"#utility.yul\":10372:10449   */\n      0x4e487b7100000000000000000000000000000000000000000000000000000000\n        /* \"#utility.yul\":10369:10370   */\n      0x00\n        /* \"#utility.yul\":10362:10450   */\n      mstore\n        /* \"#utility.yul\":10469:10473   */\n      0x11\n        /* \"#utility.yul\":10466:10467   */\n      0x04\n        /* \"#utility.yul\":10459:10474   */\n      mstore\n        /* \"#utility.yul\":10493:10497   */\n      0x24\n        /* \"#utility.yul\":10490:10491   */\n      0x00\n        /* \"#utility.yul\":10483:10498   */\n      revert\n        /* \"#utility.yul\":10510:10704   */\n    tag_38:\n        /* \"#utility.yul\":10550:10554   */\n      0x00\n        /* \"#utility.yul\":10570:10590   */\n      tag_284\n        /* \"#utility.yul\":10588:10589   */\n      dup3\n        /* \"#utility.yul\":10570:10590   */\n      tag_140\n      jump\t// in\n    tag_284:\n        /* \"#utility.yul\":10565:10590   */\n      swap2\n      pop\n        /* \"#utility.yul\":10604:10624   */\n      tag_285\n        /* \"#utility.yul\":10622:10623   */\n      dup4\n        /* \"#utility.yul\":10604:10624   */\n      tag_140\n      jump\t// in\n    tag_285:\n        /* \"#utility.yul\":10599:10624   */\n      swap3\n      pop\n        /* \"#utility.yul\":10648:10649   */\n      dup3\n        /* \"#utility.yul\":10645:10646   */\n      dup3\n        /* \"#utility.yul\":10641:10650   */\n      sub\n        /* \"#utility.yul\":10633:10650   */\n      swap1\n      pop\n        /* \"#utility.yul\":10672:10673   */\n      dup2\n        /* \"#utility.yul\":10666:10670   */\n      dup2\n        /* \"#utility.yul\":10663:10674   */\n      gt\n        /* \"#utility.yul\":10660:10697   */\n      iszero\n      tag_286\n      jumpi\n        /* \"#utility.yul\":10677:10695   */\n      tag_287\n      tag_168\n      jump\t// in\n    tag_287:\n        /* \"#utility.yul\":10660:10697   */\n    tag_286:\n        /* \"#utility.yul\":10510:10704   */\n      swap3\n      swap2\n      pop\n      pop\n      jump\t// out\n        /* \"#utility.yul\":10710:10858   */\n    tag_169:\n        /* \"#utility.yul\":10812:10823   */\n      0x00\n        /* \"#utility.yul\":10849:10852   */\n      dup2\n        /* \"#utility.yul\":10834:10852   */\n      swap1\n      pop\n        /* \"#utility.yul\":10710:10858   */\n      swap3\n      swap2\n      pop\n      pop\n      jump\t// out\n        /* \"#utility.yul\":10864:11254   */\n    tag_170:\n        /* \"#utility.yul\":10970:10973   */\n      0x00\n        /* \"#utility.yul\":10998:11037   */\n      tag_290\n        /* \"#utility.yul\":11031:11036   */\n      dup3\n        /* \"#utility.yul\":10998:11037   */\n      tag_143\n      jump\t// in\n    tag_290:\n        /* \"#utility.yul\":11053:11142   */\n      tag_291\n        /* \"#utility.yul\":11135:11141   */\n      dup2\n        /* \"#utility.yul\":11130:11133   */\n      dup6\n        /* \"#utility.yul\":11053:11142   */\n      tag_169\n      jump\t// in\n    tag_291:\n        /* \"#utility.yul\":11046:11142   */\n      swap4\n      pop\n        /* \"#utility.yul\":11151:11216   */\n      tag_292\n        /* \"#utility.yul\":11209:11215   */\n      dup2\n        /* \"#utility.yul\":11204:11207   */\n      dup6\n        /* \"#utility.yul\":11197:11201   */\n      0x20\n        /* \"#utility.yul\":11190:11195   */\n      dup7\n        /* \"#utility.yul\":11186:11202   */\n      add\n        /* \"#utility.yul\":11151:11216   */\n      tag_145\n      jump\t// in\n    tag_292:\n        /* \"#utility.yul\":11241:11247   */\n      dup1\n        /* \"#utility.yul\":11236:11239   */\n      dup5\n        /* \"#utility.yul\":11232:11248   */\n      add\n        /* \"#utility.yul\":11225:11248   */\n      swap2\n      pop\n        /* \"#utility.yul\":10974:11254   */\n      pop\n        /* \"#utility.yul\":10864:11254   */\n      swap3\n      swap2\n      pop\n      pop\n      jump\t// out\n        /* \"#utility.yul\":11260:11695   */\n    tag_42:\n        /* \"#utility.yul\":11440:11443   */\n      0x00\n        /* \"#utility.yul\":11462:11557   */\n      tag_294\n        /* \"#utility.yul\":11553:11556   */\n      dup3\n        /* \"#utility.yul\":11544:11550   */\n      dup6\n        /* \"#utility.yul\":11462:11557   */\n      tag_170\n      jump\t// in\n    tag_294:\n        /* \"#utility.yul\":11455:11557   */\n      swap2\n      pop\n        /* \"#utility.yul\":11574:11669   */\n      tag_295\n        /* \"#utility.yul\":11665:11668   */\n      dup3\n        /* \"#utility.yul\":11656:11662   */\n      dup5\n        /* \"#utility.yul\":11574:11669   */\n      tag_170\n      jump\t// in\n    tag_295:\n        /* \"#utility.yul\":11567:11669   */\n      swap2\n      pop\n        /* \"#utility.yul\":11686:11689   */\n      dup2\n        /* \"#utility.yul\":11679:11689   */\n      swap1\n      pop\n        /* \"#utility.yul\":11260:11695   */\n      swap4\n      swap3\n      pop\n      pop\n      pop\n      jump\t// out\n        /* \"#utility.yul\":11701:11934   */\n    tag_45:\n        /* \"#utility.yul\":11740:11743   */\n      0x00\n        /* \"#utility.yul\":11763:11787   */\n      tag_297\n        /* \"#utility.yul\":11781:11786   */\n      dup3\n        /* \"#utility.yul\":11763:11787   */\n      tag_140\n      jump\t// in\n    tag_297:\n        /* \"#utility.yul\":11754:11787   */\n      swap2\n      pop\n        /* \"#utility.yul\":11809:11875   */\n      0xffffffffffffffffffffffffffffffffffffffffffffffffffffffffffffffff\n        /* \"#utility.yul\":11802:11807   */\n      dup3\n        /* \"#utility.yul\":11799:11876   */\n      sub\n        /* \"#utility.yul\":11796:11899   */\n      tag_298\n      jumpi\n        /* \"#utility.yul\":11879:11897   */\n      tag_299\n      tag_168\n      jump\t// in\n    tag_299:\n        /* \"#utility.yul\":11796:11899   */\n    tag_298:\n        /* \"#utility.yul\":11926:11927   */\n      0x01\n        /* \"#utility.yul\":11919:11924   */\n      dup3\n        /* \"#utility.yul\":11915:11928   */\n      add\n        /* \"#utility.yul\":11908:11928   */\n      swap1\n      pop\n        /* \"#utility.yul\":11701:11934   */\n      swap2\n      swap1\n      pop\n      jump\t// out\n        /* \"#utility.yul\":11940:12131   */\n    tag_57:\n        /* \"#utility.yul\":11980:11983   */\n      0x00\n        /* \"#utility.yul\":11999:12019   */\n      tag_301\n        /* \"#utility.yul\":12017:12018   */\n      dup3\n        /* \"#utility.yul\":11999:12019   */\n      tag_140\n      jump\t// in\n    tag_301:\n        /* \"#utility.yul\":11994:12019   */\n      swap2\n      pop\n        /* \"#utility.yul\":12033:12053   */\n      tag_302\n        /* \"#utility.yul\":12051:12052   */\n      dup4\n        /* \"#utility.yul\":12033:12053   */\n      tag_140\n      jump\t// in\n    tag_302:\n        /* \"#utility.yul\":12028:12053   */\n      swap3\n      pop\n        /* \"#utility.yul\":12076:12077   */\n      dup3\n        /* \"#utility.yul\":12073:12074   */\n      dup3\n        /* \"#utility.yul\":12069:12078   */\n      add\n        /* \"#utility.yul\":12062:12078   */\n      swap1\n      pop\n        /* \"#utility.yul\":12097:12100   */\n      dup1\n        /* \"#utility.yul\":12094:12095   */\n      dup3\n        /* \"#utility.yul\":12091:12101   */\n      gt\n        /* \"#utility.yul\":12088:12124   */\n      iszero\n      tag_303\n      jumpi\n        /* \"#utility.yul\":12104:12122   */\n      tag_304\n      tag_168\n      jump\t// in\n    tag_304:\n        /* \"#utility.yul\":12088:12124   */\n    tag_303:\n        /* \"#utility.yul\":11940:12131   */\n      swap3\n      swap2\n      pop\n      pop\n      jump\t// out\n\n    auxdata: 0xa2646970667358221220459c3b15887db5da859fd8e24d108b6a974345b25167c50e588b18011706d72e64736f6c634300081e0033\n}\n",
				"bytecode": {
					"linkReferences": {},
					"object": "6080604052348015600e575f5ffd5b506112af8061001c5f395ff3fe608060405234801561000f575f5ffd5b506004361061004a575f3560e01c80630cbc513a1461004e578063cb159dfe1461007e578063de948709146100ae578063f3582c69146100de575b5f5ffd5b61006860048036038101906100639190610c6d565b61010e565b6040516100759190610d08565b60405180910390f35b61009860048036038101906100939190610e54565b610527565b6040516100a59190610eaa565b60405180910390f35b6100c860048036038101906100c39190610f20565b610647565b6040516100d59190611055565b60405180910390f35b6100f860048036038101906100f391906110ca565b610884565b6040516101059190610d08565b60405180910390f35b60605f604051806101a001604052806103e8815260200161038481526020016101f48152602001610190815260200160648152602001605a81526020016032815260200160288152602001600a8152602001600981526020016005815260200160048152602001600181525090505f604051806101a001604052806040518060400160405280600181526020017f4d0000000000000000000000000000000000000000000000000000000000000081525081526020016040518060400160405280600281526020017f434d00000000000000000000000000000000000000000000000000000000000081525081526020016040518060400160405280600181526020017f440000000000000000000000000000000000000000000000000000000000000081525081526020016040518060400160405280600281526020017f434400000000000000000000000000000000000000000000000000000000000081525081526020016040518060400160405280600181526020017f430000000000000000000000000000000000000000000000000000000000000081525081526020016040518060400160405280600281526020017f584300000000000000000000000000000000000000000000000000000000000081525081526020016040518060400160405280600181526020017f4c0000000000000000000000000000000000000000000000000000000000000081525081526020016040518060400160405280600281526020017f584c00000000000000000000000000000000000000000000000000000000000081525081526020016040518060400160405280600181526020017f580000000000000000000000000000000000000000000000000000000000000081525081526020016040518060400160405280600281526020017f495800000000000000000000000000000000000000000000000000000000000081525081526020016040518060400160405280600181526020017f560000000000000000000000000000000000000000000000000000000000000081525081526020016040518060400160405280600281526020017f495600000000000000000000000000000000000000000000000000000000000081525081526020016040518060400160405280600181526020017f4900000000000000000000000000000000000000000000000000000000000000815250815250905060605f5f90505b5f861461051b575f8482600d81106104aa576104a9611115565b5b602002015190508087106105065780876104c4919061116f565b9650828483600d81106104da576104d9611115565b5b60200201516040516020016104f09291906111dc565b6040516020818303038152906040529250610515565b8180610511906111ff565b9250505b5061048f565b81945050505050919050565b5f5f8290505f5f90505f825190505f5f90505b8181101561063b575f61056985838151811061055957610558611115565b5b602001015160f81c60f81b6109df565b9050600183610578919061116f565b820361059257808461058a9190611246565b93505061063b565b5f6105c5866001856105a49190611246565b815181106105b5576105b4611115565b5b602001015160f81c60f81b6109df565b90508082101561061757818510156106035781816105e3919061116f565b856105ee9190611246565b945082806105fb906111ff565b935050610612565b818561060f919061116f565b94505b610626565b81856106239190611246565b94505b50508080610633906111ff565b91505061053a565b50819350505050919050565b60605f8585905090505f8484905090505f81836106649190611246565b67ffffffffffffffff81111561067d5761067c610d30565b5b6040519080825280602002602001820160405280156106ab5781602001602082028036833780820191505090505b5090505f5f90505f5f90505f5f90505b85831080156106c957508482105b156107b5578888838181106106e1576106e0611115565b5b905060200201358b8b858181106106fb576106fa611115565b5b90506020020135101561075e578a8a8480610715906111ff565b955081811061072757610726611115565b5b9050602002013584828061073a906111ff565b93508151811061074d5761074c611115565b5b6020026020010181815250506107b0565b8888838061076b906111ff565b945081811061077d5761077c611115565b5b90506020020135848280610790906111ff565b9350815181106107a3576107a2611115565b5b6020026020010181815250505b6106bb565b5b85831015610814578a8a84806107cb906111ff565b95508181106107dd576107dc611115565b5b905060200201358482806107f0906111ff565b93508151811061080357610802611115565b5b6020026020010181815250506107b6565b5b84821015610873578888838061082a906111ff565b945081811061083c5761083b611115565b5b9050602002013584828061084f906111ff565b93508151811061086257610861611115565b5b602002602001018181525050610815565b839650505050505050949350505050565b60605f83838080601f0160208091040260200160405190810160405280939291908181526020018383808284375f81840152601f19601f8201169050808301925050505050505090505f815190505f81036108f15760405180602001604052805f815250925050506109d9565b5f8167ffffffffffffffff81111561090c5761090b610d30565b5b6040519080825280601f01601f19166020018201604052801561093e5781602001600182028036833780820191505090505b5090505f5f90505b828110156109d157838160018561095d919061116f565b610967919061116f565b8151811061097857610977611115565b5b602001015160f81c60f81b82828151811061099657610995611115565b5b60200101907effffffffffffffffffffffffffffffffffffffffffffffffffffffffffffff191690815f1a9053508080600101915050610946565b508093505050505b92915050565b5f7f4900000000000000000000000000000000000000000000000000000000000000827effffffffffffffffffffffffffffffffffffffffffffffffffffffffffffff191603610a325760019050610c24565b7f5600000000000000000000000000000000000000000000000000000000000000827effffffffffffffffffffffffffffffffffffffffffffffffffffffffffffff191603610a845760059050610c24565b7f5800000000000000000000000000000000000000000000000000000000000000827effffffffffffffffffffffffffffffffffffffffffffffffffffffffffffff191603610ad657600a9050610c24565b7f4c00000000000000000000000000000000000000000000000000000000000000827effffffffffffffffffffffffffffffffffffffffffffffffffffffffffffff191603610b285760329050610c24565b7f4300000000000000000000000000000000000000000000000000000000000000827effffffffffffffffffffffffffffffffffffffffffffffffffffffffffffff191603610b7a5760649050610c24565b7f4400000000000000000000000000000000000000000000000000000000000000827effffffffffffffffffffffffffffffffffffffffffffffffffffffffffffff191603610bcd576101f49050610c24565b7f4d00000000000000000000000000000000000000000000000000000000000000827effffffffffffffffffffffffffffffffffffffffffffffffffffffffffffff191603610c20576103e89050610c24565b5f90505b919050565b5f604051905090565b5f5ffd5b5f5ffd5b5f819050919050565b610c4c81610c3a565b8114610c56575f5ffd5b50565b5f81359050610c6781610c43565b92915050565b5f60208284031215610c8257610c81610c32565b5b5f610c8f84828501610c59565b91505092915050565b5f81519050919050565b5f82825260208201905092915050565b8281835e5f83830152505050565b5f601f19601f8301169050919050565b5f610cda82610c98565b610ce48185610ca2565b9350610cf4818560208601610cb2565b610cfd81610cc0565b840191505092915050565b5f6020820190508181035f830152610d208184610cd0565b905092915050565b5f5ffd5b5f5ffd5b7f4e487b71000000000000000000000000000000000000000000000000000000005f52604160045260245ffd5b610d6682610cc0565b810181811067ffffffffffffffff82111715610d8557610d84610d30565b5b80604052505050565b5f610d97610c29565b9050610da38282610d5d565b919050565b5f67ffffffffffffffff821115610dc257610dc1610d30565b5b610dcb82610cc0565b9050602081019050919050565b828183375f83830152505050565b5f610df8610df384610da8565b610d8e565b905082815260208101848484011115610e1457610e13610d2c565b5b610e1f848285610dd8565b509392505050565b5f82601f830112610e3b57610e3a610d28565b5b8135610e4b848260208601610de6565b91505092915050565b5f60208284031215610e6957610e68610c32565b5b5f82013567ffffffffffffffff811115610e8657610e85610c36565b5b610e9284828501610e27565b91505092915050565b610ea481610c3a565b82525050565b5f602082019050610ebd5f830184610e9b565b92915050565b5f5ffd5b5f5ffd5b5f5f83601f840112610ee057610edf610d28565b5b8235905067ffffffffffffffff811115610efd57610efc610ec3565b5b602083019150836020820283011115610f1957610f18610ec7565b5b9250929050565b5f5f5f5f60408587031215610f3857610f37610c32565b5b5f85013567ffffffffffffffff811115610f5557610f54610c36565b5b610f6187828801610ecb565b9450945050602085013567ffffffffffffffff811115610f8457610f83610c36565b5b610f9087828801610ecb565b925092505092959194509250565b5f81519050919050565b5f82825260208201905092915050565b5f819050602082019050919050565b610fd081610c3a565b82525050565b5f610fe18383610fc7565b60208301905092915050565b5f602082019050919050565b5f61100382610f9e565b61100d8185610fa8565b935061101883610fb8565b805f5b8381101561104857815161102f8882610fd6565b975061103a83610fed565b92505060018101905061101b565b5085935050505092915050565b5f6020820190508181035f83015261106d8184610ff9565b905092915050565b5f5f83601f84011261108a57611089610d28565b5b8235905067ffffffffffffffff8111156110a7576110a6610ec3565b5b6020830191508360018202830111156110c3576110c2610ec7565b5b9250929050565b5f5f602083850312156110e0576110df610c32565b5b5f83013567ffffffffffffffff8111156110fd576110fc610c36565b5b61110985828601611075565b92509250509250929050565b7f4e487b71000000000000000000000000000000000000000000000000000000005f52603260045260245ffd5b7f4e487b71000000000000000000000000000000000000000000000000000000005f52601160045260245ffd5b5f61117982610c3a565b915061118483610c3a565b925082820390508181111561119c5761119b611142565b5b92915050565b5f81905092915050565b5f6111b682610c98565b6111c081856111a2565b93506111d0818560208601610cb2565b80840191505092915050565b5f6111e782856111ac565b91506111f382846111ac565b91508190509392505050565b5f61120982610c3a565b91507fffffffffffffffffffffffffffffffffffffffffffffffffffffffffffffffff820361123b5761123a611142565b5b600182019050919050565b5f61125082610c3a565b915061125b83610c3a565b925082820190508082111561127357611272611142565b5b9291505056fea2646970667358221220459c3b15887db5da859fd8e24d108b6a974345b25167c50e588b18011706d72e64736f6c634300081e0033",
					"opcodes": "PUSH1 0x80 PUSH1 0x40 MSTORE CALLVALUE DUP1 ISZERO PUSH1 0xE JUMPI PUSH0 PUSH0 REVERT JUMPDEST POP PUSH2 0x12AF DUP1 PUSH2 0x1C PUSH0 CODECOPY PUSH0 RETURN INVALID PUSH1 0x80 PUSH1 0x40 MSTORE CALLVALUE DUP1 ISZERO PUSH2 0xF JUMPI PUSH0 PUSH0 REVERT JUMPDEST POP PUSH1 0x4 CALLDATASIZE LT PUSH2 0x4A JUMPI PUSH0 CALLDATALOAD PUSH1 0xE0 SHR DUP1 PUSH4 0xCBC513A EQ PUSH2 0x4E JUMPI DUP1 PUSH4 0xCB159DFE EQ PUSH2 0x7E JUMPI DUP1 PUSH4 0xDE948709 EQ PUSH2 0xAE JUMPI DUP1 PUSH4 0xF3582C69 EQ PUSH2 0xDE JUMPI JUMPDEST PUSH0 PUSH0 REVERT JUMPDEST PUSH2 0x68 PUSH1 0x4 DUP1 CALLDATASIZE SUB DUP2 ADD SWAP1 PUSH2 0x63 SWAP2 SWAP1 PUSH2 0xC6D JUMP JUMPDEST PUSH2 0x10E JUMP JUMPDEST PUSH1 0x40 MLOAD PUSH2 0x75 SWAP2 SWAP1 PUSH2 0xD08 JUMP JUMPDEST PUSH1 0x40 MLOAD DUP1 SWAP2 SUB SWAP1 RETURN JUMPDEST PUSH2 0x98 PUSH1 0x4 DUP1 CALLDATASIZE SUB DUP2 ADD SWAP1 PUSH2 0x93 SWAP2 SWAP1 PUSH2 0xE54 JUMP JUMPDEST PUSH2 0x527 JUMP JUMPDEST PUSH1 0x40 MLOAD PUSH2 0xA5 SWAP2 SWAP1 PUSH2 0xEAA JUMP JUMPDEST PUSH1 0x40 MLOAD DUP1 SWAP2 SUB SWAP1 RETURN JUMPDEST PUSH2 0xC8 PUSH1 0x4 DUP1 CALLDATASIZE SUB DUP2 ADD SWAP1 PUSH2 0xC3 SWAP2 SWAP1 PUSH2 0xF20 JUMP JUMPDEST PUSH2 0x647 JUMP JUMPDEST PUSH1 0x40 MLOAD PUSH2 0xD5 SWAP2 SWAP1 PUSH2 0x1055 JUMP JUMPDEST PUSH1 0x40 MLOAD DUP1 SWAP2 SUB SWAP1 RETURN JUMPDEST PUSH2 0xF8 PUSH1 0x4 DUP1 CALLDATASIZE SUB DUP2 ADD SWAP1 PUSH2 0xF3 SWAP2 SWAP1 PUSH2 0x10CA JUMP JUMPDEST PUSH2 0x884 JUMP JUMPDEST PUSH1 0x40 MLOAD PUSH2 0x105 SWAP2 SWAP1 PUSH2 0xD08 JUMP JUMPDEST PUSH1 0x40 MLOAD DUP1 SWAP2 SUB SWAP1 RETURN JUMPDEST PUSH1 0x60 PUSH0 PUSH1 0x40 MLOAD DUP1 PUSH2 0x1A0 ADD PUSH1 0x40 MSTORE DUP1 PUSH2 0x3E8 DUP2 MSTORE PUSH1 0x20 ADD PUSH2 0x384 DUP2 MSTORE PUSH1 0x20 ADD PUSH2 0x1F4 DUP2 MSTORE PUSH1 0x20 ADD PUSH2 0x190 DUP2 MSTORE PUSH1 0x20 ADD PUSH1 0x64 DUP2 MSTORE PUSH1 0x20 ADD PUSH1 0x5A DUP2 MSTORE PUSH1 0x20 ADD PUSH1 0x32 DUP2 MSTORE PUSH1 0x20 ADD PUSH1 0x28 DUP2 MSTORE PUSH1 0x20 ADD PUSH1 0xA DUP2 MSTORE PUSH1 0x20 ADD PUSH1 0x9 DUP2 MSTORE PUSH1 0x20 ADD PUSH1 0x5 DUP2 MSTORE PUSH1 0x20 ADD PUSH1 0x4 DUP2 MSTORE PUSH1 0x20 ADD PUSH1 0x1 DUP2 MSTORE POP SWAP1 POP PUSH0 PUSH1 0x40 MLOAD DUP1 PUSH2 0x1A0 ADD PUSH1 0x40 MSTORE DUP1 PUSH1 0x40 MLOAD DUP1 PUSH1 0x40 ADD PUSH1 0x40 MSTORE DUP1 PUSH1 0x1 DUP2 MSTORE PUSH1 0x20 ADD PUSH32 0x4D00000000000000000000000000000000000000000000000000000000000000 DUP2 MSTORE POP DUP2 MSTORE PUSH1 0x20 ADD PUSH1 0x40 MLOAD DUP1 PUSH1 0x40 ADD PUSH1 0x40 MSTORE DUP1 PUSH1 0x2 DUP2 MSTORE PUSH1 0x20 ADD PUSH32 0x434D000000000000000000000000000000000000000000000000000000000000 DUP2 MSTORE POP DUP2 MSTORE PUSH1 0x20 ADD PUSH1 0x40 MLOAD DUP1 PUSH1 0x40 ADD PUSH1 0x40 MSTORE DUP1 PUSH1 0x1 DUP2 MSTORE PUSH1 0x20 ADD PUSH32 0x4400000000000000000000000000000000000000000000000000000000000000 DUP2 MSTORE POP DUP2 MSTORE PUSH1 0x20 ADD PUSH1 0x40 MLOAD DUP1 PUSH1 0x40 ADD PUSH1 0x40 MSTORE DUP1 PUSH1 0x2 DUP2 MSTORE PUSH1 0x20 ADD PUSH32 0x4344000000000000000000000000000000000000000000000000000000000000 DUP2 MSTORE POP DUP2 MSTORE PUSH1 0x20 ADD PUSH1 0x40 MLOAD DUP1 PUSH1 0x40 ADD PUSH1 0x40 MSTORE DUP1 PUSH1 0x1 DUP2 MSTORE PUSH1 0x20 ADD PUSH32 0x4300000000000000000000000000000000000000000000000000000000000000 DUP2 MSTORE POP DUP2 MSTORE PUSH1 0x20 ADD PUSH1 0x40 MLOAD DUP1 PUSH1 0x40 ADD PUSH1 0x40 MSTORE DUP1 PUSH1 0x2 DUP2 MSTORE PUSH1 0x20 ADD PUSH32 0x5843000000000000000000000000000000000000000000000000000000000000 DUP2 MSTORE POP DUP2 MSTORE PUSH1 0x20 ADD PUSH1 0x40 MLOAD DUP1 PUSH1 0x40 ADD PUSH1 0x40 MSTORE DUP1 PUSH1 0x1 DUP2 MSTORE PUSH1 0x20 ADD PUSH32 0x4C00000000000000000000000000000000000000000000000000000000000000 DUP2 MSTORE POP DUP2 MSTORE PUSH1 0x20 ADD PUSH1 0x40 MLOAD DUP1 PUSH1 0x40 ADD PUSH1 0x40 MSTORE DUP1 PUSH1 0x2 DUP2 MSTORE PUSH1 0x20 ADD PUSH32 0x584C000000000000000000000000000000000000000000000000000000000000 DUP2 MSTORE POP DUP2 MSTORE PUSH1 0x20 ADD PUSH1 0x40 MLOAD DUP1 PUSH1 0x40 ADD PUSH1 0x40 MSTORE DUP1 PUSH1 0x1 DUP2 MSTORE PUSH1 0x20 ADD PUSH32 0x5800000000000000000000000000000000000000000000000000000000000000 DUP2 MSTORE POP DUP2 MSTORE PUSH1 0x20 ADD PUSH1 0x40 MLOAD DUP1 PUSH1 0x40 ADD PUSH1 0x40 MSTORE DUP1 PUSH1 0x2 DUP2 MSTORE PUSH1 0x20 ADD PUSH32 0x4958000000000000000000000000000000000000000000000000000000000000 DUP2 MSTORE POP DUP2 MSTORE PUSH1 0x20 ADD PUSH1 0x40 MLOAD DUP1 PUSH1 0x40 ADD PUSH1 0x40 MSTORE DUP1 PUSH1 0x1 DUP2 MSTORE PUSH1 0x20 ADD PUSH32 0x5600000000000000000000000000000000000000000000000000000000000000 DUP2 MSTORE POP DUP2 MSTORE PUSH1 0x20 ADD PUSH1 0x40 MLOAD DUP1 PUSH1 0x40 ADD PUSH1 0x40 MSTORE DUP1 PUSH1 0x2 DUP2 MSTORE PUSH1 0x20 ADD PUSH32 0x4956000000000000000000000000000000000000000000000000000000000000 DUP2 MSTORE POP DUP2 MSTORE PUSH1 0x20 ADD PUSH1 0x40 MLOAD DUP1 PUSH1 0x40 ADD PUSH1 0x40 MSTORE DUP1 PUSH1 0x1 DUP2 MSTORE PUSH1 0x20 ADD PUSH32 0x4900000000000000000000000000000000000000000000000000000000000000 DUP2 MSTORE POP DUP2 MSTORE POP SWAP1 POP PUSH1 0x60 PUSH0 PUSH0 SWAP1 POP JUMPDEST PUSH0 DUP7 EQ PUSH2 0x51B JUMPI PUSH0 DUP5 DUP3 PUSH1 0xD DUP2 LT PUSH2 0x4AA JUMPI PUSH2 0x4A9 PUSH2 0x1115 JUMP JUMPDEST JUMPDEST PUSH1 0x20 MUL ADD MLOAD SWAP1 POP DUP1 DUP8 LT PUSH2 0x506 JUMPI DUP1 DUP8 PUSH2 0x4C4 SWAP2 SWAP1 PUSH2 0x116F JUMP JUMPDEST SWAP7 POP DUP3 DUP5 DUP4 PUSH1 0xD DUP2 LT PUSH2 0x4DA JUMPI PUSH2 0x4D9 PUSH2 0x1115 JUMP JUMPDEST JUMPDEST PUSH1 0x20 MUL ADD MLOAD PUSH1 0x40 MLOAD PUSH1 0x20 ADD PUSH2 0x4F0 SWAP3 SWAP2 SWAP1 PUSH2 0x11DC JUMP JUMPDEST PUSH1 0x40 MLOAD PUSH1 0x20 DUP2 DUP4 SUB SUB DUP2 MSTORE SWAP1 PUSH1 0x40 MSTORE SWAP3 POP PUSH2 0x515 JUMP JUMPDEST DUP2 DUP1 PUSH2 0x511 SWAP1 PUSH2 0x11FF JUMP JUMPDEST SWAP3 POP POP JUMPDEST POP PUSH2 0x48F JUMP JUMPDEST DUP2 SWAP5 POP POP POP POP POP SWAP2 SWAP1 POP JUMP JUMPDEST PUSH0 PUSH0 DUP3 SWAP1 POP PUSH0 PUSH0 SWAP1 POP PUSH0 DUP3 MLOAD SWAP1 POP PUSH0 PUSH0 SWAP1 POP JUMPDEST DUP2 DUP2 LT ISZERO PUSH2 0x63B JUMPI PUSH0 PUSH2 0x569 DUP6 DUP4 DUP2 MLOAD DUP2 LT PUSH2 0x559 JUMPI PUSH2 0x558 PUSH2 0x1115 JUMP JUMPDEST JUMPDEST PUSH1 0x20 ADD ADD MLOAD PUSH1 0xF8 SHR PUSH1 0xF8 SHL PUSH2 0x9DF JUMP JUMPDEST SWAP1 POP PUSH1 0x1 DUP4 PUSH2 0x578 SWAP2 SWAP1 PUSH2 0x116F JUMP JUMPDEST DUP3 SUB PUSH2 0x592 JUMPI DUP1 DUP5 PUSH2 0x58A SWAP2 SWAP1 PUSH2 0x1246 JUMP JUMPDEST SWAP4 POP POP PUSH2 0x63B JUMP JUMPDEST PUSH0 PUSH2 0x5C5 DUP7 PUSH1 0x1 DUP6 PUSH2 0x5A4 SWAP2 SWAP1 PUSH2 0x1246 JUMP JUMPDEST DUP2 MLOAD DUP2 LT PUSH2 0x5B5 JUMPI PUSH2 0x5B4 PUSH2 0x1115 JUMP JUMPDEST JUMPDEST PUSH1 0x20 ADD ADD MLOAD PUSH1 0xF8 SHR PUSH1 0xF8 SHL PUSH2 0x9DF JUMP JUMPDEST SWAP1 POP DUP1 DUP3 LT ISZERO PUSH2 0x617 JUMPI DUP2 DUP6 LT ISZERO PUSH2 0x603 JUMPI DUP2 DUP2 PUSH2 0x5E3 SWAP2 SWAP1 PUSH2 0x116F JUMP JUMPDEST DUP6 PUSH2 0x5EE SWAP2 SWAP1 PUSH2 0x1246 JUMP JUMPDEST SWAP5 POP DUP3 DUP1 PUSH2 0x5FB SWAP1 PUSH2 0x11FF JUMP JUMPDEST SWAP4 POP POP PUSH2 0x612 JUMP JUMPDEST DUP2 DUP6 PUSH2 0x60F SWAP2 SWAP1 PUSH2 0x116F JUMP JUMPDEST SWAP5 POP JUMPDEST PUSH2 0x626 JUMP JUMPDEST DUP2 DUP6 PUSH2 0x623 SWAP2 SWAP1 PUSH2 0x1246 JUMP JUMPDEST SWAP5 POP JUMPDEST POP POP DUP1 DUP1 PUSH2 0x633 SWAP1 PUSH2 0x11FF JUMP JUMPDEST SWAP2 POP POP PUSH2 0x53A JUMP JUMPDEST POP DUP2 SWAP4 POP POP POP POP SWAP2 SWAP1 POP JUMP JUMPDEST PUSH1 0x60 PUSH0 DUP6 DUP6 SWAP1 POP SWAP1 POP PUSH0 DUP5 DUP5 SWAP1 POP SWAP1 POP PUSH0 DUP2 DUP4 PUSH2 0x664 SWAP2 SWAP1 PUSH2 0x1246 JUMP JUMPDEST PUSH8 0xFFFFFFFFFFFFFFFF DUP2 GT ISZERO PUSH2 0x67D JUMPI PUSH2 0x67C PUSH2 0xD30 JUMP JUMPDEST JUMPDEST PUSH1 0x40 MLOAD SWAP1 DUP1 DUP3 MSTORE DUP1 PUSH1 0x20 MUL PUSH1 0x20 ADD DUP3 ADD PUSH1 0x40 MSTORE DUP1 ISZERO PUSH2 0x6AB JUMPI DUP2 PUSH1 0x20 ADD PUSH1 0x20 DUP3 MUL DUP1 CALLDATASIZE DUP4 CALLDATACOPY DUP1 DUP3 ADD SWAP2 POP POP SWAP1 POP JUMPDEST POP SWAP1 POP PUSH0 PUSH0 SWAP1 POP PUSH0 PUSH0 SWAP1 POP PUSH0 PUSH0 SWAP1 POP JUMPDEST DUP6 DUP4 LT DUP1 ISZERO PUSH2 0x6C9 JUMPI POP DUP5 DUP3 LT JUMPDEST ISZERO PUSH2 0x7B5 JUMPI DUP9 DUP9 DUP4 DUP2 DUP2 LT PUSH2 0x6E1 JUMPI PUSH2 0x6E0 PUSH2 0x1115 JUMP JUMPDEST JUMPDEST SWAP1 POP PUSH1 0x20 MUL ADD CALLDATALOAD DUP12 DUP12 DUP6 DUP2 DUP2 LT PUSH2 0x6FB JUMPI PUSH2 0x6FA PUSH2 0x1115 JUMP JUMPDEST JUMPDEST SWAP1 POP PUSH1 0x20 MUL ADD CALLDATALOAD LT ISZERO PUSH2 0x75E JUMPI DUP11 DUP11 DUP5 DUP1 PUSH2 0x715 SWAP1 PUSH2 0x11FF JUMP JUMPDEST SWAP6 POP DUP2 DUP2 LT PUSH2 0x727 JUMPI PUSH2 0x726 PUSH2 0x1115 JUMP JUMPDEST JUMPDEST SWAP1 POP PUSH1 0x20 MUL ADD CALLDATALOAD DUP5 DUP3 DUP1 PUSH2 0x73A SWAP1 PUSH2 0x11FF JUMP JUMPDEST SWAP4 POP DUP2 MLOAD DUP2 LT PUSH2 0x74D JUMPI PUSH2 0x74C PUSH2 0x1115 JUMP JUMPDEST JUMPDEST PUSH1 0x20 MUL PUSH1 0x20 ADD ADD DUP2 DUP2 MSTORE POP POP PUSH2 0x7B0 JUMP JUMPDEST DUP9 DUP9 DUP4 DUP1 PUSH2 0x76B SWAP1 PUSH2 0x11FF JUMP JUMPDEST SWAP5 POP DUP2 DUP2 LT PUSH2 0x77D JUMPI PUSH2 0x77C PUSH2 0x1115 JUMP JUMPDEST JUMPDEST SWAP1 POP PUSH1 0x20 MUL ADD CALLDATALOAD DUP5 DUP3 DUP1 PUSH2 0x790 SWAP1 PUSH2 0x11FF JUMP JUMPDEST SWAP4 POP DUP2 MLOAD DUP2 LT PUSH2 0x7A3 JUMPI PUSH2 0x7A2 PUSH2 0x1115 JUMP JUMPDEST JUMPDEST PUSH1 0x20 MUL PUSH1 0x20 ADD ADD DUP2 DUP2 MSTORE POP POP JUMPDEST PUSH2 0x6BB JUMP JUMPDEST JUMPDEST DUP6 DUP4 LT ISZERO PUSH2 0x814 JUMPI DUP11 DUP11 DUP5 DUP1 PUSH2 0x7CB SWAP1 PUSH2 0x11FF JUMP JUMPDEST SWAP6 POP DUP2 DUP2 LT PUSH2 0x7DD JUMPI PUSH2 0x7DC PUSH2 0x1115 JUMP JUMPDEST JUMPDEST SWAP1 POP PUSH1 0x20 MUL ADD CALLDATALOAD DUP5 DUP3 DUP1 PUSH2 0x7F0 SWAP1 PUSH2 0x11FF JUMP JUMPDEST SWAP4 POP DUP2 MLOAD DUP2 LT PUSH2 0x803 JUMPI PUSH2 0x802 PUSH2 0x1115 JUMP JUMPDEST JUMPDEST PUSH1 0x20 MUL PUSH1 0x20 ADD ADD DUP2 DUP2 MSTORE POP POP PUSH2 0x7B6 JUMP JUMPDEST JUMPDEST DUP5 DUP3 LT ISZERO PUSH2 0x873 JUMPI DUP9 DUP9 DUP4 DUP1 PUSH2 0x82A SWAP1 PUSH2 0x11FF JUMP JUMPDEST SWAP5 POP DUP2 DUP2 LT PUSH2 0x83C JUMPI PUSH2 0x83B PUSH2 0x1115 JUMP JUMPDEST JUMPDEST SWAP1 POP PUSH1 0x20 MUL ADD CALLDATALOAD DUP5 DUP3 DUP1 PUSH2 0x84F SWAP1 PUSH2 0x11FF JUMP JUMPDEST SWAP4 POP DUP2 MLOAD DUP2 LT PUSH2 0x862 JUMPI PUSH2 0x861 PUSH2 0x1115 JUMP JUMPDEST JUMPDEST PUSH1 0x20 MUL PUSH1 0x20 ADD ADD DUP2 DUP2 MSTORE POP POP PUSH2 0x815 JUMP JUMPDEST DUP4 SWAP7 POP POP POP POP POP POP POP SWAP5 SWAP4 POP POP POP POP JUMP JUMPDEST PUSH1 0x60 PUSH0 DUP4 DUP4 DUP1 DUP1 PUSH1 0x1F ADD PUSH1 0x20 DUP1 SWAP2 DIV MUL PUSH1 0x20 ADD PUSH1 0x40 MLOAD SWAP1 DUP2 ADD PUSH1 0x40 MSTORE DUP1 SWAP4 SWAP3 SWAP2 SWAP1 DUP2 DUP2 MSTORE PUSH1 0x20 ADD DUP4 DUP4 DUP1 DUP3 DUP5 CALLDATACOPY PUSH0 DUP2 DUP5 ADD MSTORE PUSH1 0x1F NOT PUSH1 0x1F DUP3 ADD AND SWAP1 POP DUP1 DUP4 ADD SWAP3 POP POP POP POP POP POP POP SWAP1 POP PUSH0 DUP2 MLOAD SWAP1 POP PUSH0 DUP2 SUB PUSH2 0x8F1 JUMPI PUSH1 0x40 MLOAD DUP1 PUSH1 0x20 ADD PUSH1 0x40 MSTORE DUP1 PUSH0 DUP2 MSTORE POP SWAP3 POP POP POP PUSH2 0x9D9 JUMP JUMPDEST PUSH0 DUP2 PUSH8 0xFFFFFFFFFFFFFFFF DUP2 GT ISZERO PUSH2 0x90C JUMPI PUSH2 0x90B PUSH2 0xD30 JUMP JUMPDEST JUMPDEST PUSH1 0x40 MLOAD SWAP1 DUP1 DUP3 MSTORE DUP1 PUSH1 0x1F ADD PUSH1 0x1F NOT AND PUSH1 0x20 ADD DUP3 ADD PUSH1 0x40 MSTORE DUP1 ISZERO PUSH2 0x93E JUMPI DUP2 PUSH1 0x20 ADD PUSH1 0x1 DUP3 MUL DUP1 CALLDATASIZE DUP4 CALLDATACOPY DUP1 DUP3 ADD SWAP2 POP POP SWAP1 POP JUMPDEST POP SWAP1 POP PUSH0 PUSH0 SWAP1 POP JUMPDEST DUP3 DUP2 LT ISZERO PUSH2 0x9D1 JUMPI DUP4 DUP2 PUSH1 0x1 DUP6 PUSH2 0x95D SWAP2 SWAP1 PUSH2 0x116F JUMP JUMPDEST PUSH2 0x967 SWAP2 SWAP1 PUSH2 0x116F JUMP JUMPDEST DUP2 MLOAD DUP2 LT PUSH2 0x978 JUMPI PUSH2 0x977 PUSH2 0x1115 JUMP JUMPDEST JUMPDEST PUSH1 0x20 ADD ADD MLOAD PUSH1 0xF8 SHR PUSH1 0xF8 SHL DUP3 DUP3 DUP2 MLOAD DUP2 LT PUSH2 0x996 JUMPI PUSH2 0x995 PUSH2 0x1115 JUMP JUMPDEST JUMPDEST PUSH1 0x20 ADD ADD SWAP1 PUSH31 0xFFFFFFFFFFFFFFFFFFFFFFFFFFFFFFFFFFFFFFFFFFFFFFFFFFFFFFFFFFFFFF NOT AND SWAP1 DUP2 PUSH0 BYTE SWAP1 MSTORE8 POP DUP1 DUP1 PUSH1 0x1 ADD SWAP2 POP POP PUSH2 0x946 JUMP JUMPDEST POP DUP1 SWAP4 POP POP POP POP JUMPDEST SWAP3 SWAP2 POP POP JUMP JUMPDEST PUSH0 PUSH32 0x4900000000000000000000000000000000000000000000000000000000000000 DUP3 PUSH31 0xFFFFFFFFFFFFFFFFFFFFFFFFFFFFFFFFFFFFFFFFFFFFFFFFFFFFFFFFFFFFFF NOT AND SUB PUSH2 0xA32 JUMPI PUSH1 0x1 SWAP1 POP PUSH2 0xC24 JUMP JUMPDEST PUSH32 0x5600000000000000000000000000000000000000000000000000000000000000 DUP3 PUSH31 0xFFFFFFFFFFFFFFFFFFFFFFFFFFFFFFFFFFFFFFFFFFFFFFFFFFFFFFFFFFFFFF NOT AND SUB PUSH2 0xA84 JUMPI PUSH1 0x5 SWAP1 POP PUSH2 0xC24 JUMP JUMPDEST PUSH32 0x5800000000000000000000000000000000000000000000000000000000000000 DUP3 PUSH31 0xFFFFFFFFFFFFFFFFFFFFFFFFFFFFFFFFFFFFFFFFFFFFFFFFFFFFFFFFFFFFFF NOT AND SUB PUSH2 0xAD6 JUMPI PUSH1 0xA SWAP1 POP PUSH2 0xC24 JUMP JUMPDEST PUSH32 0x4C00000000000000000000000000000000000000000000000000000000000000 DUP3 PUSH31 0xFFFFFFFFFFFFFFFFFFFFFFFFFFFFFFFFFFFFFFFFFFFFFFFFFFFFFFFFFFFFFF NOT AND SUB PUSH2 0xB28 JUMPI PUSH1 0x32 SWAP1 POP PUSH2 0xC24 JUMP JUMPDEST PUSH32 0x4300000000000000000000000000000000000000000000000000000000000000 DUP3 PUSH31 0xFFFFFFFFFFFFFFFFFFFFFFFFFFFFFFFFFFFFFFFFFFFFFFFFFFFFFFFFFFFFFF NOT AND SUB PUSH2 0xB7A JUMPI PUSH1 0x64 SWAP1 POP PUSH2 0xC24 JUMP JUMPDEST PUSH32 0x4400000000000000000000000000000000000000000000000000000000000000 DUP3 PUSH31 0xFFFFFFFFFFFFFFFFFFFFFFFFFFFFFFFFFFFFFFFFFFFFFFFFFFFFFFFFFFFFFF NOT AND SUB PUSH2 0xBCD JUMPI PUSH2 0x1F4 SWAP1 POP PUSH2 0xC24 JUMP JUMPDEST PUSH32 0x4D00000000000000000000000000000000000000000000000000000000000000 DUP3 PUSH31 0xFFFFFFFFFFFFFFFFFFFFFFFFFFFFFFFFFFFFFFFFFFFFFFFFFFFFFFFFFFFFFF NOT AND SUB PUSH2 0xC20 JUMPI PUSH2 0x3E8 SWAP1 POP PUSH2 0xC24 JUMP JUMPDEST PUSH0 SWAP1 POP JUMPDEST SWAP2 SWAP1 POP JUMP JUMPDEST PUSH0 PUSH1 0x40 MLOAD SWAP1 POP SWAP1 JUMP JUMPDEST PUSH0 PUSH0 REVERT JUMPDEST PUSH0 PUSH0 REVERT JUMPDEST PUSH0 DUP2 SWAP1 POP SWAP2 SWAP1 POP JUMP JUMPDEST PUSH2 0xC4C DUP2 PUSH2 0xC3A JUMP JUMPDEST DUP2 EQ PUSH2 0xC56 JUMPI PUSH0 PUSH0 REVERT JUMPDEST POP JUMP JUMPDEST PUSH0 DUP2 CALLDATALOAD SWAP1 POP PUSH2 0xC67 DUP2 PUSH2 0xC43 JUMP JUMPDEST SWAP3 SWAP2 POP POP JUMP JUMPDEST PUSH0 PUSH1 0x20 DUP3 DUP5 SUB SLT ISZERO PUSH2 0xC82 JUMPI PUSH2 0xC81 PUSH2 0xC32 JUMP JUMPDEST JUMPDEST PUSH0 PUSH2 0xC8F DUP5 DUP3 DUP6 ADD PUSH2 0xC59 JUMP JUMPDEST SWAP2 POP POP SWAP3 SWAP2 POP POP JUMP JUMPDEST PUSH0 DUP2 MLOAD SWAP1 POP SWAP2 SWAP1 POP JUMP JUMPDEST PUSH0 DUP3 DUP3 MSTORE PUSH1 0x20 DUP3 ADD SWAP1 POP SWAP3 SWAP2 POP POP JUMP JUMPDEST DUP3 DUP2 DUP4 MCOPY PUSH0 DUP4 DUP4 ADD MSTORE POP POP POP JUMP JUMPDEST PUSH0 PUSH1 0x1F NOT PUSH1 0x1F DUP4 ADD AND SWAP1 POP SWAP2 SWAP1 POP JUMP JUMPDEST PUSH0 PUSH2 0xCDA DUP3 PUSH2 0xC98 JUMP JUMPDEST PUSH2 0xCE4 DUP2 DUP6 PUSH2 0xCA2 JUMP JUMPDEST SWAP4 POP PUSH2 0xCF4 DUP2 DUP6 PUSH1 0x20 DUP7 ADD PUSH2 0xCB2 JUMP JUMPDEST PUSH2 0xCFD DUP2 PUSH2 0xCC0 JUMP JUMPDEST DUP5 ADD SWAP2 POP POP SWAP3 SWAP2 POP POP JUMP JUMPDEST PUSH0 PUSH1 0x20 DUP3 ADD SWAP1 POP DUP2 DUP2 SUB PUSH0 DUP4 ADD MSTORE PUSH2 0xD20 DUP2 DUP5 PUSH2 0xCD0 JUMP JUMPDEST SWAP1 POP SWAP3 SWAP2 POP POP JUMP JUMPDEST PUSH0 PUSH0 REVERT JUMPDEST PUSH0 PUSH0 REVERT JUMPDEST PUSH32 0x4E487B7100000000000000000000000000000000000000000000000000000000 PUSH0 MSTORE PUSH1 0x41 PUSH1 0x4 MSTORE PUSH1 0x24 PUSH0 REVERT JUMPDEST PUSH2 0xD66 DUP3 PUSH2 0xCC0 JUMP JUMPDEST DUP2 ADD DUP2 DUP2 LT PUSH8 0xFFFFFFFFFFFFFFFF DUP3 GT OR ISZERO PUSH2 0xD85 JUMPI PUSH2 0xD84 PUSH2 0xD30 JUMP JUMPDEST JUMPDEST DUP1 PUSH1 0x40 MSTORE POP POP POP JUMP JUMPDEST PUSH0 PUSH2 0xD97 PUSH2 0xC29 JUMP JUMPDEST SWAP1 POP PUSH2 0xDA3 DUP3 DUP3 PUSH2 0xD5D JUMP JUMPDEST SWAP2 SWAP1 POP JUMP JUMPDEST PUSH0 PUSH8 0xFFFFFFFFFFFFFFFF DUP3 GT ISZERO PUSH2 0xDC2 JUMPI PUSH2 0xDC1 PUSH2 0xD30 JUMP JUMPDEST JUMPDEST PUSH2 0xDCB DUP3 PUSH2 0xCC0 JUMP JUMPDEST SWAP1 POP PUSH1 0x20 DUP2 ADD SWAP1 POP SWAP2 SWAP1 POP JUMP JUMPDEST DUP3 DUP2 DUP4 CALLDATACOPY PUSH0 DUP4 DUP4 ADD MSTORE POP POP POP JUMP JUMPDEST PUSH0 PUSH2 0xDF8 PUSH2 0xDF3 DUP5 PUSH2 0xDA8 JUMP JUMPDEST PUSH2 0xD8E JUMP JUMPDEST SWAP1 POP DUP3 DUP2 MSTORE PUSH1 0x20 DUP2 ADD DUP5 DUP5 DUP5 ADD GT ISZERO PUSH2 0xE14 JUMPI PUSH2 0xE13 PUSH2 0xD2C JUMP JUMPDEST JUMPDEST PUSH2 0xE1F DUP5 DUP3 DUP6 PUSH2 0xDD8 JUMP JUMPDEST POP SWAP4 SWAP3 POP POP POP JUMP JUMPDEST PUSH0 DUP3 PUSH1 0x1F DUP4 ADD SLT PUSH2 0xE3B JUMPI PUSH2 0xE3A PUSH2 0xD28 JUMP JUMPDEST JUMPDEST DUP2 CALLDATALOAD PUSH2 0xE4B DUP5 DUP3 PUSH1 0x20 DUP7 ADD PUSH2 0xDE6 JUMP JUMPDEST SWAP2 POP POP SWAP3 SWAP2 POP POP JUMP JUMPDEST PUSH0 PUSH1 0x20 DUP3 DUP5 SUB SLT ISZERO PUSH2 0xE69 JUMPI PUSH2 0xE68 PUSH2 0xC32 JUMP JUMPDEST JUMPDEST PUSH0 DUP3 ADD CALLDATALOAD PUSH8 0xFFFFFFFFFFFFFFFF DUP2 GT ISZERO PUSH2 0xE86 JUMPI PUSH2 0xE85 PUSH2 0xC36 JUMP JUMPDEST JUMPDEST PUSH2 0xE92 DUP5 DUP3 DUP6 ADD PUSH2 0xE27 JUMP JUMPDEST SWAP2 POP POP SWAP3 SWAP2 POP POP JUMP JUMPDEST PUSH2 0xEA4 DUP2 PUSH2 0xC3A JUMP JUMPDEST DUP3 MSTORE POP POP JUMP JUMPDEST PUSH0 PUSH1 0x20 DUP3 ADD SWAP1 POP PUSH2 0xEBD PUSH0 DUP4 ADD DUP5 PUSH2 0xE9B JUMP JUMPDEST SWAP3 SWAP2 POP POP JUMP JUMPDEST PUSH0 PUSH0 REVERT JUMPDEST PUSH0 PUSH0 REVERT JUMPDEST PUSH0 PUSH0 DUP4 PUSH1 0x1F DUP5 ADD SLT PUSH2 0xEE0 JUMPI PUSH2 0xEDF PUSH2 0xD28 JUMP JUMPDEST JUMPDEST DUP3 CALLDATALOAD SWAP1 POP PUSH8 0xFFFFFFFFFFFFFFFF DUP2 GT ISZERO PUSH2 0xEFD JUMPI PUSH2 0xEFC PUSH2 0xEC3 JUMP JUMPDEST JUMPDEST PUSH1 0x20 DUP4 ADD SWAP2 POP DUP4 PUSH1 0x20 DUP3 MUL DUP4 ADD GT ISZERO PUSH2 0xF19 JUMPI PUSH2 0xF18 PUSH2 0xEC7 JUMP JUMPDEST JUMPDEST SWAP3 POP SWAP3 SWAP1 POP JUMP JUMPDEST PUSH0 PUSH0 PUSH0 PUSH0 PUSH1 0x40 DUP6 DUP8 SUB SLT ISZERO PUSH2 0xF38 JUMPI PUSH2 0xF37 PUSH2 0xC32 JUMP JUMPDEST JUMPDEST PUSH0 DUP6 ADD CALLDATALOAD PUSH8 0xFFFFFFFFFFFFFFFF DUP2 GT ISZERO PUSH2 0xF55 JUMPI PUSH2 0xF54 PUSH2 0xC36 JUMP JUMPDEST JUMPDEST PUSH2 0xF61 DUP8 DUP3 DUP9 ADD PUSH2 0xECB JUMP JUMPDEST SWAP5 POP SWAP5 POP POP PUSH1 0x20 DUP6 ADD CALLDATALOAD PUSH8 0xFFFFFFFFFFFFFFFF DUP2 GT ISZERO PUSH2 0xF84 JUMPI PUSH2 0xF83 PUSH2 0xC36 JUMP JUMPDEST JUMPDEST PUSH2 0xF90 DUP8 DUP3 DUP9 ADD PUSH2 0xECB JUMP JUMPDEST SWAP3 POP SWAP3 POP POP SWAP3 SWAP6 SWAP2 SWAP5 POP SWAP3 POP JUMP JUMPDEST PUSH0 DUP2 MLOAD SWAP1 POP SWAP2 SWAP1 POP JUMP JUMPDEST PUSH0 DUP3 DUP3 MSTORE PUSH1 0x20 DUP3 ADD SWAP1 POP SWAP3 SWAP2 POP POP JUMP JUMPDEST PUSH0 DUP2 SWAP1 POP PUSH1 0x20 DUP3 ADD SWAP1 POP SWAP2 SWAP1 POP JUMP JUMPDEST PUSH2 0xFD0 DUP2 PUSH2 0xC3A JUMP JUMPDEST DUP3 MSTORE POP POP JUMP JUMPDEST PUSH0 PUSH2 0xFE1 DUP4 DUP4 PUSH2 0xFC7 JUMP JUMPDEST PUSH1 0x20 DUP4 ADD SWAP1 POP SWAP3 SWAP2 POP POP JUMP JUMPDEST PUSH0 PUSH1 0x20 DUP3 ADD SWAP1 POP SWAP2 SWAP1 POP JUMP JUMPDEST PUSH0 PUSH2 0x1003 DUP3 PUSH2 0xF9E JUMP JUMPDEST PUSH2 0x100D DUP2 DUP6 PUSH2 0xFA8 JUMP JUMPDEST SWAP4 POP PUSH2 0x1018 DUP4 PUSH2 0xFB8 JUMP JUMPDEST DUP1 PUSH0 JUMPDEST DUP4 DUP2 LT ISZERO PUSH2 0x1048 JUMPI DUP2 MLOAD PUSH2 0x102F DUP9 DUP3 PUSH2 0xFD6 JUMP JUMPDEST SWAP8 POP PUSH2 0x103A DUP4 PUSH2 0xFED JUMP JUMPDEST SWAP3 POP POP PUSH1 0x1 DUP2 ADD SWAP1 POP PUSH2 0x101B JUMP JUMPDEST POP DUP6 SWAP4 POP POP POP POP SWAP3 SWAP2 POP POP JUMP JUMPDEST PUSH0 PUSH1 0x20 DUP3 ADD SWAP1 POP DUP2 DUP2 SUB PUSH0 DUP4 ADD MSTORE PUSH2 0x106D DUP2 DUP5 PUSH2 0xFF9 JUMP JUMPDEST SWAP1 POP SWAP3 SWAP2 POP POP JUMP JUMPDEST PUSH0 PUSH0 DUP4 PUSH1 0x1F DUP5 ADD SLT PUSH2 0x108A JUMPI PUSH2 0x1089 PUSH2 0xD28 JUMP JUMPDEST JUMPDEST DUP3 CALLDATALOAD SWAP1 POP PUSH8 0xFFFFFFFFFFFFFFFF DUP2 GT ISZERO PUSH2 0x10A7 JUMPI PUSH2 0x10A6 PUSH2 0xEC3 JUMP JUMPDEST JUMPDEST PUSH1 0x20 DUP4 ADD SWAP2 POP DUP4 PUSH1 0x1 DUP3 MUL DUP4 ADD GT ISZERO PUSH2 0x10C3 JUMPI PUSH2 0x10C2 PUSH2 0xEC7 JUMP JUMPDEST JUMPDEST SWAP3 POP SWAP3 SWAP1 POP JUMP JUMPDEST PUSH0 PUSH0 PUSH1 0x20 DUP4 DUP6 SUB SLT ISZERO PUSH2 0x10E0 JUMPI PUSH2 0x10DF PUSH2 0xC32 JUMP JUMPDEST JUMPDEST PUSH0 DUP4 ADD CALLDATALOAD PUSH8 0xFFFFFFFFFFFFFFFF DUP2 GT ISZERO PUSH2 0x10FD JUMPI PUSH2 0x10FC PUSH2 0xC36 JUMP JUMPDEST JUMPDEST PUSH2 0x1109 DUP6 DUP3 DUP7 ADD PUSH2 0x1075 JUMP JUMPDEST SWAP3 POP SWAP3 POP POP SWAP3 POP SWAP3 SWAP1 POP JUMP JUMPDEST PUSH32 0x4E487B7100000000000000000000000000000000000000000000000000000000 PUSH0 MSTORE PUSH1 0x32 PUSH1 0x4 MSTORE PUSH1 0x24 PUSH0 REVERT JUMPDEST PUSH32 0x4E487B7100000000000000000000000000000000000000000000000000000000 PUSH0 MSTORE PUSH1 0x11 PUSH1 0x4 MSTORE PUSH1 0x24 PUSH0 REVERT JUMPDEST PUSH0 PUSH2 0x1179 DUP3 PUSH2 0xC3A JUMP JUMPDEST SWAP2 POP PUSH2 0x1184 DUP4 PUSH2 0xC3A JUMP JUMPDEST SWAP3 POP DUP3 DUP3 SUB SWAP1 POP DUP2 DUP2 GT ISZERO PUSH2 0x119C JUMPI PUSH2 0x119B PUSH2 0x1142 JUMP JUMPDEST JUMPDEST SWAP3 SWAP2 POP POP JUMP JUMPDEST PUSH0 DUP2 SWAP1 POP SWAP3 SWAP2 POP POP JUMP JUMPDEST PUSH0 PUSH2 0x11B6 DUP3 PUSH2 0xC98 JUMP JUMPDEST PUSH2 0x11C0 DUP2 DUP6 PUSH2 0x11A2 JUMP JUMPDEST SWAP4 POP PUSH2 0x11D0 DUP2 DUP6 PUSH1 0x20 DUP7 ADD PUSH2 0xCB2 JUMP JUMPDEST DUP1 DUP5 ADD SWAP2 POP POP SWAP3 SWAP2 POP POP JUMP JUMPDEST PUSH0 PUSH2 0x11E7 DUP3 DUP6 PUSH2 0x11AC JUMP JUMPDEST SWAP2 POP PUSH2 0x11F3 DUP3 DUP5 PUSH2 0x11AC JUMP JUMPDEST SWAP2 POP DUP2 SWAP1 POP SWAP4 SWAP3 POP POP POP JUMP JUMPDEST PUSH0 PUSH2 0x1209 DUP3 PUSH2 0xC3A JUMP JUMPDEST SWAP2 POP PUSH32 0xFFFFFFFFFFFFFFFFFFFFFFFFFFFFFFFFFFFFFFFFFFFFFFFFFFFFFFFFFFFFFFFF DUP3 SUB PUSH2 0x123B JUMPI PUSH2 0x123A PUSH2 0x1142 JUMP JUMPDEST JUMPDEST PUSH1 0x1 DUP3 ADD SWAP1 POP SWAP2 SWAP1 POP JUMP JUMPDEST PUSH0 PUSH2 0x1250 DUP3 PUSH2 0xC3A JUMP JUMPDEST SWAP2 POP PUSH2 0x125B DUP4 PUSH2 0xC3A JUMP JUMPDEST SWAP3 POP DUP3 DUP3 ADD SWAP1 POP DUP1 DUP3 GT ISZERO PUSH2 0x1273 JUMPI PUSH2 0x1272 PUSH2 0x1142 JUMP JUMPDEST JUMPDEST SWAP3 SWAP2 POP POP JUMP INVALID LOG2 PUSH5 0x6970667358 0x22 SLT KECCAK256 GASLIMIT SWAP13 EXTCODESIZE ISZERO DUP9 PUSH30 0xB5DA859FD8E24D108B6A974345B25167C50E588B18011706D72E64736F6C PUSH4 0x4300081E STOP CALLER "
				},
				"gasEstimates": {
					"creation": {
						"codeDepositCost": "956600",
						"executionCost": "992",
						"totalCost": "957592"
					},
					"external": {
						"intToRoman(uint256)": "infinite",
						"mergeArrays(uint256[],uint256[])": "infinite",
						"romanToInt(string)": "infinite",
						"stringReverse(string)": "infinite"
					},
					"internal": {
						"valueOf(bytes1)": "262"
					}
				},
				"methodIdentifiers": {
					"intToRoman(uint256)": "0cbc513a",
					"mergeArrays(uint256[],uint256[])": "de948709",
					"romanToInt(string)": "cb159dfe",
					"stringReverse(string)": "f3582c69"
				}
			},
			"storageLayout": {
				"storage": [],
				"types": null
			},
			"userdoc": {
				"kind": "user",
				"methods": {},
				"version": 1
			}
		}
	}
}