{
	"contracts/homework/test_2.sol": {
		"Test_2": {
			"abi": [
				{
					"inputs": [
						{
							"internalType": "uint256[]",
							"name": "arr",
							"type": "uint256[]"
						},
						{
							"internalType": "uint256",
							"name": "target",
							"type": "uint256"
						}
					],
					"name": "binarySearch",
					"outputs": [
						{
							"internalType": "uint256",
							"name": "",
							"type": "uint256"
						}
					],
					"stateMutability": "pure",
					"type": "function"
				},
				{
					"inputs": [
						{
							"internalType": "uint256",
							"name": "num",
							"type": "uint256"
						}
					],
					"name": "intToRoman",
					"outputs": [
						{
							"internalType": "string",
							"name": "",
							"type": "string"
						}
					],
					"stateMutability": "pure",
					"type": "function"
				},
				{
					"inputs": [
						{
							"internalType": "uint256[]",
							"name": "arr1",
							"type": "uint256[]"
						},
						{
							"internalType": "uint256[]",
							"name": "arr2",
							"type": "uint256[]"
						}
					],
					"name": "mergeArrays",
					"outputs": [
						{
							"internalType": "uint256[]",
							"name": "",
							"type": "uint256[]"
						}
					],
					"stateMutability": "pure",
					"type": "function"
				},
				{
					"inputs": [
						{
							"internalType": "string",
							"name": "str",
							"type": "string"
						}
					],
					"name": "romanToInt",
					"outputs": [
						{
							"internalType": "uint256",
							"name": "",
							"type": "uint256"
						}
					],
					"stateMutability": "pure",
					"type": "function"
				},
				{
					"inputs": [
						{
							"internalType": "string",
							"name": "line",
							"type": "string"
						}
					],
					"name": "stringReverse",
					"outputs": [
						{
							"internalType": "string",
							"name": "",
							"type": "string"
						}
					],
					"stateMutability": "pure",
					"type": "function"
				}
			],
			"devdoc": {
				"kind": "dev",
				"methods": {},
				"version": 1
			},
			"evm": {
				"assembly": "    /* \"contracts/homework/test_2.sol\":60:3284  contract Test_2 {... */\n  mstore(0x40, 0x80)\n  callvalue\n  dup1\n  iszero\n  tag_1\n  jumpi\n  revert(0x00, 0x00)\ntag_1:\n  pop\n  dataSize(sub_0)\n  dup1\n  dataOffset(sub_0)\n  0x00\n  codecopy\n  0x00\n  return\nstop\n\nsub_0: assembly {\n        /* \"contracts/homework/test_2.sol\":60:3284  contract Test_2 {... */\n      mstore(0x40, 0x80)\n      callvalue\n      dup1\n      iszero\n      tag_1\n      jumpi\n      revert(0x00, 0x00)\n    tag_1:\n      pop\n      jumpi(tag_2, lt(calldatasize, 0x04))\n      shr(0xe0, calldataload(0x00))\n      dup1\n      0x0cbc513a\n      eq\n      tag_3\n      jumpi\n      dup1\n      0xb12601da\n      eq\n      tag_4\n      jumpi\n      dup1\n      0xcb159dfe\n      eq\n      tag_5\n      jumpi\n      dup1\n      0xde948709\n      eq\n      tag_6\n      jumpi\n      dup1\n      0xf3582c69\n      eq\n      tag_7\n      jumpi\n    tag_2:\n      revert(0x00, 0x00)\n        /* \"contracts/homework/test_2.sol\":600:1204  function intToRoman(uint num) public pure returns(string memory) {... */\n    tag_3:\n      tag_8\n      0x04\n      dup1\n      calldatasize\n      sub\n      dup2\n      add\n      swap1\n      tag_9\n      swap2\n      swap1\n      tag_10\n      jump\t// in\n    tag_9:\n      tag_11\n      jump\t// in\n    tag_8:\n      mload(0x40)\n      tag_12\n      swap2\n      swap1\n      tag_13\n      jump\t// in\n    tag_12:\n      mload(0x40)\n      dup1\n      swap2\n      sub\n      swap1\n      return\n        /* \"contracts/homework/test_2.sol\":3145:3279  function binarySearch(uint[] calldata arr, uint target) public pure returns(uint) {... */\n    tag_4:\n      tag_14\n      0x04\n      dup1\n      calldatasize\n      sub\n      dup2\n      add\n      swap1\n      tag_15\n      swap2\n      swap1\n      tag_16\n      jump\t// in\n    tag_15:\n      tag_17\n      jump\t// in\n    tag_14:\n      mload(0x40)\n      tag_18\n      swap2\n      swap1\n      tag_19\n      jump\t// in\n    tag_18:\n      mload(0x40)\n      dup1\n      swap2\n      sub\n      swap1\n      return\n        /* \"contracts/homework/test_2.sol\":1214:1935  function romanToInt(string memory str) public pure returns (uint) {... */\n    tag_5:\n      tag_20\n      0x04\n      dup1\n      calldatasize\n      sub\n      dup2\n      add\n      swap1\n      tag_21\n      swap2\n      swap1\n      tag_22\n      jump\t// in\n    tag_21:\n      tag_23\n      jump\t// in\n    tag_20:\n      mload(0x40)\n      tag_24\n      swap2\n      swap1\n      tag_19\n      jump\t// in\n    tag_24:\n      mload(0x40)\n      dup1\n      swap2\n      sub\n      swap1\n      return\n        /* \"contracts/homework/test_2.sol\":2341:3054  function mergeArrays(uint[] calldata arr1, uint[] calldata arr2) public pure returns(uint[] memory) {... */\n    tag_6:\n      tag_25\n      0x04\n      dup1\n      calldatasize\n      sub\n      dup2\n      add\n      swap1\n      tag_26\n      swap2\n      swap1\n      tag_27\n      jump\t// in\n    tag_26:\n      tag_28\n      jump\t// in\n    tag_25:\n      mload(0x40)\n      tag_29\n      swap2\n      swap1\n      tag_30\n      jump\t// in\n    tag_29:\n      mload(0x40)\n      dup1\n      swap2\n      sub\n      swap1\n      return\n        /* \"contracts/homework/test_2.sol\":163:563  function stringReverse(string calldata line) public pure returns (string memory) {... */\n    tag_7:\n      tag_31\n      0x04\n      dup1\n      calldatasize\n      sub\n      dup2\n      add\n      swap1\n      tag_32\n      swap2\n      swap1\n      tag_33\n      jump\t// in\n    tag_32:\n      tag_34\n      jump\t// in\n    tag_31:\n      mload(0x40)\n      tag_35\n      swap2\n      swap1\n      tag_13\n      jump\t// in\n    tag_35:\n      mload(0x40)\n      dup1\n      swap2\n      sub\n      swap1\n      return\n        /* \"contracts/homework/test_2.sol\":600:1204  function intToRoman(uint num) public pure returns(string memory) {... */\n    tag_11:\n        /* \"contracts/homework/test_2.sol\":650:663  string memory */\n      0x60\n        /* \"contracts/homework/test_2.sol\":676:698  uint[13] memory values */\n      0x00\n        /* \"contracts/homework/test_2.sol\":676:764  uint[13] memory values = [uint256(1000), 900, 500, 400, 100, 90, 50, 40, 10, 9, 5, 4, 1] */\n      mload(0x40)\n      dup1\n      0x01a0\n      add\n      0x40\n      mstore\n      dup1\n        /* \"contracts/homework/test_2.sol\":710:714  1000 */\n      0x03e8\n        /* \"contracts/homework/test_2.sol\":676:764  uint[13] memory values = [uint256(1000), 900, 500, 400, 100, 90, 50, 40, 10, 9, 5, 4, 1] */\n      dup2\n      mstore\n      0x20\n      add\n        /* \"contracts/homework/test_2.sol\":717:720  900 */\n      0x0384\n        /* \"contracts/homework/test_2.sol\":676:764  uint[13] memory values = [uint256(1000), 900, 500, 400, 100, 90, 50, 40, 10, 9, 5, 4, 1] */\n      dup2\n      mstore\n      0x20\n      add\n        /* \"contracts/homework/test_2.sol\":722:725  500 */\n      0x01f4\n        /* \"contracts/homework/test_2.sol\":676:764  uint[13] memory values = [uint256(1000), 900, 500, 400, 100, 90, 50, 40, 10, 9, 5, 4, 1] */\n      dup2\n      mstore\n      0x20\n      add\n        /* \"contracts/homework/test_2.sol\":727:730  400 */\n      0x0190\n        /* \"contracts/homework/test_2.sol\":676:764  uint[13] memory values = [uint256(1000), 900, 500, 400, 100, 90, 50, 40, 10, 9, 5, 4, 1] */\n      dup2\n      mstore\n      0x20\n      add\n        /* \"contracts/homework/test_2.sol\":732:735  100 */\n      0x64\n        /* \"contracts/homework/test_2.sol\":676:764  uint[13] memory values = [uint256(1000), 900, 500, 400, 100, 90, 50, 40, 10, 9, 5, 4, 1] */\n      dup2\n      mstore\n      0x20\n      add\n        /* \"contracts/homework/test_2.sol\":737:739  90 */\n      0x5a\n        /* \"contracts/homework/test_2.sol\":676:764  uint[13] memory values = [uint256(1000), 900, 500, 400, 100, 90, 50, 40, 10, 9, 5, 4, 1] */\n      dup2\n      mstore\n      0x20\n      add\n        /* \"contracts/homework/test_2.sol\":741:743  50 */\n      0x32\n        /* \"contracts/homework/test_2.sol\":676:764  uint[13] memory values = [uint256(1000), 900, 500, 400, 100, 90, 50, 40, 10, 9, 5, 4, 1] */\n      dup2\n      mstore\n      0x20\n      add\n        /* \"contracts/homework/test_2.sol\":745:747  40 */\n      0x28\n        /* \"contracts/homework/test_2.sol\":676:764  uint[13] memory values = [uint256(1000), 900, 500, 400, 100, 90, 50, 40, 10, 9, 5, 4, 1] */\n      dup2\n      mstore\n      0x20\n      add\n        /* \"contracts/homework/test_2.sol\":749:751  10 */\n      0x0a\n        /* \"contracts/homework/test_2.sol\":676:764  uint[13] memory values = [uint256(1000), 900, 500, 400, 100, 90, 50, 40, 10, 9, 5, 4, 1] */\n      dup2\n      mstore\n      0x20\n      add\n        /* \"contracts/homework/test_2.sol\":753:754  9 */\n      0x09\n        /* \"contracts/homework/test_2.sol\":676:764  uint[13] memory values = [uint256(1000), 900, 500, 400, 100, 90, 50, 40, 10, 9, 5, 4, 1] */\n      dup2\n      mstore\n      0x20\n      add\n        /* \"contracts/homework/test_2.sol\":756:757  5 */\n      0x05\n        /* \"contracts/homework/test_2.sol\":676:764  uint[13] memory values = [uint256(1000), 900, 500, 400, 100, 90, 50, 40, 10, 9, 5, 4, 1] */\n      dup2\n      mstore\n      0x20\n      add\n        /* \"contracts/homework/test_2.sol\":759:760  4 */\n      0x04\n        /* \"contracts/homework/test_2.sol\":676:764  uint[13] memory values = [uint256(1000), 900, 500, 400, 100, 90, 50, 40, 10, 9, 5, 4, 1] */\n      dup2\n      mstore\n      0x20\n      add\n        /* \"contracts/homework/test_2.sol\":762:763  1 */\n      0x01\n        /* \"contracts/homework/test_2.sol\":676:764  uint[13] memory values = [uint256(1000), 900, 500, 400, 100, 90, 50, 40, 10, 9, 5, 4, 1] */\n      dup2\n      mstore\n      pop\n      swap1\n      pop\n        /* \"contracts/homework/test_2.sol\":775:800  string[13] memory letters */\n      0x00\n        /* \"contracts/homework/test_2.sol\":775:863  string[13] memory letters = [\"M\", \"CM\",\"D\",\"CD\",\"C\",\"XC\",\"L\",\"XL\",\"X\",\"IX\",\"V\",\"IV\",\"I\"] */\n      mload(0x40)\n      dup1\n      0x01a0\n      add\n      0x40\n      mstore\n      dup1\n      mload(0x40)\n      dup1\n      0x40\n      add\n      0x40\n      mstore\n      dup1\n      0x01\n      dup2\n      mstore\n      0x20\n      add\n      0x4d00000000000000000000000000000000000000000000000000000000000000\n      dup2\n      mstore\n      pop\n      dup2\n      mstore\n      0x20\n      add\n      mload(0x40)\n      dup1\n      0x40\n      add\n      0x40\n      mstore\n      dup1\n      0x02\n      dup2\n      mstore\n      0x20\n      add\n      0x434d000000000000000000000000000000000000000000000000000000000000\n      dup2\n      mstore\n      pop\n      dup2\n      mstore\n      0x20\n      add\n      mload(0x40)\n      dup1\n      0x40\n      add\n      0x40\n      mstore\n      dup1\n      0x01\n      dup2\n      mstore\n      0x20\n      add\n      0x4400000000000000000000000000000000000000000000000000000000000000\n      dup2\n      mstore\n      pop\n      dup2\n      mstore\n      0x20\n      add\n      mload(0x40)\n      dup1\n      0x40\n      add\n      0x40\n      mstore\n      dup1\n      0x02\n      dup2\n      mstore\n      0x20\n      add\n      0x4344000000000000000000000000000000000000000000000000000000000000\n      dup2\n      mstore\n      pop\n      dup2\n      mstore\n      0x20\n      add\n      mload(0x40)\n      dup1\n      0x40\n      add\n      0x40\n      mstore\n      dup1\n      0x01\n      dup2\n      mstore\n      0x20\n      add\n      0x4300000000000000000000000000000000000000000000000000000000000000\n      dup2\n      mstore\n      pop\n      dup2\n      mstore\n      0x20\n      add\n      mload(0x40)\n      dup1\n      0x40\n      add\n      0x40\n      mstore\n      dup1\n      0x02\n      dup2\n      mstore\n      0x20\n      add\n      0x5843000000000000000000000000000000000000000000000000000000000000\n      dup2\n      mstore\n      pop\n      dup2\n      mstore\n      0x20\n      add\n      mload(0x40)\n      dup1\n      0x40\n      add\n      0x40\n      mstore\n      dup1\n      0x01\n      dup2\n      mstore\n      0x20\n      add\n      0x4c00000000000000000000000000000000000000000000000000000000000000\n      dup2\n      mstore\n      pop\n      dup2\n      mstore\n      0x20\n      add\n      mload(0x40)\n      dup1\n      0x40\n      add\n      0x40\n      mstore\n      dup1\n      0x02\n      dup2\n      mstore\n      0x20\n      add\n      0x584c000000000000000000000000000000000000000000000000000000000000\n      dup2\n      mstore\n      pop\n      dup2\n      mstore\n      0x20\n      add\n      mload(0x40)\n      dup1\n      0x40\n      add\n      0x40\n      mstore\n      dup1\n      0x01\n      dup2\n      mstore\n      0x20\n      add\n      0x5800000000000000000000000000000000000000000000000000000000000000\n      dup2\n      mstore\n      pop\n      dup2\n      mstore\n      0x20\n      add\n      mload(0x40)\n      dup1\n      0x40\n      add\n      0x40\n      mstore\n      dup1\n      0x02\n      dup2\n      mstore\n      0x20\n      add\n      0x4958000000000000000000000000000000000000000000000000000000000000\n      dup2\n      mstore\n      pop\n      dup2\n      mstore\n      0x20\n      add\n      mload(0x40)\n      dup1\n      0x40\n      add\n      0x40\n      mstore\n      dup1\n      0x01\n      dup2\n      mstore\n      0x20\n      add\n      0x5600000000000000000000000000000000000000000000000000000000000000\n      dup2\n      mstore\n      pop\n      dup2\n      mstore\n      0x20\n      add\n      mload(0x40)\n      dup1\n      0x40\n      add\n      0x40\n      mstore\n      dup1\n      0x02\n      dup2\n      mstore\n      0x20\n      add\n      0x4956000000000000000000000000000000000000000000000000000000000000\n      dup2\n      mstore\n      pop\n      dup2\n      mstore\n      0x20\n      add\n      mload(0x40)\n      dup1\n      0x40\n      add\n      0x40\n      mstore\n      dup1\n      0x01\n      dup2\n      mstore\n      0x20\n      add\n      0x4900000000000000000000000000000000000000000000000000000000000000\n      dup2\n      mstore\n      pop\n      dup2\n      mstore\n      pop\n      swap1\n      pop\n        /* \"contracts/homework/test_2.sol\":884:901  string memory str */\n      0x60\n        /* \"contracts/homework/test_2.sol\":914:920  uint i */\n      0x00\n        /* \"contracts/homework/test_2.sol\":923:924  0 */\n      0x00\n        /* \"contracts/homework/test_2.sol\":914:924  uint i = 0 */\n      swap1\n      pop\n        /* \"contracts/homework/test_2.sol\":935:1176  while(num != 0) {... */\n    tag_37:\n        /* \"contracts/homework/test_2.sol\":948:949  0 */\n      0x00\n        /* \"contracts/homework/test_2.sol\":941:944  num */\n      dup7\n        /* \"contracts/homework/test_2.sol\":941:949  num != 0 */\n      eq\n        /* \"contracts/homework/test_2.sol\":935:1176  while(num != 0) {... */\n      tag_38\n      jumpi\n        /* \"contracts/homework/test_2.sol\":966:972  uint v */\n      0x00\n        /* \"contracts/homework/test_2.sol\":975:981  values */\n      dup5\n        /* \"contracts/homework/test_2.sol\":982:983  i */\n      dup3\n        /* \"contracts/homework/test_2.sol\":975:984  values[i] */\n      0x0d\n      dup2\n      lt\n      tag_39\n      jumpi\n      tag_40\n      tag_41\n      jump\t// in\n    tag_40:\n    tag_39:\n      0x20\n      mul\n      add\n      mload\n        /* \"contracts/homework/test_2.sol\":966:984  uint v = values[i] */\n      swap1\n      pop\n        /* \"contracts/homework/test_2.sol\":1009:1010  v */\n      dup1\n        /* \"contracts/homework/test_2.sol\":1002:1005  num */\n      dup8\n        /* \"contracts/homework/test_2.sol\":1002:1010  num >= v */\n      lt\n        /* \"contracts/homework/test_2.sol\":999:1165  if(num >= v) {... */\n      tag_42\n      jumpi\n        /* \"contracts/homework/test_2.sol\":1038:1039  v */\n      dup1\n        /* \"contracts/homework/test_2.sol\":1031:1039  num -= v */\n      dup8\n      tag_43\n      swap2\n      swap1\n      tag_44\n      jump\t// in\n    tag_43:\n      swap7\n      pop\n        /* \"contracts/homework/test_2.sol\":1088:1091  str */\n      dup3\n        /* \"contracts/homework/test_2.sol\":1093:1100  letters */\n      dup5\n        /* \"contracts/homework/test_2.sol\":1101:1102  i */\n      dup4\n        /* \"contracts/homework/test_2.sol\":1093:1103  letters[i] */\n      0x0d\n      dup2\n      lt\n      tag_45\n      jumpi\n      tag_46\n      tag_41\n      jump\t// in\n    tag_46:\n    tag_45:\n      0x20\n      mul\n      add\n      mload\n        /* \"contracts/homework/test_2.sol\":1071:1104  abi.encodePacked(str, letters[i]) */\n      add(0x20, mload(0x40))\n      tag_47\n      swap3\n      swap2\n      swap1\n      tag_48\n      jump\t// in\n    tag_47:\n      mload(0x40)\n      0x20\n      dup2\n      dup4\n      sub\n      sub\n      dup2\n      mstore\n      swap1\n      0x40\n      mstore\n        /* \"contracts/homework/test_2.sol\":1058:1105  str = string(abi.encodePacked(str, letters[i])) */\n      swap3\n      pop\n        /* \"contracts/homework/test_2.sol\":999:1165  if(num >= v) {... */\n      jump(tag_49)\n    tag_42:\n        /* \"contracts/homework/test_2.sol\":1146:1149  i++ */\n      dup2\n      dup1\n      tag_50\n      swap1\n      tag_51\n      jump\t// in\n    tag_50:\n      swap3\n      pop\n      pop\n        /* \"contracts/homework/test_2.sol\":999:1165  if(num >= v) {... */\n    tag_49:\n        /* \"contracts/homework/test_2.sol\":951:1176  {... */\n      pop\n        /* \"contracts/homework/test_2.sol\":935:1176  while(num != 0) {... */\n      jump(tag_37)\n    tag_38:\n        /* \"contracts/homework/test_2.sol\":1193:1196  str */\n      dup2\n        /* \"contracts/homework/test_2.sol\":1186:1196  return str */\n      swap5\n      pop\n      pop\n      pop\n      pop\n      pop\n        /* \"contracts/homework/test_2.sol\":600:1204  function intToRoman(uint num) public pure returns(string memory) {... */\n      swap2\n      swap1\n      pop\n      jump\t// out\n        /* \"contracts/homework/test_2.sol\":3145:3279  function binarySearch(uint[] calldata arr, uint target) public pure returns(uint) {... */\n    tag_17:\n        /* \"contracts/homework/test_2.sol\":3221:3225  uint */\n      0x00\n        /* \"contracts/homework/test_2.sol\":3238:3246  uint len */\n      0x00\n        /* \"contracts/homework/test_2.sol\":3249:3252  arr */\n      dup5\n      dup5\n        /* \"contracts/homework/test_2.sol\":3249:3259  arr.length */\n      swap1\n      pop\n        /* \"contracts/homework/test_2.sol\":3238:3259  uint len = arr.length */\n      swap1\n      pop\n        /* \"contracts/homework/test_2.sol\":3227:3279  {... */\n      pop\n        /* \"contracts/homework/test_2.sol\":3145:3279  function binarySearch(uint[] calldata arr, uint target) public pure returns(uint) {... */\n      swap4\n      swap3\n      pop\n      pop\n      pop\n      jump\t// out\n        /* \"contracts/homework/test_2.sol\":1214:1935  function romanToInt(string memory str) public pure returns (uint) {... */\n    tag_23:\n        /* \"contracts/homework/test_2.sol\":1274:1278  uint */\n      0x00\n        /* \"contracts/homework/test_2.sol\":1291:1305  bytes memory b */\n      0x00\n        /* \"contracts/homework/test_2.sol\":1314:1317  str */\n      dup3\n        /* \"contracts/homework/test_2.sol\":1291:1318  bytes memory b = bytes(str) */\n      swap1\n      pop\n        /* \"contracts/homework/test_2.sol\":1329:1337  uint sum */\n      0x00\n        /* \"contracts/homework/test_2.sol\":1340:1341  0 */\n      0x00\n        /* \"contracts/homework/test_2.sol\":1329:1341  uint sum = 0 */\n      swap1\n      pop\n        /* \"contracts/homework/test_2.sol\":1352:1360  uint len */\n      0x00\n        /* \"contracts/homework/test_2.sol\":1363:1364  b */\n      dup3\n        /* \"contracts/homework/test_2.sol\":1363:1371  b.length */\n      mload\n        /* \"contracts/homework/test_2.sol\":1352:1371  uint len = b.length */\n      swap1\n      pop\n        /* \"contracts/homework/test_2.sol\":1396:1402  uint i */\n      0x00\n        /* \"contracts/homework/test_2.sol\":1405:1406  0 */\n      0x00\n        /* \"contracts/homework/test_2.sol\":1396:1406  uint i = 0 */\n      swap1\n      pop\n        /* \"contracts/homework/test_2.sol\":1392:1897  for(uint i = 0; i<len; i++) {... */\n    tag_54:\n        /* \"contracts/homework/test_2.sol\":1410:1413  len */\n      dup2\n        /* \"contracts/homework/test_2.sol\":1408:1409  i */\n      dup2\n        /* \"contracts/homework/test_2.sol\":1408:1413  i<len */\n      lt\n        /* \"contracts/homework/test_2.sol\":1392:1897  for(uint i = 0; i<len; i++) {... */\n      iszero\n      tag_55\n      jumpi\n        /* \"contracts/homework/test_2.sol\":1435:1442  uint n1 */\n      0x00\n        /* \"contracts/homework/test_2.sol\":1445:1458  valueOf(b[i]) */\n      tag_57\n        /* \"contracts/homework/test_2.sol\":1453:1454  b */\n      dup6\n        /* \"contracts/homework/test_2.sol\":1455:1456  i */\n      dup4\n        /* \"contracts/homework/test_2.sol\":1453:1457  b[i] */\n      dup2\n      mload\n      dup2\n      lt\n      tag_58\n      jumpi\n      tag_59\n      tag_41\n      jump\t// in\n    tag_59:\n    tag_58:\n      0x20\n      add\n      add\n      mload\n      0xf8\n      shr\n      0xf8\n      shl\n        /* \"contracts/homework/test_2.sol\":1445:1452  valueOf */\n      tag_60\n        /* \"contracts/homework/test_2.sol\":1445:1458  valueOf(b[i]) */\n      jump\t// in\n    tag_57:\n        /* \"contracts/homework/test_2.sol\":1435:1458  uint n1 = valueOf(b[i]) */\n      swap1\n      pop\n        /* \"contracts/homework/test_2.sol\":1487:1488  1 */\n      0x01\n        /* \"contracts/homework/test_2.sol\":1481:1484  len */\n      dup4\n        /* \"contracts/homework/test_2.sol\":1481:1488  len - 1 */\n      tag_61\n      swap2\n      swap1\n      tag_44\n      jump\t// in\n    tag_61:\n        /* \"contracts/homework/test_2.sol\":1476:1477  i */\n      dup3\n        /* \"contracts/homework/test_2.sol\":1476:1488  i == len - 1 */\n      sub\n        /* \"contracts/homework/test_2.sol\":1473:1558  if(i == len - 1) {... */\n      tag_62\n      jumpi\n        /* \"contracts/homework/test_2.sol\":1516:1518  n1 */\n      dup1\n        /* \"contracts/homework/test_2.sol\":1509:1518  sum += n1 */\n      dup5\n      tag_63\n      swap2\n      swap1\n      tag_64\n      jump\t// in\n    tag_63:\n      swap4\n      pop\n        /* \"contracts/homework/test_2.sol\":1537:1542  break */\n      pop\n      jump(tag_55)\n        /* \"contracts/homework/test_2.sol\":1473:1558  if(i == len - 1) {... */\n    tag_62:\n        /* \"contracts/homework/test_2.sol\":1574:1583  uint next */\n      0x00\n        /* \"contracts/homework/test_2.sol\":1586:1603  valueOf(b[i + 1]) */\n      tag_65\n        /* \"contracts/homework/test_2.sol\":1594:1595  b */\n      dup7\n        /* \"contracts/homework/test_2.sol\":1600:1601  1 */\n      0x01\n        /* \"contracts/homework/test_2.sol\":1596:1597  i */\n      dup6\n        /* \"contracts/homework/test_2.sol\":1596:1601  i + 1 */\n      tag_66\n      swap2\n      swap1\n      tag_64\n      jump\t// in\n    tag_66:\n        /* \"contracts/homework/test_2.sol\":1594:1602  b[i + 1] */\n      dup2\n      mload\n      dup2\n      lt\n      tag_67\n      jumpi\n      tag_68\n      tag_41\n      jump\t// in\n    tag_68:\n    tag_67:\n      0x20\n      add\n      add\n      mload\n      0xf8\n      shr\n      0xf8\n      shl\n        /* \"contracts/homework/test_2.sol\":1586:1593  valueOf */\n      tag_60\n        /* \"contracts/homework/test_2.sol\":1586:1603  valueOf(b[i + 1]) */\n      jump\t// in\n    tag_65:\n        /* \"contracts/homework/test_2.sol\":1574:1603  uint next = valueOf(b[i + 1]) */\n      swap1\n      pop\n        /* \"contracts/homework/test_2.sol\":1640:1644  next */\n      dup1\n        /* \"contracts/homework/test_2.sol\":1635:1637  n1 */\n      dup3\n        /* \"contracts/homework/test_2.sol\":1635:1644  n1 < next */\n      lt\n        /* \"contracts/homework/test_2.sol\":1632:1886  if(n1 < next) {... */\n      iszero\n      tag_69\n      jumpi\n        /* \"contracts/homework/test_2.sol\":1674:1676  n1 */\n      dup2\n        /* \"contracts/homework/test_2.sol\":1668:1671  sum */\n      dup6\n        /* \"contracts/homework/test_2.sol\":1668:1676  sum < n1 */\n      lt\n        /* \"contracts/homework/test_2.sol\":1665:1821  if(sum < n1) {... */\n      iszero\n      tag_70\n      jumpi\n        /* \"contracts/homework/test_2.sol\":1715:1717  n1 */\n      dup2\n        /* \"contracts/homework/test_2.sol\":1708:1712  next */\n      dup2\n        /* \"contracts/homework/test_2.sol\":1708:1717  next - n1 */\n      tag_71\n      swap2\n      swap1\n      tag_44\n      jump\t// in\n    tag_71:\n        /* \"contracts/homework/test_2.sol\":1701:1717  sum += next - n1 */\n      dup6\n      tag_72\n      swap2\n      swap1\n      tag_64\n      jump\t// in\n    tag_72:\n      swap5\n      pop\n        /* \"contracts/homework/test_2.sol\":1740:1743  i++ */\n      dup3\n      dup1\n      tag_73\n      swap1\n      tag_51\n      jump\t// in\n    tag_73:\n      swap4\n      pop\n      pop\n        /* \"contracts/homework/test_2.sol\":1665:1821  if(sum < n1) {... */\n      jump(tag_74)\n    tag_70:\n        /* \"contracts/homework/test_2.sol\":1799:1801  n1 */\n      dup2\n        /* \"contracts/homework/test_2.sol\":1792:1801  sum -= n1 */\n      dup6\n      tag_75\n      swap2\n      swap1\n      tag_44\n      jump\t// in\n    tag_75:\n      swap5\n      pop\n        /* \"contracts/homework/test_2.sol\":1665:1821  if(sum < n1) {... */\n    tag_74:\n        /* \"contracts/homework/test_2.sol\":1632:1886  if(n1 < next) {... */\n      jump(tag_76)\n    tag_69:\n        /* \"contracts/homework/test_2.sol\":1868:1870  n1 */\n      dup2\n        /* \"contracts/homework/test_2.sol\":1861:1870  sum += n1 */\n      dup6\n      tag_77\n      swap2\n      swap1\n      tag_64\n      jump\t// in\n    tag_77:\n      swap5\n      pop\n        /* \"contracts/homework/test_2.sol\":1632:1886  if(n1 < next) {... */\n    tag_76:\n        /* \"contracts/homework/test_2.sol\":1420:1897  {... */\n      pop\n      pop\n        /* \"contracts/homework/test_2.sol\":1415:1418  i++ */\n      dup1\n      dup1\n      tag_78\n      swap1\n      tag_51\n      jump\t// in\n    tag_78:\n      swap2\n      pop\n      pop\n        /* \"contracts/homework/test_2.sol\":1392:1897  for(uint i = 0; i<len; i++) {... */\n      jump(tag_54)\n    tag_55:\n      pop\n        /* \"contracts/homework/test_2.sol\":1924:1927  sum */\n      dup2\n        /* \"contracts/homework/test_2.sol\":1917:1927  return sum */\n      swap4\n      pop\n      pop\n      pop\n      pop\n        /* \"contracts/homework/test_2.sol\":1214:1935  function romanToInt(string memory str) public pure returns (uint) {... */\n      swap2\n      swap1\n      pop\n      jump\t// out\n        /* \"contracts/homework/test_2.sol\":2341:3054  function mergeArrays(uint[] calldata arr1, uint[] calldata arr2) public pure returns(uint[] memory) {... */\n    tag_28:\n        /* \"contracts/homework/test_2.sol\":2426:2439  uint[] memory */\n      0x60\n        /* \"contracts/homework/test_2.sol\":2452:2461  uint len1 */\n      0x00\n        /* \"contracts/homework/test_2.sol\":2464:2468  arr1 */\n      dup6\n      dup6\n        /* \"contracts/homework/test_2.sol\":2464:2475  arr1.length */\n      swap1\n      pop\n        /* \"contracts/homework/test_2.sol\":2452:2475  uint len1 = arr1.length */\n      swap1\n      pop\n        /* \"contracts/homework/test_2.sol\":2486:2495  uint len2 */\n      0x00\n        /* \"contracts/homework/test_2.sol\":2498:2502  arr2 */\n      dup5\n      dup5\n        /* \"contracts/homework/test_2.sol\":2498:2509  arr2.length */\n      swap1\n      pop\n        /* \"contracts/homework/test_2.sol\":2486:2509  uint len2 = arr2.length */\n      swap1\n      pop\n        /* \"contracts/homework/test_2.sol\":2520:2538  uint[] memory full */\n      0x00\n        /* \"contracts/homework/test_2.sol\":2559:2563  len2 */\n      dup2\n        /* \"contracts/homework/test_2.sol\":2552:2556  len1 */\n      dup4\n        /* \"contracts/homework/test_2.sol\":2552:2563  len1 + len2 */\n      tag_80\n      swap2\n      swap1\n      tag_64\n      jump\t// in\n    tag_80:\n        /* \"contracts/homework/test_2.sol\":2541:2564  new uint[](len1 + len2) */\n      0xffffffffffffffff\n      dup2\n      gt\n      iszero\n      tag_81\n      jumpi\n      tag_82\n      tag_83\n      jump\t// in\n    tag_82:\n    tag_81:\n      mload(0x40)\n      swap1\n      dup1\n      dup3\n      mstore\n      dup1\n      0x20\n      mul\n      0x20\n      add\n      dup3\n      add\n      0x40\n      mstore\n      dup1\n      iszero\n      tag_84\n      jumpi\n      dup2\n      0x20\n      add\n      0x20\n      dup3\n      mul\n      dup1\n      calldatasize\n      dup4\n      calldatacopy\n      dup1\n      dup3\n      add\n      swap2\n      pop\n      pop\n      swap1\n      pop\n    tag_84:\n      pop\n        /* \"contracts/homework/test_2.sol\":2520:2564  uint[] memory full = new uint[](len1 + len2) */\n      swap1\n      pop\n        /* \"contracts/homework/test_2.sol\":2585:2591  uint i */\n      0x00\n        /* \"contracts/homework/test_2.sol\":2594:2595  0 */\n      0x00\n        /* \"contracts/homework/test_2.sol\":2585:2595  uint i = 0 */\n      swap1\n      pop\n        /* \"contracts/homework/test_2.sol\":2606:2612  uint j */\n      0x00\n        /* \"contracts/homework/test_2.sol\":2615:2616  0 */\n      0x00\n        /* \"contracts/homework/test_2.sol\":2606:2616  uint j = 0 */\n      swap1\n      pop\n        /* \"contracts/homework/test_2.sol\":2627:2639  uint f_index */\n      0x00\n        /* \"contracts/homework/test_2.sol\":2642:2643  0 */\n      0x00\n        /* \"contracts/homework/test_2.sol\":2627:2643  uint f_index = 0 */\n      swap1\n      pop\n        /* \"contracts/homework/test_2.sol\":2654:2861  while (i < len1 && j < len2) {... */\n    tag_85:\n        /* \"contracts/homework/test_2.sol\":2665:2669  len1 */\n      dup6\n        /* \"contracts/homework/test_2.sol\":2661:2662  i */\n      dup4\n        /* \"contracts/homework/test_2.sol\":2661:2669  i < len1 */\n      lt\n        /* \"contracts/homework/test_2.sol\":2661:2681  i < len1 && j < len2 */\n      dup1\n      iszero\n      tag_87\n      jumpi\n      pop\n        /* \"contracts/homework/test_2.sol\":2677:2681  len2 */\n      dup5\n        /* \"contracts/homework/test_2.sol\":2673:2674  j */\n      dup3\n        /* \"contracts/homework/test_2.sol\":2673:2681  j < len2 */\n      lt\n        /* \"contracts/homework/test_2.sol\":2661:2681  i < len1 && j < len2 */\n    tag_87:\n        /* \"contracts/homework/test_2.sol\":2654:2861  while (i < len1 && j < len2) {... */\n      iszero\n      tag_86\n      jumpi\n        /* \"contracts/homework/test_2.sol\":2711:2715  arr2 */\n      dup9\n      dup9\n        /* \"contracts/homework/test_2.sol\":2716:2717  j */\n      dup4\n        /* \"contracts/homework/test_2.sol\":2711:2718  arr2[j] */\n      dup2\n      dup2\n      lt\n      tag_88\n      jumpi\n      tag_89\n      tag_41\n      jump\t// in\n    tag_89:\n    tag_88:\n      swap1\n      pop\n      0x20\n      mul\n      add\n      calldataload\n        /* \"contracts/homework/test_2.sol\":2701:2705  arr1 */\n      dup12\n      dup12\n        /* \"contracts/homework/test_2.sol\":2706:2707  i */\n      dup6\n        /* \"contracts/homework/test_2.sol\":2701:2708  arr1[i] */\n      dup2\n      dup2\n      lt\n      tag_90\n      jumpi\n      tag_91\n      tag_41\n      jump\t// in\n    tag_91:\n    tag_90:\n      swap1\n      pop\n      0x20\n      mul\n      add\n      calldataload\n        /* \"contracts/homework/test_2.sol\":2701:2718  arr1[i] < arr2[j] */\n      lt\n        /* \"contracts/homework/test_2.sol\":2698:2850  if(arr1[i] < arr2[j]) {... */\n      iszero\n      tag_92\n      jumpi\n        /* \"contracts/homework/test_2.sol\":2757:2761  arr1 */\n      dup11\n      dup11\n        /* \"contracts/homework/test_2.sol\":2762:2765  i++ */\n      dup5\n      dup1\n      tag_93\n      swap1\n      tag_51\n      jump\t// in\n    tag_93:\n      swap6\n      pop\n        /* \"contracts/homework/test_2.sol\":2757:2766  arr1[i++] */\n      dup2\n      dup2\n      lt\n      tag_94\n      jumpi\n      tag_95\n      tag_41\n      jump\t// in\n    tag_95:\n    tag_94:\n      swap1\n      pop\n      0x20\n      mul\n      add\n      calldataload\n        /* \"contracts/homework/test_2.sol\":2739:2743  full */\n      dup5\n        /* \"contracts/homework/test_2.sol\":2744:2753  f_index++ */\n      dup3\n      dup1\n      tag_96\n      swap1\n      tag_51\n      jump\t// in\n    tag_96:\n      swap4\n      pop\n        /* \"contracts/homework/test_2.sol\":2739:2754  full[f_index++] */\n      dup2\n      mload\n      dup2\n      lt\n      tag_97\n      jumpi\n      tag_98\n      tag_41\n      jump\t// in\n    tag_98:\n    tag_97:\n      0x20\n      mul\n      0x20\n      add\n      add\n        /* \"contracts/homework/test_2.sol\":2739:2766  full[f_index++] = arr1[i++] */\n      dup2\n      dup2\n      mstore\n      pop\n      pop\n        /* \"contracts/homework/test_2.sol\":2698:2850  if(arr1[i] < arr2[j]) {... */\n      jump(tag_99)\n    tag_92:\n        /* \"contracts/homework/test_2.sol\":2825:2829  arr2 */\n      dup9\n      dup9\n        /* \"contracts/homework/test_2.sol\":2830:2833  j++ */\n      dup4\n      dup1\n      tag_100\n      swap1\n      tag_51\n      jump\t// in\n    tag_100:\n      swap5\n      pop\n        /* \"contracts/homework/test_2.sol\":2825:2834  arr2[j++] */\n      dup2\n      dup2\n      lt\n      tag_101\n      jumpi\n      tag_102\n      tag_41\n      jump\t// in\n    tag_102:\n    tag_101:\n      swap1\n      pop\n      0x20\n      mul\n      add\n      calldataload\n        /* \"contracts/homework/test_2.sol\":2807:2811  full */\n      dup5\n        /* \"contracts/homework/test_2.sol\":2812:2821  f_index++ */\n      dup3\n      dup1\n      tag_103\n      swap1\n      tag_51\n      jump\t// in\n    tag_103:\n      swap4\n      pop\n        /* \"contracts/homework/test_2.sol\":2807:2822  full[f_index++] */\n      dup2\n      mload\n      dup2\n      lt\n      tag_104\n      jumpi\n      tag_105\n      tag_41\n      jump\t// in\n    tag_105:\n    tag_104:\n      0x20\n      mul\n      0x20\n      add\n      add\n        /* \"contracts/homework/test_2.sol\":2807:2834  full[f_index++] = arr2[j++] */\n      dup2\n      dup2\n      mstore\n      pop\n      pop\n        /* \"contracts/homework/test_2.sol\":2698:2850  if(arr1[i] < arr2[j]) {... */\n    tag_99:\n        /* \"contracts/homework/test_2.sol\":2654:2861  while (i < len1 && j < len2) {... */\n      jump(tag_85)\n    tag_86:\n        /* \"contracts/homework/test_2.sol\":2873:2943  while(i < len1) {... */\n    tag_106:\n        /* \"contracts/homework/test_2.sol\":2883:2887  len1 */\n      dup6\n        /* \"contracts/homework/test_2.sol\":2879:2880  i */\n      dup4\n        /* \"contracts/homework/test_2.sol\":2879:2887  i < len1 */\n      lt\n        /* \"contracts/homework/test_2.sol\":2873:2943  while(i < len1) {... */\n      iszero\n      tag_107\n      jumpi\n        /* \"contracts/homework/test_2.sol\":2922:2926  arr1 */\n      dup11\n      dup11\n        /* \"contracts/homework/test_2.sol\":2927:2930  i++ */\n      dup5\n      dup1\n      tag_108\n      swap1\n      tag_51\n      jump\t// in\n    tag_108:\n      swap6\n      pop\n        /* \"contracts/homework/test_2.sol\":2922:2931  arr1[i++] */\n      dup2\n      dup2\n      lt\n      tag_109\n      jumpi\n      tag_110\n      tag_41\n      jump\t// in\n    tag_110:\n    tag_109:\n      swap1\n      pop\n      0x20\n      mul\n      add\n      calldataload\n        /* \"contracts/homework/test_2.sol\":2904:2908  full */\n      dup5\n        /* \"contracts/homework/test_2.sol\":2909:2918  f_index++ */\n      dup3\n      dup1\n      tag_111\n      swap1\n      tag_51\n      jump\t// in\n    tag_111:\n      swap4\n      pop\n        /* \"contracts/homework/test_2.sol\":2904:2919  full[f_index++] */\n      dup2\n      mload\n      dup2\n      lt\n      tag_112\n      jumpi\n      tag_113\n      tag_41\n      jump\t// in\n    tag_113:\n    tag_112:\n      0x20\n      mul\n      0x20\n      add\n      add\n        /* \"contracts/homework/test_2.sol\":2904:2931  full[f_index++] = arr1[i++] */\n      dup2\n      dup2\n      mstore\n      pop\n      pop\n        /* \"contracts/homework/test_2.sol\":2873:2943  while(i < len1) {... */\n      jump(tag_106)\n    tag_107:\n        /* \"contracts/homework/test_2.sol\":2953:3023  while(j < len2) {... */\n    tag_114:\n        /* \"contracts/homework/test_2.sol\":2963:2967  len2 */\n      dup5\n        /* \"contracts/homework/test_2.sol\":2959:2960  j */\n      dup3\n        /* \"contracts/homework/test_2.sol\":2959:2967  j < len2 */\n      lt\n        /* \"contracts/homework/test_2.sol\":2953:3023  while(j < len2) {... */\n      iszero\n      tag_115\n      jumpi\n        /* \"contracts/homework/test_2.sol\":3002:3006  arr2 */\n      dup9\n      dup9\n        /* \"contracts/homework/test_2.sol\":3007:3010  j++ */\n      dup4\n      dup1\n      tag_116\n      swap1\n      tag_51\n      jump\t// in\n    tag_116:\n      swap5\n      pop\n        /* \"contracts/homework/test_2.sol\":3002:3011  arr2[j++] */\n      dup2\n      dup2\n      lt\n      tag_117\n      jumpi\n      tag_118\n      tag_41\n      jump\t// in\n    tag_118:\n    tag_117:\n      swap1\n      pop\n      0x20\n      mul\n      add\n      calldataload\n        /* \"contracts/homework/test_2.sol\":2984:2988  full */\n      dup5\n        /* \"contracts/homework/test_2.sol\":2989:2998  f_index++ */\n      dup3\n      dup1\n      tag_119\n      swap1\n      tag_51\n      jump\t// in\n    tag_119:\n      swap4\n      pop\n        /* \"contracts/homework/test_2.sol\":2984:2999  full[f_index++] */\n      dup2\n      mload\n      dup2\n      lt\n      tag_120\n      jumpi\n      tag_121\n      tag_41\n      jump\t// in\n    tag_121:\n    tag_120:\n      0x20\n      mul\n      0x20\n      add\n      add\n        /* \"contracts/homework/test_2.sol\":2984:3011  full[f_index++] = arr2[j++] */\n      dup2\n      dup2\n      mstore\n      pop\n      pop\n        /* \"contracts/homework/test_2.sol\":2953:3023  while(j < len2) {... */\n      jump(tag_114)\n    tag_115:\n        /* \"contracts/homework/test_2.sol\":3042:3046  full */\n      dup4\n        /* \"contracts/homework/test_2.sol\":3035:3046  return full */\n      swap7\n      pop\n      pop\n      pop\n      pop\n      pop\n      pop\n      pop\n        /* \"contracts/homework/test_2.sol\":2341:3054  function mergeArrays(uint[] calldata arr1, uint[] calldata arr2) public pure returns(uint[] memory) {... */\n      swap5\n      swap4\n      pop\n      pop\n      pop\n      pop\n      jump\t// out\n        /* \"contracts/homework/test_2.sol\":163:563  function stringReverse(string calldata line) public pure returns (string memory) {... */\n    tag_34:\n        /* \"contracts/homework/test_2.sol\":229:242  string memory */\n      0x60\n        /* \"contracts/homework/test_2.sol\":255:277  bytes memory lineBytes */\n      0x00\n        /* \"contracts/homework/test_2.sol\":286:290  line */\n      dup4\n      dup4\n        /* \"contracts/homework/test_2.sol\":255:291  bytes memory lineBytes = bytes(line) */\n      dup1\n      dup1\n      0x1f\n      add\n      0x20\n      dup1\n      swap2\n      div\n      mul\n      0x20\n      add\n      mload(0x40)\n      swap1\n      dup2\n      add\n      0x40\n      mstore\n      dup1\n      swap4\n      swap3\n      swap2\n      swap1\n      dup2\n      dup2\n      mstore\n      0x20\n      add\n      dup4\n      dup4\n      dup1\n      dup3\n      dup5\n      calldatacopy\n      0x00\n      dup2\n      dup5\n      add\n      mstore\n      not(0x1f)\n      0x1f\n      dup3\n      add\n      and\n      swap1\n      pop\n      dup1\n      dup4\n      add\n      swap3\n      pop\n      pop\n      pop\n      pop\n      pop\n      pop\n      pop\n      swap1\n      pop\n        /* \"contracts/homework/test_2.sol\":302:310  uint len */\n      0x00\n        /* \"contracts/homework/test_2.sol\":313:322  lineBytes */\n      dup2\n        /* \"contracts/homework/test_2.sol\":313:329  lineBytes.length */\n      mload\n        /* \"contracts/homework/test_2.sol\":302:329  uint len = lineBytes.length */\n      swap1\n      pop\n        /* \"contracts/homework/test_2.sol\":353:354  0 */\n      0x00\n        /* \"contracts/homework/test_2.sol\":346:349  len */\n      dup2\n        /* \"contracts/homework/test_2.sol\":346:354  len == 0 */\n      sub\n        /* \"contracts/homework/test_2.sol\":342:367  if (len == 0)   return \"\" */\n      tag_123\n      jumpi\n        /* \"contracts/homework/test_2.sol\":358:367  return \"\" */\n      mload(0x40)\n      dup1\n      0x20\n      add\n      0x40\n      mstore\n      dup1\n      0x00\n      dup2\n      mstore\n      pop\n      swap3\n      pop\n      pop\n      pop\n      jump(tag_122)\n        /* \"contracts/homework/test_2.sol\":342:367  if (len == 0)   return \"\" */\n    tag_123:\n        /* \"contracts/homework/test_2.sol\":380:400  bytes memory reverse */\n      0x00\n        /* \"contracts/homework/test_2.sol\":413:416  len */\n      dup2\n        /* \"contracts/homework/test_2.sol\":403:417  new bytes(len) */\n      0xffffffffffffffff\n      dup2\n      gt\n      iszero\n      tag_124\n      jumpi\n      tag_125\n      tag_83\n      jump\t// in\n    tag_125:\n    tag_124:\n      mload(0x40)\n      swap1\n      dup1\n      dup3\n      mstore\n      dup1\n      0x1f\n      add\n      not(0x1f)\n      and\n      0x20\n      add\n      dup3\n      add\n      0x40\n      mstore\n      dup1\n      iszero\n      tag_126\n      jumpi\n      dup2\n      0x20\n      add\n      0x01\n      dup3\n      mul\n      dup1\n      calldatasize\n      dup4\n      calldatacopy\n      dup1\n      dup3\n      add\n      swap2\n      pop\n      pop\n      swap1\n      pop\n    tag_126:\n      pop\n        /* \"contracts/homework/test_2.sol\":380:417  bytes memory reverse = new bytes(len) */\n      swap1\n      pop\n        /* \"contracts/homework/test_2.sol\":434:440  uint i */\n      0x00\n        /* \"contracts/homework/test_2.sol\":443:444  0 */\n      0x00\n        /* \"contracts/homework/test_2.sol\":434:444  uint i = 0 */\n      swap1\n      pop\n        /* \"contracts/homework/test_2.sol\":430:521  for(uint i = 0; i < len; i++) {... */\n    tag_127:\n        /* \"contracts/homework/test_2.sol\":450:453  len */\n      dup3\n        /* \"contracts/homework/test_2.sol\":446:447  i */\n      dup2\n        /* \"contracts/homework/test_2.sol\":446:453  i < len */\n      lt\n        /* \"contracts/homework/test_2.sol\":430:521  for(uint i = 0; i < len; i++) {... */\n      iszero\n      tag_128\n      jumpi\n        /* \"contracts/homework/test_2.sol\":488:497  lineBytes */\n      dup4\n        /* \"contracts/homework/test_2.sol\":507:508  i */\n      dup2\n        /* \"contracts/homework/test_2.sol\":503:504  1 */\n      0x01\n        /* \"contracts/homework/test_2.sol\":498:501  len */\n      dup6\n        /* \"contracts/homework/test_2.sol\":498:504  len -1 */\n      tag_130\n      swap2\n      swap1\n      tag_44\n      jump\t// in\n    tag_130:\n        /* \"contracts/homework/test_2.sol\":498:508  len -1 - i */\n      tag_131\n      swap2\n      swap1\n      tag_44\n      jump\t// in\n    tag_131:\n        /* \"contracts/homework/test_2.sol\":488:509  lineBytes[len -1 - i] */\n      dup2\n      mload\n      dup2\n      lt\n      tag_132\n      jumpi\n      tag_133\n      tag_41\n      jump\t// in\n    tag_133:\n    tag_132:\n      0x20\n      add\n      add\n      mload\n      0xf8\n      shr\n      0xf8\n      shl\n        /* \"contracts/homework/test_2.sol\":475:482  reverse */\n      dup3\n        /* \"contracts/homework/test_2.sol\":483:484  i */\n      dup3\n        /* \"contracts/homework/test_2.sol\":475:485  reverse[i] */\n      dup2\n      mload\n      dup2\n      lt\n      tag_134\n      jumpi\n      tag_135\n      tag_41\n      jump\t// in\n    tag_135:\n    tag_134:\n      0x20\n      add\n      add\n        /* \"contracts/homework/test_2.sol\":475:509  reverse[i] = lineBytes[len -1 - i] */\n      swap1\n      not(0xffffffffffffffffffffffffffffffffffffffffffffffffffffffffffffff)\n      and\n      swap1\n      dup2\n      0x00\n      byte\n      swap1\n      mstore8\n      pop\n        /* \"contracts/homework/test_2.sol\":455:458  i++ */\n      dup1\n      dup1\n      0x01\n      add\n      swap2\n      pop\n      pop\n        /* \"contracts/homework/test_2.sol\":430:521  for(uint i = 0; i < len; i++) {... */\n      jump(tag_127)\n    tag_128:\n      pop\n        /* \"contracts/homework/test_2.sol\":547:554  reverse */\n      dup1\n        /* \"contracts/homework/test_2.sol\":533:555  return string(reverse) */\n      swap4\n      pop\n      pop\n      pop\n      pop\n        /* \"contracts/homework/test_2.sol\":163:563  function stringReverse(string calldata line) public pure returns (string memory) {... */\n    tag_122:\n      swap3\n      swap2\n      pop\n      pop\n      jump\t// out\n        /* \"contracts/homework/test_2.sol\":1945:2268  function valueOf(bytes1 c) internal pure returns (uint) {... */\n    tag_60:\n        /* \"contracts/homework/test_2.sol\":1995:1999  uint */\n      0x00\n        /* \"contracts/homework/test_2.sol\":2016:2024  c == \"I\" */\n      0x4900000000000000000000000000000000000000000000000000000000000000\n        /* \"contracts/homework/test_2.sol\":2016:2017  c */\n      dup3\n        /* \"contracts/homework/test_2.sol\":2016:2024  c == \"I\" */\n      not(0xffffffffffffffffffffffffffffffffffffffffffffffffffffffffffffff)\n      and\n      sub\n        /* \"contracts/homework/test_2.sol\":2012:2034  if (c == \"I\") return 1 */\n      tag_137\n      jumpi\n        /* \"contracts/homework/test_2.sol\":2033:2034  1 */\n      0x01\n        /* \"contracts/homework/test_2.sol\":2026:2034  return 1 */\n      swap1\n      pop\n      jump(tag_136)\n        /* \"contracts/homework/test_2.sol\":2012:2034  if (c == \"I\") return 1 */\n    tag_137:\n        /* \"contracts/homework/test_2.sol\":2049:2057  c == \"V\" */\n      0x5600000000000000000000000000000000000000000000000000000000000000\n        /* \"contracts/homework/test_2.sol\":2049:2050  c */\n      dup3\n        /* \"contracts/homework/test_2.sol\":2049:2057  c == \"V\" */\n      not(0xffffffffffffffffffffffffffffffffffffffffffffffffffffffffffffff)\n      and\n      sub\n        /* \"contracts/homework/test_2.sol\":2045:2067  if (c == \"V\") return 5 */\n      tag_138\n      jumpi\n        /* \"contracts/homework/test_2.sol\":2066:2067  5 */\n      0x05\n        /* \"contracts/homework/test_2.sol\":2059:2067  return 5 */\n      swap1\n      pop\n      jump(tag_136)\n        /* \"contracts/homework/test_2.sol\":2045:2067  if (c == \"V\") return 5 */\n    tag_138:\n        /* \"contracts/homework/test_2.sol\":2082:2090  c == \"X\" */\n      0x5800000000000000000000000000000000000000000000000000000000000000\n        /* \"contracts/homework/test_2.sol\":2082:2083  c */\n      dup3\n        /* \"contracts/homework/test_2.sol\":2082:2090  c == \"X\" */\n      not(0xffffffffffffffffffffffffffffffffffffffffffffffffffffffffffffff)\n      and\n      sub\n        /* \"contracts/homework/test_2.sol\":2078:2101  if (c == \"X\") return 10 */\n      tag_139\n      jumpi\n        /* \"contracts/homework/test_2.sol\":2099:2101  10 */\n      0x0a\n        /* \"contracts/homework/test_2.sol\":2092:2101  return 10 */\n      swap1\n      pop\n      jump(tag_136)\n        /* \"contracts/homework/test_2.sol\":2078:2101  if (c == \"X\") return 10 */\n    tag_139:\n        /* \"contracts/homework/test_2.sol\":2116:2124  c == \"L\" */\n      0x4c00000000000000000000000000000000000000000000000000000000000000\n        /* \"contracts/homework/test_2.sol\":2116:2117  c */\n      dup3\n        /* \"contracts/homework/test_2.sol\":2116:2124  c == \"L\" */\n      not(0xffffffffffffffffffffffffffffffffffffffffffffffffffffffffffffff)\n      and\n      sub\n        /* \"contracts/homework/test_2.sol\":2112:2135  if (c == \"L\") return 50 */\n      tag_140\n      jumpi\n        /* \"contracts/homework/test_2.sol\":2133:2135  50 */\n      0x32\n        /* \"contracts/homework/test_2.sol\":2126:2135  return 50 */\n      swap1\n      pop\n      jump(tag_136)\n        /* \"contracts/homework/test_2.sol\":2112:2135  if (c == \"L\") return 50 */\n    tag_140:\n        /* \"contracts/homework/test_2.sol\":2150:2158  c == \"C\" */\n      0x4300000000000000000000000000000000000000000000000000000000000000\n        /* \"contracts/homework/test_2.sol\":2150:2151  c */\n      dup3\n        /* \"contracts/homework/test_2.sol\":2150:2158  c == \"C\" */\n      not(0xffffffffffffffffffffffffffffffffffffffffffffffffffffffffffffff)\n      and\n      sub\n        /* \"contracts/homework/test_2.sol\":2146:2170  if (c == \"C\") return 100 */\n      tag_141\n      jumpi\n        /* \"contracts/homework/test_2.sol\":2167:2170  100 */\n      0x64\n        /* \"contracts/homework/test_2.sol\":2160:2170  return 100 */\n      swap1\n      pop\n      jump(tag_136)\n        /* \"contracts/homework/test_2.sol\":2146:2170  if (c == \"C\") return 100 */\n    tag_141:\n        /* \"contracts/homework/test_2.sol\":2185:2193  c == \"D\" */\n      0x4400000000000000000000000000000000000000000000000000000000000000\n        /* \"contracts/homework/test_2.sol\":2185:2186  c */\n      dup3\n        /* \"contracts/homework/test_2.sol\":2185:2193  c == \"D\" */\n      not(0xffffffffffffffffffffffffffffffffffffffffffffffffffffffffffffff)\n      and\n      sub\n        /* \"contracts/homework/test_2.sol\":2181:2205  if (c == \"D\") return 500 */\n      tag_142\n      jumpi\n        /* \"contracts/homework/test_2.sol\":2202:2205  500 */\n      0x01f4\n        /* \"contracts/homework/test_2.sol\":2195:2205  return 500 */\n      swap1\n      pop\n      jump(tag_136)\n        /* \"contracts/homework/test_2.sol\":2181:2205  if (c == \"D\") return 500 */\n    tag_142:\n        /* \"contracts/homework/test_2.sol\":2220:2228  c == \"M\" */\n      0x4d00000000000000000000000000000000000000000000000000000000000000\n        /* \"contracts/homework/test_2.sol\":2220:2221  c */\n      dup3\n        /* \"contracts/homework/test_2.sol\":2220:2228  c == \"M\" */\n      not(0xffffffffffffffffffffffffffffffffffffffffffffffffffffffffffffff)\n      and\n      sub\n        /* \"contracts/homework/test_2.sol\":2216:2241  if (c == \"M\") return 1000 */\n      tag_143\n      jumpi\n        /* \"contracts/homework/test_2.sol\":2237:2241  1000 */\n      0x03e8\n        /* \"contracts/homework/test_2.sol\":2230:2241  return 1000 */\n      swap1\n      pop\n      jump(tag_136)\n        /* \"contracts/homework/test_2.sol\":2216:2241  if (c == \"M\") return 1000 */\n    tag_143:\n        /* \"contracts/homework/test_2.sol\":2259:2260  0 */\n      0x00\n        /* \"contracts/homework/test_2.sol\":2252:2260  return 0 */\n      swap1\n      pop\n        /* \"contracts/homework/test_2.sol\":1945:2268  function valueOf(bytes1 c) internal pure returns (uint) {... */\n    tag_136:\n      swap2\n      swap1\n      pop\n      jump\t// out\n        /* \"#utility.yul\":7:82   */\n    tag_144:\n        /* \"#utility.yul\":40:46   */\n      0x00\n        /* \"#utility.yul\":73:75   */\n      0x40\n        /* \"#utility.yul\":67:76   */\n      mload\n        /* \"#utility.yul\":57:76   */\n      swap1\n      pop\n        /* \"#utility.yul\":7:82   */\n      swap1\n      jump\t// out\n        /* \"#utility.yul\":88:205   */\n    tag_145:\n        /* \"#utility.yul\":197:198   */\n      0x00\n        /* \"#utility.yul\":194:195   */\n      0x00\n        /* \"#utility.yul\":187:199   */\n      revert\n        /* \"#utility.yul\":211:328   */\n    tag_146:\n        /* \"#utility.yul\":320:321   */\n      0x00\n        /* \"#utility.yul\":317:318   */\n      0x00\n        /* \"#utility.yul\":310:322   */\n      revert\n        /* \"#utility.yul\":334:411   */\n    tag_147:\n        /* \"#utility.yul\":371:378   */\n      0x00\n        /* \"#utility.yul\":400:405   */\n      dup2\n        /* \"#utility.yul\":389:405   */\n      swap1\n      pop\n        /* \"#utility.yul\":334:411   */\n      swap2\n      swap1\n      pop\n      jump\t// out\n        /* \"#utility.yul\":417:539   */\n    tag_148:\n        /* \"#utility.yul\":490:514   */\n      tag_184\n        /* \"#utility.yul\":508:513   */\n      dup2\n        /* \"#utility.yul\":490:514   */\n      tag_147\n      jump\t// in\n    tag_184:\n        /* \"#utility.yul\":483:488   */\n      dup2\n        /* \"#utility.yul\":480:515   */\n      eq\n        /* \"#utility.yul\":470:533   */\n      tag_185\n      jumpi\n        /* \"#utility.yul\":529:530   */\n      0x00\n        /* \"#utility.yul\":526:527   */\n      0x00\n        /* \"#utility.yul\":519:531   */\n      revert\n        /* \"#utility.yul\":470:533   */\n    tag_185:\n        /* \"#utility.yul\":417:539   */\n      pop\n      jump\t// out\n        /* \"#utility.yul\":545:684   */\n    tag_149:\n        /* \"#utility.yul\":591:596   */\n      0x00\n        /* \"#utility.yul\":629:635   */\n      dup2\n        /* \"#utility.yul\":616:636   */\n      calldataload\n        /* \"#utility.yul\":607:636   */\n      swap1\n      pop\n        /* \"#utility.yul\":645:678   */\n      tag_187\n        /* \"#utility.yul\":672:677   */\n      dup2\n        /* \"#utility.yul\":645:678   */\n      tag_148\n      jump\t// in\n    tag_187:\n        /* \"#utility.yul\":545:684   */\n      swap3\n      swap2\n      pop\n      pop\n      jump\t// out\n        /* \"#utility.yul\":690:1019   */\n    tag_10:\n        /* \"#utility.yul\":749:755   */\n      0x00\n        /* \"#utility.yul\":798:800   */\n      0x20\n        /* \"#utility.yul\":786:795   */\n      dup3\n        /* \"#utility.yul\":777:784   */\n      dup5\n        /* \"#utility.yul\":773:796   */\n      sub\n        /* \"#utility.yul\":769:801   */\n      slt\n        /* \"#utility.yul\":766:885   */\n      iszero\n      tag_189\n      jumpi\n        /* \"#utility.yul\":804:883   */\n      tag_190\n      tag_145\n      jump\t// in\n    tag_190:\n        /* \"#utility.yul\":766:885   */\n    tag_189:\n        /* \"#utility.yul\":924:925   */\n      0x00\n        /* \"#utility.yul\":949:1002   */\n      tag_191\n        /* \"#utility.yul\":994:1001   */\n      dup5\n        /* \"#utility.yul\":985:991   */\n      dup3\n        /* \"#utility.yul\":974:983   */\n      dup6\n        /* \"#utility.yul\":970:992   */\n      add\n        /* \"#utility.yul\":949:1002   */\n      tag_149\n      jump\t// in\n    tag_191:\n        /* \"#utility.yul\":939:1002   */\n      swap2\n      pop\n        /* \"#utility.yul\":895:1012   */\n      pop\n        /* \"#utility.yul\":690:1019   */\n      swap3\n      swap2\n      pop\n      pop\n      jump\t// out\n        /* \"#utility.yul\":1025:1124   */\n    tag_150:\n        /* \"#utility.yul\":1077:1083   */\n      0x00\n        /* \"#utility.yul\":1111:1116   */\n      dup2\n        /* \"#utility.yul\":1105:1117   */\n      mload\n        /* \"#utility.yul\":1095:1117   */\n      swap1\n      pop\n        /* \"#utility.yul\":1025:1124   */\n      swap2\n      swap1\n      pop\n      jump\t// out\n        /* \"#utility.yul\":1130:1299   */\n    tag_151:\n        /* \"#utility.yul\":1214:1225   */\n      0x00\n        /* \"#utility.yul\":1248:1254   */\n      dup3\n        /* \"#utility.yul\":1243:1246   */\n      dup3\n        /* \"#utility.yul\":1236:1255   */\n      mstore\n        /* \"#utility.yul\":1288:1292   */\n      0x20\n        /* \"#utility.yul\":1283:1286   */\n      dup3\n        /* \"#utility.yul\":1279:1293   */\n      add\n        /* \"#utility.yul\":1264:1293   */\n      swap1\n      pop\n        /* \"#utility.yul\":1130:1299   */\n      swap3\n      swap2\n      pop\n      pop\n      jump\t// out\n        /* \"#utility.yul\":1305:1444   */\n    tag_152:\n        /* \"#utility.yul\":1394:1400   */\n      dup3\n        /* \"#utility.yul\":1389:1392   */\n      dup2\n        /* \"#utility.yul\":1384:1387   */\n      dup4\n        /* \"#utility.yul\":1378:1401   */\n      mcopy\n        /* \"#utility.yul\":1435:1436   */\n      0x00\n        /* \"#utility.yul\":1426:1432   */\n      dup4\n        /* \"#utility.yul\":1421:1424   */\n      dup4\n        /* \"#utility.yul\":1417:1433   */\n      add\n        /* \"#utility.yul\":1410:1437   */\n      mstore\n        /* \"#utility.yul\":1305:1444   */\n      pop\n      pop\n      pop\n      jump\t// out\n        /* \"#utility.yul\":1450:1552   */\n    tag_153:\n        /* \"#utility.yul\":1491:1497   */\n      0x00\n        /* \"#utility.yul\":1542:1544   */\n      0x1f\n        /* \"#utility.yul\":1538:1545   */\n      not\n        /* \"#utility.yul\":1533:1535   */\n      0x1f\n        /* \"#utility.yul\":1526:1531   */\n      dup4\n        /* \"#utility.yul\":1522:1536   */\n      add\n        /* \"#utility.yul\":1518:1546   */\n      and\n        /* \"#utility.yul\":1508:1546   */\n      swap1\n      pop\n        /* \"#utility.yul\":1450:1552   */\n      swap2\n      swap1\n      pop\n      jump\t// out\n        /* \"#utility.yul\":1558:1935   */\n    tag_154:\n        /* \"#utility.yul\":1646:1649   */\n      0x00\n        /* \"#utility.yul\":1674:1713   */\n      tag_197\n        /* \"#utility.yul\":1707:1712   */\n      dup3\n        /* \"#utility.yul\":1674:1713   */\n      tag_150\n      jump\t// in\n    tag_197:\n        /* \"#utility.yul\":1729:1800   */\n      tag_198\n        /* \"#utility.yul\":1793:1799   */\n      dup2\n        /* \"#utility.yul\":1788:1791   */\n      dup6\n        /* \"#utility.yul\":1729:1800   */\n      tag_151\n      jump\t// in\n    tag_198:\n        /* \"#utility.yul\":1722:1800   */\n      swap4\n      pop\n        /* \"#utility.yul\":1809:1874   */\n      tag_199\n        /* \"#utility.yul\":1867:1873   */\n      dup2\n        /* \"#utility.yul\":1862:1865   */\n      dup6\n        /* \"#utility.yul\":1855:1859   */\n      0x20\n        /* \"#utility.yul\":1848:1853   */\n      dup7\n        /* \"#utility.yul\":1844:1860   */\n      add\n        /* \"#utility.yul\":1809:1874   */\n      tag_152\n      jump\t// in\n    tag_199:\n        /* \"#utility.yul\":1899:1928   */\n      tag_200\n        /* \"#utility.yul\":1921:1927   */\n      dup2\n        /* \"#utility.yul\":1899:1928   */\n      tag_153\n      jump\t// in\n    tag_200:\n        /* \"#utility.yul\":1894:1897   */\n      dup5\n        /* \"#utility.yul\":1890:1929   */\n      add\n        /* \"#utility.yul\":1883:1929   */\n      swap2\n      pop\n        /* \"#utility.yul\":1650:1935   */\n      pop\n        /* \"#utility.yul\":1558:1935   */\n      swap3\n      swap2\n      pop\n      pop\n      jump\t// out\n        /* \"#utility.yul\":1941:2254   */\n    tag_13:\n        /* \"#utility.yul\":2054:2058   */\n      0x00\n        /* \"#utility.yul\":2092:2094   */\n      0x20\n        /* \"#utility.yul\":2081:2090   */\n      dup3\n        /* \"#utility.yul\":2077:2095   */\n      add\n        /* \"#utility.yul\":2069:2095   */\n      swap1\n      pop\n        /* \"#utility.yul\":2141:2150   */\n      dup2\n        /* \"#utility.yul\":2135:2139   */\n      dup2\n        /* \"#utility.yul\":2131:2151   */\n      sub\n        /* \"#utility.yul\":2127:2128   */\n      0x00\n        /* \"#utility.yul\":2116:2125   */\n      dup4\n        /* \"#utility.yul\":2112:2129   */\n      add\n        /* \"#utility.yul\":2105:2152   */\n      mstore\n        /* \"#utility.yul\":2169:2247   */\n      tag_202\n        /* \"#utility.yul\":2242:2246   */\n      dup2\n        /* \"#utility.yul\":2233:2239   */\n      dup5\n        /* \"#utility.yul\":2169:2247   */\n      tag_154\n      jump\t// in\n    tag_202:\n        /* \"#utility.yul\":2161:2247   */\n      swap1\n      pop\n        /* \"#utility.yul\":1941:2254   */\n      swap3\n      swap2\n      pop\n      pop\n      jump\t// out\n        /* \"#utility.yul\":2260:2377   */\n    tag_155:\n        /* \"#utility.yul\":2369:2370   */\n      0x00\n        /* \"#utility.yul\":2366:2367   */\n      0x00\n        /* \"#utility.yul\":2359:2371   */\n      revert\n        /* \"#utility.yul\":2383:2500   */\n    tag_156:\n        /* \"#utility.yul\":2492:2493   */\n      0x00\n        /* \"#utility.yul\":2489:2490   */\n      0x00\n        /* \"#utility.yul\":2482:2494   */\n      revert\n        /* \"#utility.yul\":2506:2623   */\n    tag_157:\n        /* \"#utility.yul\":2615:2616   */\n      0x00\n        /* \"#utility.yul\":2612:2613   */\n      0x00\n        /* \"#utility.yul\":2605:2617   */\n      revert\n        /* \"#utility.yul\":2646:3214   */\n    tag_158:\n        /* \"#utility.yul\":2719:2727   */\n      0x00\n        /* \"#utility.yul\":2729:2735   */\n      0x00\n        /* \"#utility.yul\":2779:2782   */\n      dup4\n        /* \"#utility.yul\":2772:2776   */\n      0x1f\n        /* \"#utility.yul\":2764:2770   */\n      dup5\n        /* \"#utility.yul\":2760:2777   */\n      add\n        /* \"#utility.yul\":2756:2783   */\n      slt\n        /* \"#utility.yul\":2746:2868   */\n      tag_207\n      jumpi\n        /* \"#utility.yul\":2787:2866   */\n      tag_208\n      tag_155\n      jump\t// in\n    tag_208:\n        /* \"#utility.yul\":2746:2868   */\n    tag_207:\n        /* \"#utility.yul\":2900:2906   */\n      dup3\n        /* \"#utility.yul\":2887:2907   */\n      calldataload\n        /* \"#utility.yul\":2877:2907   */\n      swap1\n      pop\n        /* \"#utility.yul\":2930:2948   */\n      0xffffffffffffffff\n        /* \"#utility.yul\":2922:2928   */\n      dup2\n        /* \"#utility.yul\":2919:2949   */\n      gt\n        /* \"#utility.yul\":2916:3033   */\n      iszero\n      tag_209\n      jumpi\n        /* \"#utility.yul\":2952:3031   */\n      tag_210\n      tag_156\n      jump\t// in\n    tag_210:\n        /* \"#utility.yul\":2916:3033   */\n    tag_209:\n        /* \"#utility.yul\":3066:3070   */\n      0x20\n        /* \"#utility.yul\":3058:3064   */\n      dup4\n        /* \"#utility.yul\":3054:3071   */\n      add\n        /* \"#utility.yul\":3042:3071   */\n      swap2\n      pop\n        /* \"#utility.yul\":3120:3123   */\n      dup4\n        /* \"#utility.yul\":3112:3116   */\n      0x20\n        /* \"#utility.yul\":3104:3110   */\n      dup3\n        /* \"#utility.yul\":3100:3117   */\n      mul\n        /* \"#utility.yul\":3090:3098   */\n      dup4\n        /* \"#utility.yul\":3086:3118   */\n      add\n        /* \"#utility.yul\":3083:3124   */\n      gt\n        /* \"#utility.yul\":3080:3208   */\n      iszero\n      tag_211\n      jumpi\n        /* \"#utility.yul\":3127:3206   */\n      tag_212\n      tag_157\n      jump\t// in\n    tag_212:\n        /* \"#utility.yul\":3080:3208   */\n    tag_211:\n        /* \"#utility.yul\":2646:3214   */\n      swap3\n      pop\n      swap3\n      swap1\n      pop\n      jump\t// out\n        /* \"#utility.yul\":3220:3924   */\n    tag_16:\n        /* \"#utility.yul\":3315:3321   */\n      0x00\n        /* \"#utility.yul\":3323:3329   */\n      0x00\n        /* \"#utility.yul\":3331:3337   */\n      0x00\n        /* \"#utility.yul\":3380:3382   */\n      0x40\n        /* \"#utility.yul\":3368:3377   */\n      dup5\n        /* \"#utility.yul\":3359:3366   */\n      dup7\n        /* \"#utility.yul\":3355:3378   */\n      sub\n        /* \"#utility.yul\":3351:3383   */\n      slt\n        /* \"#utility.yul\":3348:3467   */\n      iszero\n      tag_214\n      jumpi\n        /* \"#utility.yul\":3386:3465   */\n      tag_215\n      tag_145\n      jump\t// in\n    tag_215:\n        /* \"#utility.yul\":3348:3467   */\n    tag_214:\n        /* \"#utility.yul\":3534:3535   */\n      0x00\n        /* \"#utility.yul\":3523:3532   */\n      dup5\n        /* \"#utility.yul\":3519:3536   */\n      add\n        /* \"#utility.yul\":3506:3537   */\n      calldataload\n        /* \"#utility.yul\":3564:3582   */\n      0xffffffffffffffff\n        /* \"#utility.yul\":3556:3562   */\n      dup2\n        /* \"#utility.yul\":3553:3583   */\n      gt\n        /* \"#utility.yul\":3550:3667   */\n      iszero\n      tag_216\n      jumpi\n        /* \"#utility.yul\":3586:3665   */\n      tag_217\n      tag_146\n      jump\t// in\n    tag_217:\n        /* \"#utility.yul\":3550:3667   */\n    tag_216:\n        /* \"#utility.yul\":3699:3779   */\n      tag_218\n        /* \"#utility.yul\":3771:3778   */\n      dup7\n        /* \"#utility.yul\":3762:3768   */\n      dup3\n        /* \"#utility.yul\":3751:3760   */\n      dup8\n        /* \"#utility.yul\":3747:3769   */\n      add\n        /* \"#utility.yul\":3699:3779   */\n      tag_158\n      jump\t// in\n    tag_218:\n        /* \"#utility.yul\":3681:3779   */\n      swap4\n      pop\n      swap4\n      pop\n        /* \"#utility.yul\":3477:3789   */\n      pop\n        /* \"#utility.yul\":3828:3830   */\n      0x20\n        /* \"#utility.yul\":3854:3907   */\n      tag_219\n        /* \"#utility.yul\":3899:3906   */\n      dup7\n        /* \"#utility.yul\":3890:3896   */\n      dup3\n        /* \"#utility.yul\":3879:3888   */\n      dup8\n        /* \"#utility.yul\":3875:3897   */\n      add\n        /* \"#utility.yul\":3854:3907   */\n      tag_149\n      jump\t// in\n    tag_219:\n        /* \"#utility.yul\":3844:3907   */\n      swap2\n      pop\n        /* \"#utility.yul\":3799:3917   */\n      pop\n        /* \"#utility.yul\":3220:3924   */\n      swap3\n      pop\n      swap3\n      pop\n      swap3\n      jump\t// out\n        /* \"#utility.yul\":3930:4048   */\n    tag_159:\n        /* \"#utility.yul\":4017:4041   */\n      tag_221\n        /* \"#utility.yul\":4035:4040   */\n      dup2\n        /* \"#utility.yul\":4017:4041   */\n      tag_147\n      jump\t// in\n    tag_221:\n        /* \"#utility.yul\":4012:4015   */\n      dup3\n        /* \"#utility.yul\":4005:4042   */\n      mstore\n        /* \"#utility.yul\":3930:4048   */\n      pop\n      pop\n      jump\t// out\n        /* \"#utility.yul\":4054:4276   */\n    tag_19:\n        /* \"#utility.yul\":4147:4151   */\n      0x00\n        /* \"#utility.yul\":4185:4187   */\n      0x20\n        /* \"#utility.yul\":4174:4183   */\n      dup3\n        /* \"#utility.yul\":4170:4188   */\n      add\n        /* \"#utility.yul\":4162:4188   */\n      swap1\n      pop\n        /* \"#utility.yul\":4198:4269   */\n      tag_223\n        /* \"#utility.yul\":4266:4267   */\n      0x00\n        /* \"#utility.yul\":4255:4264   */\n      dup4\n        /* \"#utility.yul\":4251:4268   */\n      add\n        /* \"#utility.yul\":4242:4248   */\n      dup5\n        /* \"#utility.yul\":4198:4269   */\n      tag_159\n      jump\t// in\n    tag_223:\n        /* \"#utility.yul\":4054:4276   */\n      swap3\n      swap2\n      pop\n      pop\n      jump\t// out\n        /* \"#utility.yul\":4282:4399   */\n    tag_160:\n        /* \"#utility.yul\":4391:4392   */\n      0x00\n        /* \"#utility.yul\":4388:4389   */\n      0x00\n        /* \"#utility.yul\":4381:4393   */\n      revert\n        /* \"#utility.yul\":4405:4585   */\n    tag_83:\n        /* \"#utility.yul\":4453:4530   */\n      0x4e487b7100000000000000000000000000000000000000000000000000000000\n        /* \"#utility.yul\":4450:4451   */\n      0x00\n        /* \"#utility.yul\":4443:4531   */\n      mstore\n        /* \"#utility.yul\":4550:4554   */\n      0x41\n        /* \"#utility.yul\":4547:4548   */\n      0x04\n        /* \"#utility.yul\":4540:4555   */\n      mstore\n        /* \"#utility.yul\":4574:4578   */\n      0x24\n        /* \"#utility.yul\":4571:4572   */\n      0x00\n        /* \"#utility.yul\":4564:4579   */\n      revert\n        /* \"#utility.yul\":4591:4872   */\n    tag_161:\n        /* \"#utility.yul\":4674:4701   */\n      tag_227\n        /* \"#utility.yul\":4696:4700   */\n      dup3\n        /* \"#utility.yul\":4674:4701   */\n      tag_153\n      jump\t// in\n    tag_227:\n        /* \"#utility.yul\":4666:4672   */\n      dup2\n        /* \"#utility.yul\":4662:4702   */\n      add\n        /* \"#utility.yul\":4804:4810   */\n      dup2\n        /* \"#utility.yul\":4792:4802   */\n      dup2\n        /* \"#utility.yul\":4789:4811   */\n      lt\n        /* \"#utility.yul\":4768:4786   */\n      0xffffffffffffffff\n        /* \"#utility.yul\":4756:4766   */\n      dup3\n        /* \"#utility.yul\":4753:4787   */\n      gt\n        /* \"#utility.yul\":4750:4812   */\n      or\n        /* \"#utility.yul\":4747:4835   */\n      iszero\n      tag_228\n      jumpi\n        /* \"#utility.yul\":4815:4833   */\n      tag_229\n      tag_83\n      jump\t// in\n    tag_229:\n        /* \"#utility.yul\":4747:4835   */\n    tag_228:\n        /* \"#utility.yul\":4855:4865   */\n      dup1\n        /* \"#utility.yul\":4851:4853   */\n      0x40\n        /* \"#utility.yul\":4844:4866   */\n      mstore\n        /* \"#utility.yul\":4634:4872   */\n      pop\n        /* \"#utility.yul\":4591:4872   */\n      pop\n      pop\n      jump\t// out\n        /* \"#utility.yul\":4878:5007   */\n    tag_162:\n        /* \"#utility.yul\":4912:4918   */\n      0x00\n        /* \"#utility.yul\":4939:4959   */\n      tag_231\n      tag_144\n      jump\t// in\n    tag_231:\n        /* \"#utility.yul\":4929:4959   */\n      swap1\n      pop\n        /* \"#utility.yul\":4968:5001   */\n      tag_232\n        /* \"#utility.yul\":4996:5000   */\n      dup3\n        /* \"#utility.yul\":4988:4994   */\n      dup3\n        /* \"#utility.yul\":4968:5001   */\n      tag_161\n      jump\t// in\n    tag_232:\n        /* \"#utility.yul\":4878:5007   */\n      swap2\n      swap1\n      pop\n      jump\t// out\n        /* \"#utility.yul\":5013:5321   */\n    tag_163:\n        /* \"#utility.yul\":5075:5079   */\n      0x00\n        /* \"#utility.yul\":5165:5183   */\n      0xffffffffffffffff\n        /* \"#utility.yul\":5157:5163   */\n      dup3\n        /* \"#utility.yul\":5154:5184   */\n      gt\n        /* \"#utility.yul\":5151:5207   */\n      iszero\n      tag_234\n      jumpi\n        /* \"#utility.yul\":5187:5205   */\n      tag_235\n      tag_83\n      jump\t// in\n    tag_235:\n        /* \"#utility.yul\":5151:5207   */\n    tag_234:\n        /* \"#utility.yul\":5225:5254   */\n      tag_236\n        /* \"#utility.yul\":5247:5253   */\n      dup3\n        /* \"#utility.yul\":5225:5254   */\n      tag_153\n      jump\t// in\n    tag_236:\n        /* \"#utility.yul\":5217:5254   */\n      swap1\n      pop\n        /* \"#utility.yul\":5309:5313   */\n      0x20\n        /* \"#utility.yul\":5303:5307   */\n      dup2\n        /* \"#utility.yul\":5299:5314   */\n      add\n        /* \"#utility.yul\":5291:5314   */\n      swap1\n      pop\n        /* \"#utility.yul\":5013:5321   */\n      swap2\n      swap1\n      pop\n      jump\t// out\n        /* \"#utility.yul\":5327:5475   */\n    tag_164:\n        /* \"#utility.yul\":5425:5431   */\n      dup3\n        /* \"#utility.yul\":5420:5423   */\n      dup2\n        /* \"#utility.yul\":5415:5418   */\n      dup4\n        /* \"#utility.yul\":5402:5432   */\n      calldatacopy\n        /* \"#utility.yul\":5466:5467   */\n      0x00\n        /* \"#utility.yul\":5457:5463   */\n      dup4\n        /* \"#utility.yul\":5452:5455   */\n      dup4\n        /* \"#utility.yul\":5448:5464   */\n      add\n        /* \"#utility.yul\":5441:5468   */\n      mstore\n        /* \"#utility.yul\":5327:5475   */\n      pop\n      pop\n      pop\n      jump\t// out\n        /* \"#utility.yul\":5481:5906   */\n    tag_165:\n        /* \"#utility.yul\":5559:5564   */\n      0x00\n        /* \"#utility.yul\":5584:5650   */\n      tag_239\n        /* \"#utility.yul\":5600:5649   */\n      tag_240\n        /* \"#utility.yul\":5642:5648   */\n      dup5\n        /* \"#utility.yul\":5600:5649   */\n      tag_163\n      jump\t// in\n    tag_240:\n        /* \"#utility.yul\":5584:5650   */\n      tag_162\n      jump\t// in\n    tag_239:\n        /* \"#utility.yul\":5575:5650   */\n      swap1\n      pop\n        /* \"#utility.yul\":5673:5679   */\n      dup3\n        /* \"#utility.yul\":5666:5671   */\n      dup2\n        /* \"#utility.yul\":5659:5680   */\n      mstore\n        /* \"#utility.yul\":5711:5715   */\n      0x20\n        /* \"#utility.yul\":5704:5709   */\n      dup2\n        /* \"#utility.yul\":5700:5716   */\n      add\n        /* \"#utility.yul\":5749:5752   */\n      dup5\n        /* \"#utility.yul\":5740:5746   */\n      dup5\n        /* \"#utility.yul\":5735:5738   */\n      dup5\n        /* \"#utility.yul\":5731:5747   */\n      add\n        /* \"#utility.yul\":5728:5753   */\n      gt\n        /* \"#utility.yul\":5725:5837   */\n      iszero\n      tag_241\n      jumpi\n        /* \"#utility.yul\":5756:5835   */\n      tag_242\n      tag_160\n      jump\t// in\n    tag_242:\n        /* \"#utility.yul\":5725:5837   */\n    tag_241:\n        /* \"#utility.yul\":5846:5900   */\n      tag_243\n        /* \"#utility.yul\":5893:5899   */\n      dup5\n        /* \"#utility.yul\":5888:5891   */\n      dup3\n        /* \"#utility.yul\":5883:5886   */\n      dup6\n        /* \"#utility.yul\":5846:5900   */\n      tag_164\n      jump\t// in\n    tag_243:\n        /* \"#utility.yul\":5565:5906   */\n      pop\n        /* \"#utility.yul\":5481:5906   */\n      swap4\n      swap3\n      pop\n      pop\n      pop\n      jump\t// out\n        /* \"#utility.yul\":5926:6266   */\n    tag_166:\n        /* \"#utility.yul\":5982:5987   */\n      0x00\n        /* \"#utility.yul\":6031:6034   */\n      dup3\n        /* \"#utility.yul\":6024:6028   */\n      0x1f\n        /* \"#utility.yul\":6016:6022   */\n      dup4\n        /* \"#utility.yul\":6012:6029   */\n      add\n        /* \"#utility.yul\":6008:6035   */\n      slt\n        /* \"#utility.yul\":5998:6120   */\n      tag_245\n      jumpi\n        /* \"#utility.yul\":6039:6118   */\n      tag_246\n      tag_155\n      jump\t// in\n    tag_246:\n        /* \"#utility.yul\":5998:6120   */\n    tag_245:\n        /* \"#utility.yul\":6156:6162   */\n      dup2\n        /* \"#utility.yul\":6143:6163   */\n      calldataload\n        /* \"#utility.yul\":6181:6260   */\n      tag_247\n        /* \"#utility.yul\":6256:6259   */\n      dup5\n        /* \"#utility.yul\":6248:6254   */\n      dup3\n        /* \"#utility.yul\":6241:6245   */\n      0x20\n        /* \"#utility.yul\":6233:6239   */\n      dup7\n        /* \"#utility.yul\":6229:6246   */\n      add\n        /* \"#utility.yul\":6181:6260   */\n      tag_165\n      jump\t// in\n    tag_247:\n        /* \"#utility.yul\":6172:6260   */\n      swap2\n      pop\n        /* \"#utility.yul\":5988:6266   */\n      pop\n        /* \"#utility.yul\":5926:6266   */\n      swap3\n      swap2\n      pop\n      pop\n      jump\t// out\n        /* \"#utility.yul\":6272:6781   */\n    tag_22:\n        /* \"#utility.yul\":6341:6347   */\n      0x00\n        /* \"#utility.yul\":6390:6392   */\n      0x20\n        /* \"#utility.yul\":6378:6387   */\n      dup3\n        /* \"#utility.yul\":6369:6376   */\n      dup5\n        /* \"#utility.yul\":6365:6388   */\n      sub\n        /* \"#utility.yul\":6361:6393   */\n      slt\n        /* \"#utility.yul\":6358:6477   */\n      iszero\n      tag_249\n      jumpi\n        /* \"#utility.yul\":6396:6475   */\n      tag_250\n      tag_145\n      jump\t// in\n    tag_250:\n        /* \"#utility.yul\":6358:6477   */\n    tag_249:\n        /* \"#utility.yul\":6544:6545   */\n      0x00\n        /* \"#utility.yul\":6533:6542   */\n      dup3\n        /* \"#utility.yul\":6529:6546   */\n      add\n        /* \"#utility.yul\":6516:6547   */\n      calldataload\n        /* \"#utility.yul\":6574:6592   */\n      0xffffffffffffffff\n        /* \"#utility.yul\":6566:6572   */\n      dup2\n        /* \"#utility.yul\":6563:6593   */\n      gt\n        /* \"#utility.yul\":6560:6677   */\n      iszero\n      tag_251\n      jumpi\n        /* \"#utility.yul\":6596:6675   */\n      tag_252\n      tag_146\n      jump\t// in\n    tag_252:\n        /* \"#utility.yul\":6560:6677   */\n    tag_251:\n        /* \"#utility.yul\":6701:6764   */\n      tag_253\n        /* \"#utility.yul\":6756:6763   */\n      dup5\n        /* \"#utility.yul\":6747:6753   */\n      dup3\n        /* \"#utility.yul\":6736:6745   */\n      dup6\n        /* \"#utility.yul\":6732:6754   */\n      add\n        /* \"#utility.yul\":6701:6764   */\n      tag_166\n      jump\t// in\n    tag_253:\n        /* \"#utility.yul\":6691:6764   */\n      swap2\n      pop\n        /* \"#utility.yul\":6487:6774   */\n      pop\n        /* \"#utility.yul\":6272:6781   */\n      swap3\n      swap2\n      pop\n      pop\n      jump\t// out\n        /* \"#utility.yul\":6787:7721   */\n    tag_27:\n        /* \"#utility.yul\":6909:6915   */\n      0x00\n        /* \"#utility.yul\":6917:6923   */\n      0x00\n        /* \"#utility.yul\":6925:6931   */\n      0x00\n        /* \"#utility.yul\":6933:6939   */\n      0x00\n        /* \"#utility.yul\":6982:6984   */\n      0x40\n        /* \"#utility.yul\":6970:6979   */\n      dup6\n        /* \"#utility.yul\":6961:6968   */\n      dup8\n        /* \"#utility.yul\":6957:6980   */\n      sub\n        /* \"#utility.yul\":6953:6985   */\n      slt\n        /* \"#utility.yul\":6950:7069   */\n      iszero\n      tag_255\n      jumpi\n        /* \"#utility.yul\":6988:7067   */\n      tag_256\n      tag_145\n      jump\t// in\n    tag_256:\n        /* \"#utility.yul\":6950:7069   */\n    tag_255:\n        /* \"#utility.yul\":7136:7137   */\n      0x00\n        /* \"#utility.yul\":7125:7134   */\n      dup6\n        /* \"#utility.yul\":7121:7138   */\n      add\n        /* \"#utility.yul\":7108:7139   */\n      calldataload\n        /* \"#utility.yul\":7166:7184   */\n      0xffffffffffffffff\n        /* \"#utility.yul\":7158:7164   */\n      dup2\n        /* \"#utility.yul\":7155:7185   */\n      gt\n        /* \"#utility.yul\":7152:7269   */\n      iszero\n      tag_257\n      jumpi\n        /* \"#utility.yul\":7188:7267   */\n      tag_258\n      tag_146\n      jump\t// in\n    tag_258:\n        /* \"#utility.yul\":7152:7269   */\n    tag_257:\n        /* \"#utility.yul\":7301:7381   */\n      tag_259\n        /* \"#utility.yul\":7373:7380   */\n      dup8\n        /* \"#utility.yul\":7364:7370   */\n      dup3\n        /* \"#utility.yul\":7353:7362   */\n      dup9\n        /* \"#utility.yul\":7349:7371   */\n      add\n        /* \"#utility.yul\":7301:7381   */\n      tag_158\n      jump\t// in\n    tag_259:\n        /* \"#utility.yul\":7283:7381   */\n      swap5\n      pop\n      swap5\n      pop\n        /* \"#utility.yul\":7079:7391   */\n      pop\n        /* \"#utility.yul\":7458:7460   */\n      0x20\n        /* \"#utility.yul\":7447:7456   */\n      dup6\n        /* \"#utility.yul\":7443:7461   */\n      add\n        /* \"#utility.yul\":7430:7462   */\n      calldataload\n        /* \"#utility.yul\":7489:7507   */\n      0xffffffffffffffff\n        /* \"#utility.yul\":7481:7487   */\n      dup2\n        /* \"#utility.yul\":7478:7508   */\n      gt\n        /* \"#utility.yul\":7475:7592   */\n      iszero\n      tag_260\n      jumpi\n        /* \"#utility.yul\":7511:7590   */\n      tag_261\n      tag_146\n      jump\t// in\n    tag_261:\n        /* \"#utility.yul\":7475:7592   */\n    tag_260:\n        /* \"#utility.yul\":7624:7704   */\n      tag_262\n        /* \"#utility.yul\":7696:7703   */\n      dup8\n        /* \"#utility.yul\":7687:7693   */\n      dup3\n        /* \"#utility.yul\":7676:7685   */\n      dup9\n        /* \"#utility.yul\":7672:7694   */\n      add\n        /* \"#utility.yul\":7624:7704   */\n      tag_158\n      jump\t// in\n    tag_262:\n        /* \"#utility.yul\":7606:7704   */\n      swap3\n      pop\n      swap3\n      pop\n        /* \"#utility.yul\":7401:7714   */\n      pop\n        /* \"#utility.yul\":6787:7721   */\n      swap3\n      swap6\n      swap2\n      swap5\n      pop\n      swap3\n      pop\n      jump\t// out\n        /* \"#utility.yul\":7727:7841   */\n    tag_167:\n        /* \"#utility.yul\":7794:7800   */\n      0x00\n        /* \"#utility.yul\":7828:7833   */\n      dup2\n        /* \"#utility.yul\":7822:7834   */\n      mload\n        /* \"#utility.yul\":7812:7834   */\n      swap1\n      pop\n        /* \"#utility.yul\":7727:7841   */\n      swap2\n      swap1\n      pop\n      jump\t// out\n        /* \"#utility.yul\":7847:8031   */\n    tag_168:\n        /* \"#utility.yul\":7946:7957   */\n      0x00\n        /* \"#utility.yul\":7980:7986   */\n      dup3\n        /* \"#utility.yul\":7975:7978   */\n      dup3\n        /* \"#utility.yul\":7968:7987   */\n      mstore\n        /* \"#utility.yul\":8020:8024   */\n      0x20\n        /* \"#utility.yul\":8015:8018   */\n      dup3\n        /* \"#utility.yul\":8011:8025   */\n      add\n        /* \"#utility.yul\":7996:8025   */\n      swap1\n      pop\n        /* \"#utility.yul\":7847:8031   */\n      swap3\n      swap2\n      pop\n      pop\n      jump\t// out\n        /* \"#utility.yul\":8037:8169   */\n    tag_169:\n        /* \"#utility.yul\":8104:8108   */\n      0x00\n        /* \"#utility.yul\":8127:8130   */\n      dup2\n        /* \"#utility.yul\":8119:8130   */\n      swap1\n      pop\n        /* \"#utility.yul\":8157:8161   */\n      0x20\n        /* \"#utility.yul\":8152:8155   */\n      dup3\n        /* \"#utility.yul\":8148:8162   */\n      add\n        /* \"#utility.yul\":8140:8162   */\n      swap1\n      pop\n        /* \"#utility.yul\":8037:8169   */\n      swap2\n      swap1\n      pop\n      jump\t// out\n        /* \"#utility.yul\":8175:8283   */\n    tag_170:\n        /* \"#utility.yul\":8252:8276   */\n      tag_267\n        /* \"#utility.yul\":8270:8275   */\n      dup2\n        /* \"#utility.yul\":8252:8276   */\n      tag_147\n      jump\t// in\n    tag_267:\n        /* \"#utility.yul\":8247:8250   */\n      dup3\n        /* \"#utility.yul\":8240:8277   */\n      mstore\n        /* \"#utility.yul\":8175:8283   */\n      pop\n      pop\n      jump\t// out\n        /* \"#utility.yul\":8289:8468   */\n    tag_171:\n        /* \"#utility.yul\":8358:8368   */\n      0x00\n        /* \"#utility.yul\":8379:8425   */\n      tag_269\n        /* \"#utility.yul\":8421:8424   */\n      dup4\n        /* \"#utility.yul\":8413:8419   */\n      dup4\n        /* \"#utility.yul\":8379:8425   */\n      tag_170\n      jump\t// in\n    tag_269:\n        /* \"#utility.yul\":8457:8461   */\n      0x20\n        /* \"#utility.yul\":8452:8455   */\n      dup4\n        /* \"#utility.yul\":8448:8462   */\n      add\n        /* \"#utility.yul\":8434:8462   */\n      swap1\n      pop\n        /* \"#utility.yul\":8289:8468   */\n      swap3\n      swap2\n      pop\n      pop\n      jump\t// out\n        /* \"#utility.yul\":8474:8587   */\n    tag_172:\n        /* \"#utility.yul\":8544:8548   */\n      0x00\n        /* \"#utility.yul\":8576:8580   */\n      0x20\n        /* \"#utility.yul\":8571:8574   */\n      dup3\n        /* \"#utility.yul\":8567:8581   */\n      add\n        /* \"#utility.yul\":8559:8581   */\n      swap1\n      pop\n        /* \"#utility.yul\":8474:8587   */\n      swap2\n      swap1\n      pop\n      jump\t// out\n        /* \"#utility.yul\":8623:9355   */\n    tag_173:\n        /* \"#utility.yul\":8742:8745   */\n      0x00\n        /* \"#utility.yul\":8771:8825   */\n      tag_272\n        /* \"#utility.yul\":8819:8824   */\n      dup3\n        /* \"#utility.yul\":8771:8825   */\n      tag_167\n      jump\t// in\n    tag_272:\n        /* \"#utility.yul\":8841:8927   */\n      tag_273\n        /* \"#utility.yul\":8920:8926   */\n      dup2\n        /* \"#utility.yul\":8915:8918   */\n      dup6\n        /* \"#utility.yul\":8841:8927   */\n      tag_168\n      jump\t// in\n    tag_273:\n        /* \"#utility.yul\":8834:8927   */\n      swap4\n      pop\n        /* \"#utility.yul\":8951:9007   */\n      tag_274\n        /* \"#utility.yul\":9001:9006   */\n      dup4\n        /* \"#utility.yul\":8951:9007   */\n      tag_169\n      jump\t// in\n    tag_274:\n        /* \"#utility.yul\":9030:9037   */\n      dup1\n        /* \"#utility.yul\":9061:9062   */\n      0x00\n        /* \"#utility.yul\":9046:9330   */\n    tag_275:\n        /* \"#utility.yul\":9071:9077   */\n      dup4\n        /* \"#utility.yul\":9068:9069   */\n      dup2\n        /* \"#utility.yul\":9065:9078   */\n      lt\n        /* \"#utility.yul\":9046:9330   */\n      iszero\n      tag_277\n      jumpi\n        /* \"#utility.yul\":9147:9153   */\n      dup2\n        /* \"#utility.yul\":9141:9154   */\n      mload\n        /* \"#utility.yul\":9174:9237   */\n      tag_278\n        /* \"#utility.yul\":9233:9236   */\n      dup9\n        /* \"#utility.yul\":9218:9231   */\n      dup3\n        /* \"#utility.yul\":9174:9237   */\n      tag_171\n      jump\t// in\n    tag_278:\n        /* \"#utility.yul\":9167:9237   */\n      swap8\n      pop\n        /* \"#utility.yul\":9260:9320   */\n      tag_279\n        /* \"#utility.yul\":9313:9319   */\n      dup4\n        /* \"#utility.yul\":9260:9320   */\n      tag_172\n      jump\t// in\n    tag_279:\n        /* \"#utility.yul\":9250:9320   */\n      swap3\n      pop\n        /* \"#utility.yul\":9106:9330   */\n      pop\n        /* \"#utility.yul\":9093:9094   */\n      0x01\n        /* \"#utility.yul\":9090:9091   */\n      dup2\n        /* \"#utility.yul\":9086:9095   */\n      add\n        /* \"#utility.yul\":9081:9095   */\n      swap1\n      pop\n        /* \"#utility.yul\":9046:9330   */\n      jump(tag_275)\n    tag_277:\n        /* \"#utility.yul\":9050:9064   */\n      pop\n        /* \"#utility.yul\":9346:9349   */\n      dup6\n        /* \"#utility.yul\":9339:9349   */\n      swap4\n      pop\n        /* \"#utility.yul\":8747:9355   */\n      pop\n      pop\n      pop\n        /* \"#utility.yul\":8623:9355   */\n      swap3\n      swap2\n      pop\n      pop\n      jump\t// out\n        /* \"#utility.yul\":9361:9734   */\n    tag_30:\n        /* \"#utility.yul\":9504:9508   */\n      0x00\n        /* \"#utility.yul\":9542:9544   */\n      0x20\n        /* \"#utility.yul\":9531:9540   */\n      dup3\n        /* \"#utility.yul\":9527:9545   */\n      add\n        /* \"#utility.yul\":9519:9545   */\n      swap1\n      pop\n        /* \"#utility.yul\":9591:9600   */\n      dup2\n        /* \"#utility.yul\":9585:9589   */\n      dup2\n        /* \"#utility.yul\":9581:9601   */\n      sub\n        /* \"#utility.yul\":9577:9578   */\n      0x00\n        /* \"#utility.yul\":9566:9575   */\n      dup4\n        /* \"#utility.yul\":9562:9579   */\n      add\n        /* \"#utility.yul\":9555:9602   */\n      mstore\n        /* \"#utility.yul\":9619:9727   */\n      tag_281\n        /* \"#utility.yul\":9722:9726   */\n      dup2\n        /* \"#utility.yul\":9713:9719   */\n      dup5\n        /* \"#utility.yul\":9619:9727   */\n      tag_173\n      jump\t// in\n    tag_281:\n        /* \"#utility.yul\":9611:9727   */\n      swap1\n      pop\n        /* \"#utility.yul\":9361:9734   */\n      swap3\n      swap2\n      pop\n      pop\n      jump\t// out\n        /* \"#utility.yul\":9754:10307   */\n    tag_174:\n        /* \"#utility.yul\":9812:9820   */\n      0x00\n        /* \"#utility.yul\":9822:9828   */\n      0x00\n        /* \"#utility.yul\":9872:9875   */\n      dup4\n        /* \"#utility.yul\":9865:9869   */\n      0x1f\n        /* \"#utility.yul\":9857:9863   */\n      dup5\n        /* \"#utility.yul\":9853:9870   */\n      add\n        /* \"#utility.yul\":9849:9876   */\n      slt\n        /* \"#utility.yul\":9839:9961   */\n      tag_283\n      jumpi\n        /* \"#utility.yul\":9880:9959   */\n      tag_284\n      tag_155\n      jump\t// in\n    tag_284:\n        /* \"#utility.yul\":9839:9961   */\n    tag_283:\n        /* \"#utility.yul\":9993:9999   */\n      dup3\n        /* \"#utility.yul\":9980:10000   */\n      calldataload\n        /* \"#utility.yul\":9970:10000   */\n      swap1\n      pop\n        /* \"#utility.yul\":10023:10041   */\n      0xffffffffffffffff\n        /* \"#utility.yul\":10015:10021   */\n      dup2\n        /* \"#utility.yul\":10012:10042   */\n      gt\n        /* \"#utility.yul\":10009:10126   */\n      iszero\n      tag_285\n      jumpi\n        /* \"#utility.yul\":10045:10124   */\n      tag_286\n      tag_156\n      jump\t// in\n    tag_286:\n        /* \"#utility.yul\":10009:10126   */\n    tag_285:\n        /* \"#utility.yul\":10159:10163   */\n      0x20\n        /* \"#utility.yul\":10151:10157   */\n      dup4\n        /* \"#utility.yul\":10147:10164   */\n      add\n        /* \"#utility.yul\":10135:10164   */\n      swap2\n      pop\n        /* \"#utility.yul\":10213:10216   */\n      dup4\n        /* \"#utility.yul\":10205:10209   */\n      0x01\n        /* \"#utility.yul\":10197:10203   */\n      dup3\n        /* \"#utility.yul\":10193:10210   */\n      mul\n        /* \"#utility.yul\":10183:10191   */\n      dup4\n        /* \"#utility.yul\":10179:10211   */\n      add\n        /* \"#utility.yul\":10176:10217   */\n      gt\n        /* \"#utility.yul\":10173:10301   */\n      iszero\n      tag_287\n      jumpi\n        /* \"#utility.yul\":10220:10299   */\n      tag_288\n      tag_157\n      jump\t// in\n    tag_288:\n        /* \"#utility.yul\":10173:10301   */\n    tag_287:\n        /* \"#utility.yul\":9754:10307   */\n      swap3\n      pop\n      swap3\n      swap1\n      pop\n      jump\t// out\n        /* \"#utility.yul\":10313:10842   */\n    tag_33:\n        /* \"#utility.yul\":10384:10390   */\n      0x00\n        /* \"#utility.yul\":10392:10398   */\n      0x00\n        /* \"#utility.yul\":10441:10443   */\n      0x20\n        /* \"#utility.yul\":10429:10438   */\n      dup4\n        /* \"#utility.yul\":10420:10427   */\n      dup6\n        /* \"#utility.yul\":10416:10439   */\n      sub\n        /* \"#utility.yul\":10412:10444   */\n      slt\n        /* \"#utility.yul\":10409:10528   */\n      iszero\n      tag_290\n      jumpi\n        /* \"#utility.yul\":10447:10526   */\n      tag_291\n      tag_145\n      jump\t// in\n    tag_291:\n        /* \"#utility.yul\":10409:10528   */\n    tag_290:\n        /* \"#utility.yul\":10595:10596   */\n      0x00\n        /* \"#utility.yul\":10584:10593   */\n      dup4\n        /* \"#utility.yul\":10580:10597   */\n      add\n        /* \"#utility.yul\":10567:10598   */\n      calldataload\n        /* \"#utility.yul\":10625:10643   */\n      0xffffffffffffffff\n        /* \"#utility.yul\":10617:10623   */\n      dup2\n        /* \"#utility.yul\":10614:10644   */\n      gt\n        /* \"#utility.yul\":10611:10728   */\n      iszero\n      tag_292\n      jumpi\n        /* \"#utility.yul\":10647:10726   */\n      tag_293\n      tag_146\n      jump\t// in\n    tag_293:\n        /* \"#utility.yul\":10611:10728   */\n    tag_292:\n        /* \"#utility.yul\":10760:10825   */\n      tag_294\n        /* \"#utility.yul\":10817:10824   */\n      dup6\n        /* \"#utility.yul\":10808:10814   */\n      dup3\n        /* \"#utility.yul\":10797:10806   */\n      dup7\n        /* \"#utility.yul\":10793:10815   */\n      add\n        /* \"#utility.yul\":10760:10825   */\n      tag_174\n      jump\t// in\n    tag_294:\n        /* \"#utility.yul\":10742:10825   */\n      swap3\n      pop\n      swap3\n      pop\n        /* \"#utility.yul\":10538:10835   */\n      pop\n        /* \"#utility.yul\":10313:10842   */\n      swap3\n      pop\n      swap3\n      swap1\n      pop\n      jump\t// out\n        /* \"#utility.yul\":10848:11028   */\n    tag_41:\n        /* \"#utility.yul\":10896:10973   */\n      0x4e487b7100000000000000000000000000000000000000000000000000000000\n        /* \"#utility.yul\":10893:10894   */\n      0x00\n        /* \"#utility.yul\":10886:10974   */\n      mstore\n        /* \"#utility.yul\":10993:10997   */\n      0x32\n        /* \"#utility.yul\":10990:10991   */\n      0x04\n        /* \"#utility.yul\":10983:10998   */\n      mstore\n        /* \"#utility.yul\":11017:11021   */\n      0x24\n        /* \"#utility.yul\":11014:11015   */\n      0x00\n        /* \"#utility.yul\":11007:11022   */\n      revert\n        /* \"#utility.yul\":11034:11214   */\n    tag_175:\n        /* \"#utility.yul\":11082:11159   */\n      0x4e487b7100000000000000000000000000000000000000000000000000000000\n        /* \"#utility.yul\":11079:11080   */\n      0x00\n        /* \"#utility.yul\":11072:11160   */\n      mstore\n        /* \"#utility.yul\":11179:11183   */\n      0x11\n        /* \"#utility.yul\":11176:11177   */\n      0x04\n        /* \"#utility.yul\":11169:11184   */\n      mstore\n        /* \"#utility.yul\":11203:11207   */\n      0x24\n        /* \"#utility.yul\":11200:11201   */\n      0x00\n        /* \"#utility.yul\":11193:11208   */\n      revert\n        /* \"#utility.yul\":11220:11414   */\n    tag_44:\n        /* \"#utility.yul\":11260:11264   */\n      0x00\n        /* \"#utility.yul\":11280:11300   */\n      tag_298\n        /* \"#utility.yul\":11298:11299   */\n      dup3\n        /* \"#utility.yul\":11280:11300   */\n      tag_147\n      jump\t// in\n    tag_298:\n        /* \"#utility.yul\":11275:11300   */\n      swap2\n      pop\n        /* \"#utility.yul\":11314:11334   */\n      tag_299\n        /* \"#utility.yul\":11332:11333   */\n      dup4\n        /* \"#utility.yul\":11314:11334   */\n      tag_147\n      jump\t// in\n    tag_299:\n        /* \"#utility.yul\":11309:11334   */\n      swap3\n      pop\n        /* \"#utility.yul\":11358:11359   */\n      dup3\n        /* \"#utility.yul\":11355:11356   */\n      dup3\n        /* \"#utility.yul\":11351:11360   */\n      sub\n        /* \"#utility.yul\":11343:11360   */\n      swap1\n      pop\n        /* \"#utility.yul\":11382:11383   */\n      dup2\n        /* \"#utility.yul\":11376:11380   */\n      dup2\n        /* \"#utility.yul\":11373:11384   */\n      gt\n        /* \"#utility.yul\":11370:11407   */\n      iszero\n      tag_300\n      jumpi\n        /* \"#utility.yul\":11387:11405   */\n      tag_301\n      tag_175\n      jump\t// in\n    tag_301:\n        /* \"#utility.yul\":11370:11407   */\n    tag_300:\n        /* \"#utility.yul\":11220:11414   */\n      swap3\n      swap2\n      pop\n      pop\n      jump\t// out\n        /* \"#utility.yul\":11420:11568   */\n    tag_176:\n        /* \"#utility.yul\":11522:11533   */\n      0x00\n        /* \"#utility.yul\":11559:11562   */\n      dup2\n        /* \"#utility.yul\":11544:11562   */\n      swap1\n      pop\n        /* \"#utility.yul\":11420:11568   */\n      swap3\n      swap2\n      pop\n      pop\n      jump\t// out\n        /* \"#utility.yul\":11574:11964   */\n    tag_177:\n        /* \"#utility.yul\":11680:11683   */\n      0x00\n        /* \"#utility.yul\":11708:11747   */\n      tag_304\n        /* \"#utility.yul\":11741:11746   */\n      dup3\n        /* \"#utility.yul\":11708:11747   */\n      tag_150\n      jump\t// in\n    tag_304:\n        /* \"#utility.yul\":11763:11852   */\n      tag_305\n        /* \"#utility.yul\":11845:11851   */\n      dup2\n        /* \"#utility.yul\":11840:11843   */\n      dup6\n        /* \"#utility.yul\":11763:11852   */\n      tag_176\n      jump\t// in\n    tag_305:\n        /* \"#utility.yul\":11756:11852   */\n      swap4\n      pop\n        /* \"#utility.yul\":11861:11926   */\n      tag_306\n        /* \"#utility.yul\":11919:11925   */\n      dup2\n        /* \"#utility.yul\":11914:11917   */\n      dup6\n        /* \"#utility.yul\":11907:11911   */\n      0x20\n        /* \"#utility.yul\":11900:11905   */\n      dup7\n        /* \"#utility.yul\":11896:11912   */\n      add\n        /* \"#utility.yul\":11861:11926   */\n      tag_152\n      jump\t// in\n    tag_306:\n        /* \"#utility.yul\":11951:11957   */\n      dup1\n        /* \"#utility.yul\":11946:11949   */\n      dup5\n        /* \"#utility.yul\":11942:11958   */\n      add\n        /* \"#utility.yul\":11935:11958   */\n      swap2\n      pop\n        /* \"#utility.yul\":11684:11964   */\n      pop\n        /* \"#utility.yul\":11574:11964   */\n      swap3\n      swap2\n      pop\n      pop\n      jump\t// out\n        /* \"#utility.yul\":11970:12405   */\n    tag_48:\n        /* \"#utility.yul\":12150:12153   */\n      0x00\n        /* \"#utility.yul\":12172:12267   */\n      tag_308\n        /* \"#utility.yul\":12263:12266   */\n      dup3\n        /* \"#utility.yul\":12254:12260   */\n      dup6\n        /* \"#utility.yul\":12172:12267   */\n      tag_177\n      jump\t// in\n    tag_308:\n        /* \"#utility.yul\":12165:12267   */\n      swap2\n      pop\n        /* \"#utility.yul\":12284:12379   */\n      tag_309\n        /* \"#utility.yul\":12375:12378   */\n      dup3\n        /* \"#utility.yul\":12366:12372   */\n      dup5\n        /* \"#utility.yul\":12284:12379   */\n      tag_177\n      jump\t// in\n    tag_309:\n        /* \"#utility.yul\":12277:12379   */\n      swap2\n      pop\n        /* \"#utility.yul\":12396:12399   */\n      dup2\n        /* \"#utility.yul\":12389:12399   */\n      swap1\n      pop\n        /* \"#utility.yul\":11970:12405   */\n      swap4\n      swap3\n      pop\n      pop\n      pop\n      jump\t// out\n        /* \"#utility.yul\":12411:12644   */\n    tag_51:\n        /* \"#utility.yul\":12450:12453   */\n      0x00\n        /* \"#utility.yul\":12473:12497   */\n      tag_311\n        /* \"#utility.yul\":12491:12496   */\n      dup3\n        /* \"#utility.yul\":12473:12497   */\n      tag_147\n      jump\t// in\n    tag_311:\n        /* \"#utility.yul\":12464:12497   */\n      swap2\n      pop\n        /* \"#utility.yul\":12519:12585   */\n      0xffffffffffffffffffffffffffffffffffffffffffffffffffffffffffffffff\n        /* \"#utility.yul\":12512:12517   */\n      dup3\n        /* \"#utility.yul\":12509:12586   */\n      sub\n        /* \"#utility.yul\":12506:12609   */\n      tag_312\n      jumpi\n        /* \"#utility.yul\":12589:12607   */\n      tag_313\n      tag_175\n      jump\t// in\n    tag_313:\n        /* \"#utility.yul\":12506:12609   */\n    tag_312:\n        /* \"#utility.yul\":12636:12637   */\n      0x01\n        /* \"#utility.yul\":12629:12634   */\n      dup3\n        /* \"#utility.yul\":12625:12638   */\n      add\n        /* \"#utility.yul\":12618:12638   */\n      swap1\n      pop\n        /* \"#utility.yul\":12411:12644   */\n      swap2\n      swap1\n      pop\n      jump\t// out\n        /* \"#utility.yul\":12650:12841   */\n    tag_64:\n        /* \"#utility.yul\":12690:12693   */\n      0x00\n        /* \"#utility.yul\":12709:12729   */\n      tag_315\n        /* \"#utility.yul\":12727:12728   */\n      dup3\n        /* \"#utility.yul\":12709:12729   */\n      tag_147\n      jump\t// in\n    tag_315:\n        /* \"#utility.yul\":12704:12729   */\n      swap2\n      pop\n        /* \"#utility.yul\":12743:12763   */\n      tag_316\n        /* \"#utility.yul\":12761:12762   */\n      dup4\n        /* \"#utility.yul\":12743:12763   */\n      tag_147\n      jump\t// in\n    tag_316:\n        /* \"#utility.yul\":12738:12763   */\n      swap3\n      pop\n        /* \"#utility.yul\":12786:12787   */\n      dup3\n        /* \"#utility.yul\":12783:12784   */\n      dup3\n        /* \"#utility.yul\":12779:12788   */\n      add\n        /* \"#utility.yul\":12772:12788   */\n      swap1\n      pop\n        /* \"#utility.yul\":12807:12810   */\n      dup1\n        /* \"#utility.yul\":12804:12805   */\n      dup3\n        /* \"#utility.yul\":12801:12811   */\n      gt\n        /* \"#utility.yul\":12798:12834   */\n      iszero\n      tag_317\n      jumpi\n        /* \"#utility.yul\":12814:12832   */\n      tag_318\n      tag_175\n      jump\t// in\n    tag_318:\n        /* \"#utility.yul\":12798:12834   */\n    tag_317:\n        /* \"#utility.yul\":12650:12841   */\n      swap3\n      swap2\n      pop\n      pop\n      jump\t// out\n\n    auxdata: 0xa264697066735822122023823f201d846dbbda169415068cc5cd75fca79ebdd6ac9a06568fd2943676f664736f6c634300081e0033\n}\n",
				"bytecode": {
					"linkReferences": {},
					"object": "6080604052348015600e575f5ffd5b506113578061001c5f395ff3fe608060405234801561000f575f5ffd5b5060043610610055575f3560e01c80630cbc513a14610059578063b12601da14610089578063cb159dfe146100b9578063de948709146100e9578063f3582c6914610119575b5f5ffd5b610073600480360381019061006e9190610cb8565b610149565b6040516100809190610d53565b60405180910390f35b6100a3600480360381019061009e9190610dd4565b610562565b6040516100b09190610e40565b60405180910390f35b6100d360048036038101906100ce9190610f81565b610572565b6040516100e09190610e40565b60405180910390f35b61010360048036038101906100fe9190610fc8565b610692565b60405161011091906110fd565b60405180910390f35b610133600480360381019061012e9190611172565b6108cf565b6040516101409190610d53565b60405180910390f35b60605f604051806101a001604052806103e8815260200161038481526020016101f48152602001610190815260200160648152602001605a81526020016032815260200160288152602001600a8152602001600981526020016005815260200160048152602001600181525090505f604051806101a001604052806040518060400160405280600181526020017f4d0000000000000000000000000000000000000000000000000000000000000081525081526020016040518060400160405280600281526020017f434d00000000000000000000000000000000000000000000000000000000000081525081526020016040518060400160405280600181526020017f440000000000000000000000000000000000000000000000000000000000000081525081526020016040518060400160405280600281526020017f434400000000000000000000000000000000000000000000000000000000000081525081526020016040518060400160405280600181526020017f430000000000000000000000000000000000000000000000000000000000000081525081526020016040518060400160405280600281526020017f584300000000000000000000000000000000000000000000000000000000000081525081526020016040518060400160405280600181526020017f4c0000000000000000000000000000000000000000000000000000000000000081525081526020016040518060400160405280600281526020017f584c00000000000000000000000000000000000000000000000000000000000081525081526020016040518060400160405280600181526020017f580000000000000000000000000000000000000000000000000000000000000081525081526020016040518060400160405280600281526020017f495800000000000000000000000000000000000000000000000000000000000081525081526020016040518060400160405280600181526020017f560000000000000000000000000000000000000000000000000000000000000081525081526020016040518060400160405280600281526020017f495600000000000000000000000000000000000000000000000000000000000081525081526020016040518060400160405280600181526020017f4900000000000000000000000000000000000000000000000000000000000000815250815250905060605f5f90505b5f8614610556575f8482600d81106104e5576104e46111bd565b5b602002015190508087106105415780876104ff9190611217565b9650828483600d8110610515576105146111bd565b5b602002015160405160200161052b929190611284565b6040516020818303038152906040529250610550565b818061054c906112a7565b9250505b506104ca565b81945050505050919050565b5f5f848490509050509392505050565b5f5f8290505f5f90505f825190505f5f90505b81811015610686575f6105b48583815181106105a4576105a36111bd565b5b602001015160f81c60f81b610a2a565b90506001836105c39190611217565b82036105dd5780846105d591906112ee565b935050610686565b5f610610866001856105ef91906112ee565b81518110610600576105ff6111bd565b5b602001015160f81c60f81b610a2a565b905080821015610662578185101561064e57818161062e9190611217565b8561063991906112ee565b94508280610646906112a7565b93505061065d565b818561065a9190611217565b94505b610671565b818561066e91906112ee565b94505b5050808061067e906112a7565b915050610585565b50819350505050919050565b60605f8585905090505f8484905090505f81836106af91906112ee565b67ffffffffffffffff8111156106c8576106c7610e5d565b5b6040519080825280602002602001820160405280156106f65781602001602082028036833780820191505090505b5090505f5f90505f5f90505f5f90505b858310801561071457508482105b156108005788888381811061072c5761072b6111bd565b5b905060200201358b8b85818110610746576107456111bd565b5b9050602002013510156107a9578a8a8480610760906112a7565b9550818110610772576107716111bd565b5b90506020020135848280610785906112a7565b935081518110610798576107976111bd565b5b6020026020010181815250506107fb565b888883806107b6906112a7565b94508181106107c8576107c76111bd565b5b905060200201358482806107db906112a7565b9350815181106107ee576107ed6111bd565b5b6020026020010181815250505b610706565b5b8583101561085f578a8a8480610816906112a7565b9550818110610828576108276111bd565b5b9050602002013584828061083b906112a7565b93508151811061084e5761084d6111bd565b5b602002602001018181525050610801565b5b848210156108be5788888380610875906112a7565b9450818110610887576108866111bd565b5b9050602002013584828061089a906112a7565b9350815181106108ad576108ac6111bd565b5b602002602001018181525050610860565b839650505050505050949350505050565b60605f83838080601f0160208091040260200160405190810160405280939291908181526020018383808284375f81840152601f19601f8201169050808301925050505050505090505f815190505f810361093c5760405180602001604052805f81525092505050610a24565b5f8167ffffffffffffffff81111561095757610956610e5d565b5b6040519080825280601f01601f1916602001820160405280156109895781602001600182028036833780820191505090505b5090505f5f90505b82811015610a1c5783816001856109a89190611217565b6109b29190611217565b815181106109c3576109c26111bd565b5b602001015160f81c60f81b8282815181106109e1576109e06111bd565b5b60200101907effffffffffffffffffffffffffffffffffffffffffffffffffffffffffffff191690815f1a9053508080600101915050610991565b508093505050505b92915050565b5f7f4900000000000000000000000000000000000000000000000000000000000000827effffffffffffffffffffffffffffffffffffffffffffffffffffffffffffff191603610a7d5760019050610c6f565b7f5600000000000000000000000000000000000000000000000000000000000000827effffffffffffffffffffffffffffffffffffffffffffffffffffffffffffff191603610acf5760059050610c6f565b7f5800000000000000000000000000000000000000000000000000000000000000827effffffffffffffffffffffffffffffffffffffffffffffffffffffffffffff191603610b2157600a9050610c6f565b7f4c00000000000000000000000000000000000000000000000000000000000000827effffffffffffffffffffffffffffffffffffffffffffffffffffffffffffff191603610b735760329050610c6f565b7f4300000000000000000000000000000000000000000000000000000000000000827effffffffffffffffffffffffffffffffffffffffffffffffffffffffffffff191603610bc55760649050610c6f565b7f4400000000000000000000000000000000000000000000000000000000000000827effffffffffffffffffffffffffffffffffffffffffffffffffffffffffffff191603610c18576101f49050610c6f565b7f4d00000000000000000000000000000000000000000000000000000000000000827effffffffffffffffffffffffffffffffffffffffffffffffffffffffffffff191603610c6b576103e89050610c6f565b5f90505b919050565b5f604051905090565b5f5ffd5b5f5ffd5b5f819050919050565b610c9781610c85565b8114610ca1575f5ffd5b50565b5f81359050610cb281610c8e565b92915050565b5f60208284031215610ccd57610ccc610c7d565b5b5f610cda84828501610ca4565b91505092915050565b5f81519050919050565b5f82825260208201905092915050565b8281835e5f83830152505050565b5f601f19601f8301169050919050565b5f610d2582610ce3565b610d2f8185610ced565b9350610d3f818560208601610cfd565b610d4881610d0b565b840191505092915050565b5f6020820190508181035f830152610d6b8184610d1b565b905092915050565b5f5ffd5b5f5ffd5b5f5ffd5b5f5f83601f840112610d9457610d93610d73565b5b8235905067ffffffffffffffff811115610db157610db0610d77565b5b602083019150836020820283011115610dcd57610dcc610d7b565b5b9250929050565b5f5f5f60408486031215610deb57610dea610c7d565b5b5f84013567ffffffffffffffff811115610e0857610e07610c81565b5b610e1486828701610d7f565b93509350506020610e2786828701610ca4565b9150509250925092565b610e3a81610c85565b82525050565b5f602082019050610e535f830184610e31565b92915050565b5f5ffd5b7f4e487b71000000000000000000000000000000000000000000000000000000005f52604160045260245ffd5b610e9382610d0b565b810181811067ffffffffffffffff82111715610eb257610eb1610e5d565b5b80604052505050565b5f610ec4610c74565b9050610ed08282610e8a565b919050565b5f67ffffffffffffffff821115610eef57610eee610e5d565b5b610ef882610d0b565b9050602081019050919050565b828183375f83830152505050565b5f610f25610f2084610ed5565b610ebb565b905082815260208101848484011115610f4157610f40610e59565b5b610f4c848285610f05565b509392505050565b5f82601f830112610f6857610f67610d73565b5b8135610f78848260208601610f13565b91505092915050565b5f60208284031215610f9657610f95610c7d565b5b5f82013567ffffffffffffffff811115610fb357610fb2610c81565b5b610fbf84828501610f54565b91505092915050565b5f5f5f5f60408587031215610fe057610fdf610c7d565b5b5f85013567ffffffffffffffff811115610ffd57610ffc610c81565b5b61100987828801610d7f565b9450945050602085013567ffffffffffffffff81111561102c5761102b610c81565b5b61103887828801610d7f565b925092505092959194509250565b5f81519050919050565b5f82825260208201905092915050565b5f819050602082019050919050565b61107881610c85565b82525050565b5f611089838361106f565b60208301905092915050565b5f602082019050919050565b5f6110ab82611046565b6110b58185611050565b93506110c083611060565b805f5b838110156110f05781516110d7888261107e565b97506110e283611095565b9250506001810190506110c3565b5085935050505092915050565b5f6020820190508181035f83015261111581846110a1565b905092915050565b5f5f83601f84011261113257611131610d73565b5b8235905067ffffffffffffffff81111561114f5761114e610d77565b5b60208301915083600182028301111561116b5761116a610d7b565b5b9250929050565b5f5f6020838503121561118857611187610c7d565b5b5f83013567ffffffffffffffff8111156111a5576111a4610c81565b5b6111b18582860161111d565b92509250509250929050565b7f4e487b71000000000000000000000000000000000000000000000000000000005f52603260045260245ffd5b7f4e487b71000000000000000000000000000000000000000000000000000000005f52601160045260245ffd5b5f61122182610c85565b915061122c83610c85565b9250828203905081811115611244576112436111ea565b5b92915050565b5f81905092915050565b5f61125e82610ce3565b611268818561124a565b9350611278818560208601610cfd565b80840191505092915050565b5f61128f8285611254565b915061129b8284611254565b91508190509392505050565b5f6112b182610c85565b91507fffffffffffffffffffffffffffffffffffffffffffffffffffffffffffffffff82036112e3576112e26111ea565b5b600182019050919050565b5f6112f882610c85565b915061130383610c85565b925082820190508082111561131b5761131a6111ea565b5b9291505056fea264697066735822122023823f201d846dbbda169415068cc5cd75fca79ebdd6ac9a06568fd2943676f664736f6c634300081e0033",
					"opcodes": "PUSH1 0x80 PUSH1 0x40 MSTORE CALLVALUE DUP1 ISZERO PUSH1 0xE JUMPI PUSH0 PUSH0 REVERT JUMPDEST POP PUSH2 0x1357 DUP1 PUSH2 0x1C PUSH0 CODECOPY PUSH0 RETURN INVALID PUSH1 0x80 PUSH1 0x40 MSTORE CALLVALUE DUP1 ISZERO PUSH2 0xF JUMPI PUSH0 PUSH0 REVERT JUMPDEST POP PUSH1 0x4 CALLDATASIZE LT PUSH2 0x55 JUMPI PUSH0 CALLDATALOAD PUSH1 0xE0 SHR DUP1 PUSH4 0xCBC513A EQ PUSH2 0x59 JUMPI DUP1 PUSH4 0xB12601DA EQ PUSH2 0x89 JUMPI DUP1 PUSH4 0xCB159DFE EQ PUSH2 0xB9 JUMPI DUP1 PUSH4 0xDE948709 EQ PUSH2 0xE9 JUMPI DUP1 PUSH4 0xF3582C69 EQ PUSH2 0x119 JUMPI JUMPDEST PUSH0 PUSH0 REVERT JUMPDEST PUSH2 0x73 PUSH1 0x4 DUP1 CALLDATASIZE SUB DUP2 ADD SWAP1 PUSH2 0x6E SWAP2 SWAP1 PUSH2 0xCB8 JUMP JUMPDEST PUSH2 0x149 JUMP JUMPDEST PUSH1 0x40 MLOAD PUSH2 0x80 SWAP2 SWAP1 PUSH2 0xD53 JUMP JUMPDEST PUSH1 0x40 MLOAD DUP1 SWAP2 SUB SWAP1 RETURN JUMPDEST PUSH2 0xA3 PUSH1 0x4 DUP1 CALLDATASIZE SUB DUP2 ADD SWAP1 PUSH2 0x9E SWAP2 SWAP1 PUSH2 0xDD4 JUMP JUMPDEST PUSH2 0x562 JUMP JUMPDEST PUSH1 0x40 MLOAD PUSH2 0xB0 SWAP2 SWAP1 PUSH2 0xE40 JUMP JUMPDEST PUSH1 0x40 MLOAD DUP1 SWAP2 SUB SWAP1 RETURN JUMPDEST PUSH2 0xD3 PUSH1 0x4 DUP1 CALLDATASIZE SUB DUP2 ADD SWAP1 PUSH2 0xCE SWAP2 SWAP1 PUSH2 0xF81 JUMP JUMPDEST PUSH2 0x572 JUMP JUMPDEST PUSH1 0x40 MLOAD PUSH2 0xE0 SWAP2 SWAP1 PUSH2 0xE40 JUMP JUMPDEST PUSH1 0x40 MLOAD DUP1 SWAP2 SUB SWAP1 RETURN JUMPDEST PUSH2 0x103 PUSH1 0x4 DUP1 CALLDATASIZE SUB DUP2 ADD SWAP1 PUSH2 0xFE SWAP2 SWAP1 PUSH2 0xFC8 JUMP JUMPDEST PUSH2 0x692 JUMP JUMPDEST PUSH1 0x40 MLOAD PUSH2 0x110 SWAP2 SWAP1 PUSH2 0x10FD JUMP JUMPDEST PUSH1 0x40 MLOAD DUP1 SWAP2 SUB SWAP1 RETURN JUMPDEST PUSH2 0x133 PUSH1 0x4 DUP1 CALLDATASIZE SUB DUP2 ADD SWAP1 PUSH2 0x12E SWAP2 SWAP1 PUSH2 0x1172 JUMP JUMPDEST PUSH2 0x8CF JUMP JUMPDEST PUSH1 0x40 MLOAD PUSH2 0x140 SWAP2 SWAP1 PUSH2 0xD53 JUMP JUMPDEST PUSH1 0x40 MLOAD DUP1 SWAP2 SUB SWAP1 RETURN JUMPDEST PUSH1 0x60 PUSH0 PUSH1 0x40 MLOAD DUP1 PUSH2 0x1A0 ADD PUSH1 0x40 MSTORE DUP1 PUSH2 0x3E8 DUP2 MSTORE PUSH1 0x20 ADD PUSH2 0x384 DUP2 MSTORE PUSH1 0x20 ADD PUSH2 0x1F4 DUP2 MSTORE PUSH1 0x20 ADD PUSH2 0x190 DUP2 MSTORE PUSH1 0x20 ADD PUSH1 0x64 DUP2 MSTORE PUSH1 0x20 ADD PUSH1 0x5A DUP2 MSTORE PUSH1 0x20 ADD PUSH1 0x32 DUP2 MSTORE PUSH1 0x20 ADD PUSH1 0x28 DUP2 MSTORE PUSH1 0x20 ADD PUSH1 0xA DUP2 MSTORE PUSH1 0x20 ADD PUSH1 0x9 DUP2 MSTORE PUSH1 0x20 ADD PUSH1 0x5 DUP2 MSTORE PUSH1 0x20 ADD PUSH1 0x4 DUP2 MSTORE PUSH1 0x20 ADD PUSH1 0x1 DUP2 MSTORE POP SWAP1 POP PUSH0 PUSH1 0x40 MLOAD DUP1 PUSH2 0x1A0 ADD PUSH1 0x40 MSTORE DUP1 PUSH1 0x40 MLOAD DUP1 PUSH1 0x40 ADD PUSH1 0x40 MSTORE DUP1 PUSH1 0x1 DUP2 MSTORE PUSH1 0x20 ADD PUSH32 0x4D00000000000000000000000000000000000000000000000000000000000000 DUP2 MSTORE POP DUP2 MSTORE PUSH1 0x20 ADD PUSH1 0x40 MLOAD DUP1 PUSH1 0x40 ADD PUSH1 0x40 MSTORE DUP1 PUSH1 0x2 DUP2 MSTORE PUSH1 0x20 ADD PUSH32 0x434D000000000000000000000000000000000000000000000000000000000000 DUP2 MSTORE POP DUP2 MSTORE PUSH1 0x20 ADD PUSH1 0x40 MLOAD DUP1 PUSH1 0x40 ADD PUSH1 0x40 MSTORE DUP1 PUSH1 0x1 DUP2 MSTORE PUSH1 0x20 ADD PUSH32 0x4400000000000000000000000000000000000000000000000000000000000000 DUP2 MSTORE POP DUP2 MSTORE PUSH1 0x20 ADD PUSH1 0x40 MLOAD DUP1 PUSH1 0x40 ADD PUSH1 0x40 MSTORE DUP1 PUSH1 0x2 DUP2 MSTORE PUSH1 0x20 ADD PUSH32 0x4344000000000000000000000000000000000000000000000000000000000000 DUP2 MSTORE POP DUP2 MSTORE PUSH1 0x20 ADD PUSH1 0x40 MLOAD DUP1 PUSH1 0x40 ADD PUSH1 0x40 MSTORE DUP1 PUSH1 0x1 DUP2 MSTORE PUSH1 0x20 ADD PUSH32 0x4300000000000000000000000000000000000000000000000000000000000000 DUP2 MSTORE POP DUP2 MSTORE PUSH1 0x20 ADD PUSH1 0x40 MLOAD DUP1 PUSH1 0x40 ADD PUSH1 0x40 MSTORE DUP1 PUSH1 0x2 DUP2 MSTORE PUSH1 0x20 ADD PUSH32 0x5843000000000000000000000000000000000000000000000000000000000000 DUP2 MSTORE POP DUP2 MSTORE PUSH1 0x20 ADD PUSH1 0x40 MLOAD DUP1 PUSH1 0x40 ADD PUSH1 0x40 MSTORE DUP1 PUSH1 0x1 DUP2 MSTORE PUSH1 0x20 ADD PUSH32 0x4C00000000000000000000000000000000000000000000000000000000000000 DUP2 MSTORE POP DUP2 MSTORE PUSH1 0x20 ADD PUSH1 0x40 MLOAD DUP1 PUSH1 0x40 ADD PUSH1 0x40 MSTORE DUP1 PUSH1 0x2 DUP2 MSTORE PUSH1 0x20 ADD PUSH32 0x584C000000000000000000000000000000000000000000000000000000000000 DUP2 MSTORE POP DUP2 MSTORE PUSH1 0x20 ADD PUSH1 0x40 MLOAD DUP1 PUSH1 0x40 ADD PUSH1 0x40 MSTORE DUP1 PUSH1 0x1 DUP2 MSTORE PUSH1 0x20 ADD PUSH32 0x5800000000000000000000000000000000000000000000000000000000000000 DUP2 MSTORE POP DUP2 MSTORE PUSH1 0x20 ADD PUSH1 0x40 MLOAD DUP1 PUSH1 0x40 ADD PUSH1 0x40 MSTORE DUP1 PUSH1 0x2 DUP2 MSTORE PUSH1 0x20 ADD PUSH32 0x4958000000000000000000000000000000000000000000000000000000000000 DUP2 MSTORE POP DUP2 MSTORE PUSH1 0x20 ADD PUSH1 0x40 MLOAD DUP1 PUSH1 0x40 ADD PUSH1 0x40 MSTORE DUP1 PUSH1 0x1 DUP2 MSTORE PUSH1 0x20 ADD PUSH32 0x5600000000000000000000000000000000000000000000000000000000000000 DUP2 MSTORE POP DUP2 MSTORE PUSH1 0x20 ADD PUSH1 0x40 MLOAD DUP1 PUSH1 0x40 ADD PUSH1 0x40 MSTORE DUP1 PUSH1 0x2 DUP2 MSTORE PUSH1 0x20 ADD PUSH32 0x4956000000000000000000000000000000000000000000000000000000000000 DUP2 MSTORE POP DUP2 MSTORE PUSH1 0x20 ADD PUSH1 0x40 MLOAD DUP1 PUSH1 0x40 ADD PUSH1 0x40 MSTORE DUP1 PUSH1 0x1 DUP2 MSTORE PUSH1 0x20 ADD PUSH32 0x4900000000000000000000000000000000000000000000000000000000000000 DUP2 MSTORE POP DUP2 MSTORE POP SWAP1 POP PUSH1 0x60 PUSH0 PUSH0 SWAP1 POP JUMPDEST PUSH0 DUP7 EQ PUSH2 0x556 JUMPI PUSH0 DUP5 DUP3 PUSH1 0xD DUP2 LT PUSH2 0x4E5 JUMPI PUSH2 0x4E4 PUSH2 0x11BD JUMP JUMPDEST JUMPDEST PUSH1 0x20 MUL ADD MLOAD SWAP1 POP DUP1 DUP8 LT PUSH2 0x541 JUMPI DUP1 DUP8 PUSH2 0x4FF SWAP2 SWAP1 PUSH2 0x1217 JUMP JUMPDEST SWAP7 POP DUP3 DUP5 DUP4 PUSH1 0xD DUP2 LT PUSH2 0x515 JUMPI PUSH2 0x514 PUSH2 0x11BD JUMP JUMPDEST JUMPDEST PUSH1 0x20 MUL ADD MLOAD PUSH1 0x40 MLOAD PUSH1 0x20 ADD PUSH2 0x52B SWAP3 SWAP2 SWAP1 PUSH2 0x1284 JUMP JUMPDEST PUSH1 0x40 MLOAD PUSH1 0x20 DUP2 DUP4 SUB SUB DUP2 MSTORE SWAP1 PUSH1 0x40 MSTORE SWAP3 POP PUSH2 0x550 JUMP JUMPDEST DUP2 DUP1 PUSH2 0x54C SWAP1 PUSH2 0x12A7 JUMP JUMPDEST SWAP3 POP POP JUMPDEST POP PUSH2 0x4CA JUMP JUMPDEST DUP2 SWAP5 POP POP POP POP POP SWAP2 SWAP1 POP JUMP JUMPDEST PUSH0 PUSH0 DUP5 DUP5 SWAP1 POP SWAP1 POP POP SWAP4 SWAP3 POP POP POP JUMP JUMPDEST PUSH0 PUSH0 DUP3 SWAP1 POP PUSH0 PUSH0 SWAP1 POP PUSH0 DUP3 MLOAD SWAP1 POP PUSH0 PUSH0 SWAP1 POP JUMPDEST DUP2 DUP2 LT ISZERO PUSH2 0x686 JUMPI PUSH0 PUSH2 0x5B4 DUP6 DUP4 DUP2 MLOAD DUP2 LT PUSH2 0x5A4 JUMPI PUSH2 0x5A3 PUSH2 0x11BD JUMP JUMPDEST JUMPDEST PUSH1 0x20 ADD ADD MLOAD PUSH1 0xF8 SHR PUSH1 0xF8 SHL PUSH2 0xA2A JUMP JUMPDEST SWAP1 POP PUSH1 0x1 DUP4 PUSH2 0x5C3 SWAP2 SWAP1 PUSH2 0x1217 JUMP JUMPDEST DUP3 SUB PUSH2 0x5DD JUMPI DUP1 DUP5 PUSH2 0x5D5 SWAP2 SWAP1 PUSH2 0x12EE JUMP JUMPDEST SWAP4 POP POP PUSH2 0x686 JUMP JUMPDEST PUSH0 PUSH2 0x610 DUP7 PUSH1 0x1 DUP6 PUSH2 0x5EF SWAP2 SWAP1 PUSH2 0x12EE JUMP JUMPDEST DUP2 MLOAD DUP2 LT PUSH2 0x600 JUMPI PUSH2 0x5FF PUSH2 0x11BD JUMP JUMPDEST JUMPDEST PUSH1 0x20 ADD ADD MLOAD PUSH1 0xF8 SHR PUSH1 0xF8 SHL PUSH2 0xA2A JUMP JUMPDEST SWAP1 POP DUP1 DUP3 LT ISZERO PUSH2 0x662 JUMPI DUP2 DUP6 LT ISZERO PUSH2 0x64E JUMPI DUP2 DUP2 PUSH2 0x62E SWAP2 SWAP1 PUSH2 0x1217 JUMP JUMPDEST DUP6 PUSH2 0x639 SWAP2 SWAP1 PUSH2 0x12EE JUMP JUMPDEST SWAP5 POP DUP3 DUP1 PUSH2 0x646 SWAP1 PUSH2 0x12A7 JUMP JUMPDEST SWAP4 POP POP PUSH2 0x65D JUMP JUMPDEST DUP2 DUP6 PUSH2 0x65A SWAP2 SWAP1 PUSH2 0x1217 JUMP JUMPDEST SWAP5 POP JUMPDEST PUSH2 0x671 JUMP JUMPDEST DUP2 DUP6 PUSH2 0x66E SWAP2 SWAP1 PUSH2 0x12EE JUMP JUMPDEST SWAP5 POP JUMPDEST POP POP DUP1 DUP1 PUSH2 0x67E SWAP1 PUSH2 0x12A7 JUMP JUMPDEST SWAP2 POP POP PUSH2 0x585 JUMP JUMPDEST POP DUP2 SWAP4 POP POP POP POP SWAP2 SWAP1 POP JUMP JUMPDEST PUSH1 0x60 PUSH0 DUP6 DUP6 SWAP1 POP SWAP1 POP PUSH0 DUP5 DUP5 SWAP1 POP SWAP1 POP PUSH0 DUP2 DUP4 PUSH2 0x6AF SWAP2 SWAP1 PUSH2 0x12EE JUMP JUMPDEST PUSH8 0xFFFFFFFFFFFFFFFF DUP2 GT ISZERO PUSH2 0x6C8 JUMPI PUSH2 0x6C7 PUSH2 0xE5D JUMP JUMPDEST JUMPDEST PUSH1 0x40 MLOAD SWAP1 DUP1 DUP3 MSTORE DUP1 PUSH1 0x20 MUL PUSH1 0x20 ADD DUP3 ADD PUSH1 0x40 MSTORE DUP1 ISZERO PUSH2 0x6F6 JUMPI DUP2 PUSH1 0x20 ADD PUSH1 0x20 DUP3 MUL DUP1 CALLDATASIZE DUP4 CALLDATACOPY DUP1 DUP3 ADD SWAP2 POP POP SWAP1 POP JUMPDEST POP SWAP1 POP PUSH0 PUSH0 SWAP1 POP PUSH0 PUSH0 SWAP1 POP PUSH0 PUSH0 SWAP1 POP JUMPDEST DUP6 DUP4 LT DUP1 ISZERO PUSH2 0x714 JUMPI POP DUP5 DUP3 LT JUMPDEST ISZERO PUSH2 0x800 JUMPI DUP9 DUP9 DUP4 DUP2 DUP2 LT PUSH2 0x72C JUMPI PUSH2 0x72B PUSH2 0x11BD JUMP JUMPDEST JUMPDEST SWAP1 POP PUSH1 0x20 MUL ADD CALLDATALOAD DUP12 DUP12 DUP6 DUP2 DUP2 LT PUSH2 0x746 JUMPI PUSH2 0x745 PUSH2 0x11BD JUMP JUMPDEST JUMPDEST SWAP1 POP PUSH1 0x20 MUL ADD CALLDATALOAD LT ISZERO PUSH2 0x7A9 JUMPI DUP11 DUP11 DUP5 DUP1 PUSH2 0x760 SWAP1 PUSH2 0x12A7 JUMP JUMPDEST SWAP6 POP DUP2 DUP2 LT PUSH2 0x772 JUMPI PUSH2 0x771 PUSH2 0x11BD JUMP JUMPDEST JUMPDEST SWAP1 POP PUSH1 0x20 MUL ADD CALLDATALOAD DUP5 DUP3 DUP1 PUSH2 0x785 SWAP1 PUSH2 0x12A7 JUMP JUMPDEST SWAP4 POP DUP2 MLOAD DUP2 LT PUSH2 0x798 JUMPI PUSH2 0x797 PUSH2 0x11BD JUMP JUMPDEST JUMPDEST PUSH1 0x20 MUL PUSH1 0x20 ADD ADD DUP2 DUP2 MSTORE POP POP PUSH2 0x7FB JUMP JUMPDEST DUP9 DUP9 DUP4 DUP1 PUSH2 0x7B6 SWAP1 PUSH2 0x12A7 JUMP JUMPDEST SWAP5 POP DUP2 DUP2 LT PUSH2 0x7C8 JUMPI PUSH2 0x7C7 PUSH2 0x11BD JUMP JUMPDEST JUMPDEST SWAP1 POP PUSH1 0x20 MUL ADD CALLDATALOAD DUP5 DUP3 DUP1 PUSH2 0x7DB SWAP1 PUSH2 0x12A7 JUMP JUMPDEST SWAP4 POP DUP2 MLOAD DUP2 LT PUSH2 0x7EE JUMPI PUSH2 0x7ED PUSH2 0x11BD JUMP JUMPDEST JUMPDEST PUSH1 0x20 MUL PUSH1 0x20 ADD ADD DUP2 DUP2 MSTORE POP POP JUMPDEST PUSH2 0x706 JUMP JUMPDEST JUMPDEST DUP6 DUP4 LT ISZERO PUSH2 0x85F JUMPI DUP11 DUP11 DUP5 DUP1 PUSH2 0x816 SWAP1 PUSH2 0x12A7 JUMP JUMPDEST SWAP6 POP DUP2 DUP2 LT PUSH2 0x828 JUMPI PUSH2 0x827 PUSH2 0x11BD JUMP JUMPDEST JUMPDEST SWAP1 POP PUSH1 0x20 MUL ADD CALLDATALOAD DUP5 DUP3 DUP1 PUSH2 0x83B SWAP1 PUSH2 0x12A7 JUMP JUMPDEST SWAP4 POP DUP2 MLOAD DUP2 LT PUSH2 0x84E JUMPI PUSH2 0x84D PUSH2 0x11BD JUMP JUMPDEST JUMPDEST PUSH1 0x20 MUL PUSH1 0x20 ADD ADD DUP2 DUP2 MSTORE POP POP PUSH2 0x801 JUMP JUMPDEST JUMPDEST DUP5 DUP3 LT ISZERO PUSH2 0x8BE JUMPI DUP9 DUP9 DUP4 DUP1 PUSH2 0x875 SWAP1 PUSH2 0x12A7 JUMP JUMPDEST SWAP5 POP DUP2 DUP2 LT PUSH2 0x887 JUMPI PUSH2 0x886 PUSH2 0x11BD JUMP JUMPDEST JUMPDEST SWAP1 POP PUSH1 0x20 MUL ADD CALLDATALOAD DUP5 DUP3 DUP1 PUSH2 0x89A SWAP1 PUSH2 0x12A7 JUMP JUMPDEST SWAP4 POP DUP2 MLOAD DUP2 LT PUSH2 0x8AD JUMPI PUSH2 0x8AC PUSH2 0x11BD JUMP JUMPDEST JUMPDEST PUSH1 0x20 MUL PUSH1 0x20 ADD ADD DUP2 DUP2 MSTORE POP POP PUSH2 0x860 JUMP JUMPDEST DUP4 SWAP7 POP POP POP POP POP POP POP SWAP5 SWAP4 POP POP POP POP JUMP JUMPDEST PUSH1 0x60 PUSH0 DUP4 DUP4 DUP1 DUP1 PUSH1 0x1F ADD PUSH1 0x20 DUP1 SWAP2 DIV MUL PUSH1 0x20 ADD PUSH1 0x40 MLOAD SWAP1 DUP2 ADD PUSH1 0x40 MSTORE DUP1 SWAP4 SWAP3 SWAP2 SWAP1 DUP2 DUP2 MSTORE PUSH1 0x20 ADD DUP4 DUP4 DUP1 DUP3 DUP5 CALLDATACOPY PUSH0 DUP2 DUP5 ADD MSTORE PUSH1 0x1F NOT PUSH1 0x1F DUP3 ADD AND SWAP1 POP DUP1 DUP4 ADD SWAP3 POP POP POP POP POP POP POP SWAP1 POP PUSH0 DUP2 MLOAD SWAP1 POP PUSH0 DUP2 SUB PUSH2 0x93C JUMPI PUSH1 0x40 MLOAD DUP1 PUSH1 0x20 ADD PUSH1 0x40 MSTORE DUP1 PUSH0 DUP2 MSTORE POP SWAP3 POP POP POP PUSH2 0xA24 JUMP JUMPDEST PUSH0 DUP2 PUSH8 0xFFFFFFFFFFFFFFFF DUP2 GT ISZERO PUSH2 0x957 JUMPI PUSH2 0x956 PUSH2 0xE5D JUMP JUMPDEST JUMPDEST PUSH1 0x40 MLOAD SWAP1 DUP1 DUP3 MSTORE DUP1 PUSH1 0x1F ADD PUSH1 0x1F NOT AND PUSH1 0x20 ADD DUP3 ADD PUSH1 0x40 MSTORE DUP1 ISZERO PUSH2 0x989 JUMPI DUP2 PUSH1 0x20 ADD PUSH1 0x1 DUP3 MUL DUP1 CALLDATASIZE DUP4 CALLDATACOPY DUP1 DUP3 ADD SWAP2 POP POP SWAP1 POP JUMPDEST POP SWAP1 POP PUSH0 PUSH0 SWAP1 POP JUMPDEST DUP3 DUP2 LT ISZERO PUSH2 0xA1C JUMPI DUP4 DUP2 PUSH1 0x1 DUP6 PUSH2 0x9A8 SWAP2 SWAP1 PUSH2 0x1217 JUMP JUMPDEST PUSH2 0x9B2 SWAP2 SWAP1 PUSH2 0x1217 JUMP JUMPDEST DUP2 MLOAD DUP2 LT PUSH2 0x9C3 JUMPI PUSH2 0x9C2 PUSH2 0x11BD JUMP JUMPDEST JUMPDEST PUSH1 0x20 ADD ADD MLOAD PUSH1 0xF8 SHR PUSH1 0xF8 SHL DUP3 DUP3 DUP2 MLOAD DUP2 LT PUSH2 0x9E1 JUMPI PUSH2 0x9E0 PUSH2 0x11BD JUMP JUMPDEST JUMPDEST PUSH1 0x20 ADD ADD SWAP1 PUSH31 0xFFFFFFFFFFFFFFFFFFFFFFFFFFFFFFFFFFFFFFFFFFFFFFFFFFFFFFFFFFFFFF NOT AND SWAP1 DUP2 PUSH0 BYTE SWAP1 MSTORE8 POP DUP1 DUP1 PUSH1 0x1 ADD SWAP2 POP POP PUSH2 0x991 JUMP JUMPDEST POP DUP1 SWAP4 POP POP POP POP JUMPDEST SWAP3 SWAP2 POP POP JUMP JUMPDEST PUSH0 PUSH32 0x4900000000000000000000000000000000000000000000000000000000000000 DUP3 PUSH31 0xFFFFFFFFFFFFFFFFFFFFFFFFFFFFFFFFFFFFFFFFFFFFFFFFFFFFFFFFFFFFFF NOT AND SUB PUSH2 0xA7D JUMPI PUSH1 0x1 SWAP1 POP PUSH2 0xC6F JUMP JUMPDEST PUSH32 0x5600000000000000000000000000000000000000000000000000000000000000 DUP3 PUSH31 0xFFFFFFFFFFFFFFFFFFFFFFFFFFFFFFFFFFFFFFFFFFFFFFFFFFFFFFFFFFFFFF NOT AND SUB PUSH2 0xACF JUMPI PUSH1 0x5 SWAP1 POP PUSH2 0xC6F JUMP JUMPDEST PUSH32 0x5800000000000000000000000000000000000000000000000000000000000000 DUP3 PUSH31 0xFFFFFFFFFFFFFFFFFFFFFFFFFFFFFFFFFFFFFFFFFFFFFFFFFFFFFFFFFFFFFF NOT AND SUB PUSH2 0xB21 JUMPI PUSH1 0xA SWAP1 POP PUSH2 0xC6F JUMP JUMPDEST PUSH32 0x4C00000000000000000000000000000000000000000000000000000000000000 DUP3 PUSH31 0xFFFFFFFFFFFFFFFFFFFFFFFFFFFFFFFFFFFFFFFFFFFFFFFFFFFFFFFFFFFFFF NOT AND SUB PUSH2 0xB73 JUMPI PUSH1 0x32 SWAP1 POP PUSH2 0xC6F JUMP JUMPDEST PUSH32 0x4300000000000000000000000000000000000000000000000000000000000000 DUP3 PUSH31 0xFFFFFFFFFFFFFFFFFFFFFFFFFFFFFFFFFFFFFFFFFFFFFFFFFFFFFFFFFFFFFF NOT AND SUB PUSH2 0xBC5 JUMPI PUSH1 0x64 SWAP1 POP PUSH2 0xC6F JUMP JUMPDEST PUSH32 0x4400000000000000000000000000000000000000000000000000000000000000 DUP3 PUSH31 0xFFFFFFFFFFFFFFFFFFFFFFFFFFFFFFFFFFFFFFFFFFFFFFFFFFFFFFFFFFFFFF NOT AND SUB PUSH2 0xC18 JUMPI PUSH2 0x1F4 SWAP1 POP PUSH2 0xC6F JUMP JUMPDEST PUSH32 0x4D00000000000000000000000000000000000000000000000000000000000000 DUP3 PUSH31 0xFFFFFFFFFFFFFFFFFFFFFFFFFFFFFFFFFFFFFFFFFFFFFFFFFFFFFFFFFFFFFF NOT AND SUB PUSH2 0xC6B JUMPI PUSH2 0x3E8 SWAP1 POP PUSH2 0xC6F JUMP JUMPDEST PUSH0 SWAP1 POP JUMPDEST SWAP2 SWAP1 POP JUMP JUMPDEST PUSH0 PUSH1 0x40 MLOAD SWAP1 POP SWAP1 JUMP JUMPDEST PUSH0 PUSH0 REVERT JUMPDEST PUSH0 PUSH0 REVERT JUMPDEST PUSH0 DUP2 SWAP1 POP SWAP2 SWAP1 POP JUMP JUMPDEST PUSH2 0xC97 DUP2 PUSH2 0xC85 JUMP JUMPDEST DUP2 EQ PUSH2 0xCA1 JUMPI PUSH0 PUSH0 REVERT JUMPDEST POP JUMP JUMPDEST PUSH0 DUP2 CALLDATALOAD SWAP1 POP PUSH2 0xCB2 DUP2 PUSH2 0xC8E JUMP JUMPDEST SWAP3 SWAP2 POP POP JUMP JUMPDEST PUSH0 PUSH1 0x20 DUP3 DUP5 SUB SLT ISZERO PUSH2 0xCCD JUMPI PUSH2 0xCCC PUSH2 0xC7D JUMP JUMPDEST JUMPDEST PUSH0 PUSH2 0xCDA DUP5 DUP3 DUP6 ADD PUSH2 0xCA4 JUMP JUMPDEST SWAP2 POP POP SWAP3 SWAP2 POP POP JUMP JUMPDEST PUSH0 DUP2 MLOAD SWAP1 POP SWAP2 SWAP1 POP JUMP JUMPDEST PUSH0 DUP3 DUP3 MSTORE PUSH1 0x20 DUP3 ADD SWAP1 POP SWAP3 SWAP2 POP POP JUMP JUMPDEST DUP3 DUP2 DUP4 MCOPY PUSH0 DUP4 DUP4 ADD MSTORE POP POP POP JUMP JUMPDEST PUSH0 PUSH1 0x1F NOT PUSH1 0x1F DUP4 ADD AND SWAP1 POP SWAP2 SWAP1 POP JUMP JUMPDEST PUSH0 PUSH2 0xD25 DUP3 PUSH2 0xCE3 JUMP JUMPDEST PUSH2 0xD2F DUP2 DUP6 PUSH2 0xCED JUMP JUMPDEST SWAP4 POP PUSH2 0xD3F DUP2 DUP6 PUSH1 0x20 DUP7 ADD PUSH2 0xCFD JUMP JUMPDEST PUSH2 0xD48 DUP2 PUSH2 0xD0B JUMP JUMPDEST DUP5 ADD SWAP2 POP POP SWAP3 SWAP2 POP POP JUMP JUMPDEST PUSH0 PUSH1 0x20 DUP3 ADD SWAP1 POP DUP2 DUP2 SUB PUSH0 DUP4 ADD MSTORE PUSH2 0xD6B DUP2 DUP5 PUSH2 0xD1B JUMP JUMPDEST SWAP1 POP SWAP3 SWAP2 POP POP JUMP JUMPDEST PUSH0 PUSH0 REVERT JUMPDEST PUSH0 PUSH0 REVERT JUMPDEST PUSH0 PUSH0 REVERT JUMPDEST PUSH0 PUSH0 DUP4 PUSH1 0x1F DUP5 ADD SLT PUSH2 0xD94 JUMPI PUSH2 0xD93 PUSH2 0xD73 JUMP JUMPDEST JUMPDEST DUP3 CALLDATALOAD SWAP1 POP PUSH8 0xFFFFFFFFFFFFFFFF DUP2 GT ISZERO PUSH2 0xDB1 JUMPI PUSH2 0xDB0 PUSH2 0xD77 JUMP JUMPDEST JUMPDEST PUSH1 0x20 DUP4 ADD SWAP2 POP DUP4 PUSH1 0x20 DUP3 MUL DUP4 ADD GT ISZERO PUSH2 0xDCD JUMPI PUSH2 0xDCC PUSH2 0xD7B JUMP JUMPDEST JUMPDEST SWAP3 POP SWAP3 SWAP1 POP JUMP JUMPDEST PUSH0 PUSH0 PUSH0 PUSH1 0x40 DUP5 DUP7 SUB SLT ISZERO PUSH2 0xDEB JUMPI PUSH2 0xDEA PUSH2 0xC7D JUMP JUMPDEST JUMPDEST PUSH0 DUP5 ADD CALLDATALOAD PUSH8 0xFFFFFFFFFFFFFFFF DUP2 GT ISZERO PUSH2 0xE08 JUMPI PUSH2 0xE07 PUSH2 0xC81 JUMP JUMPDEST JUMPDEST PUSH2 0xE14 DUP7 DUP3 DUP8 ADD PUSH2 0xD7F JUMP JUMPDEST SWAP4 POP SWAP4 POP POP PUSH1 0x20 PUSH2 0xE27 DUP7 DUP3 DUP8 ADD PUSH2 0xCA4 JUMP JUMPDEST SWAP2 POP POP SWAP3 POP SWAP3 POP SWAP3 JUMP JUMPDEST PUSH2 0xE3A DUP2 PUSH2 0xC85 JUMP JUMPDEST DUP3 MSTORE POP POP JUMP JUMPDEST PUSH0 PUSH1 0x20 DUP3 ADD SWAP1 POP PUSH2 0xE53 PUSH0 DUP4 ADD DUP5 PUSH2 0xE31 JUMP JUMPDEST SWAP3 SWAP2 POP POP JUMP JUMPDEST PUSH0 PUSH0 REVERT JUMPDEST PUSH32 0x4E487B7100000000000000000000000000000000000000000000000000000000 PUSH0 MSTORE PUSH1 0x41 PUSH1 0x4 MSTORE PUSH1 0x24 PUSH0 REVERT JUMPDEST PUSH2 0xE93 DUP3 PUSH2 0xD0B JUMP JUMPDEST DUP2 ADD DUP2 DUP2 LT PUSH8 0xFFFFFFFFFFFFFFFF DUP3 GT OR ISZERO PUSH2 0xEB2 JUMPI PUSH2 0xEB1 PUSH2 0xE5D JUMP JUMPDEST JUMPDEST DUP1 PUSH1 0x40 MSTORE POP POP POP JUMP JUMPDEST PUSH0 PUSH2 0xEC4 PUSH2 0xC74 JUMP JUMPDEST SWAP1 POP PUSH2 0xED0 DUP3 DUP3 PUSH2 0xE8A JUMP JUMPDEST SWAP2 SWAP1 POP JUMP JUMPDEST PUSH0 PUSH8 0xFFFFFFFFFFFFFFFF DUP3 GT ISZERO PUSH2 0xEEF JUMPI PUSH2 0xEEE PUSH2 0xE5D JUMP JUMPDEST JUMPDEST PUSH2 0xEF8 DUP3 PUSH2 0xD0B JUMP JUMPDEST SWAP1 POP PUSH1 0x20 DUP2 ADD SWAP1 POP SWAP2 SWAP1 POP JUMP JUMPDEST DUP3 DUP2 DUP4 CALLDATACOPY PUSH0 DUP4 DUP4 ADD MSTORE POP POP POP JUMP JUMPDEST PUSH0 PUSH2 0xF25 PUSH2 0xF20 DUP5 PUSH2 0xED5 JUMP JUMPDEST PUSH2 0xEBB JUMP JUMPDEST SWAP1 POP DUP3 DUP2 MSTORE PUSH1 0x20 DUP2 ADD DUP5 DUP5 DUP5 ADD GT ISZERO PUSH2 0xF41 JUMPI PUSH2 0xF40 PUSH2 0xE59 JUMP JUMPDEST JUMPDEST PUSH2 0xF4C DUP5 DUP3 DUP6 PUSH2 0xF05 JUMP JUMPDEST POP SWAP4 SWAP3 POP POP POP JUMP JUMPDEST PUSH0 DUP3 PUSH1 0x1F DUP4 ADD SLT PUSH2 0xF68 JUMPI PUSH2 0xF67 PUSH2 0xD73 JUMP JUMPDEST JUMPDEST DUP2 CALLDATALOAD PUSH2 0xF78 DUP5 DUP3 PUSH1 0x20 DUP7 ADD PUSH2 0xF13 JUMP JUMPDEST SWAP2 POP POP SWAP3 SWAP2 POP POP JUMP JUMPDEST PUSH0 PUSH1 0x20 DUP3 DUP5 SUB SLT ISZERO PUSH2 0xF96 JUMPI PUSH2 0xF95 PUSH2 0xC7D JUMP JUMPDEST JUMPDEST PUSH0 DUP3 ADD CALLDATALOAD PUSH8 0xFFFFFFFFFFFFFFFF DUP2 GT ISZERO PUSH2 0xFB3 JUMPI PUSH2 0xFB2 PUSH2 0xC81 JUMP JUMPDEST JUMPDEST PUSH2 0xFBF DUP5 DUP3 DUP6 ADD PUSH2 0xF54 JUMP JUMPDEST SWAP2 POP POP SWAP3 SWAP2 POP POP JUMP JUMPDEST PUSH0 PUSH0 PUSH0 PUSH0 PUSH1 0x40 DUP6 DUP8 SUB SLT ISZERO PUSH2 0xFE0 JUMPI PUSH2 0xFDF PUSH2 0xC7D JUMP JUMPDEST JUMPDEST PUSH0 DUP6 ADD CALLDATALOAD PUSH8 0xFFFFFFFFFFFFFFFF DUP2 GT ISZERO PUSH2 0xFFD JUMPI PUSH2 0xFFC PUSH2 0xC81 JUMP JUMPDEST JUMPDEST PUSH2 0x1009 DUP8 DUP3 DUP9 ADD PUSH2 0xD7F JUMP JUMPDEST SWAP5 POP SWAP5 POP POP PUSH1 0x20 DUP6 ADD CALLDATALOAD PUSH8 0xFFFFFFFFFFFFFFFF DUP2 GT ISZERO PUSH2 0x102C JUMPI PUSH2 0x102B PUSH2 0xC81 JUMP JUMPDEST JUMPDEST PUSH2 0x1038 DUP8 DUP3 DUP9 ADD PUSH2 0xD7F JUMP JUMPDEST SWAP3 POP SWAP3 POP POP SWAP3 SWAP6 SWAP2 SWAP5 POP SWAP3 POP JUMP JUMPDEST PUSH0 DUP2 MLOAD SWAP1 POP SWAP2 SWAP1 POP JUMP JUMPDEST PUSH0 DUP3 DUP3 MSTORE PUSH1 0x20 DUP3 ADD SWAP1 POP SWAP3 SWAP2 POP POP JUMP JUMPDEST PUSH0 DUP2 SWAP1 POP PUSH1 0x20 DUP3 ADD SWAP1 POP SWAP2 SWAP1 POP JUMP JUMPDEST PUSH2 0x1078 DUP2 PUSH2 0xC85 JUMP JUMPDEST DUP3 MSTORE POP POP JUMP JUMPDEST PUSH0 PUSH2 0x1089 DUP4 DUP4 PUSH2 0x106F JUMP JUMPDEST PUSH1 0x20 DUP4 ADD SWAP1 POP SWAP3 SWAP2 POP POP JUMP JUMPDEST PUSH0 PUSH1 0x20 DUP3 ADD SWAP1 POP SWAP2 SWAP1 POP JUMP JUMPDEST PUSH0 PUSH2 0x10AB DUP3 PUSH2 0x1046 JUMP JUMPDEST PUSH2 0x10B5 DUP2 DUP6 PUSH2 0x1050 JUMP JUMPDEST SWAP4 POP PUSH2 0x10C0 DUP4 PUSH2 0x1060 JUMP JUMPDEST DUP1 PUSH0 JUMPDEST DUP4 DUP2 LT ISZERO PUSH2 0x10F0 JUMPI DUP2 MLOAD PUSH2 0x10D7 DUP9 DUP3 PUSH2 0x107E JUMP JUMPDEST SWAP8 POP PUSH2 0x10E2 DUP4 PUSH2 0x1095 JUMP JUMPDEST SWAP3 POP POP PUSH1 0x1 DUP2 ADD SWAP1 POP PUSH2 0x10C3 JUMP JUMPDEST POP DUP6 SWAP4 POP POP POP POP SWAP3 SWAP2 POP POP JUMP JUMPDEST PUSH0 PUSH1 0x20 DUP3 ADD SWAP1 POP DUP2 DUP2 SUB PUSH0 DUP4 ADD MSTORE PUSH2 0x1115 DUP2 DUP5 PUSH2 0x10A1 JUMP JUMPDEST SWAP1 POP SWAP3 SWAP2 POP POP JUMP JUMPDEST PUSH0 PUSH0 DUP4 PUSH1 0x1F DUP5 ADD SLT PUSH2 0x1132 JUMPI PUSH2 0x1131 PUSH2 0xD73 JUMP JUMPDEST JUMPDEST DUP3 CALLDATALOAD SWAP1 POP PUSH8 0xFFFFFFFFFFFFFFFF DUP2 GT ISZERO PUSH2 0x114F JUMPI PUSH2 0x114E PUSH2 0xD77 JUMP JUMPDEST JUMPDEST PUSH1 0x20 DUP4 ADD SWAP2 POP DUP4 PUSH1 0x1 DUP3 MUL DUP4 ADD GT ISZERO PUSH2 0x116B JUMPI PUSH2 0x116A PUSH2 0xD7B JUMP JUMPDEST JUMPDEST SWAP3 POP SWAP3 SWAP1 POP JUMP JUMPDEST PUSH0 PUSH0 PUSH1 0x20 DUP4 DUP6 SUB SLT ISZERO PUSH2 0x1188 JUMPI PUSH2 0x1187 PUSH2 0xC7D JUMP JUMPDEST JUMPDEST PUSH0 DUP4 ADD CALLDATALOAD PUSH8 0xFFFFFFFFFFFFFFFF DUP2 GT ISZERO PUSH2 0x11A5 JUMPI PUSH2 0x11A4 PUSH2 0xC81 JUMP JUMPDEST JUMPDEST PUSH2 0x11B1 DUP6 DUP3 DUP7 ADD PUSH2 0x111D JUMP JUMPDEST SWAP3 POP SWAP3 POP POP SWAP3 POP SWAP3 SWAP1 POP JUMP JUMPDEST PUSH32 0x4E487B7100000000000000000000000000000000000000000000000000000000 PUSH0 MSTORE PUSH1 0x32 PUSH1 0x4 MSTORE PUSH1 0x24 PUSH0 REVERT JUMPDEST PUSH32 0x4E487B7100000000000000000000000000000000000000000000000000000000 PUSH0 MSTORE PUSH1 0x11 PUSH1 0x4 MSTORE PUSH1 0x24 PUSH0 REVERT JUMPDEST PUSH0 PUSH2 0x1221 DUP3 PUSH2 0xC85 JUMP JUMPDEST SWAP2 POP PUSH2 0x122C DUP4 PUSH2 0xC85 JUMP JUMPDEST SWAP3 POP DUP3 DUP3 SUB SWAP1 POP DUP2 DUP2 GT ISZERO PUSH2 0x1244 JUMPI PUSH2 0x1243 PUSH2 0x11EA JUMP JUMPDEST JUMPDEST SWAP3 SWAP2 POP POP JUMP JUMPDEST PUSH0 DUP2 SWAP1 POP SWAP3 SWAP2 POP POP JUMP JUMPDEST PUSH0 PUSH2 0x125E DUP3 PUSH2 0xCE3 JUMP JUMPDEST PUSH2 0x1268 DUP2 DUP6 PUSH2 0x124A JUMP JUMPDEST SWAP4 POP PUSH2 0x1278 DUP2 DUP6 PUSH1 0x20 DUP7 ADD PUSH2 0xCFD JUMP JUMPDEST DUP1 DUP5 ADD SWAP2 POP POP SWAP3 SWAP2 POP POP JUMP JUMPDEST PUSH0 PUSH2 0x128F DUP3 DUP6 PUSH2 0x1254 JUMP JUMPDEST SWAP2 POP PUSH2 0x129B DUP3 DUP5 PUSH2 0x1254 JUMP JUMPDEST SWAP2 POP DUP2 SWAP1 POP SWAP4 SWAP3 POP POP POP JUMP JUMPDEST PUSH0 PUSH2 0x12B1 DUP3 PUSH2 0xC85 JUMP JUMPDEST SWAP2 POP PUSH32 0xFFFFFFFFFFFFFFFFFFFFFFFFFFFFFFFFFFFFFFFFFFFFFFFFFFFFFFFFFFFFFFFF DUP3 SUB PUSH2 0x12E3 JUMPI PUSH2 0x12E2 PUSH2 0x11EA JUMP JUMPDEST JUMPDEST PUSH1 0x1 DUP3 ADD SWAP1 POP SWAP2 SWAP1 POP JUMP JUMPDEST PUSH0 PUSH2 0x12F8 DUP3 PUSH2 0xC85 JUMP JUMPDEST SWAP2 POP PUSH2 0x1303 DUP4 PUSH2 0xC85 JUMP JUMPDEST SWAP3 POP DUP3 DUP3 ADD SWAP1 POP DUP1 DUP3 GT ISZERO PUSH2 0x131B JUMPI PUSH2 0x131A PUSH2 0x11EA JUMP JUMPDEST JUMPDEST SWAP3 SWAP2 POP POP JUMP INVALID LOG2 PUSH5 0x6970667358 0x22 SLT KECCAK256 0x23 DUP3 EXTCODEHASH KECCAK256 SAR DUP5 PUSH14 0xBBDA169415068CC5CD75FCA79EBD 0xD6 0xAC SWAP11 MOD JUMP DUP16 0xD2 SWAP5 CALLDATASIZE PUSH23 0xF664736F6C634300081E00330000000000000000000000 "
				},
				"gasEstimates": {
					"creation": {
						"codeDepositCost": "990200",
						"executionCost": "1025",
						"totalCost": "991225"
					},
					"external": {
						"binarySearch(uint256[],uint256)": "infinite",
						"intToRoman(uint256)": "infinite",
						"mergeArrays(uint256[],uint256[])": "infinite",
						"romanToInt(string)": "infinite",
						"stringReverse(string)": "infinite"
					},
					"internal": {
						"valueOf(bytes1)": "262"
					}
				},
				"methodIdentifiers": {
					"binarySearch(uint256[],uint256)": "b12601da",
					"intToRoman(uint256)": "0cbc513a",
					"mergeArrays(uint256[],uint256[])": "de948709",
					"romanToInt(string)": "cb159dfe",
					"stringReverse(string)": "f3582c69"
				}
			},
			"storageLayout": {
				"storage": [],
				"types": null
			},
			"userdoc": {
				"kind": "user",
				"methods": {},
				"version": 1
			}
		}
	}
}