{
	"contracts/task2/job3.sol": {
		"BeggingContract": {
			"abi": [
				{
					"inputs": [],
					"stateMutability": "nonpayable",
					"type": "constructor"
				},
				{
					"anonymous": false,
					"inputs": [
						{
							"indexed": true,
							"internalType": "address",
							"name": "sender",
							"type": "address"
						},
						{
							"indexed": false,
							"internalType": "uint256",
							"name": "amount",
							"type": "uint256"
						}
					],
					"name": "Donation",
					"type": "event"
				},
				{
					"anonymous": false,
					"inputs": [
						{
							"indexed": false,
							"internalType": "uint256",
							"name": "amount",
							"type": "uint256"
						}
					],
					"name": "Withdraw",
					"type": "event"
				},
				{
					"stateMutability": "payable",
					"type": "fallback"
				},
				{
					"inputs": [],
					"name": "donate",
					"outputs": [],
					"stateMutability": "payable",
					"type": "function"
				},
				{
					"inputs": [
						{
							"internalType": "uint256",
							"name": "",
							"type": "uint256"
						}
					],
					"name": "donors",
					"outputs": [
						{
							"internalType": "address",
							"name": "sender",
							"type": "address"
						},
						{
							"internalType": "uint256",
							"name": "value",
							"type": "uint256"
						}
					],
					"stateMutability": "view",
					"type": "function"
				},
				{
					"inputs": [
						{
							"internalType": "address",
							"name": "user",
							"type": "address"
						}
					],
					"name": "getDonation",
					"outputs": [
						{
							"internalType": "uint256",
							"name": "",
							"type": "uint256"
						}
					],
					"stateMutability": "view",
					"type": "function"
				},
				{
					"inputs": [],
					"name": "owner",
					"outputs": [
						{
							"internalType": "address",
							"name": "",
							"type": "address"
						}
					],
					"stateMutability": "view",
					"type": "function"
				},
				{
					"inputs": [],
					"name": "rankings",
					"outputs": [
						{
							"components": [
								{
									"internalType": "address",
									"name": "sender",
									"type": "address"
								},
								{
									"internalType": "uint256",
									"name": "value",
									"type": "uint256"
								}
							],
							"internalType": "struct BeggingContract.Donor[3]",
							"name": "",
							"type": "tuple[3]"
						}
					],
					"stateMutability": "view",
					"type": "function"
				},
				{
					"inputs": [],
					"name": "withdraw",
					"outputs": [],
					"stateMutability": "nonpayable",
					"type": "function"
				},
				{
					"stateMutability": "payable",
					"type": "receive"
				}
			],
			"devdoc": {
				"kind": "dev",
				"methods": {},
				"version": 1
			},
			"evm": {
				"assembly": "    /* \"contracts/task2/job3.sol\":60:2804  contract BeggingContract {... */\n  mstore(0x40, 0x80)\n    /* \"contracts/task2/job3.sol\":261:312  constructor() {... */\n  callvalue\n  dup1\n  iszero\n  tag_1\n  jumpi\n  revert(0x00, 0x00)\ntag_1:\n  pop\n    /* \"contracts/task2/job3.sol\":294:304  msg.sender */\n  caller\n    /* \"contracts/task2/job3.sol\":286:291  owner */\n  0x01\n  0x00\n    /* \"contracts/task2/job3.sol\":286:304  owner = msg.sender */\n  0x0100\n  exp\n  dup2\n  sload\n  dup2\n  0xffffffffffffffffffffffffffffffffffffffff\n  mul\n  not\n  and\n  swap1\n  dup4\n  0xffffffffffffffffffffffffffffffffffffffff\n  and\n  mul\n  or\n  swap1\n  sstore\n  pop\n    /* \"contracts/task2/job3.sol\":60:2804  contract BeggingContract {... */\n  dataSize(sub_0)\n  dup1\n  dataOffset(sub_0)\n  0x00\n  codecopy\n  0x00\n  return\nstop\n\nsub_0: assembly {\n        /* \"contracts/task2/job3.sol\":60:2804  contract BeggingContract {... */\n      mstore(0x40, 0x80)\n      jumpi(tag_1, lt(calldatasize, 0x04))\n      shr(0xe0, calldataload(0x00))\n      dup1\n      0x3ccfd60b\n      eq\n      tag_3\n      jumpi\n      dup1\n      0x410a1d32\n      eq\n      tag_4\n      jumpi\n      dup1\n      0x4abfa163\n      eq\n      tag_5\n      jumpi\n      dup1\n      0x5569c4ff\n      eq\n      tag_6\n      jumpi\n      dup1\n      0x8da5cb5b\n      eq\n      tag_7\n      jumpi\n      dup1\n      0xed88c68e\n      eq\n      tag_8\n      jumpi\n      jump(tag_2)\n    tag_1:\n      jumpi(tag_2, calldatasize)\n        /* \"contracts/task2/job3.sol\":1115:1116  0 */\n      0x00\n        /* \"contracts/task2/job3.sol\":1102:1111  msg.value */\n      callvalue\n        /* \"contracts/task2/job3.sol\":1102:1116  msg.value >= 0 */\n      lt\n      iszero\n        /* \"contracts/task2/job3.sol\":1094:1135  require(msg.value >= 0, \"Not enough eth\") */\n      tag_11\n      jumpi\n      mload(0x40)\n      0x08c379a000000000000000000000000000000000000000000000000000000000\n      dup2\n      mstore\n      0x04\n      add\n      tag_12\n      swap1\n      tag_13\n      jump\t// in\n    tag_12:\n      mload(0x40)\n      dup1\n      swap2\n      sub\n      swap1\n      revert\n    tag_11:\n        /* \"contracts/task2/job3.sol\":1146:1158  uint balance */\n      0x00\n        /* \"contracts/task2/job3.sol\":1185:1194  msg.value */\n      callvalue\n        /* \"contracts/task2/job3.sol\":1161:1170  donations */\n      0x00\n        /* \"contracts/task2/job3.sol\":1161:1182  donations[msg.sender] */\n      0x00\n        /* \"contracts/task2/job3.sol\":1171:1181  msg.sender */\n      caller\n        /* \"contracts/task2/job3.sol\":1161:1182  donations[msg.sender] */\n      0xffffffffffffffffffffffffffffffffffffffff\n      and\n      0xffffffffffffffffffffffffffffffffffffffff\n      and\n      dup2\n      mstore\n      0x20\n      add\n      swap1\n      dup2\n      mstore\n      0x20\n      add\n      0x00\n      keccak256\n      sload\n        /* \"contracts/task2/job3.sol\":1161:1194  donations[msg.sender] + msg.value */\n      tag_14\n      swap2\n      swap1\n      tag_15\n      jump\t// in\n    tag_14:\n        /* \"contracts/task2/job3.sol\":1146:1194  uint balance = donations[msg.sender] + msg.value */\n      swap1\n      pop\n        /* \"contracts/task2/job3.sol\":1229:1236  balance */\n      dup1\n        /* \"contracts/task2/job3.sol\":1205:1214  donations */\n      0x00\n        /* \"contracts/task2/job3.sol\":1205:1226  donations[msg.sender] */\n      0x00\n        /* \"contracts/task2/job3.sol\":1215:1225  msg.sender */\n      caller\n        /* \"contracts/task2/job3.sol\":1205:1226  donations[msg.sender] */\n      0xffffffffffffffffffffffffffffffffffffffff\n      and\n      0xffffffffffffffffffffffffffffffffffffffff\n      and\n      dup2\n      mstore\n      0x20\n      add\n      swap1\n      dup2\n      mstore\n      0x20\n      add\n      0x00\n      keccak256\n        /* \"contracts/task2/job3.sol\":1205:1236  donations[msg.sender] = balance */\n      dup2\n      swap1\n      sstore\n      pop\n        /* \"contracts/task2/job3.sol\":1261:1271  msg.sender */\n      caller\n        /* \"contracts/task2/job3.sol\":1252:1283  Donation(msg.sender, msg.value) */\n      0xffffffffffffffffffffffffffffffffffffffff\n      and\n      0x5d8bc849764969eb1bcc6d0a2f55999d0167c1ccec240a4f39cf664ca9c4148e\n        /* \"contracts/task2/job3.sol\":1273:1282  msg.value */\n      callvalue\n        /* \"contracts/task2/job3.sol\":1252:1283  Donation(msg.sender, msg.value) */\n      mload(0x40)\n      tag_16\n      swap2\n      swap1\n      tag_17\n      jump\t// in\n    tag_16:\n      mload(0x40)\n      dup1\n      swap2\n      sub\n      swap1\n      log2\n        /* \"contracts/task2/job3.sol\":1294:1326  updateRanks(msg.sender, balance) */\n      tag_18\n        /* \"contracts/task2/job3.sol\":1306:1316  msg.sender */\n      caller\n        /* \"contracts/task2/job3.sol\":1318:1325  balance */\n      dup3\n        /* \"contracts/task2/job3.sol\":1294:1305  updateRanks */\n      tag_19\n        /* \"contracts/task2/job3.sol\":1294:1326  updateRanks(msg.sender, balance) */\n      jump\t// in\n    tag_18:\n        /* \"contracts/task2/job3.sol\":1083:1334  {... */\n      stop\n        /* \"contracts/task2/job3.sol\":60:2804  contract BeggingContract {... */\n    tag_2:\n        /* \"contracts/task2/job3.sol\":1400:1401  0 */\n      0x00\n        /* \"contracts/task2/job3.sol\":1387:1396  msg.value */\n      callvalue\n        /* \"contracts/task2/job3.sol\":1387:1401  msg.value >= 0 */\n      lt\n      iszero\n        /* \"contracts/task2/job3.sol\":1379:1420  require(msg.value >= 0, \"Not enough eth\") */\n      tag_22\n      jumpi\n      mload(0x40)\n      0x08c379a000000000000000000000000000000000000000000000000000000000\n      dup2\n      mstore\n      0x04\n      add\n      tag_23\n      swap1\n      tag_13\n      jump\t// in\n    tag_23:\n      mload(0x40)\n      dup1\n      swap2\n      sub\n      swap1\n      revert\n    tag_22:\n        /* \"contracts/task2/job3.sol\":1431:1443  uint balance */\n      0x00\n        /* \"contracts/task2/job3.sol\":1470:1479  msg.value */\n      callvalue\n        /* \"contracts/task2/job3.sol\":1446:1455  donations */\n      0x00\n        /* \"contracts/task2/job3.sol\":1446:1467  donations[msg.sender] */\n      0x00\n        /* \"contracts/task2/job3.sol\":1456:1466  msg.sender */\n      caller\n        /* \"contracts/task2/job3.sol\":1446:1467  donations[msg.sender] */\n      0xffffffffffffffffffffffffffffffffffffffff\n      and\n      0xffffffffffffffffffffffffffffffffffffffff\n      and\n      dup2\n      mstore\n      0x20\n      add\n      swap1\n      dup2\n      mstore\n      0x20\n      add\n      0x00\n      keccak256\n      sload\n        /* \"contracts/task2/job3.sol\":1446:1479  donations[msg.sender] + msg.value */\n      tag_24\n      swap2\n      swap1\n      tag_15\n      jump\t// in\n    tag_24:\n        /* \"contracts/task2/job3.sol\":1431:1479  uint balance = donations[msg.sender] + msg.value */\n      swap1\n      pop\n        /* \"contracts/task2/job3.sol\":1514:1521  balance */\n      dup1\n        /* \"contracts/task2/job3.sol\":1490:1499  donations */\n      0x00\n        /* \"contracts/task2/job3.sol\":1490:1511  donations[msg.sender] */\n      0x00\n        /* \"contracts/task2/job3.sol\":1500:1510  msg.sender */\n      caller\n        /* \"contracts/task2/job3.sol\":1490:1511  donations[msg.sender] */\n      0xffffffffffffffffffffffffffffffffffffffff\n      and\n      0xffffffffffffffffffffffffffffffffffffffff\n      and\n      dup2\n      mstore\n      0x20\n      add\n      swap1\n      dup2\n      mstore\n      0x20\n      add\n      0x00\n      keccak256\n        /* \"contracts/task2/job3.sol\":1490:1521  donations[msg.sender] = balance */\n      dup2\n      swap1\n      sstore\n      pop\n        /* \"contracts/task2/job3.sol\":1546:1556  msg.sender */\n      caller\n        /* \"contracts/task2/job3.sol\":1537:1568  Donation(msg.sender, msg.value) */\n      0xffffffffffffffffffffffffffffffffffffffff\n      and\n      0x5d8bc849764969eb1bcc6d0a2f55999d0167c1ccec240a4f39cf664ca9c4148e\n        /* \"contracts/task2/job3.sol\":1558:1567  msg.value */\n      callvalue\n        /* \"contracts/task2/job3.sol\":1537:1568  Donation(msg.sender, msg.value) */\n      mload(0x40)\n      tag_25\n      swap2\n      swap1\n      tag_17\n      jump\t// in\n    tag_25:\n      mload(0x40)\n      dup1\n      swap2\n      sub\n      swap1\n      log2\n        /* \"contracts/task2/job3.sol\":1579:1611  updateRanks(msg.sender, balance) */\n      tag_26\n        /* \"contracts/task2/job3.sol\":1591:1601  msg.sender */\n      caller\n        /* \"contracts/task2/job3.sol\":1603:1610  balance */\n      dup3\n        /* \"contracts/task2/job3.sol\":1579:1590  updateRanks */\n      tag_19\n        /* \"contracts/task2/job3.sol\":1579:1611  updateRanks(msg.sender, balance) */\n      jump\t// in\n    tag_26:\n        /* \"contracts/task2/job3.sol\":1368:1619  {... */\n      stop\n        /* \"contracts/task2/job3.sol\":886:1048  function withdraw() public onlyOwner {... */\n    tag_3:\n      callvalue\n      dup1\n      iszero\n      tag_27\n      jumpi\n      revert(0x00, 0x00)\n    tag_27:\n      pop\n      tag_28\n      tag_29\n      jump\t// in\n    tag_28:\n      stop\n        /* \"contracts/task2/job3.sol\":614:777  function getDonation(address user) public view returns(uint) {... */\n    tag_4:\n      callvalue\n      dup1\n      iszero\n      tag_30\n      jumpi\n      revert(0x00, 0x00)\n    tag_30:\n      pop\n      tag_31\n      0x04\n      dup1\n      calldatasize\n      sub\n      dup2\n      add\n      swap1\n      tag_32\n      swap2\n      swap1\n      tag_33\n      jump\t// in\n    tag_32:\n      tag_34\n      jump\t// in\n    tag_31:\n      mload(0x40)\n      tag_35\n      swap2\n      swap1\n      tag_17\n      jump\t// in\n    tag_35:\n      mload(0x40)\n      dup1\n      swap2\n      sub\n      swap1\n      return\n        /* \"contracts/task2/job3.sol\":1701:1723  Donor[3] public donors */\n    tag_5:\n      callvalue\n      dup1\n      iszero\n      tag_36\n      jumpi\n      revert(0x00, 0x00)\n    tag_36:\n      pop\n      tag_37\n      0x04\n      dup1\n      calldatasize\n      sub\n      dup2\n      add\n      swap1\n      tag_38\n      swap2\n      swap1\n      tag_39\n      jump\t// in\n    tag_38:\n      tag_40\n      jump\t// in\n    tag_37:\n      mload(0x40)\n      tag_41\n      swap3\n      swap2\n      swap1\n      tag_42\n      jump\t// in\n    tag_41:\n      mload(0x40)\n      dup1\n      swap2\n      sub\n      swap1\n      return\n        /* \"contracts/task2/job3.sol\":2710:2799  function rankings() public view returns(Donor[3] memory) {... */\n    tag_6:\n      callvalue\n      dup1\n      iszero\n      tag_43\n      jumpi\n      revert(0x00, 0x00)\n    tag_43:\n      pop\n      tag_44\n      tag_45\n      jump\t// in\n    tag_44:\n      mload(0x40)\n      tag_46\n      swap2\n      swap1\n      tag_47\n      jump\t// in\n    tag_46:\n      mload(0x40)\n      dup1\n      swap2\n      sub\n      swap1\n      return\n        /* \"contracts/task2/job3.sol\":232:252  address public owner */\n    tag_7:\n      callvalue\n      dup1\n      iszero\n      tag_48\n      jumpi\n      revert(0x00, 0x00)\n    tag_48:\n      pop\n      tag_49\n      tag_50\n      jump\t// in\n    tag_49:\n      mload(0x40)\n      tag_51\n      swap2\n      swap1\n      tag_52\n      jump\t// in\n    tag_51:\n      mload(0x40)\n      dup1\n      swap2\n      sub\n      swap1\n      return\n        /* \"contracts/task2/job3.sol\":320:606  function donate() external payable {... */\n    tag_8:\n      tag_53\n      tag_54\n      jump\t// in\n    tag_53:\n      stop\n        /* \"contracts/task2/job3.sol\":1732:2698  function updateRanks(address sender, uint value) internal {... */\n    tag_19:\n        /* \"contracts/task2/job3.sol\":1801:1812  bool update */\n      0x00\n        /* \"contracts/task2/job3.sol\":1815:1820  false */\n      0x00\n        /* \"contracts/task2/job3.sol\":1801:1820  bool update = false */\n      swap1\n      pop\n        /* \"contracts/task2/job3.sol\":1831:1848  Donor[3] memory d */\n      0x00\n        /* \"contracts/task2/job3.sol\":1851:1857  donors */\n      0x02\n        /* \"contracts/task2/job3.sol\":1831:1857  Donor[3] memory d = donors */\n      0x03\n      dup1\n      0x20\n      mul\n      mload(0x40)\n      swap1\n      dup2\n      add\n      0x40\n      mstore\n      dup1\n      swap3\n      swap2\n      swap1\n      0x00\n      swap1\n    tag_56:\n      dup3\n      dup3\n      lt\n      iszero\n      tag_57\n      jumpi\n      dup4\n      dup3\n      0x02\n      mul\n      add\n      mload(0x40)\n      dup1\n      0x40\n      add\n      0x40\n      mstore\n      swap1\n      dup2\n      0x00\n      dup3\n      add\n      0x00\n      swap1\n      sload\n      swap1\n      0x0100\n      exp\n      swap1\n      div\n      0xffffffffffffffffffffffffffffffffffffffff\n      and\n      0xffffffffffffffffffffffffffffffffffffffff\n      and\n      0xffffffffffffffffffffffffffffffffffffffff\n      and\n      dup2\n      mstore\n      0x20\n      add\n      0x01\n      dup3\n      add\n      sload\n      dup2\n      mstore\n      pop\n      pop\n      dup2\n      mstore\n      0x20\n      add\n      swap1\n      0x01\n      add\n      swap1\n      jump(tag_56)\n    tag_57:\n      pop\n      pop\n      pop\n      pop\n      swap1\n      pop\n        /* \"contracts/task2/job3.sol\":1873:1879  uint i */\n      0x00\n        /* \"contracts/task2/job3.sol\":1882:1883  0 */\n      0x00\n        /* \"contracts/task2/job3.sol\":1873:1883  uint i = 0 */\n      swap1\n      pop\n        /* \"contracts/task2/job3.sol\":1868:2058  for (uint i = 0; i < 3; i++) {... */\n    tag_59:\n        /* \"contracts/task2/job3.sol\":1889:1890  3 */\n      0x03\n        /* \"contracts/task2/job3.sol\":1885:1886  i */\n      dup2\n        /* \"contracts/task2/job3.sol\":1885:1890  i < 3 */\n      lt\n        /* \"contracts/task2/job3.sol\":1868:2058  for (uint i = 0; i < 3; i++) {... */\n      iszero\n      tag_60\n      jumpi\n        /* \"contracts/task2/job3.sol\":1925:1926  d */\n      dup2\n        /* \"contracts/task2/job3.sol\":1927:1928  i */\n      dup2\n        /* \"contracts/task2/job3.sol\":1925:1929  d[i] */\n      0x03\n      dup2\n      lt\n      tag_62\n      jumpi\n      tag_63\n      tag_64\n      jump\t// in\n    tag_63:\n    tag_62:\n      0x20\n      mul\n      add\n      mload\n        /* \"contracts/task2/job3.sol\":1925:1936  d[i].sender */\n      0x00\n      add\n      mload\n        /* \"contracts/task2/job3.sol\":1915:1936  sender == d[i].sender */\n      0xffffffffffffffffffffffffffffffffffffffff\n      and\n        /* \"contracts/task2/job3.sol\":1915:1921  sender */\n      dup6\n        /* \"contracts/task2/job3.sol\":1915:1936  sender == d[i].sender */\n      0xffffffffffffffffffffffffffffffffffffffff\n      and\n      sub\n        /* \"contracts/task2/job3.sol\":1912:2047  if(sender == d[i].sender) {... */\n      tag_65\n      jumpi\n        /* \"contracts/task2/job3.sol\":1970:1975  value */\n      dup4\n        /* \"contracts/task2/job3.sol\":1957:1958  d */\n      dup3\n        /* \"contracts/task2/job3.sol\":1959:1960  i */\n      dup3\n        /* \"contracts/task2/job3.sol\":1957:1961  d[i] */\n      0x03\n      dup2\n      lt\n      tag_66\n      jumpi\n      tag_67\n      tag_64\n      jump\t// in\n    tag_67:\n    tag_66:\n      0x20\n      mul\n      add\n      mload\n        /* \"contracts/task2/job3.sol\":1957:1967  d[i].value */\n      0x20\n      add\n        /* \"contracts/task2/job3.sol\":1957:1975  d[i].value = value */\n      dup2\n      dup2\n      mstore\n      pop\n      pop\n        /* \"contracts/task2/job3.sol\":2003:2007  true */\n      0x01\n        /* \"contracts/task2/job3.sol\":1994:2007  update = true */\n      swap3\n      pop\n        /* \"contracts/task2/job3.sol\":2026:2031  break */\n      jump(tag_60)\n        /* \"contracts/task2/job3.sol\":1912:2047  if(sender == d[i].sender) {... */\n    tag_65:\n        /* \"contracts/task2/job3.sol\":1892:1895  i++ */\n      dup1\n      dup1\n      0x01\n      add\n      swap2\n      pop\n      pop\n        /* \"contracts/task2/job3.sol\":1868:2058  for (uint i = 0; i < 3; i++) {... */\n      jump(tag_59)\n    tag_60:\n      pop\n        /* \"contracts/task2/job3.sol\":2074:2080  update */\n      dup2\n        /* \"contracts/task2/job3.sol\":2073:2080  !update */\n      iszero\n        /* \"contracts/task2/job3.sol\":2073:2102  !update && value > d[2].value */\n      dup1\n      iszero\n      tag_68\n      jumpi\n      pop\n        /* \"contracts/task2/job3.sol\":2092:2093  d */\n      dup1\n        /* \"contracts/task2/job3.sol\":2094:2095  2 */\n      0x02\n        /* \"contracts/task2/job3.sol\":2092:2096  d[2] */\n      0x03\n      dup2\n      lt\n      tag_69\n      jumpi\n      tag_70\n      tag_64\n      jump\t// in\n    tag_70:\n    tag_69:\n      0x20\n      mul\n      add\n      mload\n        /* \"contracts/task2/job3.sol\":2092:2102  d[2].value */\n      0x20\n      add\n      mload\n        /* \"contracts/task2/job3.sol\":2084:2089  value */\n      dup4\n        /* \"contracts/task2/job3.sol\":2084:2102  value > d[2].value */\n      gt\n        /* \"contracts/task2/job3.sol\":2073:2102  !update && value > d[2].value */\n    tag_68:\n        /* \"contracts/task2/job3.sol\":2070:2175  if(!update && value > d[2].value) {... */\n      iszero\n      tag_71\n      jumpi\n        /* \"contracts/task2/job3.sol\":2126:2163  Donor({sender: sender, value: value}) */\n      mload(0x40)\n      dup1\n      0x40\n      add\n      0x40\n      mstore\n      dup1\n        /* \"contracts/task2/job3.sol\":2141:2147  sender */\n      dup6\n        /* \"contracts/task2/job3.sol\":2126:2163  Donor({sender: sender, value: value}) */\n      0xffffffffffffffffffffffffffffffffffffffff\n      and\n      dup2\n      mstore\n      0x20\n      add\n        /* \"contracts/task2/job3.sol\":2156:2161  value */\n      dup5\n        /* \"contracts/task2/job3.sol\":2126:2163  Donor({sender: sender, value: value}) */\n      dup2\n      mstore\n      pop\n        /* \"contracts/task2/job3.sol\":2119:2120  d */\n      dup2\n        /* \"contracts/task2/job3.sol\":2121:2122  2 */\n      0x02\n        /* \"contracts/task2/job3.sol\":2119:2123  d[2] */\n      0x03\n      dup2\n      lt\n      tag_72\n      jumpi\n      tag_73\n      tag_64\n      jump\t// in\n    tag_73:\n    tag_72:\n      0x20\n      mul\n      add\n        /* \"contracts/task2/job3.sol\":2119:2163  d[2] = Donor({sender: sender, value: value}) */\n      dup2\n      swap1\n      mstore\n      pop\n        /* \"contracts/task2/job3.sol\":2070:2175  if(!update && value > d[2].value) {... */\n    tag_71:\n        /* \"contracts/task2/job3.sol\":2192:2198  uint i */\n      0x00\n        /* \"contracts/task2/job3.sol\":2201:2202  0 */\n      0x00\n        /* \"contracts/task2/job3.sol\":2192:2202  uint i = 0 */\n      swap1\n      pop\n        /* \"contracts/task2/job3.sol\":2187:2498  for (uint i = 0; i < 3; i++) {... */\n    tag_74:\n        /* \"contracts/task2/job3.sol\":2208:2209  3 */\n      0x03\n        /* \"contracts/task2/job3.sol\":2204:2205  i */\n      dup2\n        /* \"contracts/task2/job3.sol\":2204:2209  i < 3 */\n      lt\n        /* \"contracts/task2/job3.sol\":2187:2498  for (uint i = 0; i < 3; i++) {... */\n      iszero\n      tag_75\n      jumpi\n        /* \"contracts/task2/job3.sol\":2236:2242  uint j */\n      0x00\n        /* \"contracts/task2/job3.sol\":2247:2248  1 */\n      0x01\n        /* \"contracts/task2/job3.sol\":2245:2246  i */\n      dup3\n        /* \"contracts/task2/job3.sol\":2245:2248  i+1 */\n      tag_80\n      swap2\n      swap1\n      tag_15\n      jump\t// in\n    tag_80:\n        /* \"contracts/task2/job3.sol\":2236:2248  uint j = i+1 */\n      swap1\n      pop\n        /* \"contracts/task2/job3.sol\":2231:2487  for (uint j = i+1; j < 3; j++) {... */\n    tag_77:\n        /* \"contracts/task2/job3.sol\":2254:2255  3 */\n      0x03\n        /* \"contracts/task2/job3.sol\":2250:2251  j */\n      dup2\n        /* \"contracts/task2/job3.sol\":2250:2255  j < 3 */\n      lt\n        /* \"contracts/task2/job3.sol\":2231:2487  for (uint j = i+1; j < 3; j++) {... */\n      iszero\n      tag_78\n      jumpi\n        /* \"contracts/task2/job3.sol\":2297:2298  d */\n      dup3\n        /* \"contracts/task2/job3.sol\":2299:2300  j */\n      dup2\n        /* \"contracts/task2/job3.sol\":2297:2301  d[j] */\n      0x03\n      dup2\n      lt\n      tag_81\n      jumpi\n      tag_82\n      tag_64\n      jump\t// in\n    tag_82:\n    tag_81:\n      0x20\n      mul\n      add\n      mload\n        /* \"contracts/task2/job3.sol\":2297:2307  d[j].value */\n      0x20\n      add\n      mload\n        /* \"contracts/task2/job3.sol\":2284:2285  d */\n      dup4\n        /* \"contracts/task2/job3.sol\":2286:2287  i */\n      dup4\n        /* \"contracts/task2/job3.sol\":2284:2288  d[i] */\n      0x03\n      dup2\n      lt\n      tag_83\n      jumpi\n      tag_84\n      tag_64\n      jump\t// in\n    tag_84:\n    tag_83:\n      0x20\n      mul\n      add\n      mload\n        /* \"contracts/task2/job3.sol\":2284:2294  d[i].value */\n      0x20\n      add\n      mload\n        /* \"contracts/task2/job3.sol\":2284:2307  d[i].value < d[j].value */\n      lt\n        /* \"contracts/task2/job3.sol\":2281:2472  if(d[i].value < d[j].value) {... */\n      iszero\n      tag_85\n      jumpi\n        /* \"contracts/task2/job3.sol\":2332:2349  Donor memory temp */\n      0x00\n        /* \"contracts/task2/job3.sol\":2352:2353  d */\n      dup4\n        /* \"contracts/task2/job3.sol\":2354:2355  i */\n      dup4\n        /* \"contracts/task2/job3.sol\":2352:2356  d[i] */\n      0x03\n      dup2\n      lt\n      tag_86\n      jumpi\n      tag_87\n      tag_64\n      jump\t// in\n    tag_87:\n    tag_86:\n      0x20\n      mul\n      add\n      mload\n        /* \"contracts/task2/job3.sol\":2332:2356  Donor memory temp = d[i] */\n      swap1\n      pop\n        /* \"contracts/task2/job3.sol\":2386:2387  d */\n      dup4\n        /* \"contracts/task2/job3.sol\":2388:2389  j */\n      dup3\n        /* \"contracts/task2/job3.sol\":2386:2390  d[j] */\n      0x03\n      dup2\n      lt\n      tag_88\n      jumpi\n      tag_89\n      tag_64\n      jump\t// in\n    tag_89:\n    tag_88:\n      0x20\n      mul\n      add\n      mload\n        /* \"contracts/task2/job3.sol\":2379:2380  d */\n      dup5\n        /* \"contracts/task2/job3.sol\":2381:2382  i */\n      dup5\n        /* \"contracts/task2/job3.sol\":2379:2383  d[i] */\n      0x03\n      dup2\n      lt\n      tag_90\n      jumpi\n      tag_91\n      tag_64\n      jump\t// in\n    tag_91:\n    tag_90:\n      0x20\n      mul\n      add\n        /* \"contracts/task2/job3.sol\":2379:2390  d[i] = d[j] */\n      dup2\n      swap1\n      mstore\n      pop\n        /* \"contracts/task2/job3.sol\":2420:2424  temp */\n      dup1\n        /* \"contracts/task2/job3.sol\":2413:2414  d */\n      dup5\n        /* \"contracts/task2/job3.sol\":2415:2416  j */\n      dup4\n        /* \"contracts/task2/job3.sol\":2413:2417  d[j] */\n      0x03\n      dup2\n      lt\n      tag_92\n      jumpi\n      tag_93\n      tag_64\n      jump\t// in\n    tag_93:\n    tag_92:\n      0x20\n      mul\n      add\n        /* \"contracts/task2/job3.sol\":2413:2424  d[j] = temp */\n      dup2\n      swap1\n      mstore\n      pop\n        /* \"contracts/task2/job3.sol\":2447:2452  break */\n      pop\n      jump(tag_78)\n        /* \"contracts/task2/job3.sol\":2281:2472  if(d[i].value < d[j].value) {... */\n    tag_85:\n        /* \"contracts/task2/job3.sol\":2257:2260  j++ */\n      dup1\n      dup1\n      0x01\n      add\n      swap2\n      pop\n      pop\n        /* \"contracts/task2/job3.sol\":2231:2487  for (uint j = i+1; j < 3; j++) {... */\n      jump(tag_77)\n    tag_78:\n      pop\n        /* \"contracts/task2/job3.sol\":2211:2214  i++ */\n      dup1\n      dup1\n      0x01\n      add\n      swap2\n      pop\n      pop\n        /* \"contracts/task2/job3.sol\":2187:2498  for (uint i = 0; i < 3; i++) {... */\n      jump(tag_74)\n    tag_75:\n      pop\n        /* \"contracts/task2/job3.sol\":2522:2528  uint i */\n      0x00\n        /* \"contracts/task2/job3.sol\":2531:2532  0 */\n      0x00\n        /* \"contracts/task2/job3.sol\":2522:2532  uint i = 0 */\n      swap1\n      pop\n        /* \"contracts/task2/job3.sol\":2518:2691  for(uint i = 0; i < 3; i++) {... */\n    tag_94:\n        /* \"contracts/task2/job3.sol\":2538:2539  3 */\n      0x03\n        /* \"contracts/task2/job3.sol\":2534:2535  i */\n      dup2\n        /* \"contracts/task2/job3.sol\":2534:2539  i < 3 */\n      lt\n        /* \"contracts/task2/job3.sol\":2518:2691  for(uint i = 0; i < 3; i++) {... */\n      iszero\n      tag_95\n      jumpi\n        /* \"contracts/task2/job3.sol\":2584:2585  d */\n      dup2\n        /* \"contracts/task2/job3.sol\":2586:2587  i */\n      dup2\n        /* \"contracts/task2/job3.sol\":2584:2588  d[i] */\n      0x03\n      dup2\n      lt\n      tag_97\n      jumpi\n      tag_98\n      tag_64\n      jump\t// in\n    tag_98:\n    tag_97:\n      0x20\n      mul\n      add\n      mload\n        /* \"contracts/task2/job3.sol\":2584:2595  d[i].sender */\n      0x00\n      add\n      mload\n        /* \"contracts/task2/job3.sol\":2564:2595  donors[i].sender != d[i].sender */\n      0xffffffffffffffffffffffffffffffffffffffff\n      and\n        /* \"contracts/task2/job3.sol\":2564:2570  donors */\n      0x02\n        /* \"contracts/task2/job3.sol\":2571:2572  i */\n      dup3\n        /* \"contracts/task2/job3.sol\":2564:2573  donors[i] */\n      0x03\n      dup2\n      lt\n      tag_99\n      jumpi\n      tag_100\n      tag_64\n      jump\t// in\n    tag_100:\n    tag_99:\n      0x02\n      mul\n      add\n        /* \"contracts/task2/job3.sol\":2564:2580  donors[i].sender */\n      0x00\n      add\n      0x00\n      swap1\n      sload\n      swap1\n      0x0100\n      exp\n      swap1\n      div\n      0xffffffffffffffffffffffffffffffffffffffff\n      and\n        /* \"contracts/task2/job3.sol\":2564:2595  donors[i].sender != d[i].sender */\n      0xffffffffffffffffffffffffffffffffffffffff\n      and\n      eq\n      iszero\n        /* \"contracts/task2/job3.sol\":2564:2628  donors[i].sender != d[i].sender || donors[i].value != d[i].value */\n      dup1\n      tag_102\n      jumpi\n      pop\n        /* \"contracts/task2/job3.sol\":2618:2619  d */\n      dup2\n        /* \"contracts/task2/job3.sol\":2620:2621  i */\n      dup2\n        /* \"contracts/task2/job3.sol\":2618:2622  d[i] */\n      0x03\n      dup2\n      lt\n      tag_103\n      jumpi\n      tag_104\n      tag_64\n      jump\t// in\n    tag_104:\n    tag_103:\n      0x20\n      mul\n      add\n      mload\n        /* \"contracts/task2/job3.sol\":2618:2628  d[i].value */\n      0x20\n      add\n      mload\n        /* \"contracts/task2/job3.sol\":2599:2605  donors */\n      0x02\n        /* \"contracts/task2/job3.sol\":2606:2607  i */\n      dup3\n        /* \"contracts/task2/job3.sol\":2599:2608  donors[i] */\n      0x03\n      dup2\n      lt\n      tag_105\n      jumpi\n      tag_106\n      tag_64\n      jump\t// in\n    tag_106:\n    tag_105:\n      0x02\n      mul\n      add\n        /* \"contracts/task2/job3.sol\":2599:2614  donors[i].value */\n      0x01\n      add\n      sload\n        /* \"contracts/task2/job3.sol\":2599:2628  donors[i].value != d[i].value */\n      eq\n      iszero\n        /* \"contracts/task2/job3.sol\":2564:2628  donors[i].sender != d[i].sender || donors[i].value != d[i].value */\n    tag_102:\n        /* \"contracts/task2/job3.sol\":2561:2680  if(donors[i].sender != d[i].sender || donors[i].value != d[i].value){... */\n      iszero\n      tag_108\n      jumpi\n        /* \"contracts/task2/job3.sol\":2660:2661  d */\n      dup2\n        /* \"contracts/task2/job3.sol\":2662:2663  i */\n      dup2\n        /* \"contracts/task2/job3.sol\":2660:2664  d[i] */\n      0x03\n      dup2\n      lt\n      tag_109\n      jumpi\n      tag_110\n      tag_64\n      jump\t// in\n    tag_110:\n    tag_109:\n      0x20\n      mul\n      add\n      mload\n        /* \"contracts/task2/job3.sol\":2648:2654  donors */\n      0x02\n        /* \"contracts/task2/job3.sol\":2655:2656  i */\n      dup3\n        /* \"contracts/task2/job3.sol\":2648:2657  donors[i] */\n      0x03\n      dup2\n      lt\n      tag_111\n      jumpi\n      tag_112\n      tag_64\n      jump\t// in\n    tag_112:\n    tag_111:\n      0x02\n      mul\n      add\n        /* \"contracts/task2/job3.sol\":2648:2664  donors[i] = d[i] */\n      0x00\n      dup3\n      add\n      mload\n      dup2\n      0x00\n      add\n      exp(0x0100, 0x00)\n      dup2\n      sload\n      dup2\n      0xffffffffffffffffffffffffffffffffffffffff\n      mul\n      not\n      and\n      swap1\n      dup4\n      0xffffffffffffffffffffffffffffffffffffffff\n      and\n      mul\n      or\n      swap1\n      sstore\n      pop\n      0x20\n      dup3\n      add\n      mload\n      dup2\n      0x01\n      add\n      sstore\n      swap1\n      pop\n      pop\n        /* \"contracts/task2/job3.sol\":2561:2680  if(donors[i].sender != d[i].sender || donors[i].value != d[i].value){... */\n    tag_108:\n        /* \"contracts/task2/job3.sol\":2541:2544  i++ */\n      dup1\n      dup1\n      0x01\n      add\n      swap2\n      pop\n      pop\n        /* \"contracts/task2/job3.sol\":2518:2691  for(uint i = 0; i < 3; i++) {... */\n      jump(tag_94)\n    tag_95:\n      pop\n        /* \"contracts/task2/job3.sol\":1790:2698  {... */\n      pop\n      pop\n        /* \"contracts/task2/job3.sol\":1732:2698  function updateRanks(address sender, uint value) internal {... */\n      pop\n      pop\n      jump\t// out\n        /* \"contracts/task2/job3.sol\":886:1048  function withdraw() public onlyOwner {... */\n    tag_29:\n        /* \"contracts/task2/job3.sol\":837:842  owner */\n      0x01\n      0x00\n      swap1\n      sload\n      swap1\n      0x0100\n      exp\n      swap1\n      div\n      0xffffffffffffffffffffffffffffffffffffffff\n      and\n        /* \"contracts/task2/job3.sol\":823:842  msg.sender == owner */\n      0xffffffffffffffffffffffffffffffffffffffff\n      and\n        /* \"contracts/task2/job3.sol\":823:833  msg.sender */\n      caller\n        /* \"contracts/task2/job3.sol\":823:842  msg.sender == owner */\n      0xffffffffffffffffffffffffffffffffffffffff\n      and\n      eq\n        /* \"contracts/task2/job3.sol\":815:860  require(msg.sender == owner, \"must be owner\") */\n      tag_115\n      jumpi\n      mload(0x40)\n      0x08c379a000000000000000000000000000000000000000000000000000000000\n      dup2\n      mstore\n      0x04\n      add\n      tag_116\n      swap1\n      tag_117\n      jump\t// in\n    tag_116:\n      mload(0x40)\n      dup1\n      swap2\n      sub\n      swap1\n      revert\n    tag_115:\n        /* \"contracts/task2/job3.sol\":934:944  uint value */\n      0x00\n        /* \"contracts/task2/job3.sol\":947:968  address(this).balance */\n      selfbalance\n        /* \"contracts/task2/job3.sol\":934:968  uint value = address(this).balance */\n      swap1\n      pop\n        /* \"contracts/task2/job3.sol\":987:992  owner */\n      0x01\n      0x00\n      swap1\n      sload\n      swap1\n      0x0100\n      exp\n      swap1\n      div\n      0xffffffffffffffffffffffffffffffffffffffff\n      and\n        /* \"contracts/task2/job3.sol\":979:1002  payable(owner).transfer */\n      0xffffffffffffffffffffffffffffffffffffffff\n      and\n        /* \"contracts/task2/job3.sol\":979:1009  payable(owner).transfer(value) */\n      0x08fc\n        /* \"contracts/task2/job3.sol\":1003:1008  value */\n      dup3\n        /* \"contracts/task2/job3.sol\":979:1009  payable(owner).transfer(value) */\n      swap1\n      dup2\n      iszero\n      mul\n      swap1\n      mload(0x40)\n      0x00\n      mload(0x40)\n      dup1\n      dup4\n      sub\n      dup2\n      dup6\n      dup9\n      dup9\n      call\n      swap4\n      pop\n      pop\n      pop\n      pop\n      iszero\n      dup1\n      iszero\n      tag_120\n      jumpi\n      returndatacopy(0x00, 0x00, returndatasize)\n      revert(0x00, returndatasize)\n    tag_120:\n      pop\n        /* \"contracts/task2/job3.sol\":1025:1040  Withdraw(value) */\n      0x5b6b431d4476a211bb7d41c20d1aab9ae2321deee0d20be3d9fc9b1093fa6e3d\n        /* \"contracts/task2/job3.sol\":1034:1039  value */\n      dup2\n        /* \"contracts/task2/job3.sol\":1025:1040  Withdraw(value) */\n      mload(0x40)\n      tag_121\n      swap2\n      swap1\n      tag_17\n      jump\t// in\n    tag_121:\n      mload(0x40)\n      dup1\n      swap2\n      sub\n      swap1\n      log1\n        /* \"contracts/task2/job3.sol\":923:1048  {... */\n      pop\n        /* \"contracts/task2/job3.sol\":886:1048  function withdraw() public onlyOwner {... */\n      jump\t// out\n        /* \"contracts/task2/job3.sol\":614:777  function getDonation(address user) public view returns(uint) {... */\n    tag_34:\n        /* \"contracts/task2/job3.sol\":669:673  uint */\n      0x00\n        /* \"contracts/task2/job3.sol\":710:711  0 */\n      0x00\n        /* \"contracts/task2/job3.sol\":694:712  user != address(0) */\n      0xffffffffffffffffffffffffffffffffffffffff\n      and\n        /* \"contracts/task2/job3.sol\":694:698  user */\n      dup3\n        /* \"contracts/task2/job3.sol\":694:712  user != address(0) */\n      0xffffffffffffffffffffffffffffffffffffffff\n      and\n      sub\n        /* \"contracts/task2/job3.sol\":686:736  require(user != address(0), \"address cannot be 0\") */\n      tag_123\n      jumpi\n      mload(0x40)\n      0x08c379a000000000000000000000000000000000000000000000000000000000\n      dup2\n      mstore\n      0x04\n      add\n      tag_124\n      swap1\n      tag_125\n      jump\t// in\n    tag_124:\n      mload(0x40)\n      dup1\n      swap2\n      sub\n      swap1\n      revert\n    tag_123:\n        /* \"contracts/task2/job3.sol\":754:763  donations */\n      0x00\n        /* \"contracts/task2/job3.sol\":754:769  donations[user] */\n      0x00\n        /* \"contracts/task2/job3.sol\":764:768  user */\n      dup4\n        /* \"contracts/task2/job3.sol\":754:769  donations[user] */\n      0xffffffffffffffffffffffffffffffffffffffff\n      and\n      0xffffffffffffffffffffffffffffffffffffffff\n      and\n      dup2\n      mstore\n      0x20\n      add\n      swap1\n      dup2\n      mstore\n      0x20\n      add\n      0x00\n      keccak256\n      sload\n        /* \"contracts/task2/job3.sol\":747:769  return donations[user] */\n      swap1\n      pop\n        /* \"contracts/task2/job3.sol\":614:777  function getDonation(address user) public view returns(uint) {... */\n      swap2\n      swap1\n      pop\n      jump\t// out\n        /* \"contracts/task2/job3.sol\":1701:1723  Donor[3] public donors */\n    tag_40:\n      0x02\n      dup2\n      0x03\n      dup2\n      lt\n      tag_126\n      jumpi\n      0x00\n      dup1\n      revert\n    tag_126:\n      0x02\n      mul\n      add\n      0x00\n      swap2\n      pop\n      swap1\n      pop\n      dup1\n      0x00\n      add\n      0x00\n      swap1\n      sload\n      swap1\n      0x0100\n      exp\n      swap1\n      div\n      0xffffffffffffffffffffffffffffffffffffffff\n      and\n      swap1\n      dup1\n      0x01\n      add\n      sload\n      swap1\n      pop\n      dup3\n      jump\t// out\n        /* \"contracts/task2/job3.sol\":2710:2799  function rankings() public view returns(Donor[3] memory) {... */\n    tag_45:\n        /* \"contracts/task2/job3.sol\":2750:2765  Donor[3] memory */\n      tag_128\n      tag_129\n      jump\t// in\n    tag_128:\n        /* \"contracts/task2/job3.sol\":2785:2791  donors */\n      0x02\n        /* \"contracts/task2/job3.sol\":2778:2791  return donors */\n      0x03\n      dup1\n      0x20\n      mul\n      mload(0x40)\n      swap1\n      dup2\n      add\n      0x40\n      mstore\n      dup1\n      swap3\n      swap2\n      swap1\n      0x00\n      swap1\n    tag_131:\n      dup3\n      dup3\n      lt\n      iszero\n      tag_132\n      jumpi\n      dup4\n      dup3\n      0x02\n      mul\n      add\n      mload(0x40)\n      dup1\n      0x40\n      add\n      0x40\n      mstore\n      swap1\n      dup2\n      0x00\n      dup3\n      add\n      0x00\n      swap1\n      sload\n      swap1\n      0x0100\n      exp\n      swap1\n      div\n      0xffffffffffffffffffffffffffffffffffffffff\n      and\n      0xffffffffffffffffffffffffffffffffffffffff\n      and\n      0xffffffffffffffffffffffffffffffffffffffff\n      and\n      dup2\n      mstore\n      0x20\n      add\n      0x01\n      dup3\n      add\n      sload\n      dup2\n      mstore\n      pop\n      pop\n      dup2\n      mstore\n      0x20\n      add\n      swap1\n      0x01\n      add\n      swap1\n      jump(tag_131)\n    tag_132:\n      pop\n      pop\n      pop\n      pop\n      swap1\n      pop\n        /* \"contracts/task2/job3.sol\":2710:2799  function rankings() public view returns(Donor[3] memory) {... */\n      swap1\n      jump\t// out\n        /* \"contracts/task2/job3.sol\":232:252  address public owner */\n    tag_50:\n      0x01\n      0x00\n      swap1\n      sload\n      swap1\n      0x0100\n      exp\n      swap1\n      div\n      0xffffffffffffffffffffffffffffffffffffffff\n      and\n      dup2\n      jump\t// out\n        /* \"contracts/task2/job3.sol\":320:606  function donate() external payable {... */\n    tag_54:\n        /* \"contracts/task2/job3.sol\":387:388  0 */\n      0x00\n        /* \"contracts/task2/job3.sol\":374:383  msg.value */\n      callvalue\n        /* \"contracts/task2/job3.sol\":374:388  msg.value >= 0 */\n      lt\n      iszero\n        /* \"contracts/task2/job3.sol\":366:407  require(msg.value >= 0, \"not enough eth\") */\n      tag_135\n      jumpi\n      mload(0x40)\n      0x08c379a000000000000000000000000000000000000000000000000000000000\n      dup2\n      mstore\n      0x04\n      add\n      tag_136\n      swap1\n      tag_137\n      jump\t// in\n    tag_136:\n      mload(0x40)\n      dup1\n      swap2\n      sub\n      swap1\n      revert\n    tag_135:\n        /* \"contracts/task2/job3.sol\":418:430  uint balance */\n      0x00\n        /* \"contracts/task2/job3.sol\":457:466  msg.value */\n      callvalue\n        /* \"contracts/task2/job3.sol\":433:442  donations */\n      0x00\n        /* \"contracts/task2/job3.sol\":433:454  donations[msg.sender] */\n      0x00\n        /* \"contracts/task2/job3.sol\":443:453  msg.sender */\n      caller\n        /* \"contracts/task2/job3.sol\":433:454  donations[msg.sender] */\n      0xffffffffffffffffffffffffffffffffffffffff\n      and\n      0xffffffffffffffffffffffffffffffffffffffff\n      and\n      dup2\n      mstore\n      0x20\n      add\n      swap1\n      dup2\n      mstore\n      0x20\n      add\n      0x00\n      keccak256\n      sload\n        /* \"contracts/task2/job3.sol\":433:466  donations[msg.sender] + msg.value */\n      tag_138\n      swap2\n      swap1\n      tag_15\n      jump\t// in\n    tag_138:\n        /* \"contracts/task2/job3.sol\":418:466  uint balance = donations[msg.sender] + msg.value */\n      swap1\n      pop\n        /* \"contracts/task2/job3.sol\":501:508  balance */\n      dup1\n        /* \"contracts/task2/job3.sol\":477:486  donations */\n      0x00\n        /* \"contracts/task2/job3.sol\":477:498  donations[msg.sender] */\n      0x00\n        /* \"contracts/task2/job3.sol\":487:497  msg.sender */\n      caller\n        /* \"contracts/task2/job3.sol\":477:498  donations[msg.sender] */\n      0xffffffffffffffffffffffffffffffffffffffff\n      and\n      0xffffffffffffffffffffffffffffffffffffffff\n      and\n      dup2\n      mstore\n      0x20\n      add\n      swap1\n      dup2\n      mstore\n      0x20\n      add\n      0x00\n      keccak256\n        /* \"contracts/task2/job3.sol\":477:508  donations[msg.sender] = balance */\n      dup2\n      swap1\n      sstore\n      pop\n        /* \"contracts/task2/job3.sol\":533:543  msg.sender */\n      caller\n        /* \"contracts/task2/job3.sol\":524:555  Donation(msg.sender, msg.value) */\n      0xffffffffffffffffffffffffffffffffffffffff\n      and\n      0x5d8bc849764969eb1bcc6d0a2f55999d0167c1ccec240a4f39cf664ca9c4148e\n        /* \"contracts/task2/job3.sol\":545:554  msg.value */\n      callvalue\n        /* \"contracts/task2/job3.sol\":524:555  Donation(msg.sender, msg.value) */\n      mload(0x40)\n      tag_139\n      swap2\n      swap1\n      tag_17\n      jump\t// in\n    tag_139:\n      mload(0x40)\n      dup1\n      swap2\n      sub\n      swap1\n      log2\n        /* \"contracts/task2/job3.sol\":566:598  updateRanks(msg.sender, balance) */\n      tag_140\n        /* \"contracts/task2/job3.sol\":578:588  msg.sender */\n      caller\n        /* \"contracts/task2/job3.sol\":590:597  balance */\n      dup3\n        /* \"contracts/task2/job3.sol\":566:577  updateRanks */\n      tag_19\n        /* \"contracts/task2/job3.sol\":566:598  updateRanks(msg.sender, balance) */\n      jump\t// in\n    tag_140:\n        /* \"contracts/task2/job3.sol\":355:606  {... */\n      pop\n        /* \"contracts/task2/job3.sol\":320:606  function donate() external payable {... */\n      jump\t// out\n    tag_129:\n      mload(0x40)\n      dup1\n      0x60\n      add\n      0x40\n      mstore\n      dup1\n      0x03\n      swap1\n    tag_141:\n      tag_142\n      tag_143\n      jump\t// in\n    tag_142:\n      dup2\n      mstore\n      0x20\n      add\n      swap1\n      0x01\n      swap1\n      sub\n      swap1\n      dup2\n      tag_141\n      jumpi\n      swap1\n      pop\n      pop\n      swap1\n      jump\t// out\n    tag_143:\n      mload(0x40)\n      dup1\n      0x40\n      add\n      0x40\n      mstore\n      dup1\n      and(0xffffffffffffffffffffffffffffffffffffffff, 0x00)\n      dup2\n      mstore\n      0x20\n      add\n      0x00\n      dup2\n      mstore\n      pop\n      swap1\n      jump\t// out\n        /* \"#utility.yul\":7:176   */\n    tag_144:\n        /* \"#utility.yul\":91:102   */\n      0x00\n        /* \"#utility.yul\":125:131   */\n      dup3\n        /* \"#utility.yul\":120:123   */\n      dup3\n        /* \"#utility.yul\":113:132   */\n      mstore\n        /* \"#utility.yul\":165:169   */\n      0x20\n        /* \"#utility.yul\":160:163   */\n      dup3\n        /* \"#utility.yul\":156:170   */\n      add\n        /* \"#utility.yul\":141:170   */\n      swap1\n      pop\n        /* \"#utility.yul\":7:176   */\n      swap3\n      swap2\n      pop\n      pop\n      jump\t// out\n        /* \"#utility.yul\":182:346   */\n    tag_145:\n        /* \"#utility.yul\":322:338   */\n      0x4e6f7420656e6f75676820657468000000000000000000000000000000000000\n        /* \"#utility.yul\":318:319   */\n      0x00\n        /* \"#utility.yul\":310:316   */\n      dup3\n        /* \"#utility.yul\":306:320   */\n      add\n        /* \"#utility.yul\":299:339   */\n      mstore\n        /* \"#utility.yul\":182:346   */\n      pop\n      jump\t// out\n        /* \"#utility.yul\":352:718   */\n    tag_146:\n        /* \"#utility.yul\":494:497   */\n      0x00\n        /* \"#utility.yul\":515:582   */\n      tag_179\n        /* \"#utility.yul\":579:581   */\n      0x0e\n        /* \"#utility.yul\":574:577   */\n      dup4\n        /* \"#utility.yul\":515:582   */\n      tag_144\n      jump\t// in\n    tag_179:\n        /* \"#utility.yul\":508:582   */\n      swap2\n      pop\n        /* \"#utility.yul\":591:684   */\n      tag_180\n        /* \"#utility.yul\":680:683   */\n      dup3\n        /* \"#utility.yul\":591:684   */\n      tag_145\n      jump\t// in\n    tag_180:\n        /* \"#utility.yul\":709:711   */\n      0x20\n        /* \"#utility.yul\":704:707   */\n      dup3\n        /* \"#utility.yul\":700:712   */\n      add\n        /* \"#utility.yul\":693:712   */\n      swap1\n      pop\n        /* \"#utility.yul\":352:718   */\n      swap2\n      swap1\n      pop\n      jump\t// out\n        /* \"#utility.yul\":724:1143   */\n    tag_13:\n        /* \"#utility.yul\":890:894   */\n      0x00\n        /* \"#utility.yul\":928:930   */\n      0x20\n        /* \"#utility.yul\":917:926   */\n      dup3\n        /* \"#utility.yul\":913:931   */\n      add\n        /* \"#utility.yul\":905:931   */\n      swap1\n      pop\n        /* \"#utility.yul\":977:986   */\n      dup2\n        /* \"#utility.yul\":971:975   */\n      dup2\n        /* \"#utility.yul\":967:987   */\n      sub\n        /* \"#utility.yul\":963:964   */\n      0x00\n        /* \"#utility.yul\":952:961   */\n      dup4\n        /* \"#utility.yul\":948:965   */\n      add\n        /* \"#utility.yul\":941:988   */\n      mstore\n        /* \"#utility.yul\":1005:1136   */\n      tag_182\n        /* \"#utility.yul\":1131:1135   */\n      dup2\n        /* \"#utility.yul\":1005:1136   */\n      tag_146\n      jump\t// in\n    tag_182:\n        /* \"#utility.yul\":997:1136   */\n      swap1\n      pop\n        /* \"#utility.yul\":724:1143   */\n      swap2\n      swap1\n      pop\n      jump\t// out\n        /* \"#utility.yul\":1149:1226   */\n    tag_147:\n        /* \"#utility.yul\":1186:1193   */\n      0x00\n        /* \"#utility.yul\":1215:1220   */\n      dup2\n        /* \"#utility.yul\":1204:1220   */\n      swap1\n      pop\n        /* \"#utility.yul\":1149:1226   */\n      swap2\n      swap1\n      pop\n      jump\t// out\n        /* \"#utility.yul\":1232:1412   */\n    tag_148:\n        /* \"#utility.yul\":1280:1357   */\n      0x4e487b7100000000000000000000000000000000000000000000000000000000\n        /* \"#utility.yul\":1277:1278   */\n      0x00\n        /* \"#utility.yul\":1270:1358   */\n      mstore\n        /* \"#utility.yul\":1377:1381   */\n      0x11\n        /* \"#utility.yul\":1374:1375   */\n      0x04\n        /* \"#utility.yul\":1367:1382   */\n      mstore\n        /* \"#utility.yul\":1401:1405   */\n      0x24\n        /* \"#utility.yul\":1398:1399   */\n      0x00\n        /* \"#utility.yul\":1391:1406   */\n      revert\n        /* \"#utility.yul\":1418:1609   */\n    tag_15:\n        /* \"#utility.yul\":1458:1461   */\n      0x00\n        /* \"#utility.yul\":1477:1497   */\n      tag_186\n        /* \"#utility.yul\":1495:1496   */\n      dup3\n        /* \"#utility.yul\":1477:1497   */\n      tag_147\n      jump\t// in\n    tag_186:\n        /* \"#utility.yul\":1472:1497   */\n      swap2\n      pop\n        /* \"#utility.yul\":1511:1531   */\n      tag_187\n        /* \"#utility.yul\":1529:1530   */\n      dup4\n        /* \"#utility.yul\":1511:1531   */\n      tag_147\n      jump\t// in\n    tag_187:\n        /* \"#utility.yul\":1506:1531   */\n      swap3\n      pop\n        /* \"#utility.yul\":1554:1555   */\n      dup3\n        /* \"#utility.yul\":1551:1552   */\n      dup3\n        /* \"#utility.yul\":1547:1556   */\n      add\n        /* \"#utility.yul\":1540:1556   */\n      swap1\n      pop\n        /* \"#utility.yul\":1575:1578   */\n      dup1\n        /* \"#utility.yul\":1572:1573   */\n      dup3\n        /* \"#utility.yul\":1569:1579   */\n      gt\n        /* \"#utility.yul\":1566:1602   */\n      iszero\n      tag_188\n      jumpi\n        /* \"#utility.yul\":1582:1600   */\n      tag_189\n      tag_148\n      jump\t// in\n    tag_189:\n        /* \"#utility.yul\":1566:1602   */\n    tag_188:\n        /* \"#utility.yul\":1418:1609   */\n      swap3\n      swap2\n      pop\n      pop\n      jump\t// out\n        /* \"#utility.yul\":1615:1733   */\n    tag_149:\n        /* \"#utility.yul\":1702:1726   */\n      tag_191\n        /* \"#utility.yul\":1720:1725   */\n      dup2\n        /* \"#utility.yul\":1702:1726   */\n      tag_147\n      jump\t// in\n    tag_191:\n        /* \"#utility.yul\":1697:1700   */\n      dup3\n        /* \"#utility.yul\":1690:1727   */\n      mstore\n        /* \"#utility.yul\":1615:1733   */\n      pop\n      pop\n      jump\t// out\n        /* \"#utility.yul\":1739:1961   */\n    tag_17:\n        /* \"#utility.yul\":1832:1836   */\n      0x00\n        /* \"#utility.yul\":1870:1872   */\n      0x20\n        /* \"#utility.yul\":1859:1868   */\n      dup3\n        /* \"#utility.yul\":1855:1873   */\n      add\n        /* \"#utility.yul\":1847:1873   */\n      swap1\n      pop\n        /* \"#utility.yul\":1883:1954   */\n      tag_193\n        /* \"#utility.yul\":1951:1952   */\n      0x00\n        /* \"#utility.yul\":1940:1949   */\n      dup4\n        /* \"#utility.yul\":1936:1953   */\n      add\n        /* \"#utility.yul\":1927:1933   */\n      dup5\n        /* \"#utility.yul\":1883:1954   */\n      tag_149\n      jump\t// in\n    tag_193:\n        /* \"#utility.yul\":1739:1961   */\n      swap3\n      swap2\n      pop\n      pop\n      jump\t// out\n        /* \"#utility.yul\":2048:2165   */\n    tag_151:\n        /* \"#utility.yul\":2157:2158   */\n      0x00\n        /* \"#utility.yul\":2154:2155   */\n      0x00\n        /* \"#utility.yul\":2147:2159   */\n      revert\n        /* \"#utility.yul\":2294:2420   */\n    tag_153:\n        /* \"#utility.yul\":2331:2338   */\n      0x00\n        /* \"#utility.yul\":2371:2413   */\n      0xffffffffffffffffffffffffffffffffffffffff\n        /* \"#utility.yul\":2364:2369   */\n      dup3\n        /* \"#utility.yul\":2360:2414   */\n      and\n        /* \"#utility.yul\":2349:2414   */\n      swap1\n      pop\n        /* \"#utility.yul\":2294:2420   */\n      swap2\n      swap1\n      pop\n      jump\t// out\n        /* \"#utility.yul\":2426:2522   */\n    tag_154:\n        /* \"#utility.yul\":2463:2470   */\n      0x00\n        /* \"#utility.yul\":2492:2516   */\n      tag_199\n        /* \"#utility.yul\":2510:2515   */\n      dup3\n        /* \"#utility.yul\":2492:2516   */\n      tag_153\n      jump\t// in\n    tag_199:\n        /* \"#utility.yul\":2481:2516   */\n      swap1\n      pop\n        /* \"#utility.yul\":2426:2522   */\n      swap2\n      swap1\n      pop\n      jump\t// out\n        /* \"#utility.yul\":2528:2650   */\n    tag_155:\n        /* \"#utility.yul\":2601:2625   */\n      tag_201\n        /* \"#utility.yul\":2619:2624   */\n      dup2\n        /* \"#utility.yul\":2601:2625   */\n      tag_154\n      jump\t// in\n    tag_201:\n        /* \"#utility.yul\":2594:2599   */\n      dup2\n        /* \"#utility.yul\":2591:2626   */\n      eq\n        /* \"#utility.yul\":2581:2644   */\n      tag_202\n      jumpi\n        /* \"#utility.yul\":2640:2641   */\n      0x00\n        /* \"#utility.yul\":2637:2638   */\n      0x00\n        /* \"#utility.yul\":2630:2642   */\n      revert\n        /* \"#utility.yul\":2581:2644   */\n    tag_202:\n        /* \"#utility.yul\":2528:2650   */\n      pop\n      jump\t// out\n        /* \"#utility.yul\":2656:2795   */\n    tag_156:\n        /* \"#utility.yul\":2702:2707   */\n      0x00\n        /* \"#utility.yul\":2740:2746   */\n      dup2\n        /* \"#utility.yul\":2727:2747   */\n      calldataload\n        /* \"#utility.yul\":2718:2747   */\n      swap1\n      pop\n        /* \"#utility.yul\":2756:2789   */\n      tag_204\n        /* \"#utility.yul\":2783:2788   */\n      dup2\n        /* \"#utility.yul\":2756:2789   */\n      tag_155\n      jump\t// in\n    tag_204:\n        /* \"#utility.yul\":2656:2795   */\n      swap3\n      swap2\n      pop\n      pop\n      jump\t// out\n        /* \"#utility.yul\":2801:3130   */\n    tag_33:\n        /* \"#utility.yul\":2860:2866   */\n      0x00\n        /* \"#utility.yul\":2909:2911   */\n      0x20\n        /* \"#utility.yul\":2897:2906   */\n      dup3\n        /* \"#utility.yul\":2888:2895   */\n      dup5\n        /* \"#utility.yul\":2884:2907   */\n      sub\n        /* \"#utility.yul\":2880:2912   */\n      slt\n        /* \"#utility.yul\":2877:2996   */\n      iszero\n      tag_206\n      jumpi\n        /* \"#utility.yul\":2915:2994   */\n      tag_207\n      tag_151\n      jump\t// in\n    tag_207:\n        /* \"#utility.yul\":2877:2996   */\n    tag_206:\n        /* \"#utility.yul\":3035:3036   */\n      0x00\n        /* \"#utility.yul\":3060:3113   */\n      tag_208\n        /* \"#utility.yul\":3105:3112   */\n      dup5\n        /* \"#utility.yul\":3096:3102   */\n      dup3\n        /* \"#utility.yul\":3085:3094   */\n      dup6\n        /* \"#utility.yul\":3081:3103   */\n      add\n        /* \"#utility.yul\":3060:3113   */\n      tag_156\n      jump\t// in\n    tag_208:\n        /* \"#utility.yul\":3050:3113   */\n      swap2\n      pop\n        /* \"#utility.yul\":3006:3123   */\n      pop\n        /* \"#utility.yul\":2801:3130   */\n      swap3\n      swap2\n      pop\n      pop\n      jump\t// out\n        /* \"#utility.yul\":3136:3258   */\n    tag_157:\n        /* \"#utility.yul\":3209:3233   */\n      tag_210\n        /* \"#utility.yul\":3227:3232   */\n      dup2\n        /* \"#utility.yul\":3209:3233   */\n      tag_147\n      jump\t// in\n    tag_210:\n        /* \"#utility.yul\":3202:3207   */\n      dup2\n        /* \"#utility.yul\":3199:3234   */\n      eq\n        /* \"#utility.yul\":3189:3252   */\n      tag_211\n      jumpi\n        /* \"#utility.yul\":3248:3249   */\n      0x00\n        /* \"#utility.yul\":3245:3246   */\n      0x00\n        /* \"#utility.yul\":3238:3250   */\n      revert\n        /* \"#utility.yul\":3189:3252   */\n    tag_211:\n        /* \"#utility.yul\":3136:3258   */\n      pop\n      jump\t// out\n        /* \"#utility.yul\":3264:3403   */\n    tag_158:\n        /* \"#utility.yul\":3310:3315   */\n      0x00\n        /* \"#utility.yul\":3348:3354   */\n      dup2\n        /* \"#utility.yul\":3335:3355   */\n      calldataload\n        /* \"#utility.yul\":3326:3355   */\n      swap1\n      pop\n        /* \"#utility.yul\":3364:3397   */\n      tag_213\n        /* \"#utility.yul\":3391:3396   */\n      dup2\n        /* \"#utility.yul\":3364:3397   */\n      tag_157\n      jump\t// in\n    tag_213:\n        /* \"#utility.yul\":3264:3403   */\n      swap3\n      swap2\n      pop\n      pop\n      jump\t// out\n        /* \"#utility.yul\":3409:3738   */\n    tag_39:\n        /* \"#utility.yul\":3468:3474   */\n      0x00\n        /* \"#utility.yul\":3517:3519   */\n      0x20\n        /* \"#utility.yul\":3505:3514   */\n      dup3\n        /* \"#utility.yul\":3496:3503   */\n      dup5\n        /* \"#utility.yul\":3492:3515   */\n      sub\n        /* \"#utility.yul\":3488:3520   */\n      slt\n        /* \"#utility.yul\":3485:3604   */\n      iszero\n      tag_215\n      jumpi\n        /* \"#utility.yul\":3523:3602   */\n      tag_216\n      tag_151\n      jump\t// in\n    tag_216:\n        /* \"#utility.yul\":3485:3604   */\n    tag_215:\n        /* \"#utility.yul\":3643:3644   */\n      0x00\n        /* \"#utility.yul\":3668:3721   */\n      tag_217\n        /* \"#utility.yul\":3713:3720   */\n      dup5\n        /* \"#utility.yul\":3704:3710   */\n      dup3\n        /* \"#utility.yul\":3693:3702   */\n      dup6\n        /* \"#utility.yul\":3689:3711   */\n      add\n        /* \"#utility.yul\":3668:3721   */\n      tag_158\n      jump\t// in\n    tag_217:\n        /* \"#utility.yul\":3658:3721   */\n      swap2\n      pop\n        /* \"#utility.yul\":3614:3731   */\n      pop\n        /* \"#utility.yul\":3409:3738   */\n      swap3\n      swap2\n      pop\n      pop\n      jump\t// out\n        /* \"#utility.yul\":3744:3862   */\n    tag_159:\n        /* \"#utility.yul\":3831:3855   */\n      tag_219\n        /* \"#utility.yul\":3849:3854   */\n      dup2\n        /* \"#utility.yul\":3831:3855   */\n      tag_154\n      jump\t// in\n    tag_219:\n        /* \"#utility.yul\":3826:3829   */\n      dup3\n        /* \"#utility.yul\":3819:3856   */\n      mstore\n        /* \"#utility.yul\":3744:3862   */\n      pop\n      pop\n      jump\t// out\n        /* \"#utility.yul\":3868:4200   */\n    tag_42:\n        /* \"#utility.yul\":3989:3993   */\n      0x00\n        /* \"#utility.yul\":4027:4029   */\n      0x40\n        /* \"#utility.yul\":4016:4025   */\n      dup3\n        /* \"#utility.yul\":4012:4030   */\n      add\n        /* \"#utility.yul\":4004:4030   */\n      swap1\n      pop\n        /* \"#utility.yul\":4040:4111   */\n      tag_221\n        /* \"#utility.yul\":4108:4109   */\n      0x00\n        /* \"#utility.yul\":4097:4106   */\n      dup4\n        /* \"#utility.yul\":4093:4110   */\n      add\n        /* \"#utility.yul\":4084:4090   */\n      dup6\n        /* \"#utility.yul\":4040:4111   */\n      tag_159\n      jump\t// in\n    tag_221:\n        /* \"#utility.yul\":4121:4193   */\n      tag_222\n        /* \"#utility.yul\":4189:4191   */\n      0x20\n        /* \"#utility.yul\":4178:4187   */\n      dup4\n        /* \"#utility.yul\":4174:4192   */\n      add\n        /* \"#utility.yul\":4165:4171   */\n      dup5\n        /* \"#utility.yul\":4121:4193   */\n      tag_149\n      jump\t// in\n    tag_222:\n        /* \"#utility.yul\":3868:4200   */\n      swap4\n      swap3\n      pop\n      pop\n      pop\n      jump\t// out\n        /* \"#utility.yul\":4206:4332   */\n    tag_160:\n        /* \"#utility.yul\":4293:4299   */\n      0x00\n        /* \"#utility.yul\":4321:4325   */\n      0x03\n        /* \"#utility.yul\":4311:4325   */\n      swap1\n      pop\n        /* \"#utility.yul\":4206:4332   */\n      swap2\n      swap1\n      pop\n      jump\t// out\n        /* \"#utility.yul\":4338:4503   */\n    tag_161:\n        /* \"#utility.yul\":4457:4468   */\n      0x00\n        /* \"#utility.yul\":4494:4497   */\n      dup2\n        /* \"#utility.yul\":4479:4497   */\n      swap1\n      pop\n        /* \"#utility.yul\":4338:4503   */\n      swap3\n      swap2\n      pop\n      pop\n      jump\t// out\n        /* \"#utility.yul\":4509:4629   */\n    tag_162:\n        /* \"#utility.yul\":4596:4600   */\n      0x00\n        /* \"#utility.yul\":4619:4622   */\n      dup2\n        /* \"#utility.yul\":4611:4622   */\n      swap1\n      pop\n        /* \"#utility.yul\":4509:4629   */\n      swap2\n      swap1\n      pop\n      jump\t// out\n        /* \"#utility.yul\":4635:4743   */\n    tag_163:\n        /* \"#utility.yul\":4712:4736   */\n      tag_227\n        /* \"#utility.yul\":4730:4735   */\n      dup2\n        /* \"#utility.yul\":4712:4736   */\n      tag_154\n      jump\t// in\n    tag_227:\n        /* \"#utility.yul\":4707:4710   */\n      dup3\n        /* \"#utility.yul\":4700:4737   */\n      mstore\n        /* \"#utility.yul\":4635:4743   */\n      pop\n      pop\n      jump\t// out\n        /* \"#utility.yul\":4749:4857   */\n    tag_164:\n        /* \"#utility.yul\":4826:4850   */\n      tag_229\n        /* \"#utility.yul\":4844:4849   */\n      dup2\n        /* \"#utility.yul\":4826:4850   */\n      tag_147\n      jump\t// in\n    tag_229:\n        /* \"#utility.yul\":4821:4824   */\n      dup3\n        /* \"#utility.yul\":4814:4851   */\n      mstore\n        /* \"#utility.yul\":4749:4857   */\n      pop\n      pop\n      jump\t// out\n        /* \"#utility.yul\":4931:5425   */\n    tag_165:\n        /* \"#utility.yul\":5062:5066   */\n      0x40\n        /* \"#utility.yul\":5057:5060   */\n      dup3\n        /* \"#utility.yul\":5053:5067   */\n      add\n        /* \"#utility.yul\":5151:5155   */\n      0x00\n        /* \"#utility.yul\":5144:5149   */\n      dup3\n        /* \"#utility.yul\":5140:5156   */\n      add\n        /* \"#utility.yul\":5134:5157   */\n      mload\n        /* \"#utility.yul\":5170:5233   */\n      tag_231\n        /* \"#utility.yul\":5227:5231   */\n      0x00\n        /* \"#utility.yul\":5222:5225   */\n      dup6\n        /* \"#utility.yul\":5218:5232   */\n      add\n        /* \"#utility.yul\":5204:5216   */\n      dup3\n        /* \"#utility.yul\":5170:5233   */\n      tag_163\n      jump\t// in\n    tag_231:\n        /* \"#utility.yul\":5077:5243   */\n      pop\n        /* \"#utility.yul\":5326:5330   */\n      0x20\n        /* \"#utility.yul\":5319:5324   */\n      dup3\n        /* \"#utility.yul\":5315:5331   */\n      add\n        /* \"#utility.yul\":5309:5332   */\n      mload\n        /* \"#utility.yul\":5345:5408   */\n      tag_232\n        /* \"#utility.yul\":5402:5406   */\n      0x20\n        /* \"#utility.yul\":5397:5400   */\n      dup6\n        /* \"#utility.yul\":5393:5407   */\n      add\n        /* \"#utility.yul\":5379:5391   */\n      dup3\n        /* \"#utility.yul\":5345:5408   */\n      tag_164\n      jump\t// in\n    tag_232:\n        /* \"#utility.yul\":5253:5418   */\n      pop\n        /* \"#utility.yul\":5031:5425   */\n      pop\n        /* \"#utility.yul\":4931:5425   */\n      pop\n      pop\n      jump\t// out\n        /* \"#utility.yul\":5431:5698   */\n    tag_166:\n        /* \"#utility.yul\":5544:5554   */\n      0x00\n        /* \"#utility.yul\":5565:5655   */\n      tag_234\n        /* \"#utility.yul\":5651:5654   */\n      dup4\n        /* \"#utility.yul\":5643:5649   */\n      dup4\n        /* \"#utility.yul\":5565:5655   */\n      tag_165\n      jump\t// in\n    tag_234:\n        /* \"#utility.yul\":5687:5691   */\n      0x40\n        /* \"#utility.yul\":5682:5685   */\n      dup4\n        /* \"#utility.yul\":5678:5692   */\n      add\n        /* \"#utility.yul\":5664:5692   */\n      swap1\n      pop\n        /* \"#utility.yul\":5431:5698   */\n      swap3\n      swap2\n      pop\n      pop\n      jump\t// out\n        /* \"#utility.yul\":5704:5837   */\n    tag_167:\n        /* \"#utility.yul\":5794:5798   */\n      0x00\n        /* \"#utility.yul\":5826:5830   */\n      0x20\n        /* \"#utility.yul\":5821:5824   */\n      dup3\n        /* \"#utility.yul\":5817:5831   */\n      add\n        /* \"#utility.yul\":5809:5831   */\n      swap1\n      pop\n        /* \"#utility.yul\":5704:5837   */\n      swap2\n      swap1\n      pop\n      jump\t// out\n        /* \"#utility.yul\":5917:6787   */\n    tag_168:\n        /* \"#utility.yul\":6097:6171   */\n      tag_237\n        /* \"#utility.yul\":6165:6170   */\n      dup2\n        /* \"#utility.yul\":6097:6171   */\n      tag_160\n      jump\t// in\n    tag_237:\n        /* \"#utility.yul\":6187:6293   */\n      tag_238\n        /* \"#utility.yul\":6286:6292   */\n      dup2\n        /* \"#utility.yul\":6281:6284   */\n      dup5\n        /* \"#utility.yul\":6187:6293   */\n      tag_161\n      jump\t// in\n    tag_238:\n        /* \"#utility.yul\":6180:6293   */\n      swap3\n      pop\n        /* \"#utility.yul\":6317:6393   */\n      tag_239\n        /* \"#utility.yul\":6387:6392   */\n      dup3\n        /* \"#utility.yul\":6317:6393   */\n      tag_162\n      jump\t// in\n    tag_239:\n        /* \"#utility.yul\":6416:6423   */\n      dup1\n        /* \"#utility.yul\":6447:6448   */\n      0x00\n        /* \"#utility.yul\":6432:6780   */\n    tag_240:\n        /* \"#utility.yul\":6457:6463   */\n      dup4\n        /* \"#utility.yul\":6454:6455   */\n      dup2\n        /* \"#utility.yul\":6451:6464   */\n      lt\n        /* \"#utility.yul\":6432:6780   */\n      iszero\n      tag_242\n      jumpi\n        /* \"#utility.yul\":6533:6539   */\n      dup2\n        /* \"#utility.yul\":6527:6540   */\n      mload\n        /* \"#utility.yul\":6560:6667   */\n      tag_243\n        /* \"#utility.yul\":6663:6666   */\n      dup8\n        /* \"#utility.yul\":6648:6661   */\n      dup3\n        /* \"#utility.yul\":6560:6667   */\n      tag_166\n      jump\t// in\n    tag_243:\n        /* \"#utility.yul\":6553:6667   */\n      swap7\n      pop\n        /* \"#utility.yul\":6690:6770   */\n      tag_244\n        /* \"#utility.yul\":6763:6769   */\n      dup4\n        /* \"#utility.yul\":6690:6770   */\n      tag_167\n      jump\t// in\n    tag_244:\n        /* \"#utility.yul\":6680:6770   */\n      swap3\n      pop\n        /* \"#utility.yul\":6492:6780   */\n      pop\n        /* \"#utility.yul\":6479:6480   */\n      0x01\n        /* \"#utility.yul\":6476:6477   */\n      dup2\n        /* \"#utility.yul\":6472:6481   */\n      add\n        /* \"#utility.yul\":6467:6481   */\n      swap1\n      pop\n        /* \"#utility.yul\":6432:6780   */\n      jump(tag_240)\n    tag_242:\n        /* \"#utility.yul\":6436:6450   */\n      pop\n        /* \"#utility.yul\":6073:6787   */\n      pop\n      pop\n      pop\n        /* \"#utility.yul\":5917:6787   */\n      pop\n      pop\n      jump\t// out\n        /* \"#utility.yul\":6793:7196   */\n    tag_47:\n        /* \"#utility.yul\":6976:6980   */\n      0x00\n        /* \"#utility.yul\":7014:7017   */\n      0xc0\n        /* \"#utility.yul\":7003:7012   */\n      dup3\n        /* \"#utility.yul\":6999:7018   */\n      add\n        /* \"#utility.yul\":6991:7018   */\n      swap1\n      pop\n        /* \"#utility.yul\":7028:7189   */\n      tag_246\n        /* \"#utility.yul\":7186:7187   */\n      0x00\n        /* \"#utility.yul\":7175:7184   */\n      dup4\n        /* \"#utility.yul\":7171:7188   */\n      add\n        /* \"#utility.yul\":7162:7168   */\n      dup5\n        /* \"#utility.yul\":7028:7189   */\n      tag_168\n      jump\t// in\n    tag_246:\n        /* \"#utility.yul\":6793:7196   */\n      swap3\n      swap2\n      pop\n      pop\n      jump\t// out\n        /* \"#utility.yul\":7202:7424   */\n    tag_52:\n        /* \"#utility.yul\":7295:7299   */\n      0x00\n        /* \"#utility.yul\":7333:7335   */\n      0x20\n        /* \"#utility.yul\":7322:7331   */\n      dup3\n        /* \"#utility.yul\":7318:7336   */\n      add\n        /* \"#utility.yul\":7310:7336   */\n      swap1\n      pop\n        /* \"#utility.yul\":7346:7417   */\n      tag_248\n        /* \"#utility.yul\":7414:7415   */\n      0x00\n        /* \"#utility.yul\":7403:7412   */\n      dup4\n        /* \"#utility.yul\":7399:7416   */\n      add\n        /* \"#utility.yul\":7390:7396   */\n      dup5\n        /* \"#utility.yul\":7346:7417   */\n      tag_159\n      jump\t// in\n    tag_248:\n        /* \"#utility.yul\":7202:7424   */\n      swap3\n      swap2\n      pop\n      pop\n      jump\t// out\n        /* \"#utility.yul\":7430:7610   */\n    tag_64:\n        /* \"#utility.yul\":7478:7555   */\n      0x4e487b7100000000000000000000000000000000000000000000000000000000\n        /* \"#utility.yul\":7475:7476   */\n      0x00\n        /* \"#utility.yul\":7468:7556   */\n      mstore\n        /* \"#utility.yul\":7575:7579   */\n      0x32\n        /* \"#utility.yul\":7572:7573   */\n      0x04\n        /* \"#utility.yul\":7565:7580   */\n      mstore\n        /* \"#utility.yul\":7599:7603   */\n      0x24\n        /* \"#utility.yul\":7596:7597   */\n      0x00\n        /* \"#utility.yul\":7589:7604   */\n      revert\n        /* \"#utility.yul\":7616:7779   */\n    tag_169:\n        /* \"#utility.yul\":7756:7771   */\n      0x6d757374206265206f776e657200000000000000000000000000000000000000\n        /* \"#utility.yul\":7752:7753   */\n      0x00\n        /* \"#utility.yul\":7744:7750   */\n      dup3\n        /* \"#utility.yul\":7740:7754   */\n      add\n        /* \"#utility.yul\":7733:7772   */\n      mstore\n        /* \"#utility.yul\":7616:7779   */\n      pop\n      jump\t// out\n        /* \"#utility.yul\":7785:8151   */\n    tag_170:\n        /* \"#utility.yul\":7927:7930   */\n      0x00\n        /* \"#utility.yul\":7948:8015   */\n      tag_252\n        /* \"#utility.yul\":8012:8014   */\n      0x0d\n        /* \"#utility.yul\":8007:8010   */\n      dup4\n        /* \"#utility.yul\":7948:8015   */\n      tag_144\n      jump\t// in\n    tag_252:\n        /* \"#utility.yul\":7941:8015   */\n      swap2\n      pop\n        /* \"#utility.yul\":8024:8117   */\n      tag_253\n        /* \"#utility.yul\":8113:8116   */\n      dup3\n        /* \"#utility.yul\":8024:8117   */\n      tag_169\n      jump\t// in\n    tag_253:\n        /* \"#utility.yul\":8142:8144   */\n      0x20\n        /* \"#utility.yul\":8137:8140   */\n      dup3\n        /* \"#utility.yul\":8133:8145   */\n      add\n        /* \"#utility.yul\":8126:8145   */\n      swap1\n      pop\n        /* \"#utility.yul\":7785:8151   */\n      swap2\n      swap1\n      pop\n      jump\t// out\n        /* \"#utility.yul\":8157:8576   */\n    tag_117:\n        /* \"#utility.yul\":8323:8327   */\n      0x00\n        /* \"#utility.yul\":8361:8363   */\n      0x20\n        /* \"#utility.yul\":8350:8359   */\n      dup3\n        /* \"#utility.yul\":8346:8364   */\n      add\n        /* \"#utility.yul\":8338:8364   */\n      swap1\n      pop\n        /* \"#utility.yul\":8410:8419   */\n      dup2\n        /* \"#utility.yul\":8404:8408   */\n      dup2\n        /* \"#utility.yul\":8400:8420   */\n      sub\n        /* \"#utility.yul\":8396:8397   */\n      0x00\n        /* \"#utility.yul\":8385:8394   */\n      dup4\n        /* \"#utility.yul\":8381:8398   */\n      add\n        /* \"#utility.yul\":8374:8421   */\n      mstore\n        /* \"#utility.yul\":8438:8569   */\n      tag_255\n        /* \"#utility.yul\":8564:8568   */\n      dup2\n        /* \"#utility.yul\":8438:8569   */\n      tag_170\n      jump\t// in\n    tag_255:\n        /* \"#utility.yul\":8430:8569   */\n      swap1\n      pop\n        /* \"#utility.yul\":8157:8576   */\n      swap2\n      swap1\n      pop\n      jump\t// out\n        /* \"#utility.yul\":8582:8751   */\n    tag_171:\n        /* \"#utility.yul\":8722:8743   */\n      0x616464726573732063616e6e6f74206265203000000000000000000000000000\n        /* \"#utility.yul\":8718:8719   */\n      0x00\n        /* \"#utility.yul\":8710:8716   */\n      dup3\n        /* \"#utility.yul\":8706:8720   */\n      add\n        /* \"#utility.yul\":8699:8744   */\n      mstore\n        /* \"#utility.yul\":8582:8751   */\n      pop\n      jump\t// out\n        /* \"#utility.yul\":8757:9123   */\n    tag_172:\n        /* \"#utility.yul\":8899:8902   */\n      0x00\n        /* \"#utility.yul\":8920:8987   */\n      tag_258\n        /* \"#utility.yul\":8984:8986   */\n      0x13\n        /* \"#utility.yul\":8979:8982   */\n      dup4\n        /* \"#utility.yul\":8920:8987   */\n      tag_144\n      jump\t// in\n    tag_258:\n        /* \"#utility.yul\":8913:8987   */\n      swap2\n      pop\n        /* \"#utility.yul\":8996:9089   */\n      tag_259\n        /* \"#utility.yul\":9085:9088   */\n      dup3\n        /* \"#utility.yul\":8996:9089   */\n      tag_171\n      jump\t// in\n    tag_259:\n        /* \"#utility.yul\":9114:9116   */\n      0x20\n        /* \"#utility.yul\":9109:9112   */\n      dup3\n        /* \"#utility.yul\":9105:9117   */\n      add\n        /* \"#utility.yul\":9098:9117   */\n      swap1\n      pop\n        /* \"#utility.yul\":8757:9123   */\n      swap2\n      swap1\n      pop\n      jump\t// out\n        /* \"#utility.yul\":9129:9548   */\n    tag_125:\n        /* \"#utility.yul\":9295:9299   */\n      0x00\n        /* \"#utility.yul\":9333:9335   */\n      0x20\n        /* \"#utility.yul\":9322:9331   */\n      dup3\n        /* \"#utility.yul\":9318:9336   */\n      add\n        /* \"#utility.yul\":9310:9336   */\n      swap1\n      pop\n        /* \"#utility.yul\":9382:9391   */\n      dup2\n        /* \"#utility.yul\":9376:9380   */\n      dup2\n        /* \"#utility.yul\":9372:9392   */\n      sub\n        /* \"#utility.yul\":9368:9369   */\n      0x00\n        /* \"#utility.yul\":9357:9366   */\n      dup4\n        /* \"#utility.yul\":9353:9370   */\n      add\n        /* \"#utility.yul\":9346:9393   */\n      mstore\n        /* \"#utility.yul\":9410:9541   */\n      tag_261\n        /* \"#utility.yul\":9536:9540   */\n      dup2\n        /* \"#utility.yul\":9410:9541   */\n      tag_172\n      jump\t// in\n    tag_261:\n        /* \"#utility.yul\":9402:9541   */\n      swap1\n      pop\n        /* \"#utility.yul\":9129:9548   */\n      swap2\n      swap1\n      pop\n      jump\t// out\n        /* \"#utility.yul\":9554:9718   */\n    tag_173:\n        /* \"#utility.yul\":9694:9710   */\n      0x6e6f7420656e6f75676820657468000000000000000000000000000000000000\n        /* \"#utility.yul\":9690:9691   */\n      0x00\n        /* \"#utility.yul\":9682:9688   */\n      dup3\n        /* \"#utility.yul\":9678:9692   */\n      add\n        /* \"#utility.yul\":9671:9711   */\n      mstore\n        /* \"#utility.yul\":9554:9718   */\n      pop\n      jump\t// out\n        /* \"#utility.yul\":9724:10090   */\n    tag_174:\n        /* \"#utility.yul\":9866:9869   */\n      0x00\n        /* \"#utility.yul\":9887:9954   */\n      tag_264\n        /* \"#utility.yul\":9951:9953   */\n      0x0e\n        /* \"#utility.yul\":9946:9949   */\n      dup4\n        /* \"#utility.yul\":9887:9954   */\n      tag_144\n      jump\t// in\n    tag_264:\n        /* \"#utility.yul\":9880:9954   */\n      swap2\n      pop\n        /* \"#utility.yul\":9963:10056   */\n      tag_265\n        /* \"#utility.yul\":10052:10055   */\n      dup3\n        /* \"#utility.yul\":9963:10056   */\n      tag_173\n      jump\t// in\n    tag_265:\n        /* \"#utility.yul\":10081:10083   */\n      0x20\n        /* \"#utility.yul\":10076:10079   */\n      dup3\n        /* \"#utility.yul\":10072:10084   */\n      add\n        /* \"#utility.yul\":10065:10084   */\n      swap1\n      pop\n        /* \"#utility.yul\":9724:10090   */\n      swap2\n      swap1\n      pop\n      jump\t// out\n        /* \"#utility.yul\":10096:10515   */\n    tag_137:\n        /* \"#utility.yul\":10262:10266   */\n      0x00\n        /* \"#utility.yul\":10300:10302   */\n      0x20\n        /* \"#utility.yul\":10289:10298   */\n      dup3\n        /* \"#utility.yul\":10285:10303   */\n      add\n        /* \"#utility.yul\":10277:10303   */\n      swap1\n      pop\n        /* \"#utility.yul\":10349:10358   */\n      dup2\n        /* \"#utility.yul\":10343:10347   */\n      dup2\n        /* \"#utility.yul\":10339:10359   */\n      sub\n        /* \"#utility.yul\":10335:10336   */\n      0x00\n        /* \"#utility.yul\":10324:10333   */\n      dup4\n        /* \"#utility.yul\":10320:10337   */\n      add\n        /* \"#utility.yul\":10313:10360   */\n      mstore\n        /* \"#utility.yul\":10377:10508   */\n      tag_267\n        /* \"#utility.yul\":10503:10507   */\n      dup2\n        /* \"#utility.yul\":10377:10508   */\n      tag_174\n      jump\t// in\n    tag_267:\n        /* \"#utility.yul\":10369:10508   */\n      swap1\n      pop\n        /* \"#utility.yul\":10096:10515   */\n      swap2\n      swap1\n      pop\n      jump\t// out\n\n    auxdata: 0xa2646970667358221220dc45cf03a2c02f44f9aaeab8b826e53e54378ce8d0808269ebacabd1c24161b564736f6c634300081e0033\n}\n",
				"bytecode": {
					"linkReferences": {},
					"object": "6080604052348015600e575f5ffd5b503360015f6101000a81548173ffffffffffffffffffffffffffffffffffffffff021916908373ffffffffffffffffffffffffffffffffffffffff1602179055506110fc8061005c5f395ff3fe608060405260043610610058575f3560e01c80633ccfd60b146102af578063410a1d32146102c55780634abfa163146103015780635569c4ff1461033e5780638da5cb5b14610368578063ed88c68e1461039257610186565b36610186575f3410156100a0576040517f08c379a000000000000000000000000000000000000000000000000000000000815260040161009790610c8b565b60405180910390fd5b5f345f5f3373ffffffffffffffffffffffffffffffffffffffff1673ffffffffffffffffffffffffffffffffffffffff1681526020019081526020015f20546100e99190610cdf565b9050805f5f3373ffffffffffffffffffffffffffffffffffffffff1673ffffffffffffffffffffffffffffffffffffffff1681526020019081526020015f20819055503373ffffffffffffffffffffffffffffffffffffffff167f5d8bc849764969eb1bcc6d0a2f55999d0167c1ccec240a4f39cf664ca9c4148e346040516101729190610d21565b60405180910390a2610184338261039c565b005b5f3410156101c9576040517f08c379a00000000000000000000000000000000000000000000000000000000081526004016101c090610c8b565b60405180910390fd5b5f345f5f3373ffffffffffffffffffffffffffffffffffffffff1673ffffffffffffffffffffffffffffffffffffffff1681526020019081526020015f20546102129190610cdf565b9050805f5f3373ffffffffffffffffffffffffffffffffffffffff1673ffffffffffffffffffffffffffffffffffffffff1681526020019081526020015f20819055503373ffffffffffffffffffffffffffffffffffffffff167f5d8bc849764969eb1bcc6d0a2f55999d0167c1ccec240a4f39cf664ca9c4148e3460405161029b9190610d21565b60405180910390a26102ad338261039c565b005b3480156102ba575f5ffd5b506102c36107ad565b005b3480156102d0575f5ffd5b506102eb60048036038101906102e69190610d98565b6108df565b6040516102f89190610d21565b60405180910390f35b34801561030c575f5ffd5b5061032760048036038101906103229190610ded565b610992565b604051610335929190610e27565b60405180910390f35b348015610349575f5ffd5b506103526109d8565b60405161035f9190610f2f565b60405180910390f35b348015610373575f5ffd5b5061037c610a87565b6040516103899190610f48565b60405180910390f35b61039a610aac565b005b5f5f90505f6002600380602002604051908101604052809291905f905b8282101561043f578382600202016040518060400160405290815f82015f9054906101000a900473ffffffffffffffffffffffffffffffffffffffff1673ffffffffffffffffffffffffffffffffffffffff1673ffffffffffffffffffffffffffffffffffffffff168152602001600182015481525050815260200190600101906103b9565b5050505090505f5f90505b60038110156104d75781816003811061046657610465610f61565b5b60200201515f015173ffffffffffffffffffffffffffffffffffffffff168573ffffffffffffffffffffffffffffffffffffffff16036104ca57838282600381106104b4576104b3610f61565b5b60200201516020018181525050600192506104d7565b808060010191505061044a565b50811580156105015750806002600381106104f5576104f4610f61565b5b60200201516020015183115b1561054e5760405180604001604052808573ffffffffffffffffffffffffffffffffffffffff168152602001848152508160026003811061054557610544610f61565b5b60200201819052505b5f5f90505b600381101561063f575f60018261056a9190610cdf565b90505b60038110156106315782816003811061058957610588610f61565b5b6020020151602001518383600381106105a5576105a4610f61565b5b6020020151602001511015610624575f8383600381106105c8576105c7610f61565b5b602002015190508382600381106105e2576105e1610f61565b5b60200201518484600381106105fa576105f9610f61565b5b60200201819052508084836003811061061657610615610f61565b5b602002018190525050610631565b808060010191505061056d565b508080600101915050610553565b505f5f90505b60038110156107a65781816003811061066157610660610f61565b5b60200201515f015173ffffffffffffffffffffffffffffffffffffffff166002826003811061069357610692610f61565b5b600202015f015f9054906101000a900473ffffffffffffffffffffffffffffffffffffffff1673ffffffffffffffffffffffffffffffffffffffff1614158061071257508181600381106106ea576106e9610f61565b5b6020020151602001516002826003811061070757610706610f61565b5b600202016001015414155b156107995781816003811061072a57610729610f61565b5b60200201516002826003811061074357610742610f61565b5b600202015f820151815f015f6101000a81548173ffffffffffffffffffffffffffffffffffffffff021916908373ffffffffffffffffffffffffffffffffffffffff160217905550602082015181600101559050505b8080600101915050610645565b5050505050565b60015f9054906101000a900473ffffffffffffffffffffffffffffffffffffffff1673ffffffffffffffffffffffffffffffffffffffff163373ffffffffffffffffffffffffffffffffffffffff161461083c576040517f08c379a000000000000000000000000000000000000000000000000000000000815260040161083390610fd8565b60405180910390fd5b5f47905060015f9054906101000a900473ffffffffffffffffffffffffffffffffffffffff1673ffffffffffffffffffffffffffffffffffffffff166108fc8290811502906040515f60405180830381858888f193505050501580156108a4573d5f5f3e3d5ffd5b507f5b6b431d4476a211bb7d41c20d1aab9ae2321deee0d20be3d9fc9b1093fa6e3d816040516108d49190610d21565b60405180910390a150565b5f5f73ffffffffffffffffffffffffffffffffffffffff168273ffffffffffffffffffffffffffffffffffffffff160361094e576040517f08c379a000000000000000000000000000000000000000000000000000000000815260040161094590611040565b60405180910390fd5b5f5f8373ffffffffffffffffffffffffffffffffffffffff1673ffffffffffffffffffffffffffffffffffffffff1681526020019081526020015f20549050919050565b600281600381106109a1575f80fd5b600202015f91509050805f015f9054906101000a900473ffffffffffffffffffffffffffffffffffffffff16908060010154905082565b6109e0610bd6565b6002600380602002604051908101604052809291905f905b82821015610a7e578382600202016040518060400160405290815f82015f9054906101000a900473ffffffffffffffffffffffffffffffffffffffff1673ffffffffffffffffffffffffffffffffffffffff1673ffffffffffffffffffffffffffffffffffffffff168152602001600182015481525050815260200190600101906109f8565b50505050905090565b60015f9054906101000a900473ffffffffffffffffffffffffffffffffffffffff1681565b5f341015610aef576040517f08c379a0000000000000000000000000000000000000000000000000000000008152600401610ae6906110a8565b60405180910390fd5b5f345f5f3373ffffffffffffffffffffffffffffffffffffffff1673ffffffffffffffffffffffffffffffffffffffff1681526020019081526020015f2054610b389190610cdf565b9050805f5f3373ffffffffffffffffffffffffffffffffffffffff1673ffffffffffffffffffffffffffffffffffffffff1681526020019081526020015f20819055503373ffffffffffffffffffffffffffffffffffffffff167f5d8bc849764969eb1bcc6d0a2f55999d0167c1ccec240a4f39cf664ca9c4148e34604051610bc19190610d21565b60405180910390a2610bd3338261039c565b50565b60405180606001604052806003905b610bed610c03565b815260200190600190039081610be55790505090565b60405180604001604052805f73ffffffffffffffffffffffffffffffffffffffff1681526020015f81525090565b5f82825260208201905092915050565b7f4e6f7420656e6f756768206574680000000000000000000000000000000000005f82015250565b5f610c75600e83610c31565b9150610c8082610c41565b602082019050919050565b5f6020820190508181035f830152610ca281610c69565b9050919050565b5f819050919050565b7f4e487b71000000000000000000000000000000000000000000000000000000005f52601160045260245ffd5b5f610ce982610ca9565b9150610cf483610ca9565b9250828201905080821115610d0c57610d0b610cb2565b5b92915050565b610d1b81610ca9565b82525050565b5f602082019050610d345f830184610d12565b92915050565b5f5ffd5b5f73ffffffffffffffffffffffffffffffffffffffff82169050919050565b5f610d6782610d3e565b9050919050565b610d7781610d5d565b8114610d81575f5ffd5b50565b5f81359050610d9281610d6e565b92915050565b5f60208284031215610dad57610dac610d3a565b5b5f610dba84828501610d84565b91505092915050565b610dcc81610ca9565b8114610dd6575f5ffd5b50565b5f81359050610de781610dc3565b92915050565b5f60208284031215610e0257610e01610d3a565b5b5f610e0f84828501610dd9565b91505092915050565b610e2181610d5d565b82525050565b5f604082019050610e3a5f830185610e18565b610e476020830184610d12565b9392505050565b5f60039050919050565b5f81905092915050565b5f819050919050565b610e7481610d5d565b82525050565b610e8381610ca9565b82525050565b604082015f820151610e9d5f850182610e6b565b506020820151610eb06020850182610e7a565b50505050565b5f610ec18383610e89565b60408301905092915050565b5f602082019050919050565b610ee281610e4e565b610eec8184610e58565b9250610ef782610e62565b805f5b83811015610f27578151610f0e8782610eb6565b9650610f1983610ecd565b925050600181019050610efa565b505050505050565b5f60c082019050610f425f830184610ed9565b92915050565b5f602082019050610f5b5f830184610e18565b92915050565b7f4e487b71000000000000000000000000000000000000000000000000000000005f52603260045260245ffd5b7f6d757374206265206f776e6572000000000000000000000000000000000000005f82015250565b5f610fc2600d83610c31565b9150610fcd82610f8e565b602082019050919050565b5f6020820190508181035f830152610fef81610fb6565b9050919050565b7f616464726573732063616e6e6f742062652030000000000000000000000000005f82015250565b5f61102a601383610c31565b915061103582610ff6565b602082019050919050565b5f6020820190508181035f8301526110578161101e565b9050919050565b7f6e6f7420656e6f756768206574680000000000000000000000000000000000005f82015250565b5f611092600e83610c31565b915061109d8261105e565b602082019050919050565b5f6020820190508181035f8301526110bf81611086565b905091905056fea2646970667358221220dc45cf03a2c02f44f9aaeab8b826e53e54378ce8d0808269ebacabd1c24161b564736f6c634300081e0033",
					"opcodes": "PUSH1 0x80 PUSH1 0x40 MSTORE CALLVALUE DUP1 ISZERO PUSH1 0xE JUMPI PUSH0 PUSH0 REVERT JUMPDEST POP CALLER PUSH1 0x1 PUSH0 PUSH2 0x100 EXP DUP2 SLOAD DUP2 PUSH20 0xFFFFFFFFFFFFFFFFFFFFFFFFFFFFFFFFFFFFFFFF MUL NOT AND SWAP1 DUP4 PUSH20 0xFFFFFFFFFFFFFFFFFFFFFFFFFFFFFFFFFFFFFFFF AND MUL OR SWAP1 SSTORE POP PUSH2 0x10FC DUP1 PUSH2 0x5C PUSH0 CODECOPY PUSH0 RETURN INVALID PUSH1 0x80 PUSH1 0x40 MSTORE PUSH1 0x4 CALLDATASIZE LT PUSH2 0x58 JUMPI PUSH0 CALLDATALOAD PUSH1 0xE0 SHR DUP1 PUSH4 0x3CCFD60B EQ PUSH2 0x2AF JUMPI DUP1 PUSH4 0x410A1D32 EQ PUSH2 0x2C5 JUMPI DUP1 PUSH4 0x4ABFA163 EQ PUSH2 0x301 JUMPI DUP1 PUSH4 0x5569C4FF EQ PUSH2 0x33E JUMPI DUP1 PUSH4 0x8DA5CB5B EQ PUSH2 0x368 JUMPI DUP1 PUSH4 0xED88C68E EQ PUSH2 0x392 JUMPI PUSH2 0x186 JUMP JUMPDEST CALLDATASIZE PUSH2 0x186 JUMPI PUSH0 CALLVALUE LT ISZERO PUSH2 0xA0 JUMPI PUSH1 0x40 MLOAD PUSH32 0x8C379A000000000000000000000000000000000000000000000000000000000 DUP2 MSTORE PUSH1 0x4 ADD PUSH2 0x97 SWAP1 PUSH2 0xC8B JUMP JUMPDEST PUSH1 0x40 MLOAD DUP1 SWAP2 SUB SWAP1 REVERT JUMPDEST PUSH0 CALLVALUE PUSH0 PUSH0 CALLER PUSH20 0xFFFFFFFFFFFFFFFFFFFFFFFFFFFFFFFFFFFFFFFF AND PUSH20 0xFFFFFFFFFFFFFFFFFFFFFFFFFFFFFFFFFFFFFFFF AND DUP2 MSTORE PUSH1 0x20 ADD SWAP1 DUP2 MSTORE PUSH1 0x20 ADD PUSH0 KECCAK256 SLOAD PUSH2 0xE9 SWAP2 SWAP1 PUSH2 0xCDF JUMP JUMPDEST SWAP1 POP DUP1 PUSH0 PUSH0 CALLER PUSH20 0xFFFFFFFFFFFFFFFFFFFFFFFFFFFFFFFFFFFFFFFF AND PUSH20 0xFFFFFFFFFFFFFFFFFFFFFFFFFFFFFFFFFFFFFFFF AND DUP2 MSTORE PUSH1 0x20 ADD SWAP1 DUP2 MSTORE PUSH1 0x20 ADD PUSH0 KECCAK256 DUP2 SWAP1 SSTORE POP CALLER PUSH20 0xFFFFFFFFFFFFFFFFFFFFFFFFFFFFFFFFFFFFFFFF AND PUSH32 0x5D8BC849764969EB1BCC6D0A2F55999D0167C1CCEC240A4F39CF664CA9C4148E CALLVALUE PUSH1 0x40 MLOAD PUSH2 0x172 SWAP2 SWAP1 PUSH2 0xD21 JUMP JUMPDEST PUSH1 0x40 MLOAD DUP1 SWAP2 SUB SWAP1 LOG2 PUSH2 0x184 CALLER DUP3 PUSH2 0x39C JUMP JUMPDEST STOP JUMPDEST PUSH0 CALLVALUE LT ISZERO PUSH2 0x1C9 JUMPI PUSH1 0x40 MLOAD PUSH32 0x8C379A000000000000000000000000000000000000000000000000000000000 DUP2 MSTORE PUSH1 0x4 ADD PUSH2 0x1C0 SWAP1 PUSH2 0xC8B JUMP JUMPDEST PUSH1 0x40 MLOAD DUP1 SWAP2 SUB SWAP1 REVERT JUMPDEST PUSH0 CALLVALUE PUSH0 PUSH0 CALLER PUSH20 0xFFFFFFFFFFFFFFFFFFFFFFFFFFFFFFFFFFFFFFFF AND PUSH20 0xFFFFFFFFFFFFFFFFFFFFFFFFFFFFFFFFFFFFFFFF AND DUP2 MSTORE PUSH1 0x20 ADD SWAP1 DUP2 MSTORE PUSH1 0x20 ADD PUSH0 KECCAK256 SLOAD PUSH2 0x212 SWAP2 SWAP1 PUSH2 0xCDF JUMP JUMPDEST SWAP1 POP DUP1 PUSH0 PUSH0 CALLER PUSH20 0xFFFFFFFFFFFFFFFFFFFFFFFFFFFFFFFFFFFFFFFF AND PUSH20 0xFFFFFFFFFFFFFFFFFFFFFFFFFFFFFFFFFFFFFFFF AND DUP2 MSTORE PUSH1 0x20 ADD SWAP1 DUP2 MSTORE PUSH1 0x20 ADD PUSH0 KECCAK256 DUP2 SWAP1 SSTORE POP CALLER PUSH20 0xFFFFFFFFFFFFFFFFFFFFFFFFFFFFFFFFFFFFFFFF AND PUSH32 0x5D8BC849764969EB1BCC6D0A2F55999D0167C1CCEC240A4F39CF664CA9C4148E CALLVALUE PUSH1 0x40 MLOAD PUSH2 0x29B SWAP2 SWAP1 PUSH2 0xD21 JUMP JUMPDEST PUSH1 0x40 MLOAD DUP1 SWAP2 SUB SWAP1 LOG2 PUSH2 0x2AD CALLER DUP3 PUSH2 0x39C JUMP JUMPDEST STOP JUMPDEST CALLVALUE DUP1 ISZERO PUSH2 0x2BA JUMPI PUSH0 PUSH0 REVERT JUMPDEST POP PUSH2 0x2C3 PUSH2 0x7AD JUMP JUMPDEST STOP JUMPDEST CALLVALUE DUP1 ISZERO PUSH2 0x2D0 JUMPI PUSH0 PUSH0 REVERT JUMPDEST POP PUSH2 0x2EB PUSH1 0x4 DUP1 CALLDATASIZE SUB DUP2 ADD SWAP1 PUSH2 0x2E6 SWAP2 SWAP1 PUSH2 0xD98 JUMP JUMPDEST PUSH2 0x8DF JUMP JUMPDEST PUSH1 0x40 MLOAD PUSH2 0x2F8 SWAP2 SWAP1 PUSH2 0xD21 JUMP JUMPDEST PUSH1 0x40 MLOAD DUP1 SWAP2 SUB SWAP1 RETURN JUMPDEST CALLVALUE DUP1 ISZERO PUSH2 0x30C JUMPI PUSH0 PUSH0 REVERT JUMPDEST POP PUSH2 0x327 PUSH1 0x4 DUP1 CALLDATASIZE SUB DUP2 ADD SWAP1 PUSH2 0x322 SWAP2 SWAP1 PUSH2 0xDED JUMP JUMPDEST PUSH2 0x992 JUMP JUMPDEST PUSH1 0x40 MLOAD PUSH2 0x335 SWAP3 SWAP2 SWAP1 PUSH2 0xE27 JUMP JUMPDEST PUSH1 0x40 MLOAD DUP1 SWAP2 SUB SWAP1 RETURN JUMPDEST CALLVALUE DUP1 ISZERO PUSH2 0x349 JUMPI PUSH0 PUSH0 REVERT JUMPDEST POP PUSH2 0x352 PUSH2 0x9D8 JUMP JUMPDEST PUSH1 0x40 MLOAD PUSH2 0x35F SWAP2 SWAP1 PUSH2 0xF2F JUMP JUMPDEST PUSH1 0x40 MLOAD DUP1 SWAP2 SUB SWAP1 RETURN JUMPDEST CALLVALUE DUP1 ISZERO PUSH2 0x373 JUMPI PUSH0 PUSH0 REVERT JUMPDEST POP PUSH2 0x37C PUSH2 0xA87 JUMP JUMPDEST PUSH1 0x40 MLOAD PUSH2 0x389 SWAP2 SWAP1 PUSH2 0xF48 JUMP JUMPDEST PUSH1 0x40 MLOAD DUP1 SWAP2 SUB SWAP1 RETURN JUMPDEST PUSH2 0x39A PUSH2 0xAAC JUMP JUMPDEST STOP JUMPDEST PUSH0 PUSH0 SWAP1 POP PUSH0 PUSH1 0x2 PUSH1 0x3 DUP1 PUSH1 0x20 MUL PUSH1 0x40 MLOAD SWAP1 DUP2 ADD PUSH1 0x40 MSTORE DUP1 SWAP3 SWAP2 SWAP1 PUSH0 SWAP1 JUMPDEST DUP3 DUP3 LT ISZERO PUSH2 0x43F JUMPI DUP4 DUP3 PUSH1 0x2 MUL ADD PUSH1 0x40 MLOAD DUP1 PUSH1 0x40 ADD PUSH1 0x40 MSTORE SWAP1 DUP2 PUSH0 DUP3 ADD PUSH0 SWAP1 SLOAD SWAP1 PUSH2 0x100 EXP SWAP1 DIV PUSH20 0xFFFFFFFFFFFFFFFFFFFFFFFFFFFFFFFFFFFFFFFF AND PUSH20 0xFFFFFFFFFFFFFFFFFFFFFFFFFFFFFFFFFFFFFFFF AND PUSH20 0xFFFFFFFFFFFFFFFFFFFFFFFFFFFFFFFFFFFFFFFF AND DUP2 MSTORE PUSH1 0x20 ADD PUSH1 0x1 DUP3 ADD SLOAD DUP2 MSTORE POP POP DUP2 MSTORE PUSH1 0x20 ADD SWAP1 PUSH1 0x1 ADD SWAP1 PUSH2 0x3B9 JUMP JUMPDEST POP POP POP POP SWAP1 POP PUSH0 PUSH0 SWAP1 POP JUMPDEST PUSH1 0x3 DUP2 LT ISZERO PUSH2 0x4D7 JUMPI DUP2 DUP2 PUSH1 0x3 DUP2 LT PUSH2 0x466 JUMPI PUSH2 0x465 PUSH2 0xF61 JUMP JUMPDEST JUMPDEST PUSH1 0x20 MUL ADD MLOAD PUSH0 ADD MLOAD PUSH20 0xFFFFFFFFFFFFFFFFFFFFFFFFFFFFFFFFFFFFFFFF AND DUP6 PUSH20 0xFFFFFFFFFFFFFFFFFFFFFFFFFFFFFFFFFFFFFFFF AND SUB PUSH2 0x4CA JUMPI DUP4 DUP3 DUP3 PUSH1 0x3 DUP2 LT PUSH2 0x4B4 JUMPI PUSH2 0x4B3 PUSH2 0xF61 JUMP JUMPDEST JUMPDEST PUSH1 0x20 MUL ADD MLOAD PUSH1 0x20 ADD DUP2 DUP2 MSTORE POP POP PUSH1 0x1 SWAP3 POP PUSH2 0x4D7 JUMP JUMPDEST DUP1 DUP1 PUSH1 0x1 ADD SWAP2 POP POP PUSH2 0x44A JUMP JUMPDEST POP DUP2 ISZERO DUP1 ISZERO PUSH2 0x501 JUMPI POP DUP1 PUSH1 0x2 PUSH1 0x3 DUP2 LT PUSH2 0x4F5 JUMPI PUSH2 0x4F4 PUSH2 0xF61 JUMP JUMPDEST JUMPDEST PUSH1 0x20 MUL ADD MLOAD PUSH1 0x20 ADD MLOAD DUP4 GT JUMPDEST ISZERO PUSH2 0x54E JUMPI PUSH1 0x40 MLOAD DUP1 PUSH1 0x40 ADD PUSH1 0x40 MSTORE DUP1 DUP6 PUSH20 0xFFFFFFFFFFFFFFFFFFFFFFFFFFFFFFFFFFFFFFFF AND DUP2 MSTORE PUSH1 0x20 ADD DUP5 DUP2 MSTORE POP DUP2 PUSH1 0x2 PUSH1 0x3 DUP2 LT PUSH2 0x545 JUMPI PUSH2 0x544 PUSH2 0xF61 JUMP JUMPDEST JUMPDEST PUSH1 0x20 MUL ADD DUP2 SWAP1 MSTORE POP JUMPDEST PUSH0 PUSH0 SWAP1 POP JUMPDEST PUSH1 0x3 DUP2 LT ISZERO PUSH2 0x63F JUMPI PUSH0 PUSH1 0x1 DUP3 PUSH2 0x56A SWAP2 SWAP1 PUSH2 0xCDF JUMP JUMPDEST SWAP1 POP JUMPDEST PUSH1 0x3 DUP2 LT ISZERO PUSH2 0x631 JUMPI DUP3 DUP2 PUSH1 0x3 DUP2 LT PUSH2 0x589 JUMPI PUSH2 0x588 PUSH2 0xF61 JUMP JUMPDEST JUMPDEST PUSH1 0x20 MUL ADD MLOAD PUSH1 0x20 ADD MLOAD DUP4 DUP4 PUSH1 0x3 DUP2 LT PUSH2 0x5A5 JUMPI PUSH2 0x5A4 PUSH2 0xF61 JUMP JUMPDEST JUMPDEST PUSH1 0x20 MUL ADD MLOAD PUSH1 0x20 ADD MLOAD LT ISZERO PUSH2 0x624 JUMPI PUSH0 DUP4 DUP4 PUSH1 0x3 DUP2 LT PUSH2 0x5C8 JUMPI PUSH2 0x5C7 PUSH2 0xF61 JUMP JUMPDEST JUMPDEST PUSH1 0x20 MUL ADD MLOAD SWAP1 POP DUP4 DUP3 PUSH1 0x3 DUP2 LT PUSH2 0x5E2 JUMPI PUSH2 0x5E1 PUSH2 0xF61 JUMP JUMPDEST JUMPDEST PUSH1 0x20 MUL ADD MLOAD DUP5 DUP5 PUSH1 0x3 DUP2 LT PUSH2 0x5FA JUMPI PUSH2 0x5F9 PUSH2 0xF61 JUMP JUMPDEST JUMPDEST PUSH1 0x20 MUL ADD DUP2 SWAP1 MSTORE POP DUP1 DUP5 DUP4 PUSH1 0x3 DUP2 LT PUSH2 0x616 JUMPI PUSH2 0x615 PUSH2 0xF61 JUMP JUMPDEST JUMPDEST PUSH1 0x20 MUL ADD DUP2 SWAP1 MSTORE POP POP PUSH2 0x631 JUMP JUMPDEST DUP1 DUP1 PUSH1 0x1 ADD SWAP2 POP POP PUSH2 0x56D JUMP JUMPDEST POP DUP1 DUP1 PUSH1 0x1 ADD SWAP2 POP POP PUSH2 0x553 JUMP JUMPDEST POP PUSH0 PUSH0 SWAP1 POP JUMPDEST PUSH1 0x3 DUP2 LT ISZERO PUSH2 0x7A6 JUMPI DUP2 DUP2 PUSH1 0x3 DUP2 LT PUSH2 0x661 JUMPI PUSH2 0x660 PUSH2 0xF61 JUMP JUMPDEST JUMPDEST PUSH1 0x20 MUL ADD MLOAD PUSH0 ADD MLOAD PUSH20 0xFFFFFFFFFFFFFFFFFFFFFFFFFFFFFFFFFFFFFFFF AND PUSH1 0x2 DUP3 PUSH1 0x3 DUP2 LT PUSH2 0x693 JUMPI PUSH2 0x692 PUSH2 0xF61 JUMP JUMPDEST JUMPDEST PUSH1 0x2 MUL ADD PUSH0 ADD PUSH0 SWAP1 SLOAD SWAP1 PUSH2 0x100 EXP SWAP1 DIV PUSH20 0xFFFFFFFFFFFFFFFFFFFFFFFFFFFFFFFFFFFFFFFF AND PUSH20 0xFFFFFFFFFFFFFFFFFFFFFFFFFFFFFFFFFFFFFFFF AND EQ ISZERO DUP1 PUSH2 0x712 JUMPI POP DUP2 DUP2 PUSH1 0x3 DUP2 LT PUSH2 0x6EA JUMPI PUSH2 0x6E9 PUSH2 0xF61 JUMP JUMPDEST JUMPDEST PUSH1 0x20 MUL ADD MLOAD PUSH1 0x20 ADD MLOAD PUSH1 0x2 DUP3 PUSH1 0x3 DUP2 LT PUSH2 0x707 JUMPI PUSH2 0x706 PUSH2 0xF61 JUMP JUMPDEST JUMPDEST PUSH1 0x2 MUL ADD PUSH1 0x1 ADD SLOAD EQ ISZERO JUMPDEST ISZERO PUSH2 0x799 JUMPI DUP2 DUP2 PUSH1 0x3 DUP2 LT PUSH2 0x72A JUMPI PUSH2 0x729 PUSH2 0xF61 JUMP JUMPDEST JUMPDEST PUSH1 0x20 MUL ADD MLOAD PUSH1 0x2 DUP3 PUSH1 0x3 DUP2 LT PUSH2 0x743 JUMPI PUSH2 0x742 PUSH2 0xF61 JUMP JUMPDEST JUMPDEST PUSH1 0x2 MUL ADD PUSH0 DUP3 ADD MLOAD DUP2 PUSH0 ADD PUSH0 PUSH2 0x100 EXP DUP2 SLOAD DUP2 PUSH20 0xFFFFFFFFFFFFFFFFFFFFFFFFFFFFFFFFFFFFFFFF MUL NOT AND SWAP1 DUP4 PUSH20 0xFFFFFFFFFFFFFFFFFFFFFFFFFFFFFFFFFFFFFFFF AND MUL OR SWAP1 SSTORE POP PUSH1 0x20 DUP3 ADD MLOAD DUP2 PUSH1 0x1 ADD SSTORE SWAP1 POP POP JUMPDEST DUP1 DUP1 PUSH1 0x1 ADD SWAP2 POP POP PUSH2 0x645 JUMP JUMPDEST POP POP POP POP POP JUMP JUMPDEST PUSH1 0x1 PUSH0 SWAP1 SLOAD SWAP1 PUSH2 0x100 EXP SWAP1 DIV PUSH20 0xFFFFFFFFFFFFFFFFFFFFFFFFFFFFFFFFFFFFFFFF AND PUSH20 0xFFFFFFFFFFFFFFFFFFFFFFFFFFFFFFFFFFFFFFFF AND CALLER PUSH20 0xFFFFFFFFFFFFFFFFFFFFFFFFFFFFFFFFFFFFFFFF AND EQ PUSH2 0x83C JUMPI PUSH1 0x40 MLOAD PUSH32 0x8C379A000000000000000000000000000000000000000000000000000000000 DUP2 MSTORE PUSH1 0x4 ADD PUSH2 0x833 SWAP1 PUSH2 0xFD8 JUMP JUMPDEST PUSH1 0x40 MLOAD DUP1 SWAP2 SUB SWAP1 REVERT JUMPDEST PUSH0 SELFBALANCE SWAP1 POP PUSH1 0x1 PUSH0 SWAP1 SLOAD SWAP1 PUSH2 0x100 EXP SWAP1 DIV PUSH20 0xFFFFFFFFFFFFFFFFFFFFFFFFFFFFFFFFFFFFFFFF AND PUSH20 0xFFFFFFFFFFFFFFFFFFFFFFFFFFFFFFFFFFFFFFFF AND PUSH2 0x8FC DUP3 SWAP1 DUP2 ISZERO MUL SWAP1 PUSH1 0x40 MLOAD PUSH0 PUSH1 0x40 MLOAD DUP1 DUP4 SUB DUP2 DUP6 DUP9 DUP9 CALL SWAP4 POP POP POP POP ISZERO DUP1 ISZERO PUSH2 0x8A4 JUMPI RETURNDATASIZE PUSH0 PUSH0 RETURNDATACOPY RETURNDATASIZE PUSH0 REVERT JUMPDEST POP PUSH32 0x5B6B431D4476A211BB7D41C20D1AAB9AE2321DEEE0D20BE3D9FC9B1093FA6E3D DUP2 PUSH1 0x40 MLOAD PUSH2 0x8D4 SWAP2 SWAP1 PUSH2 0xD21 JUMP JUMPDEST PUSH1 0x40 MLOAD DUP1 SWAP2 SUB SWAP1 LOG1 POP JUMP JUMPDEST PUSH0 PUSH0 PUSH20 0xFFFFFFFFFFFFFFFFFFFFFFFFFFFFFFFFFFFFFFFF AND DUP3 PUSH20 0xFFFFFFFFFFFFFFFFFFFFFFFFFFFFFFFFFFFFFFFF AND SUB PUSH2 0x94E JUMPI PUSH1 0x40 MLOAD PUSH32 0x8C379A000000000000000000000000000000000000000000000000000000000 DUP2 MSTORE PUSH1 0x4 ADD PUSH2 0x945 SWAP1 PUSH2 0x1040 JUMP JUMPDEST PUSH1 0x40 MLOAD DUP1 SWAP2 SUB SWAP1 REVERT JUMPDEST PUSH0 PUSH0 DUP4 PUSH20 0xFFFFFFFFFFFFFFFFFFFFFFFFFFFFFFFFFFFFFFFF AND PUSH20 0xFFFFFFFFFFFFFFFFFFFFFFFFFFFFFFFFFFFFFFFF AND DUP2 MSTORE PUSH1 0x20 ADD SWAP1 DUP2 MSTORE PUSH1 0x20 ADD PUSH0 KECCAK256 SLOAD SWAP1 POP SWAP2 SWAP1 POP JUMP JUMPDEST PUSH1 0x2 DUP2 PUSH1 0x3 DUP2 LT PUSH2 0x9A1 JUMPI PUSH0 DUP1 REVERT JUMPDEST PUSH1 0x2 MUL ADD PUSH0 SWAP2 POP SWAP1 POP DUP1 PUSH0 ADD PUSH0 SWAP1 SLOAD SWAP1 PUSH2 0x100 EXP SWAP1 DIV PUSH20 0xFFFFFFFFFFFFFFFFFFFFFFFFFFFFFFFFFFFFFFFF AND SWAP1 DUP1 PUSH1 0x1 ADD SLOAD SWAP1 POP DUP3 JUMP JUMPDEST PUSH2 0x9E0 PUSH2 0xBD6 JUMP JUMPDEST PUSH1 0x2 PUSH1 0x3 DUP1 PUSH1 0x20 MUL PUSH1 0x40 MLOAD SWAP1 DUP2 ADD PUSH1 0x40 MSTORE DUP1 SWAP3 SWAP2 SWAP1 PUSH0 SWAP1 JUMPDEST DUP3 DUP3 LT ISZERO PUSH2 0xA7E JUMPI DUP4 DUP3 PUSH1 0x2 MUL ADD PUSH1 0x40 MLOAD DUP1 PUSH1 0x40 ADD PUSH1 0x40 MSTORE SWAP1 DUP2 PUSH0 DUP3 ADD PUSH0 SWAP1 SLOAD SWAP1 PUSH2 0x100 EXP SWAP1 DIV PUSH20 0xFFFFFFFFFFFFFFFFFFFFFFFFFFFFFFFFFFFFFFFF AND PUSH20 0xFFFFFFFFFFFFFFFFFFFFFFFFFFFFFFFFFFFFFFFF AND PUSH20 0xFFFFFFFFFFFFFFFFFFFFFFFFFFFFFFFFFFFFFFFF AND DUP2 MSTORE PUSH1 0x20 ADD PUSH1 0x1 DUP3 ADD SLOAD DUP2 MSTORE POP POP DUP2 MSTORE PUSH1 0x20 ADD SWAP1 PUSH1 0x1 ADD SWAP1 PUSH2 0x9F8 JUMP JUMPDEST POP POP POP POP SWAP1 POP SWAP1 JUMP JUMPDEST PUSH1 0x1 PUSH0 SWAP1 SLOAD SWAP1 PUSH2 0x100 EXP SWAP1 DIV PUSH20 0xFFFFFFFFFFFFFFFFFFFFFFFFFFFFFFFFFFFFFFFF AND DUP2 JUMP JUMPDEST PUSH0 CALLVALUE LT ISZERO PUSH2 0xAEF JUMPI PUSH1 0x40 MLOAD PUSH32 0x8C379A000000000000000000000000000000000000000000000000000000000 DUP2 MSTORE PUSH1 0x4 ADD PUSH2 0xAE6 SWAP1 PUSH2 0x10A8 JUMP JUMPDEST PUSH1 0x40 MLOAD DUP1 SWAP2 SUB SWAP1 REVERT JUMPDEST PUSH0 CALLVALUE PUSH0 PUSH0 CALLER PUSH20 0xFFFFFFFFFFFFFFFFFFFFFFFFFFFFFFFFFFFFFFFF AND PUSH20 0xFFFFFFFFFFFFFFFFFFFFFFFFFFFFFFFFFFFFFFFF AND DUP2 MSTORE PUSH1 0x20 ADD SWAP1 DUP2 MSTORE PUSH1 0x20 ADD PUSH0 KECCAK256 SLOAD PUSH2 0xB38 SWAP2 SWAP1 PUSH2 0xCDF JUMP JUMPDEST SWAP1 POP DUP1 PUSH0 PUSH0 CALLER PUSH20 0xFFFFFFFFFFFFFFFFFFFFFFFFFFFFFFFFFFFFFFFF AND PUSH20 0xFFFFFFFFFFFFFFFFFFFFFFFFFFFFFFFFFFFFFFFF AND DUP2 MSTORE PUSH1 0x20 ADD SWAP1 DUP2 MSTORE PUSH1 0x20 ADD PUSH0 KECCAK256 DUP2 SWAP1 SSTORE POP CALLER PUSH20 0xFFFFFFFFFFFFFFFFFFFFFFFFFFFFFFFFFFFFFFFF AND PUSH32 0x5D8BC849764969EB1BCC6D0A2F55999D0167C1CCEC240A4F39CF664CA9C4148E CALLVALUE PUSH1 0x40 MLOAD PUSH2 0xBC1 SWAP2 SWAP1 PUSH2 0xD21 JUMP JUMPDEST PUSH1 0x40 MLOAD DUP1 SWAP2 SUB SWAP1 LOG2 PUSH2 0xBD3 CALLER DUP3 PUSH2 0x39C JUMP JUMPDEST POP JUMP JUMPDEST PUSH1 0x40 MLOAD DUP1 PUSH1 0x60 ADD PUSH1 0x40 MSTORE DUP1 PUSH1 0x3 SWAP1 JUMPDEST PUSH2 0xBED PUSH2 0xC03 JUMP JUMPDEST DUP2 MSTORE PUSH1 0x20 ADD SWAP1 PUSH1 0x1 SWAP1 SUB SWAP1 DUP2 PUSH2 0xBE5 JUMPI SWAP1 POP POP SWAP1 JUMP JUMPDEST PUSH1 0x40 MLOAD DUP1 PUSH1 0x40 ADD PUSH1 0x40 MSTORE DUP1 PUSH0 PUSH20 0xFFFFFFFFFFFFFFFFFFFFFFFFFFFFFFFFFFFFFFFF AND DUP2 MSTORE PUSH1 0x20 ADD PUSH0 DUP2 MSTORE POP SWAP1 JUMP JUMPDEST PUSH0 DUP3 DUP3 MSTORE PUSH1 0x20 DUP3 ADD SWAP1 POP SWAP3 SWAP2 POP POP JUMP JUMPDEST PUSH32 0x4E6F7420656E6F75676820657468000000000000000000000000000000000000 PUSH0 DUP3 ADD MSTORE POP JUMP JUMPDEST PUSH0 PUSH2 0xC75 PUSH1 0xE DUP4 PUSH2 0xC31 JUMP JUMPDEST SWAP2 POP PUSH2 0xC80 DUP3 PUSH2 0xC41 JUMP JUMPDEST PUSH1 0x20 DUP3 ADD SWAP1 POP SWAP2 SWAP1 POP JUMP JUMPDEST PUSH0 PUSH1 0x20 DUP3 ADD SWAP1 POP DUP2 DUP2 SUB PUSH0 DUP4 ADD MSTORE PUSH2 0xCA2 DUP2 PUSH2 0xC69 JUMP JUMPDEST SWAP1 POP SWAP2 SWAP1 POP JUMP JUMPDEST PUSH0 DUP2 SWAP1 POP SWAP2 SWAP1 POP JUMP JUMPDEST PUSH32 0x4E487B7100000000000000000000000000000000000000000000000000000000 PUSH0 MSTORE PUSH1 0x11 PUSH1 0x4 MSTORE PUSH1 0x24 PUSH0 REVERT JUMPDEST PUSH0 PUSH2 0xCE9 DUP3 PUSH2 0xCA9 JUMP JUMPDEST SWAP2 POP PUSH2 0xCF4 DUP4 PUSH2 0xCA9 JUMP JUMPDEST SWAP3 POP DUP3 DUP3 ADD SWAP1 POP DUP1 DUP3 GT ISZERO PUSH2 0xD0C JUMPI PUSH2 0xD0B PUSH2 0xCB2 JUMP JUMPDEST JUMPDEST SWAP3 SWAP2 POP POP JUMP JUMPDEST PUSH2 0xD1B DUP2 PUSH2 0xCA9 JUMP JUMPDEST DUP3 MSTORE POP POP JUMP JUMPDEST PUSH0 PUSH1 0x20 DUP3 ADD SWAP1 POP PUSH2 0xD34 PUSH0 DUP4 ADD DUP5 PUSH2 0xD12 JUMP JUMPDEST SWAP3 SWAP2 POP POP JUMP JUMPDEST PUSH0 PUSH0 REVERT JUMPDEST PUSH0 PUSH20 0xFFFFFFFFFFFFFFFFFFFFFFFFFFFFFFFFFFFFFFFF DUP3 AND SWAP1 POP SWAP2 SWAP1 POP JUMP JUMPDEST PUSH0 PUSH2 0xD67 DUP3 PUSH2 0xD3E JUMP JUMPDEST SWAP1 POP SWAP2 SWAP1 POP JUMP JUMPDEST PUSH2 0xD77 DUP2 PUSH2 0xD5D JUMP JUMPDEST DUP2 EQ PUSH2 0xD81 JUMPI PUSH0 PUSH0 REVERT JUMPDEST POP JUMP JUMPDEST PUSH0 DUP2 CALLDATALOAD SWAP1 POP PUSH2 0xD92 DUP2 PUSH2 0xD6E JUMP JUMPDEST SWAP3 SWAP2 POP POP JUMP JUMPDEST PUSH0 PUSH1 0x20 DUP3 DUP5 SUB SLT ISZERO PUSH2 0xDAD JUMPI PUSH2 0xDAC PUSH2 0xD3A JUMP JUMPDEST JUMPDEST PUSH0 PUSH2 0xDBA DUP5 DUP3 DUP6 ADD PUSH2 0xD84 JUMP JUMPDEST SWAP2 POP POP SWAP3 SWAP2 POP POP JUMP JUMPDEST PUSH2 0xDCC DUP2 PUSH2 0xCA9 JUMP JUMPDEST DUP2 EQ PUSH2 0xDD6 JUMPI PUSH0 PUSH0 REVERT JUMPDEST POP JUMP JUMPDEST PUSH0 DUP2 CALLDATALOAD SWAP1 POP PUSH2 0xDE7 DUP2 PUSH2 0xDC3 JUMP JUMPDEST SWAP3 SWAP2 POP POP JUMP JUMPDEST PUSH0 PUSH1 0x20 DUP3 DUP5 SUB SLT ISZERO PUSH2 0xE02 JUMPI PUSH2 0xE01 PUSH2 0xD3A JUMP JUMPDEST JUMPDEST PUSH0 PUSH2 0xE0F DUP5 DUP3 DUP6 ADD PUSH2 0xDD9 JUMP JUMPDEST SWAP2 POP POP SWAP3 SWAP2 POP POP JUMP JUMPDEST PUSH2 0xE21 DUP2 PUSH2 0xD5D JUMP JUMPDEST DUP3 MSTORE POP POP JUMP JUMPDEST PUSH0 PUSH1 0x40 DUP3 ADD SWAP1 POP PUSH2 0xE3A PUSH0 DUP4 ADD DUP6 PUSH2 0xE18 JUMP JUMPDEST PUSH2 0xE47 PUSH1 0x20 DUP4 ADD DUP5 PUSH2 0xD12 JUMP JUMPDEST SWAP4 SWAP3 POP POP POP JUMP JUMPDEST PUSH0 PUSH1 0x3 SWAP1 POP SWAP2 SWAP1 POP JUMP JUMPDEST PUSH0 DUP2 SWAP1 POP SWAP3 SWAP2 POP POP JUMP JUMPDEST PUSH0 DUP2 SWAP1 POP SWAP2 SWAP1 POP JUMP JUMPDEST PUSH2 0xE74 DUP2 PUSH2 0xD5D JUMP JUMPDEST DUP3 MSTORE POP POP JUMP JUMPDEST PUSH2 0xE83 DUP2 PUSH2 0xCA9 JUMP JUMPDEST DUP3 MSTORE POP POP JUMP JUMPDEST PUSH1 0x40 DUP3 ADD PUSH0 DUP3 ADD MLOAD PUSH2 0xE9D PUSH0 DUP6 ADD DUP3 PUSH2 0xE6B JUMP JUMPDEST POP PUSH1 0x20 DUP3 ADD MLOAD PUSH2 0xEB0 PUSH1 0x20 DUP6 ADD DUP3 PUSH2 0xE7A JUMP JUMPDEST POP POP POP POP JUMP JUMPDEST PUSH0 PUSH2 0xEC1 DUP4 DUP4 PUSH2 0xE89 JUMP JUMPDEST PUSH1 0x40 DUP4 ADD SWAP1 POP SWAP3 SWAP2 POP POP JUMP JUMPDEST PUSH0 PUSH1 0x20 DUP3 ADD SWAP1 POP SWAP2 SWAP1 POP JUMP JUMPDEST PUSH2 0xEE2 DUP2 PUSH2 0xE4E JUMP JUMPDEST PUSH2 0xEEC DUP2 DUP5 PUSH2 0xE58 JUMP JUMPDEST SWAP3 POP PUSH2 0xEF7 DUP3 PUSH2 0xE62 JUMP JUMPDEST DUP1 PUSH0 JUMPDEST DUP4 DUP2 LT ISZERO PUSH2 0xF27 JUMPI DUP2 MLOAD PUSH2 0xF0E DUP8 DUP3 PUSH2 0xEB6 JUMP JUMPDEST SWAP7 POP PUSH2 0xF19 DUP4 PUSH2 0xECD JUMP JUMPDEST SWAP3 POP POP PUSH1 0x1 DUP2 ADD SWAP1 POP PUSH2 0xEFA JUMP JUMPDEST POP POP POP POP POP POP JUMP JUMPDEST PUSH0 PUSH1 0xC0 DUP3 ADD SWAP1 POP PUSH2 0xF42 PUSH0 DUP4 ADD DUP5 PUSH2 0xED9 JUMP JUMPDEST SWAP3 SWAP2 POP POP JUMP JUMPDEST PUSH0 PUSH1 0x20 DUP3 ADD SWAP1 POP PUSH2 0xF5B PUSH0 DUP4 ADD DUP5 PUSH2 0xE18 JUMP JUMPDEST SWAP3 SWAP2 POP POP JUMP JUMPDEST PUSH32 0x4E487B7100000000000000000000000000000000000000000000000000000000 PUSH0 MSTORE PUSH1 0x32 PUSH1 0x4 MSTORE PUSH1 0x24 PUSH0 REVERT JUMPDEST PUSH32 0x6D757374206265206F776E657200000000000000000000000000000000000000 PUSH0 DUP3 ADD MSTORE POP JUMP JUMPDEST PUSH0 PUSH2 0xFC2 PUSH1 0xD DUP4 PUSH2 0xC31 JUMP JUMPDEST SWAP2 POP PUSH2 0xFCD DUP3 PUSH2 0xF8E JUMP JUMPDEST PUSH1 0x20 DUP3 ADD SWAP1 POP SWAP2 SWAP1 POP JUMP JUMPDEST PUSH0 PUSH1 0x20 DUP3 ADD SWAP1 POP DUP2 DUP2 SUB PUSH0 DUP4 ADD MSTORE PUSH2 0xFEF DUP2 PUSH2 0xFB6 JUMP JUMPDEST SWAP1 POP SWAP2 SWAP1 POP JUMP JUMPDEST PUSH32 0x616464726573732063616E6E6F74206265203000000000000000000000000000 PUSH0 DUP3 ADD MSTORE POP JUMP JUMPDEST PUSH0 PUSH2 0x102A PUSH1 0x13 DUP4 PUSH2 0xC31 JUMP JUMPDEST SWAP2 POP PUSH2 0x1035 DUP3 PUSH2 0xFF6 JUMP JUMPDEST PUSH1 0x20 DUP3 ADD SWAP1 POP SWAP2 SWAP1 POP JUMP JUMPDEST PUSH0 PUSH1 0x20 DUP3 ADD SWAP1 POP DUP2 DUP2 SUB PUSH0 DUP4 ADD MSTORE PUSH2 0x1057 DUP2 PUSH2 0x101E JUMP JUMPDEST SWAP1 POP SWAP2 SWAP1 POP JUMP JUMPDEST PUSH32 0x6E6F7420656E6F75676820657468000000000000000000000000000000000000 PUSH0 DUP3 ADD MSTORE POP JUMP JUMPDEST PUSH0 PUSH2 0x1092 PUSH1 0xE DUP4 PUSH2 0xC31 JUMP JUMPDEST SWAP2 POP PUSH2 0x109D DUP3 PUSH2 0x105E JUMP JUMPDEST PUSH1 0x20 DUP3 ADD SWAP1 POP SWAP2 SWAP1 POP JUMP JUMPDEST PUSH0 PUSH1 0x20 DUP3 ADD SWAP1 POP DUP2 DUP2 SUB PUSH0 DUP4 ADD MSTORE PUSH2 0x10BF DUP2 PUSH2 0x1086 JUMP JUMPDEST SWAP1 POP SWAP2 SWAP1 POP JUMP INVALID LOG2 PUSH5 0x6970667358 0x22 SLT KECCAK256 0xDC GASLIMIT 0xCF SUB LOG2 0xC0 0x2F PREVRANDAO EXTDELEGATECALL 0xAA 0xEA 0xB8 0xB8 0x26 JUMPF 0x3E54 CALLDATACOPY DUP13 0xE8 0xD0 DUP1 DUP3 PUSH10 0xEBACABD1C24161B56473 PUSH16 0x6C634300081E00330000000000000000 "
				},
				"gasEstimates": {
					"creation": {
						"codeDepositCost": "869600",
						"executionCost": "25166",
						"totalCost": "894766"
					},
					"external": {
						"": "infinite",
						"donate()": "infinite",
						"donors(uint256)": "infinite",
						"getDonation(address)": "2862",
						"owner()": "2574",
						"rankings()": "infinite",
						"withdraw()": "infinite"
					},
					"internal": {
						"updateRanks(address,uint256)": "infinite"
					}
				},
				"methodIdentifiers": {
					"donate()": "ed88c68e",
					"donors(uint256)": "4abfa163",
					"getDonation(address)": "410a1d32",
					"owner()": "8da5cb5b",
					"rankings()": "5569c4ff",
					"withdraw()": "3ccfd60b"
				}
			},
			"storageLayout": {
				"storage": [
					{
						"astId": 15,
						"contract": "contracts/task2/job3.sol:BeggingContract",
						"label": "donations",
						"offset": 0,
						"slot": "0",
						"type": "t_mapping(t_address,t_uint256)"
					},
					{
						"astId": 17,
						"contract": "contracts/task2/job3.sol:BeggingContract",
						"label": "owner",
						"offset": 0,
						"slot": "1",
						"type": "t_address"
					},
					{
						"astId": 222,
						"contract": "contracts/task2/job3.sol:BeggingContract",
						"label": "donors",
						"offset": 0,
						"slot": "2",
						"type": "t_array(t_struct(Donor)217_storage)3_storage"
					}
				],
				"types": {
					"t_address": {
						"encoding": "inplace",
						"label": "address",
						"numberOfBytes": "20"
					},
					"t_array(t_struct(Donor)217_storage)3_storage": {
						"base": "t_struct(Donor)217_storage",
						"encoding": "inplace",
						"label": "struct BeggingContract.Donor[3]",
						"numberOfBytes": "192"
					},
					"t_mapping(t_address,t_uint256)": {
						"encoding": "mapping",
						"key": "t_address",
						"label": "mapping(address => uint256)",
						"numberOfBytes": "32",
						"value": "t_uint256"
					},
					"t_struct(Donor)217_storage": {
						"encoding": "inplace",
						"label": "struct BeggingContract.Donor",
						"members": [
							{
								"astId": 214,
								"contract": "contracts/task2/job3.sol:BeggingContract",
								"label": "sender",
								"offset": 0,
								"slot": "0",
								"type": "t_address"
							},
							{
								"astId": 216,
								"contract": "contracts/task2/job3.sol:BeggingContract",
								"label": "value",
								"offset": 0,
								"slot": "1",
								"type": "t_uint256"
							}
						],
						"numberOfBytes": "64"
					},
					"t_uint256": {
						"encoding": "inplace",
						"label": "uint256",
						"numberOfBytes": "32"
					}
				}
			},
			"userdoc": {
				"kind": "user",
				"methods": {},
				"version": 1
			}
		}
	}
}