{
	"data": {
		"bytecode": {
			"linkReferences": {},
			"object": "6080604052348015600e575f5ffd5b506115f88061001c5f395ff3fe608060405234801561000f575f5ffd5b5060043610610060575f3560e01c80630cbc513a14610064578063aaee9e9514610094578063b12601da146100c4578063cb159dfe146100f4578063de94870914610124578063f3582c6914610154575b5f5ffd5b61007e60048036038101906100799190610ecb565b610184565b60405161008b9190610f66565b60405180910390f35b6100ae60048036038101906100a99190610fe7565b61059d565b6040516100bb919061105c565b60405180910390f35b6100de60048036038101906100d99190610fe7565b61066a565b6040516100eb9190611084565b60405180910390f35b61010e600480360381019061010991906111c5565b610785565b60405161011b9190611084565b60405180910390f35b61013e6004803603810190610139919061120c565b6108a5565b60405161014b9190611341565b60405180910390f35b61016e600480360381019061016991906113b6565b610ae2565b60405161017b9190610f66565b60405180910390f35b60605f604051806101a001604052806103e8815260200161038481526020016101f48152602001610190815260200160648152602001605a81526020016032815260200160288152602001600a8152602001600981526020016005815260200160048152602001600181525090505f604051806101a001604052806040518060400160405280600181526020017f4d0000000000000000000000000000000000000000000000000000000000000081525081526020016040518060400160405280600281526020017f434d00000000000000000000000000000000000000000000000000000000000081525081526020016040518060400160405280600181526020017f440000000000000000000000000000000000000000000000000000000000000081525081526020016040518060400160405280600281526020017f434400000000000000000000000000000000000000000000000000000000000081525081526020016040518060400160405280600181526020017f430000000000000000000000000000000000000000000000000000000000000081525081526020016040518060400160405280600281526020017f584300000000000000000000000000000000000000000000000000000000000081525081526020016040518060400160405280600181526020017f4c0000000000000000000000000000000000000000000000000000000000000081525081526020016040518060400160405280600281526020017f584c00000000000000000000000000000000000000000000000000000000000081525081526020016040518060400160405280600181526020017f580000000000000000000000000000000000000000000000000000000000000081525081526020016040518060400160405280600281526020017f495800000000000000000000000000000000000000000000000000000000000081525081526020016040518060400160405280600181526020017f560000000000000000000000000000000000000000000000000000000000000081525081526020016040518060400160405280600281526020017f495600000000000000000000000000000000000000000000000000000000000081525081526020016040518060400160405280600181526020017f4900000000000000000000000000000000000000000000000000000000000000815250815250905060605f5f90505b5f8614610591575f8482600d81106105205761051f611401565b5b6020020151905080871061057c57808761053a919061145b565b9650828483600d81106105505761054f611401565b5b60200201516040516020016105669291906114c8565b604051602081830303815290604052925061058b565b8180610587906114eb565b9250505b50610505565b81945050505050919050565b5f5f8484905090505f5f90505f6001836105b7919061145b565b90505f5f90505b81831161065b57600282846105d39190611532565b6105dd9190611592565b90508787828181106105f2576105f1611401565b5b905060200201358611156106145760018161060d9190611532565b9250610656565b87878281811061062757610626611401565b5b9050602002013586101561064957600181610642919061145b565b9150610655565b80945050505050610663565b5b6105be565b809450505050505b9392505050565b5f5f8484905090505f5f90505f600183610684919061145b565b90505f61270f90505b8160018461069b9190611532565b101561071f57600282846106af9190611532565b6106b99190611592565b90508787828181106106ce576106cd611401565b5b905060200201358611156106e45780925061071a565b8787828181106106f7576106f6611401565b5b9050602002013586101561070d57809150610719565b8094505050505061077e565b5b61068d565b8588888581811061073357610732611401565b5b905060200201350361074757829050610776565b8588888481811061075b5761075a611401565b5b905060200201350361076f57819050610775565b61270f90505b5b809450505050505b9392505050565b5f5f8290505f5f90505f825190505f5f90505b81811015610899575f6107c78583815181106107b7576107b6611401565b5b602001015160f81c60f81b610c3d565b90506001836107d6919061145b565b82036107f05780846107e89190611532565b935050610899565b5f610823866001856108029190611532565b8151811061081357610812611401565b5b602001015160f81c60f81b610c3d565b9050808210156108755781851015610861578181610841919061145b565b8561084c9190611532565b94508280610859906114eb565b935050610870565b818561086d919061145b565b94505b610884565b81856108819190611532565b94505b50508080610891906114eb565b915050610798565b50819350505050919050565b60605f8585905090505f8484905090505f81836108c29190611532565b67ffffffffffffffff8111156108db576108da6110a1565b5b6040519080825280602002602001820160405280156109095781602001602082028036833780820191505090505b5090505f5f90505f5f90505f5f90505b858310801561092757508482105b15610a135788888381811061093f5761093e611401565b5b905060200201358b8b8581811061095957610958611401565b5b9050602002013510156109bc578a8a8480610973906114eb565b955081811061098557610984611401565b5b90506020020135848280610998906114eb565b9350815181106109ab576109aa611401565b5b602002602001018181525050610a0e565b888883806109c9906114eb565b94508181106109db576109da611401565b5b905060200201358482806109ee906114eb565b935081518110610a0157610a00611401565b5b6020026020010181815250505b610919565b5b85831015610a72578a8a8480610a29906114eb565b9550818110610a3b57610a3a611401565b5b90506020020135848280610a4e906114eb565b935081518110610a6157610a60611401565b5b602002602001018181525050610a14565b5b84821015610ad15788888380610a88906114eb565b9450818110610a9a57610a99611401565b5b90506020020135848280610aad906114eb565b935081518110610ac057610abf611401565b5b602002602001018181525050610a73565b839650505050505050949350505050565b60605f83838080601f0160208091040260200160405190810160405280939291908181526020018383808284375f81840152601f19601f8201169050808301925050505050505090505f815190505f8103610b4f5760405180602001604052805f81525092505050610c37565b5f8167ffffffffffffffff811115610b6a57610b696110a1565b5b6040519080825280601f01601f191660200182016040528015610b9c5781602001600182028036833780820191505090505b5090505f5f90505b82811015610c2f578381600185610bbb919061145b565b610bc5919061145b565b81518110610bd657610bd5611401565b5b602001015160f81c60f81b828281518110610bf457610bf3611401565b5b60200101907effffffffffffffffffffffffffffffffffffffffffffffffffffffffffffff191690815f1a9053508080600101915050610ba4565b508093505050505b92915050565b5f7f4900000000000000000000000000000000000000000000000000000000000000827effffffffffffffffffffffffffffffffffffffffffffffffffffffffffffff191603610c905760019050610e82565b7f5600000000000000000000000000000000000000000000000000000000000000827effffffffffffffffffffffffffffffffffffffffffffffffffffffffffffff191603610ce25760059050610e82565b7f5800000000000000000000000000000000000000000000000000000000000000827effffffffffffffffffffffffffffffffffffffffffffffffffffffffffffff191603610d3457600a9050610e82565b7f4c00000000000000000000000000000000000000000000000000000000000000827effffffffffffffffffffffffffffffffffffffffffffffffffffffffffffff191603610d865760329050610e82565b7f4300000000000000000000000000000000000000000000000000000000000000827effffffffffffffffffffffffffffffffffffffffffffffffffffffffffffff191603610dd85760649050610e82565b7f4400000000000000000000000000000000000000000000000000000000000000827effffffffffffffffffffffffffffffffffffffffffffffffffffffffffffff191603610e2b576101f49050610e82565b7f4d00000000000000000000000000000000000000000000000000000000000000827effffffffffffffffffffffffffffffffffffffffffffffffffffffffffffff191603610e7e576103e89050610e82565b5f90505b919050565b5f604051905090565b5f5ffd5b5f5ffd5b5f819050919050565b610eaa81610e98565b8114610eb4575f5ffd5b50565b5f81359050610ec581610ea1565b92915050565b5f60208284031215610ee057610edf610e90565b5b5f610eed84828501610eb7565b91505092915050565b5f81519050919050565b5f82825260208201905092915050565b8281835e5f83830152505050565b5f601f19601f8301169050919050565b5f610f3882610ef6565b610f428185610f00565b9350610f52818560208601610f10565b610f5b81610f1e565b840191505092915050565b5f6020820190508181035f830152610f7e8184610f2e565b905092915050565b5f5ffd5b5f5ffd5b5f5ffd5b5f5f83601f840112610fa757610fa6610f86565b5b8235905067ffffffffffffffff811115610fc457610fc3610f8a565b5b602083019150836020820283011115610fe057610fdf610f8e565b5b9250929050565b5f5f5f60408486031215610ffe57610ffd610e90565b5b5f84013567ffffffffffffffff81111561101b5761101a610e94565b5b61102786828701610f92565b9350935050602061103a86828701610eb7565b9150509250925092565b5f819050919050565b61105681611044565b82525050565b5f60208201905061106f5f83018461104d565b92915050565b61107e81610e98565b82525050565b5f6020820190506110975f830184611075565b92915050565b5f5ffd5b7f4e487b71000000000000000000000000000000000000000000000000000000005f52604160045260245ffd5b6110d782610f1e565b810181811067ffffffffffffffff821117156110f6576110f56110a1565b5b80604052505050565b5f611108610e87565b905061111482826110ce565b919050565b5f67ffffffffffffffff821115611133576111326110a1565b5b61113c82610f1e565b9050602081019050919050565b828183375f83830152505050565b5f61116961116484611119565b6110ff565b9050828152602081018484840111156111855761118461109d565b5b611190848285611149565b509392505050565b5f82601f8301126111ac576111ab610f86565b5b81356111bc848260208601611157565b91505092915050565b5f602082840312156111da576111d9610e90565b5b5f82013567ffffffffffffffff8111156111f7576111f6610e94565b5b61120384828501611198565b91505092915050565b5f5f5f5f6040858703121561122457611223610e90565b5b5f85013567ffffffffffffffff81111561124157611240610e94565b5b61124d87828801610f92565b9450945050602085013567ffffffffffffffff8111156112705761126f610e94565b5b61127c87828801610f92565b925092505092959194509250565b5f81519050919050565b5f82825260208201905092915050565b5f819050602082019050919050565b6112bc81610e98565b82525050565b5f6112cd83836112b3565b60208301905092915050565b5f602082019050919050565b5f6112ef8261128a565b6112f98185611294565b9350611304836112a4565b805f5b8381101561133457815161131b88826112c2565b9750611326836112d9565b925050600181019050611307565b5085935050505092915050565b5f6020820190508181035f83015261135981846112e5565b905092915050565b5f5f83601f84011261137657611375610f86565b5b8235905067ffffffffffffffff81111561139357611392610f8a565b5b6020830191508360018202830111156113af576113ae610f8e565b5b9250929050565b5f5f602083850312156113cc576113cb610e90565b5b5f83013567ffffffffffffffff8111156113e9576113e8610e94565b5b6113f585828601611361565b92509250509250929050565b7f4e487b71000000000000000000000000000000000000000000000000000000005f52603260045260245ffd5b7f4e487b71000000000000000000000000000000000000000000000000000000005f52601160045260245ffd5b5f61146582610e98565b915061147083610e98565b92508282039050818111156114885761148761142e565b5b92915050565b5f81905092915050565b5f6114a282610ef6565b6114ac818561148e565b93506114bc818560208601610f10565b80840191505092915050565b5f6114d38285611498565b91506114df8284611498565b91508190509392505050565b5f6114f582610e98565b91507fffffffffffffffffffffffffffffffffffffffffffffffffffffffffffffffff82036115275761152661142e565b5b600182019050919050565b5f61153c82610e98565b915061154783610e98565b925082820190508082111561155f5761155e61142e565b5b92915050565b7f4e487b71000000000000000000000000000000000000000000000000000000005f52601260045260245ffd5b5f61159c82610e98565b91506115a783610e98565b9250826115b7576115b6611565565b5b82820490509291505056fea264697066735822122052587c4b338a34b23612b514abe5a0a385ce6b416d39b9147d2cb542fab8ec0364736f6c634300081e0033",
			"opcodes": "PUSH1 0x80 PUSH1 0x40 MSTORE CALLVALUE DUP1 ISZERO PUSH1 0xE JUMPI PUSH0 PUSH0 REVERT JUMPDEST POP PUSH2 0x15F8 DUP1 PUSH2 0x1C PUSH0 CODECOPY PUSH0 RETURN INVALID PUSH1 0x80 PUSH1 0x40 MSTORE CALLVALUE DUP1 ISZERO PUSH2 0xF JUMPI PUSH0 PUSH0 REVERT JUMPDEST POP PUSH1 0x4 CALLDATASIZE LT PUSH2 0x60 JUMPI PUSH0 CALLDATALOAD PUSH1 0xE0 SHR DUP1 PUSH4 0xCBC513A EQ PUSH2 0x64 JUMPI DUP1 PUSH4 0xAAEE9E95 EQ PUSH2 0x94 JUMPI DUP1 PUSH4 0xB12601DA EQ PUSH2 0xC4 JUMPI DUP1 PUSH4 0xCB159DFE EQ PUSH2 0xF4 JUMPI DUP1 PUSH4 0xDE948709 EQ PUSH2 0x124 JUMPI DUP1 PUSH4 0xF3582C69 EQ PUSH2 0x154 JUMPI JUMPDEST PUSH0 PUSH0 REVERT JUMPDEST PUSH2 0x7E PUSH1 0x4 DUP1 CALLDATASIZE SUB DUP2 ADD SWAP1 PUSH2 0x79 SWAP2 SWAP1 PUSH2 0xECB JUMP JUMPDEST PUSH2 0x184 JUMP JUMPDEST PUSH1 0x40 MLOAD PUSH2 0x8B SWAP2 SWAP1 PUSH2 0xF66 JUMP JUMPDEST PUSH1 0x40 MLOAD DUP1 SWAP2 SUB SWAP1 RETURN JUMPDEST PUSH2 0xAE PUSH1 0x4 DUP1 CALLDATASIZE SUB DUP2 ADD SWAP1 PUSH2 0xA9 SWAP2 SWAP1 PUSH2 0xFE7 JUMP JUMPDEST PUSH2 0x59D JUMP JUMPDEST PUSH1 0x40 MLOAD PUSH2 0xBB SWAP2 SWAP1 PUSH2 0x105C JUMP JUMPDEST PUSH1 0x40 MLOAD DUP1 SWAP2 SUB SWAP1 RETURN JUMPDEST PUSH2 0xDE PUSH1 0x4 DUP1 CALLDATASIZE SUB DUP2 ADD SWAP1 PUSH2 0xD9 SWAP2 SWAP1 PUSH2 0xFE7 JUMP JUMPDEST PUSH2 0x66A JUMP JUMPDEST PUSH1 0x40 MLOAD PUSH2 0xEB SWAP2 SWAP1 PUSH2 0x1084 JUMP JUMPDEST PUSH1 0x40 MLOAD DUP1 SWAP2 SUB SWAP1 RETURN JUMPDEST PUSH2 0x10E PUSH1 0x4 DUP1 CALLDATASIZE SUB DUP2 ADD SWAP1 PUSH2 0x109 SWAP2 SWAP1 PUSH2 0x11C5 JUMP JUMPDEST PUSH2 0x785 JUMP JUMPDEST PUSH1 0x40 MLOAD PUSH2 0x11B SWAP2 SWAP1 PUSH2 0x1084 JUMP JUMPDEST PUSH1 0x40 MLOAD DUP1 SWAP2 SUB SWAP1 RETURN JUMPDEST PUSH2 0x13E PUSH1 0x4 DUP1 CALLDATASIZE SUB DUP2 ADD SWAP1 PUSH2 0x139 SWAP2 SWAP1 PUSH2 0x120C JUMP JUMPDEST PUSH2 0x8A5 JUMP JUMPDEST PUSH1 0x40 MLOAD PUSH2 0x14B SWAP2 SWAP1 PUSH2 0x1341 JUMP JUMPDEST PUSH1 0x40 MLOAD DUP1 SWAP2 SUB SWAP1 RETURN JUMPDEST PUSH2 0x16E PUSH1 0x4 DUP1 CALLDATASIZE SUB DUP2 ADD SWAP1 PUSH2 0x169 SWAP2 SWAP1 PUSH2 0x13B6 JUMP JUMPDEST PUSH2 0xAE2 JUMP JUMPDEST PUSH1 0x40 MLOAD PUSH2 0x17B SWAP2 SWAP1 PUSH2 0xF66 JUMP JUMPDEST PUSH1 0x40 MLOAD DUP1 SWAP2 SUB SWAP1 RETURN JUMPDEST PUSH1 0x60 PUSH0 PUSH1 0x40 MLOAD DUP1 PUSH2 0x1A0 ADD PUSH1 0x40 MSTORE DUP1 PUSH2 0x3E8 DUP2 MSTORE PUSH1 0x20 ADD PUSH2 0x384 DUP2 MSTORE PUSH1 0x20 ADD PUSH2 0x1F4 DUP2 MSTORE PUSH1 0x20 ADD PUSH2 0x190 DUP2 MSTORE PUSH1 0x20 ADD PUSH1 0x64 DUP2 MSTORE PUSH1 0x20 ADD PUSH1 0x5A DUP2 MSTORE PUSH1 0x20 ADD PUSH1 0x32 DUP2 MSTORE PUSH1 0x20 ADD PUSH1 0x28 DUP2 MSTORE PUSH1 0x20 ADD PUSH1 0xA DUP2 MSTORE PUSH1 0x20 ADD PUSH1 0x9 DUP2 MSTORE PUSH1 0x20 ADD PUSH1 0x5 DUP2 MSTORE PUSH1 0x20 ADD PUSH1 0x4 DUP2 MSTORE PUSH1 0x20 ADD PUSH1 0x1 DUP2 MSTORE POP SWAP1 POP PUSH0 PUSH1 0x40 MLOAD DUP1 PUSH2 0x1A0 ADD PUSH1 0x40 MSTORE DUP1 PUSH1 0x40 MLOAD DUP1 PUSH1 0x40 ADD PUSH1 0x40 MSTORE DUP1 PUSH1 0x1 DUP2 MSTORE PUSH1 0x20 ADD PUSH32 0x4D00000000000000000000000000000000000000000000000000000000000000 DUP2 MSTORE POP DUP2 MSTORE PUSH1 0x20 ADD PUSH1 0x40 MLOAD DUP1 PUSH1 0x40 ADD PUSH1 0x40 MSTORE DUP1 PUSH1 0x2 DUP2 MSTORE PUSH1 0x20 ADD PUSH32 0x434D000000000000000000000000000000000000000000000000000000000000 DUP2 MSTORE POP DUP2 MSTORE PUSH1 0x20 ADD PUSH1 0x40 MLOAD DUP1 PUSH1 0x40 ADD PUSH1 0x40 MSTORE DUP1 PUSH1 0x1 DUP2 MSTORE PUSH1 0x20 ADD PUSH32 0x4400000000000000000000000000000000000000000000000000000000000000 DUP2 MSTORE POP DUP2 MSTORE PUSH1 0x20 ADD PUSH1 0x40 MLOAD DUP1 PUSH1 0x40 ADD PUSH1 0x40 MSTORE DUP1 PUSH1 0x2 DUP2 MSTORE PUSH1 0x20 ADD PUSH32 0x4344000000000000000000000000000000000000000000000000000000000000 DUP2 MSTORE POP DUP2 MSTORE PUSH1 0x20 ADD PUSH1 0x40 MLOAD DUP1 PUSH1 0x40 ADD PUSH1 0x40 MSTORE DUP1 PUSH1 0x1 DUP2 MSTORE PUSH1 0x20 ADD PUSH32 0x4300000000000000000000000000000000000000000000000000000000000000 DUP2 MSTORE POP DUP2 MSTORE PUSH1 0x20 ADD PUSH1 0x40 MLOAD DUP1 PUSH1 0x40 ADD PUSH1 0x40 MSTORE DUP1 PUSH1 0x2 DUP2 MSTORE PUSH1 0x20 ADD PUSH32 0x5843000000000000000000000000000000000000000000000000000000000000 DUP2 MSTORE POP DUP2 MSTORE PUSH1 0x20 ADD PUSH1 0x40 MLOAD DUP1 PUSH1 0x40 ADD PUSH1 0x40 MSTORE DUP1 PUSH1 0x1 DUP2 MSTORE PUSH1 0x20 ADD PUSH32 0x4C00000000000000000000000000000000000000000000000000000000000000 DUP2 MSTORE POP DUP2 MSTORE PUSH1 0x20 ADD PUSH1 0x40 MLOAD DUP1 PUSH1 0x40 ADD PUSH1 0x40 MSTORE DUP1 PUSH1 0x2 DUP2 MSTORE PUSH1 0x20 ADD PUSH32 0x584C000000000000000000000000000000000000000000000000000000000000 DUP2 MSTORE POP DUP2 MSTORE PUSH1 0x20 ADD PUSH1 0x40 MLOAD DUP1 PUSH1 0x40 ADD PUSH1 0x40 MSTORE DUP1 PUSH1 0x1 DUP2 MSTORE PUSH1 0x20 ADD PUSH32 0x5800000000000000000000000000000000000000000000000000000000000000 DUP2 MSTORE POP DUP2 MSTORE PUSH1 0x20 ADD PUSH1 0x40 MLOAD DUP1 PUSH1 0x40 ADD PUSH1 0x40 MSTORE DUP1 PUSH1 0x2 DUP2 MSTORE PUSH1 0x20 ADD PUSH32 0x4958000000000000000000000000000000000000000000000000000000000000 DUP2 MSTORE POP DUP2 MSTORE PUSH1 0x20 ADD PUSH1 0x40 MLOAD DUP1 PUSH1 0x40 ADD PUSH1 0x40 MSTORE DUP1 PUSH1 0x1 DUP2 MSTORE PUSH1 0x20 ADD PUSH32 0x5600000000000000000000000000000000000000000000000000000000000000 DUP2 MSTORE POP DUP2 MSTORE PUSH1 0x20 ADD PUSH1 0x40 MLOAD DUP1 PUSH1 0x40 ADD PUSH1 0x40 MSTORE DUP1 PUSH1 0x2 DUP2 MSTORE PUSH1 0x20 ADD PUSH32 0x4956000000000000000000000000000000000000000000000000000000000000 DUP2 MSTORE POP DUP2 MSTORE PUSH1 0x20 ADD PUSH1 0x40 MLOAD DUP1 PUSH1 0x40 ADD PUSH1 0x40 MSTORE DUP1 PUSH1 0x1 DUP2 MSTORE PUSH1 0x20 ADD PUSH32 0x4900000000000000000000000000000000000000000000000000000000000000 DUP2 MSTORE POP DUP2 MSTORE POP SWAP1 POP PUSH1 0x60 PUSH0 PUSH0 SWAP1 POP JUMPDEST PUSH0 DUP7 EQ PUSH2 0x591 JUMPI PUSH0 DUP5 DUP3 PUSH1 0xD DUP2 LT PUSH2 0x520 JUMPI PUSH2 0x51F PUSH2 0x1401 JUMP JUMPDEST JUMPDEST PUSH1 0x20 MUL ADD MLOAD SWAP1 POP DUP1 DUP8 LT PUSH2 0x57C JUMPI DUP1 DUP8 PUSH2 0x53A SWAP2 SWAP1 PUSH2 0x145B JUMP JUMPDEST SWAP7 POP DUP3 DUP5 DUP4 PUSH1 0xD DUP2 LT PUSH2 0x550 JUMPI PUSH2 0x54F PUSH2 0x1401 JUMP JUMPDEST JUMPDEST PUSH1 0x20 MUL ADD MLOAD PUSH1 0x40 MLOAD PUSH1 0x20 ADD PUSH2 0x566 SWAP3 SWAP2 SWAP1 PUSH2 0x14C8 JUMP JUMPDEST PUSH1 0x40 MLOAD PUSH1 0x20 DUP2 DUP4 SUB SUB DUP2 MSTORE SWAP1 PUSH1 0x40 MSTORE SWAP3 POP PUSH2 0x58B JUMP JUMPDEST DUP2 DUP1 PUSH2 0x587 SWAP1 PUSH2 0x14EB JUMP JUMPDEST SWAP3 POP POP JUMPDEST POP PUSH2 0x505 JUMP JUMPDEST DUP2 SWAP5 POP POP POP POP POP SWAP2 SWAP1 POP JUMP JUMPDEST PUSH0 PUSH0 DUP5 DUP5 SWAP1 POP SWAP1 POP PUSH0 PUSH0 SWAP1 POP PUSH0 PUSH1 0x1 DUP4 PUSH2 0x5B7 SWAP2 SWAP1 PUSH2 0x145B JUMP JUMPDEST SWAP1 POP PUSH0 PUSH0 SWAP1 POP JUMPDEST DUP2 DUP4 GT PUSH2 0x65B JUMPI PUSH1 0x2 DUP3 DUP5 PUSH2 0x5D3 SWAP2 SWAP1 PUSH2 0x1532 JUMP JUMPDEST PUSH2 0x5DD SWAP2 SWAP1 PUSH2 0x1592 JUMP JUMPDEST SWAP1 POP DUP8 DUP8 DUP3 DUP2 DUP2 LT PUSH2 0x5F2 JUMPI PUSH2 0x5F1 PUSH2 0x1401 JUMP JUMPDEST JUMPDEST SWAP1 POP PUSH1 0x20 MUL ADD CALLDATALOAD DUP7 GT ISZERO PUSH2 0x614 JUMPI PUSH1 0x1 DUP2 PUSH2 0x60D SWAP2 SWAP1 PUSH2 0x1532 JUMP JUMPDEST SWAP3 POP PUSH2 0x656 JUMP JUMPDEST DUP8 DUP8 DUP3 DUP2 DUP2 LT PUSH2 0x627 JUMPI PUSH2 0x626 PUSH2 0x1401 JUMP JUMPDEST JUMPDEST SWAP1 POP PUSH1 0x20 MUL ADD CALLDATALOAD DUP7 LT ISZERO PUSH2 0x649 JUMPI PUSH1 0x1 DUP2 PUSH2 0x642 SWAP2 SWAP1 PUSH2 0x145B JUMP JUMPDEST SWAP2 POP PUSH2 0x655 JUMP JUMPDEST DUP1 SWAP5 POP POP POP POP POP PUSH2 0x663 JUMP JUMPDEST JUMPDEST PUSH2 0x5BE JUMP JUMPDEST DUP1 SWAP5 POP POP POP POP POP JUMPDEST SWAP4 SWAP3 POP POP POP JUMP JUMPDEST PUSH0 PUSH0 DUP5 DUP5 SWAP1 POP SWAP1 POP PUSH0 PUSH0 SWAP1 POP PUSH0 PUSH1 0x1 DUP4 PUSH2 0x684 SWAP2 SWAP1 PUSH2 0x145B JUMP JUMPDEST SWAP1 POP PUSH0 PUSH2 0x270F SWAP1 POP JUMPDEST DUP2 PUSH1 0x1 DUP5 PUSH2 0x69B SWAP2 SWAP1 PUSH2 0x1532 JUMP JUMPDEST LT ISZERO PUSH2 0x71F JUMPI PUSH1 0x2 DUP3 DUP5 PUSH2 0x6AF SWAP2 SWAP1 PUSH2 0x1532 JUMP JUMPDEST PUSH2 0x6B9 SWAP2 SWAP1 PUSH2 0x1592 JUMP JUMPDEST SWAP1 POP DUP8 DUP8 DUP3 DUP2 DUP2 LT PUSH2 0x6CE JUMPI PUSH2 0x6CD PUSH2 0x1401 JUMP JUMPDEST JUMPDEST SWAP1 POP PUSH1 0x20 MUL ADD CALLDATALOAD DUP7 GT ISZERO PUSH2 0x6E4 JUMPI DUP1 SWAP3 POP PUSH2 0x71A JUMP JUMPDEST DUP8 DUP8 DUP3 DUP2 DUP2 LT PUSH2 0x6F7 JUMPI PUSH2 0x6F6 PUSH2 0x1401 JUMP JUMPDEST JUMPDEST SWAP1 POP PUSH1 0x20 MUL ADD CALLDATALOAD DUP7 LT ISZERO PUSH2 0x70D JUMPI DUP1 SWAP2 POP PUSH2 0x719 JUMP JUMPDEST DUP1 SWAP5 POP POP POP POP POP PUSH2 0x77E JUMP JUMPDEST JUMPDEST PUSH2 0x68D JUMP JUMPDEST DUP6 DUP9 DUP9 DUP6 DUP2 DUP2 LT PUSH2 0x733 JUMPI PUSH2 0x732 PUSH2 0x1401 JUMP JUMPDEST JUMPDEST SWAP1 POP PUSH1 0x20 MUL ADD CALLDATALOAD SUB PUSH2 0x747 JUMPI DUP3 SWAP1 POP PUSH2 0x776 JUMP JUMPDEST DUP6 DUP9 DUP9 DUP5 DUP2 DUP2 LT PUSH2 0x75B JUMPI PUSH2 0x75A PUSH2 0x1401 JUMP JUMPDEST JUMPDEST SWAP1 POP PUSH1 0x20 MUL ADD CALLDATALOAD SUB PUSH2 0x76F JUMPI DUP2 SWAP1 POP PUSH2 0x775 JUMP JUMPDEST PUSH2 0x270F SWAP1 POP JUMPDEST JUMPDEST DUP1 SWAP5 POP POP POP POP POP JUMPDEST SWAP4 SWAP3 POP POP POP JUMP JUMPDEST PUSH0 PUSH0 DUP3 SWAP1 POP PUSH0 PUSH0 SWAP1 POP PUSH0 DUP3 MLOAD SWAP1 POP PUSH0 PUSH0 SWAP1 POP JUMPDEST DUP2 DUP2 LT ISZERO PUSH2 0x899 JUMPI PUSH0 PUSH2 0x7C7 DUP6 DUP4 DUP2 MLOAD DUP2 LT PUSH2 0x7B7 JUMPI PUSH2 0x7B6 PUSH2 0x1401 JUMP JUMPDEST JUMPDEST PUSH1 0x20 ADD ADD MLOAD PUSH1 0xF8 SHR PUSH1 0xF8 SHL PUSH2 0xC3D JUMP JUMPDEST SWAP1 POP PUSH1 0x1 DUP4 PUSH2 0x7D6 SWAP2 SWAP1 PUSH2 0x145B JUMP JUMPDEST DUP3 SUB PUSH2 0x7F0 JUMPI DUP1 DUP5 PUSH2 0x7E8 SWAP2 SWAP1 PUSH2 0x1532 JUMP JUMPDEST SWAP4 POP POP PUSH2 0x899 JUMP JUMPDEST PUSH0 PUSH2 0x823 DUP7 PUSH1 0x1 DUP6 PUSH2 0x802 SWAP2 SWAP1 PUSH2 0x1532 JUMP JUMPDEST DUP2 MLOAD DUP2 LT PUSH2 0x813 JUMPI PUSH2 0x812 PUSH2 0x1401 JUMP JUMPDEST JUMPDEST PUSH1 0x20 ADD ADD MLOAD PUSH1 0xF8 SHR PUSH1 0xF8 SHL PUSH2 0xC3D JUMP JUMPDEST SWAP1 POP DUP1 DUP3 LT ISZERO PUSH2 0x875 JUMPI DUP2 DUP6 LT ISZERO PUSH2 0x861 JUMPI DUP2 DUP2 PUSH2 0x841 SWAP2 SWAP1 PUSH2 0x145B JUMP JUMPDEST DUP6 PUSH2 0x84C SWAP2 SWAP1 PUSH2 0x1532 JUMP JUMPDEST SWAP5 POP DUP3 DUP1 PUSH2 0x859 SWAP1 PUSH2 0x14EB JUMP JUMPDEST SWAP4 POP POP PUSH2 0x870 JUMP JUMPDEST DUP2 DUP6 PUSH2 0x86D SWAP2 SWAP1 PUSH2 0x145B JUMP JUMPDEST SWAP5 POP JUMPDEST PUSH2 0x884 JUMP JUMPDEST DUP2 DUP6 PUSH2 0x881 SWAP2 SWAP1 PUSH2 0x1532 JUMP JUMPDEST SWAP5 POP JUMPDEST POP POP DUP1 DUP1 PUSH2 0x891 SWAP1 PUSH2 0x14EB JUMP JUMPDEST SWAP2 POP POP PUSH2 0x798 JUMP JUMPDEST POP DUP2 SWAP4 POP POP POP POP SWAP2 SWAP1 POP JUMP JUMPDEST PUSH1 0x60 PUSH0 DUP6 DUP6 SWAP1 POP SWAP1 POP PUSH0 DUP5 DUP5 SWAP1 POP SWAP1 POP PUSH0 DUP2 DUP4 PUSH2 0x8C2 SWAP2 SWAP1 PUSH2 0x1532 JUMP JUMPDEST PUSH8 0xFFFFFFFFFFFFFFFF DUP2 GT ISZERO PUSH2 0x8DB JUMPI PUSH2 0x8DA PUSH2 0x10A1 JUMP JUMPDEST JUMPDEST PUSH1 0x40 MLOAD SWAP1 DUP1 DUP3 MSTORE DUP1 PUSH1 0x20 MUL PUSH1 0x20 ADD DUP3 ADD PUSH1 0x40 MSTORE DUP1 ISZERO PUSH2 0x909 JUMPI DUP2 PUSH1 0x20 ADD PUSH1 0x20 DUP3 MUL DUP1 CALLDATASIZE DUP4 CALLDATACOPY DUP1 DUP3 ADD SWAP2 POP POP SWAP1 POP JUMPDEST POP SWAP1 POP PUSH0 PUSH0 SWAP1 POP PUSH0 PUSH0 SWAP1 POP PUSH0 PUSH0 SWAP1 POP JUMPDEST DUP6 DUP4 LT DUP1 ISZERO PUSH2 0x927 JUMPI POP DUP5 DUP3 LT JUMPDEST ISZERO PUSH2 0xA13 JUMPI DUP9 DUP9 DUP4 DUP2 DUP2 LT PUSH2 0x93F JUMPI PUSH2 0x93E PUSH2 0x1401 JUMP JUMPDEST JUMPDEST SWAP1 POP PUSH1 0x20 MUL ADD CALLDATALOAD DUP12 DUP12 DUP6 DUP2 DUP2 LT PUSH2 0x959 JUMPI PUSH2 0x958 PUSH2 0x1401 JUMP JUMPDEST JUMPDEST SWAP1 POP PUSH1 0x20 MUL ADD CALLDATALOAD LT ISZERO PUSH2 0x9BC JUMPI DUP11 DUP11 DUP5 DUP1 PUSH2 0x973 SWAP1 PUSH2 0x14EB JUMP JUMPDEST SWAP6 POP DUP2 DUP2 LT PUSH2 0x985 JUMPI PUSH2 0x984 PUSH2 0x1401 JUMP JUMPDEST JUMPDEST SWAP1 POP PUSH1 0x20 MUL ADD CALLDATALOAD DUP5 DUP3 DUP1 PUSH2 0x998 SWAP1 PUSH2 0x14EB JUMP JUMPDEST SWAP4 POP DUP2 MLOAD DUP2 LT PUSH2 0x9AB JUMPI PUSH2 0x9AA PUSH2 0x1401 JUMP JUMPDEST JUMPDEST PUSH1 0x20 MUL PUSH1 0x20 ADD ADD DUP2 DUP2 MSTORE POP POP PUSH2 0xA0E JUMP JUMPDEST DUP9 DUP9 DUP4 DUP1 PUSH2 0x9C9 SWAP1 PUSH2 0x14EB JUMP JUMPDEST SWAP5 POP DUP2 DUP2 LT PUSH2 0x9DB JUMPI PUSH2 0x9DA PUSH2 0x1401 JUMP JUMPDEST JUMPDEST SWAP1 POP PUSH1 0x20 MUL ADD CALLDATALOAD DUP5 DUP3 DUP1 PUSH2 0x9EE SWAP1 PUSH2 0x14EB JUMP JUMPDEST SWAP4 POP DUP2 MLOAD DUP2 LT PUSH2 0xA01 JUMPI PUSH2 0xA00 PUSH2 0x1401 JUMP JUMPDEST JUMPDEST PUSH1 0x20 MUL PUSH1 0x20 ADD ADD DUP2 DUP2 MSTORE POP POP JUMPDEST PUSH2 0x919 JUMP JUMPDEST JUMPDEST DUP6 DUP4 LT ISZERO PUSH2 0xA72 JUMPI DUP11 DUP11 DUP5 DUP1 PUSH2 0xA29 SWAP1 PUSH2 0x14EB JUMP JUMPDEST SWAP6 POP DUP2 DUP2 LT PUSH2 0xA3B JUMPI PUSH2 0xA3A PUSH2 0x1401 JUMP JUMPDEST JUMPDEST SWAP1 POP PUSH1 0x20 MUL ADD CALLDATALOAD DUP5 DUP3 DUP1 PUSH2 0xA4E SWAP1 PUSH2 0x14EB JUMP JUMPDEST SWAP4 POP DUP2 MLOAD DUP2 LT PUSH2 0xA61 JUMPI PUSH2 0xA60 PUSH2 0x1401 JUMP JUMPDEST JUMPDEST PUSH1 0x20 MUL PUSH1 0x20 ADD ADD DUP2 DUP2 MSTORE POP POP PUSH2 0xA14 JUMP JUMPDEST JUMPDEST DUP5 DUP3 LT ISZERO PUSH2 0xAD1 JUMPI DUP9 DUP9 DUP4 DUP1 PUSH2 0xA88 SWAP1 PUSH2 0x14EB JUMP JUMPDEST SWAP5 POP DUP2 DUP2 LT PUSH2 0xA9A JUMPI PUSH2 0xA99 PUSH2 0x1401 JUMP JUMPDEST JUMPDEST SWAP1 POP PUSH1 0x20 MUL ADD CALLDATALOAD DUP5 DUP3 DUP1 PUSH2 0xAAD SWAP1 PUSH2 0x14EB JUMP JUMPDEST SWAP4 POP DUP2 MLOAD DUP2 LT PUSH2 0xAC0 JUMPI PUSH2 0xABF PUSH2 0x1401 JUMP JUMPDEST JUMPDEST PUSH1 0x20 MUL PUSH1 0x20 ADD ADD DUP2 DUP2 MSTORE POP POP PUSH2 0xA73 JUMP JUMPDEST DUP4 SWAP7 POP POP POP POP POP POP POP SWAP5 SWAP4 POP POP POP POP JUMP JUMPDEST PUSH1 0x60 PUSH0 DUP4 DUP4 DUP1 DUP1 PUSH1 0x1F ADD PUSH1 0x20 DUP1 SWAP2 DIV MUL PUSH1 0x20 ADD PUSH1 0x40 MLOAD SWAP1 DUP2 ADD PUSH1 0x40 MSTORE DUP1 SWAP4 SWAP3 SWAP2 SWAP1 DUP2 DUP2 MSTORE PUSH1 0x20 ADD DUP4 DUP4 DUP1 DUP3 DUP5 CALLDATACOPY PUSH0 DUP2 DUP5 ADD MSTORE PUSH1 0x1F NOT PUSH1 0x1F DUP3 ADD AND SWAP1 POP DUP1 DUP4 ADD SWAP3 POP POP POP POP POP POP POP SWAP1 POP PUSH0 DUP2 MLOAD SWAP1 POP PUSH0 DUP2 SUB PUSH2 0xB4F JUMPI PUSH1 0x40 MLOAD DUP1 PUSH1 0x20 ADD PUSH1 0x40 MSTORE DUP1 PUSH0 DUP2 MSTORE POP SWAP3 POP POP POP PUSH2 0xC37 JUMP JUMPDEST PUSH0 DUP2 PUSH8 0xFFFFFFFFFFFFFFFF DUP2 GT ISZERO PUSH2 0xB6A JUMPI PUSH2 0xB69 PUSH2 0x10A1 JUMP JUMPDEST JUMPDEST PUSH1 0x40 MLOAD SWAP1 DUP1 DUP3 MSTORE DUP1 PUSH1 0x1F ADD PUSH1 0x1F NOT AND PUSH1 0x20 ADD DUP3 ADD PUSH1 0x40 MSTORE DUP1 ISZERO PUSH2 0xB9C JUMPI DUP2 PUSH1 0x20 ADD PUSH1 0x1 DUP3 MUL DUP1 CALLDATASIZE DUP4 CALLDATACOPY DUP1 DUP3 ADD SWAP2 POP POP SWAP1 POP JUMPDEST POP SWAP1 POP PUSH0 PUSH0 SWAP1 POP JUMPDEST DUP3 DUP2 LT ISZERO PUSH2 0xC2F JUMPI DUP4 DUP2 PUSH1 0x1 DUP6 PUSH2 0xBBB SWAP2 SWAP1 PUSH2 0x145B JUMP JUMPDEST PUSH2 0xBC5 SWAP2 SWAP1 PUSH2 0x145B JUMP JUMPDEST DUP2 MLOAD DUP2 LT PUSH2 0xBD6 JUMPI PUSH2 0xBD5 PUSH2 0x1401 JUMP JUMPDEST JUMPDEST PUSH1 0x20 ADD ADD MLOAD PUSH1 0xF8 SHR PUSH1 0xF8 SHL DUP3 DUP3 DUP2 MLOAD DUP2 LT PUSH2 0xBF4 JUMPI PUSH2 0xBF3 PUSH2 0x1401 JUMP JUMPDEST JUMPDEST PUSH1 0x20 ADD ADD SWAP1 PUSH31 0xFFFFFFFFFFFFFFFFFFFFFFFFFFFFFFFFFFFFFFFFFFFFFFFFFFFFFFFFFFFFFF NOT AND SWAP1 DUP2 PUSH0 BYTE SWAP1 MSTORE8 POP DUP1 DUP1 PUSH1 0x1 ADD SWAP2 POP POP PUSH2 0xBA4 JUMP JUMPDEST POP DUP1 SWAP4 POP POP POP POP JUMPDEST SWAP3 SWAP2 POP POP JUMP JUMPDEST PUSH0 PUSH32 0x4900000000000000000000000000000000000000000000000000000000000000 DUP3 PUSH31 0xFFFFFFFFFFFFFFFFFFFFFFFFFFFFFFFFFFFFFFFFFFFFFFFFFFFFFFFFFFFFFF NOT AND SUB PUSH2 0xC90 JUMPI PUSH1 0x1 SWAP1 POP PUSH2 0xE82 JUMP JUMPDEST PUSH32 0x5600000000000000000000000000000000000000000000000000000000000000 DUP3 PUSH31 0xFFFFFFFFFFFFFFFFFFFFFFFFFFFFFFFFFFFFFFFFFFFFFFFFFFFFFFFFFFFFFF NOT AND SUB PUSH2 0xCE2 JUMPI PUSH1 0x5 SWAP1 POP PUSH2 0xE82 JUMP JUMPDEST PUSH32 0x5800000000000000000000000000000000000000000000000000000000000000 DUP3 PUSH31 0xFFFFFFFFFFFFFFFFFFFFFFFFFFFFFFFFFFFFFFFFFFFFFFFFFFFFFFFFFFFFFF NOT AND SUB PUSH2 0xD34 JUMPI PUSH1 0xA SWAP1 POP PUSH2 0xE82 JUMP JUMPDEST PUSH32 0x4C00000000000000000000000000000000000000000000000000000000000000 DUP3 PUSH31 0xFFFFFFFFFFFFFFFFFFFFFFFFFFFFFFFFFFFFFFFFFFFFFFFFFFFFFFFFFFFFFF NOT AND SUB PUSH2 0xD86 JUMPI PUSH1 0x32 SWAP1 POP PUSH2 0xE82 JUMP JUMPDEST PUSH32 0x4300000000000000000000000000000000000000000000000000000000000000 DUP3 PUSH31 0xFFFFFFFFFFFFFFFFFFFFFFFFFFFFFFFFFFFFFFFFFFFFFFFFFFFFFFFFFFFFFF NOT AND SUB PUSH2 0xDD8 JUMPI PUSH1 0x64 SWAP1 POP PUSH2 0xE82 JUMP JUMPDEST PUSH32 0x4400000000000000000000000000000000000000000000000000000000000000 DUP3 PUSH31 0xFFFFFFFFFFFFFFFFFFFFFFFFFFFFFFFFFFFFFFFFFFFFFFFFFFFFFFFFFFFFFF NOT AND SUB PUSH2 0xE2B JUMPI PUSH2 0x1F4 SWAP1 POP PUSH2 0xE82 JUMP JUMPDEST PUSH32 0x4D00000000000000000000000000000000000000000000000000000000000000 DUP3 PUSH31 0xFFFFFFFFFFFFFFFFFFFFFFFFFFFFFFFFFFFFFFFFFFFFFFFFFFFFFFFFFFFFFF NOT AND SUB PUSH2 0xE7E JUMPI PUSH2 0x3E8 SWAP1 POP PUSH2 0xE82 JUMP JUMPDEST PUSH0 SWAP1 POP JUMPDEST SWAP2 SWAP1 POP JUMP JUMPDEST PUSH0 PUSH1 0x40 MLOAD SWAP1 POP SWAP1 JUMP JUMPDEST PUSH0 PUSH0 REVERT JUMPDEST PUSH0 PUSH0 REVERT JUMPDEST PUSH0 DUP2 SWAP1 POP SWAP2 SWAP1 POP JUMP JUMPDEST PUSH2 0xEAA DUP2 PUSH2 0xE98 JUMP JUMPDEST DUP2 EQ PUSH2 0xEB4 JUMPI PUSH0 PUSH0 REVERT JUMPDEST POP JUMP JUMPDEST PUSH0 DUP2 CALLDATALOAD SWAP1 POP PUSH2 0xEC5 DUP2 PUSH2 0xEA1 JUMP JUMPDEST SWAP3 SWAP2 POP POP JUMP JUMPDEST PUSH0 PUSH1 0x20 DUP3 DUP5 SUB SLT ISZERO PUSH2 0xEE0 JUMPI PUSH2 0xEDF PUSH2 0xE90 JUMP JUMPDEST JUMPDEST PUSH0 PUSH2 0xEED DUP5 DUP3 DUP6 ADD PUSH2 0xEB7 JUMP JUMPDEST SWAP2 POP POP SWAP3 SWAP2 POP POP JUMP JUMPDEST PUSH0 DUP2 MLOAD SWAP1 POP SWAP2 SWAP1 POP JUMP JUMPDEST PUSH0 DUP3 DUP3 MSTORE PUSH1 0x20 DUP3 ADD SWAP1 POP SWAP3 SWAP2 POP POP JUMP JUMPDEST DUP3 DUP2 DUP4 MCOPY PUSH0 DUP4 DUP4 ADD MSTORE POP POP POP JUMP JUMPDEST PUSH0 PUSH1 0x1F NOT PUSH1 0x1F DUP4 ADD AND SWAP1 POP SWAP2 SWAP1 POP JUMP JUMPDEST PUSH0 PUSH2 0xF38 DUP3 PUSH2 0xEF6 JUMP JUMPDEST PUSH2 0xF42 DUP2 DUP6 PUSH2 0xF00 JUMP JUMPDEST SWAP4 POP PUSH2 0xF52 DUP2 DUP6 PUSH1 0x20 DUP7 ADD PUSH2 0xF10 JUMP JUMPDEST PUSH2 0xF5B DUP2 PUSH2 0xF1E JUMP JUMPDEST DUP5 ADD SWAP2 POP POP SWAP3 SWAP2 POP POP JUMP JUMPDEST PUSH0 PUSH1 0x20 DUP3 ADD SWAP1 POP DUP2 DUP2 SUB PUSH0 DUP4 ADD MSTORE PUSH2 0xF7E DUP2 DUP5 PUSH2 0xF2E JUMP JUMPDEST SWAP1 POP SWAP3 SWAP2 POP POP JUMP JUMPDEST PUSH0 PUSH0 REVERT JUMPDEST PUSH0 PUSH0 REVERT JUMPDEST PUSH0 PUSH0 REVERT JUMPDEST PUSH0 PUSH0 DUP4 PUSH1 0x1F DUP5 ADD SLT PUSH2 0xFA7 JUMPI PUSH2 0xFA6 PUSH2 0xF86 JUMP JUMPDEST JUMPDEST DUP3 CALLDATALOAD SWAP1 POP PUSH8 0xFFFFFFFFFFFFFFFF DUP2 GT ISZERO PUSH2 0xFC4 JUMPI PUSH2 0xFC3 PUSH2 0xF8A JUMP JUMPDEST JUMPDEST PUSH1 0x20 DUP4 ADD SWAP2 POP DUP4 PUSH1 0x20 DUP3 MUL DUP4 ADD GT ISZERO PUSH2 0xFE0 JUMPI PUSH2 0xFDF PUSH2 0xF8E JUMP JUMPDEST JUMPDEST SWAP3 POP SWAP3 SWAP1 POP JUMP JUMPDEST PUSH0 PUSH0 PUSH0 PUSH1 0x40 DUP5 DUP7 SUB SLT ISZERO PUSH2 0xFFE JUMPI PUSH2 0xFFD PUSH2 0xE90 JUMP JUMPDEST JUMPDEST PUSH0 DUP5 ADD CALLDATALOAD PUSH8 0xFFFFFFFFFFFFFFFF DUP2 GT ISZERO PUSH2 0x101B JUMPI PUSH2 0x101A PUSH2 0xE94 JUMP JUMPDEST JUMPDEST PUSH2 0x1027 DUP7 DUP3 DUP8 ADD PUSH2 0xF92 JUMP JUMPDEST SWAP4 POP SWAP4 POP POP PUSH1 0x20 PUSH2 0x103A DUP7 DUP3 DUP8 ADD PUSH2 0xEB7 JUMP JUMPDEST SWAP2 POP POP SWAP3 POP SWAP3 POP SWAP3 JUMP JUMPDEST PUSH0 DUP2 SWAP1 POP SWAP2 SWAP1 POP JUMP JUMPDEST PUSH2 0x1056 DUP2 PUSH2 0x1044 JUMP JUMPDEST DUP3 MSTORE POP POP JUMP JUMPDEST PUSH0 PUSH1 0x20 DUP3 ADD SWAP1 POP PUSH2 0x106F PUSH0 DUP4 ADD DUP5 PUSH2 0x104D JUMP JUMPDEST SWAP3 SWAP2 POP POP JUMP JUMPDEST PUSH2 0x107E DUP2 PUSH2 0xE98 JUMP JUMPDEST DUP3 MSTORE POP POP JUMP JUMPDEST PUSH0 PUSH1 0x20 DUP3 ADD SWAP1 POP PUSH2 0x1097 PUSH0 DUP4 ADD DUP5 PUSH2 0x1075 JUMP JUMPDEST SWAP3 SWAP2 POP POP JUMP JUMPDEST PUSH0 PUSH0 REVERT JUMPDEST PUSH32 0x4E487B7100000000000000000000000000000000000000000000000000000000 PUSH0 MSTORE PUSH1 0x41 PUSH1 0x4 MSTORE PUSH1 0x24 PUSH0 REVERT JUMPDEST PUSH2 0x10D7 DUP3 PUSH2 0xF1E JUMP JUMPDEST DUP2 ADD DUP2 DUP2 LT PUSH8 0xFFFFFFFFFFFFFFFF DUP3 GT OR ISZERO PUSH2 0x10F6 JUMPI PUSH2 0x10F5 PUSH2 0x10A1 JUMP JUMPDEST JUMPDEST DUP1 PUSH1 0x40 MSTORE POP POP POP JUMP JUMPDEST PUSH0 PUSH2 0x1108 PUSH2 0xE87 JUMP JUMPDEST SWAP1 POP PUSH2 0x1114 DUP3 DUP3 PUSH2 0x10CE JUMP JUMPDEST SWAP2 SWAP1 POP JUMP JUMPDEST PUSH0 PUSH8 0xFFFFFFFFFFFFFFFF DUP3 GT ISZERO PUSH2 0x1133 JUMPI PUSH2 0x1132 PUSH2 0x10A1 JUMP JUMPDEST JUMPDEST PUSH2 0x113C DUP3 PUSH2 0xF1E JUMP JUMPDEST SWAP1 POP PUSH1 0x20 DUP2 ADD SWAP1 POP SWAP2 SWAP1 POP JUMP JUMPDEST DUP3 DUP2 DUP4 CALLDATACOPY PUSH0 DUP4 DUP4 ADD MSTORE POP POP POP JUMP JUMPDEST PUSH0 PUSH2 0x1169 PUSH2 0x1164 DUP5 PUSH2 0x1119 JUMP JUMPDEST PUSH2 0x10FF JUMP JUMPDEST SWAP1 POP DUP3 DUP2 MSTORE PUSH1 0x20 DUP2 ADD DUP5 DUP5 DUP5 ADD GT ISZERO PUSH2 0x1185 JUMPI PUSH2 0x1184 PUSH2 0x109D JUMP JUMPDEST JUMPDEST PUSH2 0x1190 DUP5 DUP3 DUP6 PUSH2 0x1149 JUMP JUMPDEST POP SWAP4 SWAP3 POP POP POP JUMP JUMPDEST PUSH0 DUP3 PUSH1 0x1F DUP4 ADD SLT PUSH2 0x11AC JUMPI PUSH2 0x11AB PUSH2 0xF86 JUMP JUMPDEST JUMPDEST DUP2 CALLDATALOAD PUSH2 0x11BC DUP5 DUP3 PUSH1 0x20 DUP7 ADD PUSH2 0x1157 JUMP JUMPDEST SWAP2 POP POP SWAP3 SWAP2 POP POP JUMP JUMPDEST PUSH0 PUSH1 0x20 DUP3 DUP5 SUB SLT ISZERO PUSH2 0x11DA JUMPI PUSH2 0x11D9 PUSH2 0xE90 JUMP JUMPDEST JUMPDEST PUSH0 DUP3 ADD CALLDATALOAD PUSH8 0xFFFFFFFFFFFFFFFF DUP2 GT ISZERO PUSH2 0x11F7 JUMPI PUSH2 0x11F6 PUSH2 0xE94 JUMP JUMPDEST JUMPDEST PUSH2 0x1203 DUP5 DUP3 DUP6 ADD PUSH2 0x1198 JUMP JUMPDEST SWAP2 POP POP SWAP3 SWAP2 POP POP JUMP JUMPDEST PUSH0 PUSH0 PUSH0 PUSH0 PUSH1 0x40 DUP6 DUP8 SUB SLT ISZERO PUSH2 0x1224 JUMPI PUSH2 0x1223 PUSH2 0xE90 JUMP JUMPDEST JUMPDEST PUSH0 DUP6 ADD CALLDATALOAD PUSH8 0xFFFFFFFFFFFFFFFF DUP2 GT ISZERO PUSH2 0x1241 JUMPI PUSH2 0x1240 PUSH2 0xE94 JUMP JUMPDEST JUMPDEST PUSH2 0x124D DUP8 DUP3 DUP9 ADD PUSH2 0xF92 JUMP JUMPDEST SWAP5 POP SWAP5 POP POP PUSH1 0x20 DUP6 ADD CALLDATALOAD PUSH8 0xFFFFFFFFFFFFFFFF DUP2 GT ISZERO PUSH2 0x1270 JUMPI PUSH2 0x126F PUSH2 0xE94 JUMP JUMPDEST JUMPDEST PUSH2 0x127C DUP8 DUP3 DUP9 ADD PUSH2 0xF92 JUMP JUMPDEST SWAP3 POP SWAP3 POP POP SWAP3 SWAP6 SWAP2 SWAP5 POP SWAP3 POP JUMP JUMPDEST PUSH0 DUP2 MLOAD SWAP1 POP SWAP2 SWAP1 POP JUMP JUMPDEST PUSH0 DUP3 DUP3 MSTORE PUSH1 0x20 DUP3 ADD SWAP1 POP SWAP3 SWAP2 POP POP JUMP JUMPDEST PUSH0 DUP2 SWAP1 POP PUSH1 0x20 DUP3 ADD SWAP1 POP SWAP2 SWAP1 POP JUMP JUMPDEST PUSH2 0x12BC DUP2 PUSH2 0xE98 JUMP JUMPDEST DUP3 MSTORE POP POP JUMP JUMPDEST PUSH0 PUSH2 0x12CD DUP4 DUP4 PUSH2 0x12B3 JUMP JUMPDEST PUSH1 0x20 DUP4 ADD SWAP1 POP SWAP3 SWAP2 POP POP JUMP JUMPDEST PUSH0 PUSH1 0x20 DUP3 ADD SWAP1 POP SWAP2 SWAP1 POP JUMP JUMPDEST PUSH0 PUSH2 0x12EF DUP3 PUSH2 0x128A JUMP JUMPDEST PUSH2 0x12F9 DUP2 DUP6 PUSH2 0x1294 JUMP JUMPDEST SWAP4 POP PUSH2 0x1304 DUP4 PUSH2 0x12A4 JUMP JUMPDEST DUP1 PUSH0 JUMPDEST DUP4 DUP2 LT ISZERO PUSH2 0x1334 JUMPI DUP2 MLOAD PUSH2 0x131B DUP9 DUP3 PUSH2 0x12C2 JUMP JUMPDEST SWAP8 POP PUSH2 0x1326 DUP4 PUSH2 0x12D9 JUMP JUMPDEST SWAP3 POP POP PUSH1 0x1 DUP2 ADD SWAP1 POP PUSH2 0x1307 JUMP JUMPDEST POP DUP6 SWAP4 POP POP POP POP SWAP3 SWAP2 POP POP JUMP JUMPDEST PUSH0 PUSH1 0x20 DUP3 ADD SWAP1 POP DUP2 DUP2 SUB PUSH0 DUP4 ADD MSTORE PUSH2 0x1359 DUP2 DUP5 PUSH2 0x12E5 JUMP JUMPDEST SWAP1 POP SWAP3 SWAP2 POP POP JUMP JUMPDEST PUSH0 PUSH0 DUP4 PUSH1 0x1F DUP5 ADD SLT PUSH2 0x1376 JUMPI PUSH2 0x1375 PUSH2 0xF86 JUMP JUMPDEST JUMPDEST DUP3 CALLDATALOAD SWAP1 POP PUSH8 0xFFFFFFFFFFFFFFFF DUP2 GT ISZERO PUSH2 0x1393 JUMPI PUSH2 0x1392 PUSH2 0xF8A JUMP JUMPDEST JUMPDEST PUSH1 0x20 DUP4 ADD SWAP2 POP DUP4 PUSH1 0x1 DUP3 MUL DUP4 ADD GT ISZERO PUSH2 0x13AF JUMPI PUSH2 0x13AE PUSH2 0xF8E JUMP JUMPDEST JUMPDEST SWAP3 POP SWAP3 SWAP1 POP JUMP JUMPDEST PUSH0 PUSH0 PUSH1 0x20 DUP4 DUP6 SUB SLT ISZERO PUSH2 0x13CC JUMPI PUSH2 0x13CB PUSH2 0xE90 JUMP JUMPDEST JUMPDEST PUSH0 DUP4 ADD CALLDATALOAD PUSH8 0xFFFFFFFFFFFFFFFF DUP2 GT ISZERO PUSH2 0x13E9 JUMPI PUSH2 0x13E8 PUSH2 0xE94 JUMP JUMPDEST JUMPDEST PUSH2 0x13F5 DUP6 DUP3 DUP7 ADD PUSH2 0x1361 JUMP JUMPDEST SWAP3 POP SWAP3 POP POP SWAP3 POP SWAP3 SWAP1 POP JUMP JUMPDEST PUSH32 0x4E487B7100000000000000000000000000000000000000000000000000000000 PUSH0 MSTORE PUSH1 0x32 PUSH1 0x4 MSTORE PUSH1 0x24 PUSH0 REVERT JUMPDEST PUSH32 0x4E487B7100000000000000000000000000000000000000000000000000000000 PUSH0 MSTORE PUSH1 0x11 PUSH1 0x4 MSTORE PUSH1 0x24 PUSH0 REVERT JUMPDEST PUSH0 PUSH2 0x1465 DUP3 PUSH2 0xE98 JUMP JUMPDEST SWAP2 POP PUSH2 0x1470 DUP4 PUSH2 0xE98 JUMP JUMPDEST SWAP3 POP DUP3 DUP3 SUB SWAP1 POP DUP2 DUP2 GT ISZERO PUSH2 0x1488 JUMPI PUSH2 0x1487 PUSH2 0x142E JUMP JUMPDEST JUMPDEST SWAP3 SWAP2 POP POP JUMP JUMPDEST PUSH0 DUP2 SWAP1 POP SWAP3 SWAP2 POP POP JUMP JUMPDEST PUSH0 PUSH2 0x14A2 DUP3 PUSH2 0xEF6 JUMP JUMPDEST PUSH2 0x14AC DUP2 DUP6 PUSH2 0x148E JUMP JUMPDEST SWAP4 POP PUSH2 0x14BC DUP2 DUP6 PUSH1 0x20 DUP7 ADD PUSH2 0xF10 JUMP JUMPDEST DUP1 DUP5 ADD SWAP2 POP POP SWAP3 SWAP2 POP POP JUMP JUMPDEST PUSH0 PUSH2 0x14D3 DUP3 DUP6 PUSH2 0x1498 JUMP JUMPDEST SWAP2 POP PUSH2 0x14DF DUP3 DUP5 PUSH2 0x1498 JUMP JUMPDEST SWAP2 POP DUP2 SWAP1 POP SWAP4 SWAP3 POP POP POP JUMP JUMPDEST PUSH0 PUSH2 0x14F5 DUP3 PUSH2 0xE98 JUMP JUMPDEST SWAP2 POP PUSH32 0xFFFFFFFFFFFFFFFFFFFFFFFFFFFFFFFFFFFFFFFFFFFFFFFFFFFFFFFFFFFFFFFF DUP3 SUB PUSH2 0x1527 JUMPI PUSH2 0x1526 PUSH2 0x142E JUMP JUMPDEST JUMPDEST PUSH1 0x1 DUP3 ADD SWAP1 POP SWAP2 SWAP1 POP JUMP JUMPDEST PUSH0 PUSH2 0x153C DUP3 PUSH2 0xE98 JUMP JUMPDEST SWAP2 POP PUSH2 0x1547 DUP4 PUSH2 0xE98 JUMP JUMPDEST SWAP3 POP DUP3 DUP3 ADD SWAP1 POP DUP1 DUP3 GT ISZERO PUSH2 0x155F JUMPI PUSH2 0x155E PUSH2 0x142E JUMP JUMPDEST JUMPDEST SWAP3 SWAP2 POP POP JUMP JUMPDEST PUSH32 0x4E487B7100000000000000000000000000000000000000000000000000000000 PUSH0 MSTORE PUSH1 0x12 PUSH1 0x4 MSTORE PUSH1 0x24 PUSH0 REVERT JUMPDEST PUSH0 PUSH2 0x159C DUP3 PUSH2 0xE98 JUMP JUMPDEST SWAP2 POP PUSH2 0x15A7 DUP4 PUSH2 0xE98 JUMP JUMPDEST SWAP3 POP DUP3 PUSH2 0x15B7 JUMPI PUSH2 0x15B6 PUSH2 0x1565 JUMP JUMPDEST JUMPDEST DUP3 DUP3 DIV SWAP1 POP SWAP3 SWAP2 POP POP JUMP INVALID LOG2 PUSH5 0x6970667358 0x22 SLT KECCAK256 MSTORE PC PUSH29 0x4B338A34B23612B514ABE5A0A385CE6B416D39B9147D2CB542FAB8EC03 PUSH5 0x736F6C6343 STOP ADDMOD 0x1E STOP CALLER "
		},
		"gasEstimates": {
			"creation": {
				"codeDepositCost": "1124800",
				"executionCost": "1165",
				"totalCost": "1125965"
			},
			"external": {
				"binarySearch(uint256[],uint256)": "infinite",
				"binarySearch2(uint256[],uint256)": "infinite",
				"intToRoman(uint256)": "infinite",
				"mergeArrays(uint256[],uint256[])": "infinite",
				"romanToInt(string)": "infinite",
				"stringReverse(string)": "infinite"
			},
			"internal": {
				"valueOf(bytes1)": "262"
			}
		},
		"methodIdentifiers": {
			"binarySearch(uint256[],uint256)": "b12601da",
			"binarySearch2(uint256[],uint256)": "aaee9e95",
			"intToRoman(uint256)": "0cbc513a",
			"mergeArrays(uint256[],uint256[])": "de948709",
			"romanToInt(string)": "cb159dfe",
			"stringReverse(string)": "f3582c69"
		}
	},
	"abi": [
		{
			"inputs": [
				{
					"internalType": "uint256[]",
					"name": "arr",
					"type": "uint256[]"
				},
				{
					"internalType": "uint256",
					"name": "target",
					"type": "uint256"
				}
			],
			"name": "binarySearch",
			"outputs": [
				{
					"internalType": "uint256",
					"name": "",
					"type": "uint256"
				}
			],
			"stateMutability": "pure",
			"type": "function"
		},
		{
			"inputs": [
				{
					"internalType": "uint256[]",
					"name": "arr",
					"type": "uint256[]"
				},
				{
					"internalType": "uint256",
					"name": "target",
					"type": "uint256"
				}
			],
			"name": "binarySearch2",
			"outputs": [
				{
					"internalType": "int256",
					"name": "",
					"type": "int256"
				}
			],
			"stateMutability": "pure",
			"type": "function"
		},
		{
			"inputs": [
				{
					"internalType": "uint256",
					"name": "num",
					"type": "uint256"
				}
			],
			"name": "intToRoman",
			"outputs": [
				{
					"internalType": "string",
					"name": "",
					"type": "string"
				}
			],
			"stateMutability": "pure",
			"type": "function"
		},
		{
			"inputs": [
				{
					"internalType": "uint256[]",
					"name": "arr1",
					"type": "uint256[]"
				},
				{
					"internalType": "uint256[]",
					"name": "arr2",
					"type": "uint256[]"
				}
			],
			"name": "mergeArrays",
			"outputs": [
				{
					"internalType": "uint256[]",
					"name": "",
					"type": "uint256[]"
				}
			],
			"stateMutability": "pure",
			"type": "function"
		},
		{
			"inputs": [
				{
					"internalType": "string",
					"name": "str",
					"type": "string"
				}
			],
			"name": "romanToInt",
			"outputs": [
				{
					"internalType": "uint256",
					"name": "",
					"type": "uint256"
				}
			],
			"stateMutability": "pure",
			"type": "function"
		},
		{
			"inputs": [
				{
					"internalType": "string",
					"name": "line",
					"type": "string"
				}
			],
			"name": "stringReverse",
			"outputs": [
				{
					"internalType": "string",
					"name": "",
					"type": "string"
				}
			],
			"stateMutability": "pure",
			"type": "function"
		}
	]
}