{
	"data": {
		"bytecode": {
			"linkReferences": {},
			"object": "6080604052348015600e575f5ffd5b506116288061001c5f395ff3fe608060405234801561000f575f5ffd5b5060043610610060575f3560e01c80630cbc513a14610064578063aaee9e9514610094578063b12601da146100c4578063cb159dfe146100f4578063de94870914610124578063f3582c6914610154575b5f5ffd5b61007e60048036038101906100799190610efb565b610184565b60405161008b9190610f96565b60405180910390f35b6100ae60048036038101906100a99190611017565b61059d565b6040516100bb919061108c565b60405180910390f35b6100de60048036038101906100d99190611017565b61069a565b6040516100eb91906110b4565b60405180910390f35b61010e600480360381019061010991906111f5565b6107b5565b60405161011b91906110b4565b60405180910390f35b61013e6004803603810190610139919061123c565b6108d5565b60405161014b9190611371565b60405180910390f35b61016e600480360381019061016991906113e6565b610b12565b60405161017b9190610f96565b60405180910390f35b60605f604051806101a001604052806103e8815260200161038481526020016101f48152602001610190815260200160648152602001605a81526020016032815260200160288152602001600a8152602001600981526020016005815260200160048152602001600181525090505f604051806101a001604052806040518060400160405280600181526020017f4d0000000000000000000000000000000000000000000000000000000000000081525081526020016040518060400160405280600281526020017f434d00000000000000000000000000000000000000000000000000000000000081525081526020016040518060400160405280600181526020017f440000000000000000000000000000000000000000000000000000000000000081525081526020016040518060400160405280600281526020017f434400000000000000000000000000000000000000000000000000000000000081525081526020016040518060400160405280600181526020017f430000000000000000000000000000000000000000000000000000000000000081525081526020016040518060400160405280600281526020017f584300000000000000000000000000000000000000000000000000000000000081525081526020016040518060400160405280600181526020017f4c0000000000000000000000000000000000000000000000000000000000000081525081526020016040518060400160405280600281526020017f584c00000000000000000000000000000000000000000000000000000000000081525081526020016040518060400160405280600181526020017f580000000000000000000000000000000000000000000000000000000000000081525081526020016040518060400160405280600281526020017f495800000000000000000000000000000000000000000000000000000000000081525081526020016040518060400160405280600181526020017f560000000000000000000000000000000000000000000000000000000000000081525081526020016040518060400160405280600281526020017f495600000000000000000000000000000000000000000000000000000000000081525081526020016040518060400160405280600181526020017f4900000000000000000000000000000000000000000000000000000000000000815250815250905060605f5f90505b5f8614610591575f8482600d81106105205761051f611431565b5b6020020151905080871061057c57808761053a919061148b565b9650828483600d81106105505761054f611431565b5b60200201516040516020016105669291906114f8565b604051602081830303815290604052925061058b565b81806105879061151b565b9250505b50610505565b81945050505050919050565b5f5f8484905090505f81036105d5577fffffffffffffffffffffffffffffffffffffffffffffffffffffffffffffffff915050610693565b5f5f90505f6001836105e7919061148b565b90505f5f90505b81831161068b57600282846106039190611562565b61060d91906115c2565b905087878281811061062257610621611431565b5b905060200201358611156106445760018161063d9190611562565b9250610686565b87878281811061065757610656611431565b5b9050602002013586101561067957600181610672919061148b565b9150610685565b80945050505050610693565b5b6105ee565b809450505050505b9392505050565b5f5f8484905090505f5f90505f6001836106b4919061148b565b90505f61270f90505b816001846106cb9190611562565b101561074f57600282846106df9190611562565b6106e991906115c2565b90508787828181106106fe576106fd611431565b5b905060200201358611156107145780925061074a565b87878281811061072757610726611431565b5b9050602002013586101561073d57809150610749565b809450505050506107ae565b5b6106bd565b8588888581811061076357610762611431565b5b9050602002013503610777578290506107a6565b8588888481811061078b5761078a611431565b5b905060200201350361079f578190506107a5565b61270f90505b5b809450505050505b9392505050565b5f5f8290505f5f90505f825190505f5f90505b818110156108c9575f6107f78583815181106107e7576107e6611431565b5b602001015160f81c60f81b610c6d565b9050600183610806919061148b565b82036108205780846108189190611562565b9350506108c9565b5f610853866001856108329190611562565b8151811061084357610842611431565b5b602001015160f81c60f81b610c6d565b9050808210156108a55781851015610891578181610871919061148b565b8561087c9190611562565b945082806108899061151b565b9350506108a0565b818561089d919061148b565b94505b6108b4565b81856108b19190611562565b94505b505080806108c19061151b565b9150506107c8565b50819350505050919050565b60605f8585905090505f8484905090505f81836108f29190611562565b67ffffffffffffffff81111561090b5761090a6110d1565b5b6040519080825280602002602001820160405280156109395781602001602082028036833780820191505090505b5090505f5f90505f5f90505f5f90505b858310801561095757508482105b15610a435788888381811061096f5761096e611431565b5b905060200201358b8b8581811061098957610988611431565b5b9050602002013510156109ec578a8a84806109a39061151b565b95508181106109b5576109b4611431565b5b905060200201358482806109c89061151b565b9350815181106109db576109da611431565b5b602002602001018181525050610a3e565b888883806109f99061151b565b9450818110610a0b57610a0a611431565b5b90506020020135848280610a1e9061151b565b935081518110610a3157610a30611431565b5b6020026020010181815250505b610949565b5b85831015610aa2578a8a8480610a599061151b565b9550818110610a6b57610a6a611431565b5b90506020020135848280610a7e9061151b565b935081518110610a9157610a90611431565b5b602002602001018181525050610a44565b5b84821015610b015788888380610ab89061151b565b9450818110610aca57610ac9611431565b5b90506020020135848280610add9061151b565b935081518110610af057610aef611431565b5b602002602001018181525050610aa3565b839650505050505050949350505050565b60605f83838080601f0160208091040260200160405190810160405280939291908181526020018383808284375f81840152601f19601f8201169050808301925050505050505090505f815190505f8103610b7f5760405180602001604052805f81525092505050610c67565b5f8167ffffffffffffffff811115610b9a57610b996110d1565b5b6040519080825280601f01601f191660200182016040528015610bcc5781602001600182028036833780820191505090505b5090505f5f90505b82811015610c5f578381600185610beb919061148b565b610bf5919061148b565b81518110610c0657610c05611431565b5b602001015160f81c60f81b828281518110610c2457610c23611431565b5b60200101907effffffffffffffffffffffffffffffffffffffffffffffffffffffffffffff191690815f1a9053508080600101915050610bd4565b508093505050505b92915050565b5f7f4900000000000000000000000000000000000000000000000000000000000000827effffffffffffffffffffffffffffffffffffffffffffffffffffffffffffff191603610cc05760019050610eb2565b7f5600000000000000000000000000000000000000000000000000000000000000827effffffffffffffffffffffffffffffffffffffffffffffffffffffffffffff191603610d125760059050610eb2565b7f5800000000000000000000000000000000000000000000000000000000000000827effffffffffffffffffffffffffffffffffffffffffffffffffffffffffffff191603610d6457600a9050610eb2565b7f4c00000000000000000000000000000000000000000000000000000000000000827effffffffffffffffffffffffffffffffffffffffffffffffffffffffffffff191603610db65760329050610eb2565b7f4300000000000000000000000000000000000000000000000000000000000000827effffffffffffffffffffffffffffffffffffffffffffffffffffffffffffff191603610e085760649050610eb2565b7f4400000000000000000000000000000000000000000000000000000000000000827effffffffffffffffffffffffffffffffffffffffffffffffffffffffffffff191603610e5b576101f49050610eb2565b7f4d00000000000000000000000000000000000000000000000000000000000000827effffffffffffffffffffffffffffffffffffffffffffffffffffffffffffff191603610eae576103e89050610eb2565b5f90505b919050565b5f604051905090565b5f5ffd5b5f5ffd5b5f819050919050565b610eda81610ec8565b8114610ee4575f5ffd5b50565b5f81359050610ef581610ed1565b92915050565b5f60208284031215610f1057610f0f610ec0565b5b5f610f1d84828501610ee7565b91505092915050565b5f81519050919050565b5f82825260208201905092915050565b8281835e5f83830152505050565b5f601f19601f8301169050919050565b5f610f6882610f26565b610f728185610f30565b9350610f82818560208601610f40565b610f8b81610f4e565b840191505092915050565b5f6020820190508181035f830152610fae8184610f5e565b905092915050565b5f5ffd5b5f5ffd5b5f5ffd5b5f5f83601f840112610fd757610fd6610fb6565b5b8235905067ffffffffffffffff811115610ff457610ff3610fba565b5b6020830191508360208202830111156110105761100f610fbe565b5b9250929050565b5f5f5f6040848603121561102e5761102d610ec0565b5b5f84013567ffffffffffffffff81111561104b5761104a610ec4565b5b61105786828701610fc2565b9350935050602061106a86828701610ee7565b9150509250925092565b5f819050919050565b61108681611074565b82525050565b5f60208201905061109f5f83018461107d565b92915050565b6110ae81610ec8565b82525050565b5f6020820190506110c75f8301846110a5565b92915050565b5f5ffd5b7f4e487b71000000000000000000000000000000000000000000000000000000005f52604160045260245ffd5b61110782610f4e565b810181811067ffffffffffffffff82111715611126576111256110d1565b5b80604052505050565b5f611138610eb7565b905061114482826110fe565b919050565b5f67ffffffffffffffff821115611163576111626110d1565b5b61116c82610f4e565b9050602081019050919050565b828183375f83830152505050565b5f61119961119484611149565b61112f565b9050828152602081018484840111156111b5576111b46110cd565b5b6111c0848285611179565b509392505050565b5f82601f8301126111dc576111db610fb6565b5b81356111ec848260208601611187565b91505092915050565b5f6020828403121561120a57611209610ec0565b5b5f82013567ffffffffffffffff81111561122757611226610ec4565b5b611233848285016111c8565b91505092915050565b5f5f5f5f6040858703121561125457611253610ec0565b5b5f85013567ffffffffffffffff81111561127157611270610ec4565b5b61127d87828801610fc2565b9450945050602085013567ffffffffffffffff8111156112a05761129f610ec4565b5b6112ac87828801610fc2565b925092505092959194509250565b5f81519050919050565b5f82825260208201905092915050565b5f819050602082019050919050565b6112ec81610ec8565b82525050565b5f6112fd83836112e3565b60208301905092915050565b5f602082019050919050565b5f61131f826112ba565b61132981856112c4565b9350611334836112d4565b805f5b8381101561136457815161134b88826112f2565b975061135683611309565b925050600181019050611337565b5085935050505092915050565b5f6020820190508181035f8301526113898184611315565b905092915050565b5f5f83601f8401126113a6576113a5610fb6565b5b8235905067ffffffffffffffff8111156113c3576113c2610fba565b5b6020830191508360018202830111156113df576113de610fbe565b5b9250929050565b5f5f602083850312156113fc576113fb610ec0565b5b5f83013567ffffffffffffffff81111561141957611418610ec4565b5b61142585828601611391565b92509250509250929050565b7f4e487b71000000000000000000000000000000000000000000000000000000005f52603260045260245ffd5b7f4e487b71000000000000000000000000000000000000000000000000000000005f52601160045260245ffd5b5f61149582610ec8565b91506114a083610ec8565b92508282039050818111156114b8576114b761145e565b5b92915050565b5f81905092915050565b5f6114d282610f26565b6114dc81856114be565b93506114ec818560208601610f40565b80840191505092915050565b5f61150382856114c8565b915061150f82846114c8565b91508190509392505050565b5f61152582610ec8565b91507fffffffffffffffffffffffffffffffffffffffffffffffffffffffffffffffff82036115575761155661145e565b5b600182019050919050565b5f61156c82610ec8565b915061157783610ec8565b925082820190508082111561158f5761158e61145e565b5b92915050565b7f4e487b71000000000000000000000000000000000000000000000000000000005f52601260045260245ffd5b5f6115cc82610ec8565b91506115d783610ec8565b9250826115e7576115e6611595565b5b82820490509291505056fea26469706673582212209e36ba904e1a5c48f3fcaf2c52529535af9c04c860a72788f4d621df1b6bc30564736f6c634300081e0033",
			"opcodes": "PUSH1 0x80 PUSH1 0x40 MSTORE CALLVALUE DUP1 ISZERO PUSH1 0xE JUMPI PUSH0 PUSH0 REVERT JUMPDEST POP PUSH2 0x1628 DUP1 PUSH2 0x1C PUSH0 CODECOPY PUSH0 RETURN INVALID PUSH1 0x80 PUSH1 0x40 MSTORE CALLVALUE DUP1 ISZERO PUSH2 0xF JUMPI PUSH0 PUSH0 REVERT JUMPDEST POP PUSH1 0x4 CALLDATASIZE LT PUSH2 0x60 JUMPI PUSH0 CALLDATALOAD PUSH1 0xE0 SHR DUP1 PUSH4 0xCBC513A EQ PUSH2 0x64 JUMPI DUP1 PUSH4 0xAAEE9E95 EQ PUSH2 0x94 JUMPI DUP1 PUSH4 0xB12601DA EQ PUSH2 0xC4 JUMPI DUP1 PUSH4 0xCB159DFE EQ PUSH2 0xF4 JUMPI DUP1 PUSH4 0xDE948709 EQ PUSH2 0x124 JUMPI DUP1 PUSH4 0xF3582C69 EQ PUSH2 0x154 JUMPI JUMPDEST PUSH0 PUSH0 REVERT JUMPDEST PUSH2 0x7E PUSH1 0x4 DUP1 CALLDATASIZE SUB DUP2 ADD SWAP1 PUSH2 0x79 SWAP2 SWAP1 PUSH2 0xEFB JUMP JUMPDEST PUSH2 0x184 JUMP JUMPDEST PUSH1 0x40 MLOAD PUSH2 0x8B SWAP2 SWAP1 PUSH2 0xF96 JUMP JUMPDEST PUSH1 0x40 MLOAD DUP1 SWAP2 SUB SWAP1 RETURN JUMPDEST PUSH2 0xAE PUSH1 0x4 DUP1 CALLDATASIZE SUB DUP2 ADD SWAP1 PUSH2 0xA9 SWAP2 SWAP1 PUSH2 0x1017 JUMP JUMPDEST PUSH2 0x59D JUMP JUMPDEST PUSH1 0x40 MLOAD PUSH2 0xBB SWAP2 SWAP1 PUSH2 0x108C JUMP JUMPDEST PUSH1 0x40 MLOAD DUP1 SWAP2 SUB SWAP1 RETURN JUMPDEST PUSH2 0xDE PUSH1 0x4 DUP1 CALLDATASIZE SUB DUP2 ADD SWAP1 PUSH2 0xD9 SWAP2 SWAP1 PUSH2 0x1017 JUMP JUMPDEST PUSH2 0x69A JUMP JUMPDEST PUSH1 0x40 MLOAD PUSH2 0xEB SWAP2 SWAP1 PUSH2 0x10B4 JUMP JUMPDEST PUSH1 0x40 MLOAD DUP1 SWAP2 SUB SWAP1 RETURN JUMPDEST PUSH2 0x10E PUSH1 0x4 DUP1 CALLDATASIZE SUB DUP2 ADD SWAP1 PUSH2 0x109 SWAP2 SWAP1 PUSH2 0x11F5 JUMP JUMPDEST PUSH2 0x7B5 JUMP JUMPDEST PUSH1 0x40 MLOAD PUSH2 0x11B SWAP2 SWAP1 PUSH2 0x10B4 JUMP JUMPDEST PUSH1 0x40 MLOAD DUP1 SWAP2 SUB SWAP1 RETURN JUMPDEST PUSH2 0x13E PUSH1 0x4 DUP1 CALLDATASIZE SUB DUP2 ADD SWAP1 PUSH2 0x139 SWAP2 SWAP1 PUSH2 0x123C JUMP JUMPDEST PUSH2 0x8D5 JUMP JUMPDEST PUSH1 0x40 MLOAD PUSH2 0x14B SWAP2 SWAP1 PUSH2 0x1371 JUMP JUMPDEST PUSH1 0x40 MLOAD DUP1 SWAP2 SUB SWAP1 RETURN JUMPDEST PUSH2 0x16E PUSH1 0x4 DUP1 CALLDATASIZE SUB DUP2 ADD SWAP1 PUSH2 0x169 SWAP2 SWAP1 PUSH2 0x13E6 JUMP JUMPDEST PUSH2 0xB12 JUMP JUMPDEST PUSH1 0x40 MLOAD PUSH2 0x17B SWAP2 SWAP1 PUSH2 0xF96 JUMP JUMPDEST PUSH1 0x40 MLOAD DUP1 SWAP2 SUB SWAP1 RETURN JUMPDEST PUSH1 0x60 PUSH0 PUSH1 0x40 MLOAD DUP1 PUSH2 0x1A0 ADD PUSH1 0x40 MSTORE DUP1 PUSH2 0x3E8 DUP2 MSTORE PUSH1 0x20 ADD PUSH2 0x384 DUP2 MSTORE PUSH1 0x20 ADD PUSH2 0x1F4 DUP2 MSTORE PUSH1 0x20 ADD PUSH2 0x190 DUP2 MSTORE PUSH1 0x20 ADD PUSH1 0x64 DUP2 MSTORE PUSH1 0x20 ADD PUSH1 0x5A DUP2 MSTORE PUSH1 0x20 ADD PUSH1 0x32 DUP2 MSTORE PUSH1 0x20 ADD PUSH1 0x28 DUP2 MSTORE PUSH1 0x20 ADD PUSH1 0xA DUP2 MSTORE PUSH1 0x20 ADD PUSH1 0x9 DUP2 MSTORE PUSH1 0x20 ADD PUSH1 0x5 DUP2 MSTORE PUSH1 0x20 ADD PUSH1 0x4 DUP2 MSTORE PUSH1 0x20 ADD PUSH1 0x1 DUP2 MSTORE POP SWAP1 POP PUSH0 PUSH1 0x40 MLOAD DUP1 PUSH2 0x1A0 ADD PUSH1 0x40 MSTORE DUP1 PUSH1 0x40 MLOAD DUP1 PUSH1 0x40 ADD PUSH1 0x40 MSTORE DUP1 PUSH1 0x1 DUP2 MSTORE PUSH1 0x20 ADD PUSH32 0x4D00000000000000000000000000000000000000000000000000000000000000 DUP2 MSTORE POP DUP2 MSTORE PUSH1 0x20 ADD PUSH1 0x40 MLOAD DUP1 PUSH1 0x40 ADD PUSH1 0x40 MSTORE DUP1 PUSH1 0x2 DUP2 MSTORE PUSH1 0x20 ADD PUSH32 0x434D000000000000000000000000000000000000000000000000000000000000 DUP2 MSTORE POP DUP2 MSTORE PUSH1 0x20 ADD PUSH1 0x40 MLOAD DUP1 PUSH1 0x40 ADD PUSH1 0x40 MSTORE DUP1 PUSH1 0x1 DUP2 MSTORE PUSH1 0x20 ADD PUSH32 0x4400000000000000000000000000000000000000000000000000000000000000 DUP2 MSTORE POP DUP2 MSTORE PUSH1 0x20 ADD PUSH1 0x40 MLOAD DUP1 PUSH1 0x40 ADD PUSH1 0x40 MSTORE DUP1 PUSH1 0x2 DUP2 MSTORE PUSH1 0x20 ADD PUSH32 0x4344000000000000000000000000000000000000000000000000000000000000 DUP2 MSTORE POP DUP2 MSTORE PUSH1 0x20 ADD PUSH1 0x40 MLOAD DUP1 PUSH1 0x40 ADD PUSH1 0x40 MSTORE DUP1 PUSH1 0x1 DUP2 MSTORE PUSH1 0x20 ADD PUSH32 0x4300000000000000000000000000000000000000000000000000000000000000 DUP2 MSTORE POP DUP2 MSTORE PUSH1 0x20 ADD PUSH1 0x40 MLOAD DUP1 PUSH1 0x40 ADD PUSH1 0x40 MSTORE DUP1 PUSH1 0x2 DUP2 MSTORE PUSH1 0x20 ADD PUSH32 0x5843000000000000000000000000000000000000000000000000000000000000 DUP2 MSTORE POP DUP2 MSTORE PUSH1 0x20 ADD PUSH1 0x40 MLOAD DUP1 PUSH1 0x40 ADD PUSH1 0x40 MSTORE DUP1 PUSH1 0x1 DUP2 MSTORE PUSH1 0x20 ADD PUSH32 0x4C00000000000000000000000000000000000000000000000000000000000000 DUP2 MSTORE POP DUP2 MSTORE PUSH1 0x20 ADD PUSH1 0x40 MLOAD DUP1 PUSH1 0x40 ADD PUSH1 0x40 MSTORE DUP1 PUSH1 0x2 DUP2 MSTORE PUSH1 0x20 ADD PUSH32 0x584C000000000000000000000000000000000000000000000000000000000000 DUP2 MSTORE POP DUP2 MSTORE PUSH1 0x20 ADD PUSH1 0x40 MLOAD DUP1 PUSH1 0x40 ADD PUSH1 0x40 MSTORE DUP1 PUSH1 0x1 DUP2 MSTORE PUSH1 0x20 ADD PUSH32 0x5800000000000000000000000000000000000000000000000000000000000000 DUP2 MSTORE POP DUP2 MSTORE PUSH1 0x20 ADD PUSH1 0x40 MLOAD DUP1 PUSH1 0x40 ADD PUSH1 0x40 MSTORE DUP1 PUSH1 0x2 DUP2 MSTORE PUSH1 0x20 ADD PUSH32 0x4958000000000000000000000000000000000000000000000000000000000000 DUP2 MSTORE POP DUP2 MSTORE PUSH1 0x20 ADD PUSH1 0x40 MLOAD DUP1 PUSH1 0x40 ADD PUSH1 0x40 MSTORE DUP1 PUSH1 0x1 DUP2 MSTORE PUSH1 0x20 ADD PUSH32 0x5600000000000000000000000000000000000000000000000000000000000000 DUP2 MSTORE POP DUP2 MSTORE PUSH1 0x20 ADD PUSH1 0x40 MLOAD DUP1 PUSH1 0x40 ADD PUSH1 0x40 MSTORE DUP1 PUSH1 0x2 DUP2 MSTORE PUSH1 0x20 ADD PUSH32 0x4956000000000000000000000000000000000000000000000000000000000000 DUP2 MSTORE POP DUP2 MSTORE PUSH1 0x20 ADD PUSH1 0x40 MLOAD DUP1 PUSH1 0x40 ADD PUSH1 0x40 MSTORE DUP1 PUSH1 0x1 DUP2 MSTORE PUSH1 0x20 ADD PUSH32 0x4900000000000000000000000000000000000000000000000000000000000000 DUP2 MSTORE POP DUP2 MSTORE POP SWAP1 POP PUSH1 0x60 PUSH0 PUSH0 SWAP1 POP JUMPDEST PUSH0 DUP7 EQ PUSH2 0x591 JUMPI PUSH0 DUP5 DUP3 PUSH1 0xD DUP2 LT PUSH2 0x520 JUMPI PUSH2 0x51F PUSH2 0x1431 JUMP JUMPDEST JUMPDEST PUSH1 0x20 MUL ADD MLOAD SWAP1 POP DUP1 DUP8 LT PUSH2 0x57C JUMPI DUP1 DUP8 PUSH2 0x53A SWAP2 SWAP1 PUSH2 0x148B JUMP JUMPDEST SWAP7 POP DUP3 DUP5 DUP4 PUSH1 0xD DUP2 LT PUSH2 0x550 JUMPI PUSH2 0x54F PUSH2 0x1431 JUMP JUMPDEST JUMPDEST PUSH1 0x20 MUL ADD MLOAD PUSH1 0x40 MLOAD PUSH1 0x20 ADD PUSH2 0x566 SWAP3 SWAP2 SWAP1 PUSH2 0x14F8 JUMP JUMPDEST PUSH1 0x40 MLOAD PUSH1 0x20 DUP2 DUP4 SUB SUB DUP2 MSTORE SWAP1 PUSH1 0x40 MSTORE SWAP3 POP PUSH2 0x58B JUMP JUMPDEST DUP2 DUP1 PUSH2 0x587 SWAP1 PUSH2 0x151B JUMP JUMPDEST SWAP3 POP POP JUMPDEST POP PUSH2 0x505 JUMP JUMPDEST DUP2 SWAP5 POP POP POP POP POP SWAP2 SWAP1 POP JUMP JUMPDEST PUSH0 PUSH0 DUP5 DUP5 SWAP1 POP SWAP1 POP PUSH0 DUP2 SUB PUSH2 0x5D5 JUMPI PUSH32 0xFFFFFFFFFFFFFFFFFFFFFFFFFFFFFFFFFFFFFFFFFFFFFFFFFFFFFFFFFFFFFFFF SWAP2 POP POP PUSH2 0x693 JUMP JUMPDEST PUSH0 PUSH0 SWAP1 POP PUSH0 PUSH1 0x1 DUP4 PUSH2 0x5E7 SWAP2 SWAP1 PUSH2 0x148B JUMP JUMPDEST SWAP1 POP PUSH0 PUSH0 SWAP1 POP JUMPDEST DUP2 DUP4 GT PUSH2 0x68B JUMPI PUSH1 0x2 DUP3 DUP5 PUSH2 0x603 SWAP2 SWAP1 PUSH2 0x1562 JUMP JUMPDEST PUSH2 0x60D SWAP2 SWAP1 PUSH2 0x15C2 JUMP JUMPDEST SWAP1 POP DUP8 DUP8 DUP3 DUP2 DUP2 LT PUSH2 0x622 JUMPI PUSH2 0x621 PUSH2 0x1431 JUMP JUMPDEST JUMPDEST SWAP1 POP PUSH1 0x20 MUL ADD CALLDATALOAD DUP7 GT ISZERO PUSH2 0x644 JUMPI PUSH1 0x1 DUP2 PUSH2 0x63D SWAP2 SWAP1 PUSH2 0x1562 JUMP JUMPDEST SWAP3 POP PUSH2 0x686 JUMP JUMPDEST DUP8 DUP8 DUP3 DUP2 DUP2 LT PUSH2 0x657 JUMPI PUSH2 0x656 PUSH2 0x1431 JUMP JUMPDEST JUMPDEST SWAP1 POP PUSH1 0x20 MUL ADD CALLDATALOAD DUP7 LT ISZERO PUSH2 0x679 JUMPI PUSH1 0x1 DUP2 PUSH2 0x672 SWAP2 SWAP1 PUSH2 0x148B JUMP JUMPDEST SWAP2 POP PUSH2 0x685 JUMP JUMPDEST DUP1 SWAP5 POP POP POP POP POP PUSH2 0x693 JUMP JUMPDEST JUMPDEST PUSH2 0x5EE JUMP JUMPDEST DUP1 SWAP5 POP POP POP POP POP JUMPDEST SWAP4 SWAP3 POP POP POP JUMP JUMPDEST PUSH0 PUSH0 DUP5 DUP5 SWAP1 POP SWAP1 POP PUSH0 PUSH0 SWAP1 POP PUSH0 PUSH1 0x1 DUP4 PUSH2 0x6B4 SWAP2 SWAP1 PUSH2 0x148B JUMP JUMPDEST SWAP1 POP PUSH0 PUSH2 0x270F SWAP1 POP JUMPDEST DUP2 PUSH1 0x1 DUP5 PUSH2 0x6CB SWAP2 SWAP1 PUSH2 0x1562 JUMP JUMPDEST LT ISZERO PUSH2 0x74F JUMPI PUSH1 0x2 DUP3 DUP5 PUSH2 0x6DF SWAP2 SWAP1 PUSH2 0x1562 JUMP JUMPDEST PUSH2 0x6E9 SWAP2 SWAP1 PUSH2 0x15C2 JUMP JUMPDEST SWAP1 POP DUP8 DUP8 DUP3 DUP2 DUP2 LT PUSH2 0x6FE JUMPI PUSH2 0x6FD PUSH2 0x1431 JUMP JUMPDEST JUMPDEST SWAP1 POP PUSH1 0x20 MUL ADD CALLDATALOAD DUP7 GT ISZERO PUSH2 0x714 JUMPI DUP1 SWAP3 POP PUSH2 0x74A JUMP JUMPDEST DUP8 DUP8 DUP3 DUP2 DUP2 LT PUSH2 0x727 JUMPI PUSH2 0x726 PUSH2 0x1431 JUMP JUMPDEST JUMPDEST SWAP1 POP PUSH1 0x20 MUL ADD CALLDATALOAD DUP7 LT ISZERO PUSH2 0x73D JUMPI DUP1 SWAP2 POP PUSH2 0x749 JUMP JUMPDEST DUP1 SWAP5 POP POP POP POP POP PUSH2 0x7AE JUMP JUMPDEST JUMPDEST PUSH2 0x6BD JUMP JUMPDEST DUP6 DUP9 DUP9 DUP6 DUP2 DUP2 LT PUSH2 0x763 JUMPI PUSH2 0x762 PUSH2 0x1431 JUMP JUMPDEST JUMPDEST SWAP1 POP PUSH1 0x20 MUL ADD CALLDATALOAD SUB PUSH2 0x777 JUMPI DUP3 SWAP1 POP PUSH2 0x7A6 JUMP JUMPDEST DUP6 DUP9 DUP9 DUP5 DUP2 DUP2 LT PUSH2 0x78B JUMPI PUSH2 0x78A PUSH2 0x1431 JUMP JUMPDEST JUMPDEST SWAP1 POP PUSH1 0x20 MUL ADD CALLDATALOAD SUB PUSH2 0x79F JUMPI DUP2 SWAP1 POP PUSH2 0x7A5 JUMP JUMPDEST PUSH2 0x270F SWAP1 POP JUMPDEST JUMPDEST DUP1 SWAP5 POP POP POP POP POP JUMPDEST SWAP4 SWAP3 POP POP POP JUMP JUMPDEST PUSH0 PUSH0 DUP3 SWAP1 POP PUSH0 PUSH0 SWAP1 POP PUSH0 DUP3 MLOAD SWAP1 POP PUSH0 PUSH0 SWAP1 POP JUMPDEST DUP2 DUP2 LT ISZERO PUSH2 0x8C9 JUMPI PUSH0 PUSH2 0x7F7 DUP6 DUP4 DUP2 MLOAD DUP2 LT PUSH2 0x7E7 JUMPI PUSH2 0x7E6 PUSH2 0x1431 JUMP JUMPDEST JUMPDEST PUSH1 0x20 ADD ADD MLOAD PUSH1 0xF8 SHR PUSH1 0xF8 SHL PUSH2 0xC6D JUMP JUMPDEST SWAP1 POP PUSH1 0x1 DUP4 PUSH2 0x806 SWAP2 SWAP1 PUSH2 0x148B JUMP JUMPDEST DUP3 SUB PUSH2 0x820 JUMPI DUP1 DUP5 PUSH2 0x818 SWAP2 SWAP1 PUSH2 0x1562 JUMP JUMPDEST SWAP4 POP POP PUSH2 0x8C9 JUMP JUMPDEST PUSH0 PUSH2 0x853 DUP7 PUSH1 0x1 DUP6 PUSH2 0x832 SWAP2 SWAP1 PUSH2 0x1562 JUMP JUMPDEST DUP2 MLOAD DUP2 LT PUSH2 0x843 JUMPI PUSH2 0x842 PUSH2 0x1431 JUMP JUMPDEST JUMPDEST PUSH1 0x20 ADD ADD MLOAD PUSH1 0xF8 SHR PUSH1 0xF8 SHL PUSH2 0xC6D JUMP JUMPDEST SWAP1 POP DUP1 DUP3 LT ISZERO PUSH2 0x8A5 JUMPI DUP2 DUP6 LT ISZERO PUSH2 0x891 JUMPI DUP2 DUP2 PUSH2 0x871 SWAP2 SWAP1 PUSH2 0x148B JUMP JUMPDEST DUP6 PUSH2 0x87C SWAP2 SWAP1 PUSH2 0x1562 JUMP JUMPDEST SWAP5 POP DUP3 DUP1 PUSH2 0x889 SWAP1 PUSH2 0x151B JUMP JUMPDEST SWAP4 POP POP PUSH2 0x8A0 JUMP JUMPDEST DUP2 DUP6 PUSH2 0x89D SWAP2 SWAP1 PUSH2 0x148B JUMP JUMPDEST SWAP5 POP JUMPDEST PUSH2 0x8B4 JUMP JUMPDEST DUP2 DUP6 PUSH2 0x8B1 SWAP2 SWAP1 PUSH2 0x1562 JUMP JUMPDEST SWAP5 POP JUMPDEST POP POP DUP1 DUP1 PUSH2 0x8C1 SWAP1 PUSH2 0x151B JUMP JUMPDEST SWAP2 POP POP PUSH2 0x7C8 JUMP JUMPDEST POP DUP2 SWAP4 POP POP POP POP SWAP2 SWAP1 POP JUMP JUMPDEST PUSH1 0x60 PUSH0 DUP6 DUP6 SWAP1 POP SWAP1 POP PUSH0 DUP5 DUP5 SWAP1 POP SWAP1 POP PUSH0 DUP2 DUP4 PUSH2 0x8F2 SWAP2 SWAP1 PUSH2 0x1562 JUMP JUMPDEST PUSH8 0xFFFFFFFFFFFFFFFF DUP2 GT ISZERO PUSH2 0x90B JUMPI PUSH2 0x90A PUSH2 0x10D1 JUMP JUMPDEST JUMPDEST PUSH1 0x40 MLOAD SWAP1 DUP1 DUP3 MSTORE DUP1 PUSH1 0x20 MUL PUSH1 0x20 ADD DUP3 ADD PUSH1 0x40 MSTORE DUP1 ISZERO PUSH2 0x939 JUMPI DUP2 PUSH1 0x20 ADD PUSH1 0x20 DUP3 MUL DUP1 CALLDATASIZE DUP4 CALLDATACOPY DUP1 DUP3 ADD SWAP2 POP POP SWAP1 POP JUMPDEST POP SWAP1 POP PUSH0 PUSH0 SWAP1 POP PUSH0 PUSH0 SWAP1 POP PUSH0 PUSH0 SWAP1 POP JUMPDEST DUP6 DUP4 LT DUP1 ISZERO PUSH2 0x957 JUMPI POP DUP5 DUP3 LT JUMPDEST ISZERO PUSH2 0xA43 JUMPI DUP9 DUP9 DUP4 DUP2 DUP2 LT PUSH2 0x96F JUMPI PUSH2 0x96E PUSH2 0x1431 JUMP JUMPDEST JUMPDEST SWAP1 POP PUSH1 0x20 MUL ADD CALLDATALOAD DUP12 DUP12 DUP6 DUP2 DUP2 LT PUSH2 0x989 JUMPI PUSH2 0x988 PUSH2 0x1431 JUMP JUMPDEST JUMPDEST SWAP1 POP PUSH1 0x20 MUL ADD CALLDATALOAD LT ISZERO PUSH2 0x9EC JUMPI DUP11 DUP11 DUP5 DUP1 PUSH2 0x9A3 SWAP1 PUSH2 0x151B JUMP JUMPDEST SWAP6 POP DUP2 DUP2 LT PUSH2 0x9B5 JUMPI PUSH2 0x9B4 PUSH2 0x1431 JUMP JUMPDEST JUMPDEST SWAP1 POP PUSH1 0x20 MUL ADD CALLDATALOAD DUP5 DUP3 DUP1 PUSH2 0x9C8 SWAP1 PUSH2 0x151B JUMP JUMPDEST SWAP4 POP DUP2 MLOAD DUP2 LT PUSH2 0x9DB JUMPI PUSH2 0x9DA PUSH2 0x1431 JUMP JUMPDEST JUMPDEST PUSH1 0x20 MUL PUSH1 0x20 ADD ADD DUP2 DUP2 MSTORE POP POP PUSH2 0xA3E JUMP JUMPDEST DUP9 DUP9 DUP4 DUP1 PUSH2 0x9F9 SWAP1 PUSH2 0x151B JUMP JUMPDEST SWAP5 POP DUP2 DUP2 LT PUSH2 0xA0B JUMPI PUSH2 0xA0A PUSH2 0x1431 JUMP JUMPDEST JUMPDEST SWAP1 POP PUSH1 0x20 MUL ADD CALLDATALOAD DUP5 DUP3 DUP1 PUSH2 0xA1E SWAP1 PUSH2 0x151B JUMP JUMPDEST SWAP4 POP DUP2 MLOAD DUP2 LT PUSH2 0xA31 JUMPI PUSH2 0xA30 PUSH2 0x1431 JUMP JUMPDEST JUMPDEST PUSH1 0x20 MUL PUSH1 0x20 ADD ADD DUP2 DUP2 MSTORE POP POP JUMPDEST PUSH2 0x949 JUMP JUMPDEST JUMPDEST DUP6 DUP4 LT ISZERO PUSH2 0xAA2 JUMPI DUP11 DUP11 DUP5 DUP1 PUSH2 0xA59 SWAP1 PUSH2 0x151B JUMP JUMPDEST SWAP6 POP DUP2 DUP2 LT PUSH2 0xA6B JUMPI PUSH2 0xA6A PUSH2 0x1431 JUMP JUMPDEST JUMPDEST SWAP1 POP PUSH1 0x20 MUL ADD CALLDATALOAD DUP5 DUP3 DUP1 PUSH2 0xA7E SWAP1 PUSH2 0x151B JUMP JUMPDEST SWAP4 POP DUP2 MLOAD DUP2 LT PUSH2 0xA91 JUMPI PUSH2 0xA90 PUSH2 0x1431 JUMP JUMPDEST JUMPDEST PUSH1 0x20 MUL PUSH1 0x20 ADD ADD DUP2 DUP2 MSTORE POP POP PUSH2 0xA44 JUMP JUMPDEST JUMPDEST DUP5 DUP3 LT ISZERO PUSH2 0xB01 JUMPI DUP9 DUP9 DUP4 DUP1 PUSH2 0xAB8 SWAP1 PUSH2 0x151B JUMP JUMPDEST SWAP5 POP DUP2 DUP2 LT PUSH2 0xACA JUMPI PUSH2 0xAC9 PUSH2 0x1431 JUMP JUMPDEST JUMPDEST SWAP1 POP PUSH1 0x20 MUL ADD CALLDATALOAD DUP5 DUP3 DUP1 PUSH2 0xADD SWAP1 PUSH2 0x151B JUMP JUMPDEST SWAP4 POP DUP2 MLOAD DUP2 LT PUSH2 0xAF0 JUMPI PUSH2 0xAEF PUSH2 0x1431 JUMP JUMPDEST JUMPDEST PUSH1 0x20 MUL PUSH1 0x20 ADD ADD DUP2 DUP2 MSTORE POP POP PUSH2 0xAA3 JUMP JUMPDEST DUP4 SWAP7 POP POP POP POP POP POP POP SWAP5 SWAP4 POP POP POP POP JUMP JUMPDEST PUSH1 0x60 PUSH0 DUP4 DUP4 DUP1 DUP1 PUSH1 0x1F ADD PUSH1 0x20 DUP1 SWAP2 DIV MUL PUSH1 0x20 ADD PUSH1 0x40 MLOAD SWAP1 DUP2 ADD PUSH1 0x40 MSTORE DUP1 SWAP4 SWAP3 SWAP2 SWAP1 DUP2 DUP2 MSTORE PUSH1 0x20 ADD DUP4 DUP4 DUP1 DUP3 DUP5 CALLDATACOPY PUSH0 DUP2 DUP5 ADD MSTORE PUSH1 0x1F NOT PUSH1 0x1F DUP3 ADD AND SWAP1 POP DUP1 DUP4 ADD SWAP3 POP POP POP POP POP POP POP SWAP1 POP PUSH0 DUP2 MLOAD SWAP1 POP PUSH0 DUP2 SUB PUSH2 0xB7F JUMPI PUSH1 0x40 MLOAD DUP1 PUSH1 0x20 ADD PUSH1 0x40 MSTORE DUP1 PUSH0 DUP2 MSTORE POP SWAP3 POP POP POP PUSH2 0xC67 JUMP JUMPDEST PUSH0 DUP2 PUSH8 0xFFFFFFFFFFFFFFFF DUP2 GT ISZERO PUSH2 0xB9A JUMPI PUSH2 0xB99 PUSH2 0x10D1 JUMP JUMPDEST JUMPDEST PUSH1 0x40 MLOAD SWAP1 DUP1 DUP3 MSTORE DUP1 PUSH1 0x1F ADD PUSH1 0x1F NOT AND PUSH1 0x20 ADD DUP3 ADD PUSH1 0x40 MSTORE DUP1 ISZERO PUSH2 0xBCC JUMPI DUP2 PUSH1 0x20 ADD PUSH1 0x1 DUP3 MUL DUP1 CALLDATASIZE DUP4 CALLDATACOPY DUP1 DUP3 ADD SWAP2 POP POP SWAP1 POP JUMPDEST POP SWAP1 POP PUSH0 PUSH0 SWAP1 POP JUMPDEST DUP3 DUP2 LT ISZERO PUSH2 0xC5F JUMPI DUP4 DUP2 PUSH1 0x1 DUP6 PUSH2 0xBEB SWAP2 SWAP1 PUSH2 0x148B JUMP JUMPDEST PUSH2 0xBF5 SWAP2 SWAP1 PUSH2 0x148B JUMP JUMPDEST DUP2 MLOAD DUP2 LT PUSH2 0xC06 JUMPI PUSH2 0xC05 PUSH2 0x1431 JUMP JUMPDEST JUMPDEST PUSH1 0x20 ADD ADD MLOAD PUSH1 0xF8 SHR PUSH1 0xF8 SHL DUP3 DUP3 DUP2 MLOAD DUP2 LT PUSH2 0xC24 JUMPI PUSH2 0xC23 PUSH2 0x1431 JUMP JUMPDEST JUMPDEST PUSH1 0x20 ADD ADD SWAP1 PUSH31 0xFFFFFFFFFFFFFFFFFFFFFFFFFFFFFFFFFFFFFFFFFFFFFFFFFFFFFFFFFFFFFF NOT AND SWAP1 DUP2 PUSH0 BYTE SWAP1 MSTORE8 POP DUP1 DUP1 PUSH1 0x1 ADD SWAP2 POP POP PUSH2 0xBD4 JUMP JUMPDEST POP DUP1 SWAP4 POP POP POP POP JUMPDEST SWAP3 SWAP2 POP POP JUMP JUMPDEST PUSH0 PUSH32 0x4900000000000000000000000000000000000000000000000000000000000000 DUP3 PUSH31 0xFFFFFFFFFFFFFFFFFFFFFFFFFFFFFFFFFFFFFFFFFFFFFFFFFFFFFFFFFFFFFF NOT AND SUB PUSH2 0xCC0 JUMPI PUSH1 0x1 SWAP1 POP PUSH2 0xEB2 JUMP JUMPDEST PUSH32 0x5600000000000000000000000000000000000000000000000000000000000000 DUP3 PUSH31 0xFFFFFFFFFFFFFFFFFFFFFFFFFFFFFFFFFFFFFFFFFFFFFFFFFFFFFFFFFFFFFF NOT AND SUB PUSH2 0xD12 JUMPI PUSH1 0x5 SWAP1 POP PUSH2 0xEB2 JUMP JUMPDEST PUSH32 0x5800000000000000000000000000000000000000000000000000000000000000 DUP3 PUSH31 0xFFFFFFFFFFFFFFFFFFFFFFFFFFFFFFFFFFFFFFFFFFFFFFFFFFFFFFFFFFFFFF NOT AND SUB PUSH2 0xD64 JUMPI PUSH1 0xA SWAP1 POP PUSH2 0xEB2 JUMP JUMPDEST PUSH32 0x4C00000000000000000000000000000000000000000000000000000000000000 DUP3 PUSH31 0xFFFFFFFFFFFFFFFFFFFFFFFFFFFFFFFFFFFFFFFFFFFFFFFFFFFFFFFFFFFFFF NOT AND SUB PUSH2 0xDB6 JUMPI PUSH1 0x32 SWAP1 POP PUSH2 0xEB2 JUMP JUMPDEST PUSH32 0x4300000000000000000000000000000000000000000000000000000000000000 DUP3 PUSH31 0xFFFFFFFFFFFFFFFFFFFFFFFFFFFFFFFFFFFFFFFFFFFFFFFFFFFFFFFFFFFFFF NOT AND SUB PUSH2 0xE08 JUMPI PUSH1 0x64 SWAP1 POP PUSH2 0xEB2 JUMP JUMPDEST PUSH32 0x4400000000000000000000000000000000000000000000000000000000000000 DUP3 PUSH31 0xFFFFFFFFFFFFFFFFFFFFFFFFFFFFFFFFFFFFFFFFFFFFFFFFFFFFFFFFFFFFFF NOT AND SUB PUSH2 0xE5B JUMPI PUSH2 0x1F4 SWAP1 POP PUSH2 0xEB2 JUMP JUMPDEST PUSH32 0x4D00000000000000000000000000000000000000000000000000000000000000 DUP3 PUSH31 0xFFFFFFFFFFFFFFFFFFFFFFFFFFFFFFFFFFFFFFFFFFFFFFFFFFFFFFFFFFFFFF NOT AND SUB PUSH2 0xEAE JUMPI PUSH2 0x3E8 SWAP1 POP PUSH2 0xEB2 JUMP JUMPDEST PUSH0 SWAP1 POP JUMPDEST SWAP2 SWAP1 POP JUMP JUMPDEST PUSH0 PUSH1 0x40 MLOAD SWAP1 POP SWAP1 JUMP JUMPDEST PUSH0 PUSH0 REVERT JUMPDEST PUSH0 PUSH0 REVERT JUMPDEST PUSH0 DUP2 SWAP1 POP SWAP2 SWAP1 POP JUMP JUMPDEST PUSH2 0xEDA DUP2 PUSH2 0xEC8 JUMP JUMPDEST DUP2 EQ PUSH2 0xEE4 JUMPI PUSH0 PUSH0 REVERT JUMPDEST POP JUMP JUMPDEST PUSH0 DUP2 CALLDATALOAD SWAP1 POP PUSH2 0xEF5 DUP2 PUSH2 0xED1 JUMP JUMPDEST SWAP3 SWAP2 POP POP JUMP JUMPDEST PUSH0 PUSH1 0x20 DUP3 DUP5 SUB SLT ISZERO PUSH2 0xF10 JUMPI PUSH2 0xF0F PUSH2 0xEC0 JUMP JUMPDEST JUMPDEST PUSH0 PUSH2 0xF1D DUP5 DUP3 DUP6 ADD PUSH2 0xEE7 JUMP JUMPDEST SWAP2 POP POP SWAP3 SWAP2 POP POP JUMP JUMPDEST PUSH0 DUP2 MLOAD SWAP1 POP SWAP2 SWAP1 POP JUMP JUMPDEST PUSH0 DUP3 DUP3 MSTORE PUSH1 0x20 DUP3 ADD SWAP1 POP SWAP3 SWAP2 POP POP JUMP JUMPDEST DUP3 DUP2 DUP4 MCOPY PUSH0 DUP4 DUP4 ADD MSTORE POP POP POP JUMP JUMPDEST PUSH0 PUSH1 0x1F NOT PUSH1 0x1F DUP4 ADD AND SWAP1 POP SWAP2 SWAP1 POP JUMP JUMPDEST PUSH0 PUSH2 0xF68 DUP3 PUSH2 0xF26 JUMP JUMPDEST PUSH2 0xF72 DUP2 DUP6 PUSH2 0xF30 JUMP JUMPDEST SWAP4 POP PUSH2 0xF82 DUP2 DUP6 PUSH1 0x20 DUP7 ADD PUSH2 0xF40 JUMP JUMPDEST PUSH2 0xF8B DUP2 PUSH2 0xF4E JUMP JUMPDEST DUP5 ADD SWAP2 POP POP SWAP3 SWAP2 POP POP JUMP JUMPDEST PUSH0 PUSH1 0x20 DUP3 ADD SWAP1 POP DUP2 DUP2 SUB PUSH0 DUP4 ADD MSTORE PUSH2 0xFAE DUP2 DUP5 PUSH2 0xF5E JUMP JUMPDEST SWAP1 POP SWAP3 SWAP2 POP POP JUMP JUMPDEST PUSH0 PUSH0 REVERT JUMPDEST PUSH0 PUSH0 REVERT JUMPDEST PUSH0 PUSH0 REVERT JUMPDEST PUSH0 PUSH0 DUP4 PUSH1 0x1F DUP5 ADD SLT PUSH2 0xFD7 JUMPI PUSH2 0xFD6 PUSH2 0xFB6 JUMP JUMPDEST JUMPDEST DUP3 CALLDATALOAD SWAP1 POP PUSH8 0xFFFFFFFFFFFFFFFF DUP2 GT ISZERO PUSH2 0xFF4 JUMPI PUSH2 0xFF3 PUSH2 0xFBA JUMP JUMPDEST JUMPDEST PUSH1 0x20 DUP4 ADD SWAP2 POP DUP4 PUSH1 0x20 DUP3 MUL DUP4 ADD GT ISZERO PUSH2 0x1010 JUMPI PUSH2 0x100F PUSH2 0xFBE JUMP JUMPDEST JUMPDEST SWAP3 POP SWAP3 SWAP1 POP JUMP JUMPDEST PUSH0 PUSH0 PUSH0 PUSH1 0x40 DUP5 DUP7 SUB SLT ISZERO PUSH2 0x102E JUMPI PUSH2 0x102D PUSH2 0xEC0 JUMP JUMPDEST JUMPDEST PUSH0 DUP5 ADD CALLDATALOAD PUSH8 0xFFFFFFFFFFFFFFFF DUP2 GT ISZERO PUSH2 0x104B JUMPI PUSH2 0x104A PUSH2 0xEC4 JUMP JUMPDEST JUMPDEST PUSH2 0x1057 DUP7 DUP3 DUP8 ADD PUSH2 0xFC2 JUMP JUMPDEST SWAP4 POP SWAP4 POP POP PUSH1 0x20 PUSH2 0x106A DUP7 DUP3 DUP8 ADD PUSH2 0xEE7 JUMP JUMPDEST SWAP2 POP POP SWAP3 POP SWAP3 POP SWAP3 JUMP JUMPDEST PUSH0 DUP2 SWAP1 POP SWAP2 SWAP1 POP JUMP JUMPDEST PUSH2 0x1086 DUP2 PUSH2 0x1074 JUMP JUMPDEST DUP3 MSTORE POP POP JUMP JUMPDEST PUSH0 PUSH1 0x20 DUP3 ADD SWAP1 POP PUSH2 0x109F PUSH0 DUP4 ADD DUP5 PUSH2 0x107D JUMP JUMPDEST SWAP3 SWAP2 POP POP JUMP JUMPDEST PUSH2 0x10AE DUP2 PUSH2 0xEC8 JUMP JUMPDEST DUP3 MSTORE POP POP JUMP JUMPDEST PUSH0 PUSH1 0x20 DUP3 ADD SWAP1 POP PUSH2 0x10C7 PUSH0 DUP4 ADD DUP5 PUSH2 0x10A5 JUMP JUMPDEST SWAP3 SWAP2 POP POP JUMP JUMPDEST PUSH0 PUSH0 REVERT JUMPDEST PUSH32 0x4E487B7100000000000000000000000000000000000000000000000000000000 PUSH0 MSTORE PUSH1 0x41 PUSH1 0x4 MSTORE PUSH1 0x24 PUSH0 REVERT JUMPDEST PUSH2 0x1107 DUP3 PUSH2 0xF4E JUMP JUMPDEST DUP2 ADD DUP2 DUP2 LT PUSH8 0xFFFFFFFFFFFFFFFF DUP3 GT OR ISZERO PUSH2 0x1126 JUMPI PUSH2 0x1125 PUSH2 0x10D1 JUMP JUMPDEST JUMPDEST DUP1 PUSH1 0x40 MSTORE POP POP POP JUMP JUMPDEST PUSH0 PUSH2 0x1138 PUSH2 0xEB7 JUMP JUMPDEST SWAP1 POP PUSH2 0x1144 DUP3 DUP3 PUSH2 0x10FE JUMP JUMPDEST SWAP2 SWAP1 POP JUMP JUMPDEST PUSH0 PUSH8 0xFFFFFFFFFFFFFFFF DUP3 GT ISZERO PUSH2 0x1163 JUMPI PUSH2 0x1162 PUSH2 0x10D1 JUMP JUMPDEST JUMPDEST PUSH2 0x116C DUP3 PUSH2 0xF4E JUMP JUMPDEST SWAP1 POP PUSH1 0x20 DUP2 ADD SWAP1 POP SWAP2 SWAP1 POP JUMP JUMPDEST DUP3 DUP2 DUP4 CALLDATACOPY PUSH0 DUP4 DUP4 ADD MSTORE POP POP POP JUMP JUMPDEST PUSH0 PUSH2 0x1199 PUSH2 0x1194 DUP5 PUSH2 0x1149 JUMP JUMPDEST PUSH2 0x112F JUMP JUMPDEST SWAP1 POP DUP3 DUP2 MSTORE PUSH1 0x20 DUP2 ADD DUP5 DUP5 DUP5 ADD GT ISZERO PUSH2 0x11B5 JUMPI PUSH2 0x11B4 PUSH2 0x10CD JUMP JUMPDEST JUMPDEST PUSH2 0x11C0 DUP5 DUP3 DUP6 PUSH2 0x1179 JUMP JUMPDEST POP SWAP4 SWAP3 POP POP POP JUMP JUMPDEST PUSH0 DUP3 PUSH1 0x1F DUP4 ADD SLT PUSH2 0x11DC JUMPI PUSH2 0x11DB PUSH2 0xFB6 JUMP JUMPDEST JUMPDEST DUP2 CALLDATALOAD PUSH2 0x11EC DUP5 DUP3 PUSH1 0x20 DUP7 ADD PUSH2 0x1187 JUMP JUMPDEST SWAP2 POP POP SWAP3 SWAP2 POP POP JUMP JUMPDEST PUSH0 PUSH1 0x20 DUP3 DUP5 SUB SLT ISZERO PUSH2 0x120A JUMPI PUSH2 0x1209 PUSH2 0xEC0 JUMP JUMPDEST JUMPDEST PUSH0 DUP3 ADD CALLDATALOAD PUSH8 0xFFFFFFFFFFFFFFFF DUP2 GT ISZERO PUSH2 0x1227 JUMPI PUSH2 0x1226 PUSH2 0xEC4 JUMP JUMPDEST JUMPDEST PUSH2 0x1233 DUP5 DUP3 DUP6 ADD PUSH2 0x11C8 JUMP JUMPDEST SWAP2 POP POP SWAP3 SWAP2 POP POP JUMP JUMPDEST PUSH0 PUSH0 PUSH0 PUSH0 PUSH1 0x40 DUP6 DUP8 SUB SLT ISZERO PUSH2 0x1254 JUMPI PUSH2 0x1253 PUSH2 0xEC0 JUMP JUMPDEST JUMPDEST PUSH0 DUP6 ADD CALLDATALOAD PUSH8 0xFFFFFFFFFFFFFFFF DUP2 GT ISZERO PUSH2 0x1271 JUMPI PUSH2 0x1270 PUSH2 0xEC4 JUMP JUMPDEST JUMPDEST PUSH2 0x127D DUP8 DUP3 DUP9 ADD PUSH2 0xFC2 JUMP JUMPDEST SWAP5 POP SWAP5 POP POP PUSH1 0x20 DUP6 ADD CALLDATALOAD PUSH8 0xFFFFFFFFFFFFFFFF DUP2 GT ISZERO PUSH2 0x12A0 JUMPI PUSH2 0x129F PUSH2 0xEC4 JUMP JUMPDEST JUMPDEST PUSH2 0x12AC DUP8 DUP3 DUP9 ADD PUSH2 0xFC2 JUMP JUMPDEST SWAP3 POP SWAP3 POP POP SWAP3 SWAP6 SWAP2 SWAP5 POP SWAP3 POP JUMP JUMPDEST PUSH0 DUP2 MLOAD SWAP1 POP SWAP2 SWAP1 POP JUMP JUMPDEST PUSH0 DUP3 DUP3 MSTORE PUSH1 0x20 DUP3 ADD SWAP1 POP SWAP3 SWAP2 POP POP JUMP JUMPDEST PUSH0 DUP2 SWAP1 POP PUSH1 0x20 DUP3 ADD SWAP1 POP SWAP2 SWAP1 POP JUMP JUMPDEST PUSH2 0x12EC DUP2 PUSH2 0xEC8 JUMP JUMPDEST DUP3 MSTORE POP POP JUMP JUMPDEST PUSH0 PUSH2 0x12FD DUP4 DUP4 PUSH2 0x12E3 JUMP JUMPDEST PUSH1 0x20 DUP4 ADD SWAP1 POP SWAP3 SWAP2 POP POP JUMP JUMPDEST PUSH0 PUSH1 0x20 DUP3 ADD SWAP1 POP SWAP2 SWAP1 POP JUMP JUMPDEST PUSH0 PUSH2 0x131F DUP3 PUSH2 0x12BA JUMP JUMPDEST PUSH2 0x1329 DUP2 DUP6 PUSH2 0x12C4 JUMP JUMPDEST SWAP4 POP PUSH2 0x1334 DUP4 PUSH2 0x12D4 JUMP JUMPDEST DUP1 PUSH0 JUMPDEST DUP4 DUP2 LT ISZERO PUSH2 0x1364 JUMPI DUP2 MLOAD PUSH2 0x134B DUP9 DUP3 PUSH2 0x12F2 JUMP JUMPDEST SWAP8 POP PUSH2 0x1356 DUP4 PUSH2 0x1309 JUMP JUMPDEST SWAP3 POP POP PUSH1 0x1 DUP2 ADD SWAP1 POP PUSH2 0x1337 JUMP JUMPDEST POP DUP6 SWAP4 POP POP POP POP SWAP3 SWAP2 POP POP JUMP JUMPDEST PUSH0 PUSH1 0x20 DUP3 ADD SWAP1 POP DUP2 DUP2 SUB PUSH0 DUP4 ADD MSTORE PUSH2 0x1389 DUP2 DUP5 PUSH2 0x1315 JUMP JUMPDEST SWAP1 POP SWAP3 SWAP2 POP POP JUMP JUMPDEST PUSH0 PUSH0 DUP4 PUSH1 0x1F DUP5 ADD SLT PUSH2 0x13A6 JUMPI PUSH2 0x13A5 PUSH2 0xFB6 JUMP JUMPDEST JUMPDEST DUP3 CALLDATALOAD SWAP1 POP PUSH8 0xFFFFFFFFFFFFFFFF DUP2 GT ISZERO PUSH2 0x13C3 JUMPI PUSH2 0x13C2 PUSH2 0xFBA JUMP JUMPDEST JUMPDEST PUSH1 0x20 DUP4 ADD SWAP2 POP DUP4 PUSH1 0x1 DUP3 MUL DUP4 ADD GT ISZERO PUSH2 0x13DF JUMPI PUSH2 0x13DE PUSH2 0xFBE JUMP JUMPDEST JUMPDEST SWAP3 POP SWAP3 SWAP1 POP JUMP JUMPDEST PUSH0 PUSH0 PUSH1 0x20 DUP4 DUP6 SUB SLT ISZERO PUSH2 0x13FC JUMPI PUSH2 0x13FB PUSH2 0xEC0 JUMP JUMPDEST JUMPDEST PUSH0 DUP4 ADD CALLDATALOAD PUSH8 0xFFFFFFFFFFFFFFFF DUP2 GT ISZERO PUSH2 0x1419 JUMPI PUSH2 0x1418 PUSH2 0xEC4 JUMP JUMPDEST JUMPDEST PUSH2 0x1425 DUP6 DUP3 DUP7 ADD PUSH2 0x1391 JUMP JUMPDEST SWAP3 POP SWAP3 POP POP SWAP3 POP SWAP3 SWAP1 POP JUMP JUMPDEST PUSH32 0x4E487B7100000000000000000000000000000000000000000000000000000000 PUSH0 MSTORE PUSH1 0x32 PUSH1 0x4 MSTORE PUSH1 0x24 PUSH0 REVERT JUMPDEST PUSH32 0x4E487B7100000000000000000000000000000000000000000000000000000000 PUSH0 MSTORE PUSH1 0x11 PUSH1 0x4 MSTORE PUSH1 0x24 PUSH0 REVERT JUMPDEST PUSH0 PUSH2 0x1495 DUP3 PUSH2 0xEC8 JUMP JUMPDEST SWAP2 POP PUSH2 0x14A0 DUP4 PUSH2 0xEC8 JUMP JUMPDEST SWAP3 POP DUP3 DUP3 SUB SWAP1 POP DUP2 DUP2 GT ISZERO PUSH2 0x14B8 JUMPI PUSH2 0x14B7 PUSH2 0x145E JUMP JUMPDEST JUMPDEST SWAP3 SWAP2 POP POP JUMP JUMPDEST PUSH0 DUP2 SWAP1 POP SWAP3 SWAP2 POP POP JUMP JUMPDEST PUSH0 PUSH2 0x14D2 DUP3 PUSH2 0xF26 JUMP JUMPDEST PUSH2 0x14DC DUP2 DUP6 PUSH2 0x14BE JUMP JUMPDEST SWAP4 POP PUSH2 0x14EC DUP2 DUP6 PUSH1 0x20 DUP7 ADD PUSH2 0xF40 JUMP JUMPDEST DUP1 DUP5 ADD SWAP2 POP POP SWAP3 SWAP2 POP POP JUMP JUMPDEST PUSH0 PUSH2 0x1503 DUP3 DUP6 PUSH2 0x14C8 JUMP JUMPDEST SWAP2 POP PUSH2 0x150F DUP3 DUP5 PUSH2 0x14C8 JUMP JUMPDEST SWAP2 POP DUP2 SWAP1 POP SWAP4 SWAP3 POP POP POP JUMP JUMPDEST PUSH0 PUSH2 0x1525 DUP3 PUSH2 0xEC8 JUMP JUMPDEST SWAP2 POP PUSH32 0xFFFFFFFFFFFFFFFFFFFFFFFFFFFFFFFFFFFFFFFFFFFFFFFFFFFFFFFFFFFFFFFF DUP3 SUB PUSH2 0x1557 JUMPI PUSH2 0x1556 PUSH2 0x145E JUMP JUMPDEST JUMPDEST PUSH1 0x1 DUP3 ADD SWAP1 POP SWAP2 SWAP1 POP JUMP JUMPDEST PUSH0 PUSH2 0x156C DUP3 PUSH2 0xEC8 JUMP JUMPDEST SWAP2 POP PUSH2 0x1577 DUP4 PUSH2 0xEC8 JUMP JUMPDEST SWAP3 POP DUP3 DUP3 ADD SWAP1 POP DUP1 DUP3 GT ISZERO PUSH2 0x158F JUMPI PUSH2 0x158E PUSH2 0x145E JUMP JUMPDEST JUMPDEST SWAP3 SWAP2 POP POP JUMP JUMPDEST PUSH32 0x4E487B7100000000000000000000000000000000000000000000000000000000 PUSH0 MSTORE PUSH1 0x12 PUSH1 0x4 MSTORE PUSH1 0x24 PUSH0 REVERT JUMPDEST PUSH0 PUSH2 0x15CC DUP3 PUSH2 0xEC8 JUMP JUMPDEST SWAP2 POP PUSH2 0x15D7 DUP4 PUSH2 0xEC8 JUMP JUMPDEST SWAP3 POP DUP3 PUSH2 0x15E7 JUMPI PUSH2 0x15E6 PUSH2 0x1595 JUMP JUMPDEST JUMPDEST DUP3 DUP3 DIV SWAP1 POP SWAP3 SWAP2 POP POP JUMP INVALID LOG2 PUSH5 0x6970667358 0x22 SLT KECCAK256 SWAP15 CALLDATASIZE 0xBA SWAP1 0x4E BYTE TLOAD BASEFEE RETURN 0xFC 0xAF 0x2C MSTORE MSTORE SWAP6 CALLDATALOAD 0xAF SWAP13 DIV 0xC8 PUSH1 0xA7 0x27 DUP9 DELEGATECALL 0xD6 0x21 0xDF SHL PUSH12 0xC30564736F6C634300081E00 CALLER "
		},
		"gasEstimates": {
			"creation": {
				"codeDepositCost": "1134400",
				"executionCost": "1178",
				"totalCost": "1135578"
			},
			"external": {
				"binarySearch(uint256[],uint256)": "infinite",
				"binarySearch2(uint256[],uint256)": "infinite",
				"intToRoman(uint256)": "infinite",
				"mergeArrays(uint256[],uint256[])": "infinite",
				"romanToInt(string)": "infinite",
				"stringReverse(string)": "infinite"
			},
			"internal": {
				"valueOf(bytes1)": "262"
			}
		},
		"methodIdentifiers": {
			"binarySearch(uint256[],uint256)": "b12601da",
			"binarySearch2(uint256[],uint256)": "aaee9e95",
			"intToRoman(uint256)": "0cbc513a",
			"mergeArrays(uint256[],uint256[])": "de948709",
			"romanToInt(string)": "cb159dfe",
			"stringReverse(string)": "f3582c69"
		}
	},
	"abi": [
		{
			"inputs": [
				{
					"internalType": "uint256[]",
					"name": "arr",
					"type": "uint256[]"
				},
				{
					"internalType": "uint256",
					"name": "target",
					"type": "uint256"
				}
			],
			"name": "binarySearch",
			"outputs": [
				{
					"internalType": "uint256",
					"name": "",
					"type": "uint256"
				}
			],
			"stateMutability": "pure",
			"type": "function"
		},
		{
			"inputs": [
				{
					"internalType": "uint256[]",
					"name": "arr",
					"type": "uint256[]"
				},
				{
					"internalType": "uint256",
					"name": "target",
					"type": "uint256"
				}
			],
			"name": "binarySearch2",
			"outputs": [
				{
					"internalType": "int256",
					"name": "",
					"type": "int256"
				}
			],
			"stateMutability": "pure",
			"type": "function"
		},
		{
			"inputs": [
				{
					"internalType": "uint256",
					"name": "num",
					"type": "uint256"
				}
			],
			"name": "intToRoman",
			"outputs": [
				{
					"internalType": "string",
					"name": "",
					"type": "string"
				}
			],
			"stateMutability": "pure",
			"type": "function"
		},
		{
			"inputs": [
				{
					"internalType": "uint256[]",
					"name": "arr1",
					"type": "uint256[]"
				},
				{
					"internalType": "uint256[]",
					"name": "arr2",
					"type": "uint256[]"
				}
			],
			"name": "mergeArrays",
			"outputs": [
				{
					"internalType": "uint256[]",
					"name": "",
					"type": "uint256[]"
				}
			],
			"stateMutability": "pure",
			"type": "function"
		},
		{
			"inputs": [
				{
					"internalType": "string",
					"name": "str",
					"type": "string"
				}
			],
			"name": "romanToInt",
			"outputs": [
				{
					"internalType": "uint256",
					"name": "",
					"type": "uint256"
				}
			],
			"stateMutability": "pure",
			"type": "function"
		},
		{
			"inputs": [
				{
					"internalType": "string",
					"name": "line",
					"type": "string"
				}
			],
			"name": "stringReverse",
			"outputs": [
				{
					"internalType": "string",
					"name": "",
					"type": "string"
				}
			],
			"stateMutability": "pure",
			"type": "function"
		}
	]
}